{
	"propertyManagement.sol": {
		"propertyManagement": {
			"abi": [
				{
					"anonymous": false,
					"inputs": [
						{
							"indexed": false,
							"internalType": "uint256",
							"name": "propertyId",
							"type": "uint256"
						},
						{
							"indexed": false,
							"internalType": "bool",
							"name": "isAvailable",
							"type": "bool"
						},
						{
							"indexed": false,
							"internalType": "uint256",
							"name": "monthlyRent",
							"type": "uint256"
						},
						{
							"indexed": false,
							"internalType": "string",
							"name": "propertyType",
							"type": "string"
						},
						{
							"indexed": false,
							"internalType": "string",
							"name": "description",
							"type": "string"
						},
						{
							"indexed": false,
							"internalType": "string",
							"name": "location",
							"type": "string"
						},
						{
							"indexed": false,
							"internalType": "address",
							"name": "owner",
							"type": "address"
						}
					],
					"name": "PropertyAdded",
					"type": "event"
				},
				{
					"inputs": [
						{
							"internalType": "bool",
							"name": "_isAvailable",
							"type": "bool"
						},
						{
							"internalType": "uint256",
							"name": "_monthlyRent",
							"type": "uint256"
						},
						{
							"internalType": "string",
							"name": "_propertyType",
							"type": "string"
						},
						{
							"internalType": "string",
							"name": "_description",
							"type": "string"
						},
						{
							"internalType": "string",
							"name": "_location",
							"type": "string"
						}
					],
					"name": "addProperty",
					"outputs": [
						{
							"internalType": "bool",
							"name": "",
							"type": "bool"
						}
					],
					"stateMutability": "nonpayable",
					"type": "function"
				},
				{
					"inputs": [
						{
							"internalType": "uint256",
							"name": "_propertyId",
							"type": "uint256"
						}
					],
					"name": "getProperty",
					"outputs": [
						{
							"components": [
								{
									"internalType": "uint256",
									"name": "propertyId",
									"type": "uint256"
								},
								{
									"internalType": "bool",
									"name": "isAvailable",
									"type": "bool"
								},
								{
									"internalType": "bool",
									"name": "isWithdraw",
									"type": "bool"
								},
								{
									"internalType": "uint256",
									"name": "monthlyRent",
									"type": "uint256"
								},
								{
									"internalType": "string",
									"name": "propertyType",
									"type": "string"
								},
								{
									"internalType": "string",
									"name": "description",
									"type": "string"
								},
								{
									"internalType": "string",
									"name": "location",
									"type": "string"
								},
								{
									"internalType": "address",
									"name": "owner",
									"type": "address"
								}
							],
							"internalType": "struct propertyManagement.Property",
							"name": "",
							"type": "tuple"
						}
					],
					"stateMutability": "view",
					"type": "function"
				},
				{
					"inputs": [
						{
							"internalType": "uint256",
							"name": "_propertyId",
							"type": "uint256"
						}
					],
					"name": "getPropertyOwner",
					"outputs": [
						{
							"internalType": "address",
							"name": "",
							"type": "address"
						}
					],
					"stateMutability": "view",
					"type": "function"
				},
				{
					"inputs": [
						{
							"internalType": "uint256",
							"name": "",
							"type": "uint256"
						}
					],
					"name": "properties",
					"outputs": [
						{
							"internalType": "uint256",
							"name": "propertyId",
							"type": "uint256"
						},
						{
							"internalType": "bool",
							"name": "isAvailable",
							"type": "bool"
						},
						{
							"internalType": "bool",
							"name": "isWithdraw",
							"type": "bool"
						},
						{
							"internalType": "uint256",
							"name": "monthlyRent",
							"type": "uint256"
						},
						{
							"internalType": "string",
							"name": "propertyType",
							"type": "string"
						},
						{
							"internalType": "string",
							"name": "description",
							"type": "string"
						},
						{
							"internalType": "string",
							"name": "location",
							"type": "string"
						},
						{
							"internalType": "address",
							"name": "owner",
							"type": "address"
						}
					],
					"stateMutability": "view",
					"type": "function"
				},
				{
					"inputs": [],
					"name": "propertyCount",
					"outputs": [
						{
							"internalType": "uint256",
							"name": "",
							"type": "uint256"
						}
					],
					"stateMutability": "view",
					"type": "function"
				},
				{
					"inputs": [
						{
							"internalType": "uint256",
							"name": "_propertyId",
							"type": "uint256"
						},
						{
							"internalType": "bool",
							"name": "_isAvailable",
							"type": "bool"
						}
					],
					"name": "updateAvailability",
					"outputs": [
						{
							"internalType": "bool",
							"name": "",
							"type": "bool"
						}
					],
					"stateMutability": "nonpayable",
					"type": "function"
				},
				{
					"inputs": [
						{
							"internalType": "uint256",
							"name": "_propertyId",
							"type": "uint256"
						},
						{
							"internalType": "uint256",
							"name": "_monthlyRent",
							"type": "uint256"
						}
					],
					"name": "updateMonthlyRent",
					"outputs": [
						{
							"internalType": "bool",
							"name": "",
							"type": "bool"
						}
					],
					"stateMutability": "nonpayable",
					"type": "function"
				},
				{
					"inputs": [
						{
							"internalType": "uint256",
							"name": "_propertyId",
							"type": "uint256"
						},
						{
							"internalType": "string",
							"name": "_description",
							"type": "string"
						}
					],
					"name": "updateMonthlyRent",
					"outputs": [
						{
							"internalType": "bool",
							"name": "",
							"type": "bool"
						}
					],
					"stateMutability": "nonpayable",
					"type": "function"
				},
				{
					"inputs": [
						{
							"internalType": "uint256",
							"name": "_propertyId",
							"type": "uint256"
						},
						{
							"internalType": "bool",
							"name": "_isWithdraw",
							"type": "bool"
						}
					],
					"name": "updateWithdrawal",
					"outputs": [
						{
							"internalType": "bool",
							"name": "",
							"type": "bool"
						}
					],
					"stateMutability": "nonpayable",
					"type": "function"
				}
			],
			"devdoc": {
				"kind": "dev",
				"methods": {},
				"version": 1
			},
			"evm": {
				"assembly": "    /* \"propertyManagement.sol\":160:3480  contract propertyManagement{... */\n  mstore(0x40, 0x80)\n  callvalue\n  dup1\n  iszero\n  tag_1\n  jumpi\n  0x00\n  dup1\n  revert\ntag_1:\n  pop\n  dataSize(sub_0)\n  dup1\n  dataOffset(sub_0)\n  0x00\n  codecopy\n  0x00\n  return\nstop\n\nsub_0: assembly {\n        /* \"propertyManagement.sol\":160:3480  contract propertyManagement{... */\n      mstore(0x40, 0x80)\n      callvalue\n      dup1\n      iszero\n      tag_1\n      jumpi\n      0x00\n      dup1\n      revert\n    tag_1:\n      pop\n      jumpi(tag_2, lt(calldatasize, 0x04))\n      shr(0xe0, calldataload(0x00))\n      dup1\n      0xd426de3b\n      gt\n      tag_12\n      jumpi\n      dup1\n      0xd426de3b\n      eq\n      tag_7\n      jumpi\n      dup1\n      0xdbda146d\n      eq\n      tag_8\n      jumpi\n      dup1\n      0xe34fc531\n      eq\n      tag_9\n      jumpi\n      dup1\n      0xe61439d8\n      eq\n      tag_10\n      jumpi\n      dup1\n      0xf7b10808\n      eq\n      tag_11\n      jumpi\n      jump(tag_2)\n    tag_12:\n      dup1\n      0x2864e4a9\n      eq\n      tag_3\n      jumpi\n      dup1\n      0x32665ffb\n      eq\n      tag_4\n      jumpi\n      dup1\n      0xc361a335\n      eq\n      tag_5\n      jumpi\n      dup1\n      0xd0921936\n      eq\n      tag_6\n      jumpi\n    tag_2:\n      0x00\n      dup1\n      revert\n        /* \"propertyManagement.sol\":2295:2526  function updateAvailability(... */\n    tag_3:\n      tag_13\n      0x04\n      dup1\n      calldatasize\n      sub\n      dup2\n      add\n      swap1\n      tag_14\n      swap2\n      swap1\n      tag_15\n      jump\t// in\n    tag_14:\n      tag_16\n      jump\t// in\n    tag_13:\n      mload(0x40)\n      tag_17\n      swap2\n      swap1\n      tag_18\n      jump\t// in\n    tag_17:\n      mload(0x40)\n      dup1\n      swap2\n      sub\n      swap1\n      return\n        /* \"propertyManagement.sol\":1935:2081  function getProperty(... */\n    tag_4:\n      tag_19\n      0x04\n      dup1\n      calldatasize\n      sub\n      dup2\n      add\n      swap1\n      tag_20\n      swap2\n      swap1\n      tag_21\n      jump\t// in\n    tag_20:\n      tag_22\n      jump\t// in\n    tag_19:\n      mload(0x40)\n      tag_23\n      swap2\n      swap1\n      tag_24\n      jump\t// in\n    tag_23:\n      mload(0x40)\n      dup1\n      swap2\n      sub\n      swap1\n      return\n        /* \"propertyManagement.sol\":1008:1036  uint256 public propertyCount */\n    tag_5:\n      tag_25\n      tag_26\n      jump\t// in\n    tag_25:\n      mload(0x40)\n      tag_27\n      swap2\n      swap1\n      tag_28\n      jump\t// in\n    tag_27:\n      mload(0x40)\n      dup1\n      swap2\n      sub\n      swap1\n      return\n        /* \"propertyManagement.sol\":2892:3205  function updateMonthlyRent(... */\n    tag_6:\n      tag_29\n      0x04\n      dup1\n      calldatasize\n      sub\n      dup2\n      add\n      swap1\n      tag_30\n      swap2\n      swap1\n      tag_31\n      jump\t// in\n    tag_30:\n      tag_32\n      jump\t// in\n    tag_29:\n      mload(0x40)\n      tag_33\n      swap2\n      swap1\n      tag_18\n      jump\t// in\n    tag_33:\n      mload(0x40)\n      dup1\n      swap2\n      sub\n      swap1\n      return\n        /* \"propertyManagement.sol\":3239:3477  function updateMonthlyRent(... */\n    tag_7:\n      tag_34\n      0x04\n      dup1\n      calldatasize\n      sub\n      dup2\n      add\n      swap1\n      tag_35\n      swap2\n      swap1\n      tag_36\n      jump\t// in\n    tag_35:\n      tag_37\n      jump\t// in\n    tag_34:\n      mload(0x40)\n      tag_38\n      swap2\n      swap1\n      tag_18\n      jump\t// in\n    tag_38:\n      mload(0x40)\n      dup1\n      swap2\n      sub\n      swap1\n      return\n        /* \"propertyManagement.sol\":2560:2861  function updateWithdrawal(... */\n    tag_8:\n      tag_39\n      0x04\n      dup1\n      calldatasize\n      sub\n      dup2\n      add\n      swap1\n      tag_40\n      swap2\n      swap1\n      tag_15\n      jump\t// in\n    tag_40:\n      tag_41\n      jump\t// in\n    tag_39:\n      mload(0x40)\n      tag_42\n      swap2\n      swap1\n      tag_18\n      jump\t// in\n    tag_42:\n      mload(0x40)\n      dup1\n      swap2\n      sub\n      swap1\n      return\n        /* \"propertyManagement.sol\":2116:2261  function getPropertyOwner(... */\n    tag_9:\n      tag_43\n      0x04\n      dup1\n      calldatasize\n      sub\n      dup2\n      add\n      swap1\n      tag_44\n      swap2\n      swap1\n      tag_21\n      jump\t// in\n    tag_44:\n      tag_45\n      jump\t// in\n    tag_43:\n      mload(0x40)\n      tag_46\n      swap2\n      swap1\n      tag_47\n      jump\t// in\n    tag_46:\n      mload(0x40)\n      dup1\n      swap2\n      sub\n      swap1\n      return\n        /* \"propertyManagement.sol\":1327:1894  function addProperty(... */\n    tag_10:\n      tag_48\n      0x04\n      dup1\n      calldatasize\n      sub\n      dup2\n      add\n      swap1\n      tag_49\n      swap2\n      swap1\n      tag_50\n      jump\t// in\n    tag_49:\n      tag_51\n      jump\t// in\n    tag_48:\n      mload(0x40)\n      tag_52\n      swap2\n      swap1\n      tag_18\n      jump\t// in\n    tag_52:\n      mload(0x40)\n      dup1\n      swap2\n      sub\n      swap1\n      return\n        /* \"propertyManagement.sol\":936:981  mapping(uint256 => Property)public properties */\n    tag_11:\n      tag_53\n      0x04\n      dup1\n      calldatasize\n      sub\n      dup2\n      add\n      swap1\n      tag_54\n      swap2\n      swap1\n      tag_21\n      jump\t// in\n    tag_54:\n      tag_55\n      jump\t// in\n    tag_53:\n      mload(0x40)\n      tag_56\n      swap9\n      swap8\n      swap7\n      swap6\n      swap5\n      swap4\n      swap3\n      swap2\n      swap1\n      tag_57\n      jump\t// in\n    tag_56:\n      mload(0x40)\n      dup1\n      swap2\n      sub\n      swap1\n      return\n        /* \"propertyManagement.sol\":2295:2526  function updateAvailability(... */\n    tag_16:\n        /* \"propertyManagement.sol\":2428:2432  bool */\n      0x00\n        /* \"propertyManagement.sol\":2407:2418  _propertyId */\n      dup3\n        /* \"propertyManagement.sol\":1230:1239  tx.origin */\n      origin\n        /* \"propertyManagement.sol\":1197:1239  properties[_propertyId].owner == tx.origin */\n      0xffffffffffffffffffffffffffffffffffffffff\n      and\n        /* \"propertyManagement.sol\":1197:1207  properties */\n      0x00\n        /* \"propertyManagement.sol\":1197:1220  properties[_propertyId] */\n      dup1\n        /* \"propertyManagement.sol\":1208:1219  _propertyId */\n      dup4\n        /* \"propertyManagement.sol\":1197:1220  properties[_propertyId] */\n      dup2\n      mstore\n      0x20\n      add\n      swap1\n      dup2\n      mstore\n      0x20\n      add\n      0x00\n      keccak256\n        /* \"propertyManagement.sol\":1197:1226  properties[_propertyId].owner */\n      0x06\n      add\n      0x00\n      swap1\n      sload\n      swap1\n      0x0100\n      exp\n      swap1\n      div\n      0xffffffffffffffffffffffffffffffffffffffff\n      and\n        /* \"propertyManagement.sol\":1197:1239  properties[_propertyId].owner == tx.origin */\n      0xffffffffffffffffffffffffffffffffffffffff\n      and\n      eq\n        /* \"propertyManagement.sol\":1189:1279  require(properties[_propertyId].owner == tx.origin,\"you aren't the owner of the property\") */\n      tag_59\n      jumpi\n      mload(0x40)\n      0x08c379a000000000000000000000000000000000000000000000000000000000\n      dup2\n      mstore\n      0x04\n      add\n      tag_60\n      swap1\n      tag_61\n      jump\t// in\n    tag_60:\n      mload(0x40)\n      dup1\n      swap2\n      sub\n      swap1\n      revert\n    tag_59:\n        /* \"propertyManagement.sol\":2482:2494  _isAvailable */\n      dup3\n        /* \"propertyManagement.sol\":2444:2454  properties */\n      0x00\n        /* \"propertyManagement.sol\":2444:2467  properties[_propertyId] */\n      dup1\n        /* \"propertyManagement.sol\":2455:2466  _propertyId */\n      dup7\n        /* \"propertyManagement.sol\":2444:2467  properties[_propertyId] */\n      dup2\n      mstore\n      0x20\n      add\n      swap1\n      dup2\n      mstore\n      0x20\n      add\n      0x00\n      keccak256\n        /* \"propertyManagement.sol\":2444:2479  properties[_propertyId].isAvailable */\n      0x01\n      add\n      0x00\n        /* \"propertyManagement.sol\":2444:2494  properties[_propertyId].isAvailable = _isAvailable */\n      0x0100\n      exp\n      dup2\n      sload\n      dup2\n      0xff\n      mul\n      not\n      and\n      swap1\n      dup4\n      iszero\n      iszero\n      mul\n      or\n      swap1\n      sstore\n      pop\n        /* \"propertyManagement.sol\":2514:2518  true */\n      0x01\n        /* \"propertyManagement.sol\":2507:2518  return true */\n      swap2\n      pop\n        /* \"propertyManagement.sol\":2295:2526  function updateAvailability(... */\n      pop\n      swap3\n      swap2\n      pop\n      pop\n      jump\t// out\n        /* \"propertyManagement.sol\":1935:2081  function getProperty(... */\n    tag_22:\n        /* \"propertyManagement.sol\":2016:2031  Property memory */\n      tag_63\n      tag_64\n      jump\t// in\n    tag_63:\n        /* \"propertyManagement.sol\":2050:2060  properties */\n      0x00\n        /* \"propertyManagement.sol\":2050:2073  properties[_propertyId] */\n      dup1\n        /* \"propertyManagement.sol\":2061:2072  _propertyId */\n      dup4\n        /* \"propertyManagement.sol\":2050:2073  properties[_propertyId] */\n      dup2\n      mstore\n      0x20\n      add\n      swap1\n      dup2\n      mstore\n      0x20\n      add\n      0x00\n      keccak256\n        /* \"propertyManagement.sol\":2043:2073  return properties[_propertyId] */\n      mload(0x40)\n      dup1\n      0x0100\n      add\n      0x40\n      mstore\n      swap1\n      dup2\n      0x00\n      dup3\n      add\n      sload\n      dup2\n      mstore\n      0x20\n      add\n      0x01\n      dup3\n      add\n      0x00\n      swap1\n      sload\n      swap1\n      0x0100\n      exp\n      swap1\n      div\n      0xff\n      and\n      iszero\n      iszero\n      iszero\n      iszero\n      dup2\n      mstore\n      0x20\n      add\n      0x01\n      dup3\n      add\n      0x01\n      swap1\n      sload\n      swap1\n      0x0100\n      exp\n      swap1\n      div\n      0xff\n      and\n      iszero\n      iszero\n      iszero\n      iszero\n      dup2\n      mstore\n      0x20\n      add\n      0x02\n      dup3\n      add\n      sload\n      dup2\n      mstore\n      0x20\n      add\n      0x03\n      dup3\n      add\n      dup1\n      sload\n      tag_66\n      swap1\n      tag_67\n      jump\t// in\n    tag_66:\n      dup1\n      0x1f\n      add\n      0x20\n      dup1\n      swap2\n      div\n      mul\n      0x20\n      add\n      mload(0x40)\n      swap1\n      dup2\n      add\n      0x40\n      mstore\n      dup1\n      swap3\n      swap2\n      swap1\n      dup2\n      dup2\n      mstore\n      0x20\n      add\n      dup3\n      dup1\n      sload\n      tag_68\n      swap1\n      tag_67\n      jump\t// in\n    tag_68:\n      dup1\n      iszero\n      tag_69\n      jumpi\n      dup1\n      0x1f\n      lt\n      tag_70\n      jumpi\n      0x0100\n      dup1\n      dup4\n      sload\n      div\n      mul\n      dup4\n      mstore\n      swap2\n      0x20\n      add\n      swap2\n      jump(tag_69)\n    tag_70:\n      dup3\n      add\n      swap2\n      swap1\n      0x00\n      mstore\n      keccak256(0x00, 0x20)\n      swap1\n    tag_71:\n      dup2\n      sload\n      dup2\n      mstore\n      swap1\n      0x01\n      add\n      swap1\n      0x20\n      add\n      dup1\n      dup4\n      gt\n      tag_71\n      jumpi\n      dup3\n      swap1\n      sub\n      0x1f\n      and\n      dup3\n      add\n      swap2\n    tag_69:\n      pop\n      pop\n      pop\n      pop\n      pop\n      dup2\n      mstore\n      0x20\n      add\n      0x04\n      dup3\n      add\n      dup1\n      sload\n      tag_72\n      swap1\n      tag_67\n      jump\t// in\n    tag_72:\n      dup1\n      0x1f\n      add\n      0x20\n      dup1\n      swap2\n      div\n      mul\n      0x20\n      add\n      mload(0x40)\n      swap1\n      dup2\n      add\n      0x40\n      mstore\n      dup1\n      swap3\n      swap2\n      swap1\n      dup2\n      dup2\n      mstore\n      0x20\n      add\n      dup3\n      dup1\n      sload\n      tag_73\n      swap1\n      tag_67\n      jump\t// in\n    tag_73:\n      dup1\n      iszero\n      tag_74\n      jumpi\n      dup1\n      0x1f\n      lt\n      tag_75\n      jumpi\n      0x0100\n      dup1\n      dup4\n      sload\n      div\n      mul\n      dup4\n      mstore\n      swap2\n      0x20\n      add\n      swap2\n      jump(tag_74)\n    tag_75:\n      dup3\n      add\n      swap2\n      swap1\n      0x00\n      mstore\n      keccak256(0x00, 0x20)\n      swap1\n    tag_76:\n      dup2\n      sload\n      dup2\n      mstore\n      swap1\n      0x01\n      add\n      swap1\n      0x20\n      add\n      dup1\n      dup4\n      gt\n      tag_76\n      jumpi\n      dup3\n      swap1\n      sub\n      0x1f\n      and\n      dup3\n      add\n      swap2\n    tag_74:\n      pop\n      pop\n      pop\n      pop\n      pop\n      dup2\n      mstore\n      0x20\n      add\n      0x05\n      dup3\n      add\n      dup1\n      sload\n      tag_77\n      swap1\n      tag_67\n      jump\t// in\n    tag_77:\n      dup1\n      0x1f\n      add\n      0x20\n      dup1\n      swap2\n      div\n      mul\n      0x20\n      add\n      mload(0x40)\n      swap1\n      dup2\n      add\n      0x40\n      mstore\n      dup1\n      swap3\n      swap2\n      swap1\n      dup2\n      dup2\n      mstore\n      0x20\n      add\n      dup3\n      dup1\n      sload\n      tag_78\n      swap1\n      tag_67\n      jump\t// in\n    tag_78:\n      dup1\n      iszero\n      tag_79\n      jumpi\n      dup1\n      0x1f\n      lt\n      tag_80\n      jumpi\n      0x0100\n      dup1\n      dup4\n      sload\n      div\n      mul\n      dup4\n      mstore\n      swap2\n      0x20\n      add\n      swap2\n      jump(tag_79)\n    tag_80:\n      dup3\n      add\n      swap2\n      swap1\n      0x00\n      mstore\n      keccak256(0x00, 0x20)\n      swap1\n    tag_81:\n      dup2\n      sload\n      dup2\n      mstore\n      swap1\n      0x01\n      add\n      swap1\n      0x20\n      add\n      dup1\n      dup4\n      gt\n      tag_81\n      jumpi\n      dup3\n      swap1\n      sub\n      0x1f\n      and\n      dup3\n      add\n      swap2\n    tag_79:\n      pop\n      pop\n      pop\n      pop\n      pop\n      dup2\n      mstore\n      0x20\n      add\n      0x06\n      dup3\n      add\n      0x00\n      swap1\n      sload\n      swap1\n      0x0100\n      exp\n      swap1\n      div\n      0xffffffffffffffffffffffffffffffffffffffff\n      and\n      0xffffffffffffffffffffffffffffffffffffffff\n      and\n      0xffffffffffffffffffffffffffffffffffffffff\n      and\n      dup2\n      mstore\n      pop\n      pop\n      swap1\n      pop\n        /* \"propertyManagement.sol\":1935:2081  function getProperty(... */\n      swap2\n      swap1\n      pop\n      jump\t// out\n        /* \"propertyManagement.sol\":1008:1036  uint256 public propertyCount */\n    tag_26:\n      sload(0x01)\n      dup2\n      jump\t// out\n        /* \"propertyManagement.sol\":2892:3205  function updateMonthlyRent(... */\n    tag_32:\n        /* \"propertyManagement.sol\":3026:3030  bool */\n      0x00\n        /* \"propertyManagement.sol\":3005:3016  _propertyId */\n      dup3\n        /* \"propertyManagement.sol\":1230:1239  tx.origin */\n      origin\n        /* \"propertyManagement.sol\":1197:1239  properties[_propertyId].owner == tx.origin */\n      0xffffffffffffffffffffffffffffffffffffffff\n      and\n        /* \"propertyManagement.sol\":1197:1207  properties */\n      0x00\n        /* \"propertyManagement.sol\":1197:1220  properties[_propertyId] */\n      dup1\n        /* \"propertyManagement.sol\":1208:1219  _propertyId */\n      dup4\n        /* \"propertyManagement.sol\":1197:1220  properties[_propertyId] */\n      dup2\n      mstore\n      0x20\n      add\n      swap1\n      dup2\n      mstore\n      0x20\n      add\n      0x00\n      keccak256\n        /* \"propertyManagement.sol\":1197:1226  properties[_propertyId].owner */\n      0x06\n      add\n      0x00\n      swap1\n      sload\n      swap1\n      0x0100\n      exp\n      swap1\n      div\n      0xffffffffffffffffffffffffffffffffffffffff\n      and\n        /* \"propertyManagement.sol\":1197:1239  properties[_propertyId].owner == tx.origin */\n      0xffffffffffffffffffffffffffffffffffffffff\n      and\n      eq\n        /* \"propertyManagement.sol\":1189:1279  require(properties[_propertyId].owner == tx.origin,\"you aren't the owner of the property\") */\n      tag_83\n      jumpi\n      mload(0x40)\n      0x08c379a000000000000000000000000000000000000000000000000000000000\n      dup2\n      mstore\n      0x04\n      add\n      tag_84\n      swap1\n      tag_61\n      jump\t// in\n    tag_84:\n      mload(0x40)\n      dup1\n      swap2\n      sub\n      swap1\n      revert\n    tag_83:\n        /* \"propertyManagement.sol\":3084:3096  _monthlyRent */\n      dup3\n        /* \"propertyManagement.sol\":3045:3055  properties */\n      0x00\n        /* \"propertyManagement.sol\":3045:3068  properties[_propertyId] */\n      dup1\n        /* \"propertyManagement.sol\":3056:3067  _propertyId */\n      dup7\n        /* \"propertyManagement.sol\":3045:3068  properties[_propertyId] */\n      dup2\n      mstore\n      0x20\n      add\n      swap1\n      dup2\n      mstore\n      0x20\n      add\n      0x00\n      keccak256\n        /* \"propertyManagement.sol\":3045:3080  properties[_propertyId].monthlyRent */\n      0x02\n      add\n      sload\n        /* \"propertyManagement.sol\":3045:3096  properties[_propertyId].monthlyRent != _monthlyRent */\n      eq\n        /* \"propertyManagement.sol\":3042:3174  if(properties[_propertyId].monthlyRent != _monthlyRent){... */\n      tag_86\n      jumpi\n        /* \"propertyManagement.sol\":3150:3162  _monthlyRent */\n      dup3\n        /* \"propertyManagement.sol\":3112:3122  properties */\n      0x00\n        /* \"propertyManagement.sol\":3112:3135  properties[_propertyId] */\n      dup1\n        /* \"propertyManagement.sol\":3123:3134  _propertyId */\n      dup7\n        /* \"propertyManagement.sol\":3112:3135  properties[_propertyId] */\n      dup2\n      mstore\n      0x20\n      add\n      swap1\n      dup2\n      mstore\n      0x20\n      add\n      0x00\n      keccak256\n        /* \"propertyManagement.sol\":3112:3147  properties[_propertyId].monthlyRent */\n      0x02\n      add\n        /* \"propertyManagement.sol\":3112:3162  properties[_propertyId].monthlyRent = _monthlyRent */\n      dup2\n      swap1\n      sstore\n      pop\n        /* \"propertyManagement.sol\":3042:3174  if(properties[_propertyId].monthlyRent != _monthlyRent){... */\n    tag_86:\n        /* \"propertyManagement.sol\":3193:3197  true */\n      0x01\n        /* \"propertyManagement.sol\":3186:3197  return true */\n      swap2\n      pop\n        /* \"propertyManagement.sol\":2892:3205  function updateMonthlyRent(... */\n      pop\n      swap3\n      swap2\n      pop\n      pop\n      jump\t// out\n        /* \"propertyManagement.sol\":3239:3477  function updateMonthlyRent(... */\n    tag_37:\n        /* \"propertyManagement.sol\":3379:3383  bool */\n      0x00\n        /* \"propertyManagement.sol\":3358:3369  _propertyId */\n      dup3\n        /* \"propertyManagement.sol\":1230:1239  tx.origin */\n      origin\n        /* \"propertyManagement.sol\":1197:1239  properties[_propertyId].owner == tx.origin */\n      0xffffffffffffffffffffffffffffffffffffffff\n      and\n        /* \"propertyManagement.sol\":1197:1207  properties */\n      0x00\n        /* \"propertyManagement.sol\":1197:1220  properties[_propertyId] */\n      dup1\n        /* \"propertyManagement.sol\":1208:1219  _propertyId */\n      dup4\n        /* \"propertyManagement.sol\":1197:1220  properties[_propertyId] */\n      dup2\n      mstore\n      0x20\n      add\n      swap1\n      dup2\n      mstore\n      0x20\n      add\n      0x00\n      keccak256\n        /* \"propertyManagement.sol\":1197:1226  properties[_propertyId].owner */\n      0x06\n      add\n      0x00\n      swap1\n      sload\n      swap1\n      0x0100\n      exp\n      swap1\n      div\n      0xffffffffffffffffffffffffffffffffffffffff\n      and\n        /* \"propertyManagement.sol\":1197:1239  properties[_propertyId].owner == tx.origin */\n      0xffffffffffffffffffffffffffffffffffffffff\n      and\n      eq\n        /* \"propertyManagement.sol\":1189:1279  require(properties[_propertyId].owner == tx.origin,\"you aren't the owner of the property\") */\n      tag_88\n      jumpi\n      mload(0x40)\n      0x08c379a000000000000000000000000000000000000000000000000000000000\n      dup2\n      mstore\n      0x04\n      add\n      tag_89\n      swap1\n      tag_61\n      jump\t// in\n    tag_89:\n      mload(0x40)\n      dup1\n      swap2\n      sub\n      swap1\n      revert\n    tag_88:\n        /* \"propertyManagement.sol\":3433:3445  _description */\n      dup3\n        /* \"propertyManagement.sol\":3395:3405  properties */\n      0x00\n        /* \"propertyManagement.sol\":3395:3418  properties[_propertyId] */\n      dup1\n        /* \"propertyManagement.sol\":3406:3417  _propertyId */\n      dup7\n        /* \"propertyManagement.sol\":3395:3418  properties[_propertyId] */\n      dup2\n      mstore\n      0x20\n      add\n      swap1\n      dup2\n      mstore\n      0x20\n      add\n      0x00\n      keccak256\n        /* \"propertyManagement.sol\":3395:3430  properties[_propertyId].description */\n      0x04\n      add\n        /* \"propertyManagement.sol\":3395:3445  properties[_propertyId].description = _description */\n      swap1\n      dup2\n      tag_91\n      swap2\n      swap1\n      tag_92\n      jump\t// in\n    tag_91:\n      pop\n        /* \"propertyManagement.sol\":3465:3469  true */\n      0x01\n        /* \"propertyManagement.sol\":3458:3469  return true */\n      swap2\n      pop\n        /* \"propertyManagement.sol\":3239:3477  function updateMonthlyRent(... */\n      pop\n      swap3\n      swap2\n      pop\n      pop\n      jump\t// out\n        /* \"propertyManagement.sol\":2560:2861  function updateWithdrawal(... */\n    tag_41:\n        /* \"propertyManagement.sol\":2688:2692  bool */\n      0x00\n        /* \"propertyManagement.sol\":2668:2679  _propertyId */\n      dup3\n        /* \"propertyManagement.sol\":1230:1239  tx.origin */\n      origin\n        /* \"propertyManagement.sol\":1197:1239  properties[_propertyId].owner == tx.origin */\n      0xffffffffffffffffffffffffffffffffffffffff\n      and\n        /* \"propertyManagement.sol\":1197:1207  properties */\n      0x00\n        /* \"propertyManagement.sol\":1197:1220  properties[_propertyId] */\n      dup1\n        /* \"propertyManagement.sol\":1208:1219  _propertyId */\n      dup4\n        /* \"propertyManagement.sol\":1197:1220  properties[_propertyId] */\n      dup2\n      mstore\n      0x20\n      add\n      swap1\n      dup2\n      mstore\n      0x20\n      add\n      0x00\n      keccak256\n        /* \"propertyManagement.sol\":1197:1226  properties[_propertyId].owner */\n      0x06\n      add\n      0x00\n      swap1\n      sload\n      swap1\n      0x0100\n      exp\n      swap1\n      div\n      0xffffffffffffffffffffffffffffffffffffffff\n      and\n        /* \"propertyManagement.sol\":1197:1239  properties[_propertyId].owner == tx.origin */\n      0xffffffffffffffffffffffffffffffffffffffff\n      and\n      eq\n        /* \"propertyManagement.sol\":1189:1279  require(properties[_propertyId].owner == tx.origin,\"you aren't the owner of the property\") */\n      tag_94\n      jumpi\n      mload(0x40)\n      0x08c379a000000000000000000000000000000000000000000000000000000000\n      dup2\n      mstore\n      0x04\n      add\n      tag_95\n      swap1\n      tag_61\n      jump\t// in\n    tag_95:\n      mload(0x40)\n      dup1\n      swap2\n      sub\n      swap1\n      revert\n    tag_94:\n        /* \"propertyManagement.sol\":2745:2756  _isWithdraw */\n      dup3\n        /* \"propertyManagement.sol\":2707:2756  properties[_propertyId].isWithdraw != _isWithdraw */\n      iszero\n      iszero\n        /* \"propertyManagement.sol\":2707:2717  properties */\n      0x00\n        /* \"propertyManagement.sol\":2707:2730  properties[_propertyId] */\n      dup1\n        /* \"propertyManagement.sol\":2718:2729  _propertyId */\n      dup7\n        /* \"propertyManagement.sol\":2707:2730  properties[_propertyId] */\n      dup2\n      mstore\n      0x20\n      add\n      swap1\n      dup2\n      mstore\n      0x20\n      add\n      0x00\n      keccak256\n        /* \"propertyManagement.sol\":2707:2741  properties[_propertyId].isWithdraw */\n      0x01\n      add\n      0x01\n      swap1\n      sload\n      swap1\n      0x0100\n      exp\n      swap1\n      div\n      0xff\n      and\n        /* \"propertyManagement.sol\":2707:2756  properties[_propertyId].isWithdraw != _isWithdraw */\n      iszero\n      iszero\n      eq\n        /* \"propertyManagement.sol\":2704:2832  if(properties[_propertyId].isWithdraw != _isWithdraw){... */\n      tag_97\n      jumpi\n        /* \"propertyManagement.sol\":2809:2820  _isWithdraw */\n      dup3\n        /* \"propertyManagement.sol\":2772:2782  properties */\n      0x00\n        /* \"propertyManagement.sol\":2772:2795  properties[_propertyId] */\n      dup1\n        /* \"propertyManagement.sol\":2783:2794  _propertyId */\n      dup7\n        /* \"propertyManagement.sol\":2772:2795  properties[_propertyId] */\n      dup2\n      mstore\n      0x20\n      add\n      swap1\n      dup2\n      mstore\n      0x20\n      add\n      0x00\n      keccak256\n        /* \"propertyManagement.sol\":2772:2806  properties[_propertyId].isWithdraw */\n      0x01\n      add\n      0x01\n        /* \"propertyManagement.sol\":2772:2820  properties[_propertyId].isWithdraw = _isWithdraw */\n      0x0100\n      exp\n      dup2\n      sload\n      dup2\n      0xff\n      mul\n      not\n      and\n      swap1\n      dup4\n      iszero\n      iszero\n      mul\n      or\n      swap1\n      sstore\n      pop\n        /* \"propertyManagement.sol\":2704:2832  if(properties[_propertyId].isWithdraw != _isWithdraw){... */\n    tag_97:\n        /* \"propertyManagement.sol\":2849:2853  true */\n      0x01\n        /* \"propertyManagement.sol\":2842:2853  return true */\n      swap2\n      pop\n        /* \"propertyManagement.sol\":2560:2861  function updateWithdrawal(... */\n      pop\n      swap3\n      swap2\n      pop\n      pop\n      jump\t// out\n        /* \"propertyManagement.sol\":2116:2261  function getPropertyOwner(... */\n    tag_45:\n        /* \"propertyManagement.sol\":2198:2205  address */\n      0x00\n        /* \"propertyManagement.sol\":2224:2234  properties */\n      dup1\n        /* \"propertyManagement.sol\":2224:2247  properties[_propertyId] */\n      0x00\n        /* \"propertyManagement.sol\":2235:2246  _propertyId */\n      dup4\n        /* \"propertyManagement.sol\":2224:2247  properties[_propertyId] */\n      dup2\n      mstore\n      0x20\n      add\n      swap1\n      dup2\n      mstore\n      0x20\n      add\n      0x00\n      keccak256\n        /* \"propertyManagement.sol\":2224:2253  properties[_propertyId].owner */\n      0x06\n      add\n      0x00\n      swap1\n      sload\n      swap1\n      0x0100\n      exp\n      swap1\n      div\n      0xffffffffffffffffffffffffffffffffffffffff\n      and\n        /* \"propertyManagement.sol\":2217:2253  return properties[_propertyId].owner */\n      swap1\n      pop\n        /* \"propertyManagement.sol\":2116:2261  function getPropertyOwner(... */\n      swap2\n      swap1\n      pop\n      jump\t// out\n        /* \"propertyManagement.sol\":1327:1894  function addProperty(... */\n    tag_51:\n        /* \"propertyManagement.sol\":1543:1547  bool */\n      0x00\n        /* \"propertyManagement.sol\":1559:1572  propertyCount */\n      0x01\n      0x00\n        /* \"propertyManagement.sol\":1559:1574  propertyCount++ */\n      dup2\n      sload\n      dup1\n      swap3\n      swap2\n      swap1\n      tag_100\n      swap1\n      tag_101\n      jump\t// in\n    tag_100:\n      swap2\n      swap1\n      pop\n      sstore\n      pop\n        /* \"propertyManagement.sol\":1633:1740  Property(propertyCount, _isAvailable,false, _monthlyRent, _propertyType, _description, _location,tx.origin) */\n      mload(0x40)\n      dup1\n      0x0100\n      add\n      0x40\n      mstore\n      dup1\n        /* \"propertyManagement.sol\":1642:1655  propertyCount */\n      sload(0x01)\n        /* \"propertyManagement.sol\":1633:1740  Property(propertyCount, _isAvailable,false, _monthlyRent, _propertyType, _description, _location,tx.origin) */\n      dup2\n      mstore\n      0x20\n      add\n        /* \"propertyManagement.sol\":1657:1669  _isAvailable */\n      dup8\n        /* \"propertyManagement.sol\":1633:1740  Property(propertyCount, _isAvailable,false, _monthlyRent, _propertyType, _description, _location,tx.origin) */\n      iszero\n      iszero\n      dup2\n      mstore\n      0x20\n      add\n        /* \"propertyManagement.sol\":1670:1675  false */\n      0x00\n        /* \"propertyManagement.sol\":1633:1740  Property(propertyCount, _isAvailable,false, _monthlyRent, _propertyType, _description, _location,tx.origin) */\n      iszero\n      iszero\n      dup2\n      mstore\n      0x20\n      add\n        /* \"propertyManagement.sol\":1677:1689  _monthlyRent */\n      dup7\n        /* \"propertyManagement.sol\":1633:1740  Property(propertyCount, _isAvailable,false, _monthlyRent, _propertyType, _description, _location,tx.origin) */\n      dup2\n      mstore\n      0x20\n      add\n        /* \"propertyManagement.sol\":1691:1704  _propertyType */\n      dup6\n        /* \"propertyManagement.sol\":1633:1740  Property(propertyCount, _isAvailable,false, _monthlyRent, _propertyType, _description, _location,tx.origin) */\n      dup2\n      mstore\n      0x20\n      add\n        /* \"propertyManagement.sol\":1706:1718  _description */\n      dup5\n        /* \"propertyManagement.sol\":1633:1740  Property(propertyCount, _isAvailable,false, _monthlyRent, _propertyType, _description, _location,tx.origin) */\n      dup2\n      mstore\n      0x20\n      add\n        /* \"propertyManagement.sol\":1720:1729  _location */\n      dup4\n        /* \"propertyManagement.sol\":1633:1740  Property(propertyCount, _isAvailable,false, _monthlyRent, _propertyType, _description, _location,tx.origin) */\n      dup2\n      mstore\n      0x20\n      add\n        /* \"propertyManagement.sol\":1730:1739  tx.origin */\n      origin\n        /* \"propertyManagement.sol\":1633:1740  Property(propertyCount, _isAvailable,false, _monthlyRent, _propertyType, _description, _location,tx.origin) */\n      0xffffffffffffffffffffffffffffffffffffffff\n      and\n      dup2\n      mstore\n      pop\n        /* \"propertyManagement.sol\":1605:1615  properties */\n      0x00\n        /* \"propertyManagement.sol\":1605:1630  properties[propertyCount] */\n      dup1\n        /* \"propertyManagement.sol\":1616:1629  propertyCount */\n      sload(0x01)\n        /* \"propertyManagement.sol\":1605:1630  properties[propertyCount] */\n      dup2\n      mstore\n      0x20\n      add\n      swap1\n      dup2\n      mstore\n      0x20\n      add\n      0x00\n      keccak256\n        /* \"propertyManagement.sol\":1605:1740  properties[propertyCount] = Property(propertyCount, _isAvailable,false, _monthlyRent, _propertyType, _description, _location,tx.origin) */\n      0x00\n      dup3\n      add\n      mload\n      dup2\n      0x00\n      add\n      sstore\n      0x20\n      dup3\n      add\n      mload\n      dup2\n      0x01\n      add\n      exp(0x0100, 0x00)\n      dup2\n      sload\n      dup2\n      0xff\n      mul\n      not\n      and\n      swap1\n      dup4\n      iszero\n      iszero\n      mul\n      or\n      swap1\n      sstore\n      pop\n      0x40\n      dup3\n      add\n      mload\n      dup2\n      0x01\n      add\n      exp(0x0100, 0x01)\n      dup2\n      sload\n      dup2\n      0xff\n      mul\n      not\n      and\n      swap1\n      dup4\n      iszero\n      iszero\n      mul\n      or\n      swap1\n      sstore\n      pop\n      0x60\n      dup3\n      add\n      mload\n      dup2\n      0x02\n      add\n      sstore\n      0x80\n      dup3\n      add\n      mload\n      dup2\n      0x03\n      add\n      swap1\n      dup2\n      tag_102\n      swap2\n      swap1\n      tag_92\n      jump\t// in\n    tag_102:\n      pop\n      0xa0\n      dup3\n      add\n      mload\n      dup2\n      0x04\n      add\n      swap1\n      dup2\n      tag_103\n      swap2\n      swap1\n      tag_92\n      jump\t// in\n    tag_103:\n      pop\n      0xc0\n      dup3\n      add\n      mload\n      dup2\n      0x05\n      add\n      swap1\n      dup2\n      tag_104\n      swap2\n      swap1\n      tag_92\n      jump\t// in\n    tag_104:\n      pop\n      0xe0\n      dup3\n      add\n      mload\n      dup2\n      0x06\n      add\n      exp(0x0100, 0x00)\n      dup2\n      sload\n      dup2\n      0xffffffffffffffffffffffffffffffffffffffff\n      mul\n      not\n      and\n      swap1\n      dup4\n      0xffffffffffffffffffffffffffffffffffffffff\n      and\n      mul\n      or\n      swap1\n      sstore\n      pop\n      swap1\n      pop\n      pop\n        /* \"propertyManagement.sol\":1758:1864  PropertyAdded(propertyCount, _isAvailable, _monthlyRent, _propertyType, _description, _location,tx.origin) */\n      0x55d4c37f0be82a4c779966b6f194911d8d57f787390b393eb7166c6d9a0bdc55\n        /* \"propertyManagement.sol\":1772:1785  propertyCount */\n      sload(0x01)\n        /* \"propertyManagement.sol\":1787:1799  _isAvailable */\n      dup8\n        /* \"propertyManagement.sol\":1801:1813  _monthlyRent */\n      dup8\n        /* \"propertyManagement.sol\":1815:1828  _propertyType */\n      dup8\n        /* \"propertyManagement.sol\":1830:1842  _description */\n      dup8\n        /* \"propertyManagement.sol\":1844:1853  _location */\n      dup8\n        /* \"propertyManagement.sol\":1854:1863  tx.origin */\n      origin\n        /* \"propertyManagement.sol\":1758:1864  PropertyAdded(propertyCount, _isAvailable, _monthlyRent, _propertyType, _description, _location,tx.origin) */\n      mload(0x40)\n      tag_105\n      swap8\n      swap7\n      swap6\n      swap5\n      swap4\n      swap3\n      swap2\n      swap1\n      tag_106\n      jump\t// in\n    tag_105:\n      mload(0x40)\n      dup1\n      swap2\n      sub\n      swap1\n      log1\n        /* \"propertyManagement.sol\":1882:1886  true */\n      0x01\n        /* \"propertyManagement.sol\":1875:1886  return true */\n      swap1\n      pop\n        /* \"propertyManagement.sol\":1327:1894  function addProperty(... */\n      swap6\n      swap5\n      pop\n      pop\n      pop\n      pop\n      pop\n      jump\t// out\n        /* \"propertyManagement.sol\":936:981  mapping(uint256 => Property)public properties */\n    tag_55:\n      mstore(0x20, 0x00)\n      dup1\n      0x00\n      mstore\n      keccak256(0x00, 0x40)\n      0x00\n      swap2\n      pop\n      swap1\n      pop\n      dup1\n      0x00\n      add\n      sload\n      swap1\n      dup1\n      0x01\n      add\n      0x00\n      swap1\n      sload\n      swap1\n      0x0100\n      exp\n      swap1\n      div\n      0xff\n      and\n      swap1\n      dup1\n      0x01\n      add\n      0x01\n      swap1\n      sload\n      swap1\n      0x0100\n      exp\n      swap1\n      div\n      0xff\n      and\n      swap1\n      dup1\n      0x02\n      add\n      sload\n      swap1\n      dup1\n      0x03\n      add\n      dup1\n      sload\n      tag_107\n      swap1\n      tag_67\n      jump\t// in\n    tag_107:\n      dup1\n      0x1f\n      add\n      0x20\n      dup1\n      swap2\n      div\n      mul\n      0x20\n      add\n      mload(0x40)\n      swap1\n      dup2\n      add\n      0x40\n      mstore\n      dup1\n      swap3\n      swap2\n      swap1\n      dup2\n      dup2\n      mstore\n      0x20\n      add\n      dup3\n      dup1\n      sload\n      tag_108\n      swap1\n      tag_67\n      jump\t// in\n    tag_108:\n      dup1\n      iszero\n      tag_109\n      jumpi\n      dup1\n      0x1f\n      lt\n      tag_110\n      jumpi\n      0x0100\n      dup1\n      dup4\n      sload\n      div\n      mul\n      dup4\n      mstore\n      swap2\n      0x20\n      add\n      swap2\n      jump(tag_109)\n    tag_110:\n      dup3\n      add\n      swap2\n      swap1\n      0x00\n      mstore\n      keccak256(0x00, 0x20)\n      swap1\n    tag_111:\n      dup2\n      sload\n      dup2\n      mstore\n      swap1\n      0x01\n      add\n      swap1\n      0x20\n      add\n      dup1\n      dup4\n      gt\n      tag_111\n      jumpi\n      dup3\n      swap1\n      sub\n      0x1f\n      and\n      dup3\n      add\n      swap2\n    tag_109:\n      pop\n      pop\n      pop\n      pop\n      pop\n      swap1\n      dup1\n      0x04\n      add\n      dup1\n      sload\n      tag_112\n      swap1\n      tag_67\n      jump\t// in\n    tag_112:\n      dup1\n      0x1f\n      add\n      0x20\n      dup1\n      swap2\n      div\n      mul\n      0x20\n      add\n      mload(0x40)\n      swap1\n      dup2\n      add\n      0x40\n      mstore\n      dup1\n      swap3\n      swap2\n      swap1\n      dup2\n      dup2\n      mstore\n      0x20\n      add\n      dup3\n      dup1\n      sload\n      tag_113\n      swap1\n      tag_67\n      jump\t// in\n    tag_113:\n      dup1\n      iszero\n      tag_114\n      jumpi\n      dup1\n      0x1f\n      lt\n      tag_115\n      jumpi\n      0x0100\n      dup1\n      dup4\n      sload\n      div\n      mul\n      dup4\n      mstore\n      swap2\n      0x20\n      add\n      swap2\n      jump(tag_114)\n    tag_115:\n      dup3\n      add\n      swap2\n      swap1\n      0x00\n      mstore\n      keccak256(0x00, 0x20)\n      swap1\n    tag_116:\n      dup2\n      sload\n      dup2\n      mstore\n      swap1\n      0x01\n      add\n      swap1\n      0x20\n      add\n      dup1\n      dup4\n      gt\n      tag_116\n      jumpi\n      dup3\n      swap1\n      sub\n      0x1f\n      and\n      dup3\n      add\n      swap2\n    tag_114:\n      pop\n      pop\n      pop\n      pop\n      pop\n      swap1\n      dup1\n      0x05\n      add\n      dup1\n      sload\n      tag_117\n      swap1\n      tag_67\n      jump\t// in\n    tag_117:\n      dup1\n      0x1f\n      add\n      0x20\n      dup1\n      swap2\n      div\n      mul\n      0x20\n      add\n      mload(0x40)\n      swap1\n      dup2\n      add\n      0x40\n      mstore\n      dup1\n      swap3\n      swap2\n      swap1\n      dup2\n      dup2\n      mstore\n      0x20\n      add\n      dup3\n      dup1\n      sload\n      tag_118\n      swap1\n      tag_67\n      jump\t// in\n    tag_118:\n      dup1\n      iszero\n      tag_119\n      jumpi\n      dup1\n      0x1f\n      lt\n      tag_120\n      jumpi\n      0x0100\n      dup1\n      dup4\n      sload\n      div\n      mul\n      dup4\n      mstore\n      swap2\n      0x20\n      add\n      swap2\n      jump(tag_119)\n    tag_120:\n      dup3\n      add\n      swap2\n      swap1\n      0x00\n      mstore\n      keccak256(0x00, 0x20)\n      swap1\n    tag_121:\n      dup2\n      sload\n      dup2\n      mstore\n      swap1\n      0x01\n      add\n      swap1\n      0x20\n      add\n      dup1\n      dup4\n      gt\n      tag_121\n      jumpi\n      dup3\n      swap1\n      sub\n      0x1f\n      and\n      dup3\n      add\n      swap2\n    tag_119:\n      pop\n      pop\n      pop\n      pop\n      pop\n      swap1\n      dup1\n      0x06\n      add\n      0x00\n      swap1\n      sload\n      swap1\n      0x0100\n      exp\n      swap1\n      div\n      0xffffffffffffffffffffffffffffffffffffffff\n      and\n      swap1\n      pop\n      dup9\n      jump\t// out\n    tag_64:\n      mload(0x40)\n      dup1\n      0x0100\n      add\n      0x40\n      mstore\n      dup1\n      0x00\n      dup2\n      mstore\n      0x20\n      add\n      iszero(iszero(0x00))\n      dup2\n      mstore\n      0x20\n      add\n      iszero(iszero(0x00))\n      dup2\n      mstore\n      0x20\n      add\n      0x00\n      dup2\n      mstore\n      0x20\n      add\n      0x60\n      dup2\n      mstore\n      0x20\n      add\n      0x60\n      dup2\n      mstore\n      0x20\n      add\n      0x60\n      dup2\n      mstore\n      0x20\n      add\n      and(0xffffffffffffffffffffffffffffffffffffffff, 0x00)\n      dup2\n      mstore\n      pop\n      swap1\n      jump\t// out\n        /* \"#utility.yul\":7:82   */\n    tag_122:\n        /* \"#utility.yul\":40:46   */\n      0x00\n        /* \"#utility.yul\":73:75   */\n      0x40\n        /* \"#utility.yul\":67:76   */\n      mload\n        /* \"#utility.yul\":57:76   */\n      swap1\n      pop\n        /* \"#utility.yul\":7:82   */\n      swap1\n      jump\t// out\n        /* \"#utility.yul\":88:205   */\n    tag_123:\n        /* \"#utility.yul\":197:198   */\n      0x00\n        /* \"#utility.yul\":194:195   */\n      dup1\n        /* \"#utility.yul\":187:199   */\n      revert\n        /* \"#utility.yul\":211:328   */\n    tag_124:\n        /* \"#utility.yul\":320:321   */\n      0x00\n        /* \"#utility.yul\":317:318   */\n      dup1\n        /* \"#utility.yul\":310:322   */\n      revert\n        /* \"#utility.yul\":334:411   */\n    tag_125:\n        /* \"#utility.yul\":371:378   */\n      0x00\n        /* \"#utility.yul\":400:405   */\n      dup2\n        /* \"#utility.yul\":389:405   */\n      swap1\n      pop\n        /* \"#utility.yul\":334:411   */\n      swap2\n      swap1\n      pop\n      jump\t// out\n        /* \"#utility.yul\":417:539   */\n    tag_126:\n        /* \"#utility.yul\":490:514   */\n      tag_181\n        /* \"#utility.yul\":508:513   */\n      dup2\n        /* \"#utility.yul\":490:514   */\n      tag_125\n      jump\t// in\n    tag_181:\n        /* \"#utility.yul\":483:488   */\n      dup2\n        /* \"#utility.yul\":480:515   */\n      eq\n        /* \"#utility.yul\":470:533   */\n      tag_182\n      jumpi\n        /* \"#utility.yul\":529:530   */\n      0x00\n        /* \"#utility.yul\":526:527   */\n      dup1\n        /* \"#utility.yul\":519:531   */\n      revert\n        /* \"#utility.yul\":470:533   */\n    tag_182:\n        /* \"#utility.yul\":417:539   */\n      pop\n      jump\t// out\n        /* \"#utility.yul\":545:684   */\n    tag_127:\n        /* \"#utility.yul\":591:596   */\n      0x00\n        /* \"#utility.yul\":629:635   */\n      dup2\n        /* \"#utility.yul\":616:636   */\n      calldataload\n        /* \"#utility.yul\":607:636   */\n      swap1\n      pop\n        /* \"#utility.yul\":645:678   */\n      tag_184\n        /* \"#utility.yul\":672:677   */\n      dup2\n        /* \"#utility.yul\":645:678   */\n      tag_126\n      jump\t// in\n    tag_184:\n        /* \"#utility.yul\":545:684   */\n      swap3\n      swap2\n      pop\n      pop\n      jump\t// out\n        /* \"#utility.yul\":690:780   */\n    tag_128:\n        /* \"#utility.yul\":724:731   */\n      0x00\n        /* \"#utility.yul\":767:772   */\n      dup2\n        /* \"#utility.yul\":760:773   */\n      iszero\n        /* \"#utility.yul\":753:774   */\n      iszero\n        /* \"#utility.yul\":742:774   */\n      swap1\n      pop\n        /* \"#utility.yul\":690:780   */\n      swap2\n      swap1\n      pop\n      jump\t// out\n        /* \"#utility.yul\":786:902   */\n    tag_129:\n        /* \"#utility.yul\":856:877   */\n      tag_187\n        /* \"#utility.yul\":871:876   */\n      dup2\n        /* \"#utility.yul\":856:877   */\n      tag_128\n      jump\t// in\n    tag_187:\n        /* \"#utility.yul\":849:854   */\n      dup2\n        /* \"#utility.yul\":846:878   */\n      eq\n        /* \"#utility.yul\":836:896   */\n      tag_188\n      jumpi\n        /* \"#utility.yul\":892:893   */\n      0x00\n        /* \"#utility.yul\":889:890   */\n      dup1\n        /* \"#utility.yul\":882:894   */\n      revert\n        /* \"#utility.yul\":836:896   */\n    tag_188:\n        /* \"#utility.yul\":786:902   */\n      pop\n      jump\t// out\n        /* \"#utility.yul\":908:1041   */\n    tag_130:\n        /* \"#utility.yul\":951:956   */\n      0x00\n        /* \"#utility.yul\":989:995   */\n      dup2\n        /* \"#utility.yul\":976:996   */\n      calldataload\n        /* \"#utility.yul\":967:996   */\n      swap1\n      pop\n        /* \"#utility.yul\":1005:1035   */\n      tag_190\n        /* \"#utility.yul\":1029:1034   */\n      dup2\n        /* \"#utility.yul\":1005:1035   */\n      tag_129\n      jump\t// in\n    tag_190:\n        /* \"#utility.yul\":908:1041   */\n      swap3\n      swap2\n      pop\n      pop\n      jump\t// out\n        /* \"#utility.yul\":1047:1515   */\n    tag_15:\n        /* \"#utility.yul\":1112:1118   */\n      0x00\n        /* \"#utility.yul\":1120:1126   */\n      dup1\n        /* \"#utility.yul\":1169:1171   */\n      0x40\n        /* \"#utility.yul\":1157:1166   */\n      dup4\n        /* \"#utility.yul\":1148:1155   */\n      dup6\n        /* \"#utility.yul\":1144:1167   */\n      sub\n        /* \"#utility.yul\":1140:1172   */\n      slt\n        /* \"#utility.yul\":1137:1256   */\n      iszero\n      tag_192\n      jumpi\n        /* \"#utility.yul\":1175:1254   */\n      tag_193\n      tag_123\n      jump\t// in\n    tag_193:\n        /* \"#utility.yul\":1137:1256   */\n    tag_192:\n        /* \"#utility.yul\":1295:1296   */\n      0x00\n        /* \"#utility.yul\":1320:1373   */\n      tag_194\n        /* \"#utility.yul\":1365:1372   */\n      dup6\n        /* \"#utility.yul\":1356:1362   */\n      dup3\n        /* \"#utility.yul\":1345:1354   */\n      dup7\n        /* \"#utility.yul\":1341:1363   */\n      add\n        /* \"#utility.yul\":1320:1373   */\n      tag_127\n      jump\t// in\n    tag_194:\n        /* \"#utility.yul\":1310:1373   */\n      swap3\n      pop\n        /* \"#utility.yul\":1266:1383   */\n      pop\n        /* \"#utility.yul\":1422:1424   */\n      0x20\n        /* \"#utility.yul\":1448:1498   */\n      tag_195\n        /* \"#utility.yul\":1490:1497   */\n      dup6\n        /* \"#utility.yul\":1481:1487   */\n      dup3\n        /* \"#utility.yul\":1470:1479   */\n      dup7\n        /* \"#utility.yul\":1466:1488   */\n      add\n        /* \"#utility.yul\":1448:1498   */\n      tag_130\n      jump\t// in\n    tag_195:\n        /* \"#utility.yul\":1438:1498   */\n      swap2\n      pop\n        /* \"#utility.yul\":1393:1508   */\n      pop\n        /* \"#utility.yul\":1047:1515   */\n      swap3\n      pop\n      swap3\n      swap1\n      pop\n      jump\t// out\n        /* \"#utility.yul\":1521:1630   */\n    tag_131:\n        /* \"#utility.yul\":1602:1623   */\n      tag_197\n        /* \"#utility.yul\":1617:1622   */\n      dup2\n        /* \"#utility.yul\":1602:1623   */\n      tag_128\n      jump\t// in\n    tag_197:\n        /* \"#utility.yul\":1597:1600   */\n      dup3\n        /* \"#utility.yul\":1590:1624   */\n      mstore\n        /* \"#utility.yul\":1521:1630   */\n      pop\n      pop\n      jump\t// out\n        /* \"#utility.yul\":1636:1846   */\n    tag_18:\n        /* \"#utility.yul\":1723:1727   */\n      0x00\n        /* \"#utility.yul\":1761:1763   */\n      0x20\n        /* \"#utility.yul\":1750:1759   */\n      dup3\n        /* \"#utility.yul\":1746:1764   */\n      add\n        /* \"#utility.yul\":1738:1764   */\n      swap1\n      pop\n        /* \"#utility.yul\":1774:1839   */\n      tag_199\n        /* \"#utility.yul\":1836:1837   */\n      0x00\n        /* \"#utility.yul\":1825:1834   */\n      dup4\n        /* \"#utility.yul\":1821:1838   */\n      add\n        /* \"#utility.yul\":1812:1818   */\n      dup5\n        /* \"#utility.yul\":1774:1839   */\n      tag_131\n      jump\t// in\n    tag_199:\n        /* \"#utility.yul\":1636:1846   */\n      swap3\n      swap2\n      pop\n      pop\n      jump\t// out\n        /* \"#utility.yul\":1852:2181   */\n    tag_21:\n        /* \"#utility.yul\":1911:1917   */\n      0x00\n        /* \"#utility.yul\":1960:1962   */\n      0x20\n        /* \"#utility.yul\":1948:1957   */\n      dup3\n        /* \"#utility.yul\":1939:1946   */\n      dup5\n        /* \"#utility.yul\":1935:1958   */\n      sub\n        /* \"#utility.yul\":1931:1963   */\n      slt\n        /* \"#utility.yul\":1928:2047   */\n      iszero\n      tag_201\n      jumpi\n        /* \"#utility.yul\":1966:2045   */\n      tag_202\n      tag_123\n      jump\t// in\n    tag_202:\n        /* \"#utility.yul\":1928:2047   */\n    tag_201:\n        /* \"#utility.yul\":2086:2087   */\n      0x00\n        /* \"#utility.yul\":2111:2164   */\n      tag_203\n        /* \"#utility.yul\":2156:2163   */\n      dup5\n        /* \"#utility.yul\":2147:2153   */\n      dup3\n        /* \"#utility.yul\":2136:2145   */\n      dup6\n        /* \"#utility.yul\":2132:2154   */\n      add\n        /* \"#utility.yul\":2111:2164   */\n      tag_127\n      jump\t// in\n    tag_203:\n        /* \"#utility.yul\":2101:2164   */\n      swap2\n      pop\n        /* \"#utility.yul\":2057:2174   */\n      pop\n        /* \"#utility.yul\":1852:2181   */\n      swap3\n      swap2\n      pop\n      pop\n      jump\t// out\n        /* \"#utility.yul\":2187:2295   */\n    tag_132:\n        /* \"#utility.yul\":2264:2288   */\n      tag_205\n        /* \"#utility.yul\":2282:2287   */\n      dup2\n        /* \"#utility.yul\":2264:2288   */\n      tag_125\n      jump\t// in\n    tag_205:\n        /* \"#utility.yul\":2259:2262   */\n      dup3\n        /* \"#utility.yul\":2252:2289   */\n      mstore\n        /* \"#utility.yul\":2187:2295   */\n      pop\n      pop\n      jump\t// out\n        /* \"#utility.yul\":2301:2400   */\n    tag_133:\n        /* \"#utility.yul\":2372:2393   */\n      tag_207\n        /* \"#utility.yul\":2387:2392   */\n      dup2\n        /* \"#utility.yul\":2372:2393   */\n      tag_128\n      jump\t// in\n    tag_207:\n        /* \"#utility.yul\":2367:2370   */\n      dup3\n        /* \"#utility.yul\":2360:2394   */\n      mstore\n        /* \"#utility.yul\":2301:2400   */\n      pop\n      pop\n      jump\t// out\n        /* \"#utility.yul\":2406:2505   */\n    tag_134:\n        /* \"#utility.yul\":2458:2464   */\n      0x00\n        /* \"#utility.yul\":2492:2497   */\n      dup2\n        /* \"#utility.yul\":2486:2498   */\n      mload\n        /* \"#utility.yul\":2476:2498   */\n      swap1\n      pop\n        /* \"#utility.yul\":2406:2505   */\n      swap2\n      swap1\n      pop\n      jump\t// out\n        /* \"#utility.yul\":2511:2670   */\n    tag_135:\n        /* \"#utility.yul\":2585:2596   */\n      0x00\n        /* \"#utility.yul\":2619:2625   */\n      dup3\n        /* \"#utility.yul\":2614:2617   */\n      dup3\n        /* \"#utility.yul\":2607:2626   */\n      mstore\n        /* \"#utility.yul\":2659:2663   */\n      0x20\n        /* \"#utility.yul\":2654:2657   */\n      dup3\n        /* \"#utility.yul\":2650:2664   */\n      add\n        /* \"#utility.yul\":2635:2664   */\n      swap1\n      pop\n        /* \"#utility.yul\":2511:2670   */\n      swap3\n      swap2\n      pop\n      pop\n      jump\t// out\n        /* \"#utility.yul\":2676:2922   */\n    tag_136:\n        /* \"#utility.yul\":2757:2758   */\n      0x00\n        /* \"#utility.yul\":2767:2880   */\n    tag_211:\n        /* \"#utility.yul\":2781:2787   */\n      dup4\n        /* \"#utility.yul\":2778:2779   */\n      dup2\n        /* \"#utility.yul\":2775:2788   */\n      lt\n        /* \"#utility.yul\":2767:2880   */\n      iszero\n      tag_213\n      jumpi\n        /* \"#utility.yul\":2866:2867   */\n      dup1\n        /* \"#utility.yul\":2861:2864   */\n      dup3\n        /* \"#utility.yul\":2857:2868   */\n      add\n        /* \"#utility.yul\":2851:2869   */\n      mload\n        /* \"#utility.yul\":2847:2848   */\n      dup2\n        /* \"#utility.yul\":2842:2845   */\n      dup5\n        /* \"#utility.yul\":2838:2849   */\n      add\n        /* \"#utility.yul\":2831:2870   */\n      mstore\n        /* \"#utility.yul\":2803:2805   */\n      0x20\n        /* \"#utility.yul\":2800:2801   */\n      dup2\n        /* \"#utility.yul\":2796:2806   */\n      add\n        /* \"#utility.yul\":2791:2806   */\n      swap1\n      pop\n        /* \"#utility.yul\":2767:2880   */\n      jump(tag_211)\n    tag_213:\n        /* \"#utility.yul\":2914:2915   */\n      0x00\n        /* \"#utility.yul\":2905:2911   */\n      dup5\n        /* \"#utility.yul\":2900:2903   */\n      dup5\n        /* \"#utility.yul\":2896:2912   */\n      add\n        /* \"#utility.yul\":2889:2916   */\n      mstore\n        /* \"#utility.yul\":2738:2922   */\n      pop\n        /* \"#utility.yul\":2676:2922   */\n      pop\n      pop\n      pop\n      jump\t// out\n        /* \"#utility.yul\":2928:3030   */\n    tag_137:\n        /* \"#utility.yul\":2969:2975   */\n      0x00\n        /* \"#utility.yul\":3020:3022   */\n      0x1f\n        /* \"#utility.yul\":3016:3023   */\n      not\n        /* \"#utility.yul\":3011:3013   */\n      0x1f\n        /* \"#utility.yul\":3004:3009   */\n      dup4\n        /* \"#utility.yul\":3000:3014   */\n      add\n        /* \"#utility.yul\":2996:3024   */\n      and\n        /* \"#utility.yul\":2986:3024   */\n      swap1\n      pop\n        /* \"#utility.yul\":2928:3030   */\n      swap2\n      swap1\n      pop\n      jump\t// out\n        /* \"#utility.yul\":3036:3393   */\n    tag_138:\n        /* \"#utility.yul\":3114:3117   */\n      0x00\n        /* \"#utility.yul\":3142:3181   */\n      tag_216\n        /* \"#utility.yul\":3175:3180   */\n      dup3\n        /* \"#utility.yul\":3142:3181   */\n      tag_134\n      jump\t// in\n    tag_216:\n        /* \"#utility.yul\":3197:3258   */\n      tag_217\n        /* \"#utility.yul\":3251:3257   */\n      dup2\n        /* \"#utility.yul\":3246:3249   */\n      dup6\n        /* \"#utility.yul\":3197:3258   */\n      tag_135\n      jump\t// in\n    tag_217:\n        /* \"#utility.yul\":3190:3258   */\n      swap4\n      pop\n        /* \"#utility.yul\":3267:3332   */\n      tag_218\n        /* \"#utility.yul\":3325:3331   */\n      dup2\n        /* \"#utility.yul\":3320:3323   */\n      dup6\n        /* \"#utility.yul\":3313:3317   */\n      0x20\n        /* \"#utility.yul\":3306:3311   */\n      dup7\n        /* \"#utility.yul\":3302:3318   */\n      add\n        /* \"#utility.yul\":3267:3332   */\n      tag_136\n      jump\t// in\n    tag_218:\n        /* \"#utility.yul\":3357:3386   */\n      tag_219\n        /* \"#utility.yul\":3379:3385   */\n      dup2\n        /* \"#utility.yul\":3357:3386   */\n      tag_137\n      jump\t// in\n    tag_219:\n        /* \"#utility.yul\":3352:3355   */\n      dup5\n        /* \"#utility.yul\":3348:3387   */\n      add\n        /* \"#utility.yul\":3341:3387   */\n      swap2\n      pop\n        /* \"#utility.yul\":3118:3393   */\n      pop\n        /* \"#utility.yul\":3036:3393   */\n      swap3\n      swap2\n      pop\n      pop\n      jump\t// out\n        /* \"#utility.yul\":3399:3525   */\n    tag_139:\n        /* \"#utility.yul\":3436:3443   */\n      0x00\n        /* \"#utility.yul\":3476:3518   */\n      0xffffffffffffffffffffffffffffffffffffffff\n        /* \"#utility.yul\":3469:3474   */\n      dup3\n        /* \"#utility.yul\":3465:3519   */\n      and\n        /* \"#utility.yul\":3454:3519   */\n      swap1\n      pop\n        /* \"#utility.yul\":3399:3525   */\n      swap2\n      swap1\n      pop\n      jump\t// out\n        /* \"#utility.yul\":3531:3627   */\n    tag_140:\n        /* \"#utility.yul\":3568:3575   */\n      0x00\n        /* \"#utility.yul\":3597:3621   */\n      tag_222\n        /* \"#utility.yul\":3615:3620   */\n      dup3\n        /* \"#utility.yul\":3597:3621   */\n      tag_139\n      jump\t// in\n    tag_222:\n        /* \"#utility.yul\":3586:3621   */\n      swap1\n      pop\n        /* \"#utility.yul\":3531:3627   */\n      swap2\n      swap1\n      pop\n      jump\t// out\n        /* \"#utility.yul\":3633:3741   */\n    tag_141:\n        /* \"#utility.yul\":3710:3734   */\n      tag_224\n        /* \"#utility.yul\":3728:3733   */\n      dup2\n        /* \"#utility.yul\":3710:3734   */\n      tag_140\n      jump\t// in\n    tag_224:\n        /* \"#utility.yul\":3705:3708   */\n      dup3\n        /* \"#utility.yul\":3698:3735   */\n      mstore\n        /* \"#utility.yul\":3633:3741   */\n      pop\n      pop\n      jump\t// out\n        /* \"#utility.yul\":3827:5653   */\n    tag_142:\n        /* \"#utility.yul\":3944:3947   */\n      0x00\n        /* \"#utility.yul\":3980:3986   */\n      0x0100\n        /* \"#utility.yul\":3975:3978   */\n      dup4\n        /* \"#utility.yul\":3971:3987   */\n      add\n        /* \"#utility.yul\":4075:4079   */\n      0x00\n        /* \"#utility.yul\":4068:4073   */\n      dup4\n        /* \"#utility.yul\":4064:4080   */\n      add\n        /* \"#utility.yul\":4058:4081   */\n      mload\n        /* \"#utility.yul\":4094:4157   */\n      tag_226\n        /* \"#utility.yul\":4151:4155   */\n      0x00\n        /* \"#utility.yul\":4146:4149   */\n      dup7\n        /* \"#utility.yul\":4142:4156   */\n      add\n        /* \"#utility.yul\":4128:4140   */\n      dup3\n        /* \"#utility.yul\":4094:4157   */\n      tag_132\n      jump\t// in\n    tag_226:\n        /* \"#utility.yul\":3997:4167   */\n      pop\n        /* \"#utility.yul\":4256:4260   */\n      0x20\n        /* \"#utility.yul\":4249:4254   */\n      dup4\n        /* \"#utility.yul\":4245:4261   */\n      add\n        /* \"#utility.yul\":4239:4262   */\n      mload\n        /* \"#utility.yul\":4275:4332   */\n      tag_227\n        /* \"#utility.yul\":4326:4330   */\n      0x20\n        /* \"#utility.yul\":4321:4324   */\n      dup7\n        /* \"#utility.yul\":4317:4331   */\n      add\n        /* \"#utility.yul\":4303:4315   */\n      dup3\n        /* \"#utility.yul\":4275:4332   */\n      tag_133\n      jump\t// in\n    tag_227:\n        /* \"#utility.yul\":4177:4342   */\n      pop\n        /* \"#utility.yul\":4430:4434   */\n      0x40\n        /* \"#utility.yul\":4423:4428   */\n      dup4\n        /* \"#utility.yul\":4419:4435   */\n      add\n        /* \"#utility.yul\":4413:4436   */\n      mload\n        /* \"#utility.yul\":4449:4506   */\n      tag_228\n        /* \"#utility.yul\":4500:4504   */\n      0x40\n        /* \"#utility.yul\":4495:4498   */\n      dup7\n        /* \"#utility.yul\":4491:4505   */\n      add\n        /* \"#utility.yul\":4477:4489   */\n      dup3\n        /* \"#utility.yul\":4449:4506   */\n      tag_133\n      jump\t// in\n    tag_228:\n        /* \"#utility.yul\":4352:4516   */\n      pop\n        /* \"#utility.yul\":4605:4609   */\n      0x60\n        /* \"#utility.yul\":4598:4603   */\n      dup4\n        /* \"#utility.yul\":4594:4610   */\n      add\n        /* \"#utility.yul\":4588:4611   */\n      mload\n        /* \"#utility.yul\":4624:4687   */\n      tag_229\n        /* \"#utility.yul\":4681:4685   */\n      0x60\n        /* \"#utility.yul\":4676:4679   */\n      dup7\n        /* \"#utility.yul\":4672:4686   */\n      add\n        /* \"#utility.yul\":4658:4670   */\n      dup3\n        /* \"#utility.yul\":4624:4687   */\n      tag_132\n      jump\t// in\n    tag_229:\n        /* \"#utility.yul\":4526:4697   */\n      pop\n        /* \"#utility.yul\":4787:4791   */\n      0x80\n        /* \"#utility.yul\":4780:4785   */\n      dup4\n        /* \"#utility.yul\":4776:4792   */\n      add\n        /* \"#utility.yul\":4770:4793   */\n      mload\n        /* \"#utility.yul\":4840:4843   */\n      dup5\n        /* \"#utility.yul\":4834:4838   */\n      dup3\n        /* \"#utility.yul\":4830:4844   */\n      sub\n        /* \"#utility.yul\":4823:4827   */\n      0x80\n        /* \"#utility.yul\":4818:4821   */\n      dup7\n        /* \"#utility.yul\":4814:4828   */\n      add\n        /* \"#utility.yul\":4807:4845   */\n      mstore\n        /* \"#utility.yul\":4866:4939   */\n      tag_230\n        /* \"#utility.yul\":4934:4938   */\n      dup3\n        /* \"#utility.yul\":4920:4932   */\n      dup3\n        /* \"#utility.yul\":4866:4939   */\n      tag_138\n      jump\t// in\n    tag_230:\n        /* \"#utility.yul\":4858:4939   */\n      swap2\n      pop\n        /* \"#utility.yul\":4707:4950   */\n      pop\n        /* \"#utility.yul\":5039:5043   */\n      0xa0\n        /* \"#utility.yul\":5032:5037   */\n      dup4\n        /* \"#utility.yul\":5028:5044   */\n      add\n        /* \"#utility.yul\":5022:5045   */\n      mload\n        /* \"#utility.yul\":5092:5095   */\n      dup5\n        /* \"#utility.yul\":5086:5090   */\n      dup3\n        /* \"#utility.yul\":5082:5096   */\n      sub\n        /* \"#utility.yul\":5075:5079   */\n      0xa0\n        /* \"#utility.yul\":5070:5073   */\n      dup7\n        /* \"#utility.yul\":5066:5080   */\n      add\n        /* \"#utility.yul\":5059:5097   */\n      mstore\n        /* \"#utility.yul\":5118:5191   */\n      tag_231\n        /* \"#utility.yul\":5186:5190   */\n      dup3\n        /* \"#utility.yul\":5172:5184   */\n      dup3\n        /* \"#utility.yul\":5118:5191   */\n      tag_138\n      jump\t// in\n    tag_231:\n        /* \"#utility.yul\":5110:5191   */\n      swap2\n      pop\n        /* \"#utility.yul\":4960:5202   */\n      pop\n        /* \"#utility.yul\":5288:5292   */\n      0xc0\n        /* \"#utility.yul\":5281:5286   */\n      dup4\n        /* \"#utility.yul\":5277:5293   */\n      add\n        /* \"#utility.yul\":5271:5294   */\n      mload\n        /* \"#utility.yul\":5341:5344   */\n      dup5\n        /* \"#utility.yul\":5335:5339   */\n      dup3\n        /* \"#utility.yul\":5331:5345   */\n      sub\n        /* \"#utility.yul\":5324:5328   */\n      0xc0\n        /* \"#utility.yul\":5319:5322   */\n      dup7\n        /* \"#utility.yul\":5315:5329   */\n      add\n        /* \"#utility.yul\":5308:5346   */\n      mstore\n        /* \"#utility.yul\":5367:5440   */\n      tag_232\n        /* \"#utility.yul\":5435:5439   */\n      dup3\n        /* \"#utility.yul\":5421:5433   */\n      dup3\n        /* \"#utility.yul\":5367:5440   */\n      tag_138\n      jump\t// in\n    tag_232:\n        /* \"#utility.yul\":5359:5440   */\n      swap2\n      pop\n        /* \"#utility.yul\":5212:5451   */\n      pop\n        /* \"#utility.yul\":5534:5538   */\n      0xe0\n        /* \"#utility.yul\":5527:5532   */\n      dup4\n        /* \"#utility.yul\":5523:5539   */\n      add\n        /* \"#utility.yul\":5517:5540   */\n      mload\n        /* \"#utility.yul\":5553:5616   */\n      tag_233\n        /* \"#utility.yul\":5610:5614   */\n      0xe0\n        /* \"#utility.yul\":5605:5608   */\n      dup7\n        /* \"#utility.yul\":5601:5615   */\n      add\n        /* \"#utility.yul\":5587:5599   */\n      dup3\n        /* \"#utility.yul\":5553:5616   */\n      tag_141\n      jump\t// in\n    tag_233:\n        /* \"#utility.yul\":5461:5626   */\n      pop\n        /* \"#utility.yul\":5643:5647   */\n      dup1\n        /* \"#utility.yul\":5636:5647   */\n      swap2\n      pop\n        /* \"#utility.yul\":3949:5653   */\n      pop\n        /* \"#utility.yul\":3827:5653   */\n      swap3\n      swap2\n      pop\n      pop\n      jump\t// out\n        /* \"#utility.yul\":5659:6028   */\n    tag_24:\n        /* \"#utility.yul\":5800:5804   */\n      0x00\n        /* \"#utility.yul\":5838:5840   */\n      0x20\n        /* \"#utility.yul\":5827:5836   */\n      dup3\n        /* \"#utility.yul\":5823:5841   */\n      add\n        /* \"#utility.yul\":5815:5841   */\n      swap1\n      pop\n        /* \"#utility.yul\":5887:5896   */\n      dup2\n        /* \"#utility.yul\":5881:5885   */\n      dup2\n        /* \"#utility.yul\":5877:5897   */\n      sub\n        /* \"#utility.yul\":5873:5874   */\n      0x00\n        /* \"#utility.yul\":5862:5871   */\n      dup4\n        /* \"#utility.yul\":5858:5875   */\n      add\n        /* \"#utility.yul\":5851:5898   */\n      mstore\n        /* \"#utility.yul\":5915:6021   */\n      tag_235\n        /* \"#utility.yul\":6016:6020   */\n      dup2\n        /* \"#utility.yul\":6007:6013   */\n      dup5\n        /* \"#utility.yul\":5915:6021   */\n      tag_142\n      jump\t// in\n    tag_235:\n        /* \"#utility.yul\":5907:6021   */\n      swap1\n      pop\n        /* \"#utility.yul\":5659:6028   */\n      swap3\n      swap2\n      pop\n      pop\n      jump\t// out\n        /* \"#utility.yul\":6034:6152   */\n    tag_143:\n        /* \"#utility.yul\":6121:6145   */\n      tag_237\n        /* \"#utility.yul\":6139:6144   */\n      dup2\n        /* \"#utility.yul\":6121:6145   */\n      tag_125\n      jump\t// in\n    tag_237:\n        /* \"#utility.yul\":6116:6119   */\n      dup3\n        /* \"#utility.yul\":6109:6146   */\n      mstore\n        /* \"#utility.yul\":6034:6152   */\n      pop\n      pop\n      jump\t// out\n        /* \"#utility.yul\":6158:6380   */\n    tag_28:\n        /* \"#utility.yul\":6251:6255   */\n      0x00\n        /* \"#utility.yul\":6289:6291   */\n      0x20\n        /* \"#utility.yul\":6278:6287   */\n      dup3\n        /* \"#utility.yul\":6274:6292   */\n      add\n        /* \"#utility.yul\":6266:6292   */\n      swap1\n      pop\n        /* \"#utility.yul\":6302:6373   */\n      tag_239\n        /* \"#utility.yul\":6370:6371   */\n      0x00\n        /* \"#utility.yul\":6359:6368   */\n      dup4\n        /* \"#utility.yul\":6355:6372   */\n      add\n        /* \"#utility.yul\":6346:6352   */\n      dup5\n        /* \"#utility.yul\":6302:6373   */\n      tag_143\n      jump\t// in\n    tag_239:\n        /* \"#utility.yul\":6158:6380   */\n      swap3\n      swap2\n      pop\n      pop\n      jump\t// out\n        /* \"#utility.yul\":6386:6860   */\n    tag_31:\n        /* \"#utility.yul\":6454:6460   */\n      0x00\n        /* \"#utility.yul\":6462:6468   */\n      dup1\n        /* \"#utility.yul\":6511:6513   */\n      0x40\n        /* \"#utility.yul\":6499:6508   */\n      dup4\n        /* \"#utility.yul\":6490:6497   */\n      dup6\n        /* \"#utility.yul\":6486:6509   */\n      sub\n        /* \"#utility.yul\":6482:6514   */\n      slt\n        /* \"#utility.yul\":6479:6598   */\n      iszero\n      tag_241\n      jumpi\n        /* \"#utility.yul\":6517:6596   */\n      tag_242\n      tag_123\n      jump\t// in\n    tag_242:\n        /* \"#utility.yul\":6479:6598   */\n    tag_241:\n        /* \"#utility.yul\":6637:6638   */\n      0x00\n        /* \"#utility.yul\":6662:6715   */\n      tag_243\n        /* \"#utility.yul\":6707:6714   */\n      dup6\n        /* \"#utility.yul\":6698:6704   */\n      dup3\n        /* \"#utility.yul\":6687:6696   */\n      dup7\n        /* \"#utility.yul\":6683:6705   */\n      add\n        /* \"#utility.yul\":6662:6715   */\n      tag_127\n      jump\t// in\n    tag_243:\n        /* \"#utility.yul\":6652:6715   */\n      swap3\n      pop\n        /* \"#utility.yul\":6608:6725   */\n      pop\n        /* \"#utility.yul\":6764:6766   */\n      0x20\n        /* \"#utility.yul\":6790:6843   */\n      tag_244\n        /* \"#utility.yul\":6835:6842   */\n      dup6\n        /* \"#utility.yul\":6826:6832   */\n      dup3\n        /* \"#utility.yul\":6815:6824   */\n      dup7\n        /* \"#utility.yul\":6811:6833   */\n      add\n        /* \"#utility.yul\":6790:6843   */\n      tag_127\n      jump\t// in\n    tag_244:\n        /* \"#utility.yul\":6780:6843   */\n      swap2\n      pop\n        /* \"#utility.yul\":6735:6853   */\n      pop\n        /* \"#utility.yul\":6386:6860   */\n      swap3\n      pop\n      swap3\n      swap1\n      pop\n      jump\t// out\n        /* \"#utility.yul\":6866:6983   */\n    tag_144:\n        /* \"#utility.yul\":6975:6976   */\n      0x00\n        /* \"#utility.yul\":6972:6973   */\n      dup1\n        /* \"#utility.yul\":6965:6977   */\n      revert\n        /* \"#utility.yul\":6989:7106   */\n    tag_145:\n        /* \"#utility.yul\":7098:7099   */\n      0x00\n        /* \"#utility.yul\":7095:7096   */\n      dup1\n        /* \"#utility.yul\":7088:7100   */\n      revert\n        /* \"#utility.yul\":7112:7292   */\n    tag_146:\n        /* \"#utility.yul\":7160:7237   */\n      0x4e487b7100000000000000000000000000000000000000000000000000000000\n        /* \"#utility.yul\":7157:7158   */\n      0x00\n        /* \"#utility.yul\":7150:7238   */\n      mstore\n        /* \"#utility.yul\":7257:7261   */\n      0x41\n        /* \"#utility.yul\":7254:7255   */\n      0x04\n        /* \"#utility.yul\":7247:7262   */\n      mstore\n        /* \"#utility.yul\":7281:7285   */\n      0x24\n        /* \"#utility.yul\":7278:7279   */\n      0x00\n        /* \"#utility.yul\":7271:7286   */\n      revert\n        /* \"#utility.yul\":7298:7579   */\n    tag_147:\n        /* \"#utility.yul\":7381:7408   */\n      tag_249\n        /* \"#utility.yul\":7403:7407   */\n      dup3\n        /* \"#utility.yul\":7381:7408   */\n      tag_137\n      jump\t// in\n    tag_249:\n        /* \"#utility.yul\":7373:7379   */\n      dup2\n        /* \"#utility.yul\":7369:7409   */\n      add\n        /* \"#utility.yul\":7511:7517   */\n      dup2\n        /* \"#utility.yul\":7499:7509   */\n      dup2\n        /* \"#utility.yul\":7496:7518   */\n      lt\n        /* \"#utility.yul\":7475:7493   */\n      0xffffffffffffffff\n        /* \"#utility.yul\":7463:7473   */\n      dup3\n        /* \"#utility.yul\":7460:7494   */\n      gt\n        /* \"#utility.yul\":7457:7519   */\n      or\n        /* \"#utility.yul\":7454:7542   */\n      iszero\n      tag_250\n      jumpi\n        /* \"#utility.yul\":7522:7540   */\n      tag_251\n      tag_146\n      jump\t// in\n    tag_251:\n        /* \"#utility.yul\":7454:7542   */\n    tag_250:\n        /* \"#utility.yul\":7562:7572   */\n      dup1\n        /* \"#utility.yul\":7558:7560   */\n      0x40\n        /* \"#utility.yul\":7551:7573   */\n      mstore\n        /* \"#utility.yul\":7341:7579   */\n      pop\n        /* \"#utility.yul\":7298:7579   */\n      pop\n      pop\n      jump\t// out\n        /* \"#utility.yul\":7585:7714   */\n    tag_148:\n        /* \"#utility.yul\":7619:7625   */\n      0x00\n        /* \"#utility.yul\":7646:7666   */\n      tag_253\n      tag_122\n      jump\t// in\n    tag_253:\n        /* \"#utility.yul\":7636:7666   */\n      swap1\n      pop\n        /* \"#utility.yul\":7675:7708   */\n      tag_254\n        /* \"#utility.yul\":7703:7707   */\n      dup3\n        /* \"#utility.yul\":7695:7701   */\n      dup3\n        /* \"#utility.yul\":7675:7708   */\n      tag_147\n      jump\t// in\n    tag_254:\n        /* \"#utility.yul\":7585:7714   */\n      swap2\n      swap1\n      pop\n      jump\t// out\n        /* \"#utility.yul\":7720:8028   */\n    tag_149:\n        /* \"#utility.yul\":7782:7786   */\n      0x00\n        /* \"#utility.yul\":7872:7890   */\n      0xffffffffffffffff\n        /* \"#utility.yul\":7864:7870   */\n      dup3\n        /* \"#utility.yul\":7861:7891   */\n      gt\n        /* \"#utility.yul\":7858:7914   */\n      iszero\n      tag_256\n      jumpi\n        /* \"#utility.yul\":7894:7912   */\n      tag_257\n      tag_146\n      jump\t// in\n    tag_257:\n        /* \"#utility.yul\":7858:7914   */\n    tag_256:\n        /* \"#utility.yul\":7932:7961   */\n      tag_258\n        /* \"#utility.yul\":7954:7960   */\n      dup3\n        /* \"#utility.yul\":7932:7961   */\n      tag_137\n      jump\t// in\n    tag_258:\n        /* \"#utility.yul\":7924:7961   */\n      swap1\n      pop\n        /* \"#utility.yul\":8016:8020   */\n      0x20\n        /* \"#utility.yul\":8010:8014   */\n      dup2\n        /* \"#utility.yul\":8006:8021   */\n      add\n        /* \"#utility.yul\":7998:8021   */\n      swap1\n      pop\n        /* \"#utility.yul\":7720:8028   */\n      swap2\n      swap1\n      pop\n      jump\t// out\n        /* \"#utility.yul\":8034:8180   */\n    tag_150:\n        /* \"#utility.yul\":8131:8137   */\n      dup3\n        /* \"#utility.yul\":8126:8129   */\n      dup2\n        /* \"#utility.yul\":8121:8124   */\n      dup4\n        /* \"#utility.yul\":8108:8138   */\n      calldatacopy\n        /* \"#utility.yul\":8172:8173   */\n      0x00\n        /* \"#utility.yul\":8163:8169   */\n      dup4\n        /* \"#utility.yul\":8158:8161   */\n      dup4\n        /* \"#utility.yul\":8154:8170   */\n      add\n        /* \"#utility.yul\":8147:8174   */\n      mstore\n        /* \"#utility.yul\":8034:8180   */\n      pop\n      pop\n      pop\n      jump\t// out\n        /* \"#utility.yul\":8186:8611   */\n    tag_151:\n        /* \"#utility.yul\":8264:8269   */\n      0x00\n        /* \"#utility.yul\":8289:8355   */\n      tag_261\n        /* \"#utility.yul\":8305:8354   */\n      tag_262\n        /* \"#utility.yul\":8347:8353   */\n      dup5\n        /* \"#utility.yul\":8305:8354   */\n      tag_149\n      jump\t// in\n    tag_262:\n        /* \"#utility.yul\":8289:8355   */\n      tag_148\n      jump\t// in\n    tag_261:\n        /* \"#utility.yul\":8280:8355   */\n      swap1\n      pop\n        /* \"#utility.yul\":8378:8384   */\n      dup3\n        /* \"#utility.yul\":8371:8376   */\n      dup2\n        /* \"#utility.yul\":8364:8385   */\n      mstore\n        /* \"#utility.yul\":8416:8420   */\n      0x20\n        /* \"#utility.yul\":8409:8414   */\n      dup2\n        /* \"#utility.yul\":8405:8421   */\n      add\n        /* \"#utility.yul\":8454:8457   */\n      dup5\n        /* \"#utility.yul\":8445:8451   */\n      dup5\n        /* \"#utility.yul\":8440:8443   */\n      dup5\n        /* \"#utility.yul\":8436:8452   */\n      add\n        /* \"#utility.yul\":8433:8458   */\n      gt\n        /* \"#utility.yul\":8430:8542   */\n      iszero\n      tag_263\n      jumpi\n        /* \"#utility.yul\":8461:8540   */\n      tag_264\n      tag_145\n      jump\t// in\n    tag_264:\n        /* \"#utility.yul\":8430:8542   */\n    tag_263:\n        /* \"#utility.yul\":8551:8605   */\n      tag_265\n        /* \"#utility.yul\":8598:8604   */\n      dup5\n        /* \"#utility.yul\":8593:8596   */\n      dup3\n        /* \"#utility.yul\":8588:8591   */\n      dup6\n        /* \"#utility.yul\":8551:8605   */\n      tag_150\n      jump\t// in\n    tag_265:\n        /* \"#utility.yul\":8270:8611   */\n      pop\n        /* \"#utility.yul\":8186:8611   */\n      swap4\n      swap3\n      pop\n      pop\n      pop\n      jump\t// out\n        /* \"#utility.yul\":8631:8971   */\n    tag_152:\n        /* \"#utility.yul\":8687:8692   */\n      0x00\n        /* \"#utility.yul\":8736:8739   */\n      dup3\n        /* \"#utility.yul\":8729:8733   */\n      0x1f\n        /* \"#utility.yul\":8721:8727   */\n      dup4\n        /* \"#utility.yul\":8717:8734   */\n      add\n        /* \"#utility.yul\":8713:8740   */\n      slt\n        /* \"#utility.yul\":8703:8825   */\n      tag_267\n      jumpi\n        /* \"#utility.yul\":8744:8823   */\n      tag_268\n      tag_144\n      jump\t// in\n    tag_268:\n        /* \"#utility.yul\":8703:8825   */\n    tag_267:\n        /* \"#utility.yul\":8861:8867   */\n      dup2\n        /* \"#utility.yul\":8848:8868   */\n      calldataload\n        /* \"#utility.yul\":8886:8965   */\n      tag_269\n        /* \"#utility.yul\":8961:8964   */\n      dup5\n        /* \"#utility.yul\":8953:8959   */\n      dup3\n        /* \"#utility.yul\":8946:8950   */\n      0x20\n        /* \"#utility.yul\":8938:8944   */\n      dup7\n        /* \"#utility.yul\":8934:8951   */\n      add\n        /* \"#utility.yul\":8886:8965   */\n      tag_151\n      jump\t// in\n    tag_269:\n        /* \"#utility.yul\":8877:8965   */\n      swap2\n      pop\n        /* \"#utility.yul\":8693:8971   */\n      pop\n        /* \"#utility.yul\":8631:8971   */\n      swap3\n      swap2\n      pop\n      pop\n      jump\t// out\n        /* \"#utility.yul\":8977:9631   */\n    tag_36:\n        /* \"#utility.yul\":9055:9061   */\n      0x00\n        /* \"#utility.yul\":9063:9069   */\n      dup1\n        /* \"#utility.yul\":9112:9114   */\n      0x40\n        /* \"#utility.yul\":9100:9109   */\n      dup4\n        /* \"#utility.yul\":9091:9098   */\n      dup6\n        /* \"#utility.yul\":9087:9110   */\n      sub\n        /* \"#utility.yul\":9083:9115   */\n      slt\n        /* \"#utility.yul\":9080:9199   */\n      iszero\n      tag_271\n      jumpi\n        /* \"#utility.yul\":9118:9197   */\n      tag_272\n      tag_123\n      jump\t// in\n    tag_272:\n        /* \"#utility.yul\":9080:9199   */\n    tag_271:\n        /* \"#utility.yul\":9238:9239   */\n      0x00\n        /* \"#utility.yul\":9263:9316   */\n      tag_273\n        /* \"#utility.yul\":9308:9315   */\n      dup6\n        /* \"#utility.yul\":9299:9305   */\n      dup3\n        /* \"#utility.yul\":9288:9297   */\n      dup7\n        /* \"#utility.yul\":9284:9306   */\n      add\n        /* \"#utility.yul\":9263:9316   */\n      tag_127\n      jump\t// in\n    tag_273:\n        /* \"#utility.yul\":9253:9316   */\n      swap3\n      pop\n        /* \"#utility.yul\":9209:9326   */\n      pop\n        /* \"#utility.yul\":9393:9395   */\n      0x20\n        /* \"#utility.yul\":9382:9391   */\n      dup4\n        /* \"#utility.yul\":9378:9396   */\n      add\n        /* \"#utility.yul\":9365:9397   */\n      calldataload\n        /* \"#utility.yul\":9424:9442   */\n      0xffffffffffffffff\n        /* \"#utility.yul\":9416:9422   */\n      dup2\n        /* \"#utility.yul\":9413:9443   */\n      gt\n        /* \"#utility.yul\":9410:9527   */\n      iszero\n      tag_274\n      jumpi\n        /* \"#utility.yul\":9446:9525   */\n      tag_275\n      tag_124\n      jump\t// in\n    tag_275:\n        /* \"#utility.yul\":9410:9527   */\n    tag_274:\n        /* \"#utility.yul\":9551:9614   */\n      tag_276\n        /* \"#utility.yul\":9606:9613   */\n      dup6\n        /* \"#utility.yul\":9597:9603   */\n      dup3\n        /* \"#utility.yul\":9586:9595   */\n      dup7\n        /* \"#utility.yul\":9582:9604   */\n      add\n        /* \"#utility.yul\":9551:9614   */\n      tag_152\n      jump\t// in\n    tag_276:\n        /* \"#utility.yul\":9541:9614   */\n      swap2\n      pop\n        /* \"#utility.yul\":9336:9624   */\n      pop\n        /* \"#utility.yul\":8977:9631   */\n      swap3\n      pop\n      swap3\n      swap1\n      pop\n      jump\t// out\n        /* \"#utility.yul\":9637:9755   */\n    tag_153:\n        /* \"#utility.yul\":9724:9748   */\n      tag_278\n        /* \"#utility.yul\":9742:9747   */\n      dup2\n        /* \"#utility.yul\":9724:9748   */\n      tag_140\n      jump\t// in\n    tag_278:\n        /* \"#utility.yul\":9719:9722   */\n      dup3\n        /* \"#utility.yul\":9712:9749   */\n      mstore\n        /* \"#utility.yul\":9637:9755   */\n      pop\n      pop\n      jump\t// out\n        /* \"#utility.yul\":9761:9983   */\n    tag_47:\n        /* \"#utility.yul\":9854:9858   */\n      0x00\n        /* \"#utility.yul\":9892:9894   */\n      0x20\n        /* \"#utility.yul\":9881:9890   */\n      dup3\n        /* \"#utility.yul\":9877:9895   */\n      add\n        /* \"#utility.yul\":9869:9895   */\n      swap1\n      pop\n        /* \"#utility.yul\":9905:9976   */\n      tag_280\n        /* \"#utility.yul\":9973:9974   */\n      0x00\n        /* \"#utility.yul\":9962:9971   */\n      dup4\n        /* \"#utility.yul\":9958:9975   */\n      add\n        /* \"#utility.yul\":9949:9955   */\n      dup5\n        /* \"#utility.yul\":9905:9976   */\n      tag_153\n      jump\t// in\n    tag_280:\n        /* \"#utility.yul\":9761:9983   */\n      swap3\n      swap2\n      pop\n      pop\n      jump\t// out\n        /* \"#utility.yul\":9989:11434   */\n    tag_50:\n        /* \"#utility.yul\":10111:10117   */\n      0x00\n        /* \"#utility.yul\":10119:10125   */\n      dup1\n        /* \"#utility.yul\":10127:10133   */\n      0x00\n        /* \"#utility.yul\":10135:10141   */\n      dup1\n        /* \"#utility.yul\":10143:10149   */\n      0x00\n        /* \"#utility.yul\":10192:10195   */\n      0xa0\n        /* \"#utility.yul\":10180:10189   */\n      dup7\n        /* \"#utility.yul\":10171:10178   */\n      dup9\n        /* \"#utility.yul\":10167:10190   */\n      sub\n        /* \"#utility.yul\":10163:10196   */\n      slt\n        /* \"#utility.yul\":10160:10280   */\n      iszero\n      tag_282\n      jumpi\n        /* \"#utility.yul\":10199:10278   */\n      tag_283\n      tag_123\n      jump\t// in\n    tag_283:\n        /* \"#utility.yul\":10160:10280   */\n    tag_282:\n        /* \"#utility.yul\":10319:10320   */\n      0x00\n        /* \"#utility.yul\":10344:10394   */\n      tag_284\n        /* \"#utility.yul\":10386:10393   */\n      dup9\n        /* \"#utility.yul\":10377:10383   */\n      dup3\n        /* \"#utility.yul\":10366:10375   */\n      dup10\n        /* \"#utility.yul\":10362:10384   */\n      add\n        /* \"#utility.yul\":10344:10394   */\n      tag_130\n      jump\t// in\n    tag_284:\n        /* \"#utility.yul\":10334:10394   */\n      swap6\n      pop\n        /* \"#utility.yul\":10290:10404   */\n      pop\n        /* \"#utility.yul\":10443:10445   */\n      0x20\n        /* \"#utility.yul\":10469:10522   */\n      tag_285\n        /* \"#utility.yul\":10514:10521   */\n      dup9\n        /* \"#utility.yul\":10505:10511   */\n      dup3\n        /* \"#utility.yul\":10494:10503   */\n      dup10\n        /* \"#utility.yul\":10490:10512   */\n      add\n        /* \"#utility.yul\":10469:10522   */\n      tag_127\n      jump\t// in\n    tag_285:\n        /* \"#utility.yul\":10459:10522   */\n      swap5\n      pop\n        /* \"#utility.yul\":10414:10532   */\n      pop\n        /* \"#utility.yul\":10599:10601   */\n      0x40\n        /* \"#utility.yul\":10588:10597   */\n      dup7\n        /* \"#utility.yul\":10584:10602   */\n      add\n        /* \"#utility.yul\":10571:10603   */\n      calldataload\n        /* \"#utility.yul\":10630:10648   */\n      0xffffffffffffffff\n        /* \"#utility.yul\":10622:10628   */\n      dup2\n        /* \"#utility.yul\":10619:10649   */\n      gt\n        /* \"#utility.yul\":10616:10733   */\n      iszero\n      tag_286\n      jumpi\n        /* \"#utility.yul\":10652:10731   */\n      tag_287\n      tag_124\n      jump\t// in\n    tag_287:\n        /* \"#utility.yul\":10616:10733   */\n    tag_286:\n        /* \"#utility.yul\":10757:10820   */\n      tag_288\n        /* \"#utility.yul\":10812:10819   */\n      dup9\n        /* \"#utility.yul\":10803:10809   */\n      dup3\n        /* \"#utility.yul\":10792:10801   */\n      dup10\n        /* \"#utility.yul\":10788:10810   */\n      add\n        /* \"#utility.yul\":10757:10820   */\n      tag_152\n      jump\t// in\n    tag_288:\n        /* \"#utility.yul\":10747:10820   */\n      swap4\n      pop\n        /* \"#utility.yul\":10542:10830   */\n      pop\n        /* \"#utility.yul\":10897:10899   */\n      0x60\n        /* \"#utility.yul\":10886:10895   */\n      dup7\n        /* \"#utility.yul\":10882:10900   */\n      add\n        /* \"#utility.yul\":10869:10901   */\n      calldataload\n        /* \"#utility.yul\":10928:10946   */\n      0xffffffffffffffff\n        /* \"#utility.yul\":10920:10926   */\n      dup2\n        /* \"#utility.yul\":10917:10947   */\n      gt\n        /* \"#utility.yul\":10914:11031   */\n      iszero\n      tag_289\n      jumpi\n        /* \"#utility.yul\":10950:11029   */\n      tag_290\n      tag_124\n      jump\t// in\n    tag_290:\n        /* \"#utility.yul\":10914:11031   */\n    tag_289:\n        /* \"#utility.yul\":11055:11118   */\n      tag_291\n        /* \"#utility.yul\":11110:11117   */\n      dup9\n        /* \"#utility.yul\":11101:11107   */\n      dup3\n        /* \"#utility.yul\":11090:11099   */\n      dup10\n        /* \"#utility.yul\":11086:11108   */\n      add\n        /* \"#utility.yul\":11055:11118   */\n      tag_152\n      jump\t// in\n    tag_291:\n        /* \"#utility.yul\":11045:11118   */\n      swap3\n      pop\n        /* \"#utility.yul\":10840:11128   */\n      pop\n        /* \"#utility.yul\":11195:11198   */\n      0x80\n        /* \"#utility.yul\":11184:11193   */\n      dup7\n        /* \"#utility.yul\":11180:11199   */\n      add\n        /* \"#utility.yul\":11167:11200   */\n      calldataload\n        /* \"#utility.yul\":11227:11245   */\n      0xffffffffffffffff\n        /* \"#utility.yul\":11219:11225   */\n      dup2\n        /* \"#utility.yul\":11216:11246   */\n      gt\n        /* \"#utility.yul\":11213:11330   */\n      iszero\n      tag_292\n      jumpi\n        /* \"#utility.yul\":11249:11328   */\n      tag_293\n      tag_124\n      jump\t// in\n    tag_293:\n        /* \"#utility.yul\":11213:11330   */\n    tag_292:\n        /* \"#utility.yul\":11354:11417   */\n      tag_294\n        /* \"#utility.yul\":11409:11416   */\n      dup9\n        /* \"#utility.yul\":11400:11406   */\n      dup3\n        /* \"#utility.yul\":11389:11398   */\n      dup10\n        /* \"#utility.yul\":11385:11407   */\n      add\n        /* \"#utility.yul\":11354:11417   */\n      tag_152\n      jump\t// in\n    tag_294:\n        /* \"#utility.yul\":11344:11417   */\n      swap2\n      pop\n        /* \"#utility.yul\":11138:11427   */\n      pop\n        /* \"#utility.yul\":9989:11434   */\n      swap3\n      swap6\n      pop\n      swap3\n      swap6\n      swap1\n      swap4\n      pop\n      jump\t// out\n        /* \"#utility.yul\":11440:11609   */\n    tag_154:\n        /* \"#utility.yul\":11524:11535   */\n      0x00\n        /* \"#utility.yul\":11558:11564   */\n      dup3\n        /* \"#utility.yul\":11553:11556   */\n      dup3\n        /* \"#utility.yul\":11546:11565   */\n      mstore\n        /* \"#utility.yul\":11598:11602   */\n      0x20\n        /* \"#utility.yul\":11593:11596   */\n      dup3\n        /* \"#utility.yul\":11589:11603   */\n      add\n        /* \"#utility.yul\":11574:11603   */\n      swap1\n      pop\n        /* \"#utility.yul\":11440:11609   */\n      swap3\n      swap2\n      pop\n      pop\n      jump\t// out\n        /* \"#utility.yul\":11615:11992   */\n    tag_155:\n        /* \"#utility.yul\":11703:11706   */\n      0x00\n        /* \"#utility.yul\":11731:11770   */\n      tag_297\n        /* \"#utility.yul\":11764:11769   */\n      dup3\n        /* \"#utility.yul\":11731:11770   */\n      tag_134\n      jump\t// in\n    tag_297:\n        /* \"#utility.yul\":11786:11857   */\n      tag_298\n        /* \"#utility.yul\":11850:11856   */\n      dup2\n        /* \"#utility.yul\":11845:11848   */\n      dup6\n        /* \"#utility.yul\":11786:11857   */\n      tag_154\n      jump\t// in\n    tag_298:\n        /* \"#utility.yul\":11779:11857   */\n      swap4\n      pop\n        /* \"#utility.yul\":11866:11931   */\n      tag_299\n        /* \"#utility.yul\":11924:11930   */\n      dup2\n        /* \"#utility.yul\":11919:11922   */\n      dup6\n        /* \"#utility.yul\":11912:11916   */\n      0x20\n        /* \"#utility.yul\":11905:11910   */\n      dup7\n        /* \"#utility.yul\":11901:11917   */\n      add\n        /* \"#utility.yul\":11866:11931   */\n      tag_136\n      jump\t// in\n    tag_299:\n        /* \"#utility.yul\":11956:11985   */\n      tag_300\n        /* \"#utility.yul\":11978:11984   */\n      dup2\n        /* \"#utility.yul\":11956:11985   */\n      tag_137\n      jump\t// in\n    tag_300:\n        /* \"#utility.yul\":11951:11954   */\n      dup5\n        /* \"#utility.yul\":11947:11986   */\n      add\n        /* \"#utility.yul\":11940:11986   */\n      swap2\n      pop\n        /* \"#utility.yul\":11707:11992   */\n      pop\n        /* \"#utility.yul\":11615:11992   */\n      swap3\n      swap2\n      pop\n      pop\n      jump\t// out\n        /* \"#utility.yul\":11998:13244   */\n    tag_57:\n        /* \"#utility.yul\":12335:12339   */\n      0x00\n        /* \"#utility.yul\":12373:12376   */\n      0x0100\n        /* \"#utility.yul\":12362:12371   */\n      dup3\n        /* \"#utility.yul\":12358:12377   */\n      add\n        /* \"#utility.yul\":12350:12377   */\n      swap1\n      pop\n        /* \"#utility.yul\":12387:12458   */\n      tag_302\n        /* \"#utility.yul\":12455:12456   */\n      0x00\n        /* \"#utility.yul\":12444:12453   */\n      dup4\n        /* \"#utility.yul\":12440:12457   */\n      add\n        /* \"#utility.yul\":12431:12437   */\n      dup12\n        /* \"#utility.yul\":12387:12458   */\n      tag_143\n      jump\t// in\n    tag_302:\n        /* \"#utility.yul\":12468:12534   */\n      tag_303\n        /* \"#utility.yul\":12530:12532   */\n      0x20\n        /* \"#utility.yul\":12519:12528   */\n      dup4\n        /* \"#utility.yul\":12515:12533   */\n      add\n        /* \"#utility.yul\":12506:12512   */\n      dup11\n        /* \"#utility.yul\":12468:12534   */\n      tag_131\n      jump\t// in\n    tag_303:\n        /* \"#utility.yul\":12544:12610   */\n      tag_304\n        /* \"#utility.yul\":12606:12608   */\n      0x40\n        /* \"#utility.yul\":12595:12604   */\n      dup4\n        /* \"#utility.yul\":12591:12609   */\n      add\n        /* \"#utility.yul\":12582:12588   */\n      dup10\n        /* \"#utility.yul\":12544:12610   */\n      tag_131\n      jump\t// in\n    tag_304:\n        /* \"#utility.yul\":12620:12692   */\n      tag_305\n        /* \"#utility.yul\":12688:12690   */\n      0x60\n        /* \"#utility.yul\":12677:12686   */\n      dup4\n        /* \"#utility.yul\":12673:12691   */\n      add\n        /* \"#utility.yul\":12664:12670   */\n      dup9\n        /* \"#utility.yul\":12620:12692   */\n      tag_143\n      jump\t// in\n    tag_305:\n        /* \"#utility.yul\":12740:12749   */\n      dup2\n        /* \"#utility.yul\":12734:12738   */\n      dup2\n        /* \"#utility.yul\":12730:12750   */\n      sub\n        /* \"#utility.yul\":12724:12727   */\n      0x80\n        /* \"#utility.yul\":12713:12722   */\n      dup4\n        /* \"#utility.yul\":12709:12728   */\n      add\n        /* \"#utility.yul\":12702:12751   */\n      mstore\n        /* \"#utility.yul\":12768:12846   */\n      tag_306\n        /* \"#utility.yul\":12841:12845   */\n      dup2\n        /* \"#utility.yul\":12832:12838   */\n      dup8\n        /* \"#utility.yul\":12768:12846   */\n      tag_155\n      jump\t// in\n    tag_306:\n        /* \"#utility.yul\":12760:12846   */\n      swap1\n      pop\n        /* \"#utility.yul\":12894:12903   */\n      dup2\n        /* \"#utility.yul\":12888:12892   */\n      dup2\n        /* \"#utility.yul\":12884:12904   */\n      sub\n        /* \"#utility.yul\":12878:12881   */\n      0xa0\n        /* \"#utility.yul\":12867:12876   */\n      dup4\n        /* \"#utility.yul\":12863:12882   */\n      add\n        /* \"#utility.yul\":12856:12905   */\n      mstore\n        /* \"#utility.yul\":12922:13000   */\n      tag_307\n        /* \"#utility.yul\":12995:12999   */\n      dup2\n        /* \"#utility.yul\":12986:12992   */\n      dup7\n        /* \"#utility.yul\":12922:13000   */\n      tag_155\n      jump\t// in\n    tag_307:\n        /* \"#utility.yul\":12914:13000   */\n      swap1\n      pop\n        /* \"#utility.yul\":13048:13057   */\n      dup2\n        /* \"#utility.yul\":13042:13046   */\n      dup2\n        /* \"#utility.yul\":13038:13058   */\n      sub\n        /* \"#utility.yul\":13032:13035   */\n      0xc0\n        /* \"#utility.yul\":13021:13030   */\n      dup4\n        /* \"#utility.yul\":13017:13036   */\n      add\n        /* \"#utility.yul\":13010:13059   */\n      mstore\n        /* \"#utility.yul\":13076:13154   */\n      tag_308\n        /* \"#utility.yul\":13149:13153   */\n      dup2\n        /* \"#utility.yul\":13140:13146   */\n      dup6\n        /* \"#utility.yul\":13076:13154   */\n      tag_155\n      jump\t// in\n    tag_308:\n        /* \"#utility.yul\":13068:13154   */\n      swap1\n      pop\n        /* \"#utility.yul\":13164:13237   */\n      tag_309\n        /* \"#utility.yul\":13232:13235   */\n      0xe0\n        /* \"#utility.yul\":13221:13230   */\n      dup4\n        /* \"#utility.yul\":13217:13236   */\n      add\n        /* \"#utility.yul\":13208:13214   */\n      dup5\n        /* \"#utility.yul\":13164:13237   */\n      tag_153\n      jump\t// in\n    tag_309:\n        /* \"#utility.yul\":11998:13244   */\n      swap10\n      swap9\n      pop\n      pop\n      pop\n      pop\n      pop\n      pop\n      pop\n      pop\n      pop\n      jump\t// out\n        /* \"#utility.yul\":13250:13473   */\n    tag_156:\n        /* \"#utility.yul\":13390:13424   */\n      0x796f75206172656e277420746865206f776e6572206f66207468652070726f70\n        /* \"#utility.yul\":13386:13387   */\n      0x00\n        /* \"#utility.yul\":13378:13384   */\n      dup3\n        /* \"#utility.yul\":13374:13388   */\n      add\n        /* \"#utility.yul\":13367:13425   */\n      mstore\n        /* \"#utility.yul\":13459:13465   */\n      0x6572747900000000000000000000000000000000000000000000000000000000\n        /* \"#utility.yul\":13454:13456   */\n      0x20\n        /* \"#utility.yul\":13446:13452   */\n      dup3\n        /* \"#utility.yul\":13442:13457   */\n      add\n        /* \"#utility.yul\":13435:13466   */\n      mstore\n        /* \"#utility.yul\":13250:13473   */\n      pop\n      jump\t// out\n        /* \"#utility.yul\":13479:13845   */\n    tag_157:\n        /* \"#utility.yul\":13621:13624   */\n      0x00\n        /* \"#utility.yul\":13642:13709   */\n      tag_312\n        /* \"#utility.yul\":13706:13708   */\n      0x24\n        /* \"#utility.yul\":13701:13704   */\n      dup4\n        /* \"#utility.yul\":13642:13709   */\n      tag_154\n      jump\t// in\n    tag_312:\n        /* \"#utility.yul\":13635:13709   */\n      swap2\n      pop\n        /* \"#utility.yul\":13718:13811   */\n      tag_313\n        /* \"#utility.yul\":13807:13810   */\n      dup3\n        /* \"#utility.yul\":13718:13811   */\n      tag_156\n      jump\t// in\n    tag_313:\n        /* \"#utility.yul\":13836:13838   */\n      0x40\n        /* \"#utility.yul\":13831:13834   */\n      dup3\n        /* \"#utility.yul\":13827:13839   */\n      add\n        /* \"#utility.yul\":13820:13839   */\n      swap1\n      pop\n        /* \"#utility.yul\":13479:13845   */\n      swap2\n      swap1\n      pop\n      jump\t// out\n        /* \"#utility.yul\":13851:14270   */\n    tag_61:\n        /* \"#utility.yul\":14017:14021   */\n      0x00\n        /* \"#utility.yul\":14055:14057   */\n      0x20\n        /* \"#utility.yul\":14044:14053   */\n      dup3\n        /* \"#utility.yul\":14040:14058   */\n      add\n        /* \"#utility.yul\":14032:14058   */\n      swap1\n      pop\n        /* \"#utility.yul\":14104:14113   */\n      dup2\n        /* \"#utility.yul\":14098:14102   */\n      dup2\n        /* \"#utility.yul\":14094:14114   */\n      sub\n        /* \"#utility.yul\":14090:14091   */\n      0x00\n        /* \"#utility.yul\":14079:14088   */\n      dup4\n        /* \"#utility.yul\":14075:14092   */\n      add\n        /* \"#utility.yul\":14068:14115   */\n      mstore\n        /* \"#utility.yul\":14132:14263   */\n      tag_315\n        /* \"#utility.yul\":14258:14262   */\n      dup2\n        /* \"#utility.yul\":14132:14263   */\n      tag_157\n      jump\t// in\n    tag_315:\n        /* \"#utility.yul\":14124:14263   */\n      swap1\n      pop\n        /* \"#utility.yul\":13851:14270   */\n      swap2\n      swap1\n      pop\n      jump\t// out\n        /* \"#utility.yul\":14276:14456   */\n    tag_158:\n        /* \"#utility.yul\":14324:14401   */\n      0x4e487b7100000000000000000000000000000000000000000000000000000000\n        /* \"#utility.yul\":14321:14322   */\n      0x00\n        /* \"#utility.yul\":14314:14402   */\n      mstore\n        /* \"#utility.yul\":14421:14425   */\n      0x22\n        /* \"#utility.yul\":14418:14419   */\n      0x04\n        /* \"#utility.yul\":14411:14426   */\n      mstore\n        /* \"#utility.yul\":14445:14449   */\n      0x24\n        /* \"#utility.yul\":14442:14443   */\n      0x00\n        /* \"#utility.yul\":14435:14450   */\n      revert\n        /* \"#utility.yul\":14462:14782   */\n    tag_67:\n        /* \"#utility.yul\":14506:14512   */\n      0x00\n        /* \"#utility.yul\":14543:14544   */\n      0x02\n        /* \"#utility.yul\":14537:14541   */\n      dup3\n        /* \"#utility.yul\":14533:14545   */\n      div\n        /* \"#utility.yul\":14523:14545   */\n      swap1\n      pop\n        /* \"#utility.yul\":14590:14591   */\n      0x01\n        /* \"#utility.yul\":14584:14588   */\n      dup3\n        /* \"#utility.yul\":14580:14592   */\n      and\n        /* \"#utility.yul\":14611:14629   */\n      dup1\n        /* \"#utility.yul\":14601:14682   */\n      tag_318\n      jumpi\n        /* \"#utility.yul\":14667:14671   */\n      0x7f\n        /* \"#utility.yul\":14659:14665   */\n      dup3\n        /* \"#utility.yul\":14655:14672   */\n      and\n        /* \"#utility.yul\":14645:14672   */\n      swap2\n      pop\n        /* \"#utility.yul\":14601:14682   */\n    tag_318:\n        /* \"#utility.yul\":14729:14731   */\n      0x20\n        /* \"#utility.yul\":14721:14727   */\n      dup3\n        /* \"#utility.yul\":14718:14732   */\n      lt\n        /* \"#utility.yul\":14698:14716   */\n      dup2\n        /* \"#utility.yul\":14695:14733   */\n      sub\n        /* \"#utility.yul\":14692:14776   */\n      tag_319\n      jumpi\n        /* \"#utility.yul\":14748:14766   */\n      tag_320\n      tag_158\n      jump\t// in\n    tag_320:\n        /* \"#utility.yul\":14692:14776   */\n    tag_319:\n        /* \"#utility.yul\":14513:14782   */\n      pop\n        /* \"#utility.yul\":14462:14782   */\n      swap2\n      swap1\n      pop\n      jump\t// out\n        /* \"#utility.yul\":14788:14929   */\n    tag_159:\n        /* \"#utility.yul\":14837:14841   */\n      0x00\n        /* \"#utility.yul\":14860:14863   */\n      dup2\n        /* \"#utility.yul\":14852:14863   */\n      swap1\n      pop\n        /* \"#utility.yul\":14883:14886   */\n      dup2\n        /* \"#utility.yul\":14880:14881   */\n      0x00\n        /* \"#utility.yul\":14873:14887   */\n      mstore\n        /* \"#utility.yul\":14917:14921   */\n      0x20\n        /* \"#utility.yul\":14914:14915   */\n      0x00\n        /* \"#utility.yul\":14904:14922   */\n      keccak256\n        /* \"#utility.yul\":14896:14922   */\n      swap1\n      pop\n        /* \"#utility.yul\":14788:14929   */\n      swap2\n      swap1\n      pop\n      jump\t// out\n        /* \"#utility.yul\":14935:15028   */\n    tag_160:\n        /* \"#utility.yul\":14972:14978   */\n      0x00\n        /* \"#utility.yul\":15019:15021   */\n      0x20\n        /* \"#utility.yul\":15014:15016   */\n      0x1f\n        /* \"#utility.yul\":15007:15012   */\n      dup4\n        /* \"#utility.yul\":15003:15017   */\n      add\n        /* \"#utility.yul\":14999:15022   */\n      div\n        /* \"#utility.yul\":14989:15022   */\n      swap1\n      pop\n        /* \"#utility.yul\":14935:15028   */\n      swap2\n      swap1\n      pop\n      jump\t// out\n        /* \"#utility.yul\":15034:15141   */\n    tag_161:\n        /* \"#utility.yul\":15078:15086   */\n      0x00\n        /* \"#utility.yul\":15128:15133   */\n      dup3\n        /* \"#utility.yul\":15122:15126   */\n      dup3\n        /* \"#utility.yul\":15118:15134   */\n      shl\n        /* \"#utility.yul\":15097:15134   */\n      swap1\n      pop\n        /* \"#utility.yul\":15034:15141   */\n      swap3\n      swap2\n      pop\n      pop\n      jump\t// out\n        /* \"#utility.yul\":15147:15540   */\n    tag_162:\n        /* \"#utility.yul\":15216:15222   */\n      0x00\n        /* \"#utility.yul\":15266:15267   */\n      0x08\n        /* \"#utility.yul\":15254:15264   */\n      dup4\n        /* \"#utility.yul\":15250:15268   */\n      mul\n        /* \"#utility.yul\":15289:15386   */\n      tag_325\n        /* \"#utility.yul\":15319:15385   */\n      0xffffffffffffffffffffffffffffffffffffffffffffffffffffffffffffffff\n        /* \"#utility.yul\":15308:15317   */\n      dup3\n        /* \"#utility.yul\":15289:15386   */\n      tag_161\n      jump\t// in\n    tag_325:\n        /* \"#utility.yul\":15407:15446   */\n      tag_326\n        /* \"#utility.yul\":15437:15445   */\n      dup7\n        /* \"#utility.yul\":15426:15435   */\n      dup4\n        /* \"#utility.yul\":15407:15446   */\n      tag_161\n      jump\t// in\n    tag_326:\n        /* \"#utility.yul\":15395:15446   */\n      swap6\n      pop\n        /* \"#utility.yul\":15479:15483   */\n      dup1\n        /* \"#utility.yul\":15475:15484   */\n      not\n        /* \"#utility.yul\":15468:15473   */\n      dup5\n        /* \"#utility.yul\":15464:15485   */\n      and\n        /* \"#utility.yul\":15455:15485   */\n      swap4\n      pop\n        /* \"#utility.yul\":15528:15532   */\n      dup1\n        /* \"#utility.yul\":15518:15526   */\n      dup7\n        /* \"#utility.yul\":15514:15533   */\n      and\n        /* \"#utility.yul\":15507:15512   */\n      dup5\n        /* \"#utility.yul\":15504:15534   */\n      or\n        /* \"#utility.yul\":15494:15534   */\n      swap3\n      pop\n        /* \"#utility.yul\":15223:15540   */\n      pop\n      pop\n        /* \"#utility.yul\":15147:15540   */\n      swap4\n      swap3\n      pop\n      pop\n      pop\n      jump\t// out\n        /* \"#utility.yul\":15546:15606   */\n    tag_163:\n        /* \"#utility.yul\":15574:15577   */\n      0x00\n        /* \"#utility.yul\":15595:15600   */\n      dup2\n        /* \"#utility.yul\":15588:15600   */\n      swap1\n      pop\n        /* \"#utility.yul\":15546:15606   */\n      swap2\n      swap1\n      pop\n      jump\t// out\n        /* \"#utility.yul\":15612:15754   */\n    tag_164:\n        /* \"#utility.yul\":15662:15671   */\n      0x00\n        /* \"#utility.yul\":15695:15748   */\n      tag_329\n        /* \"#utility.yul\":15713:15747   */\n      tag_330\n        /* \"#utility.yul\":15722:15746   */\n      tag_331\n        /* \"#utility.yul\":15740:15745   */\n      dup5\n        /* \"#utility.yul\":15722:15746   */\n      tag_125\n      jump\t// in\n    tag_331:\n        /* \"#utility.yul\":15713:15747   */\n      tag_163\n      jump\t// in\n    tag_330:\n        /* \"#utility.yul\":15695:15748   */\n      tag_125\n      jump\t// in\n    tag_329:\n        /* \"#utility.yul\":15682:15748   */\n      swap1\n      pop\n        /* \"#utility.yul\":15612:15754   */\n      swap2\n      swap1\n      pop\n      jump\t// out\n        /* \"#utility.yul\":15760:15835   */\n    tag_165:\n        /* \"#utility.yul\":15803:15806   */\n      0x00\n        /* \"#utility.yul\":15824:15829   */\n      dup2\n        /* \"#utility.yul\":15817:15829   */\n      swap1\n      pop\n        /* \"#utility.yul\":15760:15835   */\n      swap2\n      swap1\n      pop\n      jump\t// out\n        /* \"#utility.yul\":15841:16110   */\n    tag_166:\n        /* \"#utility.yul\":15951:15990   */\n      tag_334\n        /* \"#utility.yul\":15982:15989   */\n      dup4\n        /* \"#utility.yul\":15951:15990   */\n      tag_164\n      jump\t// in\n    tag_334:\n        /* \"#utility.yul\":16012:16103   */\n      tag_335\n        /* \"#utility.yul\":16061:16102   */\n      tag_336\n        /* \"#utility.yul\":16085:16101   */\n      dup3\n        /* \"#utility.yul\":16061:16102   */\n      tag_165\n      jump\t// in\n    tag_336:\n        /* \"#utility.yul\":16053:16059   */\n      dup5\n        /* \"#utility.yul\":16046:16050   */\n      dup5\n        /* \"#utility.yul\":16040:16051   */\n      sload\n        /* \"#utility.yul\":16012:16103   */\n      tag_162\n      jump\t// in\n    tag_335:\n        /* \"#utility.yul\":16006:16010   */\n      dup3\n        /* \"#utility.yul\":15999:16104   */\n      sstore\n        /* \"#utility.yul\":15917:16110   */\n      pop\n        /* \"#utility.yul\":15841:16110   */\n      pop\n      pop\n      pop\n      jump\t// out\n        /* \"#utility.yul\":16116:16189   */\n    tag_167:\n        /* \"#utility.yul\":16161:16164   */\n      0x00\n        /* \"#utility.yul\":16116:16189   */\n      swap1\n      jump\t// out\n        /* \"#utility.yul\":16195:16384   */\n    tag_168:\n        /* \"#utility.yul\":16272:16304   */\n      tag_339\n      tag_167\n      jump\t// in\n    tag_339:\n        /* \"#utility.yul\":16313:16378   */\n      tag_340\n        /* \"#utility.yul\":16371:16377   */\n      dup2\n        /* \"#utility.yul\":16363:16369   */\n      dup5\n        /* \"#utility.yul\":16357:16361   */\n      dup5\n        /* \"#utility.yul\":16313:16378   */\n      tag_166\n      jump\t// in\n    tag_340:\n        /* \"#utility.yul\":16248:16384   */\n      pop\n        /* \"#utility.yul\":16195:16384   */\n      pop\n      pop\n      jump\t// out\n        /* \"#utility.yul\":16390:16576   */\n    tag_169:\n        /* \"#utility.yul\":16450:16570   */\n    tag_342:\n        /* \"#utility.yul\":16467:16470   */\n      dup2\n        /* \"#utility.yul\":16460:16465   */\n      dup2\n        /* \"#utility.yul\":16457:16471   */\n      lt\n        /* \"#utility.yul\":16450:16570   */\n      iszero\n      tag_344\n      jumpi\n        /* \"#utility.yul\":16521:16560   */\n      tag_345\n        /* \"#utility.yul\":16558:16559   */\n      0x00\n        /* \"#utility.yul\":16551:16556   */\n      dup3\n        /* \"#utility.yul\":16521:16560   */\n      tag_168\n      jump\t// in\n    tag_345:\n        /* \"#utility.yul\":16494:16495   */\n      0x01\n        /* \"#utility.yul\":16487:16492   */\n      dup2\n        /* \"#utility.yul\":16483:16496   */\n      add\n        /* \"#utility.yul\":16474:16496   */\n      swap1\n      pop\n        /* \"#utility.yul\":16450:16570   */\n      jump(tag_342)\n    tag_344:\n        /* \"#utility.yul\":16390:16576   */\n      pop\n      pop\n      jump\t// out\n        /* \"#utility.yul\":16582:17125   */\n    tag_170:\n        /* \"#utility.yul\":16683:16685   */\n      0x1f\n        /* \"#utility.yul\":16678:16681   */\n      dup3\n        /* \"#utility.yul\":16675:16686   */\n      gt\n        /* \"#utility.yul\":16672:17118   */\n      iszero\n      tag_347\n      jumpi\n        /* \"#utility.yul\":16717:16755   */\n      tag_348\n        /* \"#utility.yul\":16749:16754   */\n      dup2\n        /* \"#utility.yul\":16717:16755   */\n      tag_159\n      jump\t// in\n    tag_348:\n        /* \"#utility.yul\":16801:16830   */\n      tag_349\n        /* \"#utility.yul\":16819:16829   */\n      dup5\n        /* \"#utility.yul\":16801:16830   */\n      tag_160\n      jump\t// in\n    tag_349:\n        /* \"#utility.yul\":16791:16799   */\n      dup2\n        /* \"#utility.yul\":16787:16831   */\n      add\n        /* \"#utility.yul\":16984:16986   */\n      0x20\n        /* \"#utility.yul\":16972:16982   */\n      dup6\n        /* \"#utility.yul\":16969:16987   */\n      lt\n        /* \"#utility.yul\":16966:17015   */\n      iszero\n      tag_350\n      jumpi\n        /* \"#utility.yul\":17005:17013   */\n      dup2\n        /* \"#utility.yul\":16990:17013   */\n      swap1\n      pop\n        /* \"#utility.yul\":16966:17015   */\n    tag_350:\n        /* \"#utility.yul\":17028:17108   */\n      tag_351\n        /* \"#utility.yul\":17084:17106   */\n      tag_352\n        /* \"#utility.yul\":17102:17105   */\n      dup6\n        /* \"#utility.yul\":17084:17106   */\n      tag_160\n      jump\t// in\n    tag_352:\n        /* \"#utility.yul\":17074:17082   */\n      dup4\n        /* \"#utility.yul\":17070:17107   */\n      add\n        /* \"#utility.yul\":17057:17068   */\n      dup3\n        /* \"#utility.yul\":17028:17108   */\n      tag_169\n      jump\t// in\n    tag_351:\n        /* \"#utility.yul\":16687:17118   */\n      pop\n      pop\n        /* \"#utility.yul\":16672:17118   */\n    tag_347:\n        /* \"#utility.yul\":16582:17125   */\n      pop\n      pop\n      pop\n      jump\t// out\n        /* \"#utility.yul\":17131:17248   */\n    tag_171:\n        /* \"#utility.yul\":17185:17193   */\n      0x00\n        /* \"#utility.yul\":17235:17240   */\n      dup3\n        /* \"#utility.yul\":17229:17233   */\n      dup3\n        /* \"#utility.yul\":17225:17241   */\n      shr\n        /* \"#utility.yul\":17204:17241   */\n      swap1\n      pop\n        /* \"#utility.yul\":17131:17248   */\n      swap3\n      swap2\n      pop\n      pop\n      jump\t// out\n        /* \"#utility.yul\":17254:17423   */\n    tag_172:\n        /* \"#utility.yul\":17298:17304   */\n      0x00\n        /* \"#utility.yul\":17331:17382   */\n      tag_355\n        /* \"#utility.yul\":17379:17380   */\n      0x00\n        /* \"#utility.yul\":17375:17381   */\n      not\n        /* \"#utility.yul\":17367:17372   */\n      dup5\n        /* \"#utility.yul\":17364:17365   */\n      0x08\n        /* \"#utility.yul\":17360:17373   */\n      mul\n        /* \"#utility.yul\":17331:17382   */\n      tag_171\n      jump\t// in\n    tag_355:\n        /* \"#utility.yul\":17327:17383   */\n      not\n        /* \"#utility.yul\":17412:17416   */\n      dup1\n        /* \"#utility.yul\":17406:17410   */\n      dup4\n        /* \"#utility.yul\":17402:17417   */\n      and\n        /* \"#utility.yul\":17392:17417   */\n      swap2\n      pop\n        /* \"#utility.yul\":17305:17423   */\n      pop\n        /* \"#utility.yul\":17254:17423   */\n      swap3\n      swap2\n      pop\n      pop\n      jump\t// out\n        /* \"#utility.yul\":17428:17723   */\n    tag_173:\n        /* \"#utility.yul\":17504:17508   */\n      0x00\n        /* \"#utility.yul\":17650:17679   */\n      tag_357\n        /* \"#utility.yul\":17675:17678   */\n      dup4\n        /* \"#utility.yul\":17669:17673   */\n      dup4\n        /* \"#utility.yul\":17650:17679   */\n      tag_172\n      jump\t// in\n    tag_357:\n        /* \"#utility.yul\":17642:17679   */\n      swap2\n      pop\n        /* \"#utility.yul\":17712:17715   */\n      dup3\n        /* \"#utility.yul\":17709:17710   */\n      0x02\n        /* \"#utility.yul\":17705:17716   */\n      mul\n        /* \"#utility.yul\":17699:17703   */\n      dup3\n        /* \"#utility.yul\":17696:17717   */\n      or\n        /* \"#utility.yul\":17688:17717   */\n      swap1\n      pop\n        /* \"#utility.yul\":17428:17723   */\n      swap3\n      swap2\n      pop\n      pop\n      jump\t// out\n        /* \"#utility.yul\":17728:19123   */\n    tag_92:\n        /* \"#utility.yul\":17845:17882   */\n      tag_359\n        /* \"#utility.yul\":17878:17881   */\n      dup3\n        /* \"#utility.yul\":17845:17882   */\n      tag_134\n      jump\t// in\n    tag_359:\n        /* \"#utility.yul\":17947:17965   */\n      0xffffffffffffffff\n        /* \"#utility.yul\":17939:17945   */\n      dup2\n        /* \"#utility.yul\":17936:17966   */\n      gt\n        /* \"#utility.yul\":17933:17989   */\n      iszero\n      tag_360\n      jumpi\n        /* \"#utility.yul\":17969:17987   */\n      tag_361\n      tag_146\n      jump\t// in\n    tag_361:\n        /* \"#utility.yul\":17933:17989   */\n    tag_360:\n        /* \"#utility.yul\":18013:18051   */\n      tag_362\n        /* \"#utility.yul\":18045:18049   */\n      dup3\n        /* \"#utility.yul\":18039:18050   */\n      sload\n        /* \"#utility.yul\":18013:18051   */\n      tag_67\n      jump\t// in\n    tag_362:\n        /* \"#utility.yul\":18098:18165   */\n      tag_363\n        /* \"#utility.yul\":18158:18164   */\n      dup3\n        /* \"#utility.yul\":18150:18156   */\n      dup3\n        /* \"#utility.yul\":18144:18148   */\n      dup6\n        /* \"#utility.yul\":18098:18165   */\n      tag_170\n      jump\t// in\n    tag_363:\n        /* \"#utility.yul\":18192:18193   */\n      0x00\n        /* \"#utility.yul\":18216:18220   */\n      0x20\n        /* \"#utility.yul\":18203:18220   */\n      swap1\n      pop\n        /* \"#utility.yul\":18248:18250   */\n      0x1f\n        /* \"#utility.yul\":18240:18246   */\n      dup4\n        /* \"#utility.yul\":18237:18251   */\n      gt\n        /* \"#utility.yul\":18265:18266   */\n      0x01\n        /* \"#utility.yul\":18260:18878   */\n      dup2\n      eq\n      tag_365\n      jumpi\n        /* \"#utility.yul\":18922:18923   */\n      0x00\n        /* \"#utility.yul\":18939:18945   */\n      dup5\n        /* \"#utility.yul\":18936:19013   */\n      iszero\n      tag_366\n      jumpi\n        /* \"#utility.yul\":18988:18997   */\n      dup3\n        /* \"#utility.yul\":18983:18986   */\n      dup8\n        /* \"#utility.yul\":18979:18998   */\n      add\n        /* \"#utility.yul\":18973:18999   */\n      mload\n        /* \"#utility.yul\":18964:18999   */\n      swap1\n      pop\n        /* \"#utility.yul\":18936:19013   */\n    tag_366:\n        /* \"#utility.yul\":19039:19106   */\n      tag_367\n        /* \"#utility.yul\":19099:19105   */\n      dup6\n        /* \"#utility.yul\":19092:19097   */\n      dup3\n        /* \"#utility.yul\":19039:19106   */\n      tag_173\n      jump\t// in\n    tag_367:\n        /* \"#utility.yul\":19033:19037   */\n      dup7\n        /* \"#utility.yul\":19026:19107   */\n      sstore\n        /* \"#utility.yul\":18895:19117   */\n      pop\n        /* \"#utility.yul\":18230:19117   */\n      jump(tag_364)\n        /* \"#utility.yul\":18260:18878   */\n    tag_365:\n        /* \"#utility.yul\":18312:18316   */\n      0x1f\n        /* \"#utility.yul\":18308:18317   */\n      not\n        /* \"#utility.yul\":18300:18306   */\n      dup5\n        /* \"#utility.yul\":18296:18318   */\n      and\n        /* \"#utility.yul\":18346:18383   */\n      tag_368\n        /* \"#utility.yul\":18378:18382   */\n      dup7\n        /* \"#utility.yul\":18346:18383   */\n      tag_159\n      jump\t// in\n    tag_368:\n        /* \"#utility.yul\":18405:18406   */\n      0x00\n        /* \"#utility.yul\":18419:18627   */\n    tag_369:\n        /* \"#utility.yul\":18433:18440   */\n      dup3\n        /* \"#utility.yul\":18430:18431   */\n      dup2\n        /* \"#utility.yul\":18427:18441   */\n      lt\n        /* \"#utility.yul\":18419:18627   */\n      iszero\n      tag_371\n      jumpi\n        /* \"#utility.yul\":18512:18521   */\n      dup5\n        /* \"#utility.yul\":18507:18510   */\n      dup10\n        /* \"#utility.yul\":18503:18522   */\n      add\n        /* \"#utility.yul\":18497:18523   */\n      mload\n        /* \"#utility.yul\":18489:18495   */\n      dup3\n        /* \"#utility.yul\":18482:18524   */\n      sstore\n        /* \"#utility.yul\":18563:18564   */\n      0x01\n        /* \"#utility.yul\":18555:18561   */\n      dup3\n        /* \"#utility.yul\":18551:18565   */\n      add\n        /* \"#utility.yul\":18541:18565   */\n      swap2\n      pop\n        /* \"#utility.yul\":18610:18612   */\n      0x20\n        /* \"#utility.yul\":18599:18608   */\n      dup6\n        /* \"#utility.yul\":18595:18613   */\n      add\n        /* \"#utility.yul\":18582:18613   */\n      swap5\n      pop\n        /* \"#utility.yul\":18456:18460   */\n      0x20\n        /* \"#utility.yul\":18453:18454   */\n      dup2\n        /* \"#utility.yul\":18449:18461   */\n      add\n        /* \"#utility.yul\":18444:18461   */\n      swap1\n      pop\n        /* \"#utility.yul\":18419:18627   */\n      jump(tag_369)\n    tag_371:\n        /* \"#utility.yul\":18655:18661   */\n      dup7\n        /* \"#utility.yul\":18646:18653   */\n      dup4\n        /* \"#utility.yul\":18643:18662   */\n      lt\n        /* \"#utility.yul\":18640:18819   */\n      iszero\n      tag_372\n      jumpi\n        /* \"#utility.yul\":18713:18722   */\n      dup5\n        /* \"#utility.yul\":18708:18711   */\n      dup10\n        /* \"#utility.yul\":18704:18723   */\n      add\n        /* \"#utility.yul\":18698:18724   */\n      mload\n        /* \"#utility.yul\":18756:18804   */\n      tag_373\n        /* \"#utility.yul\":18798:18802   */\n      0x1f\n        /* \"#utility.yul\":18790:18796   */\n      dup10\n        /* \"#utility.yul\":18786:18803   */\n      and\n        /* \"#utility.yul\":18775:18784   */\n      dup3\n        /* \"#utility.yul\":18756:18804   */\n      tag_172\n      jump\t// in\n    tag_373:\n        /* \"#utility.yul\":18748:18754   */\n      dup4\n        /* \"#utility.yul\":18741:18805   */\n      sstore\n        /* \"#utility.yul\":18663:18819   */\n      pop\n        /* \"#utility.yul\":18640:18819   */\n    tag_372:\n        /* \"#utility.yul\":18865:18866   */\n      0x01\n        /* \"#utility.yul\":18861:18862   */\n      0x02\n        /* \"#utility.yul\":18853:18859   */\n      dup9\n        /* \"#utility.yul\":18849:18863   */\n      mul\n        /* \"#utility.yul\":18845:18867   */\n      add\n        /* \"#utility.yul\":18839:18843   */\n      dup9\n        /* \"#utility.yul\":18832:18868   */\n      sstore\n        /* \"#utility.yul\":18267:18878   */\n      pop\n      pop\n      pop\n        /* \"#utility.yul\":18230:19117   */\n    tag_364:\n      pop\n        /* \"#utility.yul\":17820:19123   */\n      pop\n      pop\n      pop\n        /* \"#utility.yul\":17728:19123   */\n      pop\n      pop\n      jump\t// out\n        /* \"#utility.yul\":19129:19309   */\n    tag_174:\n        /* \"#utility.yul\":19177:19254   */\n      0x4e487b7100000000000000000000000000000000000000000000000000000000\n        /* \"#utility.yul\":19174:19175   */\n      0x00\n        /* \"#utility.yul\":19167:19255   */\n      mstore\n        /* \"#utility.yul\":19274:19278   */\n      0x11\n        /* \"#utility.yul\":19271:19272   */\n      0x04\n        /* \"#utility.yul\":19264:19279   */\n      mstore\n        /* \"#utility.yul\":19298:19302   */\n      0x24\n        /* \"#utility.yul\":19295:19296   */\n      0x00\n        /* \"#utility.yul\":19288:19303   */\n      revert\n        /* \"#utility.yul\":19315:19548   */\n    tag_101:\n        /* \"#utility.yul\":19354:19357   */\n      0x00\n        /* \"#utility.yul\":19377:19401   */\n      tag_376\n        /* \"#utility.yul\":19395:19400   */\n      dup3\n        /* \"#utility.yul\":19377:19401   */\n      tag_125\n      jump\t// in\n    tag_376:\n        /* \"#utility.yul\":19368:19401   */\n      swap2\n      pop\n        /* \"#utility.yul\":19423:19489   */\n      0xffffffffffffffffffffffffffffffffffffffffffffffffffffffffffffffff\n        /* \"#utility.yul\":19416:19421   */\n      dup3\n        /* \"#utility.yul\":19413:19490   */\n      sub\n        /* \"#utility.yul\":19410:19513   */\n      tag_377\n      jumpi\n        /* \"#utility.yul\":19493:19511   */\n      tag_378\n      tag_174\n      jump\t// in\n    tag_378:\n        /* \"#utility.yul\":19410:19513   */\n    tag_377:\n        /* \"#utility.yul\":19540:19541   */\n      0x01\n        /* \"#utility.yul\":19533:19538   */\n      dup3\n        /* \"#utility.yul\":19529:19542   */\n      add\n        /* \"#utility.yul\":19522:19542   */\n      swap1\n      pop\n        /* \"#utility.yul\":19315:19548   */\n      swap2\n      swap1\n      pop\n      jump\t// out\n        /* \"#utility.yul\":19554:20701   */\n    tag_106:\n        /* \"#utility.yul\":19869:19873   */\n      0x00\n        /* \"#utility.yul\":19907:19910   */\n      0xe0\n        /* \"#utility.yul\":19896:19905   */\n      dup3\n        /* \"#utility.yul\":19892:19911   */\n      add\n        /* \"#utility.yul\":19884:19911   */\n      swap1\n      pop\n        /* \"#utility.yul\":19921:19992   */\n      tag_380\n        /* \"#utility.yul\":19989:19990   */\n      0x00\n        /* \"#utility.yul\":19978:19987   */\n      dup4\n        /* \"#utility.yul\":19974:19991   */\n      add\n        /* \"#utility.yul\":19965:19971   */\n      dup11\n        /* \"#utility.yul\":19921:19992   */\n      tag_143\n      jump\t// in\n    tag_380:\n        /* \"#utility.yul\":20002:20068   */\n      tag_381\n        /* \"#utility.yul\":20064:20066   */\n      0x20\n        /* \"#utility.yul\":20053:20062   */\n      dup4\n        /* \"#utility.yul\":20049:20067   */\n      add\n        /* \"#utility.yul\":20040:20046   */\n      dup10\n        /* \"#utility.yul\":20002:20068   */\n      tag_131\n      jump\t// in\n    tag_381:\n        /* \"#utility.yul\":20078:20150   */\n      tag_382\n        /* \"#utility.yul\":20146:20148   */\n      0x40\n        /* \"#utility.yul\":20135:20144   */\n      dup4\n        /* \"#utility.yul\":20131:20149   */\n      add\n        /* \"#utility.yul\":20122:20128   */\n      dup9\n        /* \"#utility.yul\":20078:20150   */\n      tag_143\n      jump\t// in\n    tag_382:\n        /* \"#utility.yul\":20197:20206   */\n      dup2\n        /* \"#utility.yul\":20191:20195   */\n      dup2\n        /* \"#utility.yul\":20187:20207   */\n      sub\n        /* \"#utility.yul\":20182:20184   */\n      0x60\n        /* \"#utility.yul\":20171:20180   */\n      dup4\n        /* \"#utility.yul\":20167:20185   */\n      add\n        /* \"#utility.yul\":20160:20208   */\n      mstore\n        /* \"#utility.yul\":20225:20303   */\n      tag_383\n        /* \"#utility.yul\":20298:20302   */\n      dup2\n        /* \"#utility.yul\":20289:20295   */\n      dup8\n        /* \"#utility.yul\":20225:20303   */\n      tag_155\n      jump\t// in\n    tag_383:\n        /* \"#utility.yul\":20217:20303   */\n      swap1\n      pop\n        /* \"#utility.yul\":20351:20360   */\n      dup2\n        /* \"#utility.yul\":20345:20349   */\n      dup2\n        /* \"#utility.yul\":20341:20361   */\n      sub\n        /* \"#utility.yul\":20335:20338   */\n      0x80\n        /* \"#utility.yul\":20324:20333   */\n      dup4\n        /* \"#utility.yul\":20320:20339   */\n      add\n        /* \"#utility.yul\":20313:20362   */\n      mstore\n        /* \"#utility.yul\":20379:20457   */\n      tag_384\n        /* \"#utility.yul\":20452:20456   */\n      dup2\n        /* \"#utility.yul\":20443:20449   */\n      dup7\n        /* \"#utility.yul\":20379:20457   */\n      tag_155\n      jump\t// in\n    tag_384:\n        /* \"#utility.yul\":20371:20457   */\n      swap1\n      pop\n        /* \"#utility.yul\":20505:20514   */\n      dup2\n        /* \"#utility.yul\":20499:20503   */\n      dup2\n        /* \"#utility.yul\":20495:20515   */\n      sub\n        /* \"#utility.yul\":20489:20492   */\n      0xa0\n        /* \"#utility.yul\":20478:20487   */\n      dup4\n        /* \"#utility.yul\":20474:20493   */\n      add\n        /* \"#utility.yul\":20467:20516   */\n      mstore\n        /* \"#utility.yul\":20533:20611   */\n      tag_385\n        /* \"#utility.yul\":20606:20610   */\n      dup2\n        /* \"#utility.yul\":20597:20603   */\n      dup6\n        /* \"#utility.yul\":20533:20611   */\n      tag_155\n      jump\t// in\n    tag_385:\n        /* \"#utility.yul\":20525:20611   */\n      swap1\n      pop\n        /* \"#utility.yul\":20621:20694   */\n      tag_386\n        /* \"#utility.yul\":20689:20692   */\n      0xc0\n        /* \"#utility.yul\":20678:20687   */\n      dup4\n        /* \"#utility.yul\":20674:20693   */\n      add\n        /* \"#utility.yul\":20665:20671   */\n      dup5\n        /* \"#utility.yul\":20621:20694   */\n      tag_153\n      jump\t// in\n    tag_386:\n        /* \"#utility.yul\":19554:20701   */\n      swap9\n      swap8\n      pop\n      pop\n      pop\n      pop\n      pop\n      pop\n      pop\n      pop\n      jump\t// out\n\n    auxdata: 0xa264697066735822122071508fc3e2f9dc1c72ec8652c96cbf90d4ac197397a1d84e807ab570c5a7dac164736f6c63430008160033\n}\n",
				"bytecode": {
					"linkReferences": {},
					"object": "608060405234801561000f575f80fd5b506117988061001d5f395ff3fe608060405234801561000f575f80fd5b5060043610610091575f3560e01c8063d426de3b11610064578063d426de3b14610143578063dbda146d14610173578063e34fc531146101a3578063e61439d8146101d3578063f7b108081461020357610091565b80632864e4a91461009557806332665ffb146100c5578063c361a335146100f5578063d092193614610113575b5f80fd5b6100af60048036038101906100aa9190610d0a565b61023a565b6040516100bc9190610d57565b60405180910390f35b6100df60048036038101906100da9190610d70565b610311565b6040516100ec9190610f3d565b60405180910390f35b6100fd610589565b60405161010a9190610f6c565b60405180910390f35b61012d60048036038101906101289190610f85565b61058f565b60405161013a9190610d57565b60405180910390f35b61015d600480360381019061015891906110ef565b61066f565b60405161016a9190610d57565b60405180910390f35b61018d60048036038101906101889190610d0a565b61073d565b60405161019a9190610d57565b60405180910390f35b6101bd60048036038101906101b89190610d70565b610841565b6040516101ca9190611158565b60405180910390f35b6101ed60048036038101906101e89190611171565b61087c565b6040516101fa9190610d57565b60405180910390f35b61021d60048036038101906102189190610d70565b610a2a565b604051610231989796959493929190611284565b60405180910390f35b5f823273ffffffffffffffffffffffffffffffffffffffff165f808381526020019081526020015f206006015f9054906101000a900473ffffffffffffffffffffffffffffffffffffffff1673ffffffffffffffffffffffffffffffffffffffff16146102dc576040517f08c379a00000000000000000000000000000000000000000000000000000000081526004016102d390611385565b60405180910390fd5b825f808681526020019081526020015f206001015f6101000a81548160ff021916908315150217905550600191505092915050565b610319610c37565b5f808381526020019081526020015f20604051806101000160405290815f8201548152602001600182015f9054906101000a900460ff161515151581526020016001820160019054906101000a900460ff161515151581526020016002820154815260200160038201805461038d906113d0565b80601f01602080910402602001604051908101604052809291908181526020018280546103b9906113d0565b80156104045780601f106103db57610100808354040283529160200191610404565b820191905f5260205f20905b8154815290600101906020018083116103e757829003601f168201915b5050505050815260200160048201805461041d906113d0565b80601f0160208091040260200160405190810160405280929190818152602001828054610449906113d0565b80156104945780601f1061046b57610100808354040283529160200191610494565b820191905f5260205f20905b81548152906001019060200180831161047757829003601f168201915b505050505081526020016005820180546104ad906113d0565b80601f01602080910402602001604051908101604052809291908181526020018280546104d9906113d0565b80156105245780601f106104fb57610100808354040283529160200191610524565b820191905f5260205f20905b81548152906001019060200180831161050757829003601f168201915b50505050508152602001600682015f9054906101000a900473ffffffffffffffffffffffffffffffffffffffff1673ffffffffffffffffffffffffffffffffffffffff1673ffffffffffffffffffffffffffffffffffffffff16815250509050919050565b60015481565b5f823273ffffffffffffffffffffffffffffffffffffffff165f808381526020019081526020015f206006015f9054906101000a900473ffffffffffffffffffffffffffffffffffffffff1673ffffffffffffffffffffffffffffffffffffffff1614610631576040517f08c379a000000000000000000000000000000000000000000000000000000000815260040161062890611385565b60405180910390fd5b825f808681526020019081526020015f20600201541461066457825f808681526020019081526020015f20600201819055505b600191505092915050565b5f823273ffffffffffffffffffffffffffffffffffffffff165f808381526020019081526020015f206006015f9054906101000a900473ffffffffffffffffffffffffffffffffffffffff1673ffffffffffffffffffffffffffffffffffffffff1614610711576040517f08c379a000000000000000000000000000000000000000000000000000000000815260040161070890611385565b60405180910390fd5b825f808681526020019081526020015f206004019081610731919061159d565b50600191505092915050565b5f823273ffffffffffffffffffffffffffffffffffffffff165f808381526020019081526020015f206006015f9054906101000a900473ffffffffffffffffffffffffffffffffffffffff1673ffffffffffffffffffffffffffffffffffffffff16146107df576040517f08c379a00000000000000000000000000000000000000000000000000000000081526004016107d690611385565b60405180910390fd5b8215155f808681526020019081526020015f2060010160019054906101000a900460ff1615151461083657825f808681526020019081526020015f2060010160016101000a81548160ff0219169083151502179055505b600191505092915050565b5f805f8381526020019081526020015f206006015f9054906101000a900473ffffffffffffffffffffffffffffffffffffffff169050919050565b5f60015f81548092919061088f90611699565b9190505550604051806101000160405280600154815260200187151581526020015f151581526020018681526020018581526020018481526020018381526020013273ffffffffffffffffffffffffffffffffffffffff168152505f8060015481526020019081526020015f205f820151815f01556020820151816001015f6101000a81548160ff02191690831515021790555060408201518160010160016101000a81548160ff021916908315150217905550606082015181600201556080820151816003019081610962919061159d565b5060a0820151816004019081610978919061159d565b5060c082015181600501908161098e919061159d565b5060e0820151816006015f6101000a81548173ffffffffffffffffffffffffffffffffffffffff021916908373ffffffffffffffffffffffffffffffffffffffff1602179055509050507f55d4c37f0be82a4c779966b6f194911d8d57f787390b393eb7166c6d9a0bdc55600154878787878732604051610a1597969594939291906116e0565b60405180910390a16001905095945050505050565b5f602052805f5260405f205f91509050805f015490806001015f9054906101000a900460ff16908060010160019054906101000a900460ff1690806002015490806003018054610a79906113d0565b80601f0160208091040260200160405190810160405280929190818152602001828054610aa5906113d0565b8015610af05780601f10610ac757610100808354040283529160200191610af0565b820191905f5260205f20905b815481529060010190602001808311610ad357829003601f168201915b505050505090806004018054610b05906113d0565b80601f0160208091040260200160405190810160405280929190818152602001828054610b31906113d0565b8015610b7c5780601f10610b5357610100808354040283529160200191610b7c565b820191905f5260205f20905b815481529060010190602001808311610b5f57829003601f168201915b505050505090806005018054610b91906113d0565b80601f0160208091040260200160405190810160405280929190818152602001828054610bbd906113d0565b8015610c085780601f10610bdf57610100808354040283529160200191610c08565b820191905f5260205f20905b815481529060010190602001808311610beb57829003601f168201915b505050505090806006015f9054906101000a900473ffffffffffffffffffffffffffffffffffffffff16905088565b6040518061010001604052805f81526020015f151581526020015f151581526020015f81526020016060815260200160608152602001606081526020015f73ffffffffffffffffffffffffffffffffffffffff1681525090565b5f604051905090565b5f80fd5b5f80fd5b5f819050919050565b610cb481610ca2565b8114610cbe575f80fd5b50565b5f81359050610ccf81610cab565b92915050565b5f8115159050919050565b610ce981610cd5565b8114610cf3575f80fd5b50565b5f81359050610d0481610ce0565b92915050565b5f8060408385031215610d2057610d1f610c9a565b5b5f610d2d85828601610cc1565b9250506020610d3e85828601610cf6565b9150509250929050565b610d5181610cd5565b82525050565b5f602082019050610d6a5f830184610d48565b92915050565b5f60208284031215610d8557610d84610c9a565b5b5f610d9284828501610cc1565b91505092915050565b610da481610ca2565b82525050565b610db381610cd5565b82525050565b5f81519050919050565b5f82825260208201905092915050565b5f5b83811015610df0578082015181840152602081019050610dd5565b5f8484015250505050565b5f601f19601f8301169050919050565b5f610e1582610db9565b610e1f8185610dc3565b9350610e2f818560208601610dd3565b610e3881610dfb565b840191505092915050565b5f73ffffffffffffffffffffffffffffffffffffffff82169050919050565b5f610e6c82610e43565b9050919050565b610e7c81610e62565b82525050565b5f61010083015f830151610e985f860182610d9b565b506020830151610eab6020860182610daa565b506040830151610ebe6040860182610daa565b506060830151610ed16060860182610d9b565b5060808301518482036080860152610ee98282610e0b565b91505060a083015184820360a0860152610f038282610e0b565b91505060c083015184820360c0860152610f1d8282610e0b565b91505060e0830151610f3260e0860182610e73565b508091505092915050565b5f6020820190508181035f830152610f558184610e82565b905092915050565b610f6681610ca2565b82525050565b5f602082019050610f7f5f830184610f5d565b92915050565b5f8060408385031215610f9b57610f9a610c9a565b5b5f610fa885828601610cc1565b9250506020610fb985828601610cc1565b9150509250929050565b5f80fd5b5f80fd5b7f4e487b71000000000000000000000000000000000000000000000000000000005f52604160045260245ffd5b61100182610dfb565b810181811067ffffffffffffffff821117156110205761101f610fcb565b5b80604052505050565b5f611032610c91565b905061103e8282610ff8565b919050565b5f67ffffffffffffffff82111561105d5761105c610fcb565b5b61106682610dfb565b9050602081019050919050565b828183375f83830152505050565b5f61109361108e84611043565b611029565b9050828152602081018484840111156110af576110ae610fc7565b5b6110ba848285611073565b509392505050565b5f82601f8301126110d6576110d5610fc3565b5b81356110e6848260208601611081565b91505092915050565b5f806040838503121561110557611104610c9a565b5b5f61111285828601610cc1565b925050602083013567ffffffffffffffff81111561113357611132610c9e565b5b61113f858286016110c2565b9150509250929050565b61115281610e62565b82525050565b5f60208201905061116b5f830184611149565b92915050565b5f805f805f60a0868803121561118a57611189610c9a565b5b5f61119788828901610cf6565b95505060206111a888828901610cc1565b945050604086013567ffffffffffffffff8111156111c9576111c8610c9e565b5b6111d5888289016110c2565b935050606086013567ffffffffffffffff8111156111f6576111f5610c9e565b5b611202888289016110c2565b925050608086013567ffffffffffffffff81111561122357611222610c9e565b5b61122f888289016110c2565b9150509295509295909350565b5f82825260208201905092915050565b5f61125682610db9565b611260818561123c565b9350611270818560208601610dd3565b61127981610dfb565b840191505092915050565b5f610100820190506112985f83018b610f5d565b6112a5602083018a610d48565b6112b26040830189610d48565b6112bf6060830188610f5d565b81810360808301526112d1818761124c565b905081810360a08301526112e5818661124c565b905081810360c08301526112f9818561124c565b905061130860e0830184611149565b9998505050505050505050565b7f796f75206172656e277420746865206f776e6572206f66207468652070726f705f8201527f6572747900000000000000000000000000000000000000000000000000000000602082015250565b5f61136f60248361123c565b915061137a82611315565b604082019050919050565b5f6020820190508181035f83015261139c81611363565b9050919050565b7f4e487b71000000000000000000000000000000000000000000000000000000005f52602260045260245ffd5b5f60028204905060018216806113e757607f821691505b6020821081036113fa576113f96113a3565b5b50919050565b5f819050815f5260205f209050919050565b5f6020601f8301049050919050565b5f82821b905092915050565b5f6008830261145c7fffffffffffffffffffffffffffffffffffffffffffffffffffffffffffffffff82611421565b6114668683611421565b95508019841693508086168417925050509392505050565b5f819050919050565b5f6114a161149c61149784610ca2565b61147e565b610ca2565b9050919050565b5f819050919050565b6114ba83611487565b6114ce6114c6826114a8565b84845461142d565b825550505050565b5f90565b6114e26114d6565b6114ed8184846114b1565b505050565b5b81811015611510576115055f826114da565b6001810190506114f3565b5050565b601f8211156115555761152681611400565b61152f84611412565b8101602085101561153e578190505b61155261154a85611412565b8301826114f2565b50505b505050565b5f82821c905092915050565b5f6115755f198460080261155a565b1980831691505092915050565b5f61158d8383611566565b9150826002028217905092915050565b6115a682610db9565b67ffffffffffffffff8111156115bf576115be610fcb565b5b6115c982546113d0565b6115d4828285611514565b5f60209050601f831160018114611605575f84156115f3578287015190505b6115fd8582611582565b865550611664565b601f19841661161386611400565b5f5b8281101561163a57848901518255600182019150602085019450602081019050611615565b868310156116575784890151611653601f891682611566565b8355505b6001600288020188555050505b505050505050565b7f4e487b71000000000000000000000000000000000000000000000000000000005f52601160045260245ffd5b5f6116a382610ca2565b91507fffffffffffffffffffffffffffffffffffffffffffffffffffffffffffffffff82036116d5576116d461166c565b5b600182019050919050565b5f60e0820190506116f35f83018a610f5d565b6117006020830189610d48565b61170d6040830188610f5d565b818103606083015261171f818761124c565b90508181036080830152611733818661124c565b905081810360a0830152611747818561124c565b905061175660c0830184611149565b9897505050505050505056fea264697066735822122071508fc3e2f9dc1c72ec8652c96cbf90d4ac197397a1d84e807ab570c5a7dac164736f6c63430008160033",
					"opcodes": "PUSH1 0x80 PUSH1 0x40 MSTORE CALLVALUE DUP1 ISZERO PUSH2 0xF JUMPI PUSH0 DUP1 REVERT JUMPDEST POP PUSH2 0x1798 DUP1 PUSH2 0x1D PUSH0 CODECOPY PUSH0 RETURN INVALID PUSH1 0x80 PUSH1 0x40 MSTORE CALLVALUE DUP1 ISZERO PUSH2 0xF JUMPI PUSH0 DUP1 REVERT JUMPDEST POP PUSH1 0x4 CALLDATASIZE LT PUSH2 0x91 JUMPI PUSH0 CALLDATALOAD PUSH1 0xE0 SHR DUP1 PUSH4 0xD426DE3B GT PUSH2 0x64 JUMPI DUP1 PUSH4 0xD426DE3B EQ PUSH2 0x143 JUMPI DUP1 PUSH4 0xDBDA146D EQ PUSH2 0x173 JUMPI DUP1 PUSH4 0xE34FC531 EQ PUSH2 0x1A3 JUMPI DUP1 PUSH4 0xE61439D8 EQ PUSH2 0x1D3 JUMPI DUP1 PUSH4 0xF7B10808 EQ PUSH2 0x203 JUMPI PUSH2 0x91 JUMP JUMPDEST DUP1 PUSH4 0x2864E4A9 EQ PUSH2 0x95 JUMPI DUP1 PUSH4 0x32665FFB EQ PUSH2 0xC5 JUMPI DUP1 PUSH4 0xC361A335 EQ PUSH2 0xF5 JUMPI DUP1 PUSH4 0xD0921936 EQ PUSH2 0x113 JUMPI JUMPDEST PUSH0 DUP1 REVERT JUMPDEST PUSH2 0xAF PUSH1 0x4 DUP1 CALLDATASIZE SUB DUP2 ADD SWAP1 PUSH2 0xAA SWAP2 SWAP1 PUSH2 0xD0A JUMP JUMPDEST PUSH2 0x23A JUMP JUMPDEST PUSH1 0x40 MLOAD PUSH2 0xBC SWAP2 SWAP1 PUSH2 0xD57 JUMP JUMPDEST PUSH1 0x40 MLOAD DUP1 SWAP2 SUB SWAP1 RETURN JUMPDEST PUSH2 0xDF PUSH1 0x4 DUP1 CALLDATASIZE SUB DUP2 ADD SWAP1 PUSH2 0xDA SWAP2 SWAP1 PUSH2 0xD70 JUMP JUMPDEST PUSH2 0x311 JUMP JUMPDEST PUSH1 0x40 MLOAD PUSH2 0xEC SWAP2 SWAP1 PUSH2 0xF3D JUMP JUMPDEST PUSH1 0x40 MLOAD DUP1 SWAP2 SUB SWAP1 RETURN JUMPDEST PUSH2 0xFD PUSH2 0x589 JUMP JUMPDEST PUSH1 0x40 MLOAD PUSH2 0x10A SWAP2 SWAP1 PUSH2 0xF6C JUMP JUMPDEST PUSH1 0x40 MLOAD DUP1 SWAP2 SUB SWAP1 RETURN JUMPDEST PUSH2 0x12D PUSH1 0x4 DUP1 CALLDATASIZE SUB DUP2 ADD SWAP1 PUSH2 0x128 SWAP2 SWAP1 PUSH2 0xF85 JUMP JUMPDEST PUSH2 0x58F JUMP JUMPDEST PUSH1 0x40 MLOAD PUSH2 0x13A SWAP2 SWAP1 PUSH2 0xD57 JUMP JUMPDEST PUSH1 0x40 MLOAD DUP1 SWAP2 SUB SWAP1 RETURN JUMPDEST PUSH2 0x15D PUSH1 0x4 DUP1 CALLDATASIZE SUB DUP2 ADD SWAP1 PUSH2 0x158 SWAP2 SWAP1 PUSH2 0x10EF JUMP JUMPDEST PUSH2 0x66F JUMP JUMPDEST PUSH1 0x40 MLOAD PUSH2 0x16A SWAP2 SWAP1 PUSH2 0xD57 JUMP JUMPDEST PUSH1 0x40 MLOAD DUP1 SWAP2 SUB SWAP1 RETURN JUMPDEST PUSH2 0x18D PUSH1 0x4 DUP1 CALLDATASIZE SUB DUP2 ADD SWAP1 PUSH2 0x188 SWAP2 SWAP1 PUSH2 0xD0A JUMP JUMPDEST PUSH2 0x73D JUMP JUMPDEST PUSH1 0x40 MLOAD PUSH2 0x19A SWAP2 SWAP1 PUSH2 0xD57 JUMP JUMPDEST PUSH1 0x40 MLOAD DUP1 SWAP2 SUB SWAP1 RETURN JUMPDEST PUSH2 0x1BD PUSH1 0x4 DUP1 CALLDATASIZE SUB DUP2 ADD SWAP1 PUSH2 0x1B8 SWAP2 SWAP1 PUSH2 0xD70 JUMP JUMPDEST PUSH2 0x841 JUMP JUMPDEST PUSH1 0x40 MLOAD PUSH2 0x1CA SWAP2 SWAP1 PUSH2 0x1158 JUMP JUMPDEST PUSH1 0x40 MLOAD DUP1 SWAP2 SUB SWAP1 RETURN JUMPDEST PUSH2 0x1ED PUSH1 0x4 DUP1 CALLDATASIZE SUB DUP2 ADD SWAP1 PUSH2 0x1E8 SWAP2 SWAP1 PUSH2 0x1171 JUMP JUMPDEST PUSH2 0x87C JUMP JUMPDEST PUSH1 0x40 MLOAD PUSH2 0x1FA SWAP2 SWAP1 PUSH2 0xD57 JUMP JUMPDEST PUSH1 0x40 MLOAD DUP1 SWAP2 SUB SWAP1 RETURN JUMPDEST PUSH2 0x21D PUSH1 0x4 DUP1 CALLDATASIZE SUB DUP2 ADD SWAP1 PUSH2 0x218 SWAP2 SWAP1 PUSH2 0xD70 JUMP JUMPDEST PUSH2 0xA2A JUMP JUMPDEST PUSH1 0x40 MLOAD PUSH2 0x231 SWAP9 SWAP8 SWAP7 SWAP6 SWAP5 SWAP4 SWAP3 SWAP2 SWAP1 PUSH2 0x1284 JUMP JUMPDEST PUSH1 0x40 MLOAD DUP1 SWAP2 SUB SWAP1 RETURN JUMPDEST PUSH0 DUP3 ORIGIN PUSH20 0xFFFFFFFFFFFFFFFFFFFFFFFFFFFFFFFFFFFFFFFF AND PUSH0 DUP1 DUP4 DUP2 MSTORE PUSH1 0x20 ADD SWAP1 DUP2 MSTORE PUSH1 0x20 ADD PUSH0 KECCAK256 PUSH1 0x6 ADD PUSH0 SWAP1 SLOAD SWAP1 PUSH2 0x100 EXP SWAP1 DIV PUSH20 0xFFFFFFFFFFFFFFFFFFFFFFFFFFFFFFFFFFFFFFFF AND PUSH20 0xFFFFFFFFFFFFFFFFFFFFFFFFFFFFFFFFFFFFFFFF AND EQ PUSH2 0x2DC JUMPI PUSH1 0x40 MLOAD PUSH32 0x8C379A000000000000000000000000000000000000000000000000000000000 DUP2 MSTORE PUSH1 0x4 ADD PUSH2 0x2D3 SWAP1 PUSH2 0x1385 JUMP JUMPDEST PUSH1 0x40 MLOAD DUP1 SWAP2 SUB SWAP1 REVERT JUMPDEST DUP3 PUSH0 DUP1 DUP7 DUP2 MSTORE PUSH1 0x20 ADD SWAP1 DUP2 MSTORE PUSH1 0x20 ADD PUSH0 KECCAK256 PUSH1 0x1 ADD PUSH0 PUSH2 0x100 EXP DUP2 SLOAD DUP2 PUSH1 0xFF MUL NOT AND SWAP1 DUP4 ISZERO ISZERO MUL OR SWAP1 SSTORE POP PUSH1 0x1 SWAP2 POP POP SWAP3 SWAP2 POP POP JUMP JUMPDEST PUSH2 0x319 PUSH2 0xC37 JUMP JUMPDEST PUSH0 DUP1 DUP4 DUP2 MSTORE PUSH1 0x20 ADD SWAP1 DUP2 MSTORE PUSH1 0x20 ADD PUSH0 KECCAK256 PUSH1 0x40 MLOAD DUP1 PUSH2 0x100 ADD PUSH1 0x40 MSTORE SWAP1 DUP2 PUSH0 DUP3 ADD SLOAD DUP2 MSTORE PUSH1 0x20 ADD PUSH1 0x1 DUP3 ADD PUSH0 SWAP1 SLOAD SWAP1 PUSH2 0x100 EXP SWAP1 DIV PUSH1 0xFF AND ISZERO ISZERO ISZERO ISZERO DUP2 MSTORE PUSH1 0x20 ADD PUSH1 0x1 DUP3 ADD PUSH1 0x1 SWAP1 SLOAD SWAP1 PUSH2 0x100 EXP SWAP1 DIV PUSH1 0xFF AND ISZERO ISZERO ISZERO ISZERO DUP2 MSTORE PUSH1 0x20 ADD PUSH1 0x2 DUP3 ADD SLOAD DUP2 MSTORE PUSH1 0x20 ADD PUSH1 0x3 DUP3 ADD DUP1 SLOAD PUSH2 0x38D SWAP1 PUSH2 0x13D0 JUMP JUMPDEST DUP1 PUSH1 0x1F ADD PUSH1 0x20 DUP1 SWAP2 DIV MUL PUSH1 0x20 ADD PUSH1 0x40 MLOAD SWAP1 DUP2 ADD PUSH1 0x40 MSTORE DUP1 SWAP3 SWAP2 SWAP1 DUP2 DUP2 MSTORE PUSH1 0x20 ADD DUP3 DUP1 SLOAD PUSH2 0x3B9 SWAP1 PUSH2 0x13D0 JUMP JUMPDEST DUP1 ISZERO PUSH2 0x404 JUMPI DUP1 PUSH1 0x1F LT PUSH2 0x3DB JUMPI PUSH2 0x100 DUP1 DUP4 SLOAD DIV MUL DUP4 MSTORE SWAP2 PUSH1 0x20 ADD SWAP2 PUSH2 0x404 JUMP JUMPDEST DUP3 ADD SWAP2 SWAP1 PUSH0 MSTORE PUSH1 0x20 PUSH0 KECCAK256 SWAP1 JUMPDEST DUP2 SLOAD DUP2 MSTORE SWAP1 PUSH1 0x1 ADD SWAP1 PUSH1 0x20 ADD DUP1 DUP4 GT PUSH2 0x3E7 JUMPI DUP3 SWAP1 SUB PUSH1 0x1F AND DUP3 ADD SWAP2 JUMPDEST POP POP POP POP POP DUP2 MSTORE PUSH1 0x20 ADD PUSH1 0x4 DUP3 ADD DUP1 SLOAD PUSH2 0x41D SWAP1 PUSH2 0x13D0 JUMP JUMPDEST DUP1 PUSH1 0x1F ADD PUSH1 0x20 DUP1 SWAP2 DIV MUL PUSH1 0x20 ADD PUSH1 0x40 MLOAD SWAP1 DUP2 ADD PUSH1 0x40 MSTORE DUP1 SWAP3 SWAP2 SWAP1 DUP2 DUP2 MSTORE PUSH1 0x20 ADD DUP3 DUP1 SLOAD PUSH2 0x449 SWAP1 PUSH2 0x13D0 JUMP JUMPDEST DUP1 ISZERO PUSH2 0x494 JUMPI DUP1 PUSH1 0x1F LT PUSH2 0x46B JUMPI PUSH2 0x100 DUP1 DUP4 SLOAD DIV MUL DUP4 MSTORE SWAP2 PUSH1 0x20 ADD SWAP2 PUSH2 0x494 JUMP JUMPDEST DUP3 ADD SWAP2 SWAP1 PUSH0 MSTORE PUSH1 0x20 PUSH0 KECCAK256 SWAP1 JUMPDEST DUP2 SLOAD DUP2 MSTORE SWAP1 PUSH1 0x1 ADD SWAP1 PUSH1 0x20 ADD DUP1 DUP4 GT PUSH2 0x477 JUMPI DUP3 SWAP1 SUB PUSH1 0x1F AND DUP3 ADD SWAP2 JUMPDEST POP POP POP POP POP DUP2 MSTORE PUSH1 0x20 ADD PUSH1 0x5 DUP3 ADD DUP1 SLOAD PUSH2 0x4AD SWAP1 PUSH2 0x13D0 JUMP JUMPDEST DUP1 PUSH1 0x1F ADD PUSH1 0x20 DUP1 SWAP2 DIV MUL PUSH1 0x20 ADD PUSH1 0x40 MLOAD SWAP1 DUP2 ADD PUSH1 0x40 MSTORE DUP1 SWAP3 SWAP2 SWAP1 DUP2 DUP2 MSTORE PUSH1 0x20 ADD DUP3 DUP1 SLOAD PUSH2 0x4D9 SWAP1 PUSH2 0x13D0 JUMP JUMPDEST DUP1 ISZERO PUSH2 0x524 JUMPI DUP1 PUSH1 0x1F LT PUSH2 0x4FB JUMPI PUSH2 0x100 DUP1 DUP4 SLOAD DIV MUL DUP4 MSTORE SWAP2 PUSH1 0x20 ADD SWAP2 PUSH2 0x524 JUMP JUMPDEST DUP3 ADD SWAP2 SWAP1 PUSH0 MSTORE PUSH1 0x20 PUSH0 KECCAK256 SWAP1 JUMPDEST DUP2 SLOAD DUP2 MSTORE SWAP1 PUSH1 0x1 ADD SWAP1 PUSH1 0x20 ADD DUP1 DUP4 GT PUSH2 0x507 JUMPI DUP3 SWAP1 SUB PUSH1 0x1F AND DUP3 ADD SWAP2 JUMPDEST POP POP POP POP POP DUP2 MSTORE PUSH1 0x20 ADD PUSH1 0x6 DUP3 ADD PUSH0 SWAP1 SLOAD SWAP1 PUSH2 0x100 EXP SWAP1 DIV PUSH20 0xFFFFFFFFFFFFFFFFFFFFFFFFFFFFFFFFFFFFFFFF AND PUSH20 0xFFFFFFFFFFFFFFFFFFFFFFFFFFFFFFFFFFFFFFFF AND PUSH20 0xFFFFFFFFFFFFFFFFFFFFFFFFFFFFFFFFFFFFFFFF AND DUP2 MSTORE POP POP SWAP1 POP SWAP2 SWAP1 POP JUMP JUMPDEST PUSH1 0x1 SLOAD DUP2 JUMP JUMPDEST PUSH0 DUP3 ORIGIN PUSH20 0xFFFFFFFFFFFFFFFFFFFFFFFFFFFFFFFFFFFFFFFF AND PUSH0 DUP1 DUP4 DUP2 MSTORE PUSH1 0x20 ADD SWAP1 DUP2 MSTORE PUSH1 0x20 ADD PUSH0 KECCAK256 PUSH1 0x6 ADD PUSH0 SWAP1 SLOAD SWAP1 PUSH2 0x100 EXP SWAP1 DIV PUSH20 0xFFFFFFFFFFFFFFFFFFFFFFFFFFFFFFFFFFFFFFFF AND PUSH20 0xFFFFFFFFFFFFFFFFFFFFFFFFFFFFFFFFFFFFFFFF AND EQ PUSH2 0x631 JUMPI PUSH1 0x40 MLOAD PUSH32 0x8C379A000000000000000000000000000000000000000000000000000000000 DUP2 MSTORE PUSH1 0x4 ADD PUSH2 0x628 SWAP1 PUSH2 0x1385 JUMP JUMPDEST PUSH1 0x40 MLOAD DUP1 SWAP2 SUB SWAP1 REVERT JUMPDEST DUP3 PUSH0 DUP1 DUP7 DUP2 MSTORE PUSH1 0x20 ADD SWAP1 DUP2 MSTORE PUSH1 0x20 ADD PUSH0 KECCAK256 PUSH1 0x2 ADD SLOAD EQ PUSH2 0x664 JUMPI DUP3 PUSH0 DUP1 DUP7 DUP2 MSTORE PUSH1 0x20 ADD SWAP1 DUP2 MSTORE PUSH1 0x20 ADD PUSH0 KECCAK256 PUSH1 0x2 ADD DUP2 SWAP1 SSTORE POP JUMPDEST PUSH1 0x1 SWAP2 POP POP SWAP3 SWAP2 POP POP JUMP JUMPDEST PUSH0 DUP3 ORIGIN PUSH20 0xFFFFFFFFFFFFFFFFFFFFFFFFFFFFFFFFFFFFFFFF AND PUSH0 DUP1 DUP4 DUP2 MSTORE PUSH1 0x20 ADD SWAP1 DUP2 MSTORE PUSH1 0x20 ADD PUSH0 KECCAK256 PUSH1 0x6 ADD PUSH0 SWAP1 SLOAD SWAP1 PUSH2 0x100 EXP SWAP1 DIV PUSH20 0xFFFFFFFFFFFFFFFFFFFFFFFFFFFFFFFFFFFFFFFF AND PUSH20 0xFFFFFFFFFFFFFFFFFFFFFFFFFFFFFFFFFFFFFFFF AND EQ PUSH2 0x711 JUMPI PUSH1 0x40 MLOAD PUSH32 0x8C379A000000000000000000000000000000000000000000000000000000000 DUP2 MSTORE PUSH1 0x4 ADD PUSH2 0x708 SWAP1 PUSH2 0x1385 JUMP JUMPDEST PUSH1 0x40 MLOAD DUP1 SWAP2 SUB SWAP1 REVERT JUMPDEST DUP3 PUSH0 DUP1 DUP7 DUP2 MSTORE PUSH1 0x20 ADD SWAP1 DUP2 MSTORE PUSH1 0x20 ADD PUSH0 KECCAK256 PUSH1 0x4 ADD SWAP1 DUP2 PUSH2 0x731 SWAP2 SWAP1 PUSH2 0x159D JUMP JUMPDEST POP PUSH1 0x1 SWAP2 POP POP SWAP3 SWAP2 POP POP JUMP JUMPDEST PUSH0 DUP3 ORIGIN PUSH20 0xFFFFFFFFFFFFFFFFFFFFFFFFFFFFFFFFFFFFFFFF AND PUSH0 DUP1 DUP4 DUP2 MSTORE PUSH1 0x20 ADD SWAP1 DUP2 MSTORE PUSH1 0x20 ADD PUSH0 KECCAK256 PUSH1 0x6 ADD PUSH0 SWAP1 SLOAD SWAP1 PUSH2 0x100 EXP SWAP1 DIV PUSH20 0xFFFFFFFFFFFFFFFFFFFFFFFFFFFFFFFFFFFFFFFF AND PUSH20 0xFFFFFFFFFFFFFFFFFFFFFFFFFFFFFFFFFFFFFFFF AND EQ PUSH2 0x7DF JUMPI PUSH1 0x40 MLOAD PUSH32 0x8C379A000000000000000000000000000000000000000000000000000000000 DUP2 MSTORE PUSH1 0x4 ADD PUSH2 0x7D6 SWAP1 PUSH2 0x1385 JUMP JUMPDEST PUSH1 0x40 MLOAD DUP1 SWAP2 SUB SWAP1 REVERT JUMPDEST DUP3 ISZERO ISZERO PUSH0 DUP1 DUP7 DUP2 MSTORE PUSH1 0x20 ADD SWAP1 DUP2 MSTORE PUSH1 0x20 ADD PUSH0 KECCAK256 PUSH1 0x1 ADD PUSH1 0x1 SWAP1 SLOAD SWAP1 PUSH2 0x100 EXP SWAP1 DIV PUSH1 0xFF AND ISZERO ISZERO EQ PUSH2 0x836 JUMPI DUP3 PUSH0 DUP1 DUP7 DUP2 MSTORE PUSH1 0x20 ADD SWAP1 DUP2 MSTORE PUSH1 0x20 ADD PUSH0 KECCAK256 PUSH1 0x1 ADD PUSH1 0x1 PUSH2 0x100 EXP DUP2 SLOAD DUP2 PUSH1 0xFF MUL NOT AND SWAP1 DUP4 ISZERO ISZERO MUL OR SWAP1 SSTORE POP JUMPDEST PUSH1 0x1 SWAP2 POP POP SWAP3 SWAP2 POP POP JUMP JUMPDEST PUSH0 DUP1 PUSH0 DUP4 DUP2 MSTORE PUSH1 0x20 ADD SWAP1 DUP2 MSTORE PUSH1 0x20 ADD PUSH0 KECCAK256 PUSH1 0x6 ADD PUSH0 SWAP1 SLOAD SWAP1 PUSH2 0x100 EXP SWAP1 DIV PUSH20 0xFFFFFFFFFFFFFFFFFFFFFFFFFFFFFFFFFFFFFFFF AND SWAP1 POP SWAP2 SWAP1 POP JUMP JUMPDEST PUSH0 PUSH1 0x1 PUSH0 DUP2 SLOAD DUP1 SWAP3 SWAP2 SWAP1 PUSH2 0x88F SWAP1 PUSH2 0x1699 JUMP JUMPDEST SWAP2 SWAP1 POP SSTORE POP PUSH1 0x40 MLOAD DUP1 PUSH2 0x100 ADD PUSH1 0x40 MSTORE DUP1 PUSH1 0x1 SLOAD DUP2 MSTORE PUSH1 0x20 ADD DUP8 ISZERO ISZERO DUP2 MSTORE PUSH1 0x20 ADD PUSH0 ISZERO ISZERO DUP2 MSTORE PUSH1 0x20 ADD DUP7 DUP2 MSTORE PUSH1 0x20 ADD DUP6 DUP2 MSTORE PUSH1 0x20 ADD DUP5 DUP2 MSTORE PUSH1 0x20 ADD DUP4 DUP2 MSTORE PUSH1 0x20 ADD ORIGIN PUSH20 0xFFFFFFFFFFFFFFFFFFFFFFFFFFFFFFFFFFFFFFFF AND DUP2 MSTORE POP PUSH0 DUP1 PUSH1 0x1 SLOAD DUP2 MSTORE PUSH1 0x20 ADD SWAP1 DUP2 MSTORE PUSH1 0x20 ADD PUSH0 KECCAK256 PUSH0 DUP3 ADD MLOAD DUP2 PUSH0 ADD SSTORE PUSH1 0x20 DUP3 ADD MLOAD DUP2 PUSH1 0x1 ADD PUSH0 PUSH2 0x100 EXP DUP2 SLOAD DUP2 PUSH1 0xFF MUL NOT AND SWAP1 DUP4 ISZERO ISZERO MUL OR SWAP1 SSTORE POP PUSH1 0x40 DUP3 ADD MLOAD DUP2 PUSH1 0x1 ADD PUSH1 0x1 PUSH2 0x100 EXP DUP2 SLOAD DUP2 PUSH1 0xFF MUL NOT AND SWAP1 DUP4 ISZERO ISZERO MUL OR SWAP1 SSTORE POP PUSH1 0x60 DUP3 ADD MLOAD DUP2 PUSH1 0x2 ADD SSTORE PUSH1 0x80 DUP3 ADD MLOAD DUP2 PUSH1 0x3 ADD SWAP1 DUP2 PUSH2 0x962 SWAP2 SWAP1 PUSH2 0x159D JUMP JUMPDEST POP PUSH1 0xA0 DUP3 ADD MLOAD DUP2 PUSH1 0x4 ADD SWAP1 DUP2 PUSH2 0x978 SWAP2 SWAP1 PUSH2 0x159D JUMP JUMPDEST POP PUSH1 0xC0 DUP3 ADD MLOAD DUP2 PUSH1 0x5 ADD SWAP1 DUP2 PUSH2 0x98E SWAP2 SWAP1 PUSH2 0x159D JUMP JUMPDEST POP PUSH1 0xE0 DUP3 ADD MLOAD DUP2 PUSH1 0x6 ADD PUSH0 PUSH2 0x100 EXP DUP2 SLOAD DUP2 PUSH20 0xFFFFFFFFFFFFFFFFFFFFFFFFFFFFFFFFFFFFFFFF MUL NOT AND SWAP1 DUP4 PUSH20 0xFFFFFFFFFFFFFFFFFFFFFFFFFFFFFFFFFFFFFFFF AND MUL OR SWAP1 SSTORE POP SWAP1 POP POP PUSH32 0x55D4C37F0BE82A4C779966B6F194911D8D57F787390B393EB7166C6D9A0BDC55 PUSH1 0x1 SLOAD DUP8 DUP8 DUP8 DUP8 DUP8 ORIGIN PUSH1 0x40 MLOAD PUSH2 0xA15 SWAP8 SWAP7 SWAP6 SWAP5 SWAP4 SWAP3 SWAP2 SWAP1 PUSH2 0x16E0 JUMP JUMPDEST PUSH1 0x40 MLOAD DUP1 SWAP2 SUB SWAP1 LOG1 PUSH1 0x1 SWAP1 POP SWAP6 SWAP5 POP POP POP POP POP JUMP JUMPDEST PUSH0 PUSH1 0x20 MSTORE DUP1 PUSH0 MSTORE PUSH1 0x40 PUSH0 KECCAK256 PUSH0 SWAP2 POP SWAP1 POP DUP1 PUSH0 ADD SLOAD SWAP1 DUP1 PUSH1 0x1 ADD PUSH0 SWAP1 SLOAD SWAP1 PUSH2 0x100 EXP SWAP1 DIV PUSH1 0xFF AND SWAP1 DUP1 PUSH1 0x1 ADD PUSH1 0x1 SWAP1 SLOAD SWAP1 PUSH2 0x100 EXP SWAP1 DIV PUSH1 0xFF AND SWAP1 DUP1 PUSH1 0x2 ADD SLOAD SWAP1 DUP1 PUSH1 0x3 ADD DUP1 SLOAD PUSH2 0xA79 SWAP1 PUSH2 0x13D0 JUMP JUMPDEST DUP1 PUSH1 0x1F ADD PUSH1 0x20 DUP1 SWAP2 DIV MUL PUSH1 0x20 ADD PUSH1 0x40 MLOAD SWAP1 DUP2 ADD PUSH1 0x40 MSTORE DUP1 SWAP3 SWAP2 SWAP1 DUP2 DUP2 MSTORE PUSH1 0x20 ADD DUP3 DUP1 SLOAD PUSH2 0xAA5 SWAP1 PUSH2 0x13D0 JUMP JUMPDEST DUP1 ISZERO PUSH2 0xAF0 JUMPI DUP1 PUSH1 0x1F LT PUSH2 0xAC7 JUMPI PUSH2 0x100 DUP1 DUP4 SLOAD DIV MUL DUP4 MSTORE SWAP2 PUSH1 0x20 ADD SWAP2 PUSH2 0xAF0 JUMP JUMPDEST DUP3 ADD SWAP2 SWAP1 PUSH0 MSTORE PUSH1 0x20 PUSH0 KECCAK256 SWAP1 JUMPDEST DUP2 SLOAD DUP2 MSTORE SWAP1 PUSH1 0x1 ADD SWAP1 PUSH1 0x20 ADD DUP1 DUP4 GT PUSH2 0xAD3 JUMPI DUP3 SWAP1 SUB PUSH1 0x1F AND DUP3 ADD SWAP2 JUMPDEST POP POP POP POP POP SWAP1 DUP1 PUSH1 0x4 ADD DUP1 SLOAD PUSH2 0xB05 SWAP1 PUSH2 0x13D0 JUMP JUMPDEST DUP1 PUSH1 0x1F ADD PUSH1 0x20 DUP1 SWAP2 DIV MUL PUSH1 0x20 ADD PUSH1 0x40 MLOAD SWAP1 DUP2 ADD PUSH1 0x40 MSTORE DUP1 SWAP3 SWAP2 SWAP1 DUP2 DUP2 MSTORE PUSH1 0x20 ADD DUP3 DUP1 SLOAD PUSH2 0xB31 SWAP1 PUSH2 0x13D0 JUMP JUMPDEST DUP1 ISZERO PUSH2 0xB7C JUMPI DUP1 PUSH1 0x1F LT PUSH2 0xB53 JUMPI PUSH2 0x100 DUP1 DUP4 SLOAD DIV MUL DUP4 MSTORE SWAP2 PUSH1 0x20 ADD SWAP2 PUSH2 0xB7C JUMP JUMPDEST DUP3 ADD SWAP2 SWAP1 PUSH0 MSTORE PUSH1 0x20 PUSH0 KECCAK256 SWAP1 JUMPDEST DUP2 SLOAD DUP2 MSTORE SWAP1 PUSH1 0x1 ADD SWAP1 PUSH1 0x20 ADD DUP1 DUP4 GT PUSH2 0xB5F JUMPI DUP3 SWAP1 SUB PUSH1 0x1F AND DUP3 ADD SWAP2 JUMPDEST POP POP POP POP POP SWAP1 DUP1 PUSH1 0x5 ADD DUP1 SLOAD PUSH2 0xB91 SWAP1 PUSH2 0x13D0 JUMP JUMPDEST DUP1 PUSH1 0x1F ADD PUSH1 0x20 DUP1 SWAP2 DIV MUL PUSH1 0x20 ADD PUSH1 0x40 MLOAD SWAP1 DUP2 ADD PUSH1 0x40 MSTORE DUP1 SWAP3 SWAP2 SWAP1 DUP2 DUP2 MSTORE PUSH1 0x20 ADD DUP3 DUP1 SLOAD PUSH2 0xBBD SWAP1 PUSH2 0x13D0 JUMP JUMPDEST DUP1 ISZERO PUSH2 0xC08 JUMPI DUP1 PUSH1 0x1F LT PUSH2 0xBDF JUMPI PUSH2 0x100 DUP1 DUP4 SLOAD DIV MUL DUP4 MSTORE SWAP2 PUSH1 0x20 ADD SWAP2 PUSH2 0xC08 JUMP JUMPDEST DUP3 ADD SWAP2 SWAP1 PUSH0 MSTORE PUSH1 0x20 PUSH0 KECCAK256 SWAP1 JUMPDEST DUP2 SLOAD DUP2 MSTORE SWAP1 PUSH1 0x1 ADD SWAP1 PUSH1 0x20 ADD DUP1 DUP4 GT PUSH2 0xBEB JUMPI DUP3 SWAP1 SUB PUSH1 0x1F AND DUP3 ADD SWAP2 JUMPDEST POP POP POP POP POP SWAP1 DUP1 PUSH1 0x6 ADD PUSH0 SWAP1 SLOAD SWAP1 PUSH2 0x100 EXP SWAP1 DIV PUSH20 0xFFFFFFFFFFFFFFFFFFFFFFFFFFFFFFFFFFFFFFFF AND SWAP1 POP DUP9 JUMP JUMPDEST PUSH1 0x40 MLOAD DUP1 PUSH2 0x100 ADD PUSH1 0x40 MSTORE DUP1 PUSH0 DUP2 MSTORE PUSH1 0x20 ADD PUSH0 ISZERO ISZERO DUP2 MSTORE PUSH1 0x20 ADD PUSH0 ISZERO ISZERO DUP2 MSTORE PUSH1 0x20 ADD PUSH0 DUP2 MSTORE PUSH1 0x20 ADD PUSH1 0x60 DUP2 MSTORE PUSH1 0x20 ADD PUSH1 0x60 DUP2 MSTORE PUSH1 0x20 ADD PUSH1 0x60 DUP2 MSTORE PUSH1 0x20 ADD PUSH0 PUSH20 0xFFFFFFFFFFFFFFFFFFFFFFFFFFFFFFFFFFFFFFFF AND DUP2 MSTORE POP SWAP1 JUMP JUMPDEST PUSH0 PUSH1 0x40 MLOAD SWAP1 POP SWAP1 JUMP JUMPDEST PUSH0 DUP1 REVERT JUMPDEST PUSH0 DUP1 REVERT JUMPDEST PUSH0 DUP2 SWAP1 POP SWAP2 SWAP1 POP JUMP JUMPDEST PUSH2 0xCB4 DUP2 PUSH2 0xCA2 JUMP JUMPDEST DUP2 EQ PUSH2 0xCBE JUMPI PUSH0 DUP1 REVERT JUMPDEST POP JUMP JUMPDEST PUSH0 DUP2 CALLDATALOAD SWAP1 POP PUSH2 0xCCF DUP2 PUSH2 0xCAB JUMP JUMPDEST SWAP3 SWAP2 POP POP JUMP JUMPDEST PUSH0 DUP2 ISZERO ISZERO SWAP1 POP SWAP2 SWAP1 POP JUMP JUMPDEST PUSH2 0xCE9 DUP2 PUSH2 0xCD5 JUMP JUMPDEST DUP2 EQ PUSH2 0xCF3 JUMPI PUSH0 DUP1 REVERT JUMPDEST POP JUMP JUMPDEST PUSH0 DUP2 CALLDATALOAD SWAP1 POP PUSH2 0xD04 DUP2 PUSH2 0xCE0 JUMP JUMPDEST SWAP3 SWAP2 POP POP JUMP JUMPDEST PUSH0 DUP1 PUSH1 0x40 DUP4 DUP6 SUB SLT ISZERO PUSH2 0xD20 JUMPI PUSH2 0xD1F PUSH2 0xC9A JUMP JUMPDEST JUMPDEST PUSH0 PUSH2 0xD2D DUP6 DUP3 DUP7 ADD PUSH2 0xCC1 JUMP JUMPDEST SWAP3 POP POP PUSH1 0x20 PUSH2 0xD3E DUP6 DUP3 DUP7 ADD PUSH2 0xCF6 JUMP JUMPDEST SWAP2 POP POP SWAP3 POP SWAP3 SWAP1 POP JUMP JUMPDEST PUSH2 0xD51 DUP2 PUSH2 0xCD5 JUMP JUMPDEST DUP3 MSTORE POP POP JUMP JUMPDEST PUSH0 PUSH1 0x20 DUP3 ADD SWAP1 POP PUSH2 0xD6A PUSH0 DUP4 ADD DUP5 PUSH2 0xD48 JUMP JUMPDEST SWAP3 SWAP2 POP POP JUMP JUMPDEST PUSH0 PUSH1 0x20 DUP3 DUP5 SUB SLT ISZERO PUSH2 0xD85 JUMPI PUSH2 0xD84 PUSH2 0xC9A JUMP JUMPDEST JUMPDEST PUSH0 PUSH2 0xD92 DUP5 DUP3 DUP6 ADD PUSH2 0xCC1 JUMP JUMPDEST SWAP2 POP POP SWAP3 SWAP2 POP POP JUMP JUMPDEST PUSH2 0xDA4 DUP2 PUSH2 0xCA2 JUMP JUMPDEST DUP3 MSTORE POP POP JUMP JUMPDEST PUSH2 0xDB3 DUP2 PUSH2 0xCD5 JUMP JUMPDEST DUP3 MSTORE POP POP JUMP JUMPDEST PUSH0 DUP2 MLOAD SWAP1 POP SWAP2 SWAP1 POP JUMP JUMPDEST PUSH0 DUP3 DUP3 MSTORE PUSH1 0x20 DUP3 ADD SWAP1 POP SWAP3 SWAP2 POP POP JUMP JUMPDEST PUSH0 JUMPDEST DUP4 DUP2 LT ISZERO PUSH2 0xDF0 JUMPI DUP1 DUP3 ADD MLOAD DUP2 DUP5 ADD MSTORE PUSH1 0x20 DUP2 ADD SWAP1 POP PUSH2 0xDD5 JUMP JUMPDEST PUSH0 DUP5 DUP5 ADD MSTORE POP POP POP POP JUMP JUMPDEST PUSH0 PUSH1 0x1F NOT PUSH1 0x1F DUP4 ADD AND SWAP1 POP SWAP2 SWAP1 POP JUMP JUMPDEST PUSH0 PUSH2 0xE15 DUP3 PUSH2 0xDB9 JUMP JUMPDEST PUSH2 0xE1F DUP2 DUP6 PUSH2 0xDC3 JUMP JUMPDEST SWAP4 POP PUSH2 0xE2F DUP2 DUP6 PUSH1 0x20 DUP7 ADD PUSH2 0xDD3 JUMP JUMPDEST PUSH2 0xE38 DUP2 PUSH2 0xDFB JUMP JUMPDEST DUP5 ADD SWAP2 POP POP SWAP3 SWAP2 POP POP JUMP JUMPDEST PUSH0 PUSH20 0xFFFFFFFFFFFFFFFFFFFFFFFFFFFFFFFFFFFFFFFF DUP3 AND SWAP1 POP SWAP2 SWAP1 POP JUMP JUMPDEST PUSH0 PUSH2 0xE6C DUP3 PUSH2 0xE43 JUMP JUMPDEST SWAP1 POP SWAP2 SWAP1 POP JUMP JUMPDEST PUSH2 0xE7C DUP2 PUSH2 0xE62 JUMP JUMPDEST DUP3 MSTORE POP POP JUMP JUMPDEST PUSH0 PUSH2 0x100 DUP4 ADD PUSH0 DUP4 ADD MLOAD PUSH2 0xE98 PUSH0 DUP7 ADD DUP3 PUSH2 0xD9B JUMP JUMPDEST POP PUSH1 0x20 DUP4 ADD MLOAD PUSH2 0xEAB PUSH1 0x20 DUP7 ADD DUP3 PUSH2 0xDAA JUMP JUMPDEST POP PUSH1 0x40 DUP4 ADD MLOAD PUSH2 0xEBE PUSH1 0x40 DUP7 ADD DUP3 PUSH2 0xDAA JUMP JUMPDEST POP PUSH1 0x60 DUP4 ADD MLOAD PUSH2 0xED1 PUSH1 0x60 DUP7 ADD DUP3 PUSH2 0xD9B JUMP JUMPDEST POP PUSH1 0x80 DUP4 ADD MLOAD DUP5 DUP3 SUB PUSH1 0x80 DUP7 ADD MSTORE PUSH2 0xEE9 DUP3 DUP3 PUSH2 0xE0B JUMP JUMPDEST SWAP2 POP POP PUSH1 0xA0 DUP4 ADD MLOAD DUP5 DUP3 SUB PUSH1 0xA0 DUP7 ADD MSTORE PUSH2 0xF03 DUP3 DUP3 PUSH2 0xE0B JUMP JUMPDEST SWAP2 POP POP PUSH1 0xC0 DUP4 ADD MLOAD DUP5 DUP3 SUB PUSH1 0xC0 DUP7 ADD MSTORE PUSH2 0xF1D DUP3 DUP3 PUSH2 0xE0B JUMP JUMPDEST SWAP2 POP POP PUSH1 0xE0 DUP4 ADD MLOAD PUSH2 0xF32 PUSH1 0xE0 DUP7 ADD DUP3 PUSH2 0xE73 JUMP JUMPDEST POP DUP1 SWAP2 POP POP SWAP3 SWAP2 POP POP JUMP JUMPDEST PUSH0 PUSH1 0x20 DUP3 ADD SWAP1 POP DUP2 DUP2 SUB PUSH0 DUP4 ADD MSTORE PUSH2 0xF55 DUP2 DUP5 PUSH2 0xE82 JUMP JUMPDEST SWAP1 POP SWAP3 SWAP2 POP POP JUMP JUMPDEST PUSH2 0xF66 DUP2 PUSH2 0xCA2 JUMP JUMPDEST DUP3 MSTORE POP POP JUMP JUMPDEST PUSH0 PUSH1 0x20 DUP3 ADD SWAP1 POP PUSH2 0xF7F PUSH0 DUP4 ADD DUP5 PUSH2 0xF5D JUMP JUMPDEST SWAP3 SWAP2 POP POP JUMP JUMPDEST PUSH0 DUP1 PUSH1 0x40 DUP4 DUP6 SUB SLT ISZERO PUSH2 0xF9B JUMPI PUSH2 0xF9A PUSH2 0xC9A JUMP JUMPDEST JUMPDEST PUSH0 PUSH2 0xFA8 DUP6 DUP3 DUP7 ADD PUSH2 0xCC1 JUMP JUMPDEST SWAP3 POP POP PUSH1 0x20 PUSH2 0xFB9 DUP6 DUP3 DUP7 ADD PUSH2 0xCC1 JUMP JUMPDEST SWAP2 POP POP SWAP3 POP SWAP3 SWAP1 POP JUMP JUMPDEST PUSH0 DUP1 REVERT JUMPDEST PUSH0 DUP1 REVERT JUMPDEST PUSH32 0x4E487B7100000000000000000000000000000000000000000000000000000000 PUSH0 MSTORE PUSH1 0x41 PUSH1 0x4 MSTORE PUSH1 0x24 PUSH0 REVERT JUMPDEST PUSH2 0x1001 DUP3 PUSH2 0xDFB JUMP JUMPDEST DUP2 ADD DUP2 DUP2 LT PUSH8 0xFFFFFFFFFFFFFFFF DUP3 GT OR ISZERO PUSH2 0x1020 JUMPI PUSH2 0x101F PUSH2 0xFCB JUMP JUMPDEST JUMPDEST DUP1 PUSH1 0x40 MSTORE POP POP POP JUMP JUMPDEST PUSH0 PUSH2 0x1032 PUSH2 0xC91 JUMP JUMPDEST SWAP1 POP PUSH2 0x103E DUP3 DUP3 PUSH2 0xFF8 JUMP JUMPDEST SWAP2 SWAP1 POP JUMP JUMPDEST PUSH0 PUSH8 0xFFFFFFFFFFFFFFFF DUP3 GT ISZERO PUSH2 0x105D JUMPI PUSH2 0x105C PUSH2 0xFCB JUMP JUMPDEST JUMPDEST PUSH2 0x1066 DUP3 PUSH2 0xDFB JUMP JUMPDEST SWAP1 POP PUSH1 0x20 DUP2 ADD SWAP1 POP SWAP2 SWAP1 POP JUMP JUMPDEST DUP3 DUP2 DUP4 CALLDATACOPY PUSH0 DUP4 DUP4 ADD MSTORE POP POP POP JUMP JUMPDEST PUSH0 PUSH2 0x1093 PUSH2 0x108E DUP5 PUSH2 0x1043 JUMP JUMPDEST PUSH2 0x1029 JUMP JUMPDEST SWAP1 POP DUP3 DUP2 MSTORE PUSH1 0x20 DUP2 ADD DUP5 DUP5 DUP5 ADD GT ISZERO PUSH2 0x10AF JUMPI PUSH2 0x10AE PUSH2 0xFC7 JUMP JUMPDEST JUMPDEST PUSH2 0x10BA DUP5 DUP3 DUP6 PUSH2 0x1073 JUMP JUMPDEST POP SWAP4 SWAP3 POP POP POP JUMP JUMPDEST PUSH0 DUP3 PUSH1 0x1F DUP4 ADD SLT PUSH2 0x10D6 JUMPI PUSH2 0x10D5 PUSH2 0xFC3 JUMP JUMPDEST JUMPDEST DUP2 CALLDATALOAD PUSH2 0x10E6 DUP5 DUP3 PUSH1 0x20 DUP7 ADD PUSH2 0x1081 JUMP JUMPDEST SWAP2 POP POP SWAP3 SWAP2 POP POP JUMP JUMPDEST PUSH0 DUP1 PUSH1 0x40 DUP4 DUP6 SUB SLT ISZERO PUSH2 0x1105 JUMPI PUSH2 0x1104 PUSH2 0xC9A JUMP JUMPDEST JUMPDEST PUSH0 PUSH2 0x1112 DUP6 DUP3 DUP7 ADD PUSH2 0xCC1 JUMP JUMPDEST SWAP3 POP POP PUSH1 0x20 DUP4 ADD CALLDATALOAD PUSH8 0xFFFFFFFFFFFFFFFF DUP2 GT ISZERO PUSH2 0x1133 JUMPI PUSH2 0x1132 PUSH2 0xC9E JUMP JUMPDEST JUMPDEST PUSH2 0x113F DUP6 DUP3 DUP7 ADD PUSH2 0x10C2 JUMP JUMPDEST SWAP2 POP POP SWAP3 POP SWAP3 SWAP1 POP JUMP JUMPDEST PUSH2 0x1152 DUP2 PUSH2 0xE62 JUMP JUMPDEST DUP3 MSTORE POP POP JUMP JUMPDEST PUSH0 PUSH1 0x20 DUP3 ADD SWAP1 POP PUSH2 0x116B PUSH0 DUP4 ADD DUP5 PUSH2 0x1149 JUMP JUMPDEST SWAP3 SWAP2 POP POP JUMP JUMPDEST PUSH0 DUP1 PUSH0 DUP1 PUSH0 PUSH1 0xA0 DUP7 DUP9 SUB SLT ISZERO PUSH2 0x118A JUMPI PUSH2 0x1189 PUSH2 0xC9A JUMP JUMPDEST JUMPDEST PUSH0 PUSH2 0x1197 DUP9 DUP3 DUP10 ADD PUSH2 0xCF6 JUMP JUMPDEST SWAP6 POP POP PUSH1 0x20 PUSH2 0x11A8 DUP9 DUP3 DUP10 ADD PUSH2 0xCC1 JUMP JUMPDEST SWAP5 POP POP PUSH1 0x40 DUP7 ADD CALLDATALOAD PUSH8 0xFFFFFFFFFFFFFFFF DUP2 GT ISZERO PUSH2 0x11C9 JUMPI PUSH2 0x11C8 PUSH2 0xC9E JUMP JUMPDEST JUMPDEST PUSH2 0x11D5 DUP9 DUP3 DUP10 ADD PUSH2 0x10C2 JUMP JUMPDEST SWAP4 POP POP PUSH1 0x60 DUP7 ADD CALLDATALOAD PUSH8 0xFFFFFFFFFFFFFFFF DUP2 GT ISZERO PUSH2 0x11F6 JUMPI PUSH2 0x11F5 PUSH2 0xC9E JUMP JUMPDEST JUMPDEST PUSH2 0x1202 DUP9 DUP3 DUP10 ADD PUSH2 0x10C2 JUMP JUMPDEST SWAP3 POP POP PUSH1 0x80 DUP7 ADD CALLDATALOAD PUSH8 0xFFFFFFFFFFFFFFFF DUP2 GT ISZERO PUSH2 0x1223 JUMPI PUSH2 0x1222 PUSH2 0xC9E JUMP JUMPDEST JUMPDEST PUSH2 0x122F DUP9 DUP3 DUP10 ADD PUSH2 0x10C2 JUMP JUMPDEST SWAP2 POP POP SWAP3 SWAP6 POP SWAP3 SWAP6 SWAP1 SWAP4 POP JUMP JUMPDEST PUSH0 DUP3 DUP3 MSTORE PUSH1 0x20 DUP3 ADD SWAP1 POP SWAP3 SWAP2 POP POP JUMP JUMPDEST PUSH0 PUSH2 0x1256 DUP3 PUSH2 0xDB9 JUMP JUMPDEST PUSH2 0x1260 DUP2 DUP6 PUSH2 0x123C JUMP JUMPDEST SWAP4 POP PUSH2 0x1270 DUP2 DUP6 PUSH1 0x20 DUP7 ADD PUSH2 0xDD3 JUMP JUMPDEST PUSH2 0x1279 DUP2 PUSH2 0xDFB JUMP JUMPDEST DUP5 ADD SWAP2 POP POP SWAP3 SWAP2 POP POP JUMP JUMPDEST PUSH0 PUSH2 0x100 DUP3 ADD SWAP1 POP PUSH2 0x1298 PUSH0 DUP4 ADD DUP12 PUSH2 0xF5D JUMP JUMPDEST PUSH2 0x12A5 PUSH1 0x20 DUP4 ADD DUP11 PUSH2 0xD48 JUMP JUMPDEST PUSH2 0x12B2 PUSH1 0x40 DUP4 ADD DUP10 PUSH2 0xD48 JUMP JUMPDEST PUSH2 0x12BF PUSH1 0x60 DUP4 ADD DUP9 PUSH2 0xF5D JUMP JUMPDEST DUP2 DUP2 SUB PUSH1 0x80 DUP4 ADD MSTORE PUSH2 0x12D1 DUP2 DUP8 PUSH2 0x124C JUMP JUMPDEST SWAP1 POP DUP2 DUP2 SUB PUSH1 0xA0 DUP4 ADD MSTORE PUSH2 0x12E5 DUP2 DUP7 PUSH2 0x124C JUMP JUMPDEST SWAP1 POP DUP2 DUP2 SUB PUSH1 0xC0 DUP4 ADD MSTORE PUSH2 0x12F9 DUP2 DUP6 PUSH2 0x124C JUMP JUMPDEST SWAP1 POP PUSH2 0x1308 PUSH1 0xE0 DUP4 ADD DUP5 PUSH2 0x1149 JUMP JUMPDEST SWAP10 SWAP9 POP POP POP POP POP POP POP POP POP JUMP JUMPDEST PUSH32 0x796F75206172656E277420746865206F776E6572206F66207468652070726F70 PUSH0 DUP3 ADD MSTORE PUSH32 0x6572747900000000000000000000000000000000000000000000000000000000 PUSH1 0x20 DUP3 ADD MSTORE POP JUMP JUMPDEST PUSH0 PUSH2 0x136F PUSH1 0x24 DUP4 PUSH2 0x123C JUMP JUMPDEST SWAP2 POP PUSH2 0x137A DUP3 PUSH2 0x1315 JUMP JUMPDEST PUSH1 0x40 DUP3 ADD SWAP1 POP SWAP2 SWAP1 POP JUMP JUMPDEST PUSH0 PUSH1 0x20 DUP3 ADD SWAP1 POP DUP2 DUP2 SUB PUSH0 DUP4 ADD MSTORE PUSH2 0x139C DUP2 PUSH2 0x1363 JUMP JUMPDEST SWAP1 POP SWAP2 SWAP1 POP JUMP JUMPDEST PUSH32 0x4E487B7100000000000000000000000000000000000000000000000000000000 PUSH0 MSTORE PUSH1 0x22 PUSH1 0x4 MSTORE PUSH1 0x24 PUSH0 REVERT JUMPDEST PUSH0 PUSH1 0x2 DUP3 DIV SWAP1 POP PUSH1 0x1 DUP3 AND DUP1 PUSH2 0x13E7 JUMPI PUSH1 0x7F DUP3 AND SWAP2 POP JUMPDEST PUSH1 0x20 DUP3 LT DUP2 SUB PUSH2 0x13FA JUMPI PUSH2 0x13F9 PUSH2 0x13A3 JUMP JUMPDEST JUMPDEST POP SWAP2 SWAP1 POP JUMP JUMPDEST PUSH0 DUP2 SWAP1 POP DUP2 PUSH0 MSTORE PUSH1 0x20 PUSH0 KECCAK256 SWAP1 POP SWAP2 SWAP1 POP JUMP JUMPDEST PUSH0 PUSH1 0x20 PUSH1 0x1F DUP4 ADD DIV SWAP1 POP SWAP2 SWAP1 POP JUMP JUMPDEST PUSH0 DUP3 DUP3 SHL SWAP1 POP SWAP3 SWAP2 POP POP JUMP JUMPDEST PUSH0 PUSH1 0x8 DUP4 MUL PUSH2 0x145C PUSH32 0xFFFFFFFFFFFFFFFFFFFFFFFFFFFFFFFFFFFFFFFFFFFFFFFFFFFFFFFFFFFFFFFF DUP3 PUSH2 0x1421 JUMP JUMPDEST PUSH2 0x1466 DUP7 DUP4 PUSH2 0x1421 JUMP JUMPDEST SWAP6 POP DUP1 NOT DUP5 AND SWAP4 POP DUP1 DUP7 AND DUP5 OR SWAP3 POP POP POP SWAP4 SWAP3 POP POP POP JUMP JUMPDEST PUSH0 DUP2 SWAP1 POP SWAP2 SWAP1 POP JUMP JUMPDEST PUSH0 PUSH2 0x14A1 PUSH2 0x149C PUSH2 0x1497 DUP5 PUSH2 0xCA2 JUMP JUMPDEST PUSH2 0x147E JUMP JUMPDEST PUSH2 0xCA2 JUMP JUMPDEST SWAP1 POP SWAP2 SWAP1 POP JUMP JUMPDEST PUSH0 DUP2 SWAP1 POP SWAP2 SWAP1 POP JUMP JUMPDEST PUSH2 0x14BA DUP4 PUSH2 0x1487 JUMP JUMPDEST PUSH2 0x14CE PUSH2 0x14C6 DUP3 PUSH2 0x14A8 JUMP JUMPDEST DUP5 DUP5 SLOAD PUSH2 0x142D JUMP JUMPDEST DUP3 SSTORE POP POP POP POP JUMP JUMPDEST PUSH0 SWAP1 JUMP JUMPDEST PUSH2 0x14E2 PUSH2 0x14D6 JUMP JUMPDEST PUSH2 0x14ED DUP2 DUP5 DUP5 PUSH2 0x14B1 JUMP JUMPDEST POP POP POP JUMP JUMPDEST JUMPDEST DUP2 DUP2 LT ISZERO PUSH2 0x1510 JUMPI PUSH2 0x1505 PUSH0 DUP3 PUSH2 0x14DA JUMP JUMPDEST PUSH1 0x1 DUP2 ADD SWAP1 POP PUSH2 0x14F3 JUMP JUMPDEST POP POP JUMP JUMPDEST PUSH1 0x1F DUP3 GT ISZERO PUSH2 0x1555 JUMPI PUSH2 0x1526 DUP2 PUSH2 0x1400 JUMP JUMPDEST PUSH2 0x152F DUP5 PUSH2 0x1412 JUMP JUMPDEST DUP2 ADD PUSH1 0x20 DUP6 LT ISZERO PUSH2 0x153E JUMPI DUP2 SWAP1 POP JUMPDEST PUSH2 0x1552 PUSH2 0x154A DUP6 PUSH2 0x1412 JUMP JUMPDEST DUP4 ADD DUP3 PUSH2 0x14F2 JUMP JUMPDEST POP POP JUMPDEST POP POP POP JUMP JUMPDEST PUSH0 DUP3 DUP3 SHR SWAP1 POP SWAP3 SWAP2 POP POP JUMP JUMPDEST PUSH0 PUSH2 0x1575 PUSH0 NOT DUP5 PUSH1 0x8 MUL PUSH2 0x155A JUMP JUMPDEST NOT DUP1 DUP4 AND SWAP2 POP POP SWAP3 SWAP2 POP POP JUMP JUMPDEST PUSH0 PUSH2 0x158D DUP4 DUP4 PUSH2 0x1566 JUMP JUMPDEST SWAP2 POP DUP3 PUSH1 0x2 MUL DUP3 OR SWAP1 POP SWAP3 SWAP2 POP POP JUMP JUMPDEST PUSH2 0x15A6 DUP3 PUSH2 0xDB9 JUMP JUMPDEST PUSH8 0xFFFFFFFFFFFFFFFF DUP2 GT ISZERO PUSH2 0x15BF JUMPI PUSH2 0x15BE PUSH2 0xFCB JUMP JUMPDEST JUMPDEST PUSH2 0x15C9 DUP3 SLOAD PUSH2 0x13D0 JUMP JUMPDEST PUSH2 0x15D4 DUP3 DUP3 DUP6 PUSH2 0x1514 JUMP JUMPDEST PUSH0 PUSH1 0x20 SWAP1 POP PUSH1 0x1F DUP4 GT PUSH1 0x1 DUP2 EQ PUSH2 0x1605 JUMPI PUSH0 DUP5 ISZERO PUSH2 0x15F3 JUMPI DUP3 DUP8 ADD MLOAD SWAP1 POP JUMPDEST PUSH2 0x15FD DUP6 DUP3 PUSH2 0x1582 JUMP JUMPDEST DUP7 SSTORE POP PUSH2 0x1664 JUMP JUMPDEST PUSH1 0x1F NOT DUP5 AND PUSH2 0x1613 DUP7 PUSH2 0x1400 JUMP JUMPDEST PUSH0 JUMPDEST DUP3 DUP2 LT ISZERO PUSH2 0x163A JUMPI DUP5 DUP10 ADD MLOAD DUP3 SSTORE PUSH1 0x1 DUP3 ADD SWAP2 POP PUSH1 0x20 DUP6 ADD SWAP5 POP PUSH1 0x20 DUP2 ADD SWAP1 POP PUSH2 0x1615 JUMP JUMPDEST DUP7 DUP4 LT ISZERO PUSH2 0x1657 JUMPI DUP5 DUP10 ADD MLOAD PUSH2 0x1653 PUSH1 0x1F DUP10 AND DUP3 PUSH2 0x1566 JUMP JUMPDEST DUP4 SSTORE POP JUMPDEST PUSH1 0x1 PUSH1 0x2 DUP9 MUL ADD DUP9 SSTORE POP POP POP JUMPDEST POP POP POP POP POP POP JUMP JUMPDEST PUSH32 0x4E487B7100000000000000000000000000000000000000000000000000000000 PUSH0 MSTORE PUSH1 0x11 PUSH1 0x4 MSTORE PUSH1 0x24 PUSH0 REVERT JUMPDEST PUSH0 PUSH2 0x16A3 DUP3 PUSH2 0xCA2 JUMP JUMPDEST SWAP2 POP PUSH32 0xFFFFFFFFFFFFFFFFFFFFFFFFFFFFFFFFFFFFFFFFFFFFFFFFFFFFFFFFFFFFFFFF DUP3 SUB PUSH2 0x16D5 JUMPI PUSH2 0x16D4 PUSH2 0x166C JUMP JUMPDEST JUMPDEST PUSH1 0x1 DUP3 ADD SWAP1 POP SWAP2 SWAP1 POP JUMP JUMPDEST PUSH0 PUSH1 0xE0 DUP3 ADD SWAP1 POP PUSH2 0x16F3 PUSH0 DUP4 ADD DUP11 PUSH2 0xF5D JUMP JUMPDEST PUSH2 0x1700 PUSH1 0x20 DUP4 ADD DUP10 PUSH2 0xD48 JUMP JUMPDEST PUSH2 0x170D PUSH1 0x40 DUP4 ADD DUP9 PUSH2 0xF5D JUMP JUMPDEST DUP2 DUP2 SUB PUSH1 0x60 DUP4 ADD MSTORE PUSH2 0x171F DUP2 DUP8 PUSH2 0x124C JUMP JUMPDEST SWAP1 POP DUP2 DUP2 SUB PUSH1 0x80 DUP4 ADD MSTORE PUSH2 0x1733 DUP2 DUP7 PUSH2 0x124C JUMP JUMPDEST SWAP1 POP DUP2 DUP2 SUB PUSH1 0xA0 DUP4 ADD MSTORE PUSH2 0x1747 DUP2 DUP6 PUSH2 0x124C JUMP JUMPDEST SWAP1 POP PUSH2 0x1756 PUSH1 0xC0 DUP4 ADD DUP5 PUSH2 0x1149 JUMP JUMPDEST SWAP9 SWAP8 POP POP POP POP POP POP POP POP JUMP INVALID LOG2 PUSH5 0x6970667358 0x22 SLT KECCAK256 PUSH18 0x508FC3E2F9DC1C72EC8652C96CBF90D4AC19 PUSH20 0x97A1D84E807AB570C5A7DAC164736F6C63430008 AND STOP CALLER "
				},
				"gasEstimates": {
					"creation": {
						"codeDepositCost": "1208000",
						"executionCost": "1252",
						"totalCost": "1209252"
					},
					"external": {
						"addProperty(bool,uint256,string,string,string)": "infinite",
						"getProperty(uint256)": "infinite",
						"getPropertyOwner(uint256)": "2902",
						"properties(uint256)": "infinite",
						"propertyCount()": "2470",
						"updateAvailability(uint256,bool)": "infinite",
						"updateMonthlyRent(uint256,string)": "infinite",
						"updateMonthlyRent(uint256,uint256)": "infinite",
						"updateWithdrawal(uint256,bool)": "infinite"
					}
				},
				"methodIdentifiers": {
					"addProperty(bool,uint256,string,string,string)": "e61439d8",
					"getProperty(uint256)": "32665ffb",
					"getPropertyOwner(uint256)": "e34fc531",
					"properties(uint256)": "f7b10808",
					"propertyCount()": "c361a335",
					"updateAvailability(uint256,bool)": "2864e4a9",
					"updateMonthlyRent(uint256,string)": "d426de3b",
					"updateMonthlyRent(uint256,uint256)": "d0921936",
					"updateWithdrawal(uint256,bool)": "dbda146d"
				}
			},
			"storageLayout": {
				"storage": [
					{
						"astId": 39,
						"contract": "propertyManagement.sol:propertyManagement",
						"label": "properties",
						"offset": 0,
						"slot": "0",
						"type": "t_mapping(t_uint256,t_struct(Property)34_storage)"
					},
					{
						"astId": 41,
						"contract": "propertyManagement.sol:propertyManagement",
						"label": "propertyCount",
						"offset": 0,
						"slot": "1",
						"type": "t_uint256"
					}
				],
				"types": {
					"t_address": {
						"encoding": "inplace",
						"label": "address",
						"numberOfBytes": "20"
					},
					"t_bool": {
						"encoding": "inplace",
						"label": "bool",
						"numberOfBytes": "1"
					},
					"t_mapping(t_uint256,t_struct(Property)34_storage)": {
						"encoding": "mapping",
						"key": "t_uint256",
						"label": "mapping(uint256 => struct propertyManagement.Property)",
						"numberOfBytes": "32",
						"value": "t_struct(Property)34_storage"
					},
					"t_string_storage": {
						"encoding": "bytes",
						"label": "string",
						"numberOfBytes": "32"
					},
					"t_struct(Property)34_storage": {
						"encoding": "inplace",
						"label": "struct propertyManagement.Property",
						"members": [
							{
								"astId": 19,
								"contract": "propertyManagement.sol:propertyManagement",
								"label": "propertyId",
								"offset": 0,
								"slot": "0",
								"type": "t_uint256"
							},
							{
								"astId": 21,
								"contract": "propertyManagement.sol:propertyManagement",
								"label": "isAvailable",
								"offset": 0,
								"slot": "1",
								"type": "t_bool"
							},
							{
								"astId": 23,
								"contract": "propertyManagement.sol:propertyManagement",
								"label": "isWithdraw",
								"offset": 1,
								"slot": "1",
								"type": "t_bool"
							},
							{
								"astId": 25,
								"contract": "propertyManagement.sol:propertyManagement",
								"label": "monthlyRent",
								"offset": 0,
								"slot": "2",
								"type": "t_uint256"
							},
							{
								"astId": 27,
								"contract": "propertyManagement.sol:propertyManagement",
								"label": "propertyType",
								"offset": 0,
								"slot": "3",
								"type": "t_string_storage"
							},
							{
								"astId": 29,
								"contract": "propertyManagement.sol:propertyManagement",
								"label": "description",
								"offset": 0,
								"slot": "4",
								"type": "t_string_storage"
							},
							{
								"astId": 31,
								"contract": "propertyManagement.sol:propertyManagement",
								"label": "location",
								"offset": 0,
								"slot": "5",
								"type": "t_string_storage"
							},
							{
								"astId": 33,
								"contract": "propertyManagement.sol:propertyManagement",
								"label": "owner",
								"offset": 0,
								"slot": "6",
								"type": "t_address"
							}
						],
						"numberOfBytes": "224"
					},
					"t_uint256": {
						"encoding": "inplace",
						"label": "uint256",
						"numberOfBytes": "32"
					}
				}
			},
			"userdoc": {
				"kind": "user",
				"methods": {},
				"version": 1
			}
		}
	}
}