{
	"userInformation.sol": {
		"userInformation": {
			"abi": [
				{
					"inputs": [
						{
							"internalType": "address",
							"name": "_add",
							"type": "address"
						}
					],
					"name": "_addBlacklisted",
					"outputs": [],
					"stateMutability": "nonpayable",
					"type": "function"
				},
				{
					"inputs": [
						{
							"internalType": "address",
							"name": "_add",
							"type": "address"
						}
					],
					"name": "_isBlacklisted",
					"outputs": [
						{
							"internalType": "bool",
							"name": "",
							"type": "bool"
						}
					],
					"stateMutability": "view",
					"type": "function"
				},
				{
					"inputs": [
						{
							"internalType": "address",
							"name": "_user",
							"type": "address"
						},
						{
							"internalType": "uint256",
							"name": "_currentScore",
							"type": "uint256"
						},
						{
							"internalType": "uint256",
							"name": "_dayRent",
							"type": "uint256"
						}
					],
					"name": "addUserReputation",
					"outputs": [
						{
							"internalType": "bool",
							"name": "",
							"type": "bool"
						}
					],
					"stateMutability": "nonpayable",
					"type": "function"
				},
				{
					"inputs": [
						{
							"internalType": "uint256",
							"name": "currentScore",
							"type": "uint256"
						},
						{
							"internalType": "uint256",
							"name": "daysRented",
							"type": "uint256"
						}
					],
					"name": "calculateReputationIncrease",
					"outputs": [
						{
							"internalType": "uint256",
							"name": "",
							"type": "uint256"
						}
					],
					"stateMutability": "pure",
					"type": "function"
				},
				{
					"inputs": [
						{
							"internalType": "address",
							"name": "_user",
							"type": "address"
						},
						{
							"internalType": "uint256",
							"name": "_adjustment",
							"type": "uint256"
						}
					],
					"name": "deputeUserReputation",
					"outputs": [
						{
							"internalType": "bool",
							"name": "",
							"type": "bool"
						}
					],
					"stateMutability": "nonpayable",
					"type": "function"
				},
				{
					"inputs": [
						{
							"internalType": "address",
							"name": "_add",
							"type": "address"
						}
					],
					"name": "getUserInfo",
					"outputs": [
						{
							"components": [
								{
									"internalType": "string",
									"name": "idHash",
									"type": "string"
								},
								{
									"internalType": "address",
									"name": "wallet",
									"type": "address"
								},
								{
									"internalType": "uint256",
									"name": "reputation",
									"type": "uint256"
								},
								{
									"internalType": "string",
									"name": "number",
									"type": "string"
								},
								{
									"internalType": "bool",
									"name": "isBound",
									"type": "bool"
								}
							],
							"internalType": "struct IUserInformation.UserInfo",
							"name": "",
							"type": "tuple"
						}
					],
					"stateMutability": "view",
					"type": "function"
				},
				{
					"inputs": [
						{
							"internalType": "address",
							"name": "_add",
							"type": "address"
						}
					],
					"name": "getUserReputation",
					"outputs": [
						{
							"internalType": "uint256",
							"name": "",
							"type": "uint256"
						}
					],
					"stateMutability": "view",
					"type": "function"
				},
				{
					"inputs": [
						{
							"internalType": "address",
							"name": "_add",
							"type": "address"
						}
					],
					"name": "isAddressBound",
					"outputs": [
						{
							"internalType": "bool",
							"name": "",
							"type": "bool"
						}
					],
					"stateMutability": "view",
					"type": "function"
				},
				{
					"inputs": [
						{
							"internalType": "uint256",
							"name": "_grade",
							"type": "uint256"
						}
					],
					"name": "setReputationWhiteUser",
					"outputs": [
						{
							"internalType": "bool",
							"name": "",
							"type": "bool"
						}
					],
					"stateMutability": "nonpayable",
					"type": "function"
				},
				{
					"inputs": [
						{
							"internalType": "string",
							"name": "_id",
							"type": "string"
						},
						{
							"internalType": "string",
							"name": "_number",
							"type": "string"
						}
					],
					"name": "verify",
					"outputs": [
						{
							"internalType": "bool",
							"name": "",
							"type": "bool"
						}
					],
					"stateMutability": "nonpayable",
					"type": "function"
				}
			],
			"devdoc": {
				"kind": "dev",
				"methods": {},
				"version": 1
			},
			"evm": {
				"assembly": "    /* \"userInformation.sol\":483:6054  contract userInformation is IUserInformation{... */\n  mstore(0x40, 0x80)\n  callvalue\n  dup1\n  iszero\n  tag_1\n  jumpi\n  0x00\n  dup1\n  revert\ntag_1:\n  pop\n  dataSize(sub_0)\n  dup1\n  dataOffset(sub_0)\n  0x00\n  codecopy\n  0x00\n  return\nstop\n\nsub_0: assembly {\n        /* \"userInformation.sol\":483:6054  contract userInformation is IUserInformation{... */\n      mstore(0x40, 0x80)\n      callvalue\n      dup1\n      iszero\n      tag_1\n      jumpi\n      0x00\n      dup1\n      revert\n    tag_1:\n      pop\n      jumpi(tag_2, lt(calldatasize, 0x04))\n      shr(0xe0, calldataload(0x00))\n      dup1\n      0x9deb17f5\n      gt\n      tag_13\n      jumpi\n      dup1\n      0x9deb17f5\n      eq\n      tag_8\n      jumpi\n      dup1\n      0xad7cfa57\n      eq\n      tag_9\n      jumpi\n      dup1\n      0xbaccbfdb\n      eq\n      tag_10\n      jumpi\n      dup1\n      0xcf093926\n      eq\n      tag_11\n      jumpi\n      dup1\n      0xed0d19b7\n      eq\n      tag_12\n      jumpi\n      jump(tag_2)\n    tag_13:\n      dup1\n      0x1cdd3be3\n      eq\n      tag_3\n      jumpi\n      dup1\n      0x3ad87fa1\n      eq\n      tag_4\n      jumpi\n      dup1\n      0x4cfcf646\n      eq\n      tag_5\n      jumpi\n      dup1\n      0x5c0e5f88\n      eq\n      tag_6\n      jumpi\n      dup1\n      0x6386c1c7\n      eq\n      tag_7\n      jumpi\n    tag_2:\n      0x00\n      dup1\n      revert\n        /* \"userInformation.sol\":3193:3337  function _isBlacklisted(... */\n    tag_3:\n      tag_14\n      0x04\n      dup1\n      calldatasize\n      sub\n      dup2\n      add\n      swap1\n      tag_15\n      swap2\n      swap1\n      tag_16\n      jump\t// in\n    tag_15:\n      tag_17\n      jump\t// in\n    tag_14:\n      mload(0x40)\n      tag_18\n      swap2\n      swap1\n      tag_19\n      jump\t// in\n    tag_18:\n      mload(0x40)\n      dup1\n      swap2\n      sub\n      swap1\n      return\n        /* \"userInformation.sol\":2322:2535  function _addBlacklisted(... */\n    tag_4:\n      tag_20\n      0x04\n      dup1\n      calldatasize\n      sub\n      dup2\n      add\n      swap1\n      tag_21\n      swap2\n      swap1\n      tag_16\n      jump\t// in\n    tag_21:\n      tag_22\n      jump\t// in\n    tag_20:\n      stop\n        /* \"userInformation.sol\":3888:4138  function isAddressBound(... */\n    tag_5:\n      tag_23\n      0x04\n      dup1\n      calldatasize\n      sub\n      dup2\n      add\n      swap1\n      tag_24\n      swap2\n      swap1\n      tag_16\n      jump\t// in\n    tag_24:\n      tag_25\n      jump\t// in\n    tag_23:\n      mload(0x40)\n      tag_26\n      swap2\n      swap1\n      tag_19\n      jump\t// in\n    tag_26:\n      mload(0x40)\n      dup1\n      swap2\n      sub\n      swap1\n      return\n        /* \"userInformation.sol\":2576:2872  function addUserReputation(... */\n    tag_6:\n      tag_27\n      0x04\n      dup1\n      calldatasize\n      sub\n      dup2\n      add\n      swap1\n      tag_28\n      swap2\n      swap1\n      tag_29\n      jump\t// in\n    tag_28:\n      tag_30\n      jump\t// in\n    tag_27:\n      mload(0x40)\n      tag_31\n      swap2\n      swap1\n      tag_19\n      jump\t// in\n    tag_31:\n      mload(0x40)\n      dup1\n      swap2\n      sub\n      swap1\n      return\n        /* \"userInformation.sol\":3381:3584  function getUserInfo(... */\n    tag_7:\n      tag_32\n      0x04\n      dup1\n      calldatasize\n      sub\n      dup2\n      add\n      swap1\n      tag_33\n      swap2\n      swap1\n      tag_16\n      jump\t// in\n    tag_33:\n      tag_34\n      jump\t// in\n    tag_32:\n      mload(0x40)\n      tag_35\n      swap2\n      swap1\n      tag_36\n      jump\t// in\n    tag_35:\n      mload(0x40)\n      dup1\n      swap2\n      sub\n      swap1\n      return\n        /* \"userInformation.sol\":1368:2237  function verify(... */\n    tag_8:\n      tag_37\n      0x04\n      dup1\n      calldatasize\n      sub\n      dup2\n      add\n      swap1\n      tag_38\n      swap2\n      swap1\n      tag_39\n      jump\t// in\n    tag_38:\n      tag_40\n      jump\t// in\n    tag_37:\n      mload(0x40)\n      tag_41\n      swap2\n      swap1\n      tag_19\n      jump\t// in\n    tag_41:\n      mload(0x40)\n      dup1\n      swap2\n      sub\n      swap1\n      return\n        /* \"userInformation.sol\":4529:5225  function calculateReputationIncrease(... */\n    tag_9:\n      tag_42\n      0x04\n      dup1\n      calldatasize\n      sub\n      dup2\n      add\n      swap1\n      tag_43\n      swap2\n      swap1\n      tag_44\n      jump\t// in\n    tag_43:\n      tag_45\n      jump\t// in\n    tag_42:\n      mload(0x40)\n      tag_46\n      swap2\n      swap1\n      tag_47\n      jump\t// in\n    tag_46:\n      mload(0x40)\n      dup1\n      swap2\n      sub\n      swap1\n      return\n        /* \"userInformation.sol\":3627:3838  function getUserReputation(... */\n    tag_10:\n      tag_48\n      0x04\n      dup1\n      calldatasize\n      sub\n      dup2\n      add\n      swap1\n      tag_49\n      swap2\n      swap1\n      tag_16\n      jump\t// in\n    tag_49:\n      tag_50\n      jump\t// in\n    tag_48:\n      mload(0x40)\n      tag_51\n      swap2\n      swap1\n      tag_47\n      jump\t// in\n    tag_51:\n      mload(0x40)\n      dup1\n      swap2\n      sub\n      swap1\n      return\n        /* \"userInformation.sol\":2913:3104  function deputeUserReputation(... */\n    tag_11:\n      tag_52\n      0x04\n      dup1\n      calldatasize\n      sub\n      dup2\n      add\n      swap1\n      tag_53\n      swap2\n      swap1\n      tag_54\n      jump\t// in\n    tag_53:\n      tag_55\n      jump\t// in\n    tag_52:\n      mload(0x40)\n      tag_56\n      swap2\n      swap1\n      tag_19\n      jump\t// in\n    tag_56:\n      mload(0x40)\n      dup1\n      swap2\n      sub\n      swap1\n      return\n        /* \"userInformation.sol\":1071:1330  function setReputationWhiteUser(... */\n    tag_12:\n      tag_57\n      0x04\n      dup1\n      calldatasize\n      sub\n      dup2\n      add\n      swap1\n      tag_58\n      swap2\n      swap1\n      tag_59\n      jump\t// in\n    tag_58:\n      tag_60\n      jump\t// in\n    tag_57:\n      mload(0x40)\n      tag_61\n      swap2\n      swap1\n      tag_19\n      jump\t// in\n    tag_61:\n      mload(0x40)\n      dup1\n      swap2\n      sub\n      swap1\n      return\n        /* \"userInformation.sol\":3193:3337  function _isBlacklisted(... */\n    tag_17:\n        /* \"userInformation.sol\":3269:3273  bool */\n      0x00\n        /* \"userInformation.sol\":3292:3305  isBlacklisted */\n      dup1\n        /* \"userInformation.sol\":3306:3315  userInfos */\n      0x01\n        /* \"userInformation.sol\":3306:3321  userInfos[_add] */\n      0x00\n        /* \"userInformation.sol\":3316:3320  _add */\n      dup5\n        /* \"userInformation.sol\":3306:3321  userInfos[_add] */\n      0xffffffffffffffffffffffffffffffffffffffff\n      and\n      0xffffffffffffffffffffffffffffffffffffffff\n      and\n      dup2\n      mstore\n      0x20\n      add\n      swap1\n      dup2\n      mstore\n      0x20\n      add\n      0x00\n      keccak256\n        /* \"userInformation.sol\":3306:3328  userInfos[_add].idHash */\n      0x00\n      add\n        /* \"userInformation.sol\":3292:3329  isBlacklisted[userInfos[_add].idHash] */\n      mload(0x40)\n      tag_63\n      swap2\n      swap1\n      tag_64\n      jump\t// in\n    tag_63:\n      swap1\n      dup2\n      mstore\n      0x20\n      add\n      mload(0x40)\n      dup1\n      swap2\n      sub\n      swap1\n      keccak256\n      0x00\n      swap1\n      sload\n      swap1\n      0x0100\n      exp\n      swap1\n      div\n      0xff\n      and\n        /* \"userInformation.sol\":3285:3329  return isBlacklisted[userInfos[_add].idHash] */\n      swap1\n      pop\n        /* \"userInformation.sol\":3193:3337  function _isBlacklisted(... */\n      swap2\n      swap1\n      pop\n      jump\t// out\n        /* \"userInformation.sol\":2322:2535  function _addBlacklisted(... */\n    tag_22:\n        /* \"userInformation.sol\":2398:2418  isAddressBound(_add) */\n      tag_66\n        /* \"userInformation.sol\":2413:2417  _add */\n      dup2\n        /* \"userInformation.sol\":2398:2412  isAddressBound */\n      tag_25\n        /* \"userInformation.sol\":2398:2418  isAddressBound(_add) */\n      jump\t// in\n    tag_66:\n        /* \"userInformation.sol\":2395:2528  if(isAddressBound(_add)){... */\n      iszero\n      tag_67\n      jumpi\n        /* \"userInformation.sol\":2434:2451  string memory _id */\n      0x00\n        /* \"userInformation.sol\":2454:2463  userInfos */\n      0x01\n        /* \"userInformation.sol\":2454:2469  userInfos[_add] */\n      0x00\n        /* \"userInformation.sol\":2464:2468  _add */\n      dup4\n        /* \"userInformation.sol\":2454:2469  userInfos[_add] */\n      0xffffffffffffffffffffffffffffffffffffffff\n      and\n      0xffffffffffffffffffffffffffffffffffffffff\n      and\n      dup2\n      mstore\n      0x20\n      add\n      swap1\n      dup2\n      mstore\n      0x20\n      add\n      0x00\n      keccak256\n        /* \"userInformation.sol\":2454:2476  userInfos[_add].idHash */\n      0x00\n      add\n        /* \"userInformation.sol\":2434:2476  string memory _id = userInfos[_add].idHash */\n      dup1\n      sload\n      tag_68\n      swap1\n      tag_69\n      jump\t// in\n    tag_68:\n      dup1\n      0x1f\n      add\n      0x20\n      dup1\n      swap2\n      div\n      mul\n      0x20\n      add\n      mload(0x40)\n      swap1\n      dup2\n      add\n      0x40\n      mstore\n      dup1\n      swap3\n      swap2\n      swap1\n      dup2\n      dup2\n      mstore\n      0x20\n      add\n      dup3\n      dup1\n      sload\n      tag_70\n      swap1\n      tag_69\n      jump\t// in\n    tag_70:\n      dup1\n      iszero\n      tag_71\n      jumpi\n      dup1\n      0x1f\n      lt\n      tag_72\n      jumpi\n      0x0100\n      dup1\n      dup4\n      sload\n      div\n      mul\n      dup4\n      mstore\n      swap2\n      0x20\n      add\n      swap2\n      jump(tag_71)\n    tag_72:\n      dup3\n      add\n      swap2\n      swap1\n      0x00\n      mstore\n      keccak256(0x00, 0x20)\n      swap1\n    tag_73:\n      dup2\n      sload\n      dup2\n      mstore\n      swap1\n      0x01\n      add\n      swap1\n      0x20\n      add\n      dup1\n      dup4\n      gt\n      tag_73\n      jumpi\n      dup3\n      swap1\n      sub\n      0x1f\n      and\n      dup3\n      add\n      swap2\n    tag_71:\n      pop\n      pop\n      pop\n      pop\n      pop\n      swap1\n      pop\n        /* \"userInformation.sol\":2512:2516  true */\n      0x01\n        /* \"userInformation.sol\":2491:2504  isBlacklisted */\n      0x00\n        /* \"userInformation.sol\":2505:2508  _id */\n      dup3\n        /* \"userInformation.sol\":2491:2509  isBlacklisted[_id] */\n      mload(0x40)\n      tag_74\n      swap2\n      swap1\n      tag_75\n      jump\t// in\n    tag_74:\n      swap1\n      dup2\n      mstore\n      0x20\n      add\n      mload(0x40)\n      dup1\n      swap2\n      sub\n      swap1\n      keccak256\n      0x00\n        /* \"userInformation.sol\":2491:2516  isBlacklisted[_id] = true */\n      0x0100\n      exp\n      dup2\n      sload\n      dup2\n      0xff\n      mul\n      not\n      and\n      swap1\n      dup4\n      iszero\n      iszero\n      mul\n      or\n      swap1\n      sstore\n      pop\n        /* \"userInformation.sol\":2419:2528  {... */\n      pop\n        /* \"userInformation.sol\":2395:2528  if(isAddressBound(_add)){... */\n    tag_67:\n        /* \"userInformation.sol\":2322:2535  function _addBlacklisted(... */\n      pop\n      jump\t// out\n        /* \"userInformation.sol\":3888:4138  function isAddressBound(... */\n    tag_25:\n        /* \"userInformation.sol\":3963:3967  bool */\n      0x00\n        /* \"userInformation.sol\":4004:4005  0 */\n      dup1\n        /* \"userInformation.sol\":3988:4006  _add != address(0) */\n      0xffffffffffffffffffffffffffffffffffffffff\n      and\n        /* \"userInformation.sol\":3988:3992  _add */\n      dup3\n        /* \"userInformation.sol\":3988:4006  _add != address(0) */\n      0xffffffffffffffffffffffffffffffffffffffff\n      and\n      sub\n        /* \"userInformation.sol\":3980:4046  require(_add != address(0),\"User:address can't be a zero address\") */\n      tag_77\n      jumpi\n      mload(0x40)\n      0x08c379a000000000000000000000000000000000000000000000000000000000\n      dup2\n      mstore\n      0x04\n      add\n      tag_78\n      swap1\n      tag_79\n      jump\t// in\n    tag_78:\n      mload(0x40)\n      dup1\n      swap2\n      sub\n      swap1\n      revert\n    tag_77:\n        /* \"userInformation.sol\":4059:4074  bool isAddBound */\n      0x00\n        /* \"userInformation.sol\":4077:4086  userInfos */\n      0x01\n        /* \"userInformation.sol\":4077:4092  userInfos[_add] */\n      0x00\n        /* \"userInformation.sol\":4087:4091  _add */\n      dup5\n        /* \"userInformation.sol\":4077:4092  userInfos[_add] */\n      0xffffffffffffffffffffffffffffffffffffffff\n      and\n      0xffffffffffffffffffffffffffffffffffffffff\n      and\n      dup2\n      mstore\n      0x20\n      add\n      swap1\n      dup2\n      mstore\n      0x20\n      add\n      0x00\n      keccak256\n        /* \"userInformation.sol\":4077:4100  userInfos[_add].isBound */\n      0x04\n      add\n      0x00\n      swap1\n      sload\n      swap1\n      0x0100\n      exp\n      swap1\n      div\n      0xff\n      and\n        /* \"userInformation.sol\":4059:4100  bool isAddBound = userInfos[_add].isBound */\n      swap1\n      pop\n        /* \"userInformation.sol\":4120:4130  isAddBound */\n      dup1\n        /* \"userInformation.sol\":4113:4130  return isAddBound */\n      swap2\n      pop\n      pop\n        /* \"userInformation.sol\":3888:4138  function isAddressBound(... */\n      swap2\n      swap1\n      pop\n      jump\t// out\n        /* \"userInformation.sol\":2576:2872  function addUserReputation(... */\n    tag_30:\n        /* \"userInformation.sol\":2703:2707  bool */\n      0x00\n        /* \"userInformation.sol\":2719:2735  uint _adjustment */\n      dup1\n        /* \"userInformation.sol\":2738:2789  calculateReputationIncrease(_currentScore,_dayRent) */\n      tag_81\n        /* \"userInformation.sol\":2766:2779  _currentScore */\n      dup5\n        /* \"userInformation.sol\":2780:2788  _dayRent */\n      dup5\n        /* \"userInformation.sol\":2738:2765  calculateReputationIncrease */\n      tag_45\n        /* \"userInformation.sol\":2738:2789  calculateReputationIncrease(_currentScore,_dayRent) */\n      jump\t// in\n    tag_81:\n        /* \"userInformation.sol\":2719:2789  uint _adjustment = calculateReputationIncrease(_currentScore,_dayRent) */\n      swap1\n      pop\n        /* \"userInformation.sol\":2829:2840  _adjustment */\n      dup1\n        /* \"userInformation.sol\":2800:2809  userInfos */\n      0x01\n        /* \"userInformation.sol\":2800:2816  userInfos[_user] */\n      0x00\n        /* \"userInformation.sol\":2810:2815  _user */\n      dup8\n        /* \"userInformation.sol\":2800:2816  userInfos[_user] */\n      0xffffffffffffffffffffffffffffffffffffffff\n      and\n      0xffffffffffffffffffffffffffffffffffffffff\n      and\n      dup2\n      mstore\n      0x20\n      add\n      swap1\n      dup2\n      mstore\n      0x20\n      add\n      0x00\n      keccak256\n        /* \"userInformation.sol\":2800:2827  userInfos[_user].reputation */\n      0x02\n      add\n        /* \"userInformation.sol\":2800:2840  userInfos[_user].reputation =_adjustment */\n      dup2\n      swap1\n      sstore\n      pop\n        /* \"userInformation.sol\":2860:2864  true */\n      0x01\n        /* \"userInformation.sol\":2853:2864  return true */\n      swap2\n      pop\n      pop\n        /* \"userInformation.sol\":2576:2872  function addUserReputation(... */\n      swap4\n      swap3\n      pop\n      pop\n      pop\n      jump\t// out\n        /* \"userInformation.sol\":3381:3584  function getUserInfo(... */\n    tag_34:\n        /* \"userInformation.sol\":3453:3468  UserInfo memory */\n      tag_82\n      tag_83\n      jump\t// in\n    tag_82:\n        /* \"userInformation.sol\":3488:3508  isAddressBound(_add) */\n      tag_85\n        /* \"userInformation.sol\":3503:3507  _add */\n      dup3\n        /* \"userInformation.sol\":3488:3502  isAddressBound */\n      tag_25\n        /* \"userInformation.sol\":3488:3508  isAddressBound(_add) */\n      jump\t// in\n    tag_85:\n        /* \"userInformation.sol\":3480:3541  require(isAddressBound(_add),\"User:the address havn't bound\") */\n      tag_86\n      jumpi\n      mload(0x40)\n      0x08c379a000000000000000000000000000000000000000000000000000000000\n      dup2\n      mstore\n      0x04\n      add\n      tag_87\n      swap1\n      tag_88\n      jump\t// in\n    tag_87:\n      mload(0x40)\n      dup1\n      swap2\n      sub\n      swap1\n      revert\n    tag_86:\n        /* \"userInformation.sol\":3561:3570  userInfos */\n      0x01\n        /* \"userInformation.sol\":3561:3576  userInfos[_add] */\n      0x00\n        /* \"userInformation.sol\":3571:3575  _add */\n      dup4\n        /* \"userInformation.sol\":3561:3576  userInfos[_add] */\n      0xffffffffffffffffffffffffffffffffffffffff\n      and\n      0xffffffffffffffffffffffffffffffffffffffff\n      and\n      dup2\n      mstore\n      0x20\n      add\n      swap1\n      dup2\n      mstore\n      0x20\n      add\n      0x00\n      keccak256\n        /* \"userInformation.sol\":3554:3576  return userInfos[_add] */\n      mload(0x40)\n      dup1\n      0xa0\n      add\n      0x40\n      mstore\n      swap1\n      dup2\n      0x00\n      dup3\n      add\n      dup1\n      sload\n      tag_89\n      swap1\n      tag_69\n      jump\t// in\n    tag_89:\n      dup1\n      0x1f\n      add\n      0x20\n      dup1\n      swap2\n      div\n      mul\n      0x20\n      add\n      mload(0x40)\n      swap1\n      dup2\n      add\n      0x40\n      mstore\n      dup1\n      swap3\n      swap2\n      swap1\n      dup2\n      dup2\n      mstore\n      0x20\n      add\n      dup3\n      dup1\n      sload\n      tag_90\n      swap1\n      tag_69\n      jump\t// in\n    tag_90:\n      dup1\n      iszero\n      tag_91\n      jumpi\n      dup1\n      0x1f\n      lt\n      tag_92\n      jumpi\n      0x0100\n      dup1\n      dup4\n      sload\n      div\n      mul\n      dup4\n      mstore\n      swap2\n      0x20\n      add\n      swap2\n      jump(tag_91)\n    tag_92:\n      dup3\n      add\n      swap2\n      swap1\n      0x00\n      mstore\n      keccak256(0x00, 0x20)\n      swap1\n    tag_93:\n      dup2\n      sload\n      dup2\n      mstore\n      swap1\n      0x01\n      add\n      swap1\n      0x20\n      add\n      dup1\n      dup4\n      gt\n      tag_93\n      jumpi\n      dup3\n      swap1\n      sub\n      0x1f\n      and\n      dup3\n      add\n      swap2\n    tag_91:\n      pop\n      pop\n      pop\n      pop\n      pop\n      dup2\n      mstore\n      0x20\n      add\n      0x01\n      dup3\n      add\n      0x00\n      swap1\n      sload\n      swap1\n      0x0100\n      exp\n      swap1\n      div\n      0xffffffffffffffffffffffffffffffffffffffff\n      and\n      0xffffffffffffffffffffffffffffffffffffffff\n      and\n      0xffffffffffffffffffffffffffffffffffffffff\n      and\n      dup2\n      mstore\n      0x20\n      add\n      0x02\n      dup3\n      add\n      sload\n      dup2\n      mstore\n      0x20\n      add\n      0x03\n      dup3\n      add\n      dup1\n      sload\n      tag_94\n      swap1\n      tag_69\n      jump\t// in\n    tag_94:\n      dup1\n      0x1f\n      add\n      0x20\n      dup1\n      swap2\n      div\n      mul\n      0x20\n      add\n      mload(0x40)\n      swap1\n      dup2\n      add\n      0x40\n      mstore\n      dup1\n      swap3\n      swap2\n      swap1\n      dup2\n      dup2\n      mstore\n      0x20\n      add\n      dup3\n      dup1\n      sload\n      tag_95\n      swap1\n      tag_69\n      jump\t// in\n    tag_95:\n      dup1\n      iszero\n      tag_96\n      jumpi\n      dup1\n      0x1f\n      lt\n      tag_97\n      jumpi\n      0x0100\n      dup1\n      dup4\n      sload\n      div\n      mul\n      dup4\n      mstore\n      swap2\n      0x20\n      add\n      swap2\n      jump(tag_96)\n    tag_97:\n      dup3\n      add\n      swap2\n      swap1\n      0x00\n      mstore\n      keccak256(0x00, 0x20)\n      swap1\n    tag_98:\n      dup2\n      sload\n      dup2\n      mstore\n      swap1\n      0x01\n      add\n      swap1\n      0x20\n      add\n      dup1\n      dup4\n      gt\n      tag_98\n      jumpi\n      dup3\n      swap1\n      sub\n      0x1f\n      and\n      dup3\n      add\n      swap2\n    tag_96:\n      pop\n      pop\n      pop\n      pop\n      pop\n      dup2\n      mstore\n      0x20\n      add\n      0x04\n      dup3\n      add\n      0x00\n      swap1\n      sload\n      swap1\n      0x0100\n      exp\n      swap1\n      div\n      0xff\n      and\n      iszero\n      iszero\n      iszero\n      iszero\n      dup2\n      mstore\n      pop\n      pop\n      swap1\n      pop\n        /* \"userInformation.sol\":3381:3584  function getUserInfo(... */\n      swap2\n      swap1\n      pop\n      jump\t// out\n        /* \"userInformation.sol\":1368:2237  function verify(... */\n    tag_40:\n        /* \"userInformation.sol\":1469:1473  bool */\n      0x00\n        /* \"userInformation.sol\":1547:1567  string memory idHash */\n      dup1\n        /* \"userInformation.sol\":1570:1581  hashId(_id) */\n      tag_100\n        /* \"userInformation.sol\":1577:1580  _id */\n      dup5\n        /* \"userInformation.sol\":1570:1576  hashId */\n      tag_101\n        /* \"userInformation.sol\":1570:1581  hashId(_id) */\n      jump\t// in\n    tag_100:\n        /* \"userInformation.sol\":1547:1581  string memory idHash = hashId(_id) */\n      swap1\n      pop\n        /* \"userInformation.sol\":1661:1674  isBlacklisted */\n      0x00\n        /* \"userInformation.sol\":1675:1681  idHash */\n      dup2\n        /* \"userInformation.sol\":1661:1682  isBlacklisted[idHash] */\n      mload(0x40)\n      tag_102\n      swap2\n      swap1\n      tag_75\n      jump\t// in\n    tag_102:\n      swap1\n      dup2\n      mstore\n      0x20\n      add\n      mload(0x40)\n      dup1\n      swap2\n      sub\n      swap1\n      keccak256\n      0x00\n      swap1\n      sload\n      swap1\n      0x0100\n      exp\n      swap1\n      div\n      0xff\n      and\n        /* \"userInformation.sol\":1660:1682  !isBlacklisted[idHash] */\n      iszero\n        /* \"userInformation.sol\":1652:1709  require(!isBlacklisted[idHash], \"User:ID is blacklisted\") */\n      tag_103\n      jumpi\n      mload(0x40)\n      0x08c379a000000000000000000000000000000000000000000000000000000000\n      dup2\n      mstore\n      0x04\n      add\n      tag_104\n      swap1\n      tag_105\n      jump\t// in\n    tag_104:\n      mload(0x40)\n      dup1\n      swap2\n      sub\n      swap1\n      revert\n    tag_103:\n        /* \"userInformation.sol\":1789:1798  userInfos */\n      0x01\n        /* \"userInformation.sol\":1789:1809  userInfos[tx.origin] */\n      0x00\n        /* \"userInformation.sol\":1799:1808  tx.origin */\n      origin\n        /* \"userInformation.sol\":1789:1809  userInfos[tx.origin] */\n      0xffffffffffffffffffffffffffffffffffffffff\n      and\n      0xffffffffffffffffffffffffffffffffffffffff\n      and\n      dup2\n      mstore\n      0x20\n      add\n      swap1\n      dup2\n      mstore\n      0x20\n      add\n      0x00\n      keccak256\n        /* \"userInformation.sol\":1789:1817  userInfos[tx.origin].isBound */\n      0x04\n      add\n      0x00\n      swap1\n      sload\n      swap1\n      0x0100\n      exp\n      swap1\n      div\n      0xff\n      and\n        /* \"userInformation.sol\":1788:1817  !userInfos[tx.origin].isBound */\n      iszero\n        /* \"userInformation.sol\":1780:1848  require(!userInfos[tx.origin].isBound, \"User:Address already bound\") */\n      tag_106\n      jumpi\n      mload(0x40)\n      0x08c379a000000000000000000000000000000000000000000000000000000000\n      dup2\n      mstore\n      0x04\n      add\n      tag_107\n      swap1\n      tag_108\n      jump\t// in\n    tag_107:\n      mload(0x40)\n      dup1\n      swap2\n      sub\n      swap1\n      revert\n    tag_106:\n        /* \"userInformation.sol\":1868:1877  isBoundId */\n      0x02\n        /* \"userInformation.sol\":1878:1884  idHash */\n      dup2\n        /* \"userInformation.sol\":1868:1885  isBoundId[idHash] */\n      mload(0x40)\n      tag_109\n      swap2\n      swap1\n      tag_75\n      jump\t// in\n    tag_109:\n      swap1\n      dup2\n      mstore\n      0x20\n      add\n      mload(0x40)\n      dup1\n      swap2\n      sub\n      swap1\n      keccak256\n      0x00\n      swap1\n      sload\n      swap1\n      0x0100\n      exp\n      swap1\n      div\n      0xff\n      and\n        /* \"userInformation.sol\":1867:1885  !isBoundId[idHash] */\n      iszero\n        /* \"userInformation.sol\":1859:1911  require(!isBoundId[idHash], \"User:ID already bound\") */\n      tag_110\n      jumpi\n      mload(0x40)\n      0x08c379a000000000000000000000000000000000000000000000000000000000\n      dup2\n      mstore\n      0x04\n      add\n      tag_111\n      swap1\n      tag_112\n      jump\t// in\n    tag_111:\n      mload(0x40)\n      dup1\n      swap2\n      sub\n      swap1\n      revert\n    tag_110:\n        /* \"userInformation.sol\":1985:2170  UserInfo({... */\n      mload(0x40)\n      dup1\n      0xa0\n      add\n      0x40\n      mstore\n      dup1\n        /* \"userInformation.sol\":2017:2023  idHash */\n      dup3\n        /* \"userInformation.sol\":1985:2170  UserInfo({... */\n      dup2\n      mstore\n      0x20\n      add\n        /* \"userInformation.sol\":2046:2055  tx.origin */\n      origin\n        /* \"userInformation.sol\":1985:2170  UserInfo({... */\n      0xffffffffffffffffffffffffffffffffffffffff\n      and\n      dup2\n      mstore\n      0x20\n      add\n        /* \"userInformation.sol\":840:842  60 */\n      0x3c\n        /* \"userInformation.sol\":1985:2170  UserInfo({... */\n      dup2\n      mstore\n      0x20\n      add\n        /* \"userInformation.sol\":2123:2130  _number */\n      dup5\n        /* \"userInformation.sol\":1985:2170  UserInfo({... */\n      dup2\n      mstore\n      0x20\n      add\n        /* \"userInformation.sol\":2154:2158  true */\n      0x01\n        /* \"userInformation.sol\":1985:2170  UserInfo({... */\n      iszero\n      iszero\n      dup2\n      mstore\n      pop\n        /* \"userInformation.sol\":1961:1970  userInfos */\n      0x01\n        /* \"userInformation.sol\":1961:1982  userInfos[msg.sender] */\n      0x00\n        /* \"userInformation.sol\":1971:1981  msg.sender */\n      caller\n        /* \"userInformation.sol\":1961:1982  userInfos[msg.sender] */\n      0xffffffffffffffffffffffffffffffffffffffff\n      and\n      0xffffffffffffffffffffffffffffffffffffffff\n      and\n      dup2\n      mstore\n      0x20\n      add\n      swap1\n      dup2\n      mstore\n      0x20\n      add\n      0x00\n      keccak256\n        /* \"userInformation.sol\":1961:2170  userInfos[msg.sender] = UserInfo({... */\n      0x00\n      dup3\n      add\n      mload\n      dup2\n      0x00\n      add\n      swap1\n      dup2\n      tag_113\n      swap2\n      swap1\n      tag_114\n      jump\t// in\n    tag_113:\n      pop\n      0x20\n      dup3\n      add\n      mload\n      dup2\n      0x01\n      add\n      exp(0x0100, 0x00)\n      dup2\n      sload\n      dup2\n      0xffffffffffffffffffffffffffffffffffffffff\n      mul\n      not\n      and\n      swap1\n      dup4\n      0xffffffffffffffffffffffffffffffffffffffff\n      and\n      mul\n      or\n      swap1\n      sstore\n      pop\n      0x40\n      dup3\n      add\n      mload\n      dup2\n      0x02\n      add\n      sstore\n      0x60\n      dup3\n      add\n      mload\n      dup2\n      0x03\n      add\n      swap1\n      dup2\n      tag_115\n      swap2\n      swap1\n      tag_114\n      jump\t// in\n    tag_115:\n      pop\n      0x80\n      dup3\n      add\n      mload\n      dup2\n      0x04\n      add\n      exp(0x0100, 0x00)\n      dup2\n      sload\n      dup2\n      0xff\n      mul\n      not\n      and\n      swap1\n      dup4\n      iszero\n      iszero\n      mul\n      or\n      swap1\n      sstore\n      pop\n      swap1\n      pop\n      pop\n        /* \"userInformation.sol\":2201:2205  true */\n      0x01\n        /* \"userInformation.sol\":2181:2190  isBoundId */\n      0x02\n        /* \"userInformation.sol\":2191:2197  idHash */\n      dup3\n        /* \"userInformation.sol\":2181:2198  isBoundId[idHash] */\n      mload(0x40)\n      tag_116\n      swap2\n      swap1\n      tag_75\n      jump\t// in\n    tag_116:\n      swap1\n      dup2\n      mstore\n      0x20\n      add\n      mload(0x40)\n      dup1\n      swap2\n      sub\n      swap1\n      keccak256\n      0x00\n        /* \"userInformation.sol\":2181:2205  isBoundId[idHash] = true */\n      0x0100\n      exp\n      dup2\n      sload\n      dup2\n      0xff\n      mul\n      not\n      and\n      swap1\n      dup4\n      iszero\n      iszero\n      mul\n      or\n      swap1\n      sstore\n      pop\n        /* \"userInformation.sol\":2225:2229  true */\n      0x01\n        /* \"userInformation.sol\":2218:2229  return true */\n      swap2\n      pop\n      pop\n        /* \"userInformation.sol\":1368:2237  function verify(... */\n      swap3\n      swap2\n      pop\n      pop\n      jump\t// out\n        /* \"userInformation.sol\":4529:5225  function calculateReputationIncrease(... */\n    tag_45:\n        /* \"userInformation.sol\":4648:4652  uint */\n      0x00\n        /* \"userInformation.sol\":4665:4687  uint dailyIncreaseBase */\n      dup1\n        /* \"userInformation.sol\":4715:4718  365 */\n      0x016d\n        /* \"userInformation.sol\":4708:4712  1e18 */\n      0x0de0b6b3a7640000\n        /* \"userInformation.sol\":988:991  930 */\n      0x03a2\n        /* \"userInformation.sol\":4690:4712  ANNUAL_INCREASE * 1e18 */\n      tag_118\n      swap2\n      swap1\n      tag_119\n      jump\t// in\n    tag_118:\n        /* \"userInformation.sol\":4690:4718  ANNUAL_INCREASE * 1e18 / 365 */\n      tag_120\n      swap2\n      swap1\n      tag_121\n      jump\t// in\n    tag_120:\n        /* \"userInformation.sol\":4665:4718  uint dailyIncreaseBase = ANNUAL_INCREASE * 1e18 / 365 */\n      swap1\n      pop\n        /* \"userInformation.sol\":4766:4777  uint factor */\n      0x00\n        /* \"userInformation.sol\":909:912  100 */\n      0x64\n        /* \"userInformation.sol\":4814:4818  1e18 */\n      0x0de0b6b3a7640000\n        /* \"userInformation.sol\":4798:4810  currentScore */\n      dup7\n        /* \"userInformation.sol\":909:912  100 */\n      0x64\n        /* \"userInformation.sol\":4781:4810  MAX_REPUTATION - currentScore */\n      tag_122\n      swap2\n      swap1\n      tag_123\n      jump\t// in\n    tag_122:\n        /* \"userInformation.sol\":4780:4818  (MAX_REPUTATION - currentScore) * 1e18 */\n      tag_124\n      swap2\n      swap1\n      tag_119\n      jump\t// in\n    tag_124:\n        /* \"userInformation.sol\":4780:4835  (MAX_REPUTATION - currentScore) * 1e18 / MAX_REPUTATION */\n      tag_125\n      swap2\n      swap1\n      tag_121\n      jump\t// in\n    tag_125:\n        /* \"userInformation.sol\":4766:4835  uint factor = (MAX_REPUTATION - currentScore) * 1e18 / MAX_REPUTATION */\n      swap1\n      pop\n        /* \"userInformation.sol\":4880:4898  uint dailyIncrease */\n      0x00\n        /* \"userInformation.sol\":4930:4934  1e18 */\n      0x0de0b6b3a7640000\n        /* \"userInformation.sol\":4921:4927  factor */\n      dup3\n        /* \"userInformation.sol\":4901:4918  dailyIncreaseBase */\n      dup5\n        /* \"userInformation.sol\":4901:4927  dailyIncreaseBase * factor */\n      tag_126\n      swap2\n      swap1\n      tag_119\n      jump\t// in\n    tag_126:\n        /* \"userInformation.sol\":4901:4934  dailyIncreaseBase * factor / 1e18 */\n      tag_127\n      swap2\n      swap1\n      tag_121\n      jump\t// in\n    tag_127:\n        /* \"userInformation.sol\":4880:4934  uint dailyIncrease = dailyIncreaseBase * factor / 1e18 */\n      swap1\n      pop\n        /* \"userInformation.sol\":4947:4965  uint totalIncrease */\n      0x00\n        /* \"userInformation.sol\":4997:5001  1e18 */\n      0x0de0b6b3a7640000\n        /* \"userInformation.sol\":4984:4994  daysRented */\n      dup7\n        /* \"userInformation.sol\":4968:4981  dailyIncrease */\n      dup4\n        /* \"userInformation.sol\":4968:4994  dailyIncrease * daysRented */\n      tag_128\n      swap2\n      swap1\n      tag_119\n      jump\t// in\n    tag_128:\n        /* \"userInformation.sol\":4968:5001  dailyIncrease * daysRented / 1e18 */\n      tag_129\n      swap2\n      swap1\n      tag_121\n      jump\t// in\n    tag_129:\n        /* \"userInformation.sol\":4947:5001  uint totalIncrease = dailyIncrease * daysRented / 1e18 */\n      swap1\n      pop\n        /* \"userInformation.sol\":5012:5025  uint newScore */\n      0x00\n        /* \"userInformation.sol\":5043:5056  totalIncrease */\n      dup2\n        /* \"userInformation.sol\":5028:5040  currentScore */\n      dup9\n        /* \"userInformation.sol\":5028:5056  currentScore + totalIncrease */\n      tag_130\n      swap2\n      swap1\n      tag_131\n      jump\t// in\n    tag_130:\n        /* \"userInformation.sol\":5012:5056  uint newScore = currentScore + totalIncrease */\n      swap1\n      pop\n        /* \"userInformation.sol\":909:912  100 */\n      0x64\n        /* \"userInformation.sol\":5113:5121  newScore */\n      dup2\n        /* \"userInformation.sol\":5113:5138  newScore > MAX_REPUTATION */\n      gt\n        /* \"userInformation.sol\":5109:5192  if (newScore > MAX_REPUTATION) {... */\n      iszero\n      tag_132\n      jumpi\n        /* \"userInformation.sol\":909:912  100 */\n      0x64\n        /* \"userInformation.sol\":5155:5180  newScore = MAX_REPUTATION */\n      swap1\n      pop\n        /* \"userInformation.sol\":5109:5192  if (newScore > MAX_REPUTATION) {... */\n    tag_132:\n        /* \"userInformation.sol\":5209:5217  newScore */\n      dup1\n        /* \"userInformation.sol\":5202:5217  return newScore */\n      swap6\n      pop\n      pop\n      pop\n      pop\n      pop\n      pop\n        /* \"userInformation.sol\":4529:5225  function calculateReputationIncrease(... */\n      swap3\n      swap2\n      pop\n      pop\n      jump\t// out\n        /* \"userInformation.sol\":3627:3838  function getUserReputation(... */\n    tag_50:\n        /* \"userInformation.sol\":3706:3710  uint */\n      0x00\n        /* \"userInformation.sol\":3730:3750  isAddressBound(_add) */\n      tag_134\n        /* \"userInformation.sol\":3745:3749  _add */\n      dup3\n        /* \"userInformation.sol\":3730:3744  isAddressBound */\n      tag_25\n        /* \"userInformation.sol\":3730:3750  isAddressBound(_add) */\n      jump\t// in\n    tag_134:\n        /* \"userInformation.sol\":3722:3783  require(isAddressBound(_add),\"User:the address havn't bound\") */\n      tag_135\n      jumpi\n      mload(0x40)\n      0x08c379a000000000000000000000000000000000000000000000000000000000\n      dup2\n      mstore\n      0x04\n      add\n      tag_136\n      swap1\n      tag_88\n      jump\t// in\n    tag_136:\n      mload(0x40)\n      dup1\n      swap2\n      sub\n      swap1\n      revert\n    tag_135:\n        /* \"userInformation.sol\":3804:3813  userInfos */\n      0x01\n        /* \"userInformation.sol\":3804:3819  userInfos[_add] */\n      0x00\n        /* \"userInformation.sol\":3814:3818  _add */\n      dup4\n        /* \"userInformation.sol\":3804:3819  userInfos[_add] */\n      0xffffffffffffffffffffffffffffffffffffffff\n      and\n      0xffffffffffffffffffffffffffffffffffffffff\n      and\n      dup2\n      mstore\n      0x20\n      add\n      swap1\n      dup2\n      mstore\n      0x20\n      add\n      0x00\n      keccak256\n        /* \"userInformation.sol\":3804:3830  userInfos[_add].reputation */\n      0x02\n      add\n      sload\n        /* \"userInformation.sol\":3796:3830  return  userInfos[_add].reputation */\n      swap1\n      pop\n        /* \"userInformation.sol\":3627:3838  function getUserReputation(... */\n      swap2\n      swap1\n      pop\n      jump\t// out\n        /* \"userInformation.sol\":2913:3104  function deputeUserReputation(... */\n    tag_55:\n        /* \"userInformation.sol\":3017:3021  bool */\n      0x00\n        /* \"userInformation.sol\":3063:3074  _adjustment */\n      dup2\n        /* \"userInformation.sol\":3033:3042  userInfos */\n      0x01\n        /* \"userInformation.sol\":3033:3049  userInfos[_user] */\n      0x00\n        /* \"userInformation.sol\":3043:3048  _user */\n      dup6\n        /* \"userInformation.sol\":3033:3049  userInfos[_user] */\n      0xffffffffffffffffffffffffffffffffffffffff\n      and\n      0xffffffffffffffffffffffffffffffffffffffff\n      and\n      dup2\n      mstore\n      0x20\n      add\n      swap1\n      dup2\n      mstore\n      0x20\n      add\n      0x00\n      keccak256\n        /* \"userInformation.sol\":3033:3060  userInfos[_user].reputation */\n      0x02\n      add\n      0x00\n        /* \"userInformation.sol\":3033:3074  userInfos[_user].reputation -=_adjustment */\n      dup3\n      dup3\n      sload\n      tag_138\n      swap2\n      swap1\n      tag_123\n      jump\t// in\n    tag_138:\n      swap3\n      pop\n      pop\n      dup2\n      swap1\n      sstore\n      pop\n        /* \"userInformation.sol\":3092:3096  true */\n      0x01\n        /* \"userInformation.sol\":3085:3096  return true */\n      swap1\n      pop\n        /* \"userInformation.sol\":2913:3104  function deputeUserReputation(... */\n      swap3\n      swap2\n      pop\n      pop\n      jump\t// out\n        /* \"userInformation.sol\":1071:1330  function setReputationWhiteUser(... */\n    tag_60:\n        /* \"userInformation.sol\":1149:1153  bool */\n      0x00\n        /* \"userInformation.sol\":1173:1198  isAddressBound(tx.origin) */\n      tag_140\n        /* \"userInformation.sol\":1188:1197  tx.origin */\n      origin\n        /* \"userInformation.sol\":1173:1187  isAddressBound */\n      tag_25\n        /* \"userInformation.sol\":1173:1198  isAddressBound(tx.origin) */\n      jump\t// in\n    tag_140:\n        /* \"userInformation.sol\":1165:1245  require(isAddressBound(tx.origin),\"User:Please bound with your identification!\") */\n      tag_141\n      jumpi\n      mload(0x40)\n      0x08c379a000000000000000000000000000000000000000000000000000000000\n      dup2\n      mstore\n      0x04\n      add\n      tag_142\n      swap1\n      tag_143\n      jump\t// in\n    tag_142:\n      mload(0x40)\n      dup1\n      swap2\n      sub\n      swap1\n      revert\n    tag_141:\n        /* \"userInformation.sol\":1292:1298  _grade */\n      dup2\n        /* \"userInformation.sol\":1258:1267  userInfos */\n      0x01\n        /* \"userInformation.sol\":1258:1278  userInfos[tx.origin] */\n      0x00\n        /* \"userInformation.sol\":1268:1277  tx.origin */\n      origin\n        /* \"userInformation.sol\":1258:1278  userInfos[tx.origin] */\n      0xffffffffffffffffffffffffffffffffffffffff\n      and\n      0xffffffffffffffffffffffffffffffffffffffff\n      and\n      dup2\n      mstore\n      0x20\n      add\n      swap1\n      dup2\n      mstore\n      0x20\n      add\n      0x00\n      keccak256\n        /* \"userInformation.sol\":1258:1289  userInfos[tx.origin].reputation */\n      0x02\n      add\n        /* \"userInformation.sol\":1258:1298  userInfos[tx.origin].reputation = _grade */\n      dup2\n      swap1\n      sstore\n      pop\n        /* \"userInformation.sol\":1318:1322  true */\n      0x01\n        /* \"userInformation.sol\":1311:1322  return true */\n      swap1\n      pop\n        /* \"userInformation.sol\":1071:1330  function setReputationWhiteUser(... */\n      swap2\n      swap1\n      pop\n      jump\t// out\n        /* \"userInformation.sol\":5285:5581  function hashId(... */\n    tag_101:\n        /* \"userInformation.sol\":5359:5372  string memory */\n      0x60\n        /* \"userInformation.sol\":5434:5448  bytes32 hashed */\n      0x00\n        /* \"userInformation.sol\":5478:5481  _id */\n      dup3\n        /* \"userInformation.sol\":5461:5482  abi.encodePacked(_id) */\n      add(0x20, mload(0x40))\n      tag_145\n      swap2\n      swap1\n      tag_75\n      jump\t// in\n    tag_145:\n      mload(0x40)\n      0x20\n      dup2\n      dup4\n      sub\n      sub\n      dup2\n      mstore\n      swap1\n      0x40\n      mstore\n        /* \"userInformation.sol\":5451:5483  keccak256(abi.encodePacked(_id)) */\n      dup1\n      mload\n      swap1\n      0x20\n      add\n      keccak256\n        /* \"userInformation.sol\":5434:5483  bytes32 hashed = keccak256(abi.encodePacked(_id)) */\n      swap1\n      pop\n        /* \"userInformation.sol\":5554:5573  toHexString(hashed) */\n      tag_146\n        /* \"userInformation.sol\":5566:5572  hashed */\n      dup2\n        /* \"userInformation.sol\":5554:5565  toHexString */\n      tag_147\n        /* \"userInformation.sol\":5554:5573  toHexString(hashed) */\n      jump\t// in\n    tag_146:\n        /* \"userInformation.sol\":5547:5573  return toHexString(hashed) */\n      swap2\n      pop\n      pop\n        /* \"userInformation.sol\":5285:5581  function hashId(... */\n      swap2\n      swap1\n      pop\n      jump\t// out\n        /* \"userInformation.sol\":5654:6051  function toHexString(... */\n    tag_147:\n        /* \"userInformation.sol\":5728:5741  string memory */\n      0x60\n        /* \"userInformation.sol\":5754:5775  bytes memory alphabet */\n      0x00\n        /* \"userInformation.sol\":5754:5796  bytes memory alphabet = \"0123456789abcdef\" */\n      mload(0x40)\n      dup1\n      0x40\n      add\n      0x40\n      mstore\n      dup1\n      0x10\n      dup2\n      mstore\n      0x20\n      add\n      0x3031323334353637383961626364656600000000000000000000000000000000\n      dup2\n      mstore\n      pop\n      swap1\n      pop\n        /* \"userInformation.sol\":5807:5823  bytes memory str */\n      0x00\n        /* \"userInformation.sol\":5836:5838  64 */\n      0x40\n        /* \"userInformation.sol\":5826:5839  new bytes(64) */\n      0xffffffffffffffff\n      dup2\n      gt\n      iszero\n      tag_149\n      jumpi\n      tag_150\n      tag_151\n      jump\t// in\n    tag_150:\n    tag_149:\n      mload(0x40)\n      swap1\n      dup1\n      dup3\n      mstore\n      dup1\n      0x1f\n      add\n      not(0x1f)\n      and\n      0x20\n      add\n      dup3\n      add\n      0x40\n      mstore\n      dup1\n      iszero\n      tag_152\n      jumpi\n      dup2\n      0x20\n      add\n      0x01\n      dup3\n      mul\n      dup1\n      calldatasize\n      dup4\n      calldatacopy\n      dup1\n      dup3\n      add\n      swap2\n      pop\n      pop\n      swap1\n      pop\n    tag_152:\n      pop\n        /* \"userInformation.sol\":5807:5839  bytes memory str = new bytes(64) */\n      swap1\n      pop\n        /* \"userInformation.sol\":5855:5864  uint256 i */\n      0x00\n        /* \"userInformation.sol\":5850:6015  for (uint256 i = 0; i < 32; i++) {... */\n    tag_153:\n        /* \"userInformation.sol\":5874:5876  32 */\n      0x20\n        /* \"userInformation.sol\":5870:5871  i */\n      dup2\n        /* \"userInformation.sol\":5870:5876  i < 32 */\n      lt\n        /* \"userInformation.sol\":5850:6015  for (uint256 i = 0; i < 32; i++) {... */\n      iszero\n      tag_154\n      jumpi\n        /* \"userInformation.sol\":5911:5919  alphabet */\n      dup3\n        /* \"userInformation.sol\":5937:5938  4 */\n      0x04\n        /* \"userInformation.sol\":5926:5930  data */\n      dup7\n        /* \"userInformation.sol\":5931:5932  i */\n      dup4\n        /* \"userInformation.sol\":5926:5933  data[i] */\n      0x20\n      dup2\n      lt\n      tag_156\n      jumpi\n      tag_157\n      tag_158\n      jump\t// in\n    tag_157:\n    tag_156:\n      byte\n      0xf8\n      shl\n        /* \"userInformation.sol\":5926:5938  data[i] >> 4 */\n      not(0xffffffffffffffffffffffffffffffffffffffffffffffffffffffffffffff)\n      and\n      swap1\n      shr\n        /* \"userInformation.sol\":5920:5939  uint8(data[i] >> 4) */\n      0xf8\n      shr\n        /* \"userInformation.sol\":5911:5940  alphabet[uint8(data[i] >> 4)] */\n      0xff\n      and\n      dup2\n      mload\n      dup2\n      lt\n      tag_159\n      jumpi\n      tag_160\n      tag_158\n      jump\t// in\n    tag_160:\n    tag_159:\n      0x20\n      add\n      add\n      mload\n      0xf8\n      shr\n      0xf8\n      shl\n        /* \"userInformation.sol\":5898:5901  str */\n      dup3\n        /* \"userInformation.sol\":5906:5907  2 */\n      0x02\n        /* \"userInformation.sol\":5902:5903  i */\n      dup4\n        /* \"userInformation.sol\":5902:5907  i * 2 */\n      tag_161\n      swap2\n      swap1\n      tag_119\n      jump\t// in\n    tag_161:\n        /* \"userInformation.sol\":5898:5908  str[i * 2] */\n      dup2\n      mload\n      dup2\n      lt\n      tag_162\n      jumpi\n      tag_163\n      tag_158\n      jump\t// in\n    tag_163:\n    tag_162:\n      0x20\n      add\n      add\n        /* \"userInformation.sol\":5898:5940  str[i * 2] = alphabet[uint8(data[i] >> 4)] */\n      swap1\n      not(0xffffffffffffffffffffffffffffffffffffffffffffffffffffffffffffff)\n      and\n      swap1\n      dup2\n      0x00\n      byte\n      swap1\n      mstore8\n      pop\n        /* \"userInformation.sol\":5972:5980  alphabet */\n      dup3\n        /* \"userInformation.sol\":5997:6001  0x0f */\n      0x0f\n        /* \"userInformation.sol\":5987:6001  data[i] & 0x0f */\n      0xf8\n      shl\n        /* \"userInformation.sol\":5987:5991  data */\n      dup7\n        /* \"userInformation.sol\":5992:5993  i */\n      dup4\n        /* \"userInformation.sol\":5987:5994  data[i] */\n      0x20\n      dup2\n      lt\n      tag_164\n      jumpi\n      tag_165\n      tag_158\n      jump\t// in\n    tag_165:\n    tag_164:\n      byte\n      0xf8\n      shl\n        /* \"userInformation.sol\":5987:6001  data[i] & 0x0f */\n      and\n        /* \"userInformation.sol\":5981:6002  uint8(data[i] & 0x0f) */\n      0xf8\n      shr\n        /* \"userInformation.sol\":5972:6003  alphabet[uint8(data[i] & 0x0f)] */\n      0xff\n      and\n      dup2\n      mload\n      dup2\n      lt\n      tag_166\n      jumpi\n      tag_167\n      tag_158\n      jump\t// in\n    tag_167:\n    tag_166:\n      0x20\n      add\n      add\n      mload\n      0xf8\n      shr\n      0xf8\n      shl\n        /* \"userInformation.sol\":5955:5958  str */\n      dup3\n        /* \"userInformation.sol\":5967:5968  2 */\n      0x02\n        /* \"userInformation.sol\":5963:5964  i */\n      dup4\n        /* \"userInformation.sol\":5963:5968  i * 2 */\n      tag_168\n      swap2\n      swap1\n      tag_119\n      jump\t// in\n    tag_168:\n        /* \"userInformation.sol\":5959:5960  1 */\n      0x01\n        /* \"userInformation.sol\":5959:5968  1 + i * 2 */\n      tag_169\n      swap2\n      swap1\n      tag_131\n      jump\t// in\n    tag_169:\n        /* \"userInformation.sol\":5955:5969  str[1 + i * 2] */\n      dup2\n      mload\n      dup2\n      lt\n      tag_170\n      jumpi\n      tag_171\n      tag_158\n      jump\t// in\n    tag_171:\n    tag_170:\n      0x20\n      add\n      add\n        /* \"userInformation.sol\":5955:6003  str[1 + i * 2] = alphabet[uint8(data[i] & 0x0f)] */\n      swap1\n      not(0xffffffffffffffffffffffffffffffffffffffffffffffffffffffffffffff)\n      and\n      swap1\n      dup2\n      0x00\n      byte\n      swap1\n      mstore8\n      pop\n        /* \"userInformation.sol\":5878:5881  i++ */\n      dup1\n      dup1\n      0x01\n      add\n      swap2\n      pop\n      pop\n        /* \"userInformation.sol\":5850:6015  for (uint256 i = 0; i < 32; i++) {... */\n      jump(tag_153)\n    tag_154:\n      pop\n        /* \"userInformation.sol\":6039:6042  str */\n      dup1\n        /* \"userInformation.sol\":6025:6043  return string(str) */\n      swap3\n      pop\n      pop\n      pop\n        /* \"userInformation.sol\":5654:6051  function toHexString(... */\n      swap2\n      swap1\n      pop\n      jump\t// out\n    tag_83:\n      mload(0x40)\n      dup1\n      0xa0\n      add\n      0x40\n      mstore\n      dup1\n      0x60\n      dup2\n      mstore\n      0x20\n      add\n      and(0xffffffffffffffffffffffffffffffffffffffff, 0x00)\n      dup2\n      mstore\n      0x20\n      add\n      0x00\n      dup2\n      mstore\n      0x20\n      add\n      0x60\n      dup2\n      mstore\n      0x20\n      add\n      iszero(iszero(0x00))\n      dup2\n      mstore\n      pop\n      swap1\n      jump\t// out\n        /* \"#utility.yul\":7:82   */\n    tag_172:\n        /* \"#utility.yul\":40:46   */\n      0x00\n        /* \"#utility.yul\":73:75   */\n      0x40\n        /* \"#utility.yul\":67:76   */\n      mload\n        /* \"#utility.yul\":57:76   */\n      swap1\n      pop\n        /* \"#utility.yul\":7:82   */\n      swap1\n      jump\t// out\n        /* \"#utility.yul\":88:205   */\n    tag_173:\n        /* \"#utility.yul\":197:198   */\n      0x00\n        /* \"#utility.yul\":194:195   */\n      dup1\n        /* \"#utility.yul\":187:199   */\n      revert\n        /* \"#utility.yul\":211:328   */\n    tag_174:\n        /* \"#utility.yul\":320:321   */\n      0x00\n        /* \"#utility.yul\":317:318   */\n      dup1\n        /* \"#utility.yul\":310:322   */\n      revert\n        /* \"#utility.yul\":334:460   */\n    tag_175:\n        /* \"#utility.yul\":371:378   */\n      0x00\n        /* \"#utility.yul\":411:453   */\n      0xffffffffffffffffffffffffffffffffffffffff\n        /* \"#utility.yul\":404:409   */\n      dup3\n        /* \"#utility.yul\":400:454   */\n      and\n        /* \"#utility.yul\":389:454   */\n      swap1\n      pop\n        /* \"#utility.yul\":334:460   */\n      swap2\n      swap1\n      pop\n      jump\t// out\n        /* \"#utility.yul\":466:562   */\n    tag_176:\n        /* \"#utility.yul\":503:510   */\n      0x00\n        /* \"#utility.yul\":532:556   */\n      tag_242\n        /* \"#utility.yul\":550:555   */\n      dup3\n        /* \"#utility.yul\":532:556   */\n      tag_175\n      jump\t// in\n    tag_242:\n        /* \"#utility.yul\":521:556   */\n      swap1\n      pop\n        /* \"#utility.yul\":466:562   */\n      swap2\n      swap1\n      pop\n      jump\t// out\n        /* \"#utility.yul\":568:690   */\n    tag_177:\n        /* \"#utility.yul\":641:665   */\n      tag_244\n        /* \"#utility.yul\":659:664   */\n      dup2\n        /* \"#utility.yul\":641:665   */\n      tag_176\n      jump\t// in\n    tag_244:\n        /* \"#utility.yul\":634:639   */\n      dup2\n        /* \"#utility.yul\":631:666   */\n      eq\n        /* \"#utility.yul\":621:684   */\n      tag_245\n      jumpi\n        /* \"#utility.yul\":680:681   */\n      0x00\n        /* \"#utility.yul\":677:678   */\n      dup1\n        /* \"#utility.yul\":670:682   */\n      revert\n        /* \"#utility.yul\":621:684   */\n    tag_245:\n        /* \"#utility.yul\":568:690   */\n      pop\n      jump\t// out\n        /* \"#utility.yul\":696:835   */\n    tag_178:\n        /* \"#utility.yul\":742:747   */\n      0x00\n        /* \"#utility.yul\":780:786   */\n      dup2\n        /* \"#utility.yul\":767:787   */\n      calldataload\n        /* \"#utility.yul\":758:787   */\n      swap1\n      pop\n        /* \"#utility.yul\":796:829   */\n      tag_247\n        /* \"#utility.yul\":823:828   */\n      dup2\n        /* \"#utility.yul\":796:829   */\n      tag_177\n      jump\t// in\n    tag_247:\n        /* \"#utility.yul\":696:835   */\n      swap3\n      swap2\n      pop\n      pop\n      jump\t// out\n        /* \"#utility.yul\":841:1170   */\n    tag_16:\n        /* \"#utility.yul\":900:906   */\n      0x00\n        /* \"#utility.yul\":949:951   */\n      0x20\n        /* \"#utility.yul\":937:946   */\n      dup3\n        /* \"#utility.yul\":928:935   */\n      dup5\n        /* \"#utility.yul\":924:947   */\n      sub\n        /* \"#utility.yul\":920:952   */\n      slt\n        /* \"#utility.yul\":917:1036   */\n      iszero\n      tag_249\n      jumpi\n        /* \"#utility.yul\":955:1034   */\n      tag_250\n      tag_173\n      jump\t// in\n    tag_250:\n        /* \"#utility.yul\":917:1036   */\n    tag_249:\n        /* \"#utility.yul\":1075:1076   */\n      0x00\n        /* \"#utility.yul\":1100:1153   */\n      tag_251\n        /* \"#utility.yul\":1145:1152   */\n      dup5\n        /* \"#utility.yul\":1136:1142   */\n      dup3\n        /* \"#utility.yul\":1125:1134   */\n      dup6\n        /* \"#utility.yul\":1121:1143   */\n      add\n        /* \"#utility.yul\":1100:1153   */\n      tag_178\n      jump\t// in\n    tag_251:\n        /* \"#utility.yul\":1090:1153   */\n      swap2\n      pop\n        /* \"#utility.yul\":1046:1163   */\n      pop\n        /* \"#utility.yul\":841:1170   */\n      swap3\n      swap2\n      pop\n      pop\n      jump\t// out\n        /* \"#utility.yul\":1176:1266   */\n    tag_179:\n        /* \"#utility.yul\":1210:1217   */\n      0x00\n        /* \"#utility.yul\":1253:1258   */\n      dup2\n        /* \"#utility.yul\":1246:1259   */\n      iszero\n        /* \"#utility.yul\":1239:1260   */\n      iszero\n        /* \"#utility.yul\":1228:1260   */\n      swap1\n      pop\n        /* \"#utility.yul\":1176:1266   */\n      swap2\n      swap1\n      pop\n      jump\t// out\n        /* \"#utility.yul\":1272:1381   */\n    tag_180:\n        /* \"#utility.yul\":1353:1374   */\n      tag_254\n        /* \"#utility.yul\":1368:1373   */\n      dup2\n        /* \"#utility.yul\":1353:1374   */\n      tag_179\n      jump\t// in\n    tag_254:\n        /* \"#utility.yul\":1348:1351   */\n      dup3\n        /* \"#utility.yul\":1341:1375   */\n      mstore\n        /* \"#utility.yul\":1272:1381   */\n      pop\n      pop\n      jump\t// out\n        /* \"#utility.yul\":1387:1597   */\n    tag_19:\n        /* \"#utility.yul\":1474:1478   */\n      0x00\n        /* \"#utility.yul\":1512:1514   */\n      0x20\n        /* \"#utility.yul\":1501:1510   */\n      dup3\n        /* \"#utility.yul\":1497:1515   */\n      add\n        /* \"#utility.yul\":1489:1515   */\n      swap1\n      pop\n        /* \"#utility.yul\":1525:1590   */\n      tag_256\n        /* \"#utility.yul\":1587:1588   */\n      0x00\n        /* \"#utility.yul\":1576:1585   */\n      dup4\n        /* \"#utility.yul\":1572:1589   */\n      add\n        /* \"#utility.yul\":1563:1569   */\n      dup5\n        /* \"#utility.yul\":1525:1590   */\n      tag_180\n      jump\t// in\n    tag_256:\n        /* \"#utility.yul\":1387:1597   */\n      swap3\n      swap2\n      pop\n      pop\n      jump\t// out\n        /* \"#utility.yul\":1603:1680   */\n    tag_181:\n        /* \"#utility.yul\":1640:1647   */\n      0x00\n        /* \"#utility.yul\":1669:1674   */\n      dup2\n        /* \"#utility.yul\":1658:1674   */\n      swap1\n      pop\n        /* \"#utility.yul\":1603:1680   */\n      swap2\n      swap1\n      pop\n      jump\t// out\n        /* \"#utility.yul\":1686:1808   */\n    tag_182:\n        /* \"#utility.yul\":1759:1783   */\n      tag_259\n        /* \"#utility.yul\":1777:1782   */\n      dup2\n        /* \"#utility.yul\":1759:1783   */\n      tag_181\n      jump\t// in\n    tag_259:\n        /* \"#utility.yul\":1752:1757   */\n      dup2\n        /* \"#utility.yul\":1749:1784   */\n      eq\n        /* \"#utility.yul\":1739:1802   */\n      tag_260\n      jumpi\n        /* \"#utility.yul\":1798:1799   */\n      0x00\n        /* \"#utility.yul\":1795:1796   */\n      dup1\n        /* \"#utility.yul\":1788:1800   */\n      revert\n        /* \"#utility.yul\":1739:1802   */\n    tag_260:\n        /* \"#utility.yul\":1686:1808   */\n      pop\n      jump\t// out\n        /* \"#utility.yul\":1814:1953   */\n    tag_183:\n        /* \"#utility.yul\":1860:1865   */\n      0x00\n        /* \"#utility.yul\":1898:1904   */\n      dup2\n        /* \"#utility.yul\":1885:1905   */\n      calldataload\n        /* \"#utility.yul\":1876:1905   */\n      swap1\n      pop\n        /* \"#utility.yul\":1914:1947   */\n      tag_262\n        /* \"#utility.yul\":1941:1946   */\n      dup2\n        /* \"#utility.yul\":1914:1947   */\n      tag_182\n      jump\t// in\n    tag_262:\n        /* \"#utility.yul\":1814:1953   */\n      swap3\n      swap2\n      pop\n      pop\n      jump\t// out\n        /* \"#utility.yul\":1959:2578   */\n    tag_29:\n        /* \"#utility.yul\":2036:2042   */\n      0x00\n        /* \"#utility.yul\":2044:2050   */\n      dup1\n        /* \"#utility.yul\":2052:2058   */\n      0x00\n        /* \"#utility.yul\":2101:2103   */\n      0x60\n        /* \"#utility.yul\":2089:2098   */\n      dup5\n        /* \"#utility.yul\":2080:2087   */\n      dup7\n        /* \"#utility.yul\":2076:2099   */\n      sub\n        /* \"#utility.yul\":2072:2104   */\n      slt\n        /* \"#utility.yul\":2069:2188   */\n      iszero\n      tag_264\n      jumpi\n        /* \"#utility.yul\":2107:2186   */\n      tag_265\n      tag_173\n      jump\t// in\n    tag_265:\n        /* \"#utility.yul\":2069:2188   */\n    tag_264:\n        /* \"#utility.yul\":2227:2228   */\n      0x00\n        /* \"#utility.yul\":2252:2305   */\n      tag_266\n        /* \"#utility.yul\":2297:2304   */\n      dup7\n        /* \"#utility.yul\":2288:2294   */\n      dup3\n        /* \"#utility.yul\":2277:2286   */\n      dup8\n        /* \"#utility.yul\":2273:2295   */\n      add\n        /* \"#utility.yul\":2252:2305   */\n      tag_178\n      jump\t// in\n    tag_266:\n        /* \"#utility.yul\":2242:2305   */\n      swap4\n      pop\n        /* \"#utility.yul\":2198:2315   */\n      pop\n        /* \"#utility.yul\":2354:2356   */\n      0x20\n        /* \"#utility.yul\":2380:2433   */\n      tag_267\n        /* \"#utility.yul\":2425:2432   */\n      dup7\n        /* \"#utility.yul\":2416:2422   */\n      dup3\n        /* \"#utility.yul\":2405:2414   */\n      dup8\n        /* \"#utility.yul\":2401:2423   */\n      add\n        /* \"#utility.yul\":2380:2433   */\n      tag_183\n      jump\t// in\n    tag_267:\n        /* \"#utility.yul\":2370:2433   */\n      swap3\n      pop\n        /* \"#utility.yul\":2325:2443   */\n      pop\n        /* \"#utility.yul\":2482:2484   */\n      0x40\n        /* \"#utility.yul\":2508:2561   */\n      tag_268\n        /* \"#utility.yul\":2553:2560   */\n      dup7\n        /* \"#utility.yul\":2544:2550   */\n      dup3\n        /* \"#utility.yul\":2533:2542   */\n      dup8\n        /* \"#utility.yul\":2529:2551   */\n      add\n        /* \"#utility.yul\":2508:2561   */\n      tag_183\n      jump\t// in\n    tag_268:\n        /* \"#utility.yul\":2498:2561   */\n      swap2\n      pop\n        /* \"#utility.yul\":2453:2571   */\n      pop\n        /* \"#utility.yul\":1959:2578   */\n      swap3\n      pop\n      swap3\n      pop\n      swap3\n      jump\t// out\n        /* \"#utility.yul\":2584:2683   */\n    tag_184:\n        /* \"#utility.yul\":2636:2642   */\n      0x00\n        /* \"#utility.yul\":2670:2675   */\n      dup2\n        /* \"#utility.yul\":2664:2676   */\n      mload\n        /* \"#utility.yul\":2654:2676   */\n      swap1\n      pop\n        /* \"#utility.yul\":2584:2683   */\n      swap2\n      swap1\n      pop\n      jump\t// out\n        /* \"#utility.yul\":2689:2848   */\n    tag_185:\n        /* \"#utility.yul\":2763:2774   */\n      0x00\n        /* \"#utility.yul\":2797:2803   */\n      dup3\n        /* \"#utility.yul\":2792:2795   */\n      dup3\n        /* \"#utility.yul\":2785:2804   */\n      mstore\n        /* \"#utility.yul\":2837:2841   */\n      0x20\n        /* \"#utility.yul\":2832:2835   */\n      dup3\n        /* \"#utility.yul\":2828:2842   */\n      add\n        /* \"#utility.yul\":2813:2842   */\n      swap1\n      pop\n        /* \"#utility.yul\":2689:2848   */\n      swap3\n      swap2\n      pop\n      pop\n      jump\t// out\n        /* \"#utility.yul\":2854:3100   */\n    tag_186:\n        /* \"#utility.yul\":2935:2936   */\n      0x00\n        /* \"#utility.yul\":2945:3058   */\n    tag_272:\n        /* \"#utility.yul\":2959:2965   */\n      dup4\n        /* \"#utility.yul\":2956:2957   */\n      dup2\n        /* \"#utility.yul\":2953:2966   */\n      lt\n        /* \"#utility.yul\":2945:3058   */\n      iszero\n      tag_274\n      jumpi\n        /* \"#utility.yul\":3044:3045   */\n      dup1\n        /* \"#utility.yul\":3039:3042   */\n      dup3\n        /* \"#utility.yul\":3035:3046   */\n      add\n        /* \"#utility.yul\":3029:3047   */\n      mload\n        /* \"#utility.yul\":3025:3026   */\n      dup2\n        /* \"#utility.yul\":3020:3023   */\n      dup5\n        /* \"#utility.yul\":3016:3027   */\n      add\n        /* \"#utility.yul\":3009:3048   */\n      mstore\n        /* \"#utility.yul\":2981:2983   */\n      0x20\n        /* \"#utility.yul\":2978:2979   */\n      dup2\n        /* \"#utility.yul\":2974:2984   */\n      add\n        /* \"#utility.yul\":2969:2984   */\n      swap1\n      pop\n        /* \"#utility.yul\":2945:3058   */\n      jump(tag_272)\n    tag_274:\n        /* \"#utility.yul\":3092:3093   */\n      0x00\n        /* \"#utility.yul\":3083:3089   */\n      dup5\n        /* \"#utility.yul\":3078:3081   */\n      dup5\n        /* \"#utility.yul\":3074:3090   */\n      add\n        /* \"#utility.yul\":3067:3094   */\n      mstore\n        /* \"#utility.yul\":2916:3100   */\n      pop\n        /* \"#utility.yul\":2854:3100   */\n      pop\n      pop\n      pop\n      jump\t// out\n        /* \"#utility.yul\":3106:3208   */\n    tag_187:\n        /* \"#utility.yul\":3147:3153   */\n      0x00\n        /* \"#utility.yul\":3198:3200   */\n      0x1f\n        /* \"#utility.yul\":3194:3201   */\n      not\n        /* \"#utility.yul\":3189:3191   */\n      0x1f\n        /* \"#utility.yul\":3182:3187   */\n      dup4\n        /* \"#utility.yul\":3178:3192   */\n      add\n        /* \"#utility.yul\":3174:3202   */\n      and\n        /* \"#utility.yul\":3164:3202   */\n      swap1\n      pop\n        /* \"#utility.yul\":3106:3208   */\n      swap2\n      swap1\n      pop\n      jump\t// out\n        /* \"#utility.yul\":3214:3571   */\n    tag_188:\n        /* \"#utility.yul\":3292:3295   */\n      0x00\n        /* \"#utility.yul\":3320:3359   */\n      tag_277\n        /* \"#utility.yul\":3353:3358   */\n      dup3\n        /* \"#utility.yul\":3320:3359   */\n      tag_184\n      jump\t// in\n    tag_277:\n        /* \"#utility.yul\":3375:3436   */\n      tag_278\n        /* \"#utility.yul\":3429:3435   */\n      dup2\n        /* \"#utility.yul\":3424:3427   */\n      dup6\n        /* \"#utility.yul\":3375:3436   */\n      tag_185\n      jump\t// in\n    tag_278:\n        /* \"#utility.yul\":3368:3436   */\n      swap4\n      pop\n        /* \"#utility.yul\":3445:3510   */\n      tag_279\n        /* \"#utility.yul\":3503:3509   */\n      dup2\n        /* \"#utility.yul\":3498:3501   */\n      dup6\n        /* \"#utility.yul\":3491:3495   */\n      0x20\n        /* \"#utility.yul\":3484:3489   */\n      dup7\n        /* \"#utility.yul\":3480:3496   */\n      add\n        /* \"#utility.yul\":3445:3510   */\n      tag_186\n      jump\t// in\n    tag_279:\n        /* \"#utility.yul\":3535:3564   */\n      tag_280\n        /* \"#utility.yul\":3557:3563   */\n      dup2\n        /* \"#utility.yul\":3535:3564   */\n      tag_187\n      jump\t// in\n    tag_280:\n        /* \"#utility.yul\":3530:3533   */\n      dup5\n        /* \"#utility.yul\":3526:3565   */\n      add\n        /* \"#utility.yul\":3519:3565   */\n      swap2\n      pop\n        /* \"#utility.yul\":3296:3571   */\n      pop\n        /* \"#utility.yul\":3214:3571   */\n      swap3\n      swap2\n      pop\n      pop\n      jump\t// out\n        /* \"#utility.yul\":3577:3685   */\n    tag_189:\n        /* \"#utility.yul\":3654:3678   */\n      tag_282\n        /* \"#utility.yul\":3672:3677   */\n      dup2\n        /* \"#utility.yul\":3654:3678   */\n      tag_176\n      jump\t// in\n    tag_282:\n        /* \"#utility.yul\":3649:3652   */\n      dup3\n        /* \"#utility.yul\":3642:3679   */\n      mstore\n        /* \"#utility.yul\":3577:3685   */\n      pop\n      pop\n      jump\t// out\n        /* \"#utility.yul\":3691:3799   */\n    tag_190:\n        /* \"#utility.yul\":3768:3792   */\n      tag_284\n        /* \"#utility.yul\":3786:3791   */\n      dup2\n        /* \"#utility.yul\":3768:3792   */\n      tag_181\n      jump\t// in\n    tag_284:\n        /* \"#utility.yul\":3763:3766   */\n      dup3\n        /* \"#utility.yul\":3756:3793   */\n      mstore\n        /* \"#utility.yul\":3691:3799   */\n      pop\n      pop\n      jump\t// out\n        /* \"#utility.yul\":3805:3904   */\n    tag_191:\n        /* \"#utility.yul\":3876:3897   */\n      tag_286\n        /* \"#utility.yul\":3891:3896   */\n      dup2\n        /* \"#utility.yul\":3876:3897   */\n      tag_179\n      jump\t// in\n    tag_286:\n        /* \"#utility.yul\":3871:3874   */\n      dup3\n        /* \"#utility.yul\":3864:3898   */\n      mstore\n        /* \"#utility.yul\":3805:3904   */\n      pop\n      pop\n      jump\t// out\n        /* \"#utility.yul\":3986:5192   */\n    tag_192:\n        /* \"#utility.yul\":4103:4106   */\n      0x00\n        /* \"#utility.yul\":4139:4143   */\n      0xa0\n        /* \"#utility.yul\":4134:4137   */\n      dup4\n        /* \"#utility.yul\":4130:4144   */\n      add\n        /* \"#utility.yul\":4228:4232   */\n      0x00\n        /* \"#utility.yul\":4221:4226   */\n      dup4\n        /* \"#utility.yul\":4217:4233   */\n      add\n        /* \"#utility.yul\":4211:4234   */\n      mload\n        /* \"#utility.yul\":4281:4284   */\n      dup5\n        /* \"#utility.yul\":4275:4279   */\n      dup3\n        /* \"#utility.yul\":4271:4285   */\n      sub\n        /* \"#utility.yul\":4264:4268   */\n      0x00\n        /* \"#utility.yul\":4259:4262   */\n      dup7\n        /* \"#utility.yul\":4255:4269   */\n      add\n        /* \"#utility.yul\":4248:4286   */\n      mstore\n        /* \"#utility.yul\":4307:4380   */\n      tag_288\n        /* \"#utility.yul\":4375:4379   */\n      dup3\n        /* \"#utility.yul\":4361:4373   */\n      dup3\n        /* \"#utility.yul\":4307:4380   */\n      tag_188\n      jump\t// in\n    tag_288:\n        /* \"#utility.yul\":4299:4380   */\n      swap2\n      pop\n        /* \"#utility.yul\":4154:4391   */\n      pop\n        /* \"#utility.yul\":4475:4479   */\n      0x20\n        /* \"#utility.yul\":4468:4473   */\n      dup4\n        /* \"#utility.yul\":4464:4480   */\n      add\n        /* \"#utility.yul\":4458:4481   */\n      mload\n        /* \"#utility.yul\":4494:4557   */\n      tag_289\n        /* \"#utility.yul\":4551:4555   */\n      0x20\n        /* \"#utility.yul\":4546:4549   */\n      dup7\n        /* \"#utility.yul\":4542:4556   */\n      add\n        /* \"#utility.yul\":4528:4540   */\n      dup3\n        /* \"#utility.yul\":4494:4557   */\n      tag_189\n      jump\t// in\n    tag_289:\n        /* \"#utility.yul\":4401:4567   */\n      pop\n        /* \"#utility.yul\":4655:4659   */\n      0x40\n        /* \"#utility.yul\":4648:4653   */\n      dup4\n        /* \"#utility.yul\":4644:4660   */\n      add\n        /* \"#utility.yul\":4638:4661   */\n      mload\n        /* \"#utility.yul\":4674:4737   */\n      tag_290\n        /* \"#utility.yul\":4731:4735   */\n      0x40\n        /* \"#utility.yul\":4726:4729   */\n      dup7\n        /* \"#utility.yul\":4722:4736   */\n      add\n        /* \"#utility.yul\":4708:4720   */\n      dup3\n        /* \"#utility.yul\":4674:4737   */\n      tag_190\n      jump\t// in\n    tag_290:\n        /* \"#utility.yul\":4577:4747   */\n      pop\n        /* \"#utility.yul\":4831:4835   */\n      0x60\n        /* \"#utility.yul\":4824:4829   */\n      dup4\n        /* \"#utility.yul\":4820:4836   */\n      add\n        /* \"#utility.yul\":4814:4837   */\n      mload\n        /* \"#utility.yul\":4884:4887   */\n      dup5\n        /* \"#utility.yul\":4878:4882   */\n      dup3\n        /* \"#utility.yul\":4874:4888   */\n      sub\n        /* \"#utility.yul\":4867:4871   */\n      0x60\n        /* \"#utility.yul\":4862:4865   */\n      dup7\n        /* \"#utility.yul\":4858:4872   */\n      add\n        /* \"#utility.yul\":4851:4889   */\n      mstore\n        /* \"#utility.yul\":4910:4983   */\n      tag_291\n        /* \"#utility.yul\":4978:4982   */\n      dup3\n        /* \"#utility.yul\":4964:4976   */\n      dup3\n        /* \"#utility.yul\":4910:4983   */\n      tag_188\n      jump\t// in\n    tag_291:\n        /* \"#utility.yul\":4902:4983   */\n      swap2\n      pop\n        /* \"#utility.yul\":4757:4994   */\n      pop\n        /* \"#utility.yul\":5079:5083   */\n      0x80\n        /* \"#utility.yul\":5072:5077   */\n      dup4\n        /* \"#utility.yul\":5068:5084   */\n      add\n        /* \"#utility.yul\":5062:5085   */\n      mload\n        /* \"#utility.yul\":5098:5155   */\n      tag_292\n        /* \"#utility.yul\":5149:5153   */\n      0x80\n        /* \"#utility.yul\":5144:5147   */\n      dup7\n        /* \"#utility.yul\":5140:5154   */\n      add\n        /* \"#utility.yul\":5126:5138   */\n      dup3\n        /* \"#utility.yul\":5098:5155   */\n      tag_191\n      jump\t// in\n    tag_292:\n        /* \"#utility.yul\":5004:5165   */\n      pop\n        /* \"#utility.yul\":5182:5186   */\n      dup1\n        /* \"#utility.yul\":5175:5186   */\n      swap2\n      pop\n        /* \"#utility.yul\":4108:5192   */\n      pop\n        /* \"#utility.yul\":3986:5192   */\n      swap3\n      swap2\n      pop\n      pop\n      jump\t// out\n        /* \"#utility.yul\":5198:5567   */\n    tag_36:\n        /* \"#utility.yul\":5339:5343   */\n      0x00\n        /* \"#utility.yul\":5377:5379   */\n      0x20\n        /* \"#utility.yul\":5366:5375   */\n      dup3\n        /* \"#utility.yul\":5362:5380   */\n      add\n        /* \"#utility.yul\":5354:5380   */\n      swap1\n      pop\n        /* \"#utility.yul\":5426:5435   */\n      dup2\n        /* \"#utility.yul\":5420:5424   */\n      dup2\n        /* \"#utility.yul\":5416:5436   */\n      sub\n        /* \"#utility.yul\":5412:5413   */\n      0x00\n        /* \"#utility.yul\":5401:5410   */\n      dup4\n        /* \"#utility.yul\":5397:5414   */\n      add\n        /* \"#utility.yul\":5390:5437   */\n      mstore\n        /* \"#utility.yul\":5454:5560   */\n      tag_294\n        /* \"#utility.yul\":5555:5559   */\n      dup2\n        /* \"#utility.yul\":5546:5552   */\n      dup5\n        /* \"#utility.yul\":5454:5560   */\n      tag_192\n      jump\t// in\n    tag_294:\n        /* \"#utility.yul\":5446:5560   */\n      swap1\n      pop\n        /* \"#utility.yul\":5198:5567   */\n      swap3\n      swap2\n      pop\n      pop\n      jump\t// out\n        /* \"#utility.yul\":5573:5690   */\n    tag_193:\n        /* \"#utility.yul\":5682:5683   */\n      0x00\n        /* \"#utility.yul\":5679:5680   */\n      dup1\n        /* \"#utility.yul\":5672:5684   */\n      revert\n        /* \"#utility.yul\":5696:5813   */\n    tag_194:\n        /* \"#utility.yul\":5805:5806   */\n      0x00\n        /* \"#utility.yul\":5802:5803   */\n      dup1\n        /* \"#utility.yul\":5795:5807   */\n      revert\n        /* \"#utility.yul\":5819:5999   */\n    tag_151:\n        /* \"#utility.yul\":5867:5944   */\n      0x4e487b7100000000000000000000000000000000000000000000000000000000\n        /* \"#utility.yul\":5864:5865   */\n      0x00\n        /* \"#utility.yul\":5857:5945   */\n      mstore\n        /* \"#utility.yul\":5964:5968   */\n      0x41\n        /* \"#utility.yul\":5961:5962   */\n      0x04\n        /* \"#utility.yul\":5954:5969   */\n      mstore\n        /* \"#utility.yul\":5988:5992   */\n      0x24\n        /* \"#utility.yul\":5985:5986   */\n      0x00\n        /* \"#utility.yul\":5978:5993   */\n      revert\n        /* \"#utility.yul\":6005:6286   */\n    tag_195:\n        /* \"#utility.yul\":6088:6115   */\n      tag_299\n        /* \"#utility.yul\":6110:6114   */\n      dup3\n        /* \"#utility.yul\":6088:6115   */\n      tag_187\n      jump\t// in\n    tag_299:\n        /* \"#utility.yul\":6080:6086   */\n      dup2\n        /* \"#utility.yul\":6076:6116   */\n      add\n        /* \"#utility.yul\":6218:6224   */\n      dup2\n        /* \"#utility.yul\":6206:6216   */\n      dup2\n        /* \"#utility.yul\":6203:6225   */\n      lt\n        /* \"#utility.yul\":6182:6200   */\n      0xffffffffffffffff\n        /* \"#utility.yul\":6170:6180   */\n      dup3\n        /* \"#utility.yul\":6167:6201   */\n      gt\n        /* \"#utility.yul\":6164:6226   */\n      or\n        /* \"#utility.yul\":6161:6249   */\n      iszero\n      tag_300\n      jumpi\n        /* \"#utility.yul\":6229:6247   */\n      tag_301\n      tag_151\n      jump\t// in\n    tag_301:\n        /* \"#utility.yul\":6161:6249   */\n    tag_300:\n        /* \"#utility.yul\":6269:6279   */\n      dup1\n        /* \"#utility.yul\":6265:6267   */\n      0x40\n        /* \"#utility.yul\":6258:6280   */\n      mstore\n        /* \"#utility.yul\":6048:6286   */\n      pop\n        /* \"#utility.yul\":6005:6286   */\n      pop\n      pop\n      jump\t// out\n        /* \"#utility.yul\":6292:6421   */\n    tag_196:\n        /* \"#utility.yul\":6326:6332   */\n      0x00\n        /* \"#utility.yul\":6353:6373   */\n      tag_303\n      tag_172\n      jump\t// in\n    tag_303:\n        /* \"#utility.yul\":6343:6373   */\n      swap1\n      pop\n        /* \"#utility.yul\":6382:6415   */\n      tag_304\n        /* \"#utility.yul\":6410:6414   */\n      dup3\n        /* \"#utility.yul\":6402:6408   */\n      dup3\n        /* \"#utility.yul\":6382:6415   */\n      tag_195\n      jump\t// in\n    tag_304:\n        /* \"#utility.yul\":6292:6421   */\n      swap2\n      swap1\n      pop\n      jump\t// out\n        /* \"#utility.yul\":6427:6735   */\n    tag_197:\n        /* \"#utility.yul\":6489:6493   */\n      0x00\n        /* \"#utility.yul\":6579:6597   */\n      0xffffffffffffffff\n        /* \"#utility.yul\":6571:6577   */\n      dup3\n        /* \"#utility.yul\":6568:6598   */\n      gt\n        /* \"#utility.yul\":6565:6621   */\n      iszero\n      tag_306\n      jumpi\n        /* \"#utility.yul\":6601:6619   */\n      tag_307\n      tag_151\n      jump\t// in\n    tag_307:\n        /* \"#utility.yul\":6565:6621   */\n    tag_306:\n        /* \"#utility.yul\":6639:6668   */\n      tag_308\n        /* \"#utility.yul\":6661:6667   */\n      dup3\n        /* \"#utility.yul\":6639:6668   */\n      tag_187\n      jump\t// in\n    tag_308:\n        /* \"#utility.yul\":6631:6668   */\n      swap1\n      pop\n        /* \"#utility.yul\":6723:6727   */\n      0x20\n        /* \"#utility.yul\":6717:6721   */\n      dup2\n        /* \"#utility.yul\":6713:6728   */\n      add\n        /* \"#utility.yul\":6705:6728   */\n      swap1\n      pop\n        /* \"#utility.yul\":6427:6735   */\n      swap2\n      swap1\n      pop\n      jump\t// out\n        /* \"#utility.yul\":6741:6887   */\n    tag_198:\n        /* \"#utility.yul\":6838:6844   */\n      dup3\n        /* \"#utility.yul\":6833:6836   */\n      dup2\n        /* \"#utility.yul\":6828:6831   */\n      dup4\n        /* \"#utility.yul\":6815:6845   */\n      calldatacopy\n        /* \"#utility.yul\":6879:6880   */\n      0x00\n        /* \"#utility.yul\":6870:6876   */\n      dup4\n        /* \"#utility.yul\":6865:6868   */\n      dup4\n        /* \"#utility.yul\":6861:6877   */\n      add\n        /* \"#utility.yul\":6854:6881   */\n      mstore\n        /* \"#utility.yul\":6741:6887   */\n      pop\n      pop\n      pop\n      jump\t// out\n        /* \"#utility.yul\":6893:7318   */\n    tag_199:\n        /* \"#utility.yul\":6971:6976   */\n      0x00\n        /* \"#utility.yul\":6996:7062   */\n      tag_311\n        /* \"#utility.yul\":7012:7061   */\n      tag_312\n        /* \"#utility.yul\":7054:7060   */\n      dup5\n        /* \"#utility.yul\":7012:7061   */\n      tag_197\n      jump\t// in\n    tag_312:\n        /* \"#utility.yul\":6996:7062   */\n      tag_196\n      jump\t// in\n    tag_311:\n        /* \"#utility.yul\":6987:7062   */\n      swap1\n      pop\n        /* \"#utility.yul\":7085:7091   */\n      dup3\n        /* \"#utility.yul\":7078:7083   */\n      dup2\n        /* \"#utility.yul\":7071:7092   */\n      mstore\n        /* \"#utility.yul\":7123:7127   */\n      0x20\n        /* \"#utility.yul\":7116:7121   */\n      dup2\n        /* \"#utility.yul\":7112:7128   */\n      add\n        /* \"#utility.yul\":7161:7164   */\n      dup5\n        /* \"#utility.yul\":7152:7158   */\n      dup5\n        /* \"#utility.yul\":7147:7150   */\n      dup5\n        /* \"#utility.yul\":7143:7159   */\n      add\n        /* \"#utility.yul\":7140:7165   */\n      gt\n        /* \"#utility.yul\":7137:7249   */\n      iszero\n      tag_313\n      jumpi\n        /* \"#utility.yul\":7168:7247   */\n      tag_314\n      tag_194\n      jump\t// in\n    tag_314:\n        /* \"#utility.yul\":7137:7249   */\n    tag_313:\n        /* \"#utility.yul\":7258:7312   */\n      tag_315\n        /* \"#utility.yul\":7305:7311   */\n      dup5\n        /* \"#utility.yul\":7300:7303   */\n      dup3\n        /* \"#utility.yul\":7295:7298   */\n      dup6\n        /* \"#utility.yul\":7258:7312   */\n      tag_198\n      jump\t// in\n    tag_315:\n        /* \"#utility.yul\":6977:7318   */\n      pop\n        /* \"#utility.yul\":6893:7318   */\n      swap4\n      swap3\n      pop\n      pop\n      pop\n      jump\t// out\n        /* \"#utility.yul\":7338:7678   */\n    tag_200:\n        /* \"#utility.yul\":7394:7399   */\n      0x00\n        /* \"#utility.yul\":7443:7446   */\n      dup3\n        /* \"#utility.yul\":7436:7440   */\n      0x1f\n        /* \"#utility.yul\":7428:7434   */\n      dup4\n        /* \"#utility.yul\":7424:7441   */\n      add\n        /* \"#utility.yul\":7420:7447   */\n      slt\n        /* \"#utility.yul\":7410:7532   */\n      tag_317\n      jumpi\n        /* \"#utility.yul\":7451:7530   */\n      tag_318\n      tag_193\n      jump\t// in\n    tag_318:\n        /* \"#utility.yul\":7410:7532   */\n    tag_317:\n        /* \"#utility.yul\":7568:7574   */\n      dup2\n        /* \"#utility.yul\":7555:7575   */\n      calldataload\n        /* \"#utility.yul\":7593:7672   */\n      tag_319\n        /* \"#utility.yul\":7668:7671   */\n      dup5\n        /* \"#utility.yul\":7660:7666   */\n      dup3\n        /* \"#utility.yul\":7653:7657   */\n      0x20\n        /* \"#utility.yul\":7645:7651   */\n      dup7\n        /* \"#utility.yul\":7641:7658   */\n      add\n        /* \"#utility.yul\":7593:7672   */\n      tag_199\n      jump\t// in\n    tag_319:\n        /* \"#utility.yul\":7584:7672   */\n      swap2\n      pop\n        /* \"#utility.yul\":7400:7678   */\n      pop\n        /* \"#utility.yul\":7338:7678   */\n      swap3\n      swap2\n      pop\n      pop\n      jump\t// out\n        /* \"#utility.yul\":7684:8518   */\n    tag_39:\n        /* \"#utility.yul\":7772:7778   */\n      0x00\n        /* \"#utility.yul\":7780:7786   */\n      dup1\n        /* \"#utility.yul\":7829:7831   */\n      0x40\n        /* \"#utility.yul\":7817:7826   */\n      dup4\n        /* \"#utility.yul\":7808:7815   */\n      dup6\n        /* \"#utility.yul\":7804:7827   */\n      sub\n        /* \"#utility.yul\":7800:7832   */\n      slt\n        /* \"#utility.yul\":7797:7916   */\n      iszero\n      tag_321\n      jumpi\n        /* \"#utility.yul\":7835:7914   */\n      tag_322\n      tag_173\n      jump\t// in\n    tag_322:\n        /* \"#utility.yul\":7797:7916   */\n    tag_321:\n        /* \"#utility.yul\":7983:7984   */\n      0x00\n        /* \"#utility.yul\":7972:7981   */\n      dup4\n        /* \"#utility.yul\":7968:7985   */\n      add\n        /* \"#utility.yul\":7955:7986   */\n      calldataload\n        /* \"#utility.yul\":8013:8031   */\n      0xffffffffffffffff\n        /* \"#utility.yul\":8005:8011   */\n      dup2\n        /* \"#utility.yul\":8002:8032   */\n      gt\n        /* \"#utility.yul\":7999:8116   */\n      iszero\n      tag_323\n      jumpi\n        /* \"#utility.yul\":8035:8114   */\n      tag_324\n      tag_174\n      jump\t// in\n    tag_324:\n        /* \"#utility.yul\":7999:8116   */\n    tag_323:\n        /* \"#utility.yul\":8140:8203   */\n      tag_325\n        /* \"#utility.yul\":8195:8202   */\n      dup6\n        /* \"#utility.yul\":8186:8192   */\n      dup3\n        /* \"#utility.yul\":8175:8184   */\n      dup7\n        /* \"#utility.yul\":8171:8193   */\n      add\n        /* \"#utility.yul\":8140:8203   */\n      tag_200\n      jump\t// in\n    tag_325:\n        /* \"#utility.yul\":8130:8203   */\n      swap3\n      pop\n        /* \"#utility.yul\":7926:8213   */\n      pop\n        /* \"#utility.yul\":8280:8282   */\n      0x20\n        /* \"#utility.yul\":8269:8278   */\n      dup4\n        /* \"#utility.yul\":8265:8283   */\n      add\n        /* \"#utility.yul\":8252:8284   */\n      calldataload\n        /* \"#utility.yul\":8311:8329   */\n      0xffffffffffffffff\n        /* \"#utility.yul\":8303:8309   */\n      dup2\n        /* \"#utility.yul\":8300:8330   */\n      gt\n        /* \"#utility.yul\":8297:8414   */\n      iszero\n      tag_326\n      jumpi\n        /* \"#utility.yul\":8333:8412   */\n      tag_327\n      tag_174\n      jump\t// in\n    tag_327:\n        /* \"#utility.yul\":8297:8414   */\n    tag_326:\n        /* \"#utility.yul\":8438:8501   */\n      tag_328\n        /* \"#utility.yul\":8493:8500   */\n      dup6\n        /* \"#utility.yul\":8484:8490   */\n      dup3\n        /* \"#utility.yul\":8473:8482   */\n      dup7\n        /* \"#utility.yul\":8469:8491   */\n      add\n        /* \"#utility.yul\":8438:8501   */\n      tag_200\n      jump\t// in\n    tag_328:\n        /* \"#utility.yul\":8428:8501   */\n      swap2\n      pop\n        /* \"#utility.yul\":8223:8511   */\n      pop\n        /* \"#utility.yul\":7684:8518   */\n      swap3\n      pop\n      swap3\n      swap1\n      pop\n      jump\t// out\n        /* \"#utility.yul\":8524:8998   */\n    tag_44:\n        /* \"#utility.yul\":8592:8598   */\n      0x00\n        /* \"#utility.yul\":8600:8606   */\n      dup1\n        /* \"#utility.yul\":8649:8651   */\n      0x40\n        /* \"#utility.yul\":8637:8646   */\n      dup4\n        /* \"#utility.yul\":8628:8635   */\n      dup6\n        /* \"#utility.yul\":8624:8647   */\n      sub\n        /* \"#utility.yul\":8620:8652   */\n      slt\n        /* \"#utility.yul\":8617:8736   */\n      iszero\n      tag_330\n      jumpi\n        /* \"#utility.yul\":8655:8734   */\n      tag_331\n      tag_173\n      jump\t// in\n    tag_331:\n        /* \"#utility.yul\":8617:8736   */\n    tag_330:\n        /* \"#utility.yul\":8775:8776   */\n      0x00\n        /* \"#utility.yul\":8800:8853   */\n      tag_332\n        /* \"#utility.yul\":8845:8852   */\n      dup6\n        /* \"#utility.yul\":8836:8842   */\n      dup3\n        /* \"#utility.yul\":8825:8834   */\n      dup7\n        /* \"#utility.yul\":8821:8843   */\n      add\n        /* \"#utility.yul\":8800:8853   */\n      tag_183\n      jump\t// in\n    tag_332:\n        /* \"#utility.yul\":8790:8853   */\n      swap3\n      pop\n        /* \"#utility.yul\":8746:8863   */\n      pop\n        /* \"#utility.yul\":8902:8904   */\n      0x20\n        /* \"#utility.yul\":8928:8981   */\n      tag_333\n        /* \"#utility.yul\":8973:8980   */\n      dup6\n        /* \"#utility.yul\":8964:8970   */\n      dup3\n        /* \"#utility.yul\":8953:8962   */\n      dup7\n        /* \"#utility.yul\":8949:8971   */\n      add\n        /* \"#utility.yul\":8928:8981   */\n      tag_183\n      jump\t// in\n    tag_333:\n        /* \"#utility.yul\":8918:8981   */\n      swap2\n      pop\n        /* \"#utility.yul\":8873:8991   */\n      pop\n        /* \"#utility.yul\":8524:8998   */\n      swap3\n      pop\n      swap3\n      swap1\n      pop\n      jump\t// out\n        /* \"#utility.yul\":9004:9122   */\n    tag_201:\n        /* \"#utility.yul\":9091:9115   */\n      tag_335\n        /* \"#utility.yul\":9109:9114   */\n      dup2\n        /* \"#utility.yul\":9091:9115   */\n      tag_181\n      jump\t// in\n    tag_335:\n        /* \"#utility.yul\":9086:9089   */\n      dup3\n        /* \"#utility.yul\":9079:9116   */\n      mstore\n        /* \"#utility.yul\":9004:9122   */\n      pop\n      pop\n      jump\t// out\n        /* \"#utility.yul\":9128:9350   */\n    tag_47:\n        /* \"#utility.yul\":9221:9225   */\n      0x00\n        /* \"#utility.yul\":9259:9261   */\n      0x20\n        /* \"#utility.yul\":9248:9257   */\n      dup3\n        /* \"#utility.yul\":9244:9262   */\n      add\n        /* \"#utility.yul\":9236:9262   */\n      swap1\n      pop\n        /* \"#utility.yul\":9272:9343   */\n      tag_337\n        /* \"#utility.yul\":9340:9341   */\n      0x00\n        /* \"#utility.yul\":9329:9338   */\n      dup4\n        /* \"#utility.yul\":9325:9342   */\n      add\n        /* \"#utility.yul\":9316:9322   */\n      dup5\n        /* \"#utility.yul\":9272:9343   */\n      tag_201\n      jump\t// in\n    tag_337:\n        /* \"#utility.yul\":9128:9350   */\n      swap3\n      swap2\n      pop\n      pop\n      jump\t// out\n        /* \"#utility.yul\":9356:9830   */\n    tag_54:\n        /* \"#utility.yul\":9424:9430   */\n      0x00\n        /* \"#utility.yul\":9432:9438   */\n      dup1\n        /* \"#utility.yul\":9481:9483   */\n      0x40\n        /* \"#utility.yul\":9469:9478   */\n      dup4\n        /* \"#utility.yul\":9460:9467   */\n      dup6\n        /* \"#utility.yul\":9456:9479   */\n      sub\n        /* \"#utility.yul\":9452:9484   */\n      slt\n        /* \"#utility.yul\":9449:9568   */\n      iszero\n      tag_339\n      jumpi\n        /* \"#utility.yul\":9487:9566   */\n      tag_340\n      tag_173\n      jump\t// in\n    tag_340:\n        /* \"#utility.yul\":9449:9568   */\n    tag_339:\n        /* \"#utility.yul\":9607:9608   */\n      0x00\n        /* \"#utility.yul\":9632:9685   */\n      tag_341\n        /* \"#utility.yul\":9677:9684   */\n      dup6\n        /* \"#utility.yul\":9668:9674   */\n      dup3\n        /* \"#utility.yul\":9657:9666   */\n      dup7\n        /* \"#utility.yul\":9653:9675   */\n      add\n        /* \"#utility.yul\":9632:9685   */\n      tag_178\n      jump\t// in\n    tag_341:\n        /* \"#utility.yul\":9622:9685   */\n      swap3\n      pop\n        /* \"#utility.yul\":9578:9695   */\n      pop\n        /* \"#utility.yul\":9734:9736   */\n      0x20\n        /* \"#utility.yul\":9760:9813   */\n      tag_342\n        /* \"#utility.yul\":9805:9812   */\n      dup6\n        /* \"#utility.yul\":9796:9802   */\n      dup3\n        /* \"#utility.yul\":9785:9794   */\n      dup7\n        /* \"#utility.yul\":9781:9803   */\n      add\n        /* \"#utility.yul\":9760:9813   */\n      tag_183\n      jump\t// in\n    tag_342:\n        /* \"#utility.yul\":9750:9813   */\n      swap2\n      pop\n        /* \"#utility.yul\":9705:9823   */\n      pop\n        /* \"#utility.yul\":9356:9830   */\n      swap3\n      pop\n      swap3\n      swap1\n      pop\n      jump\t// out\n        /* \"#utility.yul\":9836:10165   */\n    tag_59:\n        /* \"#utility.yul\":9895:9901   */\n      0x00\n        /* \"#utility.yul\":9944:9946   */\n      0x20\n        /* \"#utility.yul\":9932:9941   */\n      dup3\n        /* \"#utility.yul\":9923:9930   */\n      dup5\n        /* \"#utility.yul\":9919:9942   */\n      sub\n        /* \"#utility.yul\":9915:9947   */\n      slt\n        /* \"#utility.yul\":9912:10031   */\n      iszero\n      tag_344\n      jumpi\n        /* \"#utility.yul\":9950:10029   */\n      tag_345\n      tag_173\n      jump\t// in\n    tag_345:\n        /* \"#utility.yul\":9912:10031   */\n    tag_344:\n        /* \"#utility.yul\":10070:10071   */\n      0x00\n        /* \"#utility.yul\":10095:10148   */\n      tag_346\n        /* \"#utility.yul\":10140:10147   */\n      dup5\n        /* \"#utility.yul\":10131:10137   */\n      dup3\n        /* \"#utility.yul\":10120:10129   */\n      dup6\n        /* \"#utility.yul\":10116:10138   */\n      add\n        /* \"#utility.yul\":10095:10148   */\n      tag_183\n      jump\t// in\n    tag_346:\n        /* \"#utility.yul\":10085:10148   */\n      swap2\n      pop\n        /* \"#utility.yul\":10041:10158   */\n      pop\n        /* \"#utility.yul\":9836:10165   */\n      swap3\n      swap2\n      pop\n      pop\n      jump\t// out\n        /* \"#utility.yul\":10171:10351   */\n    tag_202:\n        /* \"#utility.yul\":10219:10296   */\n      0x4e487b7100000000000000000000000000000000000000000000000000000000\n        /* \"#utility.yul\":10216:10217   */\n      0x00\n        /* \"#utility.yul\":10209:10297   */\n      mstore\n        /* \"#utility.yul\":10316:10320   */\n      0x22\n        /* \"#utility.yul\":10313:10314   */\n      0x04\n        /* \"#utility.yul\":10306:10321   */\n      mstore\n        /* \"#utility.yul\":10340:10344   */\n      0x24\n        /* \"#utility.yul\":10337:10338   */\n      0x00\n        /* \"#utility.yul\":10330:10345   */\n      revert\n        /* \"#utility.yul\":10357:10677   */\n    tag_69:\n        /* \"#utility.yul\":10401:10407   */\n      0x00\n        /* \"#utility.yul\":10438:10439   */\n      0x02\n        /* \"#utility.yul\":10432:10436   */\n      dup3\n        /* \"#utility.yul\":10428:10440   */\n      div\n        /* \"#utility.yul\":10418:10440   */\n      swap1\n      pop\n        /* \"#utility.yul\":10485:10486   */\n      0x01\n        /* \"#utility.yul\":10479:10483   */\n      dup3\n        /* \"#utility.yul\":10475:10487   */\n      and\n        /* \"#utility.yul\":10506:10524   */\n      dup1\n        /* \"#utility.yul\":10496:10577   */\n      tag_349\n      jumpi\n        /* \"#utility.yul\":10562:10566   */\n      0x7f\n        /* \"#utility.yul\":10554:10560   */\n      dup3\n        /* \"#utility.yul\":10550:10567   */\n      and\n        /* \"#utility.yul\":10540:10567   */\n      swap2\n      pop\n        /* \"#utility.yul\":10496:10577   */\n    tag_349:\n        /* \"#utility.yul\":10624:10626   */\n      0x20\n        /* \"#utility.yul\":10616:10622   */\n      dup3\n        /* \"#utility.yul\":10613:10627   */\n      lt\n        /* \"#utility.yul\":10593:10611   */\n      dup2\n        /* \"#utility.yul\":10590:10628   */\n      sub\n        /* \"#utility.yul\":10587:10671   */\n      tag_350\n      jumpi\n        /* \"#utility.yul\":10643:10661   */\n      tag_351\n      tag_202\n      jump\t// in\n    tag_351:\n        /* \"#utility.yul\":10587:10671   */\n    tag_350:\n        /* \"#utility.yul\":10408:10677   */\n      pop\n        /* \"#utility.yul\":10357:10677   */\n      swap2\n      swap1\n      pop\n      jump\t// out\n        /* \"#utility.yul\":10683:10831   */\n    tag_203:\n        /* \"#utility.yul\":10785:10796   */\n      0x00\n        /* \"#utility.yul\":10822:10825   */\n      dup2\n        /* \"#utility.yul\":10807:10825   */\n      swap1\n      pop\n        /* \"#utility.yul\":10683:10831   */\n      swap3\n      swap2\n      pop\n      pop\n      jump\t// out\n        /* \"#utility.yul\":10837:10978   */\n    tag_204:\n        /* \"#utility.yul\":10886:10890   */\n      0x00\n        /* \"#utility.yul\":10909:10912   */\n      dup2\n        /* \"#utility.yul\":10901:10912   */\n      swap1\n      pop\n        /* \"#utility.yul\":10932:10935   */\n      dup2\n        /* \"#utility.yul\":10929:10930   */\n      0x00\n        /* \"#utility.yul\":10922:10936   */\n      mstore\n        /* \"#utility.yul\":10966:10970   */\n      0x20\n        /* \"#utility.yul\":10963:10964   */\n      0x00\n        /* \"#utility.yul\":10953:10971   */\n      keccak256\n        /* \"#utility.yul\":10945:10971   */\n      swap1\n      pop\n        /* \"#utility.yul\":10837:10978   */\n      swap2\n      swap1\n      pop\n      jump\t// out\n        /* \"#utility.yul\":11008:11882   */\n    tag_205:\n        /* \"#utility.yul\":11111:11114   */\n      0x00\n        /* \"#utility.yul\":11148:11153   */\n      dup2\n        /* \"#utility.yul\":11142:11154   */\n      sload\n        /* \"#utility.yul\":11177:11213   */\n      tag_355\n        /* \"#utility.yul\":11203:11212   */\n      dup2\n        /* \"#utility.yul\":11177:11213   */\n      tag_69\n      jump\t// in\n    tag_355:\n        /* \"#utility.yul\":11229:11318   */\n      tag_356\n        /* \"#utility.yul\":11311:11317   */\n      dup2\n        /* \"#utility.yul\":11306:11309   */\n      dup7\n        /* \"#utility.yul\":11229:11318   */\n      tag_203\n      jump\t// in\n    tag_356:\n        /* \"#utility.yul\":11222:11318   */\n      swap5\n      pop\n        /* \"#utility.yul\":11349:11350   */\n      0x01\n        /* \"#utility.yul\":11338:11347   */\n      dup3\n        /* \"#utility.yul\":11334:11351   */\n      and\n        /* \"#utility.yul\":11365:11366   */\n      0x00\n        /* \"#utility.yul\":11360:11526   */\n      dup2\n      eq\n      tag_358\n      jumpi\n        /* \"#utility.yul\":11540:11541   */\n      0x01\n        /* \"#utility.yul\":11535:11876   */\n      dup2\n      eq\n      tag_359\n      jumpi\n        /* \"#utility.yul\":11327:11876   */\n      jump(tag_357)\n        /* \"#utility.yul\":11360:11526   */\n    tag_358:\n        /* \"#utility.yul\":11444:11448   */\n      0xff\n        /* \"#utility.yul\":11440:11449   */\n      not\n        /* \"#utility.yul\":11429:11438   */\n      dup4\n        /* \"#utility.yul\":11425:11450   */\n      and\n        /* \"#utility.yul\":11420:11423   */\n      dup7\n        /* \"#utility.yul\":11413:11451   */\n      mstore\n        /* \"#utility.yul\":11506:11512   */\n      dup2\n        /* \"#utility.yul\":11499:11513   */\n      iszero\n        /* \"#utility.yul\":11492:11514   */\n      iszero\n        /* \"#utility.yul\":11484:11490   */\n      dup3\n        /* \"#utility.yul\":11480:11515   */\n      mul\n        /* \"#utility.yul\":11475:11478   */\n      dup7\n        /* \"#utility.yul\":11471:11516   */\n      add\n        /* \"#utility.yul\":11464:11516   */\n      swap4\n      pop\n        /* \"#utility.yul\":11360:11526   */\n      jump(tag_357)\n        /* \"#utility.yul\":11535:11876   */\n    tag_359:\n        /* \"#utility.yul\":11602:11640   */\n      tag_360\n        /* \"#utility.yul\":11634:11639   */\n      dup6\n        /* \"#utility.yul\":11602:11640   */\n      tag_204\n      jump\t// in\n    tag_360:\n        /* \"#utility.yul\":11662:11663   */\n      0x00\n        /* \"#utility.yul\":11676:11830   */\n    tag_361:\n        /* \"#utility.yul\":11690:11696   */\n      dup4\n        /* \"#utility.yul\":11687:11688   */\n      dup2\n        /* \"#utility.yul\":11684:11697   */\n      lt\n        /* \"#utility.yul\":11676:11830   */\n      iszero\n      tag_363\n      jumpi\n        /* \"#utility.yul\":11764:11771   */\n      dup2\n        /* \"#utility.yul\":11758:11772   */\n      sload\n        /* \"#utility.yul\":11754:11755   */\n      dup2\n        /* \"#utility.yul\":11749:11752   */\n      dup10\n        /* \"#utility.yul\":11745:11756   */\n      add\n        /* \"#utility.yul\":11738:11773   */\n      mstore\n        /* \"#utility.yul\":11814:11815   */\n      0x01\n        /* \"#utility.yul\":11805:11812   */\n      dup3\n        /* \"#utility.yul\":11801:11816   */\n      add\n        /* \"#utility.yul\":11790:11816   */\n      swap2\n      pop\n        /* \"#utility.yul\":11712:11716   */\n      0x20\n        /* \"#utility.yul\":11709:11710   */\n      dup2\n        /* \"#utility.yul\":11705:11717   */\n      add\n        /* \"#utility.yul\":11700:11717   */\n      swap1\n      pop\n        /* \"#utility.yul\":11676:11830   */\n      jump(tag_361)\n    tag_363:\n        /* \"#utility.yul\":11859:11865   */\n      dup4\n        /* \"#utility.yul\":11854:11857   */\n      dup9\n        /* \"#utility.yul\":11850:11866   */\n      add\n        /* \"#utility.yul\":11843:11866   */\n      swap6\n      pop\n        /* \"#utility.yul\":11542:11876   */\n      pop\n      pop\n        /* \"#utility.yul\":11327:11876   */\n    tag_357:\n      pop\n        /* \"#utility.yul\":11115:11882   */\n      pop\n      pop\n        /* \"#utility.yul\":11008:11882   */\n      swap3\n      swap2\n      pop\n      pop\n      jump\t// out\n        /* \"#utility.yul\":11888:12157   */\n    tag_64:\n        /* \"#utility.yul\":12017:12020   */\n      0x00\n        /* \"#utility.yul\":12039:12131   */\n      tag_365\n        /* \"#utility.yul\":12127:12130   */\n      dup3\n        /* \"#utility.yul\":12118:12124   */\n      dup5\n        /* \"#utility.yul\":12039:12131   */\n      tag_205\n      jump\t// in\n    tag_365:\n        /* \"#utility.yul\":12032:12131   */\n      swap2\n      pop\n        /* \"#utility.yul\":12148:12151   */\n      dup2\n        /* \"#utility.yul\":12141:12151   */\n      swap1\n      pop\n        /* \"#utility.yul\":11888:12157   */\n      swap3\n      swap2\n      pop\n      pop\n      jump\t// out\n        /* \"#utility.yul\":12163:12553   */\n    tag_206:\n        /* \"#utility.yul\":12269:12272   */\n      0x00\n        /* \"#utility.yul\":12297:12336   */\n      tag_367\n        /* \"#utility.yul\":12330:12335   */\n      dup3\n        /* \"#utility.yul\":12297:12336   */\n      tag_184\n      jump\t// in\n    tag_367:\n        /* \"#utility.yul\":12352:12441   */\n      tag_368\n        /* \"#utility.yul\":12434:12440   */\n      dup2\n        /* \"#utility.yul\":12429:12432   */\n      dup6\n        /* \"#utility.yul\":12352:12441   */\n      tag_203\n      jump\t// in\n    tag_368:\n        /* \"#utility.yul\":12345:12441   */\n      swap4\n      pop\n        /* \"#utility.yul\":12450:12515   */\n      tag_369\n        /* \"#utility.yul\":12508:12514   */\n      dup2\n        /* \"#utility.yul\":12503:12506   */\n      dup6\n        /* \"#utility.yul\":12496:12500   */\n      0x20\n        /* \"#utility.yul\":12489:12494   */\n      dup7\n        /* \"#utility.yul\":12485:12501   */\n      add\n        /* \"#utility.yul\":12450:12515   */\n      tag_186\n      jump\t// in\n    tag_369:\n        /* \"#utility.yul\":12540:12546   */\n      dup1\n        /* \"#utility.yul\":12535:12538   */\n      dup5\n        /* \"#utility.yul\":12531:12547   */\n      add\n        /* \"#utility.yul\":12524:12547   */\n      swap2\n      pop\n        /* \"#utility.yul\":12273:12553   */\n      pop\n        /* \"#utility.yul\":12163:12553   */\n      swap3\n      swap2\n      pop\n      pop\n      jump\t// out\n        /* \"#utility.yul\":12559:12834   */\n    tag_75:\n        /* \"#utility.yul\":12691:12694   */\n      0x00\n        /* \"#utility.yul\":12713:12808   */\n      tag_371\n        /* \"#utility.yul\":12804:12807   */\n      dup3\n        /* \"#utility.yul\":12795:12801   */\n      dup5\n        /* \"#utility.yul\":12713:12808   */\n      tag_206\n      jump\t// in\n    tag_371:\n        /* \"#utility.yul\":12706:12808   */\n      swap2\n      pop\n        /* \"#utility.yul\":12825:12828   */\n      dup2\n        /* \"#utility.yul\":12818:12828   */\n      swap1\n      pop\n        /* \"#utility.yul\":12559:12834   */\n      swap3\n      swap2\n      pop\n      pop\n      jump\t// out\n        /* \"#utility.yul\":12840:13009   */\n    tag_207:\n        /* \"#utility.yul\":12924:12935   */\n      0x00\n        /* \"#utility.yul\":12958:12964   */\n      dup3\n        /* \"#utility.yul\":12953:12956   */\n      dup3\n        /* \"#utility.yul\":12946:12965   */\n      mstore\n        /* \"#utility.yul\":12998:13002   */\n      0x20\n        /* \"#utility.yul\":12993:12996   */\n      dup3\n        /* \"#utility.yul\":12989:13003   */\n      add\n        /* \"#utility.yul\":12974:13003   */\n      swap1\n      pop\n        /* \"#utility.yul\":12840:13009   */\n      swap3\n      swap2\n      pop\n      pop\n      jump\t// out\n        /* \"#utility.yul\":13015:13238   */\n    tag_208:\n        /* \"#utility.yul\":13155:13189   */\n      0x557365723a616464726573732063616e27742062652061207a65726f20616464\n        /* \"#utility.yul\":13151:13152   */\n      0x00\n        /* \"#utility.yul\":13143:13149   */\n      dup3\n        /* \"#utility.yul\":13139:13153   */\n      add\n        /* \"#utility.yul\":13132:13190   */\n      mstore\n        /* \"#utility.yul\":13224:13230   */\n      0x7265737300000000000000000000000000000000000000000000000000000000\n        /* \"#utility.yul\":13219:13221   */\n      0x20\n        /* \"#utility.yul\":13211:13217   */\n      dup3\n        /* \"#utility.yul\":13207:13222   */\n      add\n        /* \"#utility.yul\":13200:13231   */\n      mstore\n        /* \"#utility.yul\":13015:13238   */\n      pop\n      jump\t// out\n        /* \"#utility.yul\":13244:13610   */\n    tag_209:\n        /* \"#utility.yul\":13386:13389   */\n      0x00\n        /* \"#utility.yul\":13407:13474   */\n      tag_375\n        /* \"#utility.yul\":13471:13473   */\n      0x24\n        /* \"#utility.yul\":13466:13469   */\n      dup4\n        /* \"#utility.yul\":13407:13474   */\n      tag_207\n      jump\t// in\n    tag_375:\n        /* \"#utility.yul\":13400:13474   */\n      swap2\n      pop\n        /* \"#utility.yul\":13483:13576   */\n      tag_376\n        /* \"#utility.yul\":13572:13575   */\n      dup3\n        /* \"#utility.yul\":13483:13576   */\n      tag_208\n      jump\t// in\n    tag_376:\n        /* \"#utility.yul\":13601:13603   */\n      0x40\n        /* \"#utility.yul\":13596:13599   */\n      dup3\n        /* \"#utility.yul\":13592:13604   */\n      add\n        /* \"#utility.yul\":13585:13604   */\n      swap1\n      pop\n        /* \"#utility.yul\":13244:13610   */\n      swap2\n      swap1\n      pop\n      jump\t// out\n        /* \"#utility.yul\":13616:14035   */\n    tag_79:\n        /* \"#utility.yul\":13782:13786   */\n      0x00\n        /* \"#utility.yul\":13820:13822   */\n      0x20\n        /* \"#utility.yul\":13809:13818   */\n      dup3\n        /* \"#utility.yul\":13805:13823   */\n      add\n        /* \"#utility.yul\":13797:13823   */\n      swap1\n      pop\n        /* \"#utility.yul\":13869:13878   */\n      dup2\n        /* \"#utility.yul\":13863:13867   */\n      dup2\n        /* \"#utility.yul\":13859:13879   */\n      sub\n        /* \"#utility.yul\":13855:13856   */\n      0x00\n        /* \"#utility.yul\":13844:13853   */\n      dup4\n        /* \"#utility.yul\":13840:13857   */\n      add\n        /* \"#utility.yul\":13833:13880   */\n      mstore\n        /* \"#utility.yul\":13897:14028   */\n      tag_378\n        /* \"#utility.yul\":14023:14027   */\n      dup2\n        /* \"#utility.yul\":13897:14028   */\n      tag_209\n      jump\t// in\n    tag_378:\n        /* \"#utility.yul\":13889:14028   */\n      swap1\n      pop\n        /* \"#utility.yul\":13616:14035   */\n      swap2\n      swap1\n      pop\n      jump\t// out\n        /* \"#utility.yul\":14041:14220   */\n    tag_210:\n        /* \"#utility.yul\":14181:14212   */\n      0x557365723a7468652061646472657373206861766e277420626f756e64000000\n        /* \"#utility.yul\":14177:14178   */\n      0x00\n        /* \"#utility.yul\":14169:14175   */\n      dup3\n        /* \"#utility.yul\":14165:14179   */\n      add\n        /* \"#utility.yul\":14158:14213   */\n      mstore\n        /* \"#utility.yul\":14041:14220   */\n      pop\n      jump\t// out\n        /* \"#utility.yul\":14226:14592   */\n    tag_211:\n        /* \"#utility.yul\":14368:14371   */\n      0x00\n        /* \"#utility.yul\":14389:14456   */\n      tag_381\n        /* \"#utility.yul\":14453:14455   */\n      0x1d\n        /* \"#utility.yul\":14448:14451   */\n      dup4\n        /* \"#utility.yul\":14389:14456   */\n      tag_207\n      jump\t// in\n    tag_381:\n        /* \"#utility.yul\":14382:14456   */\n      swap2\n      pop\n        /* \"#utility.yul\":14465:14558   */\n      tag_382\n        /* \"#utility.yul\":14554:14557   */\n      dup3\n        /* \"#utility.yul\":14465:14558   */\n      tag_210\n      jump\t// in\n    tag_382:\n        /* \"#utility.yul\":14583:14585   */\n      0x20\n        /* \"#utility.yul\":14578:14581   */\n      dup3\n        /* \"#utility.yul\":14574:14586   */\n      add\n        /* \"#utility.yul\":14567:14586   */\n      swap1\n      pop\n        /* \"#utility.yul\":14226:14592   */\n      swap2\n      swap1\n      pop\n      jump\t// out\n        /* \"#utility.yul\":14598:15017   */\n    tag_88:\n        /* \"#utility.yul\":14764:14768   */\n      0x00\n        /* \"#utility.yul\":14802:14804   */\n      0x20\n        /* \"#utility.yul\":14791:14800   */\n      dup3\n        /* \"#utility.yul\":14787:14805   */\n      add\n        /* \"#utility.yul\":14779:14805   */\n      swap1\n      pop\n        /* \"#utility.yul\":14851:14860   */\n      dup2\n        /* \"#utility.yul\":14845:14849   */\n      dup2\n        /* \"#utility.yul\":14841:14861   */\n      sub\n        /* \"#utility.yul\":14837:14838   */\n      0x00\n        /* \"#utility.yul\":14826:14835   */\n      dup4\n        /* \"#utility.yul\":14822:14839   */\n      add\n        /* \"#utility.yul\":14815:14862   */\n      mstore\n        /* \"#utility.yul\":14879:15010   */\n      tag_384\n        /* \"#utility.yul\":15005:15009   */\n      dup2\n        /* \"#utility.yul\":14879:15010   */\n      tag_211\n      jump\t// in\n    tag_384:\n        /* \"#utility.yul\":14871:15010   */\n      swap1\n      pop\n        /* \"#utility.yul\":14598:15017   */\n      swap2\n      swap1\n      pop\n      jump\t// out\n        /* \"#utility.yul\":15023:15195   */\n    tag_212:\n        /* \"#utility.yul\":15163:15187   */\n      0x557365723a494420697320626c61636b6c697374656400000000000000000000\n        /* \"#utility.yul\":15159:15160   */\n      0x00\n        /* \"#utility.yul\":15151:15157   */\n      dup3\n        /* \"#utility.yul\":15147:15161   */\n      add\n        /* \"#utility.yul\":15140:15188   */\n      mstore\n        /* \"#utility.yul\":15023:15195   */\n      pop\n      jump\t// out\n        /* \"#utility.yul\":15201:15567   */\n    tag_213:\n        /* \"#utility.yul\":15343:15346   */\n      0x00\n        /* \"#utility.yul\":15364:15431   */\n      tag_387\n        /* \"#utility.yul\":15428:15430   */\n      0x16\n        /* \"#utility.yul\":15423:15426   */\n      dup4\n        /* \"#utility.yul\":15364:15431   */\n      tag_207\n      jump\t// in\n    tag_387:\n        /* \"#utility.yul\":15357:15431   */\n      swap2\n      pop\n        /* \"#utility.yul\":15440:15533   */\n      tag_388\n        /* \"#utility.yul\":15529:15532   */\n      dup3\n        /* \"#utility.yul\":15440:15533   */\n      tag_212\n      jump\t// in\n    tag_388:\n        /* \"#utility.yul\":15558:15560   */\n      0x20\n        /* \"#utility.yul\":15553:15556   */\n      dup3\n        /* \"#utility.yul\":15549:15561   */\n      add\n        /* \"#utility.yul\":15542:15561   */\n      swap1\n      pop\n        /* \"#utility.yul\":15201:15567   */\n      swap2\n      swap1\n      pop\n      jump\t// out\n        /* \"#utility.yul\":15573:15992   */\n    tag_105:\n        /* \"#utility.yul\":15739:15743   */\n      0x00\n        /* \"#utility.yul\":15777:15779   */\n      0x20\n        /* \"#utility.yul\":15766:15775   */\n      dup3\n        /* \"#utility.yul\":15762:15780   */\n      add\n        /* \"#utility.yul\":15754:15780   */\n      swap1\n      pop\n        /* \"#utility.yul\":15826:15835   */\n      dup2\n        /* \"#utility.yul\":15820:15824   */\n      dup2\n        /* \"#utility.yul\":15816:15836   */\n      sub\n        /* \"#utility.yul\":15812:15813   */\n      0x00\n        /* \"#utility.yul\":15801:15810   */\n      dup4\n        /* \"#utility.yul\":15797:15814   */\n      add\n        /* \"#utility.yul\":15790:15837   */\n      mstore\n        /* \"#utility.yul\":15854:15985   */\n      tag_390\n        /* \"#utility.yul\":15980:15984   */\n      dup2\n        /* \"#utility.yul\":15854:15985   */\n      tag_213\n      jump\t// in\n    tag_390:\n        /* \"#utility.yul\":15846:15985   */\n      swap1\n      pop\n        /* \"#utility.yul\":15573:15992   */\n      swap2\n      swap1\n      pop\n      jump\t// out\n        /* \"#utility.yul\":15998:16174   */\n    tag_214:\n        /* \"#utility.yul\":16138:16166   */\n      0x557365723a4164647265737320616c726561647920626f756e64000000000000\n        /* \"#utility.yul\":16134:16135   */\n      0x00\n        /* \"#utility.yul\":16126:16132   */\n      dup3\n        /* \"#utility.yul\":16122:16136   */\n      add\n        /* \"#utility.yul\":16115:16167   */\n      mstore\n        /* \"#utility.yul\":15998:16174   */\n      pop\n      jump\t// out\n        /* \"#utility.yul\":16180:16546   */\n    tag_215:\n        /* \"#utility.yul\":16322:16325   */\n      0x00\n        /* \"#utility.yul\":16343:16410   */\n      tag_393\n        /* \"#utility.yul\":16407:16409   */\n      0x1a\n        /* \"#utility.yul\":16402:16405   */\n      dup4\n        /* \"#utility.yul\":16343:16410   */\n      tag_207\n      jump\t// in\n    tag_393:\n        /* \"#utility.yul\":16336:16410   */\n      swap2\n      pop\n        /* \"#utility.yul\":16419:16512   */\n      tag_394\n        /* \"#utility.yul\":16508:16511   */\n      dup3\n        /* \"#utility.yul\":16419:16512   */\n      tag_214\n      jump\t// in\n    tag_394:\n        /* \"#utility.yul\":16537:16539   */\n      0x20\n        /* \"#utility.yul\":16532:16535   */\n      dup3\n        /* \"#utility.yul\":16528:16540   */\n      add\n        /* \"#utility.yul\":16521:16540   */\n      swap1\n      pop\n        /* \"#utility.yul\":16180:16546   */\n      swap2\n      swap1\n      pop\n      jump\t// out\n        /* \"#utility.yul\":16552:16971   */\n    tag_108:\n        /* \"#utility.yul\":16718:16722   */\n      0x00\n        /* \"#utility.yul\":16756:16758   */\n      0x20\n        /* \"#utility.yul\":16745:16754   */\n      dup3\n        /* \"#utility.yul\":16741:16759   */\n      add\n        /* \"#utility.yul\":16733:16759   */\n      swap1\n      pop\n        /* \"#utility.yul\":16805:16814   */\n      dup2\n        /* \"#utility.yul\":16799:16803   */\n      dup2\n        /* \"#utility.yul\":16795:16815   */\n      sub\n        /* \"#utility.yul\":16791:16792   */\n      0x00\n        /* \"#utility.yul\":16780:16789   */\n      dup4\n        /* \"#utility.yul\":16776:16793   */\n      add\n        /* \"#utility.yul\":16769:16816   */\n      mstore\n        /* \"#utility.yul\":16833:16964   */\n      tag_396\n        /* \"#utility.yul\":16959:16963   */\n      dup2\n        /* \"#utility.yul\":16833:16964   */\n      tag_215\n      jump\t// in\n    tag_396:\n        /* \"#utility.yul\":16825:16964   */\n      swap1\n      pop\n        /* \"#utility.yul\":16552:16971   */\n      swap2\n      swap1\n      pop\n      jump\t// out\n        /* \"#utility.yul\":16977:17148   */\n    tag_216:\n        /* \"#utility.yul\":17117:17140   */\n      0x557365723a494420616c726561647920626f756e640000000000000000000000\n        /* \"#utility.yul\":17113:17114   */\n      0x00\n        /* \"#utility.yul\":17105:17111   */\n      dup3\n        /* \"#utility.yul\":17101:17115   */\n      add\n        /* \"#utility.yul\":17094:17141   */\n      mstore\n        /* \"#utility.yul\":16977:17148   */\n      pop\n      jump\t// out\n        /* \"#utility.yul\":17154:17520   */\n    tag_217:\n        /* \"#utility.yul\":17296:17299   */\n      0x00\n        /* \"#utility.yul\":17317:17384   */\n      tag_399\n        /* \"#utility.yul\":17381:17383   */\n      0x15\n        /* \"#utility.yul\":17376:17379   */\n      dup4\n        /* \"#utility.yul\":17317:17384   */\n      tag_207\n      jump\t// in\n    tag_399:\n        /* \"#utility.yul\":17310:17384   */\n      swap2\n      pop\n        /* \"#utility.yul\":17393:17486   */\n      tag_400\n        /* \"#utility.yul\":17482:17485   */\n      dup3\n        /* \"#utility.yul\":17393:17486   */\n      tag_216\n      jump\t// in\n    tag_400:\n        /* \"#utility.yul\":17511:17513   */\n      0x20\n        /* \"#utility.yul\":17506:17509   */\n      dup3\n        /* \"#utility.yul\":17502:17514   */\n      add\n        /* \"#utility.yul\":17495:17514   */\n      swap1\n      pop\n        /* \"#utility.yul\":17154:17520   */\n      swap2\n      swap1\n      pop\n      jump\t// out\n        /* \"#utility.yul\":17526:17945   */\n    tag_112:\n        /* \"#utility.yul\":17692:17696   */\n      0x00\n        /* \"#utility.yul\":17730:17732   */\n      0x20\n        /* \"#utility.yul\":17719:17728   */\n      dup3\n        /* \"#utility.yul\":17715:17733   */\n      add\n        /* \"#utility.yul\":17707:17733   */\n      swap1\n      pop\n        /* \"#utility.yul\":17779:17788   */\n      dup2\n        /* \"#utility.yul\":17773:17777   */\n      dup2\n        /* \"#utility.yul\":17769:17789   */\n      sub\n        /* \"#utility.yul\":17765:17766   */\n      0x00\n        /* \"#utility.yul\":17754:17763   */\n      dup4\n        /* \"#utility.yul\":17750:17767   */\n      add\n        /* \"#utility.yul\":17743:17790   */\n      mstore\n        /* \"#utility.yul\":17807:17938   */\n      tag_402\n        /* \"#utility.yul\":17933:17937   */\n      dup2\n        /* \"#utility.yul\":17807:17938   */\n      tag_217\n      jump\t// in\n    tag_402:\n        /* \"#utility.yul\":17799:17938   */\n      swap1\n      pop\n        /* \"#utility.yul\":17526:17945   */\n      swap2\n      swap1\n      pop\n      jump\t// out\n        /* \"#utility.yul\":17951:18044   */\n    tag_218:\n        /* \"#utility.yul\":17988:17994   */\n      0x00\n        /* \"#utility.yul\":18035:18037   */\n      0x20\n        /* \"#utility.yul\":18030:18032   */\n      0x1f\n        /* \"#utility.yul\":18023:18028   */\n      dup4\n        /* \"#utility.yul\":18019:18033   */\n      add\n        /* \"#utility.yul\":18015:18038   */\n      div\n        /* \"#utility.yul\":18005:18038   */\n      swap1\n      pop\n        /* \"#utility.yul\":17951:18044   */\n      swap2\n      swap1\n      pop\n      jump\t// out\n        /* \"#utility.yul\":18050:18157   */\n    tag_219:\n        /* \"#utility.yul\":18094:18102   */\n      0x00\n        /* \"#utility.yul\":18144:18149   */\n      dup3\n        /* \"#utility.yul\":18138:18142   */\n      dup3\n        /* \"#utility.yul\":18134:18150   */\n      shl\n        /* \"#utility.yul\":18113:18150   */\n      swap1\n      pop\n        /* \"#utility.yul\":18050:18157   */\n      swap3\n      swap2\n      pop\n      pop\n      jump\t// out\n        /* \"#utility.yul\":18163:18556   */\n    tag_220:\n        /* \"#utility.yul\":18232:18238   */\n      0x00\n        /* \"#utility.yul\":18282:18283   */\n      0x08\n        /* \"#utility.yul\":18270:18280   */\n      dup4\n        /* \"#utility.yul\":18266:18284   */\n      mul\n        /* \"#utility.yul\":18305:18402   */\n      tag_406\n        /* \"#utility.yul\":18335:18401   */\n      0xffffffffffffffffffffffffffffffffffffffffffffffffffffffffffffffff\n        /* \"#utility.yul\":18324:18333   */\n      dup3\n        /* \"#utility.yul\":18305:18402   */\n      tag_219\n      jump\t// in\n    tag_406:\n        /* \"#utility.yul\":18423:18462   */\n      tag_407\n        /* \"#utility.yul\":18453:18461   */\n      dup7\n        /* \"#utility.yul\":18442:18451   */\n      dup4\n        /* \"#utility.yul\":18423:18462   */\n      tag_219\n      jump\t// in\n    tag_407:\n        /* \"#utility.yul\":18411:18462   */\n      swap6\n      pop\n        /* \"#utility.yul\":18495:18499   */\n      dup1\n        /* \"#utility.yul\":18491:18500   */\n      not\n        /* \"#utility.yul\":18484:18489   */\n      dup5\n        /* \"#utility.yul\":18480:18501   */\n      and\n        /* \"#utility.yul\":18471:18501   */\n      swap4\n      pop\n        /* \"#utility.yul\":18544:18548   */\n      dup1\n        /* \"#utility.yul\":18534:18542   */\n      dup7\n        /* \"#utility.yul\":18530:18549   */\n      and\n        /* \"#utility.yul\":18523:18528   */\n      dup5\n        /* \"#utility.yul\":18520:18550   */\n      or\n        /* \"#utility.yul\":18510:18550   */\n      swap3\n      pop\n        /* \"#utility.yul\":18239:18556   */\n      pop\n      pop\n        /* \"#utility.yul\":18163:18556   */\n      swap4\n      swap3\n      pop\n      pop\n      pop\n      jump\t// out\n        /* \"#utility.yul\":18562:18622   */\n    tag_221:\n        /* \"#utility.yul\":18590:18593   */\n      0x00\n        /* \"#utility.yul\":18611:18616   */\n      dup2\n        /* \"#utility.yul\":18604:18616   */\n      swap1\n      pop\n        /* \"#utility.yul\":18562:18622   */\n      swap2\n      swap1\n      pop\n      jump\t// out\n        /* \"#utility.yul\":18628:18770   */\n    tag_222:\n        /* \"#utility.yul\":18678:18687   */\n      0x00\n        /* \"#utility.yul\":18711:18764   */\n      tag_410\n        /* \"#utility.yul\":18729:18763   */\n      tag_411\n        /* \"#utility.yul\":18738:18762   */\n      tag_412\n        /* \"#utility.yul\":18756:18761   */\n      dup5\n        /* \"#utility.yul\":18738:18762   */\n      tag_181\n      jump\t// in\n    tag_412:\n        /* \"#utility.yul\":18729:18763   */\n      tag_221\n      jump\t// in\n    tag_411:\n        /* \"#utility.yul\":18711:18764   */\n      tag_181\n      jump\t// in\n    tag_410:\n        /* \"#utility.yul\":18698:18764   */\n      swap1\n      pop\n        /* \"#utility.yul\":18628:18770   */\n      swap2\n      swap1\n      pop\n      jump\t// out\n        /* \"#utility.yul\":18776:18851   */\n    tag_223:\n        /* \"#utility.yul\":18819:18822   */\n      0x00\n        /* \"#utility.yul\":18840:18845   */\n      dup2\n        /* \"#utility.yul\":18833:18845   */\n      swap1\n      pop\n        /* \"#utility.yul\":18776:18851   */\n      swap2\n      swap1\n      pop\n      jump\t// out\n        /* \"#utility.yul\":18857:19126   */\n    tag_224:\n        /* \"#utility.yul\":18967:19006   */\n      tag_415\n        /* \"#utility.yul\":18998:19005   */\n      dup4\n        /* \"#utility.yul\":18967:19006   */\n      tag_222\n      jump\t// in\n    tag_415:\n        /* \"#utility.yul\":19028:19119   */\n      tag_416\n        /* \"#utility.yul\":19077:19118   */\n      tag_417\n        /* \"#utility.yul\":19101:19117   */\n      dup3\n        /* \"#utility.yul\":19077:19118   */\n      tag_223\n      jump\t// in\n    tag_417:\n        /* \"#utility.yul\":19069:19075   */\n      dup5\n        /* \"#utility.yul\":19062:19066   */\n      dup5\n        /* \"#utility.yul\":19056:19067   */\n      sload\n        /* \"#utility.yul\":19028:19119   */\n      tag_220\n      jump\t// in\n    tag_416:\n        /* \"#utility.yul\":19022:19026   */\n      dup3\n        /* \"#utility.yul\":19015:19120   */\n      sstore\n        /* \"#utility.yul\":18933:19126   */\n      pop\n        /* \"#utility.yul\":18857:19126   */\n      pop\n      pop\n      pop\n      jump\t// out\n        /* \"#utility.yul\":19132:19205   */\n    tag_225:\n        /* \"#utility.yul\":19177:19180   */\n      0x00\n        /* \"#utility.yul\":19132:19205   */\n      swap1\n      jump\t// out\n        /* \"#utility.yul\":19211:19400   */\n    tag_226:\n        /* \"#utility.yul\":19288:19320   */\n      tag_420\n      tag_225\n      jump\t// in\n    tag_420:\n        /* \"#utility.yul\":19329:19394   */\n      tag_421\n        /* \"#utility.yul\":19387:19393   */\n      dup2\n        /* \"#utility.yul\":19379:19385   */\n      dup5\n        /* \"#utility.yul\":19373:19377   */\n      dup5\n        /* \"#utility.yul\":19329:19394   */\n      tag_224\n      jump\t// in\n    tag_421:\n        /* \"#utility.yul\":19264:19400   */\n      pop\n        /* \"#utility.yul\":19211:19400   */\n      pop\n      pop\n      jump\t// out\n        /* \"#utility.yul\":19406:19592   */\n    tag_227:\n        /* \"#utility.yul\":19466:19586   */\n    tag_423:\n        /* \"#utility.yul\":19483:19486   */\n      dup2\n        /* \"#utility.yul\":19476:19481   */\n      dup2\n        /* \"#utility.yul\":19473:19487   */\n      lt\n        /* \"#utility.yul\":19466:19586   */\n      iszero\n      tag_425\n      jumpi\n        /* \"#utility.yul\":19537:19576   */\n      tag_426\n        /* \"#utility.yul\":19574:19575   */\n      0x00\n        /* \"#utility.yul\":19567:19572   */\n      dup3\n        /* \"#utility.yul\":19537:19576   */\n      tag_226\n      jump\t// in\n    tag_426:\n        /* \"#utility.yul\":19510:19511   */\n      0x01\n        /* \"#utility.yul\":19503:19508   */\n      dup2\n        /* \"#utility.yul\":19499:19512   */\n      add\n        /* \"#utility.yul\":19490:19512   */\n      swap1\n      pop\n        /* \"#utility.yul\":19466:19586   */\n      jump(tag_423)\n    tag_425:\n        /* \"#utility.yul\":19406:19592   */\n      pop\n      pop\n      jump\t// out\n        /* \"#utility.yul\":19598:20141   */\n    tag_228:\n        /* \"#utility.yul\":19699:19701   */\n      0x1f\n        /* \"#utility.yul\":19694:19697   */\n      dup3\n        /* \"#utility.yul\":19691:19702   */\n      gt\n        /* \"#utility.yul\":19688:20134   */\n      iszero\n      tag_428\n      jumpi\n        /* \"#utility.yul\":19733:19771   */\n      tag_429\n        /* \"#utility.yul\":19765:19770   */\n      dup2\n        /* \"#utility.yul\":19733:19771   */\n      tag_204\n      jump\t// in\n    tag_429:\n        /* \"#utility.yul\":19817:19846   */\n      tag_430\n        /* \"#utility.yul\":19835:19845   */\n      dup5\n        /* \"#utility.yul\":19817:19846   */\n      tag_218\n      jump\t// in\n    tag_430:\n        /* \"#utility.yul\":19807:19815   */\n      dup2\n        /* \"#utility.yul\":19803:19847   */\n      add\n        /* \"#utility.yul\":20000:20002   */\n      0x20\n        /* \"#utility.yul\":19988:19998   */\n      dup6\n        /* \"#utility.yul\":19985:20003   */\n      lt\n        /* \"#utility.yul\":19982:20031   */\n      iszero\n      tag_431\n      jumpi\n        /* \"#utility.yul\":20021:20029   */\n      dup2\n        /* \"#utility.yul\":20006:20029   */\n      swap1\n      pop\n        /* \"#utility.yul\":19982:20031   */\n    tag_431:\n        /* \"#utility.yul\":20044:20124   */\n      tag_432\n        /* \"#utility.yul\":20100:20122   */\n      tag_433\n        /* \"#utility.yul\":20118:20121   */\n      dup6\n        /* \"#utility.yul\":20100:20122   */\n      tag_218\n      jump\t// in\n    tag_433:\n        /* \"#utility.yul\":20090:20098   */\n      dup4\n        /* \"#utility.yul\":20086:20123   */\n      add\n        /* \"#utility.yul\":20073:20084   */\n      dup3\n        /* \"#utility.yul\":20044:20124   */\n      tag_227\n      jump\t// in\n    tag_432:\n        /* \"#utility.yul\":19703:20134   */\n      pop\n      pop\n        /* \"#utility.yul\":19688:20134   */\n    tag_428:\n        /* \"#utility.yul\":19598:20141   */\n      pop\n      pop\n      pop\n      jump\t// out\n        /* \"#utility.yul\":20147:20264   */\n    tag_229:\n        /* \"#utility.yul\":20201:20209   */\n      0x00\n        /* \"#utility.yul\":20251:20256   */\n      dup3\n        /* \"#utility.yul\":20245:20249   */\n      dup3\n        /* \"#utility.yul\":20241:20257   */\n      shr\n        /* \"#utility.yul\":20220:20257   */\n      swap1\n      pop\n        /* \"#utility.yul\":20147:20264   */\n      swap3\n      swap2\n      pop\n      pop\n      jump\t// out\n        /* \"#utility.yul\":20270:20439   */\n    tag_230:\n        /* \"#utility.yul\":20314:20320   */\n      0x00\n        /* \"#utility.yul\":20347:20398   */\n      tag_436\n        /* \"#utility.yul\":20395:20396   */\n      0x00\n        /* \"#utility.yul\":20391:20397   */\n      not\n        /* \"#utility.yul\":20383:20388   */\n      dup5\n        /* \"#utility.yul\":20380:20381   */\n      0x08\n        /* \"#utility.yul\":20376:20389   */\n      mul\n        /* \"#utility.yul\":20347:20398   */\n      tag_229\n      jump\t// in\n    tag_436:\n        /* \"#utility.yul\":20343:20399   */\n      not\n        /* \"#utility.yul\":20428:20432   */\n      dup1\n        /* \"#utility.yul\":20422:20426   */\n      dup4\n        /* \"#utility.yul\":20418:20433   */\n      and\n        /* \"#utility.yul\":20408:20433   */\n      swap2\n      pop\n        /* \"#utility.yul\":20321:20439   */\n      pop\n        /* \"#utility.yul\":20270:20439   */\n      swap3\n      swap2\n      pop\n      pop\n      jump\t// out\n        /* \"#utility.yul\":20444:20739   */\n    tag_231:\n        /* \"#utility.yul\":20520:20524   */\n      0x00\n        /* \"#utility.yul\":20666:20695   */\n      tag_438\n        /* \"#utility.yul\":20691:20694   */\n      dup4\n        /* \"#utility.yul\":20685:20689   */\n      dup4\n        /* \"#utility.yul\":20666:20695   */\n      tag_230\n      jump\t// in\n    tag_438:\n        /* \"#utility.yul\":20658:20695   */\n      swap2\n      pop\n        /* \"#utility.yul\":20728:20731   */\n      dup3\n        /* \"#utility.yul\":20725:20726   */\n      0x02\n        /* \"#utility.yul\":20721:20732   */\n      mul\n        /* \"#utility.yul\":20715:20719   */\n      dup3\n        /* \"#utility.yul\":20712:20733   */\n      or\n        /* \"#utility.yul\":20704:20733   */\n      swap1\n      pop\n        /* \"#utility.yul\":20444:20739   */\n      swap3\n      swap2\n      pop\n      pop\n      jump\t// out\n        /* \"#utility.yul\":20744:22139   */\n    tag_114:\n        /* \"#utility.yul\":20861:20898   */\n      tag_440\n        /* \"#utility.yul\":20894:20897   */\n      dup3\n        /* \"#utility.yul\":20861:20898   */\n      tag_184\n      jump\t// in\n    tag_440:\n        /* \"#utility.yul\":20963:20981   */\n      0xffffffffffffffff\n        /* \"#utility.yul\":20955:20961   */\n      dup2\n        /* \"#utility.yul\":20952:20982   */\n      gt\n        /* \"#utility.yul\":20949:21005   */\n      iszero\n      tag_441\n      jumpi\n        /* \"#utility.yul\":20985:21003   */\n      tag_442\n      tag_151\n      jump\t// in\n    tag_442:\n        /* \"#utility.yul\":20949:21005   */\n    tag_441:\n        /* \"#utility.yul\":21029:21067   */\n      tag_443\n        /* \"#utility.yul\":21061:21065   */\n      dup3\n        /* \"#utility.yul\":21055:21066   */\n      sload\n        /* \"#utility.yul\":21029:21067   */\n      tag_69\n      jump\t// in\n    tag_443:\n        /* \"#utility.yul\":21114:21181   */\n      tag_444\n        /* \"#utility.yul\":21174:21180   */\n      dup3\n        /* \"#utility.yul\":21166:21172   */\n      dup3\n        /* \"#utility.yul\":21160:21164   */\n      dup6\n        /* \"#utility.yul\":21114:21181   */\n      tag_228\n      jump\t// in\n    tag_444:\n        /* \"#utility.yul\":21208:21209   */\n      0x00\n        /* \"#utility.yul\":21232:21236   */\n      0x20\n        /* \"#utility.yul\":21219:21236   */\n      swap1\n      pop\n        /* \"#utility.yul\":21264:21266   */\n      0x1f\n        /* \"#utility.yul\":21256:21262   */\n      dup4\n        /* \"#utility.yul\":21253:21267   */\n      gt\n        /* \"#utility.yul\":21281:21282   */\n      0x01\n        /* \"#utility.yul\":21276:21894   */\n      dup2\n      eq\n      tag_446\n      jumpi\n        /* \"#utility.yul\":21938:21939   */\n      0x00\n        /* \"#utility.yul\":21955:21961   */\n      dup5\n        /* \"#utility.yul\":21952:22029   */\n      iszero\n      tag_447\n      jumpi\n        /* \"#utility.yul\":22004:22013   */\n      dup3\n        /* \"#utility.yul\":21999:22002   */\n      dup8\n        /* \"#utility.yul\":21995:22014   */\n      add\n        /* \"#utility.yul\":21989:22015   */\n      mload\n        /* \"#utility.yul\":21980:22015   */\n      swap1\n      pop\n        /* \"#utility.yul\":21952:22029   */\n    tag_447:\n        /* \"#utility.yul\":22055:22122   */\n      tag_448\n        /* \"#utility.yul\":22115:22121   */\n      dup6\n        /* \"#utility.yul\":22108:22113   */\n      dup3\n        /* \"#utility.yul\":22055:22122   */\n      tag_231\n      jump\t// in\n    tag_448:\n        /* \"#utility.yul\":22049:22053   */\n      dup7\n        /* \"#utility.yul\":22042:22123   */\n      sstore\n        /* \"#utility.yul\":21911:22133   */\n      pop\n        /* \"#utility.yul\":21246:22133   */\n      jump(tag_445)\n        /* \"#utility.yul\":21276:21894   */\n    tag_446:\n        /* \"#utility.yul\":21328:21332   */\n      0x1f\n        /* \"#utility.yul\":21324:21333   */\n      not\n        /* \"#utility.yul\":21316:21322   */\n      dup5\n        /* \"#utility.yul\":21312:21334   */\n      and\n        /* \"#utility.yul\":21362:21399   */\n      tag_449\n        /* \"#utility.yul\":21394:21398   */\n      dup7\n        /* \"#utility.yul\":21362:21399   */\n      tag_204\n      jump\t// in\n    tag_449:\n        /* \"#utility.yul\":21421:21422   */\n      0x00\n        /* \"#utility.yul\":21435:21643   */\n    tag_450:\n        /* \"#utility.yul\":21449:21456   */\n      dup3\n        /* \"#utility.yul\":21446:21447   */\n      dup2\n        /* \"#utility.yul\":21443:21457   */\n      lt\n        /* \"#utility.yul\":21435:21643   */\n      iszero\n      tag_452\n      jumpi\n        /* \"#utility.yul\":21528:21537   */\n      dup5\n        /* \"#utility.yul\":21523:21526   */\n      dup10\n        /* \"#utility.yul\":21519:21538   */\n      add\n        /* \"#utility.yul\":21513:21539   */\n      mload\n        /* \"#utility.yul\":21505:21511   */\n      dup3\n        /* \"#utility.yul\":21498:21540   */\n      sstore\n        /* \"#utility.yul\":21579:21580   */\n      0x01\n        /* \"#utility.yul\":21571:21577   */\n      dup3\n        /* \"#utility.yul\":21567:21581   */\n      add\n        /* \"#utility.yul\":21557:21581   */\n      swap2\n      pop\n        /* \"#utility.yul\":21626:21628   */\n      0x20\n        /* \"#utility.yul\":21615:21624   */\n      dup6\n        /* \"#utility.yul\":21611:21629   */\n      add\n        /* \"#utility.yul\":21598:21629   */\n      swap5\n      pop\n        /* \"#utility.yul\":21472:21476   */\n      0x20\n        /* \"#utility.yul\":21469:21470   */\n      dup2\n        /* \"#utility.yul\":21465:21477   */\n      add\n        /* \"#utility.yul\":21460:21477   */\n      swap1\n      pop\n        /* \"#utility.yul\":21435:21643   */\n      jump(tag_450)\n    tag_452:\n        /* \"#utility.yul\":21671:21677   */\n      dup7\n        /* \"#utility.yul\":21662:21669   */\n      dup4\n        /* \"#utility.yul\":21659:21678   */\n      lt\n        /* \"#utility.yul\":21656:21835   */\n      iszero\n      tag_453\n      jumpi\n        /* \"#utility.yul\":21729:21738   */\n      dup5\n        /* \"#utility.yul\":21724:21727   */\n      dup10\n        /* \"#utility.yul\":21720:21739   */\n      add\n        /* \"#utility.yul\":21714:21740   */\n      mload\n        /* \"#utility.yul\":21772:21820   */\n      tag_454\n        /* \"#utility.yul\":21814:21818   */\n      0x1f\n        /* \"#utility.yul\":21806:21812   */\n      dup10\n        /* \"#utility.yul\":21802:21819   */\n      and\n        /* \"#utility.yul\":21791:21800   */\n      dup3\n        /* \"#utility.yul\":21772:21820   */\n      tag_230\n      jump\t// in\n    tag_454:\n        /* \"#utility.yul\":21764:21770   */\n      dup4\n        /* \"#utility.yul\":21757:21821   */\n      sstore\n        /* \"#utility.yul\":21679:21835   */\n      pop\n        /* \"#utility.yul\":21656:21835   */\n    tag_453:\n        /* \"#utility.yul\":21881:21882   */\n      0x01\n        /* \"#utility.yul\":21877:21878   */\n      0x02\n        /* \"#utility.yul\":21869:21875   */\n      dup9\n        /* \"#utility.yul\":21865:21879   */\n      mul\n        /* \"#utility.yul\":21861:21883   */\n      add\n        /* \"#utility.yul\":21855:21859   */\n      dup9\n        /* \"#utility.yul\":21848:21884   */\n      sstore\n        /* \"#utility.yul\":21283:21894   */\n      pop\n      pop\n      pop\n        /* \"#utility.yul\":21246:22133   */\n    tag_445:\n      pop\n        /* \"#utility.yul\":20836:22139   */\n      pop\n      pop\n      pop\n        /* \"#utility.yul\":20744:22139   */\n      pop\n      pop\n      jump\t// out\n        /* \"#utility.yul\":22145:22325   */\n    tag_232:\n        /* \"#utility.yul\":22193:22270   */\n      0x4e487b7100000000000000000000000000000000000000000000000000000000\n        /* \"#utility.yul\":22190:22191   */\n      0x00\n        /* \"#utility.yul\":22183:22271   */\n      mstore\n        /* \"#utility.yul\":22290:22294   */\n      0x11\n        /* \"#utility.yul\":22287:22288   */\n      0x04\n        /* \"#utility.yul\":22280:22295   */\n      mstore\n        /* \"#utility.yul\":22314:22318   */\n      0x24\n        /* \"#utility.yul\":22311:22312   */\n      0x00\n        /* \"#utility.yul\":22304:22319   */\n      revert\n        /* \"#utility.yul\":22331:22741   */\n    tag_119:\n        /* \"#utility.yul\":22371:22378   */\n      0x00\n        /* \"#utility.yul\":22394:22414   */\n      tag_457\n        /* \"#utility.yul\":22412:22413   */\n      dup3\n        /* \"#utility.yul\":22394:22414   */\n      tag_181\n      jump\t// in\n    tag_457:\n        /* \"#utility.yul\":22389:22414   */\n      swap2\n      pop\n        /* \"#utility.yul\":22428:22448   */\n      tag_458\n        /* \"#utility.yul\":22446:22447   */\n      dup4\n        /* \"#utility.yul\":22428:22448   */\n      tag_181\n      jump\t// in\n    tag_458:\n        /* \"#utility.yul\":22423:22448   */\n      swap3\n      pop\n        /* \"#utility.yul\":22483:22484   */\n      dup3\n        /* \"#utility.yul\":22480:22481   */\n      dup3\n        /* \"#utility.yul\":22476:22485   */\n      mul\n        /* \"#utility.yul\":22505:22535   */\n      tag_459\n        /* \"#utility.yul\":22523:22534   */\n      dup2\n        /* \"#utility.yul\":22505:22535   */\n      tag_181\n      jump\t// in\n    tag_459:\n        /* \"#utility.yul\":22494:22535   */\n      swap2\n      pop\n        /* \"#utility.yul\":22684:22685   */\n      dup3\n        /* \"#utility.yul\":22675:22682   */\n      dup3\n        /* \"#utility.yul\":22671:22686   */\n      div\n        /* \"#utility.yul\":22668:22669   */\n      dup5\n        /* \"#utility.yul\":22665:22687   */\n      eq\n        /* \"#utility.yul\":22645:22646   */\n      dup4\n        /* \"#utility.yul\":22638:22647   */\n      iszero\n        /* \"#utility.yul\":22618:22701   */\n      or\n        /* \"#utility.yul\":22595:22734   */\n      tag_460\n      jumpi\n        /* \"#utility.yul\":22714:22732   */\n      tag_461\n      tag_232\n      jump\t// in\n    tag_461:\n        /* \"#utility.yul\":22595:22734   */\n    tag_460:\n        /* \"#utility.yul\":22379:22741   */\n      pop\n        /* \"#utility.yul\":22331:22741   */\n      swap3\n      swap2\n      pop\n      pop\n      jump\t// out\n        /* \"#utility.yul\":22747:22927   */\n    tag_233:\n        /* \"#utility.yul\":22795:22872   */\n      0x4e487b7100000000000000000000000000000000000000000000000000000000\n        /* \"#utility.yul\":22792:22793   */\n      0x00\n        /* \"#utility.yul\":22785:22873   */\n      mstore\n        /* \"#utility.yul\":22892:22896   */\n      0x12\n        /* \"#utility.yul\":22889:22890   */\n      0x04\n        /* \"#utility.yul\":22882:22897   */\n      mstore\n        /* \"#utility.yul\":22916:22920   */\n      0x24\n        /* \"#utility.yul\":22913:22914   */\n      0x00\n        /* \"#utility.yul\":22906:22921   */\n      revert\n        /* \"#utility.yul\":22933:23118   */\n    tag_121:\n        /* \"#utility.yul\":22973:22974   */\n      0x00\n        /* \"#utility.yul\":22990:23010   */\n      tag_464\n        /* \"#utility.yul\":23008:23009   */\n      dup3\n        /* \"#utility.yul\":22990:23010   */\n      tag_181\n      jump\t// in\n    tag_464:\n        /* \"#utility.yul\":22985:23010   */\n      swap2\n      pop\n        /* \"#utility.yul\":23024:23044   */\n      tag_465\n        /* \"#utility.yul\":23042:23043   */\n      dup4\n        /* \"#utility.yul\":23024:23044   */\n      tag_181\n      jump\t// in\n    tag_465:\n        /* \"#utility.yul\":23019:23044   */\n      swap3\n      pop\n        /* \"#utility.yul\":23063:23064   */\n      dup3\n        /* \"#utility.yul\":23053:23088   */\n      tag_466\n      jumpi\n        /* \"#utility.yul\":23068:23086   */\n      tag_467\n      tag_233\n      jump\t// in\n    tag_467:\n        /* \"#utility.yul\":23053:23088   */\n    tag_466:\n        /* \"#utility.yul\":23110:23111   */\n      dup3\n        /* \"#utility.yul\":23107:23108   */\n      dup3\n        /* \"#utility.yul\":23103:23112   */\n      div\n        /* \"#utility.yul\":23098:23112   */\n      swap1\n      pop\n        /* \"#utility.yul\":22933:23118   */\n      swap3\n      swap2\n      pop\n      pop\n      jump\t// out\n        /* \"#utility.yul\":23124:23318   */\n    tag_123:\n        /* \"#utility.yul\":23164:23168   */\n      0x00\n        /* \"#utility.yul\":23184:23204   */\n      tag_469\n        /* \"#utility.yul\":23202:23203   */\n      dup3\n        /* \"#utility.yul\":23184:23204   */\n      tag_181\n      jump\t// in\n    tag_469:\n        /* \"#utility.yul\":23179:23204   */\n      swap2\n      pop\n        /* \"#utility.yul\":23218:23238   */\n      tag_470\n        /* \"#utility.yul\":23236:23237   */\n      dup4\n        /* \"#utility.yul\":23218:23238   */\n      tag_181\n      jump\t// in\n    tag_470:\n        /* \"#utility.yul\":23213:23238   */\n      swap3\n      pop\n        /* \"#utility.yul\":23262:23263   */\n      dup3\n        /* \"#utility.yul\":23259:23260   */\n      dup3\n        /* \"#utility.yul\":23255:23264   */\n      sub\n        /* \"#utility.yul\":23247:23264   */\n      swap1\n      pop\n        /* \"#utility.yul\":23286:23287   */\n      dup2\n        /* \"#utility.yul\":23280:23284   */\n      dup2\n        /* \"#utility.yul\":23277:23288   */\n      gt\n        /* \"#utility.yul\":23274:23311   */\n      iszero\n      tag_471\n      jumpi\n        /* \"#utility.yul\":23291:23309   */\n      tag_472\n      tag_232\n      jump\t// in\n    tag_472:\n        /* \"#utility.yul\":23274:23311   */\n    tag_471:\n        /* \"#utility.yul\":23124:23318   */\n      swap3\n      swap2\n      pop\n      pop\n      jump\t// out\n        /* \"#utility.yul\":23324:23515   */\n    tag_131:\n        /* \"#utility.yul\":23364:23367   */\n      0x00\n        /* \"#utility.yul\":23383:23403   */\n      tag_474\n        /* \"#utility.yul\":23401:23402   */\n      dup3\n        /* \"#utility.yul\":23383:23403   */\n      tag_181\n      jump\t// in\n    tag_474:\n        /* \"#utility.yul\":23378:23403   */\n      swap2\n      pop\n        /* \"#utility.yul\":23417:23437   */\n      tag_475\n        /* \"#utility.yul\":23435:23436   */\n      dup4\n        /* \"#utility.yul\":23417:23437   */\n      tag_181\n      jump\t// in\n    tag_475:\n        /* \"#utility.yul\":23412:23437   */\n      swap3\n      pop\n        /* \"#utility.yul\":23460:23461   */\n      dup3\n        /* \"#utility.yul\":23457:23458   */\n      dup3\n        /* \"#utility.yul\":23453:23462   */\n      add\n        /* \"#utility.yul\":23446:23462   */\n      swap1\n      pop\n        /* \"#utility.yul\":23481:23484   */\n      dup1\n        /* \"#utility.yul\":23478:23479   */\n      dup3\n        /* \"#utility.yul\":23475:23485   */\n      gt\n        /* \"#utility.yul\":23472:23508   */\n      iszero\n      tag_476\n      jumpi\n        /* \"#utility.yul\":23488:23506   */\n      tag_477\n      tag_232\n      jump\t// in\n    tag_477:\n        /* \"#utility.yul\":23472:23508   */\n    tag_476:\n        /* \"#utility.yul\":23324:23515   */\n      swap3\n      swap2\n      pop\n      pop\n      jump\t// out\n        /* \"#utility.yul\":23521:23751   */\n    tag_234:\n        /* \"#utility.yul\":23661:23695   */\n      0x557365723a506c6561736520626f756e64207769746820796f7572206964656e\n        /* \"#utility.yul\":23657:23658   */\n      0x00\n        /* \"#utility.yul\":23649:23655   */\n      dup3\n        /* \"#utility.yul\":23645:23659   */\n      add\n        /* \"#utility.yul\":23638:23696   */\n      mstore\n        /* \"#utility.yul\":23730:23743   */\n      0x74696669636174696f6e21000000000000000000000000000000000000000000\n        /* \"#utility.yul\":23725:23727   */\n      0x20\n        /* \"#utility.yul\":23717:23723   */\n      dup3\n        /* \"#utility.yul\":23713:23728   */\n      add\n        /* \"#utility.yul\":23706:23744   */\n      mstore\n        /* \"#utility.yul\":23521:23751   */\n      pop\n      jump\t// out\n        /* \"#utility.yul\":23757:24123   */\n    tag_235:\n        /* \"#utility.yul\":23899:23902   */\n      0x00\n        /* \"#utility.yul\":23920:23987   */\n      tag_480\n        /* \"#utility.yul\":23984:23986   */\n      0x2b\n        /* \"#utility.yul\":23979:23982   */\n      dup4\n        /* \"#utility.yul\":23920:23987   */\n      tag_207\n      jump\t// in\n    tag_480:\n        /* \"#utility.yul\":23913:23987   */\n      swap2\n      pop\n        /* \"#utility.yul\":23996:24089   */\n      tag_481\n        /* \"#utility.yul\":24085:24088   */\n      dup3\n        /* \"#utility.yul\":23996:24089   */\n      tag_234\n      jump\t// in\n    tag_481:\n        /* \"#utility.yul\":24114:24116   */\n      0x40\n        /* \"#utility.yul\":24109:24112   */\n      dup3\n        /* \"#utility.yul\":24105:24117   */\n      add\n        /* \"#utility.yul\":24098:24117   */\n      swap1\n      pop\n        /* \"#utility.yul\":23757:24123   */\n      swap2\n      swap1\n      pop\n      jump\t// out\n        /* \"#utility.yul\":24129:24548   */\n    tag_143:\n        /* \"#utility.yul\":24295:24299   */\n      0x00\n        /* \"#utility.yul\":24333:24335   */\n      0x20\n        /* \"#utility.yul\":24322:24331   */\n      dup3\n        /* \"#utility.yul\":24318:24336   */\n      add\n        /* \"#utility.yul\":24310:24336   */\n      swap1\n      pop\n        /* \"#utility.yul\":24382:24391   */\n      dup2\n        /* \"#utility.yul\":24376:24380   */\n      dup2\n        /* \"#utility.yul\":24372:24392   */\n      sub\n        /* \"#utility.yul\":24368:24369   */\n      0x00\n        /* \"#utility.yul\":24357:24366   */\n      dup4\n        /* \"#utility.yul\":24353:24370   */\n      add\n        /* \"#utility.yul\":24346:24393   */\n      mstore\n        /* \"#utility.yul\":24410:24541   */\n      tag_483\n        /* \"#utility.yul\":24536:24540   */\n      dup2\n        /* \"#utility.yul\":24410:24541   */\n      tag_235\n      jump\t// in\n    tag_483:\n        /* \"#utility.yul\":24402:24541   */\n      swap1\n      pop\n        /* \"#utility.yul\":24129:24548   */\n      swap2\n      swap1\n      pop\n      jump\t// out\n        /* \"#utility.yul\":24554:24734   */\n    tag_158:\n        /* \"#utility.yul\":24602:24679   */\n      0x4e487b7100000000000000000000000000000000000000000000000000000000\n        /* \"#utility.yul\":24599:24600   */\n      0x00\n        /* \"#utility.yul\":24592:24680   */\n      mstore\n        /* \"#utility.yul\":24699:24703   */\n      0x32\n        /* \"#utility.yul\":24696:24697   */\n      0x04\n        /* \"#utility.yul\":24689:24704   */\n      mstore\n        /* \"#utility.yul\":24723:24727   */\n      0x24\n        /* \"#utility.yul\":24720:24721   */\n      0x00\n        /* \"#utility.yul\":24713:24728   */\n      revert\n\n    auxdata: 0xa26469706673582212208a4bca625f7de4db9a760fe2900b735bf7e4e810ab93951a51428ec217384d5d64736f6c63430008160033\n}\n",
				"bytecode": {
					"linkReferences": {},
					"object": "608060405234801561000f575f80fd5b50611bf68061001d5f395ff3fe608060405234801561000f575f80fd5b506004361061009c575f3560e01c80639deb17f5116100645780639deb17f51461017c578063ad7cfa57146101ac578063baccbfdb146101dc578063cf0939261461020c578063ed0d19b71461023c5761009c565b80631cdd3be3146100a05780633ad87fa1146100d05780634cfcf646146100ec5780635c0e5f881461011c5780636386c1c71461014c575b5f80fd5b6100ba60048036038101906100b59190610f44565b61026c565b6040516100c79190610f89565b60405180910390f35b6100ea60048036038101906100e59190610f44565b6102dc565b005b61010660048036038101906101019190610f44565b6103ed565b6040516101139190610f89565b60405180910390f35b61013660048036038101906101319190610fd5565b6104b5565b6040516101439190610f89565b60405180910390f35b61016660048036038101906101619190610f44565b610514565b6040516101739190611156565b60405180910390f35b610196600480360381019061019191906112a2565b61074b565b6040516101a39190610f89565b60405180910390f35b6101c660048036038101906101c19190611318565b610a15565b6040516101d39190611365565b60405180910390f35b6101f660048036038101906101f19190610f44565b610ada565b6040516102039190611365565b60405180910390f35b6102266004803603810190610221919061137e565b610b6b565b6040516102339190610f89565b60405180910390f35b610256600480360381019061025191906113bc565b610bcc565b6040516102639190610f89565b60405180910390f35b5f8060015f8473ffffffffffffffffffffffffffffffffffffffff1673ffffffffffffffffffffffffffffffffffffffff1681526020019081526020015f205f016040516102ba91906114e0565b90815260200160405180910390205f9054906101000a900460ff169050919050565b6102e5816103ed565b156103ea575f60015f8373ffffffffffffffffffffffffffffffffffffffff1673ffffffffffffffffffffffffffffffffffffffff1681526020019081526020015f205f01805461033590611414565b80601f016020809104026020016040519081016040528092919081815260200182805461036190611414565b80156103ac5780601f10610383576101008083540402835291602001916103ac565b820191905f5260205f20905b81548152906001019060200180831161038f57829003601f168201915b5050505050905060015f826040516103c49190611526565b90815260200160405180910390205f6101000a81548160ff021916908315150217905550505b50565b5f8073ffffffffffffffffffffffffffffffffffffffff168273ffffffffffffffffffffffffffffffffffffffff160361045c576040517f08c379a0000000000000000000000000000000000000000000000000000000008152600401610453906115bc565b60405180910390fd5b5f60015f8473ffffffffffffffffffffffffffffffffffffffff1673ffffffffffffffffffffffffffffffffffffffff1681526020019081526020015f206004015f9054906101000a900460ff16905080915050919050565b5f806104c18484610a15565b90508060015f8773ffffffffffffffffffffffffffffffffffffffff1673ffffffffffffffffffffffffffffffffffffffff1681526020019081526020015f206002018190555060019150509392505050565b61051c610e95565b610525826103ed565b610564576040517f08c379a000000000000000000000000000000000000000000000000000000000815260040161055b90611624565b60405180910390fd5b60015f8373ffffffffffffffffffffffffffffffffffffffff1673ffffffffffffffffffffffffffffffffffffffff1681526020019081526020015f206040518060a00160405290815f820180546105bb90611414565b80601f01602080910402602001604051908101604052809291908181526020018280546105e790611414565b80156106325780601f1061060957610100808354040283529160200191610632565b820191905f5260205f20905b81548152906001019060200180831161061557829003601f168201915b50505050508152602001600182015f9054906101000a900473ffffffffffffffffffffffffffffffffffffffff1673ffffffffffffffffffffffffffffffffffffffff1673ffffffffffffffffffffffffffffffffffffffff168152602001600282015481526020016003820180546106aa90611414565b80601f01602080910402602001604051908101604052809291908181526020018280546106d690611414565b80156107215780601f106106f857610100808354040283529160200191610721565b820191905f5260205f20905b81548152906001019060200180831161070457829003601f168201915b50505050508152602001600482015f9054906101000a900460ff1615151515815250509050919050565b5f8061075684610c63565b90505f816040516107679190611526565b90815260200160405180910390205f9054906101000a900460ff16156107c2576040517f08c379a00000000000000000000000000000000000000000000000000000000081526004016107b99061168c565b60405180910390fd5b60015f3273ffffffffffffffffffffffffffffffffffffffff1673ffffffffffffffffffffffffffffffffffffffff1681526020019081526020015f206004015f9054906101000a900460ff161561084f576040517f08c379a0000000000000000000000000000000000000000000000000000000008152600401610846906116f4565b60405180910390fd5b60028160405161085f9190611526565b90815260200160405180910390205f9054906101000a900460ff16156108ba576040517f08c379a00000000000000000000000000000000000000000000000000000000081526004016108b19061175c565b60405180910390fd5b6040518060a001604052808281526020013273ffffffffffffffffffffffffffffffffffffffff168152602001603c81526020018481526020016001151581525060015f3373ffffffffffffffffffffffffffffffffffffffff1673ffffffffffffffffffffffffffffffffffffffff1681526020019081526020015f205f820151815f01908161094b9190611905565b506020820151816001015f6101000a81548173ffffffffffffffffffffffffffffffffffffffff021916908373ffffffffffffffffffffffffffffffffffffffff1602179055506040820151816002015560608201518160030190816109b19190611905565b506080820151816004015f6101000a81548160ff02191690831515021790555090505060016002826040516109e69190611526565b90815260200160405180910390205f6101000a81548160ff021916908315150217905550600191505092915050565b5f8061016d670de0b6b3a76400006103a2610a309190611a01565b610a3a9190611a6f565b90505f6064670de0b6b3a7640000866064610a559190611a9f565b610a5f9190611a01565b610a699190611a6f565b90505f670de0b6b3a76400008284610a819190611a01565b610a8b9190611a6f565b90505f670de0b6b3a76400008683610aa39190611a01565b610aad9190611a6f565b90505f8188610abc9190611ad2565b90506064811115610acc57606490505b809550505050505092915050565b5f610ae4826103ed565b610b23576040517f08c379a0000000000000000000000000000000000000000000000000000000008152600401610b1a90611624565b60405180910390fd5b60015f8373ffffffffffffffffffffffffffffffffffffffff1673ffffffffffffffffffffffffffffffffffffffff1681526020019081526020015f20600201549050919050565b5f8160015f8573ffffffffffffffffffffffffffffffffffffffff1673ffffffffffffffffffffffffffffffffffffffff1681526020019081526020015f206002015f828254610bbb9190611a9f565b925050819055506001905092915050565b5f610bd6326103ed565b610c15576040517f08c379a0000000000000000000000000000000000000000000000000000000008152600401610c0c90611b75565b60405180910390fd5b8160015f3273ffffffffffffffffffffffffffffffffffffffff1673ffffffffffffffffffffffffffffffffffffffff1681526020019081526020015f206002018190555060019050919050565b60605f82604051602001610c779190611526565b604051602081830303815290604052805190602001209050610c9881610ca0565b915050919050565b60605f6040518060400160405280601081526020017f303132333435363738396162636465660000000000000000000000000000000081525090505f604067ffffffffffffffff811115610cf757610cf661117e565b5b6040519080825280601f01601f191660200182016040528015610d295781602001600182028036833780820191505090505b5090505f5b6020811015610e8a57826004868360208110610d4d57610d4c611b93565b5b1a60f81b7effffffffffffffffffffffffffffffffffffffffffffffffffffffffffffff1916901c60f81c60ff1681518110610d8c57610d8b611b93565b5b602001015160f81c60f81b82600283610da59190611a01565b81518110610db657610db5611b93565b5b60200101907effffffffffffffffffffffffffffffffffffffffffffffffffffffffffffff191690815f1a90535082600f60f81b868360208110610dfd57610dfc611b93565b5b1a60f81b1660f81c60ff1681518110610e1957610e18611b93565b5b602001015160f81c60f81b82600283610e329190611a01565b6001610e3e9190611ad2565b81518110610e4f57610e4e611b93565b5b60200101907effffffffffffffffffffffffffffffffffffffffffffffffffffffffffffff191690815f1a9053508080600101915050610d2e565b508092505050919050565b6040518060a00160405280606081526020015f73ffffffffffffffffffffffffffffffffffffffff1681526020015f8152602001606081526020015f151581525090565b5f604051905090565b5f80fd5b5f80fd5b5f73ffffffffffffffffffffffffffffffffffffffff82169050919050565b5f610f1382610eea565b9050919050565b610f2381610f09565b8114610f2d575f80fd5b50565b5f81359050610f3e81610f1a565b92915050565b5f60208284031215610f5957610f58610ee2565b5b5f610f6684828501610f30565b91505092915050565b5f8115159050919050565b610f8381610f6f565b82525050565b5f602082019050610f9c5f830184610f7a565b92915050565b5f819050919050565b610fb481610fa2565b8114610fbe575f80fd5b50565b5f81359050610fcf81610fab565b92915050565b5f805f60608486031215610fec57610feb610ee2565b5b5f610ff986828701610f30565b935050602061100a86828701610fc1565b925050604061101b86828701610fc1565b9150509250925092565b5f81519050919050565b5f82825260208201905092915050565b5f5b8381101561105c578082015181840152602081019050611041565b5f8484015250505050565b5f601f19601f8301169050919050565b5f61108182611025565b61108b818561102f565b935061109b81856020860161103f565b6110a481611067565b840191505092915050565b6110b881610f09565b82525050565b6110c781610fa2565b82525050565b6110d681610f6f565b82525050565b5f60a083015f8301518482035f8601526110f68282611077565b915050602083015161110b60208601826110af565b50604083015161111e60408601826110be565b50606083015184820360608601526111368282611077565b915050608083015161114b60808601826110cd565b508091505092915050565b5f6020820190508181035f83015261116e81846110dc565b905092915050565b5f80fd5b5f80fd5b7f4e487b71000000000000000000000000000000000000000000000000000000005f52604160045260245ffd5b6111b482611067565b810181811067ffffffffffffffff821117156111d3576111d261117e565b5b80604052505050565b5f6111e5610ed9565b90506111f182826111ab565b919050565b5f67ffffffffffffffff8211156112105761120f61117e565b5b61121982611067565b9050602081019050919050565b828183375f83830152505050565b5f611246611241846111f6565b6111dc565b9050828152602081018484840111156112625761126161117a565b5b61126d848285611226565b509392505050565b5f82601f83011261128957611288611176565b5b8135611299848260208601611234565b91505092915050565b5f80604083850312156112b8576112b7610ee2565b5b5f83013567ffffffffffffffff8111156112d5576112d4610ee6565b5b6112e185828601611275565b925050602083013567ffffffffffffffff81111561130257611301610ee6565b5b61130e85828601611275565b9150509250929050565b5f806040838503121561132e5761132d610ee2565b5b5f61133b85828601610fc1565b925050602061134c85828601610fc1565b9150509250929050565b61135f81610fa2565b82525050565b5f6020820190506113785f830184611356565b92915050565b5f806040838503121561139457611393610ee2565b5b5f6113a185828601610f30565b92505060206113b285828601610fc1565b9150509250929050565b5f602082840312156113d1576113d0610ee2565b5b5f6113de84828501610fc1565b91505092915050565b7f4e487b71000000000000000000000000000000000000000000000000000000005f52602260045260245ffd5b5f600282049050600182168061142b57607f821691505b60208210810361143e5761143d6113e7565b5b50919050565b5f81905092915050565b5f819050815f5260205f209050919050565b5f815461146c81611414565b6114768186611444565b9450600182165f811461149057600181146114a5576114d7565b60ff19831686528115158202860193506114d7565b6114ae8561144e565b5f5b838110156114cf578154818901526001820191506020810190506114b0565b838801955050505b50505092915050565b5f6114eb8284611460565b915081905092915050565b5f61150082611025565b61150a8185611444565b935061151a81856020860161103f565b80840191505092915050565b5f61153182846114f6565b915081905092915050565b5f82825260208201905092915050565b7f557365723a616464726573732063616e27742062652061207a65726f206164645f8201527f7265737300000000000000000000000000000000000000000000000000000000602082015250565b5f6115a660248361153c565b91506115b18261154c565b604082019050919050565b5f6020820190508181035f8301526115d38161159a565b9050919050565b7f557365723a7468652061646472657373206861766e277420626f756e640000005f82015250565b5f61160e601d8361153c565b9150611619826115da565b602082019050919050565b5f6020820190508181035f83015261163b81611602565b9050919050565b7f557365723a494420697320626c61636b6c6973746564000000000000000000005f82015250565b5f61167660168361153c565b915061168182611642565b602082019050919050565b5f6020820190508181035f8301526116a38161166a565b9050919050565b7f557365723a4164647265737320616c726561647920626f756e640000000000005f82015250565b5f6116de601a8361153c565b91506116e9826116aa565b602082019050919050565b5f6020820190508181035f83015261170b816116d2565b9050919050565b7f557365723a494420616c726561647920626f756e6400000000000000000000005f82015250565b5f61174660158361153c565b915061175182611712565b602082019050919050565b5f6020820190508181035f8301526117738161173a565b9050919050565b5f6020601f8301049050919050565b5f82821b905092915050565b5f600883026117c47fffffffffffffffffffffffffffffffffffffffffffffffffffffffffffffffff82611789565b6117ce8683611789565b95508019841693508086168417925050509392505050565b5f819050919050565b5f6118096118046117ff84610fa2565b6117e6565b610fa2565b9050919050565b5f819050919050565b611822836117ef565b61183661182e82611810565b848454611795565b825550505050565b5f90565b61184a61183e565b611855818484611819565b505050565b5b818110156118785761186d5f82611842565b60018101905061185b565b5050565b601f8211156118bd5761188e8161144e565b6118978461177a565b810160208510156118a6578190505b6118ba6118b28561177a565b83018261185a565b50505b505050565b5f82821c905092915050565b5f6118dd5f19846008026118c2565b1980831691505092915050565b5f6118f583836118ce565b9150826002028217905092915050565b61190e82611025565b67ffffffffffffffff8111156119275761192661117e565b5b6119318254611414565b61193c82828561187c565b5f60209050601f83116001811461196d575f841561195b578287015190505b61196585826118ea565b8655506119cc565b601f19841661197b8661144e565b5f5b828110156119a25784890151825560018201915060208501945060208101905061197d565b868310156119bf57848901516119bb601f8916826118ce565b8355505b6001600288020188555050505b505050505050565b7f4e487b71000000000000000000000000000000000000000000000000000000005f52601160045260245ffd5b5f611a0b82610fa2565b9150611a1683610fa2565b9250828202611a2481610fa2565b91508282048414831517611a3b57611a3a6119d4565b5b5092915050565b7f4e487b71000000000000000000000000000000000000000000000000000000005f52601260045260245ffd5b5f611a7982610fa2565b9150611a8483610fa2565b925082611a9457611a93611a42565b5b828204905092915050565b5f611aa982610fa2565b9150611ab483610fa2565b9250828203905081811115611acc57611acb6119d4565b5b92915050565b5f611adc82610fa2565b9150611ae783610fa2565b9250828201905080821115611aff57611afe6119d4565b5b92915050565b7f557365723a506c6561736520626f756e64207769746820796f7572206964656e5f8201527f74696669636174696f6e21000000000000000000000000000000000000000000602082015250565b5f611b5f602b8361153c565b9150611b6a82611b05565b604082019050919050565b5f6020820190508181035f830152611b8c81611b53565b9050919050565b7f4e487b71000000000000000000000000000000000000000000000000000000005f52603260045260245ffdfea26469706673582212208a4bca625f7de4db9a760fe2900b735bf7e4e810ab93951a51428ec217384d5d64736f6c63430008160033",
					"opcodes": "PUSH1 0x80 PUSH1 0x40 MSTORE CALLVALUE DUP1 ISZERO PUSH2 0xF JUMPI PUSH0 DUP1 REVERT JUMPDEST POP PUSH2 0x1BF6 DUP1 PUSH2 0x1D PUSH0 CODECOPY PUSH0 RETURN INVALID PUSH1 0x80 PUSH1 0x40 MSTORE CALLVALUE DUP1 ISZERO PUSH2 0xF JUMPI PUSH0 DUP1 REVERT JUMPDEST POP PUSH1 0x4 CALLDATASIZE LT PUSH2 0x9C JUMPI PUSH0 CALLDATALOAD PUSH1 0xE0 SHR DUP1 PUSH4 0x9DEB17F5 GT PUSH2 0x64 JUMPI DUP1 PUSH4 0x9DEB17F5 EQ PUSH2 0x17C JUMPI DUP1 PUSH4 0xAD7CFA57 EQ PUSH2 0x1AC JUMPI DUP1 PUSH4 0xBACCBFDB EQ PUSH2 0x1DC JUMPI DUP1 PUSH4 0xCF093926 EQ PUSH2 0x20C JUMPI DUP1 PUSH4 0xED0D19B7 EQ PUSH2 0x23C JUMPI PUSH2 0x9C JUMP JUMPDEST DUP1 PUSH4 0x1CDD3BE3 EQ PUSH2 0xA0 JUMPI DUP1 PUSH4 0x3AD87FA1 EQ PUSH2 0xD0 JUMPI DUP1 PUSH4 0x4CFCF646 EQ PUSH2 0xEC JUMPI DUP1 PUSH4 0x5C0E5F88 EQ PUSH2 0x11C JUMPI DUP1 PUSH4 0x6386C1C7 EQ PUSH2 0x14C JUMPI JUMPDEST PUSH0 DUP1 REVERT JUMPDEST PUSH2 0xBA PUSH1 0x4 DUP1 CALLDATASIZE SUB DUP2 ADD SWAP1 PUSH2 0xB5 SWAP2 SWAP1 PUSH2 0xF44 JUMP JUMPDEST PUSH2 0x26C JUMP JUMPDEST PUSH1 0x40 MLOAD PUSH2 0xC7 SWAP2 SWAP1 PUSH2 0xF89 JUMP JUMPDEST PUSH1 0x40 MLOAD DUP1 SWAP2 SUB SWAP1 RETURN JUMPDEST PUSH2 0xEA PUSH1 0x4 DUP1 CALLDATASIZE SUB DUP2 ADD SWAP1 PUSH2 0xE5 SWAP2 SWAP1 PUSH2 0xF44 JUMP JUMPDEST PUSH2 0x2DC JUMP JUMPDEST STOP JUMPDEST PUSH2 0x106 PUSH1 0x4 DUP1 CALLDATASIZE SUB DUP2 ADD SWAP1 PUSH2 0x101 SWAP2 SWAP1 PUSH2 0xF44 JUMP JUMPDEST PUSH2 0x3ED JUMP JUMPDEST PUSH1 0x40 MLOAD PUSH2 0x113 SWAP2 SWAP1 PUSH2 0xF89 JUMP JUMPDEST PUSH1 0x40 MLOAD DUP1 SWAP2 SUB SWAP1 RETURN JUMPDEST PUSH2 0x136 PUSH1 0x4 DUP1 CALLDATASIZE SUB DUP2 ADD SWAP1 PUSH2 0x131 SWAP2 SWAP1 PUSH2 0xFD5 JUMP JUMPDEST PUSH2 0x4B5 JUMP JUMPDEST PUSH1 0x40 MLOAD PUSH2 0x143 SWAP2 SWAP1 PUSH2 0xF89 JUMP JUMPDEST PUSH1 0x40 MLOAD DUP1 SWAP2 SUB SWAP1 RETURN JUMPDEST PUSH2 0x166 PUSH1 0x4 DUP1 CALLDATASIZE SUB DUP2 ADD SWAP1 PUSH2 0x161 SWAP2 SWAP1 PUSH2 0xF44 JUMP JUMPDEST PUSH2 0x514 JUMP JUMPDEST PUSH1 0x40 MLOAD PUSH2 0x173 SWAP2 SWAP1 PUSH2 0x1156 JUMP JUMPDEST PUSH1 0x40 MLOAD DUP1 SWAP2 SUB SWAP1 RETURN JUMPDEST PUSH2 0x196 PUSH1 0x4 DUP1 CALLDATASIZE SUB DUP2 ADD SWAP1 PUSH2 0x191 SWAP2 SWAP1 PUSH2 0x12A2 JUMP JUMPDEST PUSH2 0x74B JUMP JUMPDEST PUSH1 0x40 MLOAD PUSH2 0x1A3 SWAP2 SWAP1 PUSH2 0xF89 JUMP JUMPDEST PUSH1 0x40 MLOAD DUP1 SWAP2 SUB SWAP1 RETURN JUMPDEST PUSH2 0x1C6 PUSH1 0x4 DUP1 CALLDATASIZE SUB DUP2 ADD SWAP1 PUSH2 0x1C1 SWAP2 SWAP1 PUSH2 0x1318 JUMP JUMPDEST PUSH2 0xA15 JUMP JUMPDEST PUSH1 0x40 MLOAD PUSH2 0x1D3 SWAP2 SWAP1 PUSH2 0x1365 JUMP JUMPDEST PUSH1 0x40 MLOAD DUP1 SWAP2 SUB SWAP1 RETURN JUMPDEST PUSH2 0x1F6 PUSH1 0x4 DUP1 CALLDATASIZE SUB DUP2 ADD SWAP1 PUSH2 0x1F1 SWAP2 SWAP1 PUSH2 0xF44 JUMP JUMPDEST PUSH2 0xADA JUMP JUMPDEST PUSH1 0x40 MLOAD PUSH2 0x203 SWAP2 SWAP1 PUSH2 0x1365 JUMP JUMPDEST PUSH1 0x40 MLOAD DUP1 SWAP2 SUB SWAP1 RETURN JUMPDEST PUSH2 0x226 PUSH1 0x4 DUP1 CALLDATASIZE SUB DUP2 ADD SWAP1 PUSH2 0x221 SWAP2 SWAP1 PUSH2 0x137E JUMP JUMPDEST PUSH2 0xB6B JUMP JUMPDEST PUSH1 0x40 MLOAD PUSH2 0x233 SWAP2 SWAP1 PUSH2 0xF89 JUMP JUMPDEST PUSH1 0x40 MLOAD DUP1 SWAP2 SUB SWAP1 RETURN JUMPDEST PUSH2 0x256 PUSH1 0x4 DUP1 CALLDATASIZE SUB DUP2 ADD SWAP1 PUSH2 0x251 SWAP2 SWAP1 PUSH2 0x13BC JUMP JUMPDEST PUSH2 0xBCC JUMP JUMPDEST PUSH1 0x40 MLOAD PUSH2 0x263 SWAP2 SWAP1 PUSH2 0xF89 JUMP JUMPDEST PUSH1 0x40 MLOAD DUP1 SWAP2 SUB SWAP1 RETURN JUMPDEST PUSH0 DUP1 PUSH1 0x1 PUSH0 DUP5 PUSH20 0xFFFFFFFFFFFFFFFFFFFFFFFFFFFFFFFFFFFFFFFF AND PUSH20 0xFFFFFFFFFFFFFFFFFFFFFFFFFFFFFFFFFFFFFFFF AND DUP2 MSTORE PUSH1 0x20 ADD SWAP1 DUP2 MSTORE PUSH1 0x20 ADD PUSH0 KECCAK256 PUSH0 ADD PUSH1 0x40 MLOAD PUSH2 0x2BA SWAP2 SWAP1 PUSH2 0x14E0 JUMP JUMPDEST SWAP1 DUP2 MSTORE PUSH1 0x20 ADD PUSH1 0x40 MLOAD DUP1 SWAP2 SUB SWAP1 KECCAK256 PUSH0 SWAP1 SLOAD SWAP1 PUSH2 0x100 EXP SWAP1 DIV PUSH1 0xFF AND SWAP1 POP SWAP2 SWAP1 POP JUMP JUMPDEST PUSH2 0x2E5 DUP2 PUSH2 0x3ED JUMP JUMPDEST ISZERO PUSH2 0x3EA JUMPI PUSH0 PUSH1 0x1 PUSH0 DUP4 PUSH20 0xFFFFFFFFFFFFFFFFFFFFFFFFFFFFFFFFFFFFFFFF AND PUSH20 0xFFFFFFFFFFFFFFFFFFFFFFFFFFFFFFFFFFFFFFFF AND DUP2 MSTORE PUSH1 0x20 ADD SWAP1 DUP2 MSTORE PUSH1 0x20 ADD PUSH0 KECCAK256 PUSH0 ADD DUP1 SLOAD PUSH2 0x335 SWAP1 PUSH2 0x1414 JUMP JUMPDEST DUP1 PUSH1 0x1F ADD PUSH1 0x20 DUP1 SWAP2 DIV MUL PUSH1 0x20 ADD PUSH1 0x40 MLOAD SWAP1 DUP2 ADD PUSH1 0x40 MSTORE DUP1 SWAP3 SWAP2 SWAP1 DUP2 DUP2 MSTORE PUSH1 0x20 ADD DUP3 DUP1 SLOAD PUSH2 0x361 SWAP1 PUSH2 0x1414 JUMP JUMPDEST DUP1 ISZERO PUSH2 0x3AC JUMPI DUP1 PUSH1 0x1F LT PUSH2 0x383 JUMPI PUSH2 0x100 DUP1 DUP4 SLOAD DIV MUL DUP4 MSTORE SWAP2 PUSH1 0x20 ADD SWAP2 PUSH2 0x3AC JUMP JUMPDEST DUP3 ADD SWAP2 SWAP1 PUSH0 MSTORE PUSH1 0x20 PUSH0 KECCAK256 SWAP1 JUMPDEST DUP2 SLOAD DUP2 MSTORE SWAP1 PUSH1 0x1 ADD SWAP1 PUSH1 0x20 ADD DUP1 DUP4 GT PUSH2 0x38F JUMPI DUP3 SWAP1 SUB PUSH1 0x1F AND DUP3 ADD SWAP2 JUMPDEST POP POP POP POP POP SWAP1 POP PUSH1 0x1 PUSH0 DUP3 PUSH1 0x40 MLOAD PUSH2 0x3C4 SWAP2 SWAP1 PUSH2 0x1526 JUMP JUMPDEST SWAP1 DUP2 MSTORE PUSH1 0x20 ADD PUSH1 0x40 MLOAD DUP1 SWAP2 SUB SWAP1 KECCAK256 PUSH0 PUSH2 0x100 EXP DUP2 SLOAD DUP2 PUSH1 0xFF MUL NOT AND SWAP1 DUP4 ISZERO ISZERO MUL OR SWAP1 SSTORE POP POP JUMPDEST POP JUMP JUMPDEST PUSH0 DUP1 PUSH20 0xFFFFFFFFFFFFFFFFFFFFFFFFFFFFFFFFFFFFFFFF AND DUP3 PUSH20 0xFFFFFFFFFFFFFFFFFFFFFFFFFFFFFFFFFFFFFFFF AND SUB PUSH2 0x45C JUMPI PUSH1 0x40 MLOAD PUSH32 0x8C379A000000000000000000000000000000000000000000000000000000000 DUP2 MSTORE PUSH1 0x4 ADD PUSH2 0x453 SWAP1 PUSH2 0x15BC JUMP JUMPDEST PUSH1 0x40 MLOAD DUP1 SWAP2 SUB SWAP1 REVERT JUMPDEST PUSH0 PUSH1 0x1 PUSH0 DUP5 PUSH20 0xFFFFFFFFFFFFFFFFFFFFFFFFFFFFFFFFFFFFFFFF AND PUSH20 0xFFFFFFFFFFFFFFFFFFFFFFFFFFFFFFFFFFFFFFFF AND DUP2 MSTORE PUSH1 0x20 ADD SWAP1 DUP2 MSTORE PUSH1 0x20 ADD PUSH0 KECCAK256 PUSH1 0x4 ADD PUSH0 SWAP1 SLOAD SWAP1 PUSH2 0x100 EXP SWAP1 DIV PUSH1 0xFF AND SWAP1 POP DUP1 SWAP2 POP POP SWAP2 SWAP1 POP JUMP JUMPDEST PUSH0 DUP1 PUSH2 0x4C1 DUP5 DUP5 PUSH2 0xA15 JUMP JUMPDEST SWAP1 POP DUP1 PUSH1 0x1 PUSH0 DUP8 PUSH20 0xFFFFFFFFFFFFFFFFFFFFFFFFFFFFFFFFFFFFFFFF AND PUSH20 0xFFFFFFFFFFFFFFFFFFFFFFFFFFFFFFFFFFFFFFFF AND DUP2 MSTORE PUSH1 0x20 ADD SWAP1 DUP2 MSTORE PUSH1 0x20 ADD PUSH0 KECCAK256 PUSH1 0x2 ADD DUP2 SWAP1 SSTORE POP PUSH1 0x1 SWAP2 POP POP SWAP4 SWAP3 POP POP POP JUMP JUMPDEST PUSH2 0x51C PUSH2 0xE95 JUMP JUMPDEST PUSH2 0x525 DUP3 PUSH2 0x3ED JUMP JUMPDEST PUSH2 0x564 JUMPI PUSH1 0x40 MLOAD PUSH32 0x8C379A000000000000000000000000000000000000000000000000000000000 DUP2 MSTORE PUSH1 0x4 ADD PUSH2 0x55B SWAP1 PUSH2 0x1624 JUMP JUMPDEST PUSH1 0x40 MLOAD DUP1 SWAP2 SUB SWAP1 REVERT JUMPDEST PUSH1 0x1 PUSH0 DUP4 PUSH20 0xFFFFFFFFFFFFFFFFFFFFFFFFFFFFFFFFFFFFFFFF AND PUSH20 0xFFFFFFFFFFFFFFFFFFFFFFFFFFFFFFFFFFFFFFFF AND DUP2 MSTORE PUSH1 0x20 ADD SWAP1 DUP2 MSTORE PUSH1 0x20 ADD PUSH0 KECCAK256 PUSH1 0x40 MLOAD DUP1 PUSH1 0xA0 ADD PUSH1 0x40 MSTORE SWAP1 DUP2 PUSH0 DUP3 ADD DUP1 SLOAD PUSH2 0x5BB SWAP1 PUSH2 0x1414 JUMP JUMPDEST DUP1 PUSH1 0x1F ADD PUSH1 0x20 DUP1 SWAP2 DIV MUL PUSH1 0x20 ADD PUSH1 0x40 MLOAD SWAP1 DUP2 ADD PUSH1 0x40 MSTORE DUP1 SWAP3 SWAP2 SWAP1 DUP2 DUP2 MSTORE PUSH1 0x20 ADD DUP3 DUP1 SLOAD PUSH2 0x5E7 SWAP1 PUSH2 0x1414 JUMP JUMPDEST DUP1 ISZERO PUSH2 0x632 JUMPI DUP1 PUSH1 0x1F LT PUSH2 0x609 JUMPI PUSH2 0x100 DUP1 DUP4 SLOAD DIV MUL DUP4 MSTORE SWAP2 PUSH1 0x20 ADD SWAP2 PUSH2 0x632 JUMP JUMPDEST DUP3 ADD SWAP2 SWAP1 PUSH0 MSTORE PUSH1 0x20 PUSH0 KECCAK256 SWAP1 JUMPDEST DUP2 SLOAD DUP2 MSTORE SWAP1 PUSH1 0x1 ADD SWAP1 PUSH1 0x20 ADD DUP1 DUP4 GT PUSH2 0x615 JUMPI DUP3 SWAP1 SUB PUSH1 0x1F AND DUP3 ADD SWAP2 JUMPDEST POP POP POP POP POP DUP2 MSTORE PUSH1 0x20 ADD PUSH1 0x1 DUP3 ADD PUSH0 SWAP1 SLOAD SWAP1 PUSH2 0x100 EXP SWAP1 DIV PUSH20 0xFFFFFFFFFFFFFFFFFFFFFFFFFFFFFFFFFFFFFFFF AND PUSH20 0xFFFFFFFFFFFFFFFFFFFFFFFFFFFFFFFFFFFFFFFF AND PUSH20 0xFFFFFFFFFFFFFFFFFFFFFFFFFFFFFFFFFFFFFFFF AND DUP2 MSTORE PUSH1 0x20 ADD PUSH1 0x2 DUP3 ADD SLOAD DUP2 MSTORE PUSH1 0x20 ADD PUSH1 0x3 DUP3 ADD DUP1 SLOAD PUSH2 0x6AA SWAP1 PUSH2 0x1414 JUMP JUMPDEST DUP1 PUSH1 0x1F ADD PUSH1 0x20 DUP1 SWAP2 DIV MUL PUSH1 0x20 ADD PUSH1 0x40 MLOAD SWAP1 DUP2 ADD PUSH1 0x40 MSTORE DUP1 SWAP3 SWAP2 SWAP1 DUP2 DUP2 MSTORE PUSH1 0x20 ADD DUP3 DUP1 SLOAD PUSH2 0x6D6 SWAP1 PUSH2 0x1414 JUMP JUMPDEST DUP1 ISZERO PUSH2 0x721 JUMPI DUP1 PUSH1 0x1F LT PUSH2 0x6F8 JUMPI PUSH2 0x100 DUP1 DUP4 SLOAD DIV MUL DUP4 MSTORE SWAP2 PUSH1 0x20 ADD SWAP2 PUSH2 0x721 JUMP JUMPDEST DUP3 ADD SWAP2 SWAP1 PUSH0 MSTORE PUSH1 0x20 PUSH0 KECCAK256 SWAP1 JUMPDEST DUP2 SLOAD DUP2 MSTORE SWAP1 PUSH1 0x1 ADD SWAP1 PUSH1 0x20 ADD DUP1 DUP4 GT PUSH2 0x704 JUMPI DUP3 SWAP1 SUB PUSH1 0x1F AND DUP3 ADD SWAP2 JUMPDEST POP POP POP POP POP DUP2 MSTORE PUSH1 0x20 ADD PUSH1 0x4 DUP3 ADD PUSH0 SWAP1 SLOAD SWAP1 PUSH2 0x100 EXP SWAP1 DIV PUSH1 0xFF AND ISZERO ISZERO ISZERO ISZERO DUP2 MSTORE POP POP SWAP1 POP SWAP2 SWAP1 POP JUMP JUMPDEST PUSH0 DUP1 PUSH2 0x756 DUP5 PUSH2 0xC63 JUMP JUMPDEST SWAP1 POP PUSH0 DUP2 PUSH1 0x40 MLOAD PUSH2 0x767 SWAP2 SWAP1 PUSH2 0x1526 JUMP JUMPDEST SWAP1 DUP2 MSTORE PUSH1 0x20 ADD PUSH1 0x40 MLOAD DUP1 SWAP2 SUB SWAP1 KECCAK256 PUSH0 SWAP1 SLOAD SWAP1 PUSH2 0x100 EXP SWAP1 DIV PUSH1 0xFF AND ISZERO PUSH2 0x7C2 JUMPI PUSH1 0x40 MLOAD PUSH32 0x8C379A000000000000000000000000000000000000000000000000000000000 DUP2 MSTORE PUSH1 0x4 ADD PUSH2 0x7B9 SWAP1 PUSH2 0x168C JUMP JUMPDEST PUSH1 0x40 MLOAD DUP1 SWAP2 SUB SWAP1 REVERT JUMPDEST PUSH1 0x1 PUSH0 ORIGIN PUSH20 0xFFFFFFFFFFFFFFFFFFFFFFFFFFFFFFFFFFFFFFFF AND PUSH20 0xFFFFFFFFFFFFFFFFFFFFFFFFFFFFFFFFFFFFFFFF AND DUP2 MSTORE PUSH1 0x20 ADD SWAP1 DUP2 MSTORE PUSH1 0x20 ADD PUSH0 KECCAK256 PUSH1 0x4 ADD PUSH0 SWAP1 SLOAD SWAP1 PUSH2 0x100 EXP SWAP1 DIV PUSH1 0xFF AND ISZERO PUSH2 0x84F JUMPI PUSH1 0x40 MLOAD PUSH32 0x8C379A000000000000000000000000000000000000000000000000000000000 DUP2 MSTORE PUSH1 0x4 ADD PUSH2 0x846 SWAP1 PUSH2 0x16F4 JUMP JUMPDEST PUSH1 0x40 MLOAD DUP1 SWAP2 SUB SWAP1 REVERT JUMPDEST PUSH1 0x2 DUP2 PUSH1 0x40 MLOAD PUSH2 0x85F SWAP2 SWAP1 PUSH2 0x1526 JUMP JUMPDEST SWAP1 DUP2 MSTORE PUSH1 0x20 ADD PUSH1 0x40 MLOAD DUP1 SWAP2 SUB SWAP1 KECCAK256 PUSH0 SWAP1 SLOAD SWAP1 PUSH2 0x100 EXP SWAP1 DIV PUSH1 0xFF AND ISZERO PUSH2 0x8BA JUMPI PUSH1 0x40 MLOAD PUSH32 0x8C379A000000000000000000000000000000000000000000000000000000000 DUP2 MSTORE PUSH1 0x4 ADD PUSH2 0x8B1 SWAP1 PUSH2 0x175C JUMP JUMPDEST PUSH1 0x40 MLOAD DUP1 SWAP2 SUB SWAP1 REVERT JUMPDEST PUSH1 0x40 MLOAD DUP1 PUSH1 0xA0 ADD PUSH1 0x40 MSTORE DUP1 DUP3 DUP2 MSTORE PUSH1 0x20 ADD ORIGIN PUSH20 0xFFFFFFFFFFFFFFFFFFFFFFFFFFFFFFFFFFFFFFFF AND DUP2 MSTORE PUSH1 0x20 ADD PUSH1 0x3C DUP2 MSTORE PUSH1 0x20 ADD DUP5 DUP2 MSTORE PUSH1 0x20 ADD PUSH1 0x1 ISZERO ISZERO DUP2 MSTORE POP PUSH1 0x1 PUSH0 CALLER PUSH20 0xFFFFFFFFFFFFFFFFFFFFFFFFFFFFFFFFFFFFFFFF AND PUSH20 0xFFFFFFFFFFFFFFFFFFFFFFFFFFFFFFFFFFFFFFFF AND DUP2 MSTORE PUSH1 0x20 ADD SWAP1 DUP2 MSTORE PUSH1 0x20 ADD PUSH0 KECCAK256 PUSH0 DUP3 ADD MLOAD DUP2 PUSH0 ADD SWAP1 DUP2 PUSH2 0x94B SWAP2 SWAP1 PUSH2 0x1905 JUMP JUMPDEST POP PUSH1 0x20 DUP3 ADD MLOAD DUP2 PUSH1 0x1 ADD PUSH0 PUSH2 0x100 EXP DUP2 SLOAD DUP2 PUSH20 0xFFFFFFFFFFFFFFFFFFFFFFFFFFFFFFFFFFFFFFFF MUL NOT AND SWAP1 DUP4 PUSH20 0xFFFFFFFFFFFFFFFFFFFFFFFFFFFFFFFFFFFFFFFF AND MUL OR SWAP1 SSTORE POP PUSH1 0x40 DUP3 ADD MLOAD DUP2 PUSH1 0x2 ADD SSTORE PUSH1 0x60 DUP3 ADD MLOAD DUP2 PUSH1 0x3 ADD SWAP1 DUP2 PUSH2 0x9B1 SWAP2 SWAP1 PUSH2 0x1905 JUMP JUMPDEST POP PUSH1 0x80 DUP3 ADD MLOAD DUP2 PUSH1 0x4 ADD PUSH0 PUSH2 0x100 EXP DUP2 SLOAD DUP2 PUSH1 0xFF MUL NOT AND SWAP1 DUP4 ISZERO ISZERO MUL OR SWAP1 SSTORE POP SWAP1 POP POP PUSH1 0x1 PUSH1 0x2 DUP3 PUSH1 0x40 MLOAD PUSH2 0x9E6 SWAP2 SWAP1 PUSH2 0x1526 JUMP JUMPDEST SWAP1 DUP2 MSTORE PUSH1 0x20 ADD PUSH1 0x40 MLOAD DUP1 SWAP2 SUB SWAP1 KECCAK256 PUSH0 PUSH2 0x100 EXP DUP2 SLOAD DUP2 PUSH1 0xFF MUL NOT AND SWAP1 DUP4 ISZERO ISZERO MUL OR SWAP1 SSTORE POP PUSH1 0x1 SWAP2 POP POP SWAP3 SWAP2 POP POP JUMP JUMPDEST PUSH0 DUP1 PUSH2 0x16D PUSH8 0xDE0B6B3A7640000 PUSH2 0x3A2 PUSH2 0xA30 SWAP2 SWAP1 PUSH2 0x1A01 JUMP JUMPDEST PUSH2 0xA3A SWAP2 SWAP1 PUSH2 0x1A6F JUMP JUMPDEST SWAP1 POP PUSH0 PUSH1 0x64 PUSH8 0xDE0B6B3A7640000 DUP7 PUSH1 0x64 PUSH2 0xA55 SWAP2 SWAP1 PUSH2 0x1A9F JUMP JUMPDEST PUSH2 0xA5F SWAP2 SWAP1 PUSH2 0x1A01 JUMP JUMPDEST PUSH2 0xA69 SWAP2 SWAP1 PUSH2 0x1A6F JUMP JUMPDEST SWAP1 POP PUSH0 PUSH8 0xDE0B6B3A7640000 DUP3 DUP5 PUSH2 0xA81 SWAP2 SWAP1 PUSH2 0x1A01 JUMP JUMPDEST PUSH2 0xA8B SWAP2 SWAP1 PUSH2 0x1A6F JUMP JUMPDEST SWAP1 POP PUSH0 PUSH8 0xDE0B6B3A7640000 DUP7 DUP4 PUSH2 0xAA3 SWAP2 SWAP1 PUSH2 0x1A01 JUMP JUMPDEST PUSH2 0xAAD SWAP2 SWAP1 PUSH2 0x1A6F JUMP JUMPDEST SWAP1 POP PUSH0 DUP2 DUP9 PUSH2 0xABC SWAP2 SWAP1 PUSH2 0x1AD2 JUMP JUMPDEST SWAP1 POP PUSH1 0x64 DUP2 GT ISZERO PUSH2 0xACC JUMPI PUSH1 0x64 SWAP1 POP JUMPDEST DUP1 SWAP6 POP POP POP POP POP POP SWAP3 SWAP2 POP POP JUMP JUMPDEST PUSH0 PUSH2 0xAE4 DUP3 PUSH2 0x3ED JUMP JUMPDEST PUSH2 0xB23 JUMPI PUSH1 0x40 MLOAD PUSH32 0x8C379A000000000000000000000000000000000000000000000000000000000 DUP2 MSTORE PUSH1 0x4 ADD PUSH2 0xB1A SWAP1 PUSH2 0x1624 JUMP JUMPDEST PUSH1 0x40 MLOAD DUP1 SWAP2 SUB SWAP1 REVERT JUMPDEST PUSH1 0x1 PUSH0 DUP4 PUSH20 0xFFFFFFFFFFFFFFFFFFFFFFFFFFFFFFFFFFFFFFFF AND PUSH20 0xFFFFFFFFFFFFFFFFFFFFFFFFFFFFFFFFFFFFFFFF AND DUP2 MSTORE PUSH1 0x20 ADD SWAP1 DUP2 MSTORE PUSH1 0x20 ADD PUSH0 KECCAK256 PUSH1 0x2 ADD SLOAD SWAP1 POP SWAP2 SWAP1 POP JUMP JUMPDEST PUSH0 DUP2 PUSH1 0x1 PUSH0 DUP6 PUSH20 0xFFFFFFFFFFFFFFFFFFFFFFFFFFFFFFFFFFFFFFFF AND PUSH20 0xFFFFFFFFFFFFFFFFFFFFFFFFFFFFFFFFFFFFFFFF AND DUP2 MSTORE PUSH1 0x20 ADD SWAP1 DUP2 MSTORE PUSH1 0x20 ADD PUSH0 KECCAK256 PUSH1 0x2 ADD PUSH0 DUP3 DUP3 SLOAD PUSH2 0xBBB SWAP2 SWAP1 PUSH2 0x1A9F JUMP JUMPDEST SWAP3 POP POP DUP2 SWAP1 SSTORE POP PUSH1 0x1 SWAP1 POP SWAP3 SWAP2 POP POP JUMP JUMPDEST PUSH0 PUSH2 0xBD6 ORIGIN PUSH2 0x3ED JUMP JUMPDEST PUSH2 0xC15 JUMPI PUSH1 0x40 MLOAD PUSH32 0x8C379A000000000000000000000000000000000000000000000000000000000 DUP2 MSTORE PUSH1 0x4 ADD PUSH2 0xC0C SWAP1 PUSH2 0x1B75 JUMP JUMPDEST PUSH1 0x40 MLOAD DUP1 SWAP2 SUB SWAP1 REVERT JUMPDEST DUP2 PUSH1 0x1 PUSH0 ORIGIN PUSH20 0xFFFFFFFFFFFFFFFFFFFFFFFFFFFFFFFFFFFFFFFF AND PUSH20 0xFFFFFFFFFFFFFFFFFFFFFFFFFFFFFFFFFFFFFFFF AND DUP2 MSTORE PUSH1 0x20 ADD SWAP1 DUP2 MSTORE PUSH1 0x20 ADD PUSH0 KECCAK256 PUSH1 0x2 ADD DUP2 SWAP1 SSTORE POP PUSH1 0x1 SWAP1 POP SWAP2 SWAP1 POP JUMP JUMPDEST PUSH1 0x60 PUSH0 DUP3 PUSH1 0x40 MLOAD PUSH1 0x20 ADD PUSH2 0xC77 SWAP2 SWAP1 PUSH2 0x1526 JUMP JUMPDEST PUSH1 0x40 MLOAD PUSH1 0x20 DUP2 DUP4 SUB SUB DUP2 MSTORE SWAP1 PUSH1 0x40 MSTORE DUP1 MLOAD SWAP1 PUSH1 0x20 ADD KECCAK256 SWAP1 POP PUSH2 0xC98 DUP2 PUSH2 0xCA0 JUMP JUMPDEST SWAP2 POP POP SWAP2 SWAP1 POP JUMP JUMPDEST PUSH1 0x60 PUSH0 PUSH1 0x40 MLOAD DUP1 PUSH1 0x40 ADD PUSH1 0x40 MSTORE DUP1 PUSH1 0x10 DUP2 MSTORE PUSH1 0x20 ADD PUSH32 0x3031323334353637383961626364656600000000000000000000000000000000 DUP2 MSTORE POP SWAP1 POP PUSH0 PUSH1 0x40 PUSH8 0xFFFFFFFFFFFFFFFF DUP2 GT ISZERO PUSH2 0xCF7 JUMPI PUSH2 0xCF6 PUSH2 0x117E JUMP JUMPDEST JUMPDEST PUSH1 0x40 MLOAD SWAP1 DUP1 DUP3 MSTORE DUP1 PUSH1 0x1F ADD PUSH1 0x1F NOT AND PUSH1 0x20 ADD DUP3 ADD PUSH1 0x40 MSTORE DUP1 ISZERO PUSH2 0xD29 JUMPI DUP2 PUSH1 0x20 ADD PUSH1 0x1 DUP3 MUL DUP1 CALLDATASIZE DUP4 CALLDATACOPY DUP1 DUP3 ADD SWAP2 POP POP SWAP1 POP JUMPDEST POP SWAP1 POP PUSH0 JUMPDEST PUSH1 0x20 DUP2 LT ISZERO PUSH2 0xE8A JUMPI DUP3 PUSH1 0x4 DUP7 DUP4 PUSH1 0x20 DUP2 LT PUSH2 0xD4D JUMPI PUSH2 0xD4C PUSH2 0x1B93 JUMP JUMPDEST JUMPDEST BYTE PUSH1 0xF8 SHL PUSH31 0xFFFFFFFFFFFFFFFFFFFFFFFFFFFFFFFFFFFFFFFFFFFFFFFFFFFFFFFFFFFFFF NOT AND SWAP1 SHR PUSH1 0xF8 SHR PUSH1 0xFF AND DUP2 MLOAD DUP2 LT PUSH2 0xD8C JUMPI PUSH2 0xD8B PUSH2 0x1B93 JUMP JUMPDEST JUMPDEST PUSH1 0x20 ADD ADD MLOAD PUSH1 0xF8 SHR PUSH1 0xF8 SHL DUP3 PUSH1 0x2 DUP4 PUSH2 0xDA5 SWAP2 SWAP1 PUSH2 0x1A01 JUMP JUMPDEST DUP2 MLOAD DUP2 LT PUSH2 0xDB6 JUMPI PUSH2 0xDB5 PUSH2 0x1B93 JUMP JUMPDEST JUMPDEST PUSH1 0x20 ADD ADD SWAP1 PUSH31 0xFFFFFFFFFFFFFFFFFFFFFFFFFFFFFFFFFFFFFFFFFFFFFFFFFFFFFFFFFFFFFF NOT AND SWAP1 DUP2 PUSH0 BYTE SWAP1 MSTORE8 POP DUP3 PUSH1 0xF PUSH1 0xF8 SHL DUP7 DUP4 PUSH1 0x20 DUP2 LT PUSH2 0xDFD JUMPI PUSH2 0xDFC PUSH2 0x1B93 JUMP JUMPDEST JUMPDEST BYTE PUSH1 0xF8 SHL AND PUSH1 0xF8 SHR PUSH1 0xFF AND DUP2 MLOAD DUP2 LT PUSH2 0xE19 JUMPI PUSH2 0xE18 PUSH2 0x1B93 JUMP JUMPDEST JUMPDEST PUSH1 0x20 ADD ADD MLOAD PUSH1 0xF8 SHR PUSH1 0xF8 SHL DUP3 PUSH1 0x2 DUP4 PUSH2 0xE32 SWAP2 SWAP1 PUSH2 0x1A01 JUMP JUMPDEST PUSH1 0x1 PUSH2 0xE3E SWAP2 SWAP1 PUSH2 0x1AD2 JUMP JUMPDEST DUP2 MLOAD DUP2 LT PUSH2 0xE4F JUMPI PUSH2 0xE4E PUSH2 0x1B93 JUMP JUMPDEST JUMPDEST PUSH1 0x20 ADD ADD SWAP1 PUSH31 0xFFFFFFFFFFFFFFFFFFFFFFFFFFFFFFFFFFFFFFFFFFFFFFFFFFFFFFFFFFFFFF NOT AND SWAP1 DUP2 PUSH0 BYTE SWAP1 MSTORE8 POP DUP1 DUP1 PUSH1 0x1 ADD SWAP2 POP POP PUSH2 0xD2E JUMP JUMPDEST POP DUP1 SWAP3 POP POP POP SWAP2 SWAP1 POP JUMP JUMPDEST PUSH1 0x40 MLOAD DUP1 PUSH1 0xA0 ADD PUSH1 0x40 MSTORE DUP1 PUSH1 0x60 DUP2 MSTORE PUSH1 0x20 ADD PUSH0 PUSH20 0xFFFFFFFFFFFFFFFFFFFFFFFFFFFFFFFFFFFFFFFF AND DUP2 MSTORE PUSH1 0x20 ADD PUSH0 DUP2 MSTORE PUSH1 0x20 ADD PUSH1 0x60 DUP2 MSTORE PUSH1 0x20 ADD PUSH0 ISZERO ISZERO DUP2 MSTORE POP SWAP1 JUMP JUMPDEST PUSH0 PUSH1 0x40 MLOAD SWAP1 POP SWAP1 JUMP JUMPDEST PUSH0 DUP1 REVERT JUMPDEST PUSH0 DUP1 REVERT JUMPDEST PUSH0 PUSH20 0xFFFFFFFFFFFFFFFFFFFFFFFFFFFFFFFFFFFFFFFF DUP3 AND SWAP1 POP SWAP2 SWAP1 POP JUMP JUMPDEST PUSH0 PUSH2 0xF13 DUP3 PUSH2 0xEEA JUMP JUMPDEST SWAP1 POP SWAP2 SWAP1 POP JUMP JUMPDEST PUSH2 0xF23 DUP2 PUSH2 0xF09 JUMP JUMPDEST DUP2 EQ PUSH2 0xF2D JUMPI PUSH0 DUP1 REVERT JUMPDEST POP JUMP JUMPDEST PUSH0 DUP2 CALLDATALOAD SWAP1 POP PUSH2 0xF3E DUP2 PUSH2 0xF1A JUMP JUMPDEST SWAP3 SWAP2 POP POP JUMP JUMPDEST PUSH0 PUSH1 0x20 DUP3 DUP5 SUB SLT ISZERO PUSH2 0xF59 JUMPI PUSH2 0xF58 PUSH2 0xEE2 JUMP JUMPDEST JUMPDEST PUSH0 PUSH2 0xF66 DUP5 DUP3 DUP6 ADD PUSH2 0xF30 JUMP JUMPDEST SWAP2 POP POP SWAP3 SWAP2 POP POP JUMP JUMPDEST PUSH0 DUP2 ISZERO ISZERO SWAP1 POP SWAP2 SWAP1 POP JUMP JUMPDEST PUSH2 0xF83 DUP2 PUSH2 0xF6F JUMP JUMPDEST DUP3 MSTORE POP POP JUMP JUMPDEST PUSH0 PUSH1 0x20 DUP3 ADD SWAP1 POP PUSH2 0xF9C PUSH0 DUP4 ADD DUP5 PUSH2 0xF7A JUMP JUMPDEST SWAP3 SWAP2 POP POP JUMP JUMPDEST PUSH0 DUP2 SWAP1 POP SWAP2 SWAP1 POP JUMP JUMPDEST PUSH2 0xFB4 DUP2 PUSH2 0xFA2 JUMP JUMPDEST DUP2 EQ PUSH2 0xFBE JUMPI PUSH0 DUP1 REVERT JUMPDEST POP JUMP JUMPDEST PUSH0 DUP2 CALLDATALOAD SWAP1 POP PUSH2 0xFCF DUP2 PUSH2 0xFAB JUMP JUMPDEST SWAP3 SWAP2 POP POP JUMP JUMPDEST PUSH0 DUP1 PUSH0 PUSH1 0x60 DUP5 DUP7 SUB SLT ISZERO PUSH2 0xFEC JUMPI PUSH2 0xFEB PUSH2 0xEE2 JUMP JUMPDEST JUMPDEST PUSH0 PUSH2 0xFF9 DUP7 DUP3 DUP8 ADD PUSH2 0xF30 JUMP JUMPDEST SWAP4 POP POP PUSH1 0x20 PUSH2 0x100A DUP7 DUP3 DUP8 ADD PUSH2 0xFC1 JUMP JUMPDEST SWAP3 POP POP PUSH1 0x40 PUSH2 0x101B DUP7 DUP3 DUP8 ADD PUSH2 0xFC1 JUMP JUMPDEST SWAP2 POP POP SWAP3 POP SWAP3 POP SWAP3 JUMP JUMPDEST PUSH0 DUP2 MLOAD SWAP1 POP SWAP2 SWAP1 POP JUMP JUMPDEST PUSH0 DUP3 DUP3 MSTORE PUSH1 0x20 DUP3 ADD SWAP1 POP SWAP3 SWAP2 POP POP JUMP JUMPDEST PUSH0 JUMPDEST DUP4 DUP2 LT ISZERO PUSH2 0x105C JUMPI DUP1 DUP3 ADD MLOAD DUP2 DUP5 ADD MSTORE PUSH1 0x20 DUP2 ADD SWAP1 POP PUSH2 0x1041 JUMP JUMPDEST PUSH0 DUP5 DUP5 ADD MSTORE POP POP POP POP JUMP JUMPDEST PUSH0 PUSH1 0x1F NOT PUSH1 0x1F DUP4 ADD AND SWAP1 POP SWAP2 SWAP1 POP JUMP JUMPDEST PUSH0 PUSH2 0x1081 DUP3 PUSH2 0x1025 JUMP JUMPDEST PUSH2 0x108B DUP2 DUP6 PUSH2 0x102F JUMP JUMPDEST SWAP4 POP PUSH2 0x109B DUP2 DUP6 PUSH1 0x20 DUP7 ADD PUSH2 0x103F JUMP JUMPDEST PUSH2 0x10A4 DUP2 PUSH2 0x1067 JUMP JUMPDEST DUP5 ADD SWAP2 POP POP SWAP3 SWAP2 POP POP JUMP JUMPDEST PUSH2 0x10B8 DUP2 PUSH2 0xF09 JUMP JUMPDEST DUP3 MSTORE POP POP JUMP JUMPDEST PUSH2 0x10C7 DUP2 PUSH2 0xFA2 JUMP JUMPDEST DUP3 MSTORE POP POP JUMP JUMPDEST PUSH2 0x10D6 DUP2 PUSH2 0xF6F JUMP JUMPDEST DUP3 MSTORE POP POP JUMP JUMPDEST PUSH0 PUSH1 0xA0 DUP4 ADD PUSH0 DUP4 ADD MLOAD DUP5 DUP3 SUB PUSH0 DUP7 ADD MSTORE PUSH2 0x10F6 DUP3 DUP3 PUSH2 0x1077 JUMP JUMPDEST SWAP2 POP POP PUSH1 0x20 DUP4 ADD MLOAD PUSH2 0x110B PUSH1 0x20 DUP7 ADD DUP3 PUSH2 0x10AF JUMP JUMPDEST POP PUSH1 0x40 DUP4 ADD MLOAD PUSH2 0x111E PUSH1 0x40 DUP7 ADD DUP3 PUSH2 0x10BE JUMP JUMPDEST POP PUSH1 0x60 DUP4 ADD MLOAD DUP5 DUP3 SUB PUSH1 0x60 DUP7 ADD MSTORE PUSH2 0x1136 DUP3 DUP3 PUSH2 0x1077 JUMP JUMPDEST SWAP2 POP POP PUSH1 0x80 DUP4 ADD MLOAD PUSH2 0x114B PUSH1 0x80 DUP7 ADD DUP3 PUSH2 0x10CD JUMP JUMPDEST POP DUP1 SWAP2 POP POP SWAP3 SWAP2 POP POP JUMP JUMPDEST PUSH0 PUSH1 0x20 DUP3 ADD SWAP1 POP DUP2 DUP2 SUB PUSH0 DUP4 ADD MSTORE PUSH2 0x116E DUP2 DUP5 PUSH2 0x10DC JUMP JUMPDEST SWAP1 POP SWAP3 SWAP2 POP POP JUMP JUMPDEST PUSH0 DUP1 REVERT JUMPDEST PUSH0 DUP1 REVERT JUMPDEST PUSH32 0x4E487B7100000000000000000000000000000000000000000000000000000000 PUSH0 MSTORE PUSH1 0x41 PUSH1 0x4 MSTORE PUSH1 0x24 PUSH0 REVERT JUMPDEST PUSH2 0x11B4 DUP3 PUSH2 0x1067 JUMP JUMPDEST DUP2 ADD DUP2 DUP2 LT PUSH8 0xFFFFFFFFFFFFFFFF DUP3 GT OR ISZERO PUSH2 0x11D3 JUMPI PUSH2 0x11D2 PUSH2 0x117E JUMP JUMPDEST JUMPDEST DUP1 PUSH1 0x40 MSTORE POP POP POP JUMP JUMPDEST PUSH0 PUSH2 0x11E5 PUSH2 0xED9 JUMP JUMPDEST SWAP1 POP PUSH2 0x11F1 DUP3 DUP3 PUSH2 0x11AB JUMP JUMPDEST SWAP2 SWAP1 POP JUMP JUMPDEST PUSH0 PUSH8 0xFFFFFFFFFFFFFFFF DUP3 GT ISZERO PUSH2 0x1210 JUMPI PUSH2 0x120F PUSH2 0x117E JUMP JUMPDEST JUMPDEST PUSH2 0x1219 DUP3 PUSH2 0x1067 JUMP JUMPDEST SWAP1 POP PUSH1 0x20 DUP2 ADD SWAP1 POP SWAP2 SWAP1 POP JUMP JUMPDEST DUP3 DUP2 DUP4 CALLDATACOPY PUSH0 DUP4 DUP4 ADD MSTORE POP POP POP JUMP JUMPDEST PUSH0 PUSH2 0x1246 PUSH2 0x1241 DUP5 PUSH2 0x11F6 JUMP JUMPDEST PUSH2 0x11DC JUMP JUMPDEST SWAP1 POP DUP3 DUP2 MSTORE PUSH1 0x20 DUP2 ADD DUP5 DUP5 DUP5 ADD GT ISZERO PUSH2 0x1262 JUMPI PUSH2 0x1261 PUSH2 0x117A JUMP JUMPDEST JUMPDEST PUSH2 0x126D DUP5 DUP3 DUP6 PUSH2 0x1226 JUMP JUMPDEST POP SWAP4 SWAP3 POP POP POP JUMP JUMPDEST PUSH0 DUP3 PUSH1 0x1F DUP4 ADD SLT PUSH2 0x1289 JUMPI PUSH2 0x1288 PUSH2 0x1176 JUMP JUMPDEST JUMPDEST DUP2 CALLDATALOAD PUSH2 0x1299 DUP5 DUP3 PUSH1 0x20 DUP7 ADD PUSH2 0x1234 JUMP JUMPDEST SWAP2 POP POP SWAP3 SWAP2 POP POP JUMP JUMPDEST PUSH0 DUP1 PUSH1 0x40 DUP4 DUP6 SUB SLT ISZERO PUSH2 0x12B8 JUMPI PUSH2 0x12B7 PUSH2 0xEE2 JUMP JUMPDEST JUMPDEST PUSH0 DUP4 ADD CALLDATALOAD PUSH8 0xFFFFFFFFFFFFFFFF DUP2 GT ISZERO PUSH2 0x12D5 JUMPI PUSH2 0x12D4 PUSH2 0xEE6 JUMP JUMPDEST JUMPDEST PUSH2 0x12E1 DUP6 DUP3 DUP7 ADD PUSH2 0x1275 JUMP JUMPDEST SWAP3 POP POP PUSH1 0x20 DUP4 ADD CALLDATALOAD PUSH8 0xFFFFFFFFFFFFFFFF DUP2 GT ISZERO PUSH2 0x1302 JUMPI PUSH2 0x1301 PUSH2 0xEE6 JUMP JUMPDEST JUMPDEST PUSH2 0x130E DUP6 DUP3 DUP7 ADD PUSH2 0x1275 JUMP JUMPDEST SWAP2 POP POP SWAP3 POP SWAP3 SWAP1 POP JUMP JUMPDEST PUSH0 DUP1 PUSH1 0x40 DUP4 DUP6 SUB SLT ISZERO PUSH2 0x132E JUMPI PUSH2 0x132D PUSH2 0xEE2 JUMP JUMPDEST JUMPDEST PUSH0 PUSH2 0x133B DUP6 DUP3 DUP7 ADD PUSH2 0xFC1 JUMP JUMPDEST SWAP3 POP POP PUSH1 0x20 PUSH2 0x134C DUP6 DUP3 DUP7 ADD PUSH2 0xFC1 JUMP JUMPDEST SWAP2 POP POP SWAP3 POP SWAP3 SWAP1 POP JUMP JUMPDEST PUSH2 0x135F DUP2 PUSH2 0xFA2 JUMP JUMPDEST DUP3 MSTORE POP POP JUMP JUMPDEST PUSH0 PUSH1 0x20 DUP3 ADD SWAP1 POP PUSH2 0x1378 PUSH0 DUP4 ADD DUP5 PUSH2 0x1356 JUMP JUMPDEST SWAP3 SWAP2 POP POP JUMP JUMPDEST PUSH0 DUP1 PUSH1 0x40 DUP4 DUP6 SUB SLT ISZERO PUSH2 0x1394 JUMPI PUSH2 0x1393 PUSH2 0xEE2 JUMP JUMPDEST JUMPDEST PUSH0 PUSH2 0x13A1 DUP6 DUP3 DUP7 ADD PUSH2 0xF30 JUMP JUMPDEST SWAP3 POP POP PUSH1 0x20 PUSH2 0x13B2 DUP6 DUP3 DUP7 ADD PUSH2 0xFC1 JUMP JUMPDEST SWAP2 POP POP SWAP3 POP SWAP3 SWAP1 POP JUMP JUMPDEST PUSH0 PUSH1 0x20 DUP3 DUP5 SUB SLT ISZERO PUSH2 0x13D1 JUMPI PUSH2 0x13D0 PUSH2 0xEE2 JUMP JUMPDEST JUMPDEST PUSH0 PUSH2 0x13DE DUP5 DUP3 DUP6 ADD PUSH2 0xFC1 JUMP JUMPDEST SWAP2 POP POP SWAP3 SWAP2 POP POP JUMP JUMPDEST PUSH32 0x4E487B7100000000000000000000000000000000000000000000000000000000 PUSH0 MSTORE PUSH1 0x22 PUSH1 0x4 MSTORE PUSH1 0x24 PUSH0 REVERT JUMPDEST PUSH0 PUSH1 0x2 DUP3 DIV SWAP1 POP PUSH1 0x1 DUP3 AND DUP1 PUSH2 0x142B JUMPI PUSH1 0x7F DUP3 AND SWAP2 POP JUMPDEST PUSH1 0x20 DUP3 LT DUP2 SUB PUSH2 0x143E JUMPI PUSH2 0x143D PUSH2 0x13E7 JUMP JUMPDEST JUMPDEST POP SWAP2 SWAP1 POP JUMP JUMPDEST PUSH0 DUP2 SWAP1 POP SWAP3 SWAP2 POP POP JUMP JUMPDEST PUSH0 DUP2 SWAP1 POP DUP2 PUSH0 MSTORE PUSH1 0x20 PUSH0 KECCAK256 SWAP1 POP SWAP2 SWAP1 POP JUMP JUMPDEST PUSH0 DUP2 SLOAD PUSH2 0x146C DUP2 PUSH2 0x1414 JUMP JUMPDEST PUSH2 0x1476 DUP2 DUP7 PUSH2 0x1444 JUMP JUMPDEST SWAP5 POP PUSH1 0x1 DUP3 AND PUSH0 DUP2 EQ PUSH2 0x1490 JUMPI PUSH1 0x1 DUP2 EQ PUSH2 0x14A5 JUMPI PUSH2 0x14D7 JUMP JUMPDEST PUSH1 0xFF NOT DUP4 AND DUP7 MSTORE DUP2 ISZERO ISZERO DUP3 MUL DUP7 ADD SWAP4 POP PUSH2 0x14D7 JUMP JUMPDEST PUSH2 0x14AE DUP6 PUSH2 0x144E JUMP JUMPDEST PUSH0 JUMPDEST DUP4 DUP2 LT ISZERO PUSH2 0x14CF JUMPI DUP2 SLOAD DUP2 DUP10 ADD MSTORE PUSH1 0x1 DUP3 ADD SWAP2 POP PUSH1 0x20 DUP2 ADD SWAP1 POP PUSH2 0x14B0 JUMP JUMPDEST DUP4 DUP9 ADD SWAP6 POP POP POP JUMPDEST POP POP POP SWAP3 SWAP2 POP POP JUMP JUMPDEST PUSH0 PUSH2 0x14EB DUP3 DUP5 PUSH2 0x1460 JUMP JUMPDEST SWAP2 POP DUP2 SWAP1 POP SWAP3 SWAP2 POP POP JUMP JUMPDEST PUSH0 PUSH2 0x1500 DUP3 PUSH2 0x1025 JUMP JUMPDEST PUSH2 0x150A DUP2 DUP6 PUSH2 0x1444 JUMP JUMPDEST SWAP4 POP PUSH2 0x151A DUP2 DUP6 PUSH1 0x20 DUP7 ADD PUSH2 0x103F JUMP JUMPDEST DUP1 DUP5 ADD SWAP2 POP POP SWAP3 SWAP2 POP POP JUMP JUMPDEST PUSH0 PUSH2 0x1531 DUP3 DUP5 PUSH2 0x14F6 JUMP JUMPDEST SWAP2 POP DUP2 SWAP1 POP SWAP3 SWAP2 POP POP JUMP JUMPDEST PUSH0 DUP3 DUP3 MSTORE PUSH1 0x20 DUP3 ADD SWAP1 POP SWAP3 SWAP2 POP POP JUMP JUMPDEST PUSH32 0x557365723A616464726573732063616E27742062652061207A65726F20616464 PUSH0 DUP3 ADD MSTORE PUSH32 0x7265737300000000000000000000000000000000000000000000000000000000 PUSH1 0x20 DUP3 ADD MSTORE POP JUMP JUMPDEST PUSH0 PUSH2 0x15A6 PUSH1 0x24 DUP4 PUSH2 0x153C JUMP JUMPDEST SWAP2 POP PUSH2 0x15B1 DUP3 PUSH2 0x154C JUMP JUMPDEST PUSH1 0x40 DUP3 ADD SWAP1 POP SWAP2 SWAP1 POP JUMP JUMPDEST PUSH0 PUSH1 0x20 DUP3 ADD SWAP1 POP DUP2 DUP2 SUB PUSH0 DUP4 ADD MSTORE PUSH2 0x15D3 DUP2 PUSH2 0x159A JUMP JUMPDEST SWAP1 POP SWAP2 SWAP1 POP JUMP JUMPDEST PUSH32 0x557365723A7468652061646472657373206861766E277420626F756E64000000 PUSH0 DUP3 ADD MSTORE POP JUMP JUMPDEST PUSH0 PUSH2 0x160E PUSH1 0x1D DUP4 PUSH2 0x153C JUMP JUMPDEST SWAP2 POP PUSH2 0x1619 DUP3 PUSH2 0x15DA JUMP JUMPDEST PUSH1 0x20 DUP3 ADD SWAP1 POP SWAP2 SWAP1 POP JUMP JUMPDEST PUSH0 PUSH1 0x20 DUP3 ADD SWAP1 POP DUP2 DUP2 SUB PUSH0 DUP4 ADD MSTORE PUSH2 0x163B DUP2 PUSH2 0x1602 JUMP JUMPDEST SWAP1 POP SWAP2 SWAP1 POP JUMP JUMPDEST PUSH32 0x557365723A494420697320626C61636B6C697374656400000000000000000000 PUSH0 DUP3 ADD MSTORE POP JUMP JUMPDEST PUSH0 PUSH2 0x1676 PUSH1 0x16 DUP4 PUSH2 0x153C JUMP JUMPDEST SWAP2 POP PUSH2 0x1681 DUP3 PUSH2 0x1642 JUMP JUMPDEST PUSH1 0x20 DUP3 ADD SWAP1 POP SWAP2 SWAP1 POP JUMP JUMPDEST PUSH0 PUSH1 0x20 DUP3 ADD SWAP1 POP DUP2 DUP2 SUB PUSH0 DUP4 ADD MSTORE PUSH2 0x16A3 DUP2 PUSH2 0x166A JUMP JUMPDEST SWAP1 POP SWAP2 SWAP1 POP JUMP JUMPDEST PUSH32 0x557365723A4164647265737320616C726561647920626F756E64000000000000 PUSH0 DUP3 ADD MSTORE POP JUMP JUMPDEST PUSH0 PUSH2 0x16DE PUSH1 0x1A DUP4 PUSH2 0x153C JUMP JUMPDEST SWAP2 POP PUSH2 0x16E9 DUP3 PUSH2 0x16AA JUMP JUMPDEST PUSH1 0x20 DUP3 ADD SWAP1 POP SWAP2 SWAP1 POP JUMP JUMPDEST PUSH0 PUSH1 0x20 DUP3 ADD SWAP1 POP DUP2 DUP2 SUB PUSH0 DUP4 ADD MSTORE PUSH2 0x170B DUP2 PUSH2 0x16D2 JUMP JUMPDEST SWAP1 POP SWAP2 SWAP1 POP JUMP JUMPDEST PUSH32 0x557365723A494420616C726561647920626F756E640000000000000000000000 PUSH0 DUP3 ADD MSTORE POP JUMP JUMPDEST PUSH0 PUSH2 0x1746 PUSH1 0x15 DUP4 PUSH2 0x153C JUMP JUMPDEST SWAP2 POP PUSH2 0x1751 DUP3 PUSH2 0x1712 JUMP JUMPDEST PUSH1 0x20 DUP3 ADD SWAP1 POP SWAP2 SWAP1 POP JUMP JUMPDEST PUSH0 PUSH1 0x20 DUP3 ADD SWAP1 POP DUP2 DUP2 SUB PUSH0 DUP4 ADD MSTORE PUSH2 0x1773 DUP2 PUSH2 0x173A JUMP JUMPDEST SWAP1 POP SWAP2 SWAP1 POP JUMP JUMPDEST PUSH0 PUSH1 0x20 PUSH1 0x1F DUP4 ADD DIV SWAP1 POP SWAP2 SWAP1 POP JUMP JUMPDEST PUSH0 DUP3 DUP3 SHL SWAP1 POP SWAP3 SWAP2 POP POP JUMP JUMPDEST PUSH0 PUSH1 0x8 DUP4 MUL PUSH2 0x17C4 PUSH32 0xFFFFFFFFFFFFFFFFFFFFFFFFFFFFFFFFFFFFFFFFFFFFFFFFFFFFFFFFFFFFFFFF DUP3 PUSH2 0x1789 JUMP JUMPDEST PUSH2 0x17CE DUP7 DUP4 PUSH2 0x1789 JUMP JUMPDEST SWAP6 POP DUP1 NOT DUP5 AND SWAP4 POP DUP1 DUP7 AND DUP5 OR SWAP3 POP POP POP SWAP4 SWAP3 POP POP POP JUMP JUMPDEST PUSH0 DUP2 SWAP1 POP SWAP2 SWAP1 POP JUMP JUMPDEST PUSH0 PUSH2 0x1809 PUSH2 0x1804 PUSH2 0x17FF DUP5 PUSH2 0xFA2 JUMP JUMPDEST PUSH2 0x17E6 JUMP JUMPDEST PUSH2 0xFA2 JUMP JUMPDEST SWAP1 POP SWAP2 SWAP1 POP JUMP JUMPDEST PUSH0 DUP2 SWAP1 POP SWAP2 SWAP1 POP JUMP JUMPDEST PUSH2 0x1822 DUP4 PUSH2 0x17EF JUMP JUMPDEST PUSH2 0x1836 PUSH2 0x182E DUP3 PUSH2 0x1810 JUMP JUMPDEST DUP5 DUP5 SLOAD PUSH2 0x1795 JUMP JUMPDEST DUP3 SSTORE POP POP POP POP JUMP JUMPDEST PUSH0 SWAP1 JUMP JUMPDEST PUSH2 0x184A PUSH2 0x183E JUMP JUMPDEST PUSH2 0x1855 DUP2 DUP5 DUP5 PUSH2 0x1819 JUMP JUMPDEST POP POP POP JUMP JUMPDEST JUMPDEST DUP2 DUP2 LT ISZERO PUSH2 0x1878 JUMPI PUSH2 0x186D PUSH0 DUP3 PUSH2 0x1842 JUMP JUMPDEST PUSH1 0x1 DUP2 ADD SWAP1 POP PUSH2 0x185B JUMP JUMPDEST POP POP JUMP JUMPDEST PUSH1 0x1F DUP3 GT ISZERO PUSH2 0x18BD JUMPI PUSH2 0x188E DUP2 PUSH2 0x144E JUMP JUMPDEST PUSH2 0x1897 DUP5 PUSH2 0x177A JUMP JUMPDEST DUP2 ADD PUSH1 0x20 DUP6 LT ISZERO PUSH2 0x18A6 JUMPI DUP2 SWAP1 POP JUMPDEST PUSH2 0x18BA PUSH2 0x18B2 DUP6 PUSH2 0x177A JUMP JUMPDEST DUP4 ADD DUP3 PUSH2 0x185A JUMP JUMPDEST POP POP JUMPDEST POP POP POP JUMP JUMPDEST PUSH0 DUP3 DUP3 SHR SWAP1 POP SWAP3 SWAP2 POP POP JUMP JUMPDEST PUSH0 PUSH2 0x18DD PUSH0 NOT DUP5 PUSH1 0x8 MUL PUSH2 0x18C2 JUMP JUMPDEST NOT DUP1 DUP4 AND SWAP2 POP POP SWAP3 SWAP2 POP POP JUMP JUMPDEST PUSH0 PUSH2 0x18F5 DUP4 DUP4 PUSH2 0x18CE JUMP JUMPDEST SWAP2 POP DUP3 PUSH1 0x2 MUL DUP3 OR SWAP1 POP SWAP3 SWAP2 POP POP JUMP JUMPDEST PUSH2 0x190E DUP3 PUSH2 0x1025 JUMP JUMPDEST PUSH8 0xFFFFFFFFFFFFFFFF DUP2 GT ISZERO PUSH2 0x1927 JUMPI PUSH2 0x1926 PUSH2 0x117E JUMP JUMPDEST JUMPDEST PUSH2 0x1931 DUP3 SLOAD PUSH2 0x1414 JUMP JUMPDEST PUSH2 0x193C DUP3 DUP3 DUP6 PUSH2 0x187C JUMP JUMPDEST PUSH0 PUSH1 0x20 SWAP1 POP PUSH1 0x1F DUP4 GT PUSH1 0x1 DUP2 EQ PUSH2 0x196D JUMPI PUSH0 DUP5 ISZERO PUSH2 0x195B JUMPI DUP3 DUP8 ADD MLOAD SWAP1 POP JUMPDEST PUSH2 0x1965 DUP6 DUP3 PUSH2 0x18EA JUMP JUMPDEST DUP7 SSTORE POP PUSH2 0x19CC JUMP JUMPDEST PUSH1 0x1F NOT DUP5 AND PUSH2 0x197B DUP7 PUSH2 0x144E JUMP JUMPDEST PUSH0 JUMPDEST DUP3 DUP2 LT ISZERO PUSH2 0x19A2 JUMPI DUP5 DUP10 ADD MLOAD DUP3 SSTORE PUSH1 0x1 DUP3 ADD SWAP2 POP PUSH1 0x20 DUP6 ADD SWAP5 POP PUSH1 0x20 DUP2 ADD SWAP1 POP PUSH2 0x197D JUMP JUMPDEST DUP7 DUP4 LT ISZERO PUSH2 0x19BF JUMPI DUP5 DUP10 ADD MLOAD PUSH2 0x19BB PUSH1 0x1F DUP10 AND DUP3 PUSH2 0x18CE JUMP JUMPDEST DUP4 SSTORE POP JUMPDEST PUSH1 0x1 PUSH1 0x2 DUP9 MUL ADD DUP9 SSTORE POP POP POP JUMPDEST POP POP POP POP POP POP JUMP JUMPDEST PUSH32 0x4E487B7100000000000000000000000000000000000000000000000000000000 PUSH0 MSTORE PUSH1 0x11 PUSH1 0x4 MSTORE PUSH1 0x24 PUSH0 REVERT JUMPDEST PUSH0 PUSH2 0x1A0B DUP3 PUSH2 0xFA2 JUMP JUMPDEST SWAP2 POP PUSH2 0x1A16 DUP4 PUSH2 0xFA2 JUMP JUMPDEST SWAP3 POP DUP3 DUP3 MUL PUSH2 0x1A24 DUP2 PUSH2 0xFA2 JUMP JUMPDEST SWAP2 POP DUP3 DUP3 DIV DUP5 EQ DUP4 ISZERO OR PUSH2 0x1A3B JUMPI PUSH2 0x1A3A PUSH2 0x19D4 JUMP JUMPDEST JUMPDEST POP SWAP3 SWAP2 POP POP JUMP JUMPDEST PUSH32 0x4E487B7100000000000000000000000000000000000000000000000000000000 PUSH0 MSTORE PUSH1 0x12 PUSH1 0x4 MSTORE PUSH1 0x24 PUSH0 REVERT JUMPDEST PUSH0 PUSH2 0x1A79 DUP3 PUSH2 0xFA2 JUMP JUMPDEST SWAP2 POP PUSH2 0x1A84 DUP4 PUSH2 0xFA2 JUMP JUMPDEST SWAP3 POP DUP3 PUSH2 0x1A94 JUMPI PUSH2 0x1A93 PUSH2 0x1A42 JUMP JUMPDEST JUMPDEST DUP3 DUP3 DIV SWAP1 POP SWAP3 SWAP2 POP POP JUMP JUMPDEST PUSH0 PUSH2 0x1AA9 DUP3 PUSH2 0xFA2 JUMP JUMPDEST SWAP2 POP PUSH2 0x1AB4 DUP4 PUSH2 0xFA2 JUMP JUMPDEST SWAP3 POP DUP3 DUP3 SUB SWAP1 POP DUP2 DUP2 GT ISZERO PUSH2 0x1ACC JUMPI PUSH2 0x1ACB PUSH2 0x19D4 JUMP JUMPDEST JUMPDEST SWAP3 SWAP2 POP POP JUMP JUMPDEST PUSH0 PUSH2 0x1ADC DUP3 PUSH2 0xFA2 JUMP JUMPDEST SWAP2 POP PUSH2 0x1AE7 DUP4 PUSH2 0xFA2 JUMP JUMPDEST SWAP3 POP DUP3 DUP3 ADD SWAP1 POP DUP1 DUP3 GT ISZERO PUSH2 0x1AFF JUMPI PUSH2 0x1AFE PUSH2 0x19D4 JUMP JUMPDEST JUMPDEST SWAP3 SWAP2 POP POP JUMP JUMPDEST PUSH32 0x557365723A506C6561736520626F756E64207769746820796F7572206964656E PUSH0 DUP3 ADD MSTORE PUSH32 0x74696669636174696F6E21000000000000000000000000000000000000000000 PUSH1 0x20 DUP3 ADD MSTORE POP JUMP JUMPDEST PUSH0 PUSH2 0x1B5F PUSH1 0x2B DUP4 PUSH2 0x153C JUMP JUMPDEST SWAP2 POP PUSH2 0x1B6A DUP3 PUSH2 0x1B05 JUMP JUMPDEST PUSH1 0x40 DUP3 ADD SWAP1 POP SWAP2 SWAP1 POP JUMP JUMPDEST PUSH0 PUSH1 0x20 DUP3 ADD SWAP1 POP DUP2 DUP2 SUB PUSH0 DUP4 ADD MSTORE PUSH2 0x1B8C DUP2 PUSH2 0x1B53 JUMP JUMPDEST SWAP1 POP SWAP2 SWAP1 POP JUMP JUMPDEST PUSH32 0x4E487B7100000000000000000000000000000000000000000000000000000000 PUSH0 MSTORE PUSH1 0x32 PUSH1 0x4 MSTORE PUSH1 0x24 PUSH0 REVERT INVALID LOG2 PUSH5 0x6970667358 0x22 SLT KECCAK256 DUP11 0x4B 0xCA PUSH3 0x5F7DE4 0xDB SWAP11 PUSH23 0xFE2900B735BF7E4E810AB93951A51428EC217384D5D64 PUSH20 0x6F6C634300081600330000000000000000000000 "
				},
				"gasEstimates": {
					"creation": {
						"codeDepositCost": "1431600",
						"executionCost": "1491",
						"totalCost": "1433091"
					},
					"external": {
						"_addBlacklisted(address)": "infinite",
						"_isBlacklisted(address)": "infinite",
						"addUserReputation(address,uint256,uint256)": "infinite",
						"calculateReputationIncrease(uint256,uint256)": "infinite",
						"deputeUserReputation(address,uint256)": "infinite",
						"getUserInfo(address)": "infinite",
						"getUserReputation(address)": "5214",
						"isAddressBound(address)": "2968",
						"setReputationWhiteUser(uint256)": "25228",
						"verify(string,string)": "infinite"
					},
					"internal": {
						"hashId(string memory)": "infinite",
						"isIdBound(string memory)": "infinite",
						"toHexString(bytes32)": "infinite"
					}
				},
				"methodIdentifiers": {
					"_addBlacklisted(address)": "3ad87fa1",
					"_isBlacklisted(address)": "1cdd3be3",
					"addUserReputation(address,uint256,uint256)": "5c0e5f88",
					"calculateReputationIncrease(uint256,uint256)": "ad7cfa57",
					"deputeUserReputation(address,uint256)": "cf093926",
					"getUserInfo(address)": "6386c1c7",
					"getUserReputation(address)": "baccbfdb",
					"isAddressBound(address)": "4cfcf646",
					"setReputationWhiteUser(uint256)": "ed0d19b7",
					"verify(string,string)": "9deb17f5"
				}
			},
			"storageLayout": {
				"storage": [
					{
						"astId": 19,
						"contract": "userInformation.sol:userInformation",
						"label": "isBlacklisted",
						"offset": 0,
						"slot": "0",
						"type": "t_mapping(t_string_memory_ptr,t_bool)"
					},
					{
						"astId": 24,
						"contract": "userInformation.sol:userInformation",
						"label": "userInfos",
						"offset": 0,
						"slot": "1",
						"type": "t_mapping(t_address,t_struct(UserInfo)12_storage)"
					},
					{
						"astId": 28,
						"contract": "userInformation.sol:userInformation",
						"label": "isBoundId",
						"offset": 0,
						"slot": "2",
						"type": "t_mapping(t_string_memory_ptr,t_bool)"
					}
				],
				"types": {
					"t_address": {
						"encoding": "inplace",
						"label": "address",
						"numberOfBytes": "20"
					},
					"t_bool": {
						"encoding": "inplace",
						"label": "bool",
						"numberOfBytes": "1"
					},
					"t_mapping(t_address,t_struct(UserInfo)12_storage)": {
						"encoding": "mapping",
						"key": "t_address",
						"label": "mapping(address => struct IUserInformation.UserInfo)",
						"numberOfBytes": "32",
						"value": "t_struct(UserInfo)12_storage"
					},
					"t_mapping(t_string_memory_ptr,t_bool)": {
						"encoding": "mapping",
						"key": "t_string_memory_ptr",
						"label": "mapping(string => bool)",
						"numberOfBytes": "32",
						"value": "t_bool"
					},
					"t_string_memory_ptr": {
						"encoding": "bytes",
						"label": "string",
						"numberOfBytes": "32"
					},
					"t_string_storage": {
						"encoding": "bytes",
						"label": "string",
						"numberOfBytes": "32"
					},
					"t_struct(UserInfo)12_storage": {
						"encoding": "inplace",
						"label": "struct IUserInformation.UserInfo",
						"members": [
							{
								"astId": 3,
								"contract": "userInformation.sol:userInformation",
								"label": "idHash",
								"offset": 0,
								"slot": "0",
								"type": "t_string_storage"
							},
							{
								"astId": 5,
								"contract": "userInformation.sol:userInformation",
								"label": "wallet",
								"offset": 0,
								"slot": "1",
								"type": "t_address"
							},
							{
								"astId": 7,
								"contract": "userInformation.sol:userInformation",
								"label": "reputation",
								"offset": 0,
								"slot": "2",
								"type": "t_uint256"
							},
							{
								"astId": 9,
								"contract": "userInformation.sol:userInformation",
								"label": "number",
								"offset": 0,
								"slot": "3",
								"type": "t_string_storage"
							},
							{
								"astId": 11,
								"contract": "userInformation.sol:userInformation",
								"label": "isBound",
								"offset": 0,
								"slot": "4",
								"type": "t_bool"
							}
						],
						"numberOfBytes": "160"
					},
					"t_uint256": {
						"encoding": "inplace",
						"label": "uint256",
						"numberOfBytes": "32"
					}
				}
			},
			"userdoc": {
				"kind": "user",
				"methods": {},
				"version": 1
			}
		}
	}
}