{
	"userInformation.sol": {
		"userInformation": {
			"abi": [
				{
					"inputs": [
						{
							"internalType": "address",
							"name": "_add",
							"type": "address"
						}
					],
					"name": "_addBlacklisted",
					"outputs": [],
					"stateMutability": "nonpayable",
					"type": "function"
				},
				{
					"inputs": [
						{
							"internalType": "address",
							"name": "_add",
							"type": "address"
						}
					],
					"name": "_isBlacklisted",
					"outputs": [
						{
							"internalType": "bool",
							"name": "",
							"type": "bool"
						}
					],
					"stateMutability": "view",
					"type": "function"
				},
				{
					"inputs": [
						{
							"internalType": "address",
							"name": "_user",
							"type": "address"
						},
						{
							"internalType": "uint256",
							"name": "_currentScore",
							"type": "uint256"
						},
						{
							"internalType": "uint256",
							"name": "_dayRent",
							"type": "uint256"
						}
					],
					"name": "addUserReputation",
					"outputs": [
						{
							"internalType": "bool",
							"name": "",
							"type": "bool"
						}
					],
					"stateMutability": "nonpayable",
					"type": "function"
				},
				{
					"inputs": [
						{
							"internalType": "address",
							"name": "_user",
							"type": "address"
						},
						{
							"internalType": "uint256",
							"name": "_adjustment",
							"type": "uint256"
						}
					],
					"name": "deputeUserReputation",
					"outputs": [
						{
							"internalType": "bool",
							"name": "",
							"type": "bool"
						}
					],
					"stateMutability": "nonpayable",
					"type": "function"
				},
				{
					"inputs": [
						{
							"internalType": "address",
							"name": "_add",
							"type": "address"
						}
					],
					"name": "getUserInfo",
					"outputs": [
						{
							"components": [
								{
									"internalType": "string",
									"name": "idHash",
									"type": "string"
								},
								{
									"internalType": "address",
									"name": "wallet",
									"type": "address"
								},
								{
									"internalType": "uint256",
									"name": "reputation",
									"type": "uint256"
								},
								{
									"internalType": "string",
									"name": "number",
									"type": "string"
								},
								{
									"internalType": "bool",
									"name": "isBound",
									"type": "bool"
								}
							],
							"internalType": "struct IUserInformation.UserInfo",
							"name": "",
							"type": "tuple"
						}
					],
					"stateMutability": "view",
					"type": "function"
				},
				{
					"inputs": [
						{
							"internalType": "address",
							"name": "_add",
							"type": "address"
						}
					],
					"name": "getUserReputation",
					"outputs": [
						{
							"internalType": "uint256",
							"name": "",
							"type": "uint256"
						}
					],
					"stateMutability": "view",
					"type": "function"
				},
				{
					"inputs": [
						{
							"internalType": "address",
							"name": "_add",
							"type": "address"
						}
					],
					"name": "isAddressBound",
					"outputs": [
						{
							"internalType": "bool",
							"name": "",
							"type": "bool"
						}
					],
					"stateMutability": "view",
					"type": "function"
				},
				{
					"inputs": [
						{
							"internalType": "uint256",
							"name": "_grade",
							"type": "uint256"
						}
					],
					"name": "setReputationWhiteUser",
					"outputs": [
						{
							"internalType": "bool",
							"name": "",
							"type": "bool"
						}
					],
					"stateMutability": "nonpayable",
					"type": "function"
				},
				{
					"inputs": [
						{
							"internalType": "string",
							"name": "_id",
							"type": "string"
						},
						{
							"internalType": "string",
							"name": "_number",
							"type": "string"
						}
					],
					"name": "verify",
					"outputs": [
						{
							"internalType": "bool",
							"name": "",
							"type": "bool"
						}
					],
					"stateMutability": "nonpayable",
					"type": "function"
				}
			],
			"devdoc": {
				"kind": "dev",
				"methods": {},
				"version": 1
			},
			"evm": {
				"assembly": "    /* \"userInformation.sol\":483:5970  contract userInformation is IUserInformation{... */\n  mstore(0x40, 0x80)\n  callvalue\n  dup1\n  iszero\n  tag_1\n  jumpi\n  0x00\n  dup1\n  revert\ntag_1:\n  pop\n  dataSize(sub_0)\n  dup1\n  dataOffset(sub_0)\n  0x00\n  codecopy\n  0x00\n  return\nstop\n\nsub_0: assembly {\n        /* \"userInformation.sol\":483:5970  contract userInformation is IUserInformation{... */\n      mstore(0x40, 0x80)\n      callvalue\n      dup1\n      iszero\n      tag_1\n      jumpi\n      0x00\n      dup1\n      revert\n    tag_1:\n      pop\n      jumpi(tag_2, lt(calldatasize, 0x04))\n      shr(0xe0, calldataload(0x00))\n      dup1\n      0x6386c1c7\n      gt\n      tag_12\n      jumpi\n      dup1\n      0x6386c1c7\n      eq\n      tag_7\n      jumpi\n      dup1\n      0x9deb17f5\n      eq\n      tag_8\n      jumpi\n      dup1\n      0xbaccbfdb\n      eq\n      tag_9\n      jumpi\n      dup1\n      0xcf093926\n      eq\n      tag_10\n      jumpi\n      dup1\n      0xed0d19b7\n      eq\n      tag_11\n      jumpi\n      jump(tag_2)\n    tag_12:\n      dup1\n      0x1cdd3be3\n      eq\n      tag_3\n      jumpi\n      dup1\n      0x3ad87fa1\n      eq\n      tag_4\n      jumpi\n      dup1\n      0x4cfcf646\n      eq\n      tag_5\n      jumpi\n      dup1\n      0x5c0e5f88\n      eq\n      tag_6\n      jumpi\n    tag_2:\n      0x00\n      dup1\n      revert\n        /* \"userInformation.sol\":3168:3312  function _isBlacklisted(... */\n    tag_3:\n      tag_13\n      0x04\n      dup1\n      calldatasize\n      sub\n      dup2\n      add\n      swap1\n      tag_14\n      swap2\n      swap1\n      tag_15\n      jump\t// in\n    tag_14:\n      tag_16\n      jump\t// in\n    tag_13:\n      mload(0x40)\n      tag_17\n      swap2\n      swap1\n      tag_18\n      jump\t// in\n    tag_17:\n      mload(0x40)\n      dup1\n      swap2\n      sub\n      swap1\n      return\n        /* \"userInformation.sol\":2299:2512  function _addBlacklisted(... */\n    tag_4:\n      tag_19\n      0x04\n      dup1\n      calldatasize\n      sub\n      dup2\n      add\n      swap1\n      tag_20\n      swap2\n      swap1\n      tag_15\n      jump\t// in\n    tag_20:\n      tag_21\n      jump\t// in\n    tag_19:\n      stop\n        /* \"userInformation.sol\":3853:4098  function isAddressBound(... */\n    tag_5:\n      tag_22\n      0x04\n      dup1\n      calldatasize\n      sub\n      dup2\n      add\n      swap1\n      tag_23\n      swap2\n      swap1\n      tag_15\n      jump\t// in\n    tag_23:\n      tag_24\n      jump\t// in\n    tag_22:\n      mload(0x40)\n      tag_25\n      swap2\n      swap1\n      tag_18\n      jump\t// in\n    tag_25:\n      mload(0x40)\n      dup1\n      swap2\n      sub\n      swap1\n      return\n        /* \"userInformation.sol\":2553:2847  function addUserReputation(... */\n    tag_6:\n      tag_26\n      0x04\n      dup1\n      calldatasize\n      sub\n      dup2\n      add\n      swap1\n      tag_27\n      swap2\n      swap1\n      tag_28\n      jump\t// in\n    tag_27:\n      tag_29\n      jump\t// in\n    tag_26:\n      mload(0x40)\n      tag_30\n      swap2\n      swap1\n      tag_18\n      jump\t// in\n    tag_30:\n      mload(0x40)\n      dup1\n      swap2\n      sub\n      swap1\n      return\n        /* \"userInformation.sol\":3356:3554  function getUserInfo(... */\n    tag_7:\n      tag_31\n      0x04\n      dup1\n      calldatasize\n      sub\n      dup2\n      add\n      swap1\n      tag_32\n      swap2\n      swap1\n      tag_15\n      jump\t// in\n    tag_32:\n      tag_33\n      jump\t// in\n    tag_31:\n      mload(0x40)\n      tag_34\n      swap2\n      swap1\n      tag_35\n      jump\t// in\n    tag_34:\n      mload(0x40)\n      dup1\n      swap2\n      sub\n      swap1\n      return\n        /* \"userInformation.sol\":1360:2214  function verify(... */\n    tag_8:\n      tag_36\n      0x04\n      dup1\n      calldatasize\n      sub\n      dup2\n      add\n      swap1\n      tag_37\n      swap2\n      swap1\n      tag_38\n      jump\t// in\n    tag_37:\n      tag_39\n      jump\t// in\n    tag_36:\n      mload(0x40)\n      tag_40\n      swap2\n      swap1\n      tag_18\n      jump\t// in\n    tag_40:\n      mload(0x40)\n      dup1\n      swap2\n      sub\n      swap1\n      return\n        /* \"userInformation.sol\":3597:3803  function getUserReputation(... */\n    tag_9:\n      tag_41\n      0x04\n      dup1\n      calldatasize\n      sub\n      dup2\n      add\n      swap1\n      tag_42\n      swap2\n      swap1\n      tag_15\n      jump\t// in\n    tag_42:\n      tag_43\n      jump\t// in\n    tag_41:\n      mload(0x40)\n      tag_44\n      swap2\n      swap1\n      tag_45\n      jump\t// in\n    tag_44:\n      mload(0x40)\n      dup1\n      swap2\n      sub\n      swap1\n      return\n        /* \"userInformation.sol\":2888:3079  function deputeUserReputation(... */\n    tag_10:\n      tag_46\n      0x04\n      dup1\n      calldatasize\n      sub\n      dup2\n      add\n      swap1\n      tag_47\n      swap2\n      swap1\n      tag_48\n      jump\t// in\n    tag_47:\n      tag_49\n      jump\t// in\n    tag_46:\n      mload(0x40)\n      tag_50\n      swap2\n      swap1\n      tag_18\n      jump\t// in\n    tag_50:\n      mload(0x40)\n      dup1\n      swap2\n      sub\n      swap1\n      return\n        /* \"userInformation.sol\":1068:1322  function setReputationWhiteUser(... */\n    tag_11:\n      tag_51\n      0x04\n      dup1\n      calldatasize\n      sub\n      dup2\n      add\n      swap1\n      tag_52\n      swap2\n      swap1\n      tag_53\n      jump\t// in\n    tag_52:\n      tag_54\n      jump\t// in\n    tag_51:\n      mload(0x40)\n      tag_55\n      swap2\n      swap1\n      tag_18\n      jump\t// in\n    tag_55:\n      mload(0x40)\n      dup1\n      swap2\n      sub\n      swap1\n      return\n        /* \"userInformation.sol\":3168:3312  function _isBlacklisted(... */\n    tag_16:\n        /* \"userInformation.sol\":3244:3248  bool */\n      0x00\n        /* \"userInformation.sol\":3267:3280  isBlacklisted */\n      dup1\n        /* \"userInformation.sol\":3281:3290  userInfos */\n      0x01\n        /* \"userInformation.sol\":3281:3296  userInfos[_add] */\n      0x00\n        /* \"userInformation.sol\":3291:3295  _add */\n      dup5\n        /* \"userInformation.sol\":3281:3296  userInfos[_add] */\n      0xffffffffffffffffffffffffffffffffffffffff\n      and\n      0xffffffffffffffffffffffffffffffffffffffff\n      and\n      dup2\n      mstore\n      0x20\n      add\n      swap1\n      dup2\n      mstore\n      0x20\n      add\n      0x00\n      keccak256\n        /* \"userInformation.sol\":3281:3303  userInfos[_add].idHash */\n      0x00\n      add\n        /* \"userInformation.sol\":3267:3304  isBlacklisted[userInfos[_add].idHash] */\n      mload(0x40)\n      tag_57\n      swap2\n      swap1\n      tag_58\n      jump\t// in\n    tag_57:\n      swap1\n      dup2\n      mstore\n      0x20\n      add\n      mload(0x40)\n      dup1\n      swap2\n      sub\n      swap1\n      keccak256\n      0x00\n      swap1\n      sload\n      swap1\n      0x0100\n      exp\n      swap1\n      div\n      0xff\n      and\n        /* \"userInformation.sol\":3260:3304  return isBlacklisted[userInfos[_add].idHash] */\n      swap1\n      pop\n        /* \"userInformation.sol\":3168:3312  function _isBlacklisted(... */\n      swap2\n      swap1\n      pop\n      jump\t// out\n        /* \"userInformation.sol\":2299:2512  function _addBlacklisted(... */\n    tag_21:\n        /* \"userInformation.sol\":2375:2395  isAddressBound(_add) */\n      tag_60\n        /* \"userInformation.sol\":2390:2394  _add */\n      dup2\n        /* \"userInformation.sol\":2375:2389  isAddressBound */\n      tag_24\n        /* \"userInformation.sol\":2375:2395  isAddressBound(_add) */\n      jump\t// in\n    tag_60:\n        /* \"userInformation.sol\":2372:2505  if(isAddressBound(_add)){... */\n      iszero\n      tag_61\n      jumpi\n        /* \"userInformation.sol\":2411:2428  string memory _id */\n      0x00\n        /* \"userInformation.sol\":2431:2440  userInfos */\n      0x01\n        /* \"userInformation.sol\":2431:2446  userInfos[_add] */\n      0x00\n        /* \"userInformation.sol\":2441:2445  _add */\n      dup4\n        /* \"userInformation.sol\":2431:2446  userInfos[_add] */\n      0xffffffffffffffffffffffffffffffffffffffff\n      and\n      0xffffffffffffffffffffffffffffffffffffffff\n      and\n      dup2\n      mstore\n      0x20\n      add\n      swap1\n      dup2\n      mstore\n      0x20\n      add\n      0x00\n      keccak256\n        /* \"userInformation.sol\":2431:2453  userInfos[_add].idHash */\n      0x00\n      add\n        /* \"userInformation.sol\":2411:2453  string memory _id = userInfos[_add].idHash */\n      dup1\n      sload\n      tag_62\n      swap1\n      tag_63\n      jump\t// in\n    tag_62:\n      dup1\n      0x1f\n      add\n      0x20\n      dup1\n      swap2\n      div\n      mul\n      0x20\n      add\n      mload(0x40)\n      swap1\n      dup2\n      add\n      0x40\n      mstore\n      dup1\n      swap3\n      swap2\n      swap1\n      dup2\n      dup2\n      mstore\n      0x20\n      add\n      dup3\n      dup1\n      sload\n      tag_64\n      swap1\n      tag_63\n      jump\t// in\n    tag_64:\n      dup1\n      iszero\n      tag_65\n      jumpi\n      dup1\n      0x1f\n      lt\n      tag_66\n      jumpi\n      0x0100\n      dup1\n      dup4\n      sload\n      div\n      mul\n      dup4\n      mstore\n      swap2\n      0x20\n      add\n      swap2\n      jump(tag_65)\n    tag_66:\n      dup3\n      add\n      swap2\n      swap1\n      0x00\n      mstore\n      keccak256(0x00, 0x20)\n      swap1\n    tag_67:\n      dup2\n      sload\n      dup2\n      mstore\n      swap1\n      0x01\n      add\n      swap1\n      0x20\n      add\n      dup1\n      dup4\n      gt\n      tag_67\n      jumpi\n      dup3\n      swap1\n      sub\n      0x1f\n      and\n      dup3\n      add\n      swap2\n    tag_65:\n      pop\n      pop\n      pop\n      pop\n      pop\n      swap1\n      pop\n        /* \"userInformation.sol\":2489:2493  true */\n      0x01\n        /* \"userInformation.sol\":2468:2481  isBlacklisted */\n      0x00\n        /* \"userInformation.sol\":2482:2485  _id */\n      dup3\n        /* \"userInformation.sol\":2468:2486  isBlacklisted[_id] */\n      mload(0x40)\n      tag_68\n      swap2\n      swap1\n      tag_69\n      jump\t// in\n    tag_68:\n      swap1\n      dup2\n      mstore\n      0x20\n      add\n      mload(0x40)\n      dup1\n      swap2\n      sub\n      swap1\n      keccak256\n      0x00\n        /* \"userInformation.sol\":2468:2493  isBlacklisted[_id] = true */\n      0x0100\n      exp\n      dup2\n      sload\n      dup2\n      0xff\n      mul\n      not\n      and\n      swap1\n      dup4\n      iszero\n      iszero\n      mul\n      or\n      swap1\n      sstore\n      pop\n        /* \"userInformation.sol\":2396:2505  {... */\n      pop\n        /* \"userInformation.sol\":2372:2505  if(isAddressBound(_add)){... */\n    tag_61:\n        /* \"userInformation.sol\":2299:2512  function _addBlacklisted(... */\n      pop\n      jump\t// out\n        /* \"userInformation.sol\":3853:4098  function isAddressBound(... */\n    tag_24:\n        /* \"userInformation.sol\":3928:3932  bool */\n      0x00\n        /* \"userInformation.sol\":3969:3970  0 */\n      dup1\n        /* \"userInformation.sol\":3953:3971  _add != address(0) */\n      0xffffffffffffffffffffffffffffffffffffffff\n      and\n        /* \"userInformation.sol\":3953:3957  _add */\n      dup3\n        /* \"userInformation.sol\":3953:3971  _add != address(0) */\n      0xffffffffffffffffffffffffffffffffffffffff\n      and\n      sub\n        /* \"userInformation.sol\":3945:4006  require(_add != address(0),\"address can't be a zero address\") */\n      tag_71\n      jumpi\n      mload(0x40)\n      0x08c379a000000000000000000000000000000000000000000000000000000000\n      dup2\n      mstore\n      0x04\n      add\n      tag_72\n      swap1\n      tag_73\n      jump\t// in\n    tag_72:\n      mload(0x40)\n      dup1\n      swap2\n      sub\n      swap1\n      revert\n    tag_71:\n        /* \"userInformation.sol\":4019:4034  bool isAddBound */\n      0x00\n        /* \"userInformation.sol\":4037:4046  userInfos */\n      0x01\n        /* \"userInformation.sol\":4037:4052  userInfos[_add] */\n      0x00\n        /* \"userInformation.sol\":4047:4051  _add */\n      dup5\n        /* \"userInformation.sol\":4037:4052  userInfos[_add] */\n      0xffffffffffffffffffffffffffffffffffffffff\n      and\n      0xffffffffffffffffffffffffffffffffffffffff\n      and\n      dup2\n      mstore\n      0x20\n      add\n      swap1\n      dup2\n      mstore\n      0x20\n      add\n      0x00\n      keccak256\n        /* \"userInformation.sol\":4037:4060  userInfos[_add].isBound */\n      0x04\n      add\n      0x00\n      swap1\n      sload\n      swap1\n      0x0100\n      exp\n      swap1\n      div\n      0xff\n      and\n        /* \"userInformation.sol\":4019:4060  bool isAddBound = userInfos[_add].isBound */\n      swap1\n      pop\n        /* \"userInformation.sol\":4080:4090  isAddBound */\n      dup1\n        /* \"userInformation.sol\":4073:4090  return isAddBound */\n      swap2\n      pop\n      pop\n        /* \"userInformation.sol\":3853:4098  function isAddressBound(... */\n      swap2\n      swap1\n      pop\n      jump\t// out\n        /* \"userInformation.sol\":2553:2847  function addUserReputation(... */\n    tag_29:\n        /* \"userInformation.sol\":2680:2684  bool */\n      0x00\n        /* \"userInformation.sol\":2696:2712  uint _adjustment */\n      dup1\n        /* \"userInformation.sol\":2715:2766  calculateReputationIncrease(_currentScore,_dayRent) */\n      tag_75\n        /* \"userInformation.sol\":2743:2756  _currentScore */\n      dup5\n        /* \"userInformation.sol\":2757:2765  _dayRent */\n      dup5\n        /* \"userInformation.sol\":2715:2742  calculateReputationIncrease */\n      tag_76\n        /* \"userInformation.sol\":2715:2766  calculateReputationIncrease(_currentScore,_dayRent) */\n      jump\t// in\n    tag_75:\n        /* \"userInformation.sol\":2696:2766  uint _adjustment = calculateReputationIncrease(_currentScore,_dayRent) */\n      swap1\n      pop\n        /* \"userInformation.sol\":2806:2817  _adjustment */\n      dup1\n        /* \"userInformation.sol\":2777:2786  userInfos */\n      0x01\n        /* \"userInformation.sol\":2777:2793  userInfos[_user] */\n      0x00\n        /* \"userInformation.sol\":2787:2792  _user */\n      dup8\n        /* \"userInformation.sol\":2777:2793  userInfos[_user] */\n      0xffffffffffffffffffffffffffffffffffffffff\n      and\n      0xffffffffffffffffffffffffffffffffffffffff\n      and\n      dup2\n      mstore\n      0x20\n      add\n      swap1\n      dup2\n      mstore\n      0x20\n      add\n      0x00\n      keccak256\n        /* \"userInformation.sol\":2777:2804  userInfos[_user].reputation */\n      0x02\n      add\n        /* \"userInformation.sol\":2777:2817  userInfos[_user].reputation =_adjustment */\n      dup2\n      swap1\n      sstore\n      pop\n        /* \"userInformation.sol\":2835:2839  true */\n      0x01\n        /* \"userInformation.sol\":2828:2839  return true */\n      swap2\n      pop\n      pop\n        /* \"userInformation.sol\":2553:2847  function addUserReputation(... */\n      swap4\n      swap3\n      pop\n      pop\n      pop\n      jump\t// out\n        /* \"userInformation.sol\":3356:3554  function getUserInfo(... */\n    tag_33:\n        /* \"userInformation.sol\":3428:3443  UserInfo memory */\n      tag_77\n      tag_78\n      jump\t// in\n    tag_77:\n        /* \"userInformation.sol\":3463:3483  isAddressBound(_add) */\n      tag_80\n        /* \"userInformation.sol\":3478:3482  _add */\n      dup3\n        /* \"userInformation.sol\":3463:3477  isAddressBound */\n      tag_24\n        /* \"userInformation.sol\":3463:3483  isAddressBound(_add) */\n      jump\t// in\n    tag_80:\n        /* \"userInformation.sol\":3455:3511  require(isAddressBound(_add),\"the address havn't bound\") */\n      tag_81\n      jumpi\n      mload(0x40)\n      0x08c379a000000000000000000000000000000000000000000000000000000000\n      dup2\n      mstore\n      0x04\n      add\n      tag_82\n      swap1\n      tag_83\n      jump\t// in\n    tag_82:\n      mload(0x40)\n      dup1\n      swap2\n      sub\n      swap1\n      revert\n    tag_81:\n        /* \"userInformation.sol\":3531:3540  userInfos */\n      0x01\n        /* \"userInformation.sol\":3531:3546  userInfos[_add] */\n      0x00\n        /* \"userInformation.sol\":3541:3545  _add */\n      dup4\n        /* \"userInformation.sol\":3531:3546  userInfos[_add] */\n      0xffffffffffffffffffffffffffffffffffffffff\n      and\n      0xffffffffffffffffffffffffffffffffffffffff\n      and\n      dup2\n      mstore\n      0x20\n      add\n      swap1\n      dup2\n      mstore\n      0x20\n      add\n      0x00\n      keccak256\n        /* \"userInformation.sol\":3524:3546  return userInfos[_add] */\n      mload(0x40)\n      dup1\n      0xa0\n      add\n      0x40\n      mstore\n      swap1\n      dup2\n      0x00\n      dup3\n      add\n      dup1\n      sload\n      tag_84\n      swap1\n      tag_63\n      jump\t// in\n    tag_84:\n      dup1\n      0x1f\n      add\n      0x20\n      dup1\n      swap2\n      div\n      mul\n      0x20\n      add\n      mload(0x40)\n      swap1\n      dup2\n      add\n      0x40\n      mstore\n      dup1\n      swap3\n      swap2\n      swap1\n      dup2\n      dup2\n      mstore\n      0x20\n      add\n      dup3\n      dup1\n      sload\n      tag_85\n      swap1\n      tag_63\n      jump\t// in\n    tag_85:\n      dup1\n      iszero\n      tag_86\n      jumpi\n      dup1\n      0x1f\n      lt\n      tag_87\n      jumpi\n      0x0100\n      dup1\n      dup4\n      sload\n      div\n      mul\n      dup4\n      mstore\n      swap2\n      0x20\n      add\n      swap2\n      jump(tag_86)\n    tag_87:\n      dup3\n      add\n      swap2\n      swap1\n      0x00\n      mstore\n      keccak256(0x00, 0x20)\n      swap1\n    tag_88:\n      dup2\n      sload\n      dup2\n      mstore\n      swap1\n      0x01\n      add\n      swap1\n      0x20\n      add\n      dup1\n      dup4\n      gt\n      tag_88\n      jumpi\n      dup3\n      swap1\n      sub\n      0x1f\n      and\n      dup3\n      add\n      swap2\n    tag_86:\n      pop\n      pop\n      pop\n      pop\n      pop\n      dup2\n      mstore\n      0x20\n      add\n      0x01\n      dup3\n      add\n      0x00\n      swap1\n      sload\n      swap1\n      0x0100\n      exp\n      swap1\n      div\n      0xffffffffffffffffffffffffffffffffffffffff\n      and\n      0xffffffffffffffffffffffffffffffffffffffff\n      and\n      0xffffffffffffffffffffffffffffffffffffffff\n      and\n      dup2\n      mstore\n      0x20\n      add\n      0x02\n      dup3\n      add\n      sload\n      dup2\n      mstore\n      0x20\n      add\n      0x03\n      dup3\n      add\n      dup1\n      sload\n      tag_89\n      swap1\n      tag_63\n      jump\t// in\n    tag_89:\n      dup1\n      0x1f\n      add\n      0x20\n      dup1\n      swap2\n      div\n      mul\n      0x20\n      add\n      mload(0x40)\n      swap1\n      dup2\n      add\n      0x40\n      mstore\n      dup1\n      swap3\n      swap2\n      swap1\n      dup2\n      dup2\n      mstore\n      0x20\n      add\n      dup3\n      dup1\n      sload\n      tag_90\n      swap1\n      tag_63\n      jump\t// in\n    tag_90:\n      dup1\n      iszero\n      tag_91\n      jumpi\n      dup1\n      0x1f\n      lt\n      tag_92\n      jumpi\n      0x0100\n      dup1\n      dup4\n      sload\n      div\n      mul\n      dup4\n      mstore\n      swap2\n      0x20\n      add\n      swap2\n      jump(tag_91)\n    tag_92:\n      dup3\n      add\n      swap2\n      swap1\n      0x00\n      mstore\n      keccak256(0x00, 0x20)\n      swap1\n    tag_93:\n      dup2\n      sload\n      dup2\n      mstore\n      swap1\n      0x01\n      add\n      swap1\n      0x20\n      add\n      dup1\n      dup4\n      gt\n      tag_93\n      jumpi\n      dup3\n      swap1\n      sub\n      0x1f\n      and\n      dup3\n      add\n      swap2\n    tag_91:\n      pop\n      pop\n      pop\n      pop\n      pop\n      dup2\n      mstore\n      0x20\n      add\n      0x04\n      dup3\n      add\n      0x00\n      swap1\n      sload\n      swap1\n      0x0100\n      exp\n      swap1\n      div\n      0xff\n      and\n      iszero\n      iszero\n      iszero\n      iszero\n      dup2\n      mstore\n      pop\n      pop\n      swap1\n      pop\n        /* \"userInformation.sol\":3356:3554  function getUserInfo(... */\n      swap2\n      swap1\n      pop\n      jump\t// out\n        /* \"userInformation.sol\":1360:2214  function verify(... */\n    tag_39:\n        /* \"userInformation.sol\":1461:1465  bool */\n      0x00\n        /* \"userInformation.sol\":1539:1559  string memory idHash */\n      dup1\n        /* \"userInformation.sol\":1562:1573  hashId(_id) */\n      tag_95\n        /* \"userInformation.sol\":1569:1572  _id */\n      dup5\n        /* \"userInformation.sol\":1562:1568  hashId */\n      tag_96\n        /* \"userInformation.sol\":1562:1573  hashId(_id) */\n      jump\t// in\n    tag_95:\n        /* \"userInformation.sol\":1539:1573  string memory idHash = hashId(_id) */\n      swap1\n      pop\n        /* \"userInformation.sol\":1653:1666  isBlacklisted */\n      0x00\n        /* \"userInformation.sol\":1667:1673  idHash */\n      dup2\n        /* \"userInformation.sol\":1653:1674  isBlacklisted[idHash] */\n      mload(0x40)\n      tag_97\n      swap2\n      swap1\n      tag_69\n      jump\t// in\n    tag_97:\n      swap1\n      dup2\n      mstore\n      0x20\n      add\n      mload(0x40)\n      dup1\n      swap2\n      sub\n      swap1\n      keccak256\n      0x00\n      swap1\n      sload\n      swap1\n      0x0100\n      exp\n      swap1\n      div\n      0xff\n      and\n        /* \"userInformation.sol\":1652:1674  !isBlacklisted[idHash] */\n      iszero\n        /* \"userInformation.sol\":1644:1696  require(!isBlacklisted[idHash], \"ID is blacklisted\") */\n      tag_98\n      jumpi\n      mload(0x40)\n      0x08c379a000000000000000000000000000000000000000000000000000000000\n      dup2\n      mstore\n      0x04\n      add\n      tag_99\n      swap1\n      tag_100\n      jump\t// in\n    tag_99:\n      mload(0x40)\n      dup1\n      swap2\n      sub\n      swap1\n      revert\n    tag_98:\n        /* \"userInformation.sol\":1776:1785  userInfos */\n      0x01\n        /* \"userInformation.sol\":1776:1796  userInfos[tx.origin] */\n      0x00\n        /* \"userInformation.sol\":1786:1795  tx.origin */\n      origin\n        /* \"userInformation.sol\":1776:1796  userInfos[tx.origin] */\n      0xffffffffffffffffffffffffffffffffffffffff\n      and\n      0xffffffffffffffffffffffffffffffffffffffff\n      and\n      dup2\n      mstore\n      0x20\n      add\n      swap1\n      dup2\n      mstore\n      0x20\n      add\n      0x00\n      keccak256\n        /* \"userInformation.sol\":1776:1804  userInfos[tx.origin].isBound */\n      0x04\n      add\n      0x00\n      swap1\n      sload\n      swap1\n      0x0100\n      exp\n      swap1\n      div\n      0xff\n      and\n        /* \"userInformation.sol\":1775:1804  !userInfos[tx.origin].isBound */\n      iszero\n        /* \"userInformation.sol\":1767:1830  require(!userInfos[tx.origin].isBound, \"Address already bound\") */\n      tag_101\n      jumpi\n      mload(0x40)\n      0x08c379a000000000000000000000000000000000000000000000000000000000\n      dup2\n      mstore\n      0x04\n      add\n      tag_102\n      swap1\n      tag_103\n      jump\t// in\n    tag_102:\n      mload(0x40)\n      dup1\n      swap2\n      sub\n      swap1\n      revert\n    tag_101:\n        /* \"userInformation.sol\":1850:1859  isBoundId */\n      0x02\n        /* \"userInformation.sol\":1860:1866  idHash */\n      dup2\n        /* \"userInformation.sol\":1850:1867  isBoundId[idHash] */\n      mload(0x40)\n      tag_104\n      swap2\n      swap1\n      tag_69\n      jump\t// in\n    tag_104:\n      swap1\n      dup2\n      mstore\n      0x20\n      add\n      mload(0x40)\n      dup1\n      swap2\n      sub\n      swap1\n      keccak256\n      0x00\n      swap1\n      sload\n      swap1\n      0x0100\n      exp\n      swap1\n      div\n      0xff\n      and\n        /* \"userInformation.sol\":1849:1867  !isBoundId[idHash] */\n      iszero\n        /* \"userInformation.sol\":1841:1888  require(!isBoundId[idHash], \"ID already bound\") */\n      tag_105\n      jumpi\n      mload(0x40)\n      0x08c379a000000000000000000000000000000000000000000000000000000000\n      dup2\n      mstore\n      0x04\n      add\n      tag_106\n      swap1\n      tag_107\n      jump\t// in\n    tag_106:\n      mload(0x40)\n      dup1\n      swap2\n      sub\n      swap1\n      revert\n    tag_105:\n        /* \"userInformation.sol\":1962:2147  UserInfo({... */\n      mload(0x40)\n      dup1\n      0xa0\n      add\n      0x40\n      mstore\n      dup1\n        /* \"userInformation.sol\":1994:2000  idHash */\n      dup3\n        /* \"userInformation.sol\":1962:2147  UserInfo({... */\n      dup2\n      mstore\n      0x20\n      add\n        /* \"userInformation.sol\":2023:2032  tx.origin */\n      origin\n        /* \"userInformation.sol\":1962:2147  UserInfo({... */\n      0xffffffffffffffffffffffffffffffffffffffff\n      and\n      dup2\n      mstore\n      0x20\n      add\n        /* \"userInformation.sol\":840:842  60 */\n      0x3c\n        /* \"userInformation.sol\":1962:2147  UserInfo({... */\n      dup2\n      mstore\n      0x20\n      add\n        /* \"userInformation.sol\":2100:2107  _number */\n      dup5\n        /* \"userInformation.sol\":1962:2147  UserInfo({... */\n      dup2\n      mstore\n      0x20\n      add\n        /* \"userInformation.sol\":2131:2135  true */\n      0x01\n        /* \"userInformation.sol\":1962:2147  UserInfo({... */\n      iszero\n      iszero\n      dup2\n      mstore\n      pop\n        /* \"userInformation.sol\":1938:1947  userInfos */\n      0x01\n        /* \"userInformation.sol\":1938:1959  userInfos[msg.sender] */\n      0x00\n        /* \"userInformation.sol\":1948:1958  msg.sender */\n      caller\n        /* \"userInformation.sol\":1938:1959  userInfos[msg.sender] */\n      0xffffffffffffffffffffffffffffffffffffffff\n      and\n      0xffffffffffffffffffffffffffffffffffffffff\n      and\n      dup2\n      mstore\n      0x20\n      add\n      swap1\n      dup2\n      mstore\n      0x20\n      add\n      0x00\n      keccak256\n        /* \"userInformation.sol\":1938:2147  userInfos[msg.sender] = UserInfo({... */\n      0x00\n      dup3\n      add\n      mload\n      dup2\n      0x00\n      add\n      swap1\n      dup2\n      tag_108\n      swap2\n      swap1\n      tag_109\n      jump\t// in\n    tag_108:\n      pop\n      0x20\n      dup3\n      add\n      mload\n      dup2\n      0x01\n      add\n      exp(0x0100, 0x00)\n      dup2\n      sload\n      dup2\n      0xffffffffffffffffffffffffffffffffffffffff\n      mul\n      not\n      and\n      swap1\n      dup4\n      0xffffffffffffffffffffffffffffffffffffffff\n      and\n      mul\n      or\n      swap1\n      sstore\n      pop\n      0x40\n      dup3\n      add\n      mload\n      dup2\n      0x02\n      add\n      sstore\n      0x60\n      dup3\n      add\n      mload\n      dup2\n      0x03\n      add\n      swap1\n      dup2\n      tag_110\n      swap2\n      swap1\n      tag_109\n      jump\t// in\n    tag_110:\n      pop\n      0x80\n      dup3\n      add\n      mload\n      dup2\n      0x04\n      add\n      exp(0x0100, 0x00)\n      dup2\n      sload\n      dup2\n      0xff\n      mul\n      not\n      and\n      swap1\n      dup4\n      iszero\n      iszero\n      mul\n      or\n      swap1\n      sstore\n      pop\n      swap1\n      pop\n      pop\n        /* \"userInformation.sol\":2178:2182  true */\n      0x01\n        /* \"userInformation.sol\":2158:2167  isBoundId */\n      0x02\n        /* \"userInformation.sol\":2168:2174  idHash */\n      dup3\n        /* \"userInformation.sol\":2158:2175  isBoundId[idHash] */\n      mload(0x40)\n      tag_111\n      swap2\n      swap1\n      tag_69\n      jump\t// in\n    tag_111:\n      swap1\n      dup2\n      mstore\n      0x20\n      add\n      mload(0x40)\n      dup1\n      swap2\n      sub\n      swap1\n      keccak256\n      0x00\n        /* \"userInformation.sol\":2158:2182  isBoundId[idHash] = true */\n      0x0100\n      exp\n      dup2\n      sload\n      dup2\n      0xff\n      mul\n      not\n      and\n      swap1\n      dup4\n      iszero\n      iszero\n      mul\n      or\n      swap1\n      sstore\n      pop\n        /* \"userInformation.sol\":2202:2206  true */\n      0x01\n        /* \"userInformation.sol\":2195:2206  return true */\n      swap2\n      pop\n      pop\n        /* \"userInformation.sol\":1360:2214  function verify(... */\n      swap3\n      swap2\n      pop\n      pop\n      jump\t// out\n        /* \"userInformation.sol\":3597:3803  function getUserReputation(... */\n    tag_43:\n        /* \"userInformation.sol\":3676:3680  uint */\n      0x00\n        /* \"userInformation.sol\":3700:3720  isAddressBound(_add) */\n      tag_113\n        /* \"userInformation.sol\":3715:3719  _add */\n      dup3\n        /* \"userInformation.sol\":3700:3714  isAddressBound */\n      tag_24\n        /* \"userInformation.sol\":3700:3720  isAddressBound(_add) */\n      jump\t// in\n    tag_113:\n        /* \"userInformation.sol\":3692:3748  require(isAddressBound(_add),\"the address havn't bound\") */\n      tag_114\n      jumpi\n      mload(0x40)\n      0x08c379a000000000000000000000000000000000000000000000000000000000\n      dup2\n      mstore\n      0x04\n      add\n      tag_115\n      swap1\n      tag_83\n      jump\t// in\n    tag_115:\n      mload(0x40)\n      dup1\n      swap2\n      sub\n      swap1\n      revert\n    tag_114:\n        /* \"userInformation.sol\":3769:3778  userInfos */\n      0x01\n        /* \"userInformation.sol\":3769:3784  userInfos[_add] */\n      0x00\n        /* \"userInformation.sol\":3779:3783  _add */\n      dup4\n        /* \"userInformation.sol\":3769:3784  userInfos[_add] */\n      0xffffffffffffffffffffffffffffffffffffffff\n      and\n      0xffffffffffffffffffffffffffffffffffffffff\n      and\n      dup2\n      mstore\n      0x20\n      add\n      swap1\n      dup2\n      mstore\n      0x20\n      add\n      0x00\n      keccak256\n        /* \"userInformation.sol\":3769:3795  userInfos[_add].reputation */\n      0x02\n      add\n      sload\n        /* \"userInformation.sol\":3761:3795  return  userInfos[_add].reputation */\n      swap1\n      pop\n        /* \"userInformation.sol\":3597:3803  function getUserReputation(... */\n      swap2\n      swap1\n      pop\n      jump\t// out\n        /* \"userInformation.sol\":2888:3079  function deputeUserReputation(... */\n    tag_49:\n        /* \"userInformation.sol\":2992:2996  bool */\n      0x00\n        /* \"userInformation.sol\":3038:3049  _adjustment */\n      dup2\n        /* \"userInformation.sol\":3008:3017  userInfos */\n      0x01\n        /* \"userInformation.sol\":3008:3024  userInfos[_user] */\n      0x00\n        /* \"userInformation.sol\":3018:3023  _user */\n      dup6\n        /* \"userInformation.sol\":3008:3024  userInfos[_user] */\n      0xffffffffffffffffffffffffffffffffffffffff\n      and\n      0xffffffffffffffffffffffffffffffffffffffff\n      and\n      dup2\n      mstore\n      0x20\n      add\n      swap1\n      dup2\n      mstore\n      0x20\n      add\n      0x00\n      keccak256\n        /* \"userInformation.sol\":3008:3035  userInfos[_user].reputation */\n      0x02\n      add\n      0x00\n        /* \"userInformation.sol\":3008:3049  userInfos[_user].reputation -=_adjustment */\n      dup3\n      dup3\n      sload\n      tag_117\n      swap2\n      swap1\n      tag_118\n      jump\t// in\n    tag_117:\n      swap3\n      pop\n      pop\n      dup2\n      swap1\n      sstore\n      pop\n        /* \"userInformation.sol\":3067:3071  true */\n      0x01\n        /* \"userInformation.sol\":3060:3071  return true */\n      swap1\n      pop\n        /* \"userInformation.sol\":2888:3079  function deputeUserReputation(... */\n      swap3\n      swap2\n      pop\n      pop\n      jump\t// out\n        /* \"userInformation.sol\":1068:1322  function setReputationWhiteUser(... */\n    tag_54:\n        /* \"userInformation.sol\":1146:1150  bool */\n      0x00\n        /* \"userInformation.sol\":1170:1195  isAddressBound(tx.origin) */\n      tag_120\n        /* \"userInformation.sol\":1185:1194  tx.origin */\n      origin\n        /* \"userInformation.sol\":1170:1184  isAddressBound */\n      tag_24\n        /* \"userInformation.sol\":1170:1195  isAddressBound(tx.origin) */\n      jump\t// in\n    tag_120:\n        /* \"userInformation.sol\":1162:1237  require(isAddressBound(tx.origin),\"Please bound with your identification!\") */\n      tag_121\n      jumpi\n      mload(0x40)\n      0x08c379a000000000000000000000000000000000000000000000000000000000\n      dup2\n      mstore\n      0x04\n      add\n      tag_122\n      swap1\n      tag_123\n      jump\t// in\n    tag_122:\n      mload(0x40)\n      dup1\n      swap2\n      sub\n      swap1\n      revert\n    tag_121:\n        /* \"userInformation.sol\":1284:1290  _grade */\n      dup2\n        /* \"userInformation.sol\":1250:1259  userInfos */\n      0x01\n        /* \"userInformation.sol\":1250:1270  userInfos[tx.origin] */\n      0x00\n        /* \"userInformation.sol\":1260:1269  tx.origin */\n      origin\n        /* \"userInformation.sol\":1250:1270  userInfos[tx.origin] */\n      0xffffffffffffffffffffffffffffffffffffffff\n      and\n      0xffffffffffffffffffffffffffffffffffffffff\n      and\n      dup2\n      mstore\n      0x20\n      add\n      swap1\n      dup2\n      mstore\n      0x20\n      add\n      0x00\n      keccak256\n        /* \"userInformation.sol\":1250:1281  userInfos[tx.origin].reputation */\n      0x02\n      add\n        /* \"userInformation.sol\":1250:1290  userInfos[tx.origin].reputation = _grade */\n      dup2\n      swap1\n      sstore\n      pop\n        /* \"userInformation.sol\":1310:1314  true */\n      0x01\n        /* \"userInformation.sol\":1303:1314  return true */\n      swap1\n      pop\n        /* \"userInformation.sol\":1068:1322  function setReputationWhiteUser(... */\n      swap2\n      swap1\n      pop\n      jump\t// out\n        /* \"userInformation.sol\":4443:5141  function calculateReputationIncrease(... */\n    tag_76:\n        /* \"userInformation.sol\":4564:4568  uint */\n      0x00\n        /* \"userInformation.sol\":4581:4603  uint dailyIncreaseBase */\n      dup1\n        /* \"userInformation.sol\":4631:4634  365 */\n      0x016d\n        /* \"userInformation.sol\":4624:4628  1e18 */\n      0x0de0b6b3a7640000\n        /* \"userInformation.sol\":986:988  30 */\n      0x1e\n        /* \"userInformation.sol\":4606:4628  ANNUAL_INCREASE * 1e18 */\n      tag_125\n      swap2\n      swap1\n      tag_126\n      jump\t// in\n    tag_125:\n        /* \"userInformation.sol\":4606:4634  ANNUAL_INCREASE * 1e18 / 365 */\n      tag_127\n      swap2\n      swap1\n      tag_128\n      jump\t// in\n    tag_127:\n        /* \"userInformation.sol\":4581:4634  uint dailyIncreaseBase = ANNUAL_INCREASE * 1e18 / 365 */\n      swap1\n      pop\n        /* \"userInformation.sol\":4682:4693  uint factor */\n      0x00\n        /* \"userInformation.sol\":908:911  100 */\n      0x64\n        /* \"userInformation.sol\":4730:4734  1e18 */\n      0x0de0b6b3a7640000\n        /* \"userInformation.sol\":4714:4726  currentScore */\n      dup7\n        /* \"userInformation.sol\":908:911  100 */\n      0x64\n        /* \"userInformation.sol\":4697:4726  MAX_REPUTATION - currentScore */\n      tag_129\n      swap2\n      swap1\n      tag_118\n      jump\t// in\n    tag_129:\n        /* \"userInformation.sol\":4696:4734  (MAX_REPUTATION - currentScore) * 1e18 */\n      tag_130\n      swap2\n      swap1\n      tag_126\n      jump\t// in\n    tag_130:\n        /* \"userInformation.sol\":4696:4751  (MAX_REPUTATION - currentScore) * 1e18 / MAX_REPUTATION */\n      tag_131\n      swap2\n      swap1\n      tag_128\n      jump\t// in\n    tag_131:\n        /* \"userInformation.sol\":4682:4751  uint factor = (MAX_REPUTATION - currentScore) * 1e18 / MAX_REPUTATION */\n      swap1\n      pop\n        /* \"userInformation.sol\":4796:4814  uint dailyIncrease */\n      0x00\n        /* \"userInformation.sol\":4846:4850  1e18 */\n      0x0de0b6b3a7640000\n        /* \"userInformation.sol\":4837:4843  factor */\n      dup3\n        /* \"userInformation.sol\":4817:4834  dailyIncreaseBase */\n      dup5\n        /* \"userInformation.sol\":4817:4843  dailyIncreaseBase * factor */\n      tag_132\n      swap2\n      swap1\n      tag_126\n      jump\t// in\n    tag_132:\n        /* \"userInformation.sol\":4817:4850  dailyIncreaseBase * factor / 1e18 */\n      tag_133\n      swap2\n      swap1\n      tag_128\n      jump\t// in\n    tag_133:\n        /* \"userInformation.sol\":4796:4850  uint dailyIncrease = dailyIncreaseBase * factor / 1e18 */\n      swap1\n      pop\n        /* \"userInformation.sol\":4863:4881  uint totalIncrease */\n      0x00\n        /* \"userInformation.sol\":4913:4917  1e18 */\n      0x0de0b6b3a7640000\n        /* \"userInformation.sol\":4900:4910  daysRented */\n      dup7\n        /* \"userInformation.sol\":4884:4897  dailyIncrease */\n      dup4\n        /* \"userInformation.sol\":4884:4910  dailyIncrease * daysRented */\n      tag_134\n      swap2\n      swap1\n      tag_126\n      jump\t// in\n    tag_134:\n        /* \"userInformation.sol\":4884:4917  dailyIncrease * daysRented / 1e18 */\n      tag_135\n      swap2\n      swap1\n      tag_128\n      jump\t// in\n    tag_135:\n        /* \"userInformation.sol\":4863:4917  uint totalIncrease = dailyIncrease * daysRented / 1e18 */\n      swap1\n      pop\n        /* \"userInformation.sol\":4928:4941  uint newScore */\n      0x00\n        /* \"userInformation.sol\":4959:4972  totalIncrease */\n      dup2\n        /* \"userInformation.sol\":4944:4956  currentScore */\n      dup9\n        /* \"userInformation.sol\":4944:4972  currentScore + totalIncrease */\n      tag_136\n      swap2\n      swap1\n      tag_137\n      jump\t// in\n    tag_136:\n        /* \"userInformation.sol\":4928:4972  uint newScore = currentScore + totalIncrease */\n      swap1\n      pop\n        /* \"userInformation.sol\":908:911  100 */\n      0x64\n        /* \"userInformation.sol\":5029:5037  newScore */\n      dup2\n        /* \"userInformation.sol\":5029:5054  newScore > MAX_REPUTATION */\n      gt\n        /* \"userInformation.sol\":5025:5108  if (newScore > MAX_REPUTATION) {... */\n      iszero\n      tag_138\n      jumpi\n        /* \"userInformation.sol\":908:911  100 */\n      0x64\n        /* \"userInformation.sol\":5071:5096  newScore = MAX_REPUTATION */\n      swap1\n      pop\n        /* \"userInformation.sol\":5025:5108  if (newScore > MAX_REPUTATION) {... */\n    tag_138:\n        /* \"userInformation.sol\":5125:5133  newScore */\n      dup1\n        /* \"userInformation.sol\":5118:5133  return newScore */\n      swap6\n      pop\n      pop\n      pop\n      pop\n      pop\n      pop\n        /* \"userInformation.sol\":4443:5141  function calculateReputationIncrease(... */\n      swap3\n      swap2\n      pop\n      pop\n      jump\t// out\n        /* \"userInformation.sol\":5201:5497  function hashId(... */\n    tag_96:\n        /* \"userInformation.sol\":5275:5288  string memory */\n      0x60\n        /* \"userInformation.sol\":5350:5364  bytes32 hashed */\n      0x00\n        /* \"userInformation.sol\":5394:5397  _id */\n      dup3\n        /* \"userInformation.sol\":5377:5398  abi.encodePacked(_id) */\n      add(0x20, mload(0x40))\n      tag_140\n      swap2\n      swap1\n      tag_69\n      jump\t// in\n    tag_140:\n      mload(0x40)\n      0x20\n      dup2\n      dup4\n      sub\n      sub\n      dup2\n      mstore\n      swap1\n      0x40\n      mstore\n        /* \"userInformation.sol\":5367:5399  keccak256(abi.encodePacked(_id)) */\n      dup1\n      mload\n      swap1\n      0x20\n      add\n      keccak256\n        /* \"userInformation.sol\":5350:5399  bytes32 hashed = keccak256(abi.encodePacked(_id)) */\n      swap1\n      pop\n        /* \"userInformation.sol\":5470:5489  toHexString(hashed) */\n      tag_141\n        /* \"userInformation.sol\":5482:5488  hashed */\n      dup2\n        /* \"userInformation.sol\":5470:5481  toHexString */\n      tag_142\n        /* \"userInformation.sol\":5470:5489  toHexString(hashed) */\n      jump\t// in\n    tag_141:\n        /* \"userInformation.sol\":5463:5489  return toHexString(hashed) */\n      swap2\n      pop\n      pop\n        /* \"userInformation.sol\":5201:5497  function hashId(... */\n      swap2\n      swap1\n      pop\n      jump\t// out\n        /* \"userInformation.sol\":5570:5967  function toHexString(... */\n    tag_142:\n        /* \"userInformation.sol\":5644:5657  string memory */\n      0x60\n        /* \"userInformation.sol\":5670:5691  bytes memory alphabet */\n      0x00\n        /* \"userInformation.sol\":5670:5712  bytes memory alphabet = \"0123456789abcdef\" */\n      mload(0x40)\n      dup1\n      0x40\n      add\n      0x40\n      mstore\n      dup1\n      0x10\n      dup2\n      mstore\n      0x20\n      add\n      0x3031323334353637383961626364656600000000000000000000000000000000\n      dup2\n      mstore\n      pop\n      swap1\n      pop\n        /* \"userInformation.sol\":5723:5739  bytes memory str */\n      0x00\n        /* \"userInformation.sol\":5752:5754  64 */\n      0x40\n        /* \"userInformation.sol\":5742:5755  new bytes(64) */\n      0xffffffffffffffff\n      dup2\n      gt\n      iszero\n      tag_144\n      jumpi\n      tag_145\n      tag_146\n      jump\t// in\n    tag_145:\n    tag_144:\n      mload(0x40)\n      swap1\n      dup1\n      dup3\n      mstore\n      dup1\n      0x1f\n      add\n      not(0x1f)\n      and\n      0x20\n      add\n      dup3\n      add\n      0x40\n      mstore\n      dup1\n      iszero\n      tag_147\n      jumpi\n      dup2\n      0x20\n      add\n      0x01\n      dup3\n      mul\n      dup1\n      calldatasize\n      dup4\n      calldatacopy\n      dup1\n      dup3\n      add\n      swap2\n      pop\n      pop\n      swap1\n      pop\n    tag_147:\n      pop\n        /* \"userInformation.sol\":5723:5755  bytes memory str = new bytes(64) */\n      swap1\n      pop\n        /* \"userInformation.sol\":5771:5780  uint256 i */\n      0x00\n        /* \"userInformation.sol\":5766:5931  for (uint256 i = 0; i < 32; i++) {... */\n    tag_148:\n        /* \"userInformation.sol\":5790:5792  32 */\n      0x20\n        /* \"userInformation.sol\":5786:5787  i */\n      dup2\n        /* \"userInformation.sol\":5786:5792  i < 32 */\n      lt\n        /* \"userInformation.sol\":5766:5931  for (uint256 i = 0; i < 32; i++) {... */\n      iszero\n      tag_149\n      jumpi\n        /* \"userInformation.sol\":5827:5835  alphabet */\n      dup3\n        /* \"userInformation.sol\":5853:5854  4 */\n      0x04\n        /* \"userInformation.sol\":5842:5846  data */\n      dup7\n        /* \"userInformation.sol\":5847:5848  i */\n      dup4\n        /* \"userInformation.sol\":5842:5849  data[i] */\n      0x20\n      dup2\n      lt\n      tag_151\n      jumpi\n      tag_152\n      tag_153\n      jump\t// in\n    tag_152:\n    tag_151:\n      byte\n      0xf8\n      shl\n        /* \"userInformation.sol\":5842:5854  data[i] >> 4 */\n      not(0xffffffffffffffffffffffffffffffffffffffffffffffffffffffffffffff)\n      and\n      swap1\n      shr\n        /* \"userInformation.sol\":5836:5855  uint8(data[i] >> 4) */\n      0xf8\n      shr\n        /* \"userInformation.sol\":5827:5856  alphabet[uint8(data[i] >> 4)] */\n      0xff\n      and\n      dup2\n      mload\n      dup2\n      lt\n      tag_154\n      jumpi\n      tag_155\n      tag_153\n      jump\t// in\n    tag_155:\n    tag_154:\n      0x20\n      add\n      add\n      mload\n      0xf8\n      shr\n      0xf8\n      shl\n        /* \"userInformation.sol\":5814:5817  str */\n      dup3\n        /* \"userInformation.sol\":5822:5823  2 */\n      0x02\n        /* \"userInformation.sol\":5818:5819  i */\n      dup4\n        /* \"userInformation.sol\":5818:5823  i * 2 */\n      tag_156\n      swap2\n      swap1\n      tag_126\n      jump\t// in\n    tag_156:\n        /* \"userInformation.sol\":5814:5824  str[i * 2] */\n      dup2\n      mload\n      dup2\n      lt\n      tag_157\n      jumpi\n      tag_158\n      tag_153\n      jump\t// in\n    tag_158:\n    tag_157:\n      0x20\n      add\n      add\n        /* \"userInformation.sol\":5814:5856  str[i * 2] = alphabet[uint8(data[i] >> 4)] */\n      swap1\n      not(0xffffffffffffffffffffffffffffffffffffffffffffffffffffffffffffff)\n      and\n      swap1\n      dup2\n      0x00\n      byte\n      swap1\n      mstore8\n      pop\n        /* \"userInformation.sol\":5888:5896  alphabet */\n      dup3\n        /* \"userInformation.sol\":5913:5917  0x0f */\n      0x0f\n        /* \"userInformation.sol\":5903:5917  data[i] & 0x0f */\n      0xf8\n      shl\n        /* \"userInformation.sol\":5903:5907  data */\n      dup7\n        /* \"userInformation.sol\":5908:5909  i */\n      dup4\n        /* \"userInformation.sol\":5903:5910  data[i] */\n      0x20\n      dup2\n      lt\n      tag_159\n      jumpi\n      tag_160\n      tag_153\n      jump\t// in\n    tag_160:\n    tag_159:\n      byte\n      0xf8\n      shl\n        /* \"userInformation.sol\":5903:5917  data[i] & 0x0f */\n      and\n        /* \"userInformation.sol\":5897:5918  uint8(data[i] & 0x0f) */\n      0xf8\n      shr\n        /* \"userInformation.sol\":5888:5919  alphabet[uint8(data[i] & 0x0f)] */\n      0xff\n      and\n      dup2\n      mload\n      dup2\n      lt\n      tag_161\n      jumpi\n      tag_162\n      tag_153\n      jump\t// in\n    tag_162:\n    tag_161:\n      0x20\n      add\n      add\n      mload\n      0xf8\n      shr\n      0xf8\n      shl\n        /* \"userInformation.sol\":5871:5874  str */\n      dup3\n        /* \"userInformation.sol\":5883:5884  2 */\n      0x02\n        /* \"userInformation.sol\":5879:5880  i */\n      dup4\n        /* \"userInformation.sol\":5879:5884  i * 2 */\n      tag_163\n      swap2\n      swap1\n      tag_126\n      jump\t// in\n    tag_163:\n        /* \"userInformation.sol\":5875:5876  1 */\n      0x01\n        /* \"userInformation.sol\":5875:5884  1 + i * 2 */\n      tag_164\n      swap2\n      swap1\n      tag_137\n      jump\t// in\n    tag_164:\n        /* \"userInformation.sol\":5871:5885  str[1 + i * 2] */\n      dup2\n      mload\n      dup2\n      lt\n      tag_165\n      jumpi\n      tag_166\n      tag_153\n      jump\t// in\n    tag_166:\n    tag_165:\n      0x20\n      add\n      add\n        /* \"userInformation.sol\":5871:5919  str[1 + i * 2] = alphabet[uint8(data[i] & 0x0f)] */\n      swap1\n      not(0xffffffffffffffffffffffffffffffffffffffffffffffffffffffffffffff)\n      and\n      swap1\n      dup2\n      0x00\n      byte\n      swap1\n      mstore8\n      pop\n        /* \"userInformation.sol\":5794:5797  i++ */\n      dup1\n      dup1\n      0x01\n      add\n      swap2\n      pop\n      pop\n        /* \"userInformation.sol\":5766:5931  for (uint256 i = 0; i < 32; i++) {... */\n      jump(tag_148)\n    tag_149:\n      pop\n        /* \"userInformation.sol\":5955:5958  str */\n      dup1\n        /* \"userInformation.sol\":5941:5959  return string(str) */\n      swap3\n      pop\n      pop\n      pop\n        /* \"userInformation.sol\":5570:5967  function toHexString(... */\n      swap2\n      swap1\n      pop\n      jump\t// out\n    tag_78:\n      mload(0x40)\n      dup1\n      0xa0\n      add\n      0x40\n      mstore\n      dup1\n      0x60\n      dup2\n      mstore\n      0x20\n      add\n      and(0xffffffffffffffffffffffffffffffffffffffff, 0x00)\n      dup2\n      mstore\n      0x20\n      add\n      0x00\n      dup2\n      mstore\n      0x20\n      add\n      0x60\n      dup2\n      mstore\n      0x20\n      add\n      iszero(iszero(0x00))\n      dup2\n      mstore\n      pop\n      swap1\n      jump\t// out\n        /* \"#utility.yul\":7:82   */\n    tag_167:\n        /* \"#utility.yul\":40:46   */\n      0x00\n        /* \"#utility.yul\":73:75   */\n      0x40\n        /* \"#utility.yul\":67:76   */\n      mload\n        /* \"#utility.yul\":57:76   */\n      swap1\n      pop\n        /* \"#utility.yul\":7:82   */\n      swap1\n      jump\t// out\n        /* \"#utility.yul\":88:205   */\n    tag_168:\n        /* \"#utility.yul\":197:198   */\n      0x00\n        /* \"#utility.yul\":194:195   */\n      dup1\n        /* \"#utility.yul\":187:199   */\n      revert\n        /* \"#utility.yul\":211:328   */\n    tag_169:\n        /* \"#utility.yul\":320:321   */\n      0x00\n        /* \"#utility.yul\":317:318   */\n      dup1\n        /* \"#utility.yul\":310:322   */\n      revert\n        /* \"#utility.yul\":334:460   */\n    tag_170:\n        /* \"#utility.yul\":371:378   */\n      0x00\n        /* \"#utility.yul\":411:453   */\n      0xffffffffffffffffffffffffffffffffffffffff\n        /* \"#utility.yul\":404:409   */\n      dup3\n        /* \"#utility.yul\":400:454   */\n      and\n        /* \"#utility.yul\":389:454   */\n      swap1\n      pop\n        /* \"#utility.yul\":334:460   */\n      swap2\n      swap1\n      pop\n      jump\t// out\n        /* \"#utility.yul\":466:562   */\n    tag_171:\n        /* \"#utility.yul\":503:510   */\n      0x00\n        /* \"#utility.yul\":532:556   */\n      tag_237\n        /* \"#utility.yul\":550:555   */\n      dup3\n        /* \"#utility.yul\":532:556   */\n      tag_170\n      jump\t// in\n    tag_237:\n        /* \"#utility.yul\":521:556   */\n      swap1\n      pop\n        /* \"#utility.yul\":466:562   */\n      swap2\n      swap1\n      pop\n      jump\t// out\n        /* \"#utility.yul\":568:690   */\n    tag_172:\n        /* \"#utility.yul\":641:665   */\n      tag_239\n        /* \"#utility.yul\":659:664   */\n      dup2\n        /* \"#utility.yul\":641:665   */\n      tag_171\n      jump\t// in\n    tag_239:\n        /* \"#utility.yul\":634:639   */\n      dup2\n        /* \"#utility.yul\":631:666   */\n      eq\n        /* \"#utility.yul\":621:684   */\n      tag_240\n      jumpi\n        /* \"#utility.yul\":680:681   */\n      0x00\n        /* \"#utility.yul\":677:678   */\n      dup1\n        /* \"#utility.yul\":670:682   */\n      revert\n        /* \"#utility.yul\":621:684   */\n    tag_240:\n        /* \"#utility.yul\":568:690   */\n      pop\n      jump\t// out\n        /* \"#utility.yul\":696:835   */\n    tag_173:\n        /* \"#utility.yul\":742:747   */\n      0x00\n        /* \"#utility.yul\":780:786   */\n      dup2\n        /* \"#utility.yul\":767:787   */\n      calldataload\n        /* \"#utility.yul\":758:787   */\n      swap1\n      pop\n        /* \"#utility.yul\":796:829   */\n      tag_242\n        /* \"#utility.yul\":823:828   */\n      dup2\n        /* \"#utility.yul\":796:829   */\n      tag_172\n      jump\t// in\n    tag_242:\n        /* \"#utility.yul\":696:835   */\n      swap3\n      swap2\n      pop\n      pop\n      jump\t// out\n        /* \"#utility.yul\":841:1170   */\n    tag_15:\n        /* \"#utility.yul\":900:906   */\n      0x00\n        /* \"#utility.yul\":949:951   */\n      0x20\n        /* \"#utility.yul\":937:946   */\n      dup3\n        /* \"#utility.yul\":928:935   */\n      dup5\n        /* \"#utility.yul\":924:947   */\n      sub\n        /* \"#utility.yul\":920:952   */\n      slt\n        /* \"#utility.yul\":917:1036   */\n      iszero\n      tag_244\n      jumpi\n        /* \"#utility.yul\":955:1034   */\n      tag_245\n      tag_168\n      jump\t// in\n    tag_245:\n        /* \"#utility.yul\":917:1036   */\n    tag_244:\n        /* \"#utility.yul\":1075:1076   */\n      0x00\n        /* \"#utility.yul\":1100:1153   */\n      tag_246\n        /* \"#utility.yul\":1145:1152   */\n      dup5\n        /* \"#utility.yul\":1136:1142   */\n      dup3\n        /* \"#utility.yul\":1125:1134   */\n      dup6\n        /* \"#utility.yul\":1121:1143   */\n      add\n        /* \"#utility.yul\":1100:1153   */\n      tag_173\n      jump\t// in\n    tag_246:\n        /* \"#utility.yul\":1090:1153   */\n      swap2\n      pop\n        /* \"#utility.yul\":1046:1163   */\n      pop\n        /* \"#utility.yul\":841:1170   */\n      swap3\n      swap2\n      pop\n      pop\n      jump\t// out\n        /* \"#utility.yul\":1176:1266   */\n    tag_174:\n        /* \"#utility.yul\":1210:1217   */\n      0x00\n        /* \"#utility.yul\":1253:1258   */\n      dup2\n        /* \"#utility.yul\":1246:1259   */\n      iszero\n        /* \"#utility.yul\":1239:1260   */\n      iszero\n        /* \"#utility.yul\":1228:1260   */\n      swap1\n      pop\n        /* \"#utility.yul\":1176:1266   */\n      swap2\n      swap1\n      pop\n      jump\t// out\n        /* \"#utility.yul\":1272:1381   */\n    tag_175:\n        /* \"#utility.yul\":1353:1374   */\n      tag_249\n        /* \"#utility.yul\":1368:1373   */\n      dup2\n        /* \"#utility.yul\":1353:1374   */\n      tag_174\n      jump\t// in\n    tag_249:\n        /* \"#utility.yul\":1348:1351   */\n      dup3\n        /* \"#utility.yul\":1341:1375   */\n      mstore\n        /* \"#utility.yul\":1272:1381   */\n      pop\n      pop\n      jump\t// out\n        /* \"#utility.yul\":1387:1597   */\n    tag_18:\n        /* \"#utility.yul\":1474:1478   */\n      0x00\n        /* \"#utility.yul\":1512:1514   */\n      0x20\n        /* \"#utility.yul\":1501:1510   */\n      dup3\n        /* \"#utility.yul\":1497:1515   */\n      add\n        /* \"#utility.yul\":1489:1515   */\n      swap1\n      pop\n        /* \"#utility.yul\":1525:1590   */\n      tag_251\n        /* \"#utility.yul\":1587:1588   */\n      0x00\n        /* \"#utility.yul\":1576:1585   */\n      dup4\n        /* \"#utility.yul\":1572:1589   */\n      add\n        /* \"#utility.yul\":1563:1569   */\n      dup5\n        /* \"#utility.yul\":1525:1590   */\n      tag_175\n      jump\t// in\n    tag_251:\n        /* \"#utility.yul\":1387:1597   */\n      swap3\n      swap2\n      pop\n      pop\n      jump\t// out\n        /* \"#utility.yul\":1603:1680   */\n    tag_176:\n        /* \"#utility.yul\":1640:1647   */\n      0x00\n        /* \"#utility.yul\":1669:1674   */\n      dup2\n        /* \"#utility.yul\":1658:1674   */\n      swap1\n      pop\n        /* \"#utility.yul\":1603:1680   */\n      swap2\n      swap1\n      pop\n      jump\t// out\n        /* \"#utility.yul\":1686:1808   */\n    tag_177:\n        /* \"#utility.yul\":1759:1783   */\n      tag_254\n        /* \"#utility.yul\":1777:1782   */\n      dup2\n        /* \"#utility.yul\":1759:1783   */\n      tag_176\n      jump\t// in\n    tag_254:\n        /* \"#utility.yul\":1752:1757   */\n      dup2\n        /* \"#utility.yul\":1749:1784   */\n      eq\n        /* \"#utility.yul\":1739:1802   */\n      tag_255\n      jumpi\n        /* \"#utility.yul\":1798:1799   */\n      0x00\n        /* \"#utility.yul\":1795:1796   */\n      dup1\n        /* \"#utility.yul\":1788:1800   */\n      revert\n        /* \"#utility.yul\":1739:1802   */\n    tag_255:\n        /* \"#utility.yul\":1686:1808   */\n      pop\n      jump\t// out\n        /* \"#utility.yul\":1814:1953   */\n    tag_178:\n        /* \"#utility.yul\":1860:1865   */\n      0x00\n        /* \"#utility.yul\":1898:1904   */\n      dup2\n        /* \"#utility.yul\":1885:1905   */\n      calldataload\n        /* \"#utility.yul\":1876:1905   */\n      swap1\n      pop\n        /* \"#utility.yul\":1914:1947   */\n      tag_257\n        /* \"#utility.yul\":1941:1946   */\n      dup2\n        /* \"#utility.yul\":1914:1947   */\n      tag_177\n      jump\t// in\n    tag_257:\n        /* \"#utility.yul\":1814:1953   */\n      swap3\n      swap2\n      pop\n      pop\n      jump\t// out\n        /* \"#utility.yul\":1959:2578   */\n    tag_28:\n        /* \"#utility.yul\":2036:2042   */\n      0x00\n        /* \"#utility.yul\":2044:2050   */\n      dup1\n        /* \"#utility.yul\":2052:2058   */\n      0x00\n        /* \"#utility.yul\":2101:2103   */\n      0x60\n        /* \"#utility.yul\":2089:2098   */\n      dup5\n        /* \"#utility.yul\":2080:2087   */\n      dup7\n        /* \"#utility.yul\":2076:2099   */\n      sub\n        /* \"#utility.yul\":2072:2104   */\n      slt\n        /* \"#utility.yul\":2069:2188   */\n      iszero\n      tag_259\n      jumpi\n        /* \"#utility.yul\":2107:2186   */\n      tag_260\n      tag_168\n      jump\t// in\n    tag_260:\n        /* \"#utility.yul\":2069:2188   */\n    tag_259:\n        /* \"#utility.yul\":2227:2228   */\n      0x00\n        /* \"#utility.yul\":2252:2305   */\n      tag_261\n        /* \"#utility.yul\":2297:2304   */\n      dup7\n        /* \"#utility.yul\":2288:2294   */\n      dup3\n        /* \"#utility.yul\":2277:2286   */\n      dup8\n        /* \"#utility.yul\":2273:2295   */\n      add\n        /* \"#utility.yul\":2252:2305   */\n      tag_173\n      jump\t// in\n    tag_261:\n        /* \"#utility.yul\":2242:2305   */\n      swap4\n      pop\n        /* \"#utility.yul\":2198:2315   */\n      pop\n        /* \"#utility.yul\":2354:2356   */\n      0x20\n        /* \"#utility.yul\":2380:2433   */\n      tag_262\n        /* \"#utility.yul\":2425:2432   */\n      dup7\n        /* \"#utility.yul\":2416:2422   */\n      dup3\n        /* \"#utility.yul\":2405:2414   */\n      dup8\n        /* \"#utility.yul\":2401:2423   */\n      add\n        /* \"#utility.yul\":2380:2433   */\n      tag_178\n      jump\t// in\n    tag_262:\n        /* \"#utility.yul\":2370:2433   */\n      swap3\n      pop\n        /* \"#utility.yul\":2325:2443   */\n      pop\n        /* \"#utility.yul\":2482:2484   */\n      0x40\n        /* \"#utility.yul\":2508:2561   */\n      tag_263\n        /* \"#utility.yul\":2553:2560   */\n      dup7\n        /* \"#utility.yul\":2544:2550   */\n      dup3\n        /* \"#utility.yul\":2533:2542   */\n      dup8\n        /* \"#utility.yul\":2529:2551   */\n      add\n        /* \"#utility.yul\":2508:2561   */\n      tag_178\n      jump\t// in\n    tag_263:\n        /* \"#utility.yul\":2498:2561   */\n      swap2\n      pop\n        /* \"#utility.yul\":2453:2571   */\n      pop\n        /* \"#utility.yul\":1959:2578   */\n      swap3\n      pop\n      swap3\n      pop\n      swap3\n      jump\t// out\n        /* \"#utility.yul\":2584:2683   */\n    tag_179:\n        /* \"#utility.yul\":2636:2642   */\n      0x00\n        /* \"#utility.yul\":2670:2675   */\n      dup2\n        /* \"#utility.yul\":2664:2676   */\n      mload\n        /* \"#utility.yul\":2654:2676   */\n      swap1\n      pop\n        /* \"#utility.yul\":2584:2683   */\n      swap2\n      swap1\n      pop\n      jump\t// out\n        /* \"#utility.yul\":2689:2848   */\n    tag_180:\n        /* \"#utility.yul\":2763:2774   */\n      0x00\n        /* \"#utility.yul\":2797:2803   */\n      dup3\n        /* \"#utility.yul\":2792:2795   */\n      dup3\n        /* \"#utility.yul\":2785:2804   */\n      mstore\n        /* \"#utility.yul\":2837:2841   */\n      0x20\n        /* \"#utility.yul\":2832:2835   */\n      dup3\n        /* \"#utility.yul\":2828:2842   */\n      add\n        /* \"#utility.yul\":2813:2842   */\n      swap1\n      pop\n        /* \"#utility.yul\":2689:2848   */\n      swap3\n      swap2\n      pop\n      pop\n      jump\t// out\n        /* \"#utility.yul\":2854:3100   */\n    tag_181:\n        /* \"#utility.yul\":2935:2936   */\n      0x00\n        /* \"#utility.yul\":2945:3058   */\n    tag_267:\n        /* \"#utility.yul\":2959:2965   */\n      dup4\n        /* \"#utility.yul\":2956:2957   */\n      dup2\n        /* \"#utility.yul\":2953:2966   */\n      lt\n        /* \"#utility.yul\":2945:3058   */\n      iszero\n      tag_269\n      jumpi\n        /* \"#utility.yul\":3044:3045   */\n      dup1\n        /* \"#utility.yul\":3039:3042   */\n      dup3\n        /* \"#utility.yul\":3035:3046   */\n      add\n        /* \"#utility.yul\":3029:3047   */\n      mload\n        /* \"#utility.yul\":3025:3026   */\n      dup2\n        /* \"#utility.yul\":3020:3023   */\n      dup5\n        /* \"#utility.yul\":3016:3027   */\n      add\n        /* \"#utility.yul\":3009:3048   */\n      mstore\n        /* \"#utility.yul\":2981:2983   */\n      0x20\n        /* \"#utility.yul\":2978:2979   */\n      dup2\n        /* \"#utility.yul\":2974:2984   */\n      add\n        /* \"#utility.yul\":2969:2984   */\n      swap1\n      pop\n        /* \"#utility.yul\":2945:3058   */\n      jump(tag_267)\n    tag_269:\n        /* \"#utility.yul\":3092:3093   */\n      0x00\n        /* \"#utility.yul\":3083:3089   */\n      dup5\n        /* \"#utility.yul\":3078:3081   */\n      dup5\n        /* \"#utility.yul\":3074:3090   */\n      add\n        /* \"#utility.yul\":3067:3094   */\n      mstore\n        /* \"#utility.yul\":2916:3100   */\n      pop\n        /* \"#utility.yul\":2854:3100   */\n      pop\n      pop\n      pop\n      jump\t// out\n        /* \"#utility.yul\":3106:3208   */\n    tag_182:\n        /* \"#utility.yul\":3147:3153   */\n      0x00\n        /* \"#utility.yul\":3198:3200   */\n      0x1f\n        /* \"#utility.yul\":3194:3201   */\n      not\n        /* \"#utility.yul\":3189:3191   */\n      0x1f\n        /* \"#utility.yul\":3182:3187   */\n      dup4\n        /* \"#utility.yul\":3178:3192   */\n      add\n        /* \"#utility.yul\":3174:3202   */\n      and\n        /* \"#utility.yul\":3164:3202   */\n      swap1\n      pop\n        /* \"#utility.yul\":3106:3208   */\n      swap2\n      swap1\n      pop\n      jump\t// out\n        /* \"#utility.yul\":3214:3571   */\n    tag_183:\n        /* \"#utility.yul\":3292:3295   */\n      0x00\n        /* \"#utility.yul\":3320:3359   */\n      tag_272\n        /* \"#utility.yul\":3353:3358   */\n      dup3\n        /* \"#utility.yul\":3320:3359   */\n      tag_179\n      jump\t// in\n    tag_272:\n        /* \"#utility.yul\":3375:3436   */\n      tag_273\n        /* \"#utility.yul\":3429:3435   */\n      dup2\n        /* \"#utility.yul\":3424:3427   */\n      dup6\n        /* \"#utility.yul\":3375:3436   */\n      tag_180\n      jump\t// in\n    tag_273:\n        /* \"#utility.yul\":3368:3436   */\n      swap4\n      pop\n        /* \"#utility.yul\":3445:3510   */\n      tag_274\n        /* \"#utility.yul\":3503:3509   */\n      dup2\n        /* \"#utility.yul\":3498:3501   */\n      dup6\n        /* \"#utility.yul\":3491:3495   */\n      0x20\n        /* \"#utility.yul\":3484:3489   */\n      dup7\n        /* \"#utility.yul\":3480:3496   */\n      add\n        /* \"#utility.yul\":3445:3510   */\n      tag_181\n      jump\t// in\n    tag_274:\n        /* \"#utility.yul\":3535:3564   */\n      tag_275\n        /* \"#utility.yul\":3557:3563   */\n      dup2\n        /* \"#utility.yul\":3535:3564   */\n      tag_182\n      jump\t// in\n    tag_275:\n        /* \"#utility.yul\":3530:3533   */\n      dup5\n        /* \"#utility.yul\":3526:3565   */\n      add\n        /* \"#utility.yul\":3519:3565   */\n      swap2\n      pop\n        /* \"#utility.yul\":3296:3571   */\n      pop\n        /* \"#utility.yul\":3214:3571   */\n      swap3\n      swap2\n      pop\n      pop\n      jump\t// out\n        /* \"#utility.yul\":3577:3685   */\n    tag_184:\n        /* \"#utility.yul\":3654:3678   */\n      tag_277\n        /* \"#utility.yul\":3672:3677   */\n      dup2\n        /* \"#utility.yul\":3654:3678   */\n      tag_171\n      jump\t// in\n    tag_277:\n        /* \"#utility.yul\":3649:3652   */\n      dup3\n        /* \"#utility.yul\":3642:3679   */\n      mstore\n        /* \"#utility.yul\":3577:3685   */\n      pop\n      pop\n      jump\t// out\n        /* \"#utility.yul\":3691:3799   */\n    tag_185:\n        /* \"#utility.yul\":3768:3792   */\n      tag_279\n        /* \"#utility.yul\":3786:3791   */\n      dup2\n        /* \"#utility.yul\":3768:3792   */\n      tag_176\n      jump\t// in\n    tag_279:\n        /* \"#utility.yul\":3763:3766   */\n      dup3\n        /* \"#utility.yul\":3756:3793   */\n      mstore\n        /* \"#utility.yul\":3691:3799   */\n      pop\n      pop\n      jump\t// out\n        /* \"#utility.yul\":3805:3904   */\n    tag_186:\n        /* \"#utility.yul\":3876:3897   */\n      tag_281\n        /* \"#utility.yul\":3891:3896   */\n      dup2\n        /* \"#utility.yul\":3876:3897   */\n      tag_174\n      jump\t// in\n    tag_281:\n        /* \"#utility.yul\":3871:3874   */\n      dup3\n        /* \"#utility.yul\":3864:3898   */\n      mstore\n        /* \"#utility.yul\":3805:3904   */\n      pop\n      pop\n      jump\t// out\n        /* \"#utility.yul\":3986:5192   */\n    tag_187:\n        /* \"#utility.yul\":4103:4106   */\n      0x00\n        /* \"#utility.yul\":4139:4143   */\n      0xa0\n        /* \"#utility.yul\":4134:4137   */\n      dup4\n        /* \"#utility.yul\":4130:4144   */\n      add\n        /* \"#utility.yul\":4228:4232   */\n      0x00\n        /* \"#utility.yul\":4221:4226   */\n      dup4\n        /* \"#utility.yul\":4217:4233   */\n      add\n        /* \"#utility.yul\":4211:4234   */\n      mload\n        /* \"#utility.yul\":4281:4284   */\n      dup5\n        /* \"#utility.yul\":4275:4279   */\n      dup3\n        /* \"#utility.yul\":4271:4285   */\n      sub\n        /* \"#utility.yul\":4264:4268   */\n      0x00\n        /* \"#utility.yul\":4259:4262   */\n      dup7\n        /* \"#utility.yul\":4255:4269   */\n      add\n        /* \"#utility.yul\":4248:4286   */\n      mstore\n        /* \"#utility.yul\":4307:4380   */\n      tag_283\n        /* \"#utility.yul\":4375:4379   */\n      dup3\n        /* \"#utility.yul\":4361:4373   */\n      dup3\n        /* \"#utility.yul\":4307:4380   */\n      tag_183\n      jump\t// in\n    tag_283:\n        /* \"#utility.yul\":4299:4380   */\n      swap2\n      pop\n        /* \"#utility.yul\":4154:4391   */\n      pop\n        /* \"#utility.yul\":4475:4479   */\n      0x20\n        /* \"#utility.yul\":4468:4473   */\n      dup4\n        /* \"#utility.yul\":4464:4480   */\n      add\n        /* \"#utility.yul\":4458:4481   */\n      mload\n        /* \"#utility.yul\":4494:4557   */\n      tag_284\n        /* \"#utility.yul\":4551:4555   */\n      0x20\n        /* \"#utility.yul\":4546:4549   */\n      dup7\n        /* \"#utility.yul\":4542:4556   */\n      add\n        /* \"#utility.yul\":4528:4540   */\n      dup3\n        /* \"#utility.yul\":4494:4557   */\n      tag_184\n      jump\t// in\n    tag_284:\n        /* \"#utility.yul\":4401:4567   */\n      pop\n        /* \"#utility.yul\":4655:4659   */\n      0x40\n        /* \"#utility.yul\":4648:4653   */\n      dup4\n        /* \"#utility.yul\":4644:4660   */\n      add\n        /* \"#utility.yul\":4638:4661   */\n      mload\n        /* \"#utility.yul\":4674:4737   */\n      tag_285\n        /* \"#utility.yul\":4731:4735   */\n      0x40\n        /* \"#utility.yul\":4726:4729   */\n      dup7\n        /* \"#utility.yul\":4722:4736   */\n      add\n        /* \"#utility.yul\":4708:4720   */\n      dup3\n        /* \"#utility.yul\":4674:4737   */\n      tag_185\n      jump\t// in\n    tag_285:\n        /* \"#utility.yul\":4577:4747   */\n      pop\n        /* \"#utility.yul\":4831:4835   */\n      0x60\n        /* \"#utility.yul\":4824:4829   */\n      dup4\n        /* \"#utility.yul\":4820:4836   */\n      add\n        /* \"#utility.yul\":4814:4837   */\n      mload\n        /* \"#utility.yul\":4884:4887   */\n      dup5\n        /* \"#utility.yul\":4878:4882   */\n      dup3\n        /* \"#utility.yul\":4874:4888   */\n      sub\n        /* \"#utility.yul\":4867:4871   */\n      0x60\n        /* \"#utility.yul\":4862:4865   */\n      dup7\n        /* \"#utility.yul\":4858:4872   */\n      add\n        /* \"#utility.yul\":4851:4889   */\n      mstore\n        /* \"#utility.yul\":4910:4983   */\n      tag_286\n        /* \"#utility.yul\":4978:4982   */\n      dup3\n        /* \"#utility.yul\":4964:4976   */\n      dup3\n        /* \"#utility.yul\":4910:4983   */\n      tag_183\n      jump\t// in\n    tag_286:\n        /* \"#utility.yul\":4902:4983   */\n      swap2\n      pop\n        /* \"#utility.yul\":4757:4994   */\n      pop\n        /* \"#utility.yul\":5079:5083   */\n      0x80\n        /* \"#utility.yul\":5072:5077   */\n      dup4\n        /* \"#utility.yul\":5068:5084   */\n      add\n        /* \"#utility.yul\":5062:5085   */\n      mload\n        /* \"#utility.yul\":5098:5155   */\n      tag_287\n        /* \"#utility.yul\":5149:5153   */\n      0x80\n        /* \"#utility.yul\":5144:5147   */\n      dup7\n        /* \"#utility.yul\":5140:5154   */\n      add\n        /* \"#utility.yul\":5126:5138   */\n      dup3\n        /* \"#utility.yul\":5098:5155   */\n      tag_186\n      jump\t// in\n    tag_287:\n        /* \"#utility.yul\":5004:5165   */\n      pop\n        /* \"#utility.yul\":5182:5186   */\n      dup1\n        /* \"#utility.yul\":5175:5186   */\n      swap2\n      pop\n        /* \"#utility.yul\":4108:5192   */\n      pop\n        /* \"#utility.yul\":3986:5192   */\n      swap3\n      swap2\n      pop\n      pop\n      jump\t// out\n        /* \"#utility.yul\":5198:5567   */\n    tag_35:\n        /* \"#utility.yul\":5339:5343   */\n      0x00\n        /* \"#utility.yul\":5377:5379   */\n      0x20\n        /* \"#utility.yul\":5366:5375   */\n      dup3\n        /* \"#utility.yul\":5362:5380   */\n      add\n        /* \"#utility.yul\":5354:5380   */\n      swap1\n      pop\n        /* \"#utility.yul\":5426:5435   */\n      dup2\n        /* \"#utility.yul\":5420:5424   */\n      dup2\n        /* \"#utility.yul\":5416:5436   */\n      sub\n        /* \"#utility.yul\":5412:5413   */\n      0x00\n        /* \"#utility.yul\":5401:5410   */\n      dup4\n        /* \"#utility.yul\":5397:5414   */\n      add\n        /* \"#utility.yul\":5390:5437   */\n      mstore\n        /* \"#utility.yul\":5454:5560   */\n      tag_289\n        /* \"#utility.yul\":5555:5559   */\n      dup2\n        /* \"#utility.yul\":5546:5552   */\n      dup5\n        /* \"#utility.yul\":5454:5560   */\n      tag_187\n      jump\t// in\n    tag_289:\n        /* \"#utility.yul\":5446:5560   */\n      swap1\n      pop\n        /* \"#utility.yul\":5198:5567   */\n      swap3\n      swap2\n      pop\n      pop\n      jump\t// out\n        /* \"#utility.yul\":5573:5690   */\n    tag_188:\n        /* \"#utility.yul\":5682:5683   */\n      0x00\n        /* \"#utility.yul\":5679:5680   */\n      dup1\n        /* \"#utility.yul\":5672:5684   */\n      revert\n        /* \"#utility.yul\":5696:5813   */\n    tag_189:\n        /* \"#utility.yul\":5805:5806   */\n      0x00\n        /* \"#utility.yul\":5802:5803   */\n      dup1\n        /* \"#utility.yul\":5795:5807   */\n      revert\n        /* \"#utility.yul\":5819:5999   */\n    tag_146:\n        /* \"#utility.yul\":5867:5944   */\n      0x4e487b7100000000000000000000000000000000000000000000000000000000\n        /* \"#utility.yul\":5864:5865   */\n      0x00\n        /* \"#utility.yul\":5857:5945   */\n      mstore\n        /* \"#utility.yul\":5964:5968   */\n      0x41\n        /* \"#utility.yul\":5961:5962   */\n      0x04\n        /* \"#utility.yul\":5954:5969   */\n      mstore\n        /* \"#utility.yul\":5988:5992   */\n      0x24\n        /* \"#utility.yul\":5985:5986   */\n      0x00\n        /* \"#utility.yul\":5978:5993   */\n      revert\n        /* \"#utility.yul\":6005:6286   */\n    tag_190:\n        /* \"#utility.yul\":6088:6115   */\n      tag_294\n        /* \"#utility.yul\":6110:6114   */\n      dup3\n        /* \"#utility.yul\":6088:6115   */\n      tag_182\n      jump\t// in\n    tag_294:\n        /* \"#utility.yul\":6080:6086   */\n      dup2\n        /* \"#utility.yul\":6076:6116   */\n      add\n        /* \"#utility.yul\":6218:6224   */\n      dup2\n        /* \"#utility.yul\":6206:6216   */\n      dup2\n        /* \"#utility.yul\":6203:6225   */\n      lt\n        /* \"#utility.yul\":6182:6200   */\n      0xffffffffffffffff\n        /* \"#utility.yul\":6170:6180   */\n      dup3\n        /* \"#utility.yul\":6167:6201   */\n      gt\n        /* \"#utility.yul\":6164:6226   */\n      or\n        /* \"#utility.yul\":6161:6249   */\n      iszero\n      tag_295\n      jumpi\n        /* \"#utility.yul\":6229:6247   */\n      tag_296\n      tag_146\n      jump\t// in\n    tag_296:\n        /* \"#utility.yul\":6161:6249   */\n    tag_295:\n        /* \"#utility.yul\":6269:6279   */\n      dup1\n        /* \"#utility.yul\":6265:6267   */\n      0x40\n        /* \"#utility.yul\":6258:6280   */\n      mstore\n        /* \"#utility.yul\":6048:6286   */\n      pop\n        /* \"#utility.yul\":6005:6286   */\n      pop\n      pop\n      jump\t// out\n        /* \"#utility.yul\":6292:6421   */\n    tag_191:\n        /* \"#utility.yul\":6326:6332   */\n      0x00\n        /* \"#utility.yul\":6353:6373   */\n      tag_298\n      tag_167\n      jump\t// in\n    tag_298:\n        /* \"#utility.yul\":6343:6373   */\n      swap1\n      pop\n        /* \"#utility.yul\":6382:6415   */\n      tag_299\n        /* \"#utility.yul\":6410:6414   */\n      dup3\n        /* \"#utility.yul\":6402:6408   */\n      dup3\n        /* \"#utility.yul\":6382:6415   */\n      tag_190\n      jump\t// in\n    tag_299:\n        /* \"#utility.yul\":6292:6421   */\n      swap2\n      swap1\n      pop\n      jump\t// out\n        /* \"#utility.yul\":6427:6735   */\n    tag_192:\n        /* \"#utility.yul\":6489:6493   */\n      0x00\n        /* \"#utility.yul\":6579:6597   */\n      0xffffffffffffffff\n        /* \"#utility.yul\":6571:6577   */\n      dup3\n        /* \"#utility.yul\":6568:6598   */\n      gt\n        /* \"#utility.yul\":6565:6621   */\n      iszero\n      tag_301\n      jumpi\n        /* \"#utility.yul\":6601:6619   */\n      tag_302\n      tag_146\n      jump\t// in\n    tag_302:\n        /* \"#utility.yul\":6565:6621   */\n    tag_301:\n        /* \"#utility.yul\":6639:6668   */\n      tag_303\n        /* \"#utility.yul\":6661:6667   */\n      dup3\n        /* \"#utility.yul\":6639:6668   */\n      tag_182\n      jump\t// in\n    tag_303:\n        /* \"#utility.yul\":6631:6668   */\n      swap1\n      pop\n        /* \"#utility.yul\":6723:6727   */\n      0x20\n        /* \"#utility.yul\":6717:6721   */\n      dup2\n        /* \"#utility.yul\":6713:6728   */\n      add\n        /* \"#utility.yul\":6705:6728   */\n      swap1\n      pop\n        /* \"#utility.yul\":6427:6735   */\n      swap2\n      swap1\n      pop\n      jump\t// out\n        /* \"#utility.yul\":6741:6887   */\n    tag_193:\n        /* \"#utility.yul\":6838:6844   */\n      dup3\n        /* \"#utility.yul\":6833:6836   */\n      dup2\n        /* \"#utility.yul\":6828:6831   */\n      dup4\n        /* \"#utility.yul\":6815:6845   */\n      calldatacopy\n        /* \"#utility.yul\":6879:6880   */\n      0x00\n        /* \"#utility.yul\":6870:6876   */\n      dup4\n        /* \"#utility.yul\":6865:6868   */\n      dup4\n        /* \"#utility.yul\":6861:6877   */\n      add\n        /* \"#utility.yul\":6854:6881   */\n      mstore\n        /* \"#utility.yul\":6741:6887   */\n      pop\n      pop\n      pop\n      jump\t// out\n        /* \"#utility.yul\":6893:7318   */\n    tag_194:\n        /* \"#utility.yul\":6971:6976   */\n      0x00\n        /* \"#utility.yul\":6996:7062   */\n      tag_306\n        /* \"#utility.yul\":7012:7061   */\n      tag_307\n        /* \"#utility.yul\":7054:7060   */\n      dup5\n        /* \"#utility.yul\":7012:7061   */\n      tag_192\n      jump\t// in\n    tag_307:\n        /* \"#utility.yul\":6996:7062   */\n      tag_191\n      jump\t// in\n    tag_306:\n        /* \"#utility.yul\":6987:7062   */\n      swap1\n      pop\n        /* \"#utility.yul\":7085:7091   */\n      dup3\n        /* \"#utility.yul\":7078:7083   */\n      dup2\n        /* \"#utility.yul\":7071:7092   */\n      mstore\n        /* \"#utility.yul\":7123:7127   */\n      0x20\n        /* \"#utility.yul\":7116:7121   */\n      dup2\n        /* \"#utility.yul\":7112:7128   */\n      add\n        /* \"#utility.yul\":7161:7164   */\n      dup5\n        /* \"#utility.yul\":7152:7158   */\n      dup5\n        /* \"#utility.yul\":7147:7150   */\n      dup5\n        /* \"#utility.yul\":7143:7159   */\n      add\n        /* \"#utility.yul\":7140:7165   */\n      gt\n        /* \"#utility.yul\":7137:7249   */\n      iszero\n      tag_308\n      jumpi\n        /* \"#utility.yul\":7168:7247   */\n      tag_309\n      tag_189\n      jump\t// in\n    tag_309:\n        /* \"#utility.yul\":7137:7249   */\n    tag_308:\n        /* \"#utility.yul\":7258:7312   */\n      tag_310\n        /* \"#utility.yul\":7305:7311   */\n      dup5\n        /* \"#utility.yul\":7300:7303   */\n      dup3\n        /* \"#utility.yul\":7295:7298   */\n      dup6\n        /* \"#utility.yul\":7258:7312   */\n      tag_193\n      jump\t// in\n    tag_310:\n        /* \"#utility.yul\":6977:7318   */\n      pop\n        /* \"#utility.yul\":6893:7318   */\n      swap4\n      swap3\n      pop\n      pop\n      pop\n      jump\t// out\n        /* \"#utility.yul\":7338:7678   */\n    tag_195:\n        /* \"#utility.yul\":7394:7399   */\n      0x00\n        /* \"#utility.yul\":7443:7446   */\n      dup3\n        /* \"#utility.yul\":7436:7440   */\n      0x1f\n        /* \"#utility.yul\":7428:7434   */\n      dup4\n        /* \"#utility.yul\":7424:7441   */\n      add\n        /* \"#utility.yul\":7420:7447   */\n      slt\n        /* \"#utility.yul\":7410:7532   */\n      tag_312\n      jumpi\n        /* \"#utility.yul\":7451:7530   */\n      tag_313\n      tag_188\n      jump\t// in\n    tag_313:\n        /* \"#utility.yul\":7410:7532   */\n    tag_312:\n        /* \"#utility.yul\":7568:7574   */\n      dup2\n        /* \"#utility.yul\":7555:7575   */\n      calldataload\n        /* \"#utility.yul\":7593:7672   */\n      tag_314\n        /* \"#utility.yul\":7668:7671   */\n      dup5\n        /* \"#utility.yul\":7660:7666   */\n      dup3\n        /* \"#utility.yul\":7653:7657   */\n      0x20\n        /* \"#utility.yul\":7645:7651   */\n      dup7\n        /* \"#utility.yul\":7641:7658   */\n      add\n        /* \"#utility.yul\":7593:7672   */\n      tag_194\n      jump\t// in\n    tag_314:\n        /* \"#utility.yul\":7584:7672   */\n      swap2\n      pop\n        /* \"#utility.yul\":7400:7678   */\n      pop\n        /* \"#utility.yul\":7338:7678   */\n      swap3\n      swap2\n      pop\n      pop\n      jump\t// out\n        /* \"#utility.yul\":7684:8518   */\n    tag_38:\n        /* \"#utility.yul\":7772:7778   */\n      0x00\n        /* \"#utility.yul\":7780:7786   */\n      dup1\n        /* \"#utility.yul\":7829:7831   */\n      0x40\n        /* \"#utility.yul\":7817:7826   */\n      dup4\n        /* \"#utility.yul\":7808:7815   */\n      dup6\n        /* \"#utility.yul\":7804:7827   */\n      sub\n        /* \"#utility.yul\":7800:7832   */\n      slt\n        /* \"#utility.yul\":7797:7916   */\n      iszero\n      tag_316\n      jumpi\n        /* \"#utility.yul\":7835:7914   */\n      tag_317\n      tag_168\n      jump\t// in\n    tag_317:\n        /* \"#utility.yul\":7797:7916   */\n    tag_316:\n        /* \"#utility.yul\":7983:7984   */\n      0x00\n        /* \"#utility.yul\":7972:7981   */\n      dup4\n        /* \"#utility.yul\":7968:7985   */\n      add\n        /* \"#utility.yul\":7955:7986   */\n      calldataload\n        /* \"#utility.yul\":8013:8031   */\n      0xffffffffffffffff\n        /* \"#utility.yul\":8005:8011   */\n      dup2\n        /* \"#utility.yul\":8002:8032   */\n      gt\n        /* \"#utility.yul\":7999:8116   */\n      iszero\n      tag_318\n      jumpi\n        /* \"#utility.yul\":8035:8114   */\n      tag_319\n      tag_169\n      jump\t// in\n    tag_319:\n        /* \"#utility.yul\":7999:8116   */\n    tag_318:\n        /* \"#utility.yul\":8140:8203   */\n      tag_320\n        /* \"#utility.yul\":8195:8202   */\n      dup6\n        /* \"#utility.yul\":8186:8192   */\n      dup3\n        /* \"#utility.yul\":8175:8184   */\n      dup7\n        /* \"#utility.yul\":8171:8193   */\n      add\n        /* \"#utility.yul\":8140:8203   */\n      tag_195\n      jump\t// in\n    tag_320:\n        /* \"#utility.yul\":8130:8203   */\n      swap3\n      pop\n        /* \"#utility.yul\":7926:8213   */\n      pop\n        /* \"#utility.yul\":8280:8282   */\n      0x20\n        /* \"#utility.yul\":8269:8278   */\n      dup4\n        /* \"#utility.yul\":8265:8283   */\n      add\n        /* \"#utility.yul\":8252:8284   */\n      calldataload\n        /* \"#utility.yul\":8311:8329   */\n      0xffffffffffffffff\n        /* \"#utility.yul\":8303:8309   */\n      dup2\n        /* \"#utility.yul\":8300:8330   */\n      gt\n        /* \"#utility.yul\":8297:8414   */\n      iszero\n      tag_321\n      jumpi\n        /* \"#utility.yul\":8333:8412   */\n      tag_322\n      tag_169\n      jump\t// in\n    tag_322:\n        /* \"#utility.yul\":8297:8414   */\n    tag_321:\n        /* \"#utility.yul\":8438:8501   */\n      tag_323\n        /* \"#utility.yul\":8493:8500   */\n      dup6\n        /* \"#utility.yul\":8484:8490   */\n      dup3\n        /* \"#utility.yul\":8473:8482   */\n      dup7\n        /* \"#utility.yul\":8469:8491   */\n      add\n        /* \"#utility.yul\":8438:8501   */\n      tag_195\n      jump\t// in\n    tag_323:\n        /* \"#utility.yul\":8428:8501   */\n      swap2\n      pop\n        /* \"#utility.yul\":8223:8511   */\n      pop\n        /* \"#utility.yul\":7684:8518   */\n      swap3\n      pop\n      swap3\n      swap1\n      pop\n      jump\t// out\n        /* \"#utility.yul\":8524:8642   */\n    tag_196:\n        /* \"#utility.yul\":8611:8635   */\n      tag_325\n        /* \"#utility.yul\":8629:8634   */\n      dup2\n        /* \"#utility.yul\":8611:8635   */\n      tag_176\n      jump\t// in\n    tag_325:\n        /* \"#utility.yul\":8606:8609   */\n      dup3\n        /* \"#utility.yul\":8599:8636   */\n      mstore\n        /* \"#utility.yul\":8524:8642   */\n      pop\n      pop\n      jump\t// out\n        /* \"#utility.yul\":8648:8870   */\n    tag_45:\n        /* \"#utility.yul\":8741:8745   */\n      0x00\n        /* \"#utility.yul\":8779:8781   */\n      0x20\n        /* \"#utility.yul\":8768:8777   */\n      dup3\n        /* \"#utility.yul\":8764:8782   */\n      add\n        /* \"#utility.yul\":8756:8782   */\n      swap1\n      pop\n        /* \"#utility.yul\":8792:8863   */\n      tag_327\n        /* \"#utility.yul\":8860:8861   */\n      0x00\n        /* \"#utility.yul\":8849:8858   */\n      dup4\n        /* \"#utility.yul\":8845:8862   */\n      add\n        /* \"#utility.yul\":8836:8842   */\n      dup5\n        /* \"#utility.yul\":8792:8863   */\n      tag_196\n      jump\t// in\n    tag_327:\n        /* \"#utility.yul\":8648:8870   */\n      swap3\n      swap2\n      pop\n      pop\n      jump\t// out\n        /* \"#utility.yul\":8876:9350   */\n    tag_48:\n        /* \"#utility.yul\":8944:8950   */\n      0x00\n        /* \"#utility.yul\":8952:8958   */\n      dup1\n        /* \"#utility.yul\":9001:9003   */\n      0x40\n        /* \"#utility.yul\":8989:8998   */\n      dup4\n        /* \"#utility.yul\":8980:8987   */\n      dup6\n        /* \"#utility.yul\":8976:8999   */\n      sub\n        /* \"#utility.yul\":8972:9004   */\n      slt\n        /* \"#utility.yul\":8969:9088   */\n      iszero\n      tag_329\n      jumpi\n        /* \"#utility.yul\":9007:9086   */\n      tag_330\n      tag_168\n      jump\t// in\n    tag_330:\n        /* \"#utility.yul\":8969:9088   */\n    tag_329:\n        /* \"#utility.yul\":9127:9128   */\n      0x00\n        /* \"#utility.yul\":9152:9205   */\n      tag_331\n        /* \"#utility.yul\":9197:9204   */\n      dup6\n        /* \"#utility.yul\":9188:9194   */\n      dup3\n        /* \"#utility.yul\":9177:9186   */\n      dup7\n        /* \"#utility.yul\":9173:9195   */\n      add\n        /* \"#utility.yul\":9152:9205   */\n      tag_173\n      jump\t// in\n    tag_331:\n        /* \"#utility.yul\":9142:9205   */\n      swap3\n      pop\n        /* \"#utility.yul\":9098:9215   */\n      pop\n        /* \"#utility.yul\":9254:9256   */\n      0x20\n        /* \"#utility.yul\":9280:9333   */\n      tag_332\n        /* \"#utility.yul\":9325:9332   */\n      dup6\n        /* \"#utility.yul\":9316:9322   */\n      dup3\n        /* \"#utility.yul\":9305:9314   */\n      dup7\n        /* \"#utility.yul\":9301:9323   */\n      add\n        /* \"#utility.yul\":9280:9333   */\n      tag_178\n      jump\t// in\n    tag_332:\n        /* \"#utility.yul\":9270:9333   */\n      swap2\n      pop\n        /* \"#utility.yul\":9225:9343   */\n      pop\n        /* \"#utility.yul\":8876:9350   */\n      swap3\n      pop\n      swap3\n      swap1\n      pop\n      jump\t// out\n        /* \"#utility.yul\":9356:9685   */\n    tag_53:\n        /* \"#utility.yul\":9415:9421   */\n      0x00\n        /* \"#utility.yul\":9464:9466   */\n      0x20\n        /* \"#utility.yul\":9452:9461   */\n      dup3\n        /* \"#utility.yul\":9443:9450   */\n      dup5\n        /* \"#utility.yul\":9439:9462   */\n      sub\n        /* \"#utility.yul\":9435:9467   */\n      slt\n        /* \"#utility.yul\":9432:9551   */\n      iszero\n      tag_334\n      jumpi\n        /* \"#utility.yul\":9470:9549   */\n      tag_335\n      tag_168\n      jump\t// in\n    tag_335:\n        /* \"#utility.yul\":9432:9551   */\n    tag_334:\n        /* \"#utility.yul\":9590:9591   */\n      0x00\n        /* \"#utility.yul\":9615:9668   */\n      tag_336\n        /* \"#utility.yul\":9660:9667   */\n      dup5\n        /* \"#utility.yul\":9651:9657   */\n      dup3\n        /* \"#utility.yul\":9640:9649   */\n      dup6\n        /* \"#utility.yul\":9636:9658   */\n      add\n        /* \"#utility.yul\":9615:9668   */\n      tag_178\n      jump\t// in\n    tag_336:\n        /* \"#utility.yul\":9605:9668   */\n      swap2\n      pop\n        /* \"#utility.yul\":9561:9678   */\n      pop\n        /* \"#utility.yul\":9356:9685   */\n      swap3\n      swap2\n      pop\n      pop\n      jump\t// out\n        /* \"#utility.yul\":9691:9871   */\n    tag_197:\n        /* \"#utility.yul\":9739:9816   */\n      0x4e487b7100000000000000000000000000000000000000000000000000000000\n        /* \"#utility.yul\":9736:9737   */\n      0x00\n        /* \"#utility.yul\":9729:9817   */\n      mstore\n        /* \"#utility.yul\":9836:9840   */\n      0x22\n        /* \"#utility.yul\":9833:9834   */\n      0x04\n        /* \"#utility.yul\":9826:9841   */\n      mstore\n        /* \"#utility.yul\":9860:9864   */\n      0x24\n        /* \"#utility.yul\":9857:9858   */\n      0x00\n        /* \"#utility.yul\":9850:9865   */\n      revert\n        /* \"#utility.yul\":9877:10197   */\n    tag_63:\n        /* \"#utility.yul\":9921:9927   */\n      0x00\n        /* \"#utility.yul\":9958:9959   */\n      0x02\n        /* \"#utility.yul\":9952:9956   */\n      dup3\n        /* \"#utility.yul\":9948:9960   */\n      div\n        /* \"#utility.yul\":9938:9960   */\n      swap1\n      pop\n        /* \"#utility.yul\":10005:10006   */\n      0x01\n        /* \"#utility.yul\":9999:10003   */\n      dup3\n        /* \"#utility.yul\":9995:10007   */\n      and\n        /* \"#utility.yul\":10026:10044   */\n      dup1\n        /* \"#utility.yul\":10016:10097   */\n      tag_339\n      jumpi\n        /* \"#utility.yul\":10082:10086   */\n      0x7f\n        /* \"#utility.yul\":10074:10080   */\n      dup3\n        /* \"#utility.yul\":10070:10087   */\n      and\n        /* \"#utility.yul\":10060:10087   */\n      swap2\n      pop\n        /* \"#utility.yul\":10016:10097   */\n    tag_339:\n        /* \"#utility.yul\":10144:10146   */\n      0x20\n        /* \"#utility.yul\":10136:10142   */\n      dup3\n        /* \"#utility.yul\":10133:10147   */\n      lt\n        /* \"#utility.yul\":10113:10131   */\n      dup2\n        /* \"#utility.yul\":10110:10148   */\n      sub\n        /* \"#utility.yul\":10107:10191   */\n      tag_340\n      jumpi\n        /* \"#utility.yul\":10163:10181   */\n      tag_341\n      tag_197\n      jump\t// in\n    tag_341:\n        /* \"#utility.yul\":10107:10191   */\n    tag_340:\n        /* \"#utility.yul\":9928:10197   */\n      pop\n        /* \"#utility.yul\":9877:10197   */\n      swap2\n      swap1\n      pop\n      jump\t// out\n        /* \"#utility.yul\":10203:10351   */\n    tag_198:\n        /* \"#utility.yul\":10305:10316   */\n      0x00\n        /* \"#utility.yul\":10342:10345   */\n      dup2\n        /* \"#utility.yul\":10327:10345   */\n      swap1\n      pop\n        /* \"#utility.yul\":10203:10351   */\n      swap3\n      swap2\n      pop\n      pop\n      jump\t// out\n        /* \"#utility.yul\":10357:10498   */\n    tag_199:\n        /* \"#utility.yul\":10406:10410   */\n      0x00\n        /* \"#utility.yul\":10429:10432   */\n      dup2\n        /* \"#utility.yul\":10421:10432   */\n      swap1\n      pop\n        /* \"#utility.yul\":10452:10455   */\n      dup2\n        /* \"#utility.yul\":10449:10450   */\n      0x00\n        /* \"#utility.yul\":10442:10456   */\n      mstore\n        /* \"#utility.yul\":10486:10490   */\n      0x20\n        /* \"#utility.yul\":10483:10484   */\n      0x00\n        /* \"#utility.yul\":10473:10491   */\n      keccak256\n        /* \"#utility.yul\":10465:10491   */\n      swap1\n      pop\n        /* \"#utility.yul\":10357:10498   */\n      swap2\n      swap1\n      pop\n      jump\t// out\n        /* \"#utility.yul\":10528:11402   */\n    tag_200:\n        /* \"#utility.yul\":10631:10634   */\n      0x00\n        /* \"#utility.yul\":10668:10673   */\n      dup2\n        /* \"#utility.yul\":10662:10674   */\n      sload\n        /* \"#utility.yul\":10697:10733   */\n      tag_345\n        /* \"#utility.yul\":10723:10732   */\n      dup2\n        /* \"#utility.yul\":10697:10733   */\n      tag_63\n      jump\t// in\n    tag_345:\n        /* \"#utility.yul\":10749:10838   */\n      tag_346\n        /* \"#utility.yul\":10831:10837   */\n      dup2\n        /* \"#utility.yul\":10826:10829   */\n      dup7\n        /* \"#utility.yul\":10749:10838   */\n      tag_198\n      jump\t// in\n    tag_346:\n        /* \"#utility.yul\":10742:10838   */\n      swap5\n      pop\n        /* \"#utility.yul\":10869:10870   */\n      0x01\n        /* \"#utility.yul\":10858:10867   */\n      dup3\n        /* \"#utility.yul\":10854:10871   */\n      and\n        /* \"#utility.yul\":10885:10886   */\n      0x00\n        /* \"#utility.yul\":10880:11046   */\n      dup2\n      eq\n      tag_348\n      jumpi\n        /* \"#utility.yul\":11060:11061   */\n      0x01\n        /* \"#utility.yul\":11055:11396   */\n      dup2\n      eq\n      tag_349\n      jumpi\n        /* \"#utility.yul\":10847:11396   */\n      jump(tag_347)\n        /* \"#utility.yul\":10880:11046   */\n    tag_348:\n        /* \"#utility.yul\":10964:10968   */\n      0xff\n        /* \"#utility.yul\":10960:10969   */\n      not\n        /* \"#utility.yul\":10949:10958   */\n      dup4\n        /* \"#utility.yul\":10945:10970   */\n      and\n        /* \"#utility.yul\":10940:10943   */\n      dup7\n        /* \"#utility.yul\":10933:10971   */\n      mstore\n        /* \"#utility.yul\":11026:11032   */\n      dup2\n        /* \"#utility.yul\":11019:11033   */\n      iszero\n        /* \"#utility.yul\":11012:11034   */\n      iszero\n        /* \"#utility.yul\":11004:11010   */\n      dup3\n        /* \"#utility.yul\":11000:11035   */\n      mul\n        /* \"#utility.yul\":10995:10998   */\n      dup7\n        /* \"#utility.yul\":10991:11036   */\n      add\n        /* \"#utility.yul\":10984:11036   */\n      swap4\n      pop\n        /* \"#utility.yul\":10880:11046   */\n      jump(tag_347)\n        /* \"#utility.yul\":11055:11396   */\n    tag_349:\n        /* \"#utility.yul\":11122:11160   */\n      tag_350\n        /* \"#utility.yul\":11154:11159   */\n      dup6\n        /* \"#utility.yul\":11122:11160   */\n      tag_199\n      jump\t// in\n    tag_350:\n        /* \"#utility.yul\":11182:11183   */\n      0x00\n        /* \"#utility.yul\":11196:11350   */\n    tag_351:\n        /* \"#utility.yul\":11210:11216   */\n      dup4\n        /* \"#utility.yul\":11207:11208   */\n      dup2\n        /* \"#utility.yul\":11204:11217   */\n      lt\n        /* \"#utility.yul\":11196:11350   */\n      iszero\n      tag_353\n      jumpi\n        /* \"#utility.yul\":11284:11291   */\n      dup2\n        /* \"#utility.yul\":11278:11292   */\n      sload\n        /* \"#utility.yul\":11274:11275   */\n      dup2\n        /* \"#utility.yul\":11269:11272   */\n      dup10\n        /* \"#utility.yul\":11265:11276   */\n      add\n        /* \"#utility.yul\":11258:11293   */\n      mstore\n        /* \"#utility.yul\":11334:11335   */\n      0x01\n        /* \"#utility.yul\":11325:11332   */\n      dup3\n        /* \"#utility.yul\":11321:11336   */\n      add\n        /* \"#utility.yul\":11310:11336   */\n      swap2\n      pop\n        /* \"#utility.yul\":11232:11236   */\n      0x20\n        /* \"#utility.yul\":11229:11230   */\n      dup2\n        /* \"#utility.yul\":11225:11237   */\n      add\n        /* \"#utility.yul\":11220:11237   */\n      swap1\n      pop\n        /* \"#utility.yul\":11196:11350   */\n      jump(tag_351)\n    tag_353:\n        /* \"#utility.yul\":11379:11385   */\n      dup4\n        /* \"#utility.yul\":11374:11377   */\n      dup9\n        /* \"#utility.yul\":11370:11386   */\n      add\n        /* \"#utility.yul\":11363:11386   */\n      swap6\n      pop\n        /* \"#utility.yul\":11062:11396   */\n      pop\n      pop\n        /* \"#utility.yul\":10847:11396   */\n    tag_347:\n      pop\n        /* \"#utility.yul\":10635:11402   */\n      pop\n      pop\n        /* \"#utility.yul\":10528:11402   */\n      swap3\n      swap2\n      pop\n      pop\n      jump\t// out\n        /* \"#utility.yul\":11408:11677   */\n    tag_58:\n        /* \"#utility.yul\":11537:11540   */\n      0x00\n        /* \"#utility.yul\":11559:11651   */\n      tag_355\n        /* \"#utility.yul\":11647:11650   */\n      dup3\n        /* \"#utility.yul\":11638:11644   */\n      dup5\n        /* \"#utility.yul\":11559:11651   */\n      tag_200\n      jump\t// in\n    tag_355:\n        /* \"#utility.yul\":11552:11651   */\n      swap2\n      pop\n        /* \"#utility.yul\":11668:11671   */\n      dup2\n        /* \"#utility.yul\":11661:11671   */\n      swap1\n      pop\n        /* \"#utility.yul\":11408:11677   */\n      swap3\n      swap2\n      pop\n      pop\n      jump\t// out\n        /* \"#utility.yul\":11683:12073   */\n    tag_201:\n        /* \"#utility.yul\":11789:11792   */\n      0x00\n        /* \"#utility.yul\":11817:11856   */\n      tag_357\n        /* \"#utility.yul\":11850:11855   */\n      dup3\n        /* \"#utility.yul\":11817:11856   */\n      tag_179\n      jump\t// in\n    tag_357:\n        /* \"#utility.yul\":11872:11961   */\n      tag_358\n        /* \"#utility.yul\":11954:11960   */\n      dup2\n        /* \"#utility.yul\":11949:11952   */\n      dup6\n        /* \"#utility.yul\":11872:11961   */\n      tag_198\n      jump\t// in\n    tag_358:\n        /* \"#utility.yul\":11865:11961   */\n      swap4\n      pop\n        /* \"#utility.yul\":11970:12035   */\n      tag_359\n        /* \"#utility.yul\":12028:12034   */\n      dup2\n        /* \"#utility.yul\":12023:12026   */\n      dup6\n        /* \"#utility.yul\":12016:12020   */\n      0x20\n        /* \"#utility.yul\":12009:12014   */\n      dup7\n        /* \"#utility.yul\":12005:12021   */\n      add\n        /* \"#utility.yul\":11970:12035   */\n      tag_181\n      jump\t// in\n    tag_359:\n        /* \"#utility.yul\":12060:12066   */\n      dup1\n        /* \"#utility.yul\":12055:12058   */\n      dup5\n        /* \"#utility.yul\":12051:12067   */\n      add\n        /* \"#utility.yul\":12044:12067   */\n      swap2\n      pop\n        /* \"#utility.yul\":11793:12073   */\n      pop\n        /* \"#utility.yul\":11683:12073   */\n      swap3\n      swap2\n      pop\n      pop\n      jump\t// out\n        /* \"#utility.yul\":12079:12354   */\n    tag_69:\n        /* \"#utility.yul\":12211:12214   */\n      0x00\n        /* \"#utility.yul\":12233:12328   */\n      tag_361\n        /* \"#utility.yul\":12324:12327   */\n      dup3\n        /* \"#utility.yul\":12315:12321   */\n      dup5\n        /* \"#utility.yul\":12233:12328   */\n      tag_201\n      jump\t// in\n    tag_361:\n        /* \"#utility.yul\":12226:12328   */\n      swap2\n      pop\n        /* \"#utility.yul\":12345:12348   */\n      dup2\n        /* \"#utility.yul\":12338:12348   */\n      swap1\n      pop\n        /* \"#utility.yul\":12079:12354   */\n      swap3\n      swap2\n      pop\n      pop\n      jump\t// out\n        /* \"#utility.yul\":12360:12529   */\n    tag_202:\n        /* \"#utility.yul\":12444:12455   */\n      0x00\n        /* \"#utility.yul\":12478:12484   */\n      dup3\n        /* \"#utility.yul\":12473:12476   */\n      dup3\n        /* \"#utility.yul\":12466:12485   */\n      mstore\n        /* \"#utility.yul\":12518:12522   */\n      0x20\n        /* \"#utility.yul\":12513:12516   */\n      dup3\n        /* \"#utility.yul\":12509:12523   */\n      add\n        /* \"#utility.yul\":12494:12523   */\n      swap1\n      pop\n        /* \"#utility.yul\":12360:12529   */\n      swap3\n      swap2\n      pop\n      pop\n      jump\t// out\n        /* \"#utility.yul\":12535:12716   */\n    tag_203:\n        /* \"#utility.yul\":12675:12708   */\n      0x616464726573732063616e27742062652061207a65726f206164647265737300\n        /* \"#utility.yul\":12671:12672   */\n      0x00\n        /* \"#utility.yul\":12663:12669   */\n      dup3\n        /* \"#utility.yul\":12659:12673   */\n      add\n        /* \"#utility.yul\":12652:12709   */\n      mstore\n        /* \"#utility.yul\":12535:12716   */\n      pop\n      jump\t// out\n        /* \"#utility.yul\":12722:13088   */\n    tag_204:\n        /* \"#utility.yul\":12864:12867   */\n      0x00\n        /* \"#utility.yul\":12885:12952   */\n      tag_365\n        /* \"#utility.yul\":12949:12951   */\n      0x1f\n        /* \"#utility.yul\":12944:12947   */\n      dup4\n        /* \"#utility.yul\":12885:12952   */\n      tag_202\n      jump\t// in\n    tag_365:\n        /* \"#utility.yul\":12878:12952   */\n      swap2\n      pop\n        /* \"#utility.yul\":12961:13054   */\n      tag_366\n        /* \"#utility.yul\":13050:13053   */\n      dup3\n        /* \"#utility.yul\":12961:13054   */\n      tag_203\n      jump\t// in\n    tag_366:\n        /* \"#utility.yul\":13079:13081   */\n      0x20\n        /* \"#utility.yul\":13074:13077   */\n      dup3\n        /* \"#utility.yul\":13070:13082   */\n      add\n        /* \"#utility.yul\":13063:13082   */\n      swap1\n      pop\n        /* \"#utility.yul\":12722:13088   */\n      swap2\n      swap1\n      pop\n      jump\t// out\n        /* \"#utility.yul\":13094:13513   */\n    tag_73:\n        /* \"#utility.yul\":13260:13264   */\n      0x00\n        /* \"#utility.yul\":13298:13300   */\n      0x20\n        /* \"#utility.yul\":13287:13296   */\n      dup3\n        /* \"#utility.yul\":13283:13301   */\n      add\n        /* \"#utility.yul\":13275:13301   */\n      swap1\n      pop\n        /* \"#utility.yul\":13347:13356   */\n      dup2\n        /* \"#utility.yul\":13341:13345   */\n      dup2\n        /* \"#utility.yul\":13337:13357   */\n      sub\n        /* \"#utility.yul\":13333:13334   */\n      0x00\n        /* \"#utility.yul\":13322:13331   */\n      dup4\n        /* \"#utility.yul\":13318:13335   */\n      add\n        /* \"#utility.yul\":13311:13358   */\n      mstore\n        /* \"#utility.yul\":13375:13506   */\n      tag_368\n        /* \"#utility.yul\":13501:13505   */\n      dup2\n        /* \"#utility.yul\":13375:13506   */\n      tag_204\n      jump\t// in\n    tag_368:\n        /* \"#utility.yul\":13367:13506   */\n      swap1\n      pop\n        /* \"#utility.yul\":13094:13513   */\n      swap2\n      swap1\n      pop\n      jump\t// out\n        /* \"#utility.yul\":13519:13693   */\n    tag_205:\n        /* \"#utility.yul\":13659:13685   */\n      0x7468652061646472657373206861766e277420626f756e640000000000000000\n        /* \"#utility.yul\":13655:13656   */\n      0x00\n        /* \"#utility.yul\":13647:13653   */\n      dup3\n        /* \"#utility.yul\":13643:13657   */\n      add\n        /* \"#utility.yul\":13636:13686   */\n      mstore\n        /* \"#utility.yul\":13519:13693   */\n      pop\n      jump\t// out\n        /* \"#utility.yul\":13699:14065   */\n    tag_206:\n        /* \"#utility.yul\":13841:13844   */\n      0x00\n        /* \"#utility.yul\":13862:13929   */\n      tag_371\n        /* \"#utility.yul\":13926:13928   */\n      0x18\n        /* \"#utility.yul\":13921:13924   */\n      dup4\n        /* \"#utility.yul\":13862:13929   */\n      tag_202\n      jump\t// in\n    tag_371:\n        /* \"#utility.yul\":13855:13929   */\n      swap2\n      pop\n        /* \"#utility.yul\":13938:14031   */\n      tag_372\n        /* \"#utility.yul\":14027:14030   */\n      dup3\n        /* \"#utility.yul\":13938:14031   */\n      tag_205\n      jump\t// in\n    tag_372:\n        /* \"#utility.yul\":14056:14058   */\n      0x20\n        /* \"#utility.yul\":14051:14054   */\n      dup3\n        /* \"#utility.yul\":14047:14059   */\n      add\n        /* \"#utility.yul\":14040:14059   */\n      swap1\n      pop\n        /* \"#utility.yul\":13699:14065   */\n      swap2\n      swap1\n      pop\n      jump\t// out\n        /* \"#utility.yul\":14071:14490   */\n    tag_83:\n        /* \"#utility.yul\":14237:14241   */\n      0x00\n        /* \"#utility.yul\":14275:14277   */\n      0x20\n        /* \"#utility.yul\":14264:14273   */\n      dup3\n        /* \"#utility.yul\":14260:14278   */\n      add\n        /* \"#utility.yul\":14252:14278   */\n      swap1\n      pop\n        /* \"#utility.yul\":14324:14333   */\n      dup2\n        /* \"#utility.yul\":14318:14322   */\n      dup2\n        /* \"#utility.yul\":14314:14334   */\n      sub\n        /* \"#utility.yul\":14310:14311   */\n      0x00\n        /* \"#utility.yul\":14299:14308   */\n      dup4\n        /* \"#utility.yul\":14295:14312   */\n      add\n        /* \"#utility.yul\":14288:14335   */\n      mstore\n        /* \"#utility.yul\":14352:14483   */\n      tag_374\n        /* \"#utility.yul\":14478:14482   */\n      dup2\n        /* \"#utility.yul\":14352:14483   */\n      tag_206\n      jump\t// in\n    tag_374:\n        /* \"#utility.yul\":14344:14483   */\n      swap1\n      pop\n        /* \"#utility.yul\":14071:14490   */\n      swap2\n      swap1\n      pop\n      jump\t// out\n        /* \"#utility.yul\":14496:14663   */\n    tag_207:\n        /* \"#utility.yul\":14636:14655   */\n      0x494420697320626c61636b6c6973746564000000000000000000000000000000\n        /* \"#utility.yul\":14632:14633   */\n      0x00\n        /* \"#utility.yul\":14624:14630   */\n      dup3\n        /* \"#utility.yul\":14620:14634   */\n      add\n        /* \"#utility.yul\":14613:14656   */\n      mstore\n        /* \"#utility.yul\":14496:14663   */\n      pop\n      jump\t// out\n        /* \"#utility.yul\":14669:15035   */\n    tag_208:\n        /* \"#utility.yul\":14811:14814   */\n      0x00\n        /* \"#utility.yul\":14832:14899   */\n      tag_377\n        /* \"#utility.yul\":14896:14898   */\n      0x11\n        /* \"#utility.yul\":14891:14894   */\n      dup4\n        /* \"#utility.yul\":14832:14899   */\n      tag_202\n      jump\t// in\n    tag_377:\n        /* \"#utility.yul\":14825:14899   */\n      swap2\n      pop\n        /* \"#utility.yul\":14908:15001   */\n      tag_378\n        /* \"#utility.yul\":14997:15000   */\n      dup3\n        /* \"#utility.yul\":14908:15001   */\n      tag_207\n      jump\t// in\n    tag_378:\n        /* \"#utility.yul\":15026:15028   */\n      0x20\n        /* \"#utility.yul\":15021:15024   */\n      dup3\n        /* \"#utility.yul\":15017:15029   */\n      add\n        /* \"#utility.yul\":15010:15029   */\n      swap1\n      pop\n        /* \"#utility.yul\":14669:15035   */\n      swap2\n      swap1\n      pop\n      jump\t// out\n        /* \"#utility.yul\":15041:15460   */\n    tag_100:\n        /* \"#utility.yul\":15207:15211   */\n      0x00\n        /* \"#utility.yul\":15245:15247   */\n      0x20\n        /* \"#utility.yul\":15234:15243   */\n      dup3\n        /* \"#utility.yul\":15230:15248   */\n      add\n        /* \"#utility.yul\":15222:15248   */\n      swap1\n      pop\n        /* \"#utility.yul\":15294:15303   */\n      dup2\n        /* \"#utility.yul\":15288:15292   */\n      dup2\n        /* \"#utility.yul\":15284:15304   */\n      sub\n        /* \"#utility.yul\":15280:15281   */\n      0x00\n        /* \"#utility.yul\":15269:15278   */\n      dup4\n        /* \"#utility.yul\":15265:15282   */\n      add\n        /* \"#utility.yul\":15258:15305   */\n      mstore\n        /* \"#utility.yul\":15322:15453   */\n      tag_380\n        /* \"#utility.yul\":15448:15452   */\n      dup2\n        /* \"#utility.yul\":15322:15453   */\n      tag_208\n      jump\t// in\n    tag_380:\n        /* \"#utility.yul\":15314:15453   */\n      swap1\n      pop\n        /* \"#utility.yul\":15041:15460   */\n      swap2\n      swap1\n      pop\n      jump\t// out\n        /* \"#utility.yul\":15466:15637   */\n    tag_209:\n        /* \"#utility.yul\":15606:15629   */\n      0x4164647265737320616c726561647920626f756e640000000000000000000000\n        /* \"#utility.yul\":15602:15603   */\n      0x00\n        /* \"#utility.yul\":15594:15600   */\n      dup3\n        /* \"#utility.yul\":15590:15604   */\n      add\n        /* \"#utility.yul\":15583:15630   */\n      mstore\n        /* \"#utility.yul\":15466:15637   */\n      pop\n      jump\t// out\n        /* \"#utility.yul\":15643:16009   */\n    tag_210:\n        /* \"#utility.yul\":15785:15788   */\n      0x00\n        /* \"#utility.yul\":15806:15873   */\n      tag_383\n        /* \"#utility.yul\":15870:15872   */\n      0x15\n        /* \"#utility.yul\":15865:15868   */\n      dup4\n        /* \"#utility.yul\":15806:15873   */\n      tag_202\n      jump\t// in\n    tag_383:\n        /* \"#utility.yul\":15799:15873   */\n      swap2\n      pop\n        /* \"#utility.yul\":15882:15975   */\n      tag_384\n        /* \"#utility.yul\":15971:15974   */\n      dup3\n        /* \"#utility.yul\":15882:15975   */\n      tag_209\n      jump\t// in\n    tag_384:\n        /* \"#utility.yul\":16000:16002   */\n      0x20\n        /* \"#utility.yul\":15995:15998   */\n      dup3\n        /* \"#utility.yul\":15991:16003   */\n      add\n        /* \"#utility.yul\":15984:16003   */\n      swap1\n      pop\n        /* \"#utility.yul\":15643:16009   */\n      swap2\n      swap1\n      pop\n      jump\t// out\n        /* \"#utility.yul\":16015:16434   */\n    tag_103:\n        /* \"#utility.yul\":16181:16185   */\n      0x00\n        /* \"#utility.yul\":16219:16221   */\n      0x20\n        /* \"#utility.yul\":16208:16217   */\n      dup3\n        /* \"#utility.yul\":16204:16222   */\n      add\n        /* \"#utility.yul\":16196:16222   */\n      swap1\n      pop\n        /* \"#utility.yul\":16268:16277   */\n      dup2\n        /* \"#utility.yul\":16262:16266   */\n      dup2\n        /* \"#utility.yul\":16258:16278   */\n      sub\n        /* \"#utility.yul\":16254:16255   */\n      0x00\n        /* \"#utility.yul\":16243:16252   */\n      dup4\n        /* \"#utility.yul\":16239:16256   */\n      add\n        /* \"#utility.yul\":16232:16279   */\n      mstore\n        /* \"#utility.yul\":16296:16427   */\n      tag_386\n        /* \"#utility.yul\":16422:16426   */\n      dup2\n        /* \"#utility.yul\":16296:16427   */\n      tag_210\n      jump\t// in\n    tag_386:\n        /* \"#utility.yul\":16288:16427   */\n      swap1\n      pop\n        /* \"#utility.yul\":16015:16434   */\n      swap2\n      swap1\n      pop\n      jump\t// out\n        /* \"#utility.yul\":16440:16606   */\n    tag_211:\n        /* \"#utility.yul\":16580:16598   */\n      0x494420616c726561647920626f756e6400000000000000000000000000000000\n        /* \"#utility.yul\":16576:16577   */\n      0x00\n        /* \"#utility.yul\":16568:16574   */\n      dup3\n        /* \"#utility.yul\":16564:16578   */\n      add\n        /* \"#utility.yul\":16557:16599   */\n      mstore\n        /* \"#utility.yul\":16440:16606   */\n      pop\n      jump\t// out\n        /* \"#utility.yul\":16612:16978   */\n    tag_212:\n        /* \"#utility.yul\":16754:16757   */\n      0x00\n        /* \"#utility.yul\":16775:16842   */\n      tag_389\n        /* \"#utility.yul\":16839:16841   */\n      0x10\n        /* \"#utility.yul\":16834:16837   */\n      dup4\n        /* \"#utility.yul\":16775:16842   */\n      tag_202\n      jump\t// in\n    tag_389:\n        /* \"#utility.yul\":16768:16842   */\n      swap2\n      pop\n        /* \"#utility.yul\":16851:16944   */\n      tag_390\n        /* \"#utility.yul\":16940:16943   */\n      dup3\n        /* \"#utility.yul\":16851:16944   */\n      tag_211\n      jump\t// in\n    tag_390:\n        /* \"#utility.yul\":16969:16971   */\n      0x20\n        /* \"#utility.yul\":16964:16967   */\n      dup3\n        /* \"#utility.yul\":16960:16972   */\n      add\n        /* \"#utility.yul\":16953:16972   */\n      swap1\n      pop\n        /* \"#utility.yul\":16612:16978   */\n      swap2\n      swap1\n      pop\n      jump\t// out\n        /* \"#utility.yul\":16984:17403   */\n    tag_107:\n        /* \"#utility.yul\":17150:17154   */\n      0x00\n        /* \"#utility.yul\":17188:17190   */\n      0x20\n        /* \"#utility.yul\":17177:17186   */\n      dup3\n        /* \"#utility.yul\":17173:17191   */\n      add\n        /* \"#utility.yul\":17165:17191   */\n      swap1\n      pop\n        /* \"#utility.yul\":17237:17246   */\n      dup2\n        /* \"#utility.yul\":17231:17235   */\n      dup2\n        /* \"#utility.yul\":17227:17247   */\n      sub\n        /* \"#utility.yul\":17223:17224   */\n      0x00\n        /* \"#utility.yul\":17212:17221   */\n      dup4\n        /* \"#utility.yul\":17208:17225   */\n      add\n        /* \"#utility.yul\":17201:17248   */\n      mstore\n        /* \"#utility.yul\":17265:17396   */\n      tag_392\n        /* \"#utility.yul\":17391:17395   */\n      dup2\n        /* \"#utility.yul\":17265:17396   */\n      tag_212\n      jump\t// in\n    tag_392:\n        /* \"#utility.yul\":17257:17396   */\n      swap1\n      pop\n        /* \"#utility.yul\":16984:17403   */\n      swap2\n      swap1\n      pop\n      jump\t// out\n        /* \"#utility.yul\":17409:17502   */\n    tag_213:\n        /* \"#utility.yul\":17446:17452   */\n      0x00\n        /* \"#utility.yul\":17493:17495   */\n      0x20\n        /* \"#utility.yul\":17488:17490   */\n      0x1f\n        /* \"#utility.yul\":17481:17486   */\n      dup4\n        /* \"#utility.yul\":17477:17491   */\n      add\n        /* \"#utility.yul\":17473:17496   */\n      div\n        /* \"#utility.yul\":17463:17496   */\n      swap1\n      pop\n        /* \"#utility.yul\":17409:17502   */\n      swap2\n      swap1\n      pop\n      jump\t// out\n        /* \"#utility.yul\":17508:17615   */\n    tag_214:\n        /* \"#utility.yul\":17552:17560   */\n      0x00\n        /* \"#utility.yul\":17602:17607   */\n      dup3\n        /* \"#utility.yul\":17596:17600   */\n      dup3\n        /* \"#utility.yul\":17592:17608   */\n      shl\n        /* \"#utility.yul\":17571:17608   */\n      swap1\n      pop\n        /* \"#utility.yul\":17508:17615   */\n      swap3\n      swap2\n      pop\n      pop\n      jump\t// out\n        /* \"#utility.yul\":17621:18014   */\n    tag_215:\n        /* \"#utility.yul\":17690:17696   */\n      0x00\n        /* \"#utility.yul\":17740:17741   */\n      0x08\n        /* \"#utility.yul\":17728:17738   */\n      dup4\n        /* \"#utility.yul\":17724:17742   */\n      mul\n        /* \"#utility.yul\":17763:17860   */\n      tag_396\n        /* \"#utility.yul\":17793:17859   */\n      0xffffffffffffffffffffffffffffffffffffffffffffffffffffffffffffffff\n        /* \"#utility.yul\":17782:17791   */\n      dup3\n        /* \"#utility.yul\":17763:17860   */\n      tag_214\n      jump\t// in\n    tag_396:\n        /* \"#utility.yul\":17881:17920   */\n      tag_397\n        /* \"#utility.yul\":17911:17919   */\n      dup7\n        /* \"#utility.yul\":17900:17909   */\n      dup4\n        /* \"#utility.yul\":17881:17920   */\n      tag_214\n      jump\t// in\n    tag_397:\n        /* \"#utility.yul\":17869:17920   */\n      swap6\n      pop\n        /* \"#utility.yul\":17953:17957   */\n      dup1\n        /* \"#utility.yul\":17949:17958   */\n      not\n        /* \"#utility.yul\":17942:17947   */\n      dup5\n        /* \"#utility.yul\":17938:17959   */\n      and\n        /* \"#utility.yul\":17929:17959   */\n      swap4\n      pop\n        /* \"#utility.yul\":18002:18006   */\n      dup1\n        /* \"#utility.yul\":17992:18000   */\n      dup7\n        /* \"#utility.yul\":17988:18007   */\n      and\n        /* \"#utility.yul\":17981:17986   */\n      dup5\n        /* \"#utility.yul\":17978:18008   */\n      or\n        /* \"#utility.yul\":17968:18008   */\n      swap3\n      pop\n        /* \"#utility.yul\":17697:18014   */\n      pop\n      pop\n        /* \"#utility.yul\":17621:18014   */\n      swap4\n      swap3\n      pop\n      pop\n      pop\n      jump\t// out\n        /* \"#utility.yul\":18020:18080   */\n    tag_216:\n        /* \"#utility.yul\":18048:18051   */\n      0x00\n        /* \"#utility.yul\":18069:18074   */\n      dup2\n        /* \"#utility.yul\":18062:18074   */\n      swap1\n      pop\n        /* \"#utility.yul\":18020:18080   */\n      swap2\n      swap1\n      pop\n      jump\t// out\n        /* \"#utility.yul\":18086:18228   */\n    tag_217:\n        /* \"#utility.yul\":18136:18145   */\n      0x00\n        /* \"#utility.yul\":18169:18222   */\n      tag_400\n        /* \"#utility.yul\":18187:18221   */\n      tag_401\n        /* \"#utility.yul\":18196:18220   */\n      tag_402\n        /* \"#utility.yul\":18214:18219   */\n      dup5\n        /* \"#utility.yul\":18196:18220   */\n      tag_176\n      jump\t// in\n    tag_402:\n        /* \"#utility.yul\":18187:18221   */\n      tag_216\n      jump\t// in\n    tag_401:\n        /* \"#utility.yul\":18169:18222   */\n      tag_176\n      jump\t// in\n    tag_400:\n        /* \"#utility.yul\":18156:18222   */\n      swap1\n      pop\n        /* \"#utility.yul\":18086:18228   */\n      swap2\n      swap1\n      pop\n      jump\t// out\n        /* \"#utility.yul\":18234:18309   */\n    tag_218:\n        /* \"#utility.yul\":18277:18280   */\n      0x00\n        /* \"#utility.yul\":18298:18303   */\n      dup2\n        /* \"#utility.yul\":18291:18303   */\n      swap1\n      pop\n        /* \"#utility.yul\":18234:18309   */\n      swap2\n      swap1\n      pop\n      jump\t// out\n        /* \"#utility.yul\":18315:18584   */\n    tag_219:\n        /* \"#utility.yul\":18425:18464   */\n      tag_405\n        /* \"#utility.yul\":18456:18463   */\n      dup4\n        /* \"#utility.yul\":18425:18464   */\n      tag_217\n      jump\t// in\n    tag_405:\n        /* \"#utility.yul\":18486:18577   */\n      tag_406\n        /* \"#utility.yul\":18535:18576   */\n      tag_407\n        /* \"#utility.yul\":18559:18575   */\n      dup3\n        /* \"#utility.yul\":18535:18576   */\n      tag_218\n      jump\t// in\n    tag_407:\n        /* \"#utility.yul\":18527:18533   */\n      dup5\n        /* \"#utility.yul\":18520:18524   */\n      dup5\n        /* \"#utility.yul\":18514:18525   */\n      sload\n        /* \"#utility.yul\":18486:18577   */\n      tag_215\n      jump\t// in\n    tag_406:\n        /* \"#utility.yul\":18480:18484   */\n      dup3\n        /* \"#utility.yul\":18473:18578   */\n      sstore\n        /* \"#utility.yul\":18391:18584   */\n      pop\n        /* \"#utility.yul\":18315:18584   */\n      pop\n      pop\n      pop\n      jump\t// out\n        /* \"#utility.yul\":18590:18663   */\n    tag_220:\n        /* \"#utility.yul\":18635:18638   */\n      0x00\n        /* \"#utility.yul\":18590:18663   */\n      swap1\n      jump\t// out\n        /* \"#utility.yul\":18669:18858   */\n    tag_221:\n        /* \"#utility.yul\":18746:18778   */\n      tag_410\n      tag_220\n      jump\t// in\n    tag_410:\n        /* \"#utility.yul\":18787:18852   */\n      tag_411\n        /* \"#utility.yul\":18845:18851   */\n      dup2\n        /* \"#utility.yul\":18837:18843   */\n      dup5\n        /* \"#utility.yul\":18831:18835   */\n      dup5\n        /* \"#utility.yul\":18787:18852   */\n      tag_219\n      jump\t// in\n    tag_411:\n        /* \"#utility.yul\":18722:18858   */\n      pop\n        /* \"#utility.yul\":18669:18858   */\n      pop\n      pop\n      jump\t// out\n        /* \"#utility.yul\":18864:19050   */\n    tag_222:\n        /* \"#utility.yul\":18924:19044   */\n    tag_413:\n        /* \"#utility.yul\":18941:18944   */\n      dup2\n        /* \"#utility.yul\":18934:18939   */\n      dup2\n        /* \"#utility.yul\":18931:18945   */\n      lt\n        /* \"#utility.yul\":18924:19044   */\n      iszero\n      tag_415\n      jumpi\n        /* \"#utility.yul\":18995:19034   */\n      tag_416\n        /* \"#utility.yul\":19032:19033   */\n      0x00\n        /* \"#utility.yul\":19025:19030   */\n      dup3\n        /* \"#utility.yul\":18995:19034   */\n      tag_221\n      jump\t// in\n    tag_416:\n        /* \"#utility.yul\":18968:18969   */\n      0x01\n        /* \"#utility.yul\":18961:18966   */\n      dup2\n        /* \"#utility.yul\":18957:18970   */\n      add\n        /* \"#utility.yul\":18948:18970   */\n      swap1\n      pop\n        /* \"#utility.yul\":18924:19044   */\n      jump(tag_413)\n    tag_415:\n        /* \"#utility.yul\":18864:19050   */\n      pop\n      pop\n      jump\t// out\n        /* \"#utility.yul\":19056:19599   */\n    tag_223:\n        /* \"#utility.yul\":19157:19159   */\n      0x1f\n        /* \"#utility.yul\":19152:19155   */\n      dup3\n        /* \"#utility.yul\":19149:19160   */\n      gt\n        /* \"#utility.yul\":19146:19592   */\n      iszero\n      tag_418\n      jumpi\n        /* \"#utility.yul\":19191:19229   */\n      tag_419\n        /* \"#utility.yul\":19223:19228   */\n      dup2\n        /* \"#utility.yul\":19191:19229   */\n      tag_199\n      jump\t// in\n    tag_419:\n        /* \"#utility.yul\":19275:19304   */\n      tag_420\n        /* \"#utility.yul\":19293:19303   */\n      dup5\n        /* \"#utility.yul\":19275:19304   */\n      tag_213\n      jump\t// in\n    tag_420:\n        /* \"#utility.yul\":19265:19273   */\n      dup2\n        /* \"#utility.yul\":19261:19305   */\n      add\n        /* \"#utility.yul\":19458:19460   */\n      0x20\n        /* \"#utility.yul\":19446:19456   */\n      dup6\n        /* \"#utility.yul\":19443:19461   */\n      lt\n        /* \"#utility.yul\":19440:19489   */\n      iszero\n      tag_421\n      jumpi\n        /* \"#utility.yul\":19479:19487   */\n      dup2\n        /* \"#utility.yul\":19464:19487   */\n      swap1\n      pop\n        /* \"#utility.yul\":19440:19489   */\n    tag_421:\n        /* \"#utility.yul\":19502:19582   */\n      tag_422\n        /* \"#utility.yul\":19558:19580   */\n      tag_423\n        /* \"#utility.yul\":19576:19579   */\n      dup6\n        /* \"#utility.yul\":19558:19580   */\n      tag_213\n      jump\t// in\n    tag_423:\n        /* \"#utility.yul\":19548:19556   */\n      dup4\n        /* \"#utility.yul\":19544:19581   */\n      add\n        /* \"#utility.yul\":19531:19542   */\n      dup3\n        /* \"#utility.yul\":19502:19582   */\n      tag_222\n      jump\t// in\n    tag_422:\n        /* \"#utility.yul\":19161:19592   */\n      pop\n      pop\n        /* \"#utility.yul\":19146:19592   */\n    tag_418:\n        /* \"#utility.yul\":19056:19599   */\n      pop\n      pop\n      pop\n      jump\t// out\n        /* \"#utility.yul\":19605:19722   */\n    tag_224:\n        /* \"#utility.yul\":19659:19667   */\n      0x00\n        /* \"#utility.yul\":19709:19714   */\n      dup3\n        /* \"#utility.yul\":19703:19707   */\n      dup3\n        /* \"#utility.yul\":19699:19715   */\n      shr\n        /* \"#utility.yul\":19678:19715   */\n      swap1\n      pop\n        /* \"#utility.yul\":19605:19722   */\n      swap3\n      swap2\n      pop\n      pop\n      jump\t// out\n        /* \"#utility.yul\":19728:19897   */\n    tag_225:\n        /* \"#utility.yul\":19772:19778   */\n      0x00\n        /* \"#utility.yul\":19805:19856   */\n      tag_426\n        /* \"#utility.yul\":19853:19854   */\n      0x00\n        /* \"#utility.yul\":19849:19855   */\n      not\n        /* \"#utility.yul\":19841:19846   */\n      dup5\n        /* \"#utility.yul\":19838:19839   */\n      0x08\n        /* \"#utility.yul\":19834:19847   */\n      mul\n        /* \"#utility.yul\":19805:19856   */\n      tag_224\n      jump\t// in\n    tag_426:\n        /* \"#utility.yul\":19801:19857   */\n      not\n        /* \"#utility.yul\":19886:19890   */\n      dup1\n        /* \"#utility.yul\":19880:19884   */\n      dup4\n        /* \"#utility.yul\":19876:19891   */\n      and\n        /* \"#utility.yul\":19866:19891   */\n      swap2\n      pop\n        /* \"#utility.yul\":19779:19897   */\n      pop\n        /* \"#utility.yul\":19728:19897   */\n      swap3\n      swap2\n      pop\n      pop\n      jump\t// out\n        /* \"#utility.yul\":19902:20197   */\n    tag_226:\n        /* \"#utility.yul\":19978:19982   */\n      0x00\n        /* \"#utility.yul\":20124:20153   */\n      tag_428\n        /* \"#utility.yul\":20149:20152   */\n      dup4\n        /* \"#utility.yul\":20143:20147   */\n      dup4\n        /* \"#utility.yul\":20124:20153   */\n      tag_225\n      jump\t// in\n    tag_428:\n        /* \"#utility.yul\":20116:20153   */\n      swap2\n      pop\n        /* \"#utility.yul\":20186:20189   */\n      dup3\n        /* \"#utility.yul\":20183:20184   */\n      0x02\n        /* \"#utility.yul\":20179:20190   */\n      mul\n        /* \"#utility.yul\":20173:20177   */\n      dup3\n        /* \"#utility.yul\":20170:20191   */\n      or\n        /* \"#utility.yul\":20162:20191   */\n      swap1\n      pop\n        /* \"#utility.yul\":19902:20197   */\n      swap3\n      swap2\n      pop\n      pop\n      jump\t// out\n        /* \"#utility.yul\":20202:21597   */\n    tag_109:\n        /* \"#utility.yul\":20319:20356   */\n      tag_430\n        /* \"#utility.yul\":20352:20355   */\n      dup3\n        /* \"#utility.yul\":20319:20356   */\n      tag_179\n      jump\t// in\n    tag_430:\n        /* \"#utility.yul\":20421:20439   */\n      0xffffffffffffffff\n        /* \"#utility.yul\":20413:20419   */\n      dup2\n        /* \"#utility.yul\":20410:20440   */\n      gt\n        /* \"#utility.yul\":20407:20463   */\n      iszero\n      tag_431\n      jumpi\n        /* \"#utility.yul\":20443:20461   */\n      tag_432\n      tag_146\n      jump\t// in\n    tag_432:\n        /* \"#utility.yul\":20407:20463   */\n    tag_431:\n        /* \"#utility.yul\":20487:20525   */\n      tag_433\n        /* \"#utility.yul\":20519:20523   */\n      dup3\n        /* \"#utility.yul\":20513:20524   */\n      sload\n        /* \"#utility.yul\":20487:20525   */\n      tag_63\n      jump\t// in\n    tag_433:\n        /* \"#utility.yul\":20572:20639   */\n      tag_434\n        /* \"#utility.yul\":20632:20638   */\n      dup3\n        /* \"#utility.yul\":20624:20630   */\n      dup3\n        /* \"#utility.yul\":20618:20622   */\n      dup6\n        /* \"#utility.yul\":20572:20639   */\n      tag_223\n      jump\t// in\n    tag_434:\n        /* \"#utility.yul\":20666:20667   */\n      0x00\n        /* \"#utility.yul\":20690:20694   */\n      0x20\n        /* \"#utility.yul\":20677:20694   */\n      swap1\n      pop\n        /* \"#utility.yul\":20722:20724   */\n      0x1f\n        /* \"#utility.yul\":20714:20720   */\n      dup4\n        /* \"#utility.yul\":20711:20725   */\n      gt\n        /* \"#utility.yul\":20739:20740   */\n      0x01\n        /* \"#utility.yul\":20734:21352   */\n      dup2\n      eq\n      tag_436\n      jumpi\n        /* \"#utility.yul\":21396:21397   */\n      0x00\n        /* \"#utility.yul\":21413:21419   */\n      dup5\n        /* \"#utility.yul\":21410:21487   */\n      iszero\n      tag_437\n      jumpi\n        /* \"#utility.yul\":21462:21471   */\n      dup3\n        /* \"#utility.yul\":21457:21460   */\n      dup8\n        /* \"#utility.yul\":21453:21472   */\n      add\n        /* \"#utility.yul\":21447:21473   */\n      mload\n        /* \"#utility.yul\":21438:21473   */\n      swap1\n      pop\n        /* \"#utility.yul\":21410:21487   */\n    tag_437:\n        /* \"#utility.yul\":21513:21580   */\n      tag_438\n        /* \"#utility.yul\":21573:21579   */\n      dup6\n        /* \"#utility.yul\":21566:21571   */\n      dup3\n        /* \"#utility.yul\":21513:21580   */\n      tag_226\n      jump\t// in\n    tag_438:\n        /* \"#utility.yul\":21507:21511   */\n      dup7\n        /* \"#utility.yul\":21500:21581   */\n      sstore\n        /* \"#utility.yul\":21369:21591   */\n      pop\n        /* \"#utility.yul\":20704:21591   */\n      jump(tag_435)\n        /* \"#utility.yul\":20734:21352   */\n    tag_436:\n        /* \"#utility.yul\":20786:20790   */\n      0x1f\n        /* \"#utility.yul\":20782:20791   */\n      not\n        /* \"#utility.yul\":20774:20780   */\n      dup5\n        /* \"#utility.yul\":20770:20792   */\n      and\n        /* \"#utility.yul\":20820:20857   */\n      tag_439\n        /* \"#utility.yul\":20852:20856   */\n      dup7\n        /* \"#utility.yul\":20820:20857   */\n      tag_199\n      jump\t// in\n    tag_439:\n        /* \"#utility.yul\":20879:20880   */\n      0x00\n        /* \"#utility.yul\":20893:21101   */\n    tag_440:\n        /* \"#utility.yul\":20907:20914   */\n      dup3\n        /* \"#utility.yul\":20904:20905   */\n      dup2\n        /* \"#utility.yul\":20901:20915   */\n      lt\n        /* \"#utility.yul\":20893:21101   */\n      iszero\n      tag_442\n      jumpi\n        /* \"#utility.yul\":20986:20995   */\n      dup5\n        /* \"#utility.yul\":20981:20984   */\n      dup10\n        /* \"#utility.yul\":20977:20996   */\n      add\n        /* \"#utility.yul\":20971:20997   */\n      mload\n        /* \"#utility.yul\":20963:20969   */\n      dup3\n        /* \"#utility.yul\":20956:20998   */\n      sstore\n        /* \"#utility.yul\":21037:21038   */\n      0x01\n        /* \"#utility.yul\":21029:21035   */\n      dup3\n        /* \"#utility.yul\":21025:21039   */\n      add\n        /* \"#utility.yul\":21015:21039   */\n      swap2\n      pop\n        /* \"#utility.yul\":21084:21086   */\n      0x20\n        /* \"#utility.yul\":21073:21082   */\n      dup6\n        /* \"#utility.yul\":21069:21087   */\n      add\n        /* \"#utility.yul\":21056:21087   */\n      swap5\n      pop\n        /* \"#utility.yul\":20930:20934   */\n      0x20\n        /* \"#utility.yul\":20927:20928   */\n      dup2\n        /* \"#utility.yul\":20923:20935   */\n      add\n        /* \"#utility.yul\":20918:20935   */\n      swap1\n      pop\n        /* \"#utility.yul\":20893:21101   */\n      jump(tag_440)\n    tag_442:\n        /* \"#utility.yul\":21129:21135   */\n      dup7\n        /* \"#utility.yul\":21120:21127   */\n      dup4\n        /* \"#utility.yul\":21117:21136   */\n      lt\n        /* \"#utility.yul\":21114:21293   */\n      iszero\n      tag_443\n      jumpi\n        /* \"#utility.yul\":21187:21196   */\n      dup5\n        /* \"#utility.yul\":21182:21185   */\n      dup10\n        /* \"#utility.yul\":21178:21197   */\n      add\n        /* \"#utility.yul\":21172:21198   */\n      mload\n        /* \"#utility.yul\":21230:21278   */\n      tag_444\n        /* \"#utility.yul\":21272:21276   */\n      0x1f\n        /* \"#utility.yul\":21264:21270   */\n      dup10\n        /* \"#utility.yul\":21260:21277   */\n      and\n        /* \"#utility.yul\":21249:21258   */\n      dup3\n        /* \"#utility.yul\":21230:21278   */\n      tag_225\n      jump\t// in\n    tag_444:\n        /* \"#utility.yul\":21222:21228   */\n      dup4\n        /* \"#utility.yul\":21215:21279   */\n      sstore\n        /* \"#utility.yul\":21137:21293   */\n      pop\n        /* \"#utility.yul\":21114:21293   */\n    tag_443:\n        /* \"#utility.yul\":21339:21340   */\n      0x01\n        /* \"#utility.yul\":21335:21336   */\n      0x02\n        /* \"#utility.yul\":21327:21333   */\n      dup9\n        /* \"#utility.yul\":21323:21337   */\n      mul\n        /* \"#utility.yul\":21319:21341   */\n      add\n        /* \"#utility.yul\":21313:21317   */\n      dup9\n        /* \"#utility.yul\":21306:21342   */\n      sstore\n        /* \"#utility.yul\":20741:21352   */\n      pop\n      pop\n      pop\n        /* \"#utility.yul\":20704:21591   */\n    tag_435:\n      pop\n        /* \"#utility.yul\":20294:21597   */\n      pop\n      pop\n      pop\n        /* \"#utility.yul\":20202:21597   */\n      pop\n      pop\n      jump\t// out\n        /* \"#utility.yul\":21603:21783   */\n    tag_227:\n        /* \"#utility.yul\":21651:21728   */\n      0x4e487b7100000000000000000000000000000000000000000000000000000000\n        /* \"#utility.yul\":21648:21649   */\n      0x00\n        /* \"#utility.yul\":21641:21729   */\n      mstore\n        /* \"#utility.yul\":21748:21752   */\n      0x11\n        /* \"#utility.yul\":21745:21746   */\n      0x04\n        /* \"#utility.yul\":21738:21753   */\n      mstore\n        /* \"#utility.yul\":21772:21776   */\n      0x24\n        /* \"#utility.yul\":21769:21770   */\n      0x00\n        /* \"#utility.yul\":21762:21777   */\n      revert\n        /* \"#utility.yul\":21789:21983   */\n    tag_118:\n        /* \"#utility.yul\":21829:21833   */\n      0x00\n        /* \"#utility.yul\":21849:21869   */\n      tag_447\n        /* \"#utility.yul\":21867:21868   */\n      dup3\n        /* \"#utility.yul\":21849:21869   */\n      tag_176\n      jump\t// in\n    tag_447:\n        /* \"#utility.yul\":21844:21869   */\n      swap2\n      pop\n        /* \"#utility.yul\":21883:21903   */\n      tag_448\n        /* \"#utility.yul\":21901:21902   */\n      dup4\n        /* \"#utility.yul\":21883:21903   */\n      tag_176\n      jump\t// in\n    tag_448:\n        /* \"#utility.yul\":21878:21903   */\n      swap3\n      pop\n        /* \"#utility.yul\":21927:21928   */\n      dup3\n        /* \"#utility.yul\":21924:21925   */\n      dup3\n        /* \"#utility.yul\":21920:21929   */\n      sub\n        /* \"#utility.yul\":21912:21929   */\n      swap1\n      pop\n        /* \"#utility.yul\":21951:21952   */\n      dup2\n        /* \"#utility.yul\":21945:21949   */\n      dup2\n        /* \"#utility.yul\":21942:21953   */\n      gt\n        /* \"#utility.yul\":21939:21976   */\n      iszero\n      tag_449\n      jumpi\n        /* \"#utility.yul\":21956:21974   */\n      tag_450\n      tag_227\n      jump\t// in\n    tag_450:\n        /* \"#utility.yul\":21939:21976   */\n    tag_449:\n        /* \"#utility.yul\":21789:21983   */\n      swap3\n      swap2\n      pop\n      pop\n      jump\t// out\n        /* \"#utility.yul\":21989:22214   */\n    tag_228:\n        /* \"#utility.yul\":22129:22163   */\n      0x506c6561736520626f756e64207769746820796f7572206964656e7469666963\n        /* \"#utility.yul\":22125:22126   */\n      0x00\n        /* \"#utility.yul\":22117:22123   */\n      dup3\n        /* \"#utility.yul\":22113:22127   */\n      add\n        /* \"#utility.yul\":22106:22164   */\n      mstore\n        /* \"#utility.yul\":22198:22206   */\n      0x6174696f6e210000000000000000000000000000000000000000000000000000\n        /* \"#utility.yul\":22193:22195   */\n      0x20\n        /* \"#utility.yul\":22185:22191   */\n      dup3\n        /* \"#utility.yul\":22181:22196   */\n      add\n        /* \"#utility.yul\":22174:22207   */\n      mstore\n        /* \"#utility.yul\":21989:22214   */\n      pop\n      jump\t// out\n        /* \"#utility.yul\":22220:22586   */\n    tag_229:\n        /* \"#utility.yul\":22362:22365   */\n      0x00\n        /* \"#utility.yul\":22383:22450   */\n      tag_453\n        /* \"#utility.yul\":22447:22449   */\n      0x26\n        /* \"#utility.yul\":22442:22445   */\n      dup4\n        /* \"#utility.yul\":22383:22450   */\n      tag_202\n      jump\t// in\n    tag_453:\n        /* \"#utility.yul\":22376:22450   */\n      swap2\n      pop\n        /* \"#utility.yul\":22459:22552   */\n      tag_454\n        /* \"#utility.yul\":22548:22551   */\n      dup3\n        /* \"#utility.yul\":22459:22552   */\n      tag_228\n      jump\t// in\n    tag_454:\n        /* \"#utility.yul\":22577:22579   */\n      0x40\n        /* \"#utility.yul\":22572:22575   */\n      dup3\n        /* \"#utility.yul\":22568:22580   */\n      add\n        /* \"#utility.yul\":22561:22580   */\n      swap1\n      pop\n        /* \"#utility.yul\":22220:22586   */\n      swap2\n      swap1\n      pop\n      jump\t// out\n        /* \"#utility.yul\":22592:23011   */\n    tag_123:\n        /* \"#utility.yul\":22758:22762   */\n      0x00\n        /* \"#utility.yul\":22796:22798   */\n      0x20\n        /* \"#utility.yul\":22785:22794   */\n      dup3\n        /* \"#utility.yul\":22781:22799   */\n      add\n        /* \"#utility.yul\":22773:22799   */\n      swap1\n      pop\n        /* \"#utility.yul\":22845:22854   */\n      dup2\n        /* \"#utility.yul\":22839:22843   */\n      dup2\n        /* \"#utility.yul\":22835:22855   */\n      sub\n        /* \"#utility.yul\":22831:22832   */\n      0x00\n        /* \"#utility.yul\":22820:22829   */\n      dup4\n        /* \"#utility.yul\":22816:22833   */\n      add\n        /* \"#utility.yul\":22809:22856   */\n      mstore\n        /* \"#utility.yul\":22873:23004   */\n      tag_456\n        /* \"#utility.yul\":22999:23003   */\n      dup2\n        /* \"#utility.yul\":22873:23004   */\n      tag_229\n      jump\t// in\n    tag_456:\n        /* \"#utility.yul\":22865:23004   */\n      swap1\n      pop\n        /* \"#utility.yul\":22592:23011   */\n      swap2\n      swap1\n      pop\n      jump\t// out\n        /* \"#utility.yul\":23017:23427   */\n    tag_126:\n        /* \"#utility.yul\":23057:23064   */\n      0x00\n        /* \"#utility.yul\":23080:23100   */\n      tag_458\n        /* \"#utility.yul\":23098:23099   */\n      dup3\n        /* \"#utility.yul\":23080:23100   */\n      tag_176\n      jump\t// in\n    tag_458:\n        /* \"#utility.yul\":23075:23100   */\n      swap2\n      pop\n        /* \"#utility.yul\":23114:23134   */\n      tag_459\n        /* \"#utility.yul\":23132:23133   */\n      dup4\n        /* \"#utility.yul\":23114:23134   */\n      tag_176\n      jump\t// in\n    tag_459:\n        /* \"#utility.yul\":23109:23134   */\n      swap3\n      pop\n        /* \"#utility.yul\":23169:23170   */\n      dup3\n        /* \"#utility.yul\":23166:23167   */\n      dup3\n        /* \"#utility.yul\":23162:23171   */\n      mul\n        /* \"#utility.yul\":23191:23221   */\n      tag_460\n        /* \"#utility.yul\":23209:23220   */\n      dup2\n        /* \"#utility.yul\":23191:23221   */\n      tag_176\n      jump\t// in\n    tag_460:\n        /* \"#utility.yul\":23180:23221   */\n      swap2\n      pop\n        /* \"#utility.yul\":23370:23371   */\n      dup3\n        /* \"#utility.yul\":23361:23368   */\n      dup3\n        /* \"#utility.yul\":23357:23372   */\n      div\n        /* \"#utility.yul\":23354:23355   */\n      dup5\n        /* \"#utility.yul\":23351:23373   */\n      eq\n        /* \"#utility.yul\":23331:23332   */\n      dup4\n        /* \"#utility.yul\":23324:23333   */\n      iszero\n        /* \"#utility.yul\":23304:23387   */\n      or\n        /* \"#utility.yul\":23281:23420   */\n      tag_461\n      jumpi\n        /* \"#utility.yul\":23400:23418   */\n      tag_462\n      tag_227\n      jump\t// in\n    tag_462:\n        /* \"#utility.yul\":23281:23420   */\n    tag_461:\n        /* \"#utility.yul\":23065:23427   */\n      pop\n        /* \"#utility.yul\":23017:23427   */\n      swap3\n      swap2\n      pop\n      pop\n      jump\t// out\n        /* \"#utility.yul\":23433:23613   */\n    tag_230:\n        /* \"#utility.yul\":23481:23558   */\n      0x4e487b7100000000000000000000000000000000000000000000000000000000\n        /* \"#utility.yul\":23478:23479   */\n      0x00\n        /* \"#utility.yul\":23471:23559   */\n      mstore\n        /* \"#utility.yul\":23578:23582   */\n      0x12\n        /* \"#utility.yul\":23575:23576   */\n      0x04\n        /* \"#utility.yul\":23568:23583   */\n      mstore\n        /* \"#utility.yul\":23602:23606   */\n      0x24\n        /* \"#utility.yul\":23599:23600   */\n      0x00\n        /* \"#utility.yul\":23592:23607   */\n      revert\n        /* \"#utility.yul\":23619:23804   */\n    tag_128:\n        /* \"#utility.yul\":23659:23660   */\n      0x00\n        /* \"#utility.yul\":23676:23696   */\n      tag_465\n        /* \"#utility.yul\":23694:23695   */\n      dup3\n        /* \"#utility.yul\":23676:23696   */\n      tag_176\n      jump\t// in\n    tag_465:\n        /* \"#utility.yul\":23671:23696   */\n      swap2\n      pop\n        /* \"#utility.yul\":23710:23730   */\n      tag_466\n        /* \"#utility.yul\":23728:23729   */\n      dup4\n        /* \"#utility.yul\":23710:23730   */\n      tag_176\n      jump\t// in\n    tag_466:\n        /* \"#utility.yul\":23705:23730   */\n      swap3\n      pop\n        /* \"#utility.yul\":23749:23750   */\n      dup3\n        /* \"#utility.yul\":23739:23774   */\n      tag_467\n      jumpi\n        /* \"#utility.yul\":23754:23772   */\n      tag_468\n      tag_230\n      jump\t// in\n    tag_468:\n        /* \"#utility.yul\":23739:23774   */\n    tag_467:\n        /* \"#utility.yul\":23796:23797   */\n      dup3\n        /* \"#utility.yul\":23793:23794   */\n      dup3\n        /* \"#utility.yul\":23789:23798   */\n      div\n        /* \"#utility.yul\":23784:23798   */\n      swap1\n      pop\n        /* \"#utility.yul\":23619:23804   */\n      swap3\n      swap2\n      pop\n      pop\n      jump\t// out\n        /* \"#utility.yul\":23810:24001   */\n    tag_137:\n        /* \"#utility.yul\":23850:23853   */\n      0x00\n        /* \"#utility.yul\":23869:23889   */\n      tag_470\n        /* \"#utility.yul\":23887:23888   */\n      dup3\n        /* \"#utility.yul\":23869:23889   */\n      tag_176\n      jump\t// in\n    tag_470:\n        /* \"#utility.yul\":23864:23889   */\n      swap2\n      pop\n        /* \"#utility.yul\":23903:23923   */\n      tag_471\n        /* \"#utility.yul\":23921:23922   */\n      dup4\n        /* \"#utility.yul\":23903:23923   */\n      tag_176\n      jump\t// in\n    tag_471:\n        /* \"#utility.yul\":23898:23923   */\n      swap3\n      pop\n        /* \"#utility.yul\":23946:23947   */\n      dup3\n        /* \"#utility.yul\":23943:23944   */\n      dup3\n        /* \"#utility.yul\":23939:23948   */\n      add\n        /* \"#utility.yul\":23932:23948   */\n      swap1\n      pop\n        /* \"#utility.yul\":23967:23970   */\n      dup1\n        /* \"#utility.yul\":23964:23965   */\n      dup3\n        /* \"#utility.yul\":23961:23971   */\n      gt\n        /* \"#utility.yul\":23958:23994   */\n      iszero\n      tag_472\n      jumpi\n        /* \"#utility.yul\":23974:23992   */\n      tag_473\n      tag_227\n      jump\t// in\n    tag_473:\n        /* \"#utility.yul\":23958:23994   */\n    tag_472:\n        /* \"#utility.yul\":23810:24001   */\n      swap3\n      swap2\n      pop\n      pop\n      jump\t// out\n        /* \"#utility.yul\":24007:24187   */\n    tag_153:\n        /* \"#utility.yul\":24055:24132   */\n      0x4e487b7100000000000000000000000000000000000000000000000000000000\n        /* \"#utility.yul\":24052:24053   */\n      0x00\n        /* \"#utility.yul\":24045:24133   */\n      mstore\n        /* \"#utility.yul\":24152:24156   */\n      0x32\n        /* \"#utility.yul\":24149:24150   */\n      0x04\n        /* \"#utility.yul\":24142:24157   */\n      mstore\n        /* \"#utility.yul\":24176:24180   */\n      0x24\n        /* \"#utility.yul\":24173:24174   */\n      0x00\n        /* \"#utility.yul\":24166:24181   */\n      revert\n\n    auxdata: 0xa26469706673582212206f939555144b584c7f76e6fec2575e729ab3b5f3e23aaf9af9ffbade44fe5c8c64736f6c63430008160033\n}\n",
				"bytecode": {
					"linkReferences": {},
					"object": "608060405234801561000f575f80fd5b50611b568061001d5f395ff3fe608060405234801561000f575f80fd5b5060043610610091575f3560e01c80636386c1c7116100645780636386c1c7146101415780639deb17f514610171578063baccbfdb146101a1578063cf093926146101d1578063ed0d19b71461020157610091565b80631cdd3be3146100955780633ad87fa1146100c55780634cfcf646146100e15780635c0e5f8814610111575b5f80fd5b6100af60048036038101906100aa9190610f08565b610231565b6040516100bc9190610f4d565b60405180910390f35b6100df60048036038101906100da9190610f08565b6102a1565b005b6100fb60048036038101906100f69190610f08565b6103b2565b6040516101089190610f4d565b60405180910390f35b61012b60048036038101906101269190610f99565b61047a565b6040516101389190610f4d565b60405180910390f35b61015b60048036038101906101569190610f08565b6104d9565b604051610168919061111a565b60405180910390f35b61018b60048036038101906101869190611266565b610710565b6040516101989190610f4d565b60405180910390f35b6101bb60048036038101906101b69190610f08565b6109da565b6040516101c891906112eb565b60405180910390f35b6101eb60048036038101906101e69190611304565b610a6b565b6040516101f89190610f4d565b60405180910390f35b61021b60048036038101906102169190611342565b610acc565b6040516102289190610f4d565b60405180910390f35b5f8060015f8473ffffffffffffffffffffffffffffffffffffffff1673ffffffffffffffffffffffffffffffffffffffff1681526020019081526020015f205f0160405161027f9190611466565b90815260200160405180910390205f9054906101000a900460ff169050919050565b6102aa816103b2565b156103af575f60015f8373ffffffffffffffffffffffffffffffffffffffff1673ffffffffffffffffffffffffffffffffffffffff1681526020019081526020015f205f0180546102fa9061139a565b80601f01602080910402602001604051908101604052809291908181526020018280546103269061139a565b80156103715780601f1061034857610100808354040283529160200191610371565b820191905f5260205f20905b81548152906001019060200180831161035457829003601f168201915b5050505050905060015f8260405161038991906114ac565b90815260200160405180910390205f6101000a81548160ff021916908315150217905550505b50565b5f8073ffffffffffffffffffffffffffffffffffffffff168273ffffffffffffffffffffffffffffffffffffffff1603610421576040517f08c379a00000000000000000000000000000000000000000000000000000000081526004016104189061151c565b60405180910390fd5b5f60015f8473ffffffffffffffffffffffffffffffffffffffff1673ffffffffffffffffffffffffffffffffffffffff1681526020019081526020015f206004015f9054906101000a900460ff16905080915050919050565b5f806104868484610b63565b90508060015f8773ffffffffffffffffffffffffffffffffffffffff1673ffffffffffffffffffffffffffffffffffffffff1681526020019081526020015f206002018190555060019150509392505050565b6104e1610e59565b6104ea826103b2565b610529576040517f08c379a000000000000000000000000000000000000000000000000000000000815260040161052090611584565b60405180910390fd5b60015f8373ffffffffffffffffffffffffffffffffffffffff1673ffffffffffffffffffffffffffffffffffffffff1681526020019081526020015f206040518060a00160405290815f820180546105809061139a565b80601f01602080910402602001604051908101604052809291908181526020018280546105ac9061139a565b80156105f75780601f106105ce576101008083540402835291602001916105f7565b820191905f5260205f20905b8154815290600101906020018083116105da57829003601f168201915b50505050508152602001600182015f9054906101000a900473ffffffffffffffffffffffffffffffffffffffff1673ffffffffffffffffffffffffffffffffffffffff1673ffffffffffffffffffffffffffffffffffffffff1681526020016002820154815260200160038201805461066f9061139a565b80601f016020809104026020016040519081016040528092919081815260200182805461069b9061139a565b80156106e65780601f106106bd576101008083540402835291602001916106e6565b820191905f5260205f20905b8154815290600101906020018083116106c957829003601f168201915b50505050508152602001600482015f9054906101000a900460ff1615151515815250509050919050565b5f8061071b84610c27565b90505f8160405161072c91906114ac565b90815260200160405180910390205f9054906101000a900460ff1615610787576040517f08c379a000000000000000000000000000000000000000000000000000000000815260040161077e906115ec565b60405180910390fd5b60015f3273ffffffffffffffffffffffffffffffffffffffff1673ffffffffffffffffffffffffffffffffffffffff1681526020019081526020015f206004015f9054906101000a900460ff1615610814576040517f08c379a000000000000000000000000000000000000000000000000000000000815260040161080b90611654565b60405180910390fd5b60028160405161082491906114ac565b90815260200160405180910390205f9054906101000a900460ff161561087f576040517f08c379a0000000000000000000000000000000000000000000000000000000008152600401610876906116bc565b60405180910390fd5b6040518060a001604052808281526020013273ffffffffffffffffffffffffffffffffffffffff168152602001603c81526020018481526020016001151581525060015f3373ffffffffffffffffffffffffffffffffffffffff1673ffffffffffffffffffffffffffffffffffffffff1681526020019081526020015f205f820151815f0190816109109190611865565b506020820151816001015f6101000a81548173ffffffffffffffffffffffffffffffffffffffff021916908373ffffffffffffffffffffffffffffffffffffffff1602179055506040820151816002015560608201518160030190816109769190611865565b506080820151816004015f6101000a81548160ff02191690831515021790555090505060016002826040516109ab91906114ac565b90815260200160405180910390205f6101000a81548160ff021916908315150217905550600191505092915050565b5f6109e4826103b2565b610a23576040517f08c379a0000000000000000000000000000000000000000000000000000000008152600401610a1a90611584565b60405180910390fd5b60015f8373ffffffffffffffffffffffffffffffffffffffff1673ffffffffffffffffffffffffffffffffffffffff1681526020019081526020015f20600201549050919050565b5f8160015f8573ffffffffffffffffffffffffffffffffffffffff1673ffffffffffffffffffffffffffffffffffffffff1681526020019081526020015f206002015f828254610abb9190611961565b925050819055506001905092915050565b5f610ad6326103b2565b610b15576040517f08c379a0000000000000000000000000000000000000000000000000000000008152600401610b0c90611a04565b60405180910390fd5b8160015f3273ffffffffffffffffffffffffffffffffffffffff1673ffffffffffffffffffffffffffffffffffffffff1681526020019081526020015f206002018190555060019050919050565b5f8061016d670de0b6b3a7640000601e610b7d9190611a22565b610b879190611a90565b90505f6064670de0b6b3a7640000866064610ba29190611961565b610bac9190611a22565b610bb69190611a90565b90505f670de0b6b3a76400008284610bce9190611a22565b610bd89190611a90565b90505f670de0b6b3a76400008683610bf09190611a22565b610bfa9190611a90565b90505f8188610c099190611ac0565b90506064811115610c1957606490505b809550505050505092915050565b60605f82604051602001610c3b91906114ac565b604051602081830303815290604052805190602001209050610c5c81610c64565b915050919050565b60605f6040518060400160405280601081526020017f303132333435363738396162636465660000000000000000000000000000000081525090505f604067ffffffffffffffff811115610cbb57610cba611142565b5b6040519080825280601f01601f191660200182016040528015610ced5781602001600182028036833780820191505090505b5090505f5b6020811015610e4e57826004868360208110610d1157610d10611af3565b5b1a60f81b7effffffffffffffffffffffffffffffffffffffffffffffffffffffffffffff1916901c60f81c60ff1681518110610d5057610d4f611af3565b5b602001015160f81c60f81b82600283610d699190611a22565b81518110610d7a57610d79611af3565b5b60200101907effffffffffffffffffffffffffffffffffffffffffffffffffffffffffffff191690815f1a90535082600f60f81b868360208110610dc157610dc0611af3565b5b1a60f81b1660f81c60ff1681518110610ddd57610ddc611af3565b5b602001015160f81c60f81b82600283610df69190611a22565b6001610e029190611ac0565b81518110610e1357610e12611af3565b5b60200101907effffffffffffffffffffffffffffffffffffffffffffffffffffffffffffff191690815f1a9053508080600101915050610cf2565b508092505050919050565b6040518060a00160405280606081526020015f73ffffffffffffffffffffffffffffffffffffffff1681526020015f8152602001606081526020015f151581525090565b5f604051905090565b5f80fd5b5f80fd5b5f73ffffffffffffffffffffffffffffffffffffffff82169050919050565b5f610ed782610eae565b9050919050565b610ee781610ecd565b8114610ef1575f80fd5b50565b5f81359050610f0281610ede565b92915050565b5f60208284031215610f1d57610f1c610ea6565b5b5f610f2a84828501610ef4565b91505092915050565b5f8115159050919050565b610f4781610f33565b82525050565b5f602082019050610f605f830184610f3e565b92915050565b5f819050919050565b610f7881610f66565b8114610f82575f80fd5b50565b5f81359050610f9381610f6f565b92915050565b5f805f60608486031215610fb057610faf610ea6565b5b5f610fbd86828701610ef4565b9350506020610fce86828701610f85565b9250506040610fdf86828701610f85565b9150509250925092565b5f81519050919050565b5f82825260208201905092915050565b5f5b83811015611020578082015181840152602081019050611005565b5f8484015250505050565b5f601f19601f8301169050919050565b5f61104582610fe9565b61104f8185610ff3565b935061105f818560208601611003565b6110688161102b565b840191505092915050565b61107c81610ecd565b82525050565b61108b81610f66565b82525050565b61109a81610f33565b82525050565b5f60a083015f8301518482035f8601526110ba828261103b565b91505060208301516110cf6020860182611073565b5060408301516110e26040860182611082565b50606083015184820360608601526110fa828261103b565b915050608083015161110f6080860182611091565b508091505092915050565b5f6020820190508181035f83015261113281846110a0565b905092915050565b5f80fd5b5f80fd5b7f4e487b71000000000000000000000000000000000000000000000000000000005f52604160045260245ffd5b6111788261102b565b810181811067ffffffffffffffff8211171561119757611196611142565b5b80604052505050565b5f6111a9610e9d565b90506111b5828261116f565b919050565b5f67ffffffffffffffff8211156111d4576111d3611142565b5b6111dd8261102b565b9050602081019050919050565b828183375f83830152505050565b5f61120a611205846111ba565b6111a0565b9050828152602081018484840111156112265761122561113e565b5b6112318482856111ea565b509392505050565b5f82601f83011261124d5761124c61113a565b5b813561125d8482602086016111f8565b91505092915050565b5f806040838503121561127c5761127b610ea6565b5b5f83013567ffffffffffffffff81111561129957611298610eaa565b5b6112a585828601611239565b925050602083013567ffffffffffffffff8111156112c6576112c5610eaa565b5b6112d285828601611239565b9150509250929050565b6112e581610f66565b82525050565b5f6020820190506112fe5f8301846112dc565b92915050565b5f806040838503121561131a57611319610ea6565b5b5f61132785828601610ef4565b925050602061133885828601610f85565b9150509250929050565b5f6020828403121561135757611356610ea6565b5b5f61136484828501610f85565b91505092915050565b7f4e487b71000000000000000000000000000000000000000000000000000000005f52602260045260245ffd5b5f60028204905060018216806113b157607f821691505b6020821081036113c4576113c361136d565b5b50919050565b5f81905092915050565b5f819050815f5260205f209050919050565b5f81546113f28161139a565b6113fc81866113ca565b9450600182165f8114611416576001811461142b5761145d565b60ff198316865281151582028601935061145d565b611434856113d4565b5f5b8381101561145557815481890152600182019150602081019050611436565b838801955050505b50505092915050565b5f61147182846113e6565b915081905092915050565b5f61148682610fe9565b61149081856113ca565b93506114a0818560208601611003565b80840191505092915050565b5f6114b7828461147c565b915081905092915050565b5f82825260208201905092915050565b7f616464726573732063616e27742062652061207a65726f2061646472657373005f82015250565b5f611506601f836114c2565b9150611511826114d2565b602082019050919050565b5f6020820190508181035f830152611533816114fa565b9050919050565b7f7468652061646472657373206861766e277420626f756e6400000000000000005f82015250565b5f61156e6018836114c2565b91506115798261153a565b602082019050919050565b5f6020820190508181035f83015261159b81611562565b9050919050565b7f494420697320626c61636b6c69737465640000000000000000000000000000005f82015250565b5f6115d66011836114c2565b91506115e1826115a2565b602082019050919050565b5f6020820190508181035f830152611603816115ca565b9050919050565b7f4164647265737320616c726561647920626f756e6400000000000000000000005f82015250565b5f61163e6015836114c2565b91506116498261160a565b602082019050919050565b5f6020820190508181035f83015261166b81611632565b9050919050565b7f494420616c726561647920626f756e64000000000000000000000000000000005f82015250565b5f6116a66010836114c2565b91506116b182611672565b602082019050919050565b5f6020820190508181035f8301526116d38161169a565b9050919050565b5f6020601f8301049050919050565b5f82821b905092915050565b5f600883026117247fffffffffffffffffffffffffffffffffffffffffffffffffffffffffffffffff826116e9565b61172e86836116e9565b95508019841693508086168417925050509392505050565b5f819050919050565b5f61176961176461175f84610f66565b611746565b610f66565b9050919050565b5f819050919050565b6117828361174f565b61179661178e82611770565b8484546116f5565b825550505050565b5f90565b6117aa61179e565b6117b5818484611779565b505050565b5b818110156117d8576117cd5f826117a2565b6001810190506117bb565b5050565b601f82111561181d576117ee816113d4565b6117f7846116da565b81016020851015611806578190505b61181a611812856116da565b8301826117ba565b50505b505050565b5f82821c905092915050565b5f61183d5f1984600802611822565b1980831691505092915050565b5f611855838361182e565b9150826002028217905092915050565b61186e82610fe9565b67ffffffffffffffff81111561188757611886611142565b5b611891825461139a565b61189c8282856117dc565b5f60209050601f8311600181146118cd575f84156118bb578287015190505b6118c5858261184a565b86555061192c565b601f1984166118db866113d4565b5f5b82811015611902578489015182556001820191506020850194506020810190506118dd565b8683101561191f578489015161191b601f89168261182e565b8355505b6001600288020188555050505b505050505050565b7f4e487b71000000000000000000000000000000000000000000000000000000005f52601160045260245ffd5b5f61196b82610f66565b915061197683610f66565b925082820390508181111561198e5761198d611934565b5b92915050565b7f506c6561736520626f756e64207769746820796f7572206964656e74696669635f8201527f6174696f6e210000000000000000000000000000000000000000000000000000602082015250565b5f6119ee6026836114c2565b91506119f982611994565b604082019050919050565b5f6020820190508181035f830152611a1b816119e2565b9050919050565b5f611a2c82610f66565b9150611a3783610f66565b9250828202611a4581610f66565b91508282048414831517611a5c57611a5b611934565b5b5092915050565b7f4e487b71000000000000000000000000000000000000000000000000000000005f52601260045260245ffd5b5f611a9a82610f66565b9150611aa583610f66565b925082611ab557611ab4611a63565b5b828204905092915050565b5f611aca82610f66565b9150611ad583610f66565b9250828201905080821115611aed57611aec611934565b5b92915050565b7f4e487b71000000000000000000000000000000000000000000000000000000005f52603260045260245ffdfea26469706673582212206f939555144b584c7f76e6fec2575e729ab3b5f3e23aaf9af9ffbade44fe5c8c64736f6c63430008160033",
					"opcodes": "PUSH1 0x80 PUSH1 0x40 MSTORE CALLVALUE DUP1 ISZERO PUSH2 0xF JUMPI PUSH0 DUP1 REVERT JUMPDEST POP PUSH2 0x1B56 DUP1 PUSH2 0x1D PUSH0 CODECOPY PUSH0 RETURN INVALID PUSH1 0x80 PUSH1 0x40 MSTORE CALLVALUE DUP1 ISZERO PUSH2 0xF JUMPI PUSH0 DUP1 REVERT JUMPDEST POP PUSH1 0x4 CALLDATASIZE LT PUSH2 0x91 JUMPI PUSH0 CALLDATALOAD PUSH1 0xE0 SHR DUP1 PUSH4 0x6386C1C7 GT PUSH2 0x64 JUMPI DUP1 PUSH4 0x6386C1C7 EQ PUSH2 0x141 JUMPI DUP1 PUSH4 0x9DEB17F5 EQ PUSH2 0x171 JUMPI DUP1 PUSH4 0xBACCBFDB EQ PUSH2 0x1A1 JUMPI DUP1 PUSH4 0xCF093926 EQ PUSH2 0x1D1 JUMPI DUP1 PUSH4 0xED0D19B7 EQ PUSH2 0x201 JUMPI PUSH2 0x91 JUMP JUMPDEST DUP1 PUSH4 0x1CDD3BE3 EQ PUSH2 0x95 JUMPI DUP1 PUSH4 0x3AD87FA1 EQ PUSH2 0xC5 JUMPI DUP1 PUSH4 0x4CFCF646 EQ PUSH2 0xE1 JUMPI DUP1 PUSH4 0x5C0E5F88 EQ PUSH2 0x111 JUMPI JUMPDEST PUSH0 DUP1 REVERT JUMPDEST PUSH2 0xAF PUSH1 0x4 DUP1 CALLDATASIZE SUB DUP2 ADD SWAP1 PUSH2 0xAA SWAP2 SWAP1 PUSH2 0xF08 JUMP JUMPDEST PUSH2 0x231 JUMP JUMPDEST PUSH1 0x40 MLOAD PUSH2 0xBC SWAP2 SWAP1 PUSH2 0xF4D JUMP JUMPDEST PUSH1 0x40 MLOAD DUP1 SWAP2 SUB SWAP1 RETURN JUMPDEST PUSH2 0xDF PUSH1 0x4 DUP1 CALLDATASIZE SUB DUP2 ADD SWAP1 PUSH2 0xDA SWAP2 SWAP1 PUSH2 0xF08 JUMP JUMPDEST PUSH2 0x2A1 JUMP JUMPDEST STOP JUMPDEST PUSH2 0xFB PUSH1 0x4 DUP1 CALLDATASIZE SUB DUP2 ADD SWAP1 PUSH2 0xF6 SWAP2 SWAP1 PUSH2 0xF08 JUMP JUMPDEST PUSH2 0x3B2 JUMP JUMPDEST PUSH1 0x40 MLOAD PUSH2 0x108 SWAP2 SWAP1 PUSH2 0xF4D JUMP JUMPDEST PUSH1 0x40 MLOAD DUP1 SWAP2 SUB SWAP1 RETURN JUMPDEST PUSH2 0x12B PUSH1 0x4 DUP1 CALLDATASIZE SUB DUP2 ADD SWAP1 PUSH2 0x126 SWAP2 SWAP1 PUSH2 0xF99 JUMP JUMPDEST PUSH2 0x47A JUMP JUMPDEST PUSH1 0x40 MLOAD PUSH2 0x138 SWAP2 SWAP1 PUSH2 0xF4D JUMP JUMPDEST PUSH1 0x40 MLOAD DUP1 SWAP2 SUB SWAP1 RETURN JUMPDEST PUSH2 0x15B PUSH1 0x4 DUP1 CALLDATASIZE SUB DUP2 ADD SWAP1 PUSH2 0x156 SWAP2 SWAP1 PUSH2 0xF08 JUMP JUMPDEST PUSH2 0x4D9 JUMP JUMPDEST PUSH1 0x40 MLOAD PUSH2 0x168 SWAP2 SWAP1 PUSH2 0x111A JUMP JUMPDEST PUSH1 0x40 MLOAD DUP1 SWAP2 SUB SWAP1 RETURN JUMPDEST PUSH2 0x18B PUSH1 0x4 DUP1 CALLDATASIZE SUB DUP2 ADD SWAP1 PUSH2 0x186 SWAP2 SWAP1 PUSH2 0x1266 JUMP JUMPDEST PUSH2 0x710 JUMP JUMPDEST PUSH1 0x40 MLOAD PUSH2 0x198 SWAP2 SWAP1 PUSH2 0xF4D JUMP JUMPDEST PUSH1 0x40 MLOAD DUP1 SWAP2 SUB SWAP1 RETURN JUMPDEST PUSH2 0x1BB PUSH1 0x4 DUP1 CALLDATASIZE SUB DUP2 ADD SWAP1 PUSH2 0x1B6 SWAP2 SWAP1 PUSH2 0xF08 JUMP JUMPDEST PUSH2 0x9DA JUMP JUMPDEST PUSH1 0x40 MLOAD PUSH2 0x1C8 SWAP2 SWAP1 PUSH2 0x12EB JUMP JUMPDEST PUSH1 0x40 MLOAD DUP1 SWAP2 SUB SWAP1 RETURN JUMPDEST PUSH2 0x1EB PUSH1 0x4 DUP1 CALLDATASIZE SUB DUP2 ADD SWAP1 PUSH2 0x1E6 SWAP2 SWAP1 PUSH2 0x1304 JUMP JUMPDEST PUSH2 0xA6B JUMP JUMPDEST PUSH1 0x40 MLOAD PUSH2 0x1F8 SWAP2 SWAP1 PUSH2 0xF4D JUMP JUMPDEST PUSH1 0x40 MLOAD DUP1 SWAP2 SUB SWAP1 RETURN JUMPDEST PUSH2 0x21B PUSH1 0x4 DUP1 CALLDATASIZE SUB DUP2 ADD SWAP1 PUSH2 0x216 SWAP2 SWAP1 PUSH2 0x1342 JUMP JUMPDEST PUSH2 0xACC JUMP JUMPDEST PUSH1 0x40 MLOAD PUSH2 0x228 SWAP2 SWAP1 PUSH2 0xF4D JUMP JUMPDEST PUSH1 0x40 MLOAD DUP1 SWAP2 SUB SWAP1 RETURN JUMPDEST PUSH0 DUP1 PUSH1 0x1 PUSH0 DUP5 PUSH20 0xFFFFFFFFFFFFFFFFFFFFFFFFFFFFFFFFFFFFFFFF AND PUSH20 0xFFFFFFFFFFFFFFFFFFFFFFFFFFFFFFFFFFFFFFFF AND DUP2 MSTORE PUSH1 0x20 ADD SWAP1 DUP2 MSTORE PUSH1 0x20 ADD PUSH0 KECCAK256 PUSH0 ADD PUSH1 0x40 MLOAD PUSH2 0x27F SWAP2 SWAP1 PUSH2 0x1466 JUMP JUMPDEST SWAP1 DUP2 MSTORE PUSH1 0x20 ADD PUSH1 0x40 MLOAD DUP1 SWAP2 SUB SWAP1 KECCAK256 PUSH0 SWAP1 SLOAD SWAP1 PUSH2 0x100 EXP SWAP1 DIV PUSH1 0xFF AND SWAP1 POP SWAP2 SWAP1 POP JUMP JUMPDEST PUSH2 0x2AA DUP2 PUSH2 0x3B2 JUMP JUMPDEST ISZERO PUSH2 0x3AF JUMPI PUSH0 PUSH1 0x1 PUSH0 DUP4 PUSH20 0xFFFFFFFFFFFFFFFFFFFFFFFFFFFFFFFFFFFFFFFF AND PUSH20 0xFFFFFFFFFFFFFFFFFFFFFFFFFFFFFFFFFFFFFFFF AND DUP2 MSTORE PUSH1 0x20 ADD SWAP1 DUP2 MSTORE PUSH1 0x20 ADD PUSH0 KECCAK256 PUSH0 ADD DUP1 SLOAD PUSH2 0x2FA SWAP1 PUSH2 0x139A JUMP JUMPDEST DUP1 PUSH1 0x1F ADD PUSH1 0x20 DUP1 SWAP2 DIV MUL PUSH1 0x20 ADD PUSH1 0x40 MLOAD SWAP1 DUP2 ADD PUSH1 0x40 MSTORE DUP1 SWAP3 SWAP2 SWAP1 DUP2 DUP2 MSTORE PUSH1 0x20 ADD DUP3 DUP1 SLOAD PUSH2 0x326 SWAP1 PUSH2 0x139A JUMP JUMPDEST DUP1 ISZERO PUSH2 0x371 JUMPI DUP1 PUSH1 0x1F LT PUSH2 0x348 JUMPI PUSH2 0x100 DUP1 DUP4 SLOAD DIV MUL DUP4 MSTORE SWAP2 PUSH1 0x20 ADD SWAP2 PUSH2 0x371 JUMP JUMPDEST DUP3 ADD SWAP2 SWAP1 PUSH0 MSTORE PUSH1 0x20 PUSH0 KECCAK256 SWAP1 JUMPDEST DUP2 SLOAD DUP2 MSTORE SWAP1 PUSH1 0x1 ADD SWAP1 PUSH1 0x20 ADD DUP1 DUP4 GT PUSH2 0x354 JUMPI DUP3 SWAP1 SUB PUSH1 0x1F AND DUP3 ADD SWAP2 JUMPDEST POP POP POP POP POP SWAP1 POP PUSH1 0x1 PUSH0 DUP3 PUSH1 0x40 MLOAD PUSH2 0x389 SWAP2 SWAP1 PUSH2 0x14AC JUMP JUMPDEST SWAP1 DUP2 MSTORE PUSH1 0x20 ADD PUSH1 0x40 MLOAD DUP1 SWAP2 SUB SWAP1 KECCAK256 PUSH0 PUSH2 0x100 EXP DUP2 SLOAD DUP2 PUSH1 0xFF MUL NOT AND SWAP1 DUP4 ISZERO ISZERO MUL OR SWAP1 SSTORE POP POP JUMPDEST POP JUMP JUMPDEST PUSH0 DUP1 PUSH20 0xFFFFFFFFFFFFFFFFFFFFFFFFFFFFFFFFFFFFFFFF AND DUP3 PUSH20 0xFFFFFFFFFFFFFFFFFFFFFFFFFFFFFFFFFFFFFFFF AND SUB PUSH2 0x421 JUMPI PUSH1 0x40 MLOAD PUSH32 0x8C379A000000000000000000000000000000000000000000000000000000000 DUP2 MSTORE PUSH1 0x4 ADD PUSH2 0x418 SWAP1 PUSH2 0x151C JUMP JUMPDEST PUSH1 0x40 MLOAD DUP1 SWAP2 SUB SWAP1 REVERT JUMPDEST PUSH0 PUSH1 0x1 PUSH0 DUP5 PUSH20 0xFFFFFFFFFFFFFFFFFFFFFFFFFFFFFFFFFFFFFFFF AND PUSH20 0xFFFFFFFFFFFFFFFFFFFFFFFFFFFFFFFFFFFFFFFF AND DUP2 MSTORE PUSH1 0x20 ADD SWAP1 DUP2 MSTORE PUSH1 0x20 ADD PUSH0 KECCAK256 PUSH1 0x4 ADD PUSH0 SWAP1 SLOAD SWAP1 PUSH2 0x100 EXP SWAP1 DIV PUSH1 0xFF AND SWAP1 POP DUP1 SWAP2 POP POP SWAP2 SWAP1 POP JUMP JUMPDEST PUSH0 DUP1 PUSH2 0x486 DUP5 DUP5 PUSH2 0xB63 JUMP JUMPDEST SWAP1 POP DUP1 PUSH1 0x1 PUSH0 DUP8 PUSH20 0xFFFFFFFFFFFFFFFFFFFFFFFFFFFFFFFFFFFFFFFF AND PUSH20 0xFFFFFFFFFFFFFFFFFFFFFFFFFFFFFFFFFFFFFFFF AND DUP2 MSTORE PUSH1 0x20 ADD SWAP1 DUP2 MSTORE PUSH1 0x20 ADD PUSH0 KECCAK256 PUSH1 0x2 ADD DUP2 SWAP1 SSTORE POP PUSH1 0x1 SWAP2 POP POP SWAP4 SWAP3 POP POP POP JUMP JUMPDEST PUSH2 0x4E1 PUSH2 0xE59 JUMP JUMPDEST PUSH2 0x4EA DUP3 PUSH2 0x3B2 JUMP JUMPDEST PUSH2 0x529 JUMPI PUSH1 0x40 MLOAD PUSH32 0x8C379A000000000000000000000000000000000000000000000000000000000 DUP2 MSTORE PUSH1 0x4 ADD PUSH2 0x520 SWAP1 PUSH2 0x1584 JUMP JUMPDEST PUSH1 0x40 MLOAD DUP1 SWAP2 SUB SWAP1 REVERT JUMPDEST PUSH1 0x1 PUSH0 DUP4 PUSH20 0xFFFFFFFFFFFFFFFFFFFFFFFFFFFFFFFFFFFFFFFF AND PUSH20 0xFFFFFFFFFFFFFFFFFFFFFFFFFFFFFFFFFFFFFFFF AND DUP2 MSTORE PUSH1 0x20 ADD SWAP1 DUP2 MSTORE PUSH1 0x20 ADD PUSH0 KECCAK256 PUSH1 0x40 MLOAD DUP1 PUSH1 0xA0 ADD PUSH1 0x40 MSTORE SWAP1 DUP2 PUSH0 DUP3 ADD DUP1 SLOAD PUSH2 0x580 SWAP1 PUSH2 0x139A JUMP JUMPDEST DUP1 PUSH1 0x1F ADD PUSH1 0x20 DUP1 SWAP2 DIV MUL PUSH1 0x20 ADD PUSH1 0x40 MLOAD SWAP1 DUP2 ADD PUSH1 0x40 MSTORE DUP1 SWAP3 SWAP2 SWAP1 DUP2 DUP2 MSTORE PUSH1 0x20 ADD DUP3 DUP1 SLOAD PUSH2 0x5AC SWAP1 PUSH2 0x139A JUMP JUMPDEST DUP1 ISZERO PUSH2 0x5F7 JUMPI DUP1 PUSH1 0x1F LT PUSH2 0x5CE JUMPI PUSH2 0x100 DUP1 DUP4 SLOAD DIV MUL DUP4 MSTORE SWAP2 PUSH1 0x20 ADD SWAP2 PUSH2 0x5F7 JUMP JUMPDEST DUP3 ADD SWAP2 SWAP1 PUSH0 MSTORE PUSH1 0x20 PUSH0 KECCAK256 SWAP1 JUMPDEST DUP2 SLOAD DUP2 MSTORE SWAP1 PUSH1 0x1 ADD SWAP1 PUSH1 0x20 ADD DUP1 DUP4 GT PUSH2 0x5DA JUMPI DUP3 SWAP1 SUB PUSH1 0x1F AND DUP3 ADD SWAP2 JUMPDEST POP POP POP POP POP DUP2 MSTORE PUSH1 0x20 ADD PUSH1 0x1 DUP3 ADD PUSH0 SWAP1 SLOAD SWAP1 PUSH2 0x100 EXP SWAP1 DIV PUSH20 0xFFFFFFFFFFFFFFFFFFFFFFFFFFFFFFFFFFFFFFFF AND PUSH20 0xFFFFFFFFFFFFFFFFFFFFFFFFFFFFFFFFFFFFFFFF AND PUSH20 0xFFFFFFFFFFFFFFFFFFFFFFFFFFFFFFFFFFFFFFFF AND DUP2 MSTORE PUSH1 0x20 ADD PUSH1 0x2 DUP3 ADD SLOAD DUP2 MSTORE PUSH1 0x20 ADD PUSH1 0x3 DUP3 ADD DUP1 SLOAD PUSH2 0x66F SWAP1 PUSH2 0x139A JUMP JUMPDEST DUP1 PUSH1 0x1F ADD PUSH1 0x20 DUP1 SWAP2 DIV MUL PUSH1 0x20 ADD PUSH1 0x40 MLOAD SWAP1 DUP2 ADD PUSH1 0x40 MSTORE DUP1 SWAP3 SWAP2 SWAP1 DUP2 DUP2 MSTORE PUSH1 0x20 ADD DUP3 DUP1 SLOAD PUSH2 0x69B SWAP1 PUSH2 0x139A JUMP JUMPDEST DUP1 ISZERO PUSH2 0x6E6 JUMPI DUP1 PUSH1 0x1F LT PUSH2 0x6BD JUMPI PUSH2 0x100 DUP1 DUP4 SLOAD DIV MUL DUP4 MSTORE SWAP2 PUSH1 0x20 ADD SWAP2 PUSH2 0x6E6 JUMP JUMPDEST DUP3 ADD SWAP2 SWAP1 PUSH0 MSTORE PUSH1 0x20 PUSH0 KECCAK256 SWAP1 JUMPDEST DUP2 SLOAD DUP2 MSTORE SWAP1 PUSH1 0x1 ADD SWAP1 PUSH1 0x20 ADD DUP1 DUP4 GT PUSH2 0x6C9 JUMPI DUP3 SWAP1 SUB PUSH1 0x1F AND DUP3 ADD SWAP2 JUMPDEST POP POP POP POP POP DUP2 MSTORE PUSH1 0x20 ADD PUSH1 0x4 DUP3 ADD PUSH0 SWAP1 SLOAD SWAP1 PUSH2 0x100 EXP SWAP1 DIV PUSH1 0xFF AND ISZERO ISZERO ISZERO ISZERO DUP2 MSTORE POP POP SWAP1 POP SWAP2 SWAP1 POP JUMP JUMPDEST PUSH0 DUP1 PUSH2 0x71B DUP5 PUSH2 0xC27 JUMP JUMPDEST SWAP1 POP PUSH0 DUP2 PUSH1 0x40 MLOAD PUSH2 0x72C SWAP2 SWAP1 PUSH2 0x14AC JUMP JUMPDEST SWAP1 DUP2 MSTORE PUSH1 0x20 ADD PUSH1 0x40 MLOAD DUP1 SWAP2 SUB SWAP1 KECCAK256 PUSH0 SWAP1 SLOAD SWAP1 PUSH2 0x100 EXP SWAP1 DIV PUSH1 0xFF AND ISZERO PUSH2 0x787 JUMPI PUSH1 0x40 MLOAD PUSH32 0x8C379A000000000000000000000000000000000000000000000000000000000 DUP2 MSTORE PUSH1 0x4 ADD PUSH2 0x77E SWAP1 PUSH2 0x15EC JUMP JUMPDEST PUSH1 0x40 MLOAD DUP1 SWAP2 SUB SWAP1 REVERT JUMPDEST PUSH1 0x1 PUSH0 ORIGIN PUSH20 0xFFFFFFFFFFFFFFFFFFFFFFFFFFFFFFFFFFFFFFFF AND PUSH20 0xFFFFFFFFFFFFFFFFFFFFFFFFFFFFFFFFFFFFFFFF AND DUP2 MSTORE PUSH1 0x20 ADD SWAP1 DUP2 MSTORE PUSH1 0x20 ADD PUSH0 KECCAK256 PUSH1 0x4 ADD PUSH0 SWAP1 SLOAD SWAP1 PUSH2 0x100 EXP SWAP1 DIV PUSH1 0xFF AND ISZERO PUSH2 0x814 JUMPI PUSH1 0x40 MLOAD PUSH32 0x8C379A000000000000000000000000000000000000000000000000000000000 DUP2 MSTORE PUSH1 0x4 ADD PUSH2 0x80B SWAP1 PUSH2 0x1654 JUMP JUMPDEST PUSH1 0x40 MLOAD DUP1 SWAP2 SUB SWAP1 REVERT JUMPDEST PUSH1 0x2 DUP2 PUSH1 0x40 MLOAD PUSH2 0x824 SWAP2 SWAP1 PUSH2 0x14AC JUMP JUMPDEST SWAP1 DUP2 MSTORE PUSH1 0x20 ADD PUSH1 0x40 MLOAD DUP1 SWAP2 SUB SWAP1 KECCAK256 PUSH0 SWAP1 SLOAD SWAP1 PUSH2 0x100 EXP SWAP1 DIV PUSH1 0xFF AND ISZERO PUSH2 0x87F JUMPI PUSH1 0x40 MLOAD PUSH32 0x8C379A000000000000000000000000000000000000000000000000000000000 DUP2 MSTORE PUSH1 0x4 ADD PUSH2 0x876 SWAP1 PUSH2 0x16BC JUMP JUMPDEST PUSH1 0x40 MLOAD DUP1 SWAP2 SUB SWAP1 REVERT JUMPDEST PUSH1 0x40 MLOAD DUP1 PUSH1 0xA0 ADD PUSH1 0x40 MSTORE DUP1 DUP3 DUP2 MSTORE PUSH1 0x20 ADD ORIGIN PUSH20 0xFFFFFFFFFFFFFFFFFFFFFFFFFFFFFFFFFFFFFFFF AND DUP2 MSTORE PUSH1 0x20 ADD PUSH1 0x3C DUP2 MSTORE PUSH1 0x20 ADD DUP5 DUP2 MSTORE PUSH1 0x20 ADD PUSH1 0x1 ISZERO ISZERO DUP2 MSTORE POP PUSH1 0x1 PUSH0 CALLER PUSH20 0xFFFFFFFFFFFFFFFFFFFFFFFFFFFFFFFFFFFFFFFF AND PUSH20 0xFFFFFFFFFFFFFFFFFFFFFFFFFFFFFFFFFFFFFFFF AND DUP2 MSTORE PUSH1 0x20 ADD SWAP1 DUP2 MSTORE PUSH1 0x20 ADD PUSH0 KECCAK256 PUSH0 DUP3 ADD MLOAD DUP2 PUSH0 ADD SWAP1 DUP2 PUSH2 0x910 SWAP2 SWAP1 PUSH2 0x1865 JUMP JUMPDEST POP PUSH1 0x20 DUP3 ADD MLOAD DUP2 PUSH1 0x1 ADD PUSH0 PUSH2 0x100 EXP DUP2 SLOAD DUP2 PUSH20 0xFFFFFFFFFFFFFFFFFFFFFFFFFFFFFFFFFFFFFFFF MUL NOT AND SWAP1 DUP4 PUSH20 0xFFFFFFFFFFFFFFFFFFFFFFFFFFFFFFFFFFFFFFFF AND MUL OR SWAP1 SSTORE POP PUSH1 0x40 DUP3 ADD MLOAD DUP2 PUSH1 0x2 ADD SSTORE PUSH1 0x60 DUP3 ADD MLOAD DUP2 PUSH1 0x3 ADD SWAP1 DUP2 PUSH2 0x976 SWAP2 SWAP1 PUSH2 0x1865 JUMP JUMPDEST POP PUSH1 0x80 DUP3 ADD MLOAD DUP2 PUSH1 0x4 ADD PUSH0 PUSH2 0x100 EXP DUP2 SLOAD DUP2 PUSH1 0xFF MUL NOT AND SWAP1 DUP4 ISZERO ISZERO MUL OR SWAP1 SSTORE POP SWAP1 POP POP PUSH1 0x1 PUSH1 0x2 DUP3 PUSH1 0x40 MLOAD PUSH2 0x9AB SWAP2 SWAP1 PUSH2 0x14AC JUMP JUMPDEST SWAP1 DUP2 MSTORE PUSH1 0x20 ADD PUSH1 0x40 MLOAD DUP1 SWAP2 SUB SWAP1 KECCAK256 PUSH0 PUSH2 0x100 EXP DUP2 SLOAD DUP2 PUSH1 0xFF MUL NOT AND SWAP1 DUP4 ISZERO ISZERO MUL OR SWAP1 SSTORE POP PUSH1 0x1 SWAP2 POP POP SWAP3 SWAP2 POP POP JUMP JUMPDEST PUSH0 PUSH2 0x9E4 DUP3 PUSH2 0x3B2 JUMP JUMPDEST PUSH2 0xA23 JUMPI PUSH1 0x40 MLOAD PUSH32 0x8C379A000000000000000000000000000000000000000000000000000000000 DUP2 MSTORE PUSH1 0x4 ADD PUSH2 0xA1A SWAP1 PUSH2 0x1584 JUMP JUMPDEST PUSH1 0x40 MLOAD DUP1 SWAP2 SUB SWAP1 REVERT JUMPDEST PUSH1 0x1 PUSH0 DUP4 PUSH20 0xFFFFFFFFFFFFFFFFFFFFFFFFFFFFFFFFFFFFFFFF AND PUSH20 0xFFFFFFFFFFFFFFFFFFFFFFFFFFFFFFFFFFFFFFFF AND DUP2 MSTORE PUSH1 0x20 ADD SWAP1 DUP2 MSTORE PUSH1 0x20 ADD PUSH0 KECCAK256 PUSH1 0x2 ADD SLOAD SWAP1 POP SWAP2 SWAP1 POP JUMP JUMPDEST PUSH0 DUP2 PUSH1 0x1 PUSH0 DUP6 PUSH20 0xFFFFFFFFFFFFFFFFFFFFFFFFFFFFFFFFFFFFFFFF AND PUSH20 0xFFFFFFFFFFFFFFFFFFFFFFFFFFFFFFFFFFFFFFFF AND DUP2 MSTORE PUSH1 0x20 ADD SWAP1 DUP2 MSTORE PUSH1 0x20 ADD PUSH0 KECCAK256 PUSH1 0x2 ADD PUSH0 DUP3 DUP3 SLOAD PUSH2 0xABB SWAP2 SWAP1 PUSH2 0x1961 JUMP JUMPDEST SWAP3 POP POP DUP2 SWAP1 SSTORE POP PUSH1 0x1 SWAP1 POP SWAP3 SWAP2 POP POP JUMP JUMPDEST PUSH0 PUSH2 0xAD6 ORIGIN PUSH2 0x3B2 JUMP JUMPDEST PUSH2 0xB15 JUMPI PUSH1 0x40 MLOAD PUSH32 0x8C379A000000000000000000000000000000000000000000000000000000000 DUP2 MSTORE PUSH1 0x4 ADD PUSH2 0xB0C SWAP1 PUSH2 0x1A04 JUMP JUMPDEST PUSH1 0x40 MLOAD DUP1 SWAP2 SUB SWAP1 REVERT JUMPDEST DUP2 PUSH1 0x1 PUSH0 ORIGIN PUSH20 0xFFFFFFFFFFFFFFFFFFFFFFFFFFFFFFFFFFFFFFFF AND PUSH20 0xFFFFFFFFFFFFFFFFFFFFFFFFFFFFFFFFFFFFFFFF AND DUP2 MSTORE PUSH1 0x20 ADD SWAP1 DUP2 MSTORE PUSH1 0x20 ADD PUSH0 KECCAK256 PUSH1 0x2 ADD DUP2 SWAP1 SSTORE POP PUSH1 0x1 SWAP1 POP SWAP2 SWAP1 POP JUMP JUMPDEST PUSH0 DUP1 PUSH2 0x16D PUSH8 0xDE0B6B3A7640000 PUSH1 0x1E PUSH2 0xB7D SWAP2 SWAP1 PUSH2 0x1A22 JUMP JUMPDEST PUSH2 0xB87 SWAP2 SWAP1 PUSH2 0x1A90 JUMP JUMPDEST SWAP1 POP PUSH0 PUSH1 0x64 PUSH8 0xDE0B6B3A7640000 DUP7 PUSH1 0x64 PUSH2 0xBA2 SWAP2 SWAP1 PUSH2 0x1961 JUMP JUMPDEST PUSH2 0xBAC SWAP2 SWAP1 PUSH2 0x1A22 JUMP JUMPDEST PUSH2 0xBB6 SWAP2 SWAP1 PUSH2 0x1A90 JUMP JUMPDEST SWAP1 POP PUSH0 PUSH8 0xDE0B6B3A7640000 DUP3 DUP5 PUSH2 0xBCE SWAP2 SWAP1 PUSH2 0x1A22 JUMP JUMPDEST PUSH2 0xBD8 SWAP2 SWAP1 PUSH2 0x1A90 JUMP JUMPDEST SWAP1 POP PUSH0 PUSH8 0xDE0B6B3A7640000 DUP7 DUP4 PUSH2 0xBF0 SWAP2 SWAP1 PUSH2 0x1A22 JUMP JUMPDEST PUSH2 0xBFA SWAP2 SWAP1 PUSH2 0x1A90 JUMP JUMPDEST SWAP1 POP PUSH0 DUP2 DUP9 PUSH2 0xC09 SWAP2 SWAP1 PUSH2 0x1AC0 JUMP JUMPDEST SWAP1 POP PUSH1 0x64 DUP2 GT ISZERO PUSH2 0xC19 JUMPI PUSH1 0x64 SWAP1 POP JUMPDEST DUP1 SWAP6 POP POP POP POP POP POP SWAP3 SWAP2 POP POP JUMP JUMPDEST PUSH1 0x60 PUSH0 DUP3 PUSH1 0x40 MLOAD PUSH1 0x20 ADD PUSH2 0xC3B SWAP2 SWAP1 PUSH2 0x14AC JUMP JUMPDEST PUSH1 0x40 MLOAD PUSH1 0x20 DUP2 DUP4 SUB SUB DUP2 MSTORE SWAP1 PUSH1 0x40 MSTORE DUP1 MLOAD SWAP1 PUSH1 0x20 ADD KECCAK256 SWAP1 POP PUSH2 0xC5C DUP2 PUSH2 0xC64 JUMP JUMPDEST SWAP2 POP POP SWAP2 SWAP1 POP JUMP JUMPDEST PUSH1 0x60 PUSH0 PUSH1 0x40 MLOAD DUP1 PUSH1 0x40 ADD PUSH1 0x40 MSTORE DUP1 PUSH1 0x10 DUP2 MSTORE PUSH1 0x20 ADD PUSH32 0x3031323334353637383961626364656600000000000000000000000000000000 DUP2 MSTORE POP SWAP1 POP PUSH0 PUSH1 0x40 PUSH8 0xFFFFFFFFFFFFFFFF DUP2 GT ISZERO PUSH2 0xCBB JUMPI PUSH2 0xCBA PUSH2 0x1142 JUMP JUMPDEST JUMPDEST PUSH1 0x40 MLOAD SWAP1 DUP1 DUP3 MSTORE DUP1 PUSH1 0x1F ADD PUSH1 0x1F NOT AND PUSH1 0x20 ADD DUP3 ADD PUSH1 0x40 MSTORE DUP1 ISZERO PUSH2 0xCED JUMPI DUP2 PUSH1 0x20 ADD PUSH1 0x1 DUP3 MUL DUP1 CALLDATASIZE DUP4 CALLDATACOPY DUP1 DUP3 ADD SWAP2 POP POP SWAP1 POP JUMPDEST POP SWAP1 POP PUSH0 JUMPDEST PUSH1 0x20 DUP2 LT ISZERO PUSH2 0xE4E JUMPI DUP3 PUSH1 0x4 DUP7 DUP4 PUSH1 0x20 DUP2 LT PUSH2 0xD11 JUMPI PUSH2 0xD10 PUSH2 0x1AF3 JUMP JUMPDEST JUMPDEST BYTE PUSH1 0xF8 SHL PUSH31 0xFFFFFFFFFFFFFFFFFFFFFFFFFFFFFFFFFFFFFFFFFFFFFFFFFFFFFFFFFFFFFF NOT AND SWAP1 SHR PUSH1 0xF8 SHR PUSH1 0xFF AND DUP2 MLOAD DUP2 LT PUSH2 0xD50 JUMPI PUSH2 0xD4F PUSH2 0x1AF3 JUMP JUMPDEST JUMPDEST PUSH1 0x20 ADD ADD MLOAD PUSH1 0xF8 SHR PUSH1 0xF8 SHL DUP3 PUSH1 0x2 DUP4 PUSH2 0xD69 SWAP2 SWAP1 PUSH2 0x1A22 JUMP JUMPDEST DUP2 MLOAD DUP2 LT PUSH2 0xD7A JUMPI PUSH2 0xD79 PUSH2 0x1AF3 JUMP JUMPDEST JUMPDEST PUSH1 0x20 ADD ADD SWAP1 PUSH31 0xFFFFFFFFFFFFFFFFFFFFFFFFFFFFFFFFFFFFFFFFFFFFFFFFFFFFFFFFFFFFFF NOT AND SWAP1 DUP2 PUSH0 BYTE SWAP1 MSTORE8 POP DUP3 PUSH1 0xF PUSH1 0xF8 SHL DUP7 DUP4 PUSH1 0x20 DUP2 LT PUSH2 0xDC1 JUMPI PUSH2 0xDC0 PUSH2 0x1AF3 JUMP JUMPDEST JUMPDEST BYTE PUSH1 0xF8 SHL AND PUSH1 0xF8 SHR PUSH1 0xFF AND DUP2 MLOAD DUP2 LT PUSH2 0xDDD JUMPI PUSH2 0xDDC PUSH2 0x1AF3 JUMP JUMPDEST JUMPDEST PUSH1 0x20 ADD ADD MLOAD PUSH1 0xF8 SHR PUSH1 0xF8 SHL DUP3 PUSH1 0x2 DUP4 PUSH2 0xDF6 SWAP2 SWAP1 PUSH2 0x1A22 JUMP JUMPDEST PUSH1 0x1 PUSH2 0xE02 SWAP2 SWAP1 PUSH2 0x1AC0 JUMP JUMPDEST DUP2 MLOAD DUP2 LT PUSH2 0xE13 JUMPI PUSH2 0xE12 PUSH2 0x1AF3 JUMP JUMPDEST JUMPDEST PUSH1 0x20 ADD ADD SWAP1 PUSH31 0xFFFFFFFFFFFFFFFFFFFFFFFFFFFFFFFFFFFFFFFFFFFFFFFFFFFFFFFFFFFFFF NOT AND SWAP1 DUP2 PUSH0 BYTE SWAP1 MSTORE8 POP DUP1 DUP1 PUSH1 0x1 ADD SWAP2 POP POP PUSH2 0xCF2 JUMP JUMPDEST POP DUP1 SWAP3 POP POP POP SWAP2 SWAP1 POP JUMP JUMPDEST PUSH1 0x40 MLOAD DUP1 PUSH1 0xA0 ADD PUSH1 0x40 MSTORE DUP1 PUSH1 0x60 DUP2 MSTORE PUSH1 0x20 ADD PUSH0 PUSH20 0xFFFFFFFFFFFFFFFFFFFFFFFFFFFFFFFFFFFFFFFF AND DUP2 MSTORE PUSH1 0x20 ADD PUSH0 DUP2 MSTORE PUSH1 0x20 ADD PUSH1 0x60 DUP2 MSTORE PUSH1 0x20 ADD PUSH0 ISZERO ISZERO DUP2 MSTORE POP SWAP1 JUMP JUMPDEST PUSH0 PUSH1 0x40 MLOAD SWAP1 POP SWAP1 JUMP JUMPDEST PUSH0 DUP1 REVERT JUMPDEST PUSH0 DUP1 REVERT JUMPDEST PUSH0 PUSH20 0xFFFFFFFFFFFFFFFFFFFFFFFFFFFFFFFFFFFFFFFF DUP3 AND SWAP1 POP SWAP2 SWAP1 POP JUMP JUMPDEST PUSH0 PUSH2 0xED7 DUP3 PUSH2 0xEAE JUMP JUMPDEST SWAP1 POP SWAP2 SWAP1 POP JUMP JUMPDEST PUSH2 0xEE7 DUP2 PUSH2 0xECD JUMP JUMPDEST DUP2 EQ PUSH2 0xEF1 JUMPI PUSH0 DUP1 REVERT JUMPDEST POP JUMP JUMPDEST PUSH0 DUP2 CALLDATALOAD SWAP1 POP PUSH2 0xF02 DUP2 PUSH2 0xEDE JUMP JUMPDEST SWAP3 SWAP2 POP POP JUMP JUMPDEST PUSH0 PUSH1 0x20 DUP3 DUP5 SUB SLT ISZERO PUSH2 0xF1D JUMPI PUSH2 0xF1C PUSH2 0xEA6 JUMP JUMPDEST JUMPDEST PUSH0 PUSH2 0xF2A DUP5 DUP3 DUP6 ADD PUSH2 0xEF4 JUMP JUMPDEST SWAP2 POP POP SWAP3 SWAP2 POP POP JUMP JUMPDEST PUSH0 DUP2 ISZERO ISZERO SWAP1 POP SWAP2 SWAP1 POP JUMP JUMPDEST PUSH2 0xF47 DUP2 PUSH2 0xF33 JUMP JUMPDEST DUP3 MSTORE POP POP JUMP JUMPDEST PUSH0 PUSH1 0x20 DUP3 ADD SWAP1 POP PUSH2 0xF60 PUSH0 DUP4 ADD DUP5 PUSH2 0xF3E JUMP JUMPDEST SWAP3 SWAP2 POP POP JUMP JUMPDEST PUSH0 DUP2 SWAP1 POP SWAP2 SWAP1 POP JUMP JUMPDEST PUSH2 0xF78 DUP2 PUSH2 0xF66 JUMP JUMPDEST DUP2 EQ PUSH2 0xF82 JUMPI PUSH0 DUP1 REVERT JUMPDEST POP JUMP JUMPDEST PUSH0 DUP2 CALLDATALOAD SWAP1 POP PUSH2 0xF93 DUP2 PUSH2 0xF6F JUMP JUMPDEST SWAP3 SWAP2 POP POP JUMP JUMPDEST PUSH0 DUP1 PUSH0 PUSH1 0x60 DUP5 DUP7 SUB SLT ISZERO PUSH2 0xFB0 JUMPI PUSH2 0xFAF PUSH2 0xEA6 JUMP JUMPDEST JUMPDEST PUSH0 PUSH2 0xFBD DUP7 DUP3 DUP8 ADD PUSH2 0xEF4 JUMP JUMPDEST SWAP4 POP POP PUSH1 0x20 PUSH2 0xFCE DUP7 DUP3 DUP8 ADD PUSH2 0xF85 JUMP JUMPDEST SWAP3 POP POP PUSH1 0x40 PUSH2 0xFDF DUP7 DUP3 DUP8 ADD PUSH2 0xF85 JUMP JUMPDEST SWAP2 POP POP SWAP3 POP SWAP3 POP SWAP3 JUMP JUMPDEST PUSH0 DUP2 MLOAD SWAP1 POP SWAP2 SWAP1 POP JUMP JUMPDEST PUSH0 DUP3 DUP3 MSTORE PUSH1 0x20 DUP3 ADD SWAP1 POP SWAP3 SWAP2 POP POP JUMP JUMPDEST PUSH0 JUMPDEST DUP4 DUP2 LT ISZERO PUSH2 0x1020 JUMPI DUP1 DUP3 ADD MLOAD DUP2 DUP5 ADD MSTORE PUSH1 0x20 DUP2 ADD SWAP1 POP PUSH2 0x1005 JUMP JUMPDEST PUSH0 DUP5 DUP5 ADD MSTORE POP POP POP POP JUMP JUMPDEST PUSH0 PUSH1 0x1F NOT PUSH1 0x1F DUP4 ADD AND SWAP1 POP SWAP2 SWAP1 POP JUMP JUMPDEST PUSH0 PUSH2 0x1045 DUP3 PUSH2 0xFE9 JUMP JUMPDEST PUSH2 0x104F DUP2 DUP6 PUSH2 0xFF3 JUMP JUMPDEST SWAP4 POP PUSH2 0x105F DUP2 DUP6 PUSH1 0x20 DUP7 ADD PUSH2 0x1003 JUMP JUMPDEST PUSH2 0x1068 DUP2 PUSH2 0x102B JUMP JUMPDEST DUP5 ADD SWAP2 POP POP SWAP3 SWAP2 POP POP JUMP JUMPDEST PUSH2 0x107C DUP2 PUSH2 0xECD JUMP JUMPDEST DUP3 MSTORE POP POP JUMP JUMPDEST PUSH2 0x108B DUP2 PUSH2 0xF66 JUMP JUMPDEST DUP3 MSTORE POP POP JUMP JUMPDEST PUSH2 0x109A DUP2 PUSH2 0xF33 JUMP JUMPDEST DUP3 MSTORE POP POP JUMP JUMPDEST PUSH0 PUSH1 0xA0 DUP4 ADD PUSH0 DUP4 ADD MLOAD DUP5 DUP3 SUB PUSH0 DUP7 ADD MSTORE PUSH2 0x10BA DUP3 DUP3 PUSH2 0x103B JUMP JUMPDEST SWAP2 POP POP PUSH1 0x20 DUP4 ADD MLOAD PUSH2 0x10CF PUSH1 0x20 DUP7 ADD DUP3 PUSH2 0x1073 JUMP JUMPDEST POP PUSH1 0x40 DUP4 ADD MLOAD PUSH2 0x10E2 PUSH1 0x40 DUP7 ADD DUP3 PUSH2 0x1082 JUMP JUMPDEST POP PUSH1 0x60 DUP4 ADD MLOAD DUP5 DUP3 SUB PUSH1 0x60 DUP7 ADD MSTORE PUSH2 0x10FA DUP3 DUP3 PUSH2 0x103B JUMP JUMPDEST SWAP2 POP POP PUSH1 0x80 DUP4 ADD MLOAD PUSH2 0x110F PUSH1 0x80 DUP7 ADD DUP3 PUSH2 0x1091 JUMP JUMPDEST POP DUP1 SWAP2 POP POP SWAP3 SWAP2 POP POP JUMP JUMPDEST PUSH0 PUSH1 0x20 DUP3 ADD SWAP1 POP DUP2 DUP2 SUB PUSH0 DUP4 ADD MSTORE PUSH2 0x1132 DUP2 DUP5 PUSH2 0x10A0 JUMP JUMPDEST SWAP1 POP SWAP3 SWAP2 POP POP JUMP JUMPDEST PUSH0 DUP1 REVERT JUMPDEST PUSH0 DUP1 REVERT JUMPDEST PUSH32 0x4E487B7100000000000000000000000000000000000000000000000000000000 PUSH0 MSTORE PUSH1 0x41 PUSH1 0x4 MSTORE PUSH1 0x24 PUSH0 REVERT JUMPDEST PUSH2 0x1178 DUP3 PUSH2 0x102B JUMP JUMPDEST DUP2 ADD DUP2 DUP2 LT PUSH8 0xFFFFFFFFFFFFFFFF DUP3 GT OR ISZERO PUSH2 0x1197 JUMPI PUSH2 0x1196 PUSH2 0x1142 JUMP JUMPDEST JUMPDEST DUP1 PUSH1 0x40 MSTORE POP POP POP JUMP JUMPDEST PUSH0 PUSH2 0x11A9 PUSH2 0xE9D JUMP JUMPDEST SWAP1 POP PUSH2 0x11B5 DUP3 DUP3 PUSH2 0x116F JUMP JUMPDEST SWAP2 SWAP1 POP JUMP JUMPDEST PUSH0 PUSH8 0xFFFFFFFFFFFFFFFF DUP3 GT ISZERO PUSH2 0x11D4 JUMPI PUSH2 0x11D3 PUSH2 0x1142 JUMP JUMPDEST JUMPDEST PUSH2 0x11DD DUP3 PUSH2 0x102B JUMP JUMPDEST SWAP1 POP PUSH1 0x20 DUP2 ADD SWAP1 POP SWAP2 SWAP1 POP JUMP JUMPDEST DUP3 DUP2 DUP4 CALLDATACOPY PUSH0 DUP4 DUP4 ADD MSTORE POP POP POP JUMP JUMPDEST PUSH0 PUSH2 0x120A PUSH2 0x1205 DUP5 PUSH2 0x11BA JUMP JUMPDEST PUSH2 0x11A0 JUMP JUMPDEST SWAP1 POP DUP3 DUP2 MSTORE PUSH1 0x20 DUP2 ADD DUP5 DUP5 DUP5 ADD GT ISZERO PUSH2 0x1226 JUMPI PUSH2 0x1225 PUSH2 0x113E JUMP JUMPDEST JUMPDEST PUSH2 0x1231 DUP5 DUP3 DUP6 PUSH2 0x11EA JUMP JUMPDEST POP SWAP4 SWAP3 POP POP POP JUMP JUMPDEST PUSH0 DUP3 PUSH1 0x1F DUP4 ADD SLT PUSH2 0x124D JUMPI PUSH2 0x124C PUSH2 0x113A JUMP JUMPDEST JUMPDEST DUP2 CALLDATALOAD PUSH2 0x125D DUP5 DUP3 PUSH1 0x20 DUP7 ADD PUSH2 0x11F8 JUMP JUMPDEST SWAP2 POP POP SWAP3 SWAP2 POP POP JUMP JUMPDEST PUSH0 DUP1 PUSH1 0x40 DUP4 DUP6 SUB SLT ISZERO PUSH2 0x127C JUMPI PUSH2 0x127B PUSH2 0xEA6 JUMP JUMPDEST JUMPDEST PUSH0 DUP4 ADD CALLDATALOAD PUSH8 0xFFFFFFFFFFFFFFFF DUP2 GT ISZERO PUSH2 0x1299 JUMPI PUSH2 0x1298 PUSH2 0xEAA JUMP JUMPDEST JUMPDEST PUSH2 0x12A5 DUP6 DUP3 DUP7 ADD PUSH2 0x1239 JUMP JUMPDEST SWAP3 POP POP PUSH1 0x20 DUP4 ADD CALLDATALOAD PUSH8 0xFFFFFFFFFFFFFFFF DUP2 GT ISZERO PUSH2 0x12C6 JUMPI PUSH2 0x12C5 PUSH2 0xEAA JUMP JUMPDEST JUMPDEST PUSH2 0x12D2 DUP6 DUP3 DUP7 ADD PUSH2 0x1239 JUMP JUMPDEST SWAP2 POP POP SWAP3 POP SWAP3 SWAP1 POP JUMP JUMPDEST PUSH2 0x12E5 DUP2 PUSH2 0xF66 JUMP JUMPDEST DUP3 MSTORE POP POP JUMP JUMPDEST PUSH0 PUSH1 0x20 DUP3 ADD SWAP1 POP PUSH2 0x12FE PUSH0 DUP4 ADD DUP5 PUSH2 0x12DC JUMP JUMPDEST SWAP3 SWAP2 POP POP JUMP JUMPDEST PUSH0 DUP1 PUSH1 0x40 DUP4 DUP6 SUB SLT ISZERO PUSH2 0x131A JUMPI PUSH2 0x1319 PUSH2 0xEA6 JUMP JUMPDEST JUMPDEST PUSH0 PUSH2 0x1327 DUP6 DUP3 DUP7 ADD PUSH2 0xEF4 JUMP JUMPDEST SWAP3 POP POP PUSH1 0x20 PUSH2 0x1338 DUP6 DUP3 DUP7 ADD PUSH2 0xF85 JUMP JUMPDEST SWAP2 POP POP SWAP3 POP SWAP3 SWAP1 POP JUMP JUMPDEST PUSH0 PUSH1 0x20 DUP3 DUP5 SUB SLT ISZERO PUSH2 0x1357 JUMPI PUSH2 0x1356 PUSH2 0xEA6 JUMP JUMPDEST JUMPDEST PUSH0 PUSH2 0x1364 DUP5 DUP3 DUP6 ADD PUSH2 0xF85 JUMP JUMPDEST SWAP2 POP POP SWAP3 SWAP2 POP POP JUMP JUMPDEST PUSH32 0x4E487B7100000000000000000000000000000000000000000000000000000000 PUSH0 MSTORE PUSH1 0x22 PUSH1 0x4 MSTORE PUSH1 0x24 PUSH0 REVERT JUMPDEST PUSH0 PUSH1 0x2 DUP3 DIV SWAP1 POP PUSH1 0x1 DUP3 AND DUP1 PUSH2 0x13B1 JUMPI PUSH1 0x7F DUP3 AND SWAP2 POP JUMPDEST PUSH1 0x20 DUP3 LT DUP2 SUB PUSH2 0x13C4 JUMPI PUSH2 0x13C3 PUSH2 0x136D JUMP JUMPDEST JUMPDEST POP SWAP2 SWAP1 POP JUMP JUMPDEST PUSH0 DUP2 SWAP1 POP SWAP3 SWAP2 POP POP JUMP JUMPDEST PUSH0 DUP2 SWAP1 POP DUP2 PUSH0 MSTORE PUSH1 0x20 PUSH0 KECCAK256 SWAP1 POP SWAP2 SWAP1 POP JUMP JUMPDEST PUSH0 DUP2 SLOAD PUSH2 0x13F2 DUP2 PUSH2 0x139A JUMP JUMPDEST PUSH2 0x13FC DUP2 DUP7 PUSH2 0x13CA JUMP JUMPDEST SWAP5 POP PUSH1 0x1 DUP3 AND PUSH0 DUP2 EQ PUSH2 0x1416 JUMPI PUSH1 0x1 DUP2 EQ PUSH2 0x142B JUMPI PUSH2 0x145D JUMP JUMPDEST PUSH1 0xFF NOT DUP4 AND DUP7 MSTORE DUP2 ISZERO ISZERO DUP3 MUL DUP7 ADD SWAP4 POP PUSH2 0x145D JUMP JUMPDEST PUSH2 0x1434 DUP6 PUSH2 0x13D4 JUMP JUMPDEST PUSH0 JUMPDEST DUP4 DUP2 LT ISZERO PUSH2 0x1455 JUMPI DUP2 SLOAD DUP2 DUP10 ADD MSTORE PUSH1 0x1 DUP3 ADD SWAP2 POP PUSH1 0x20 DUP2 ADD SWAP1 POP PUSH2 0x1436 JUMP JUMPDEST DUP4 DUP9 ADD SWAP6 POP POP POP JUMPDEST POP POP POP SWAP3 SWAP2 POP POP JUMP JUMPDEST PUSH0 PUSH2 0x1471 DUP3 DUP5 PUSH2 0x13E6 JUMP JUMPDEST SWAP2 POP DUP2 SWAP1 POP SWAP3 SWAP2 POP POP JUMP JUMPDEST PUSH0 PUSH2 0x1486 DUP3 PUSH2 0xFE9 JUMP JUMPDEST PUSH2 0x1490 DUP2 DUP6 PUSH2 0x13CA JUMP JUMPDEST SWAP4 POP PUSH2 0x14A0 DUP2 DUP6 PUSH1 0x20 DUP7 ADD PUSH2 0x1003 JUMP JUMPDEST DUP1 DUP5 ADD SWAP2 POP POP SWAP3 SWAP2 POP POP JUMP JUMPDEST PUSH0 PUSH2 0x14B7 DUP3 DUP5 PUSH2 0x147C JUMP JUMPDEST SWAP2 POP DUP2 SWAP1 POP SWAP3 SWAP2 POP POP JUMP JUMPDEST PUSH0 DUP3 DUP3 MSTORE PUSH1 0x20 DUP3 ADD SWAP1 POP SWAP3 SWAP2 POP POP JUMP JUMPDEST PUSH32 0x616464726573732063616E27742062652061207A65726F206164647265737300 PUSH0 DUP3 ADD MSTORE POP JUMP JUMPDEST PUSH0 PUSH2 0x1506 PUSH1 0x1F DUP4 PUSH2 0x14C2 JUMP JUMPDEST SWAP2 POP PUSH2 0x1511 DUP3 PUSH2 0x14D2 JUMP JUMPDEST PUSH1 0x20 DUP3 ADD SWAP1 POP SWAP2 SWAP1 POP JUMP JUMPDEST PUSH0 PUSH1 0x20 DUP3 ADD SWAP1 POP DUP2 DUP2 SUB PUSH0 DUP4 ADD MSTORE PUSH2 0x1533 DUP2 PUSH2 0x14FA JUMP JUMPDEST SWAP1 POP SWAP2 SWAP1 POP JUMP JUMPDEST PUSH32 0x7468652061646472657373206861766E277420626F756E640000000000000000 PUSH0 DUP3 ADD MSTORE POP JUMP JUMPDEST PUSH0 PUSH2 0x156E PUSH1 0x18 DUP4 PUSH2 0x14C2 JUMP JUMPDEST SWAP2 POP PUSH2 0x1579 DUP3 PUSH2 0x153A JUMP JUMPDEST PUSH1 0x20 DUP3 ADD SWAP1 POP SWAP2 SWAP1 POP JUMP JUMPDEST PUSH0 PUSH1 0x20 DUP3 ADD SWAP1 POP DUP2 DUP2 SUB PUSH0 DUP4 ADD MSTORE PUSH2 0x159B DUP2 PUSH2 0x1562 JUMP JUMPDEST SWAP1 POP SWAP2 SWAP1 POP JUMP JUMPDEST PUSH32 0x494420697320626C61636B6C6973746564000000000000000000000000000000 PUSH0 DUP3 ADD MSTORE POP JUMP JUMPDEST PUSH0 PUSH2 0x15D6 PUSH1 0x11 DUP4 PUSH2 0x14C2 JUMP JUMPDEST SWAP2 POP PUSH2 0x15E1 DUP3 PUSH2 0x15A2 JUMP JUMPDEST PUSH1 0x20 DUP3 ADD SWAP1 POP SWAP2 SWAP1 POP JUMP JUMPDEST PUSH0 PUSH1 0x20 DUP3 ADD SWAP1 POP DUP2 DUP2 SUB PUSH0 DUP4 ADD MSTORE PUSH2 0x1603 DUP2 PUSH2 0x15CA JUMP JUMPDEST SWAP1 POP SWAP2 SWAP1 POP JUMP JUMPDEST PUSH32 0x4164647265737320616C726561647920626F756E640000000000000000000000 PUSH0 DUP3 ADD MSTORE POP JUMP JUMPDEST PUSH0 PUSH2 0x163E PUSH1 0x15 DUP4 PUSH2 0x14C2 JUMP JUMPDEST SWAP2 POP PUSH2 0x1649 DUP3 PUSH2 0x160A JUMP JUMPDEST PUSH1 0x20 DUP3 ADD SWAP1 POP SWAP2 SWAP1 POP JUMP JUMPDEST PUSH0 PUSH1 0x20 DUP3 ADD SWAP1 POP DUP2 DUP2 SUB PUSH0 DUP4 ADD MSTORE PUSH2 0x166B DUP2 PUSH2 0x1632 JUMP JUMPDEST SWAP1 POP SWAP2 SWAP1 POP JUMP JUMPDEST PUSH32 0x494420616C726561647920626F756E6400000000000000000000000000000000 PUSH0 DUP3 ADD MSTORE POP JUMP JUMPDEST PUSH0 PUSH2 0x16A6 PUSH1 0x10 DUP4 PUSH2 0x14C2 JUMP JUMPDEST SWAP2 POP PUSH2 0x16B1 DUP3 PUSH2 0x1672 JUMP JUMPDEST PUSH1 0x20 DUP3 ADD SWAP1 POP SWAP2 SWAP1 POP JUMP JUMPDEST PUSH0 PUSH1 0x20 DUP3 ADD SWAP1 POP DUP2 DUP2 SUB PUSH0 DUP4 ADD MSTORE PUSH2 0x16D3 DUP2 PUSH2 0x169A JUMP JUMPDEST SWAP1 POP SWAP2 SWAP1 POP JUMP JUMPDEST PUSH0 PUSH1 0x20 PUSH1 0x1F DUP4 ADD DIV SWAP1 POP SWAP2 SWAP1 POP JUMP JUMPDEST PUSH0 DUP3 DUP3 SHL SWAP1 POP SWAP3 SWAP2 POP POP JUMP JUMPDEST PUSH0 PUSH1 0x8 DUP4 MUL PUSH2 0x1724 PUSH32 0xFFFFFFFFFFFFFFFFFFFFFFFFFFFFFFFFFFFFFFFFFFFFFFFFFFFFFFFFFFFFFFFF DUP3 PUSH2 0x16E9 JUMP JUMPDEST PUSH2 0x172E DUP7 DUP4 PUSH2 0x16E9 JUMP JUMPDEST SWAP6 POP DUP1 NOT DUP5 AND SWAP4 POP DUP1 DUP7 AND DUP5 OR SWAP3 POP POP POP SWAP4 SWAP3 POP POP POP JUMP JUMPDEST PUSH0 DUP2 SWAP1 POP SWAP2 SWAP1 POP JUMP JUMPDEST PUSH0 PUSH2 0x1769 PUSH2 0x1764 PUSH2 0x175F DUP5 PUSH2 0xF66 JUMP JUMPDEST PUSH2 0x1746 JUMP JUMPDEST PUSH2 0xF66 JUMP JUMPDEST SWAP1 POP SWAP2 SWAP1 POP JUMP JUMPDEST PUSH0 DUP2 SWAP1 POP SWAP2 SWAP1 POP JUMP JUMPDEST PUSH2 0x1782 DUP4 PUSH2 0x174F JUMP JUMPDEST PUSH2 0x1796 PUSH2 0x178E DUP3 PUSH2 0x1770 JUMP JUMPDEST DUP5 DUP5 SLOAD PUSH2 0x16F5 JUMP JUMPDEST DUP3 SSTORE POP POP POP POP JUMP JUMPDEST PUSH0 SWAP1 JUMP JUMPDEST PUSH2 0x17AA PUSH2 0x179E JUMP JUMPDEST PUSH2 0x17B5 DUP2 DUP5 DUP5 PUSH2 0x1779 JUMP JUMPDEST POP POP POP JUMP JUMPDEST JUMPDEST DUP2 DUP2 LT ISZERO PUSH2 0x17D8 JUMPI PUSH2 0x17CD PUSH0 DUP3 PUSH2 0x17A2 JUMP JUMPDEST PUSH1 0x1 DUP2 ADD SWAP1 POP PUSH2 0x17BB JUMP JUMPDEST POP POP JUMP JUMPDEST PUSH1 0x1F DUP3 GT ISZERO PUSH2 0x181D JUMPI PUSH2 0x17EE DUP2 PUSH2 0x13D4 JUMP JUMPDEST PUSH2 0x17F7 DUP5 PUSH2 0x16DA JUMP JUMPDEST DUP2 ADD PUSH1 0x20 DUP6 LT ISZERO PUSH2 0x1806 JUMPI DUP2 SWAP1 POP JUMPDEST PUSH2 0x181A PUSH2 0x1812 DUP6 PUSH2 0x16DA JUMP JUMPDEST DUP4 ADD DUP3 PUSH2 0x17BA JUMP JUMPDEST POP POP JUMPDEST POP POP POP JUMP JUMPDEST PUSH0 DUP3 DUP3 SHR SWAP1 POP SWAP3 SWAP2 POP POP JUMP JUMPDEST PUSH0 PUSH2 0x183D PUSH0 NOT DUP5 PUSH1 0x8 MUL PUSH2 0x1822 JUMP JUMPDEST NOT DUP1 DUP4 AND SWAP2 POP POP SWAP3 SWAP2 POP POP JUMP JUMPDEST PUSH0 PUSH2 0x1855 DUP4 DUP4 PUSH2 0x182E JUMP JUMPDEST SWAP2 POP DUP3 PUSH1 0x2 MUL DUP3 OR SWAP1 POP SWAP3 SWAP2 POP POP JUMP JUMPDEST PUSH2 0x186E DUP3 PUSH2 0xFE9 JUMP JUMPDEST PUSH8 0xFFFFFFFFFFFFFFFF DUP2 GT ISZERO PUSH2 0x1887 JUMPI PUSH2 0x1886 PUSH2 0x1142 JUMP JUMPDEST JUMPDEST PUSH2 0x1891 DUP3 SLOAD PUSH2 0x139A JUMP JUMPDEST PUSH2 0x189C DUP3 DUP3 DUP6 PUSH2 0x17DC JUMP JUMPDEST PUSH0 PUSH1 0x20 SWAP1 POP PUSH1 0x1F DUP4 GT PUSH1 0x1 DUP2 EQ PUSH2 0x18CD JUMPI PUSH0 DUP5 ISZERO PUSH2 0x18BB JUMPI DUP3 DUP8 ADD MLOAD SWAP1 POP JUMPDEST PUSH2 0x18C5 DUP6 DUP3 PUSH2 0x184A JUMP JUMPDEST DUP7 SSTORE POP PUSH2 0x192C JUMP JUMPDEST PUSH1 0x1F NOT DUP5 AND PUSH2 0x18DB DUP7 PUSH2 0x13D4 JUMP JUMPDEST PUSH0 JUMPDEST DUP3 DUP2 LT ISZERO PUSH2 0x1902 JUMPI DUP5 DUP10 ADD MLOAD DUP3 SSTORE PUSH1 0x1 DUP3 ADD SWAP2 POP PUSH1 0x20 DUP6 ADD SWAP5 POP PUSH1 0x20 DUP2 ADD SWAP1 POP PUSH2 0x18DD JUMP JUMPDEST DUP7 DUP4 LT ISZERO PUSH2 0x191F JUMPI DUP5 DUP10 ADD MLOAD PUSH2 0x191B PUSH1 0x1F DUP10 AND DUP3 PUSH2 0x182E JUMP JUMPDEST DUP4 SSTORE POP JUMPDEST PUSH1 0x1 PUSH1 0x2 DUP9 MUL ADD DUP9 SSTORE POP POP POP JUMPDEST POP POP POP POP POP POP JUMP JUMPDEST PUSH32 0x4E487B7100000000000000000000000000000000000000000000000000000000 PUSH0 MSTORE PUSH1 0x11 PUSH1 0x4 MSTORE PUSH1 0x24 PUSH0 REVERT JUMPDEST PUSH0 PUSH2 0x196B DUP3 PUSH2 0xF66 JUMP JUMPDEST SWAP2 POP PUSH2 0x1976 DUP4 PUSH2 0xF66 JUMP JUMPDEST SWAP3 POP DUP3 DUP3 SUB SWAP1 POP DUP2 DUP2 GT ISZERO PUSH2 0x198E JUMPI PUSH2 0x198D PUSH2 0x1934 JUMP JUMPDEST JUMPDEST SWAP3 SWAP2 POP POP JUMP JUMPDEST PUSH32 0x506C6561736520626F756E64207769746820796F7572206964656E7469666963 PUSH0 DUP3 ADD MSTORE PUSH32 0x6174696F6E210000000000000000000000000000000000000000000000000000 PUSH1 0x20 DUP3 ADD MSTORE POP JUMP JUMPDEST PUSH0 PUSH2 0x19EE PUSH1 0x26 DUP4 PUSH2 0x14C2 JUMP JUMPDEST SWAP2 POP PUSH2 0x19F9 DUP3 PUSH2 0x1994 JUMP JUMPDEST PUSH1 0x40 DUP3 ADD SWAP1 POP SWAP2 SWAP1 POP JUMP JUMPDEST PUSH0 PUSH1 0x20 DUP3 ADD SWAP1 POP DUP2 DUP2 SUB PUSH0 DUP4 ADD MSTORE PUSH2 0x1A1B DUP2 PUSH2 0x19E2 JUMP JUMPDEST SWAP1 POP SWAP2 SWAP1 POP JUMP JUMPDEST PUSH0 PUSH2 0x1A2C DUP3 PUSH2 0xF66 JUMP JUMPDEST SWAP2 POP PUSH2 0x1A37 DUP4 PUSH2 0xF66 JUMP JUMPDEST SWAP3 POP DUP3 DUP3 MUL PUSH2 0x1A45 DUP2 PUSH2 0xF66 JUMP JUMPDEST SWAP2 POP DUP3 DUP3 DIV DUP5 EQ DUP4 ISZERO OR PUSH2 0x1A5C JUMPI PUSH2 0x1A5B PUSH2 0x1934 JUMP JUMPDEST JUMPDEST POP SWAP3 SWAP2 POP POP JUMP JUMPDEST PUSH32 0x4E487B7100000000000000000000000000000000000000000000000000000000 PUSH0 MSTORE PUSH1 0x12 PUSH1 0x4 MSTORE PUSH1 0x24 PUSH0 REVERT JUMPDEST PUSH0 PUSH2 0x1A9A DUP3 PUSH2 0xF66 JUMP JUMPDEST SWAP2 POP PUSH2 0x1AA5 DUP4 PUSH2 0xF66 JUMP JUMPDEST SWAP3 POP DUP3 PUSH2 0x1AB5 JUMPI PUSH2 0x1AB4 PUSH2 0x1A63 JUMP JUMPDEST JUMPDEST DUP3 DUP3 DIV SWAP1 POP SWAP3 SWAP2 POP POP JUMP JUMPDEST PUSH0 PUSH2 0x1ACA DUP3 PUSH2 0xF66 JUMP JUMPDEST SWAP2 POP PUSH2 0x1AD5 DUP4 PUSH2 0xF66 JUMP JUMPDEST SWAP3 POP DUP3 DUP3 ADD SWAP1 POP DUP1 DUP3 GT ISZERO PUSH2 0x1AED JUMPI PUSH2 0x1AEC PUSH2 0x1934 JUMP JUMPDEST JUMPDEST SWAP3 SWAP2 POP POP JUMP JUMPDEST PUSH32 0x4E487B7100000000000000000000000000000000000000000000000000000000 PUSH0 MSTORE PUSH1 0x32 PUSH1 0x4 MSTORE PUSH1 0x24 PUSH0 REVERT INVALID LOG2 PUSH5 0x6970667358 0x22 SLT KECCAK256 PUSH16 0x939555144B584C7F76E6FEC2575E729A 0xB3 0xB5 RETURN 0xE2 GASPRICE 0xAF SWAP11 0xF9 SELFDESTRUCT 0xBA 0xDE PREVRANDAO INVALID 0x5C DUP13 PUSH5 0x736F6C6343 STOP ADDMOD AND STOP CALLER "
				},
				"gasEstimates": {
					"creation": {
						"codeDepositCost": "1399600",
						"executionCost": "1456",
						"totalCost": "1401056"
					},
					"external": {
						"_addBlacklisted(address)": "infinite",
						"_isBlacklisted(address)": "infinite",
						"addUserReputation(address,uint256,uint256)": "infinite",
						"deputeUserReputation(address,uint256)": "infinite",
						"getUserInfo(address)": "infinite",
						"getUserReputation(address)": "5214",
						"isAddressBound(address)": "2968",
						"setReputationWhiteUser(uint256)": "25228",
						"verify(string,string)": "infinite"
					},
					"internal": {
						"calculateReputationIncrease(uint256,uint256)": "infinite",
						"hashId(string memory)": "infinite",
						"isIdBound(string memory)": "infinite",
						"toHexString(bytes32)": "infinite"
					}
				},
				"methodIdentifiers": {
					"_addBlacklisted(address)": "3ad87fa1",
					"_isBlacklisted(address)": "1cdd3be3",
					"addUserReputation(address,uint256,uint256)": "5c0e5f88",
					"deputeUserReputation(address,uint256)": "cf093926",
					"getUserInfo(address)": "6386c1c7",
					"getUserReputation(address)": "baccbfdb",
					"isAddressBound(address)": "4cfcf646",
					"setReputationWhiteUser(uint256)": "ed0d19b7",
					"verify(string,string)": "9deb17f5"
				}
			},
			"storageLayout": {
				"storage": [
					{
						"astId": 19,
						"contract": "userInformation.sol:userInformation",
						"label": "isBlacklisted",
						"offset": 0,
						"slot": "0",
						"type": "t_mapping(t_string_memory_ptr,t_bool)"
					},
					{
						"astId": 24,
						"contract": "userInformation.sol:userInformation",
						"label": "userInfos",
						"offset": 0,
						"slot": "1",
						"type": "t_mapping(t_address,t_struct(UserInfo)12_storage)"
					},
					{
						"astId": 28,
						"contract": "userInformation.sol:userInformation",
						"label": "isBoundId",
						"offset": 0,
						"slot": "2",
						"type": "t_mapping(t_string_memory_ptr,t_bool)"
					}
				],
				"types": {
					"t_address": {
						"encoding": "inplace",
						"label": "address",
						"numberOfBytes": "20"
					},
					"t_bool": {
						"encoding": "inplace",
						"label": "bool",
						"numberOfBytes": "1"
					},
					"t_mapping(t_address,t_struct(UserInfo)12_storage)": {
						"encoding": "mapping",
						"key": "t_address",
						"label": "mapping(address => struct IUserInformation.UserInfo)",
						"numberOfBytes": "32",
						"value": "t_struct(UserInfo)12_storage"
					},
					"t_mapping(t_string_memory_ptr,t_bool)": {
						"encoding": "mapping",
						"key": "t_string_memory_ptr",
						"label": "mapping(string => bool)",
						"numberOfBytes": "32",
						"value": "t_bool"
					},
					"t_string_memory_ptr": {
						"encoding": "bytes",
						"label": "string",
						"numberOfBytes": "32"
					},
					"t_string_storage": {
						"encoding": "bytes",
						"label": "string",
						"numberOfBytes": "32"
					},
					"t_struct(UserInfo)12_storage": {
						"encoding": "inplace",
						"label": "struct IUserInformation.UserInfo",
						"members": [
							{
								"astId": 3,
								"contract": "userInformation.sol:userInformation",
								"label": "idHash",
								"offset": 0,
								"slot": "0",
								"type": "t_string_storage"
							},
							{
								"astId": 5,
								"contract": "userInformation.sol:userInformation",
								"label": "wallet",
								"offset": 0,
								"slot": "1",
								"type": "t_address"
							},
							{
								"astId": 7,
								"contract": "userInformation.sol:userInformation",
								"label": "reputation",
								"offset": 0,
								"slot": "2",
								"type": "t_uint256"
							},
							{
								"astId": 9,
								"contract": "userInformation.sol:userInformation",
								"label": "number",
								"offset": 0,
								"slot": "3",
								"type": "t_string_storage"
							},
							{
								"astId": 11,
								"contract": "userInformation.sol:userInformation",
								"label": "isBound",
								"offset": 0,
								"slot": "4",
								"type": "t_bool"
							}
						],
						"numberOfBytes": "160"
					},
					"t_uint256": {
						"encoding": "inplace",
						"label": "uint256",
						"numberOfBytes": "32"
					}
				}
			},
			"userdoc": {
				"kind": "user",
				"methods": {},
				"version": 1
			}
		}
	}
}