{
	"propertyManagement.sol": {
		"propertyManagement": {
			"abi": [
				{
					"anonymous": false,
					"inputs": [
						{
							"indexed": false,
							"internalType": "uint256",
							"name": "propertyId",
							"type": "uint256"
						},
						{
							"indexed": false,
							"internalType": "bool",
							"name": "isAvailable",
							"type": "bool"
						},
						{
							"indexed": false,
							"internalType": "uint256",
							"name": "monthlyRent",
							"type": "uint256"
						},
						{
							"indexed": false,
							"internalType": "string",
							"name": "propertyType",
							"type": "string"
						},
						{
							"indexed": false,
							"internalType": "string",
							"name": "description",
							"type": "string"
						},
						{
							"indexed": false,
							"internalType": "string",
							"name": "location",
							"type": "string"
						},
						{
							"indexed": false,
							"internalType": "address",
							"name": "owner",
							"type": "address"
						}
					],
					"name": "PropertyAdded",
					"type": "event"
				},
				{
					"inputs": [
						{
							"internalType": "bool",
							"name": "_isAvailable",
							"type": "bool"
						},
						{
							"internalType": "uint256",
							"name": "_monthlyRent",
							"type": "uint256"
						},
						{
							"internalType": "string",
							"name": "_propertyType",
							"type": "string"
						},
						{
							"internalType": "string",
							"name": "_description",
							"type": "string"
						},
						{
							"internalType": "string",
							"name": "_location",
							"type": "string"
						}
					],
					"name": "addProperty",
					"outputs": [
						{
							"internalType": "bool",
							"name": "",
							"type": "bool"
						}
					],
					"stateMutability": "nonpayable",
					"type": "function"
				},
				{
					"inputs": [
						{
							"internalType": "uint256",
							"name": "_propertyId",
							"type": "uint256"
						}
					],
					"name": "getProperty",
					"outputs": [
						{
							"components": [
								{
									"internalType": "uint256",
									"name": "propertyId",
									"type": "uint256"
								},
								{
									"internalType": "bool",
									"name": "isAvailable",
									"type": "bool"
								},
								{
									"internalType": "bool",
									"name": "isWithdraw",
									"type": "bool"
								},
								{
									"internalType": "uint256",
									"name": "monthlyRent",
									"type": "uint256"
								},
								{
									"internalType": "string",
									"name": "propertyType",
									"type": "string"
								},
								{
									"internalType": "string",
									"name": "description",
									"type": "string"
								},
								{
									"internalType": "string",
									"name": "location",
									"type": "string"
								},
								{
									"internalType": "address",
									"name": "owner",
									"type": "address"
								}
							],
							"internalType": "struct propertyManagement.Property",
							"name": "",
							"type": "tuple"
						}
					],
					"stateMutability": "view",
					"type": "function"
				},
				{
					"inputs": [
						{
							"internalType": "uint256",
							"name": "_propertyId",
							"type": "uint256"
						}
					],
					"name": "getPropertyOwner",
					"outputs": [
						{
							"internalType": "address",
							"name": "",
							"type": "address"
						}
					],
					"stateMutability": "view",
					"type": "function"
				},
				{
					"inputs": [
						{
							"internalType": "uint256",
							"name": "",
							"type": "uint256"
						}
					],
					"name": "properties",
					"outputs": [
						{
							"internalType": "uint256",
							"name": "propertyId",
							"type": "uint256"
						},
						{
							"internalType": "bool",
							"name": "isAvailable",
							"type": "bool"
						},
						{
							"internalType": "bool",
							"name": "isWithdraw",
							"type": "bool"
						},
						{
							"internalType": "uint256",
							"name": "monthlyRent",
							"type": "uint256"
						},
						{
							"internalType": "string",
							"name": "propertyType",
							"type": "string"
						},
						{
							"internalType": "string",
							"name": "description",
							"type": "string"
						},
						{
							"internalType": "string",
							"name": "location",
							"type": "string"
						},
						{
							"internalType": "address",
							"name": "owner",
							"type": "address"
						}
					],
					"stateMutability": "view",
					"type": "function"
				},
				{
					"inputs": [],
					"name": "propertyCount",
					"outputs": [
						{
							"internalType": "uint256",
							"name": "",
							"type": "uint256"
						}
					],
					"stateMutability": "view",
					"type": "function"
				},
				{
					"inputs": [
						{
							"internalType": "uint256",
							"name": "_propertyId",
							"type": "uint256"
						},
						{
							"internalType": "bool",
							"name": "_isAvailable",
							"type": "bool"
						}
					],
					"name": "updateAvailability",
					"outputs": [
						{
							"internalType": "bool",
							"name": "",
							"type": "bool"
						}
					],
					"stateMutability": "nonpayable",
					"type": "function"
				},
				{
					"inputs": [
						{
							"internalType": "uint256",
							"name": "_propertyId",
							"type": "uint256"
						},
						{
							"internalType": "string",
							"name": "_description",
							"type": "string"
						}
					],
					"name": "updateMonthlyDescription",
					"outputs": [
						{
							"internalType": "bool",
							"name": "",
							"type": "bool"
						}
					],
					"stateMutability": "nonpayable",
					"type": "function"
				},
				{
					"inputs": [
						{
							"internalType": "uint256",
							"name": "_propertyId",
							"type": "uint256"
						},
						{
							"internalType": "uint256",
							"name": "_monthlyRent",
							"type": "uint256"
						}
					],
					"name": "updateMonthlyRent",
					"outputs": [
						{
							"internalType": "bool",
							"name": "",
							"type": "bool"
						}
					],
					"stateMutability": "nonpayable",
					"type": "function"
				},
				{
					"inputs": [
						{
							"internalType": "uint256",
							"name": "_propertyId",
							"type": "uint256"
						},
						{
							"internalType": "bool",
							"name": "_isWithdraw",
							"type": "bool"
						}
					],
					"name": "updateWithdrawal",
					"outputs": [
						{
							"internalType": "bool",
							"name": "",
							"type": "bool"
						}
					],
					"stateMutability": "nonpayable",
					"type": "function"
				}
			],
			"devdoc": {
				"kind": "dev",
				"methods": {},
				"version": 1
			},
			"evm": {
				"assembly": "    /* \"propertyManagement.sol\":160:3503  contract propertyManagement{... */\n  mstore(0x40, 0x80)\n  callvalue\n  dup1\n  iszero\n  tag_1\n  jumpi\n  0x00\n  dup1\n  revert\ntag_1:\n  pop\n  dataSize(sub_0)\n  dup1\n  dataOffset(sub_0)\n  0x00\n  codecopy\n  0x00\n  return\nstop\n\nsub_0: assembly {\n        /* \"propertyManagement.sol\":160:3503  contract propertyManagement{... */\n      mstore(0x40, 0x80)\n      callvalue\n      dup1\n      iszero\n      tag_1\n      jumpi\n      0x00\n      dup1\n      revert\n    tag_1:\n      pop\n      jumpi(tag_2, lt(calldatasize, 0x04))\n      shr(0xe0, calldataload(0x00))\n      dup1\n      0xd0921936\n      gt\n      tag_12\n      jumpi\n      dup1\n      0xd0921936\n      eq\n      tag_7\n      jumpi\n      dup1\n      0xdbda146d\n      eq\n      tag_8\n      jumpi\n      dup1\n      0xe34fc531\n      eq\n      tag_9\n      jumpi\n      dup1\n      0xe61439d8\n      eq\n      tag_10\n      jumpi\n      dup1\n      0xf7b10808\n      eq\n      tag_11\n      jumpi\n      jump(tag_2)\n    tag_12:\n      dup1\n      0x2864e4a9\n      eq\n      tag_3\n      jumpi\n      dup1\n      0x32665ffb\n      eq\n      tag_4\n      jumpi\n      dup1\n      0x89f40d93\n      eq\n      tag_5\n      jumpi\n      dup1\n      0xc361a335\n      eq\n      tag_6\n      jumpi\n    tag_2:\n      0x00\n      dup1\n      revert\n        /* \"propertyManagement.sol\":2308:2539  function updateAvailability(... */\n    tag_3:\n      tag_13\n      0x04\n      dup1\n      calldatasize\n      sub\n      dup2\n      add\n      swap1\n      tag_14\n      swap2\n      swap1\n      tag_15\n      jump\t// in\n    tag_14:\n      tag_16\n      jump\t// in\n    tag_13:\n      mload(0x40)\n      tag_17\n      swap2\n      swap1\n      tag_18\n      jump\t// in\n    tag_17:\n      mload(0x40)\n      dup1\n      swap2\n      sub\n      swap1\n      return\n        /* \"propertyManagement.sol\":1947:2093  function getProperty(... */\n    tag_4:\n      tag_19\n      0x04\n      dup1\n      calldatasize\n      sub\n      dup2\n      add\n      swap1\n      tag_20\n      swap2\n      swap1\n      tag_21\n      jump\t// in\n    tag_20:\n      tag_22\n      jump\t// in\n    tag_19:\n      mload(0x40)\n      tag_23\n      swap2\n      swap1\n      tag_24\n      jump\t// in\n    tag_23:\n      mload(0x40)\n      dup1\n      swap2\n      sub\n      swap1\n      return\n        /* \"propertyManagement.sol\":3255:3500  function updateMonthlyDescription(... */\n    tag_5:\n      tag_25\n      0x04\n      dup1\n      calldatasize\n      sub\n      dup2\n      add\n      swap1\n      tag_26\n      swap2\n      swap1\n      tag_27\n      jump\t// in\n    tag_26:\n      tag_28\n      jump\t// in\n    tag_25:\n      mload(0x40)\n      tag_29\n      swap2\n      swap1\n      tag_18\n      jump\t// in\n    tag_29:\n      mload(0x40)\n      dup1\n      swap2\n      sub\n      swap1\n      return\n        /* \"propertyManagement.sol\":1008:1036  uint256 public propertyCount */\n    tag_6:\n      tag_30\n      tag_31\n      jump\t// in\n    tag_30:\n      mload(0x40)\n      tag_32\n      swap2\n      swap1\n      tag_33\n      jump\t// in\n    tag_32:\n      mload(0x40)\n      dup1\n      swap2\n      sub\n      swap1\n      return\n        /* \"propertyManagement.sol\":2907:3220  function updateMonthlyRent(... */\n    tag_7:\n      tag_34\n      0x04\n      dup1\n      calldatasize\n      sub\n      dup2\n      add\n      swap1\n      tag_35\n      swap2\n      swap1\n      tag_36\n      jump\t// in\n    tag_35:\n      tag_37\n      jump\t// in\n    tag_34:\n      mload(0x40)\n      tag_38\n      swap2\n      swap1\n      tag_18\n      jump\t// in\n    tag_38:\n      mload(0x40)\n      dup1\n      swap2\n      sub\n      swap1\n      return\n        /* \"propertyManagement.sol\":2574:2875  function updateWithdrawal(... */\n    tag_8:\n      tag_39\n      0x04\n      dup1\n      calldatasize\n      sub\n      dup2\n      add\n      swap1\n      tag_40\n      swap2\n      swap1\n      tag_15\n      jump\t// in\n    tag_40:\n      tag_41\n      jump\t// in\n    tag_39:\n      mload(0x40)\n      tag_42\n      swap2\n      swap1\n      tag_18\n      jump\t// in\n    tag_42:\n      mload(0x40)\n      dup1\n      swap2\n      sub\n      swap1\n      return\n        /* \"propertyManagement.sol\":2128:2273  function getPropertyOwner(... */\n    tag_9:\n      tag_43\n      0x04\n      dup1\n      calldatasize\n      sub\n      dup2\n      add\n      swap1\n      tag_44\n      swap2\n      swap1\n      tag_21\n      jump\t// in\n    tag_44:\n      tag_45\n      jump\t// in\n    tag_43:\n      mload(0x40)\n      tag_46\n      swap2\n      swap1\n      tag_47\n      jump\t// in\n    tag_46:\n      mload(0x40)\n      dup1\n      swap2\n      sub\n      swap1\n      return\n        /* \"propertyManagement.sol\":1339:1906  function addProperty(... */\n    tag_10:\n      tag_48\n      0x04\n      dup1\n      calldatasize\n      sub\n      dup2\n      add\n      swap1\n      tag_49\n      swap2\n      swap1\n      tag_50\n      jump\t// in\n    tag_49:\n      tag_51\n      jump\t// in\n    tag_48:\n      mload(0x40)\n      tag_52\n      swap2\n      swap1\n      tag_18\n      jump\t// in\n    tag_52:\n      mload(0x40)\n      dup1\n      swap2\n      sub\n      swap1\n      return\n        /* \"propertyManagement.sol\":936:981  mapping(uint256 => Property)public properties */\n    tag_11:\n      tag_53\n      0x04\n      dup1\n      calldatasize\n      sub\n      dup2\n      add\n      swap1\n      tag_54\n      swap2\n      swap1\n      tag_21\n      jump\t// in\n    tag_54:\n      tag_55\n      jump\t// in\n    tag_53:\n      mload(0x40)\n      tag_56\n      swap9\n      swap8\n      swap7\n      swap6\n      swap5\n      swap4\n      swap3\n      swap2\n      swap1\n      tag_57\n      jump\t// in\n    tag_56:\n      mload(0x40)\n      dup1\n      swap2\n      sub\n      swap1\n      return\n        /* \"propertyManagement.sol\":2308:2539  function updateAvailability(... */\n    tag_16:\n        /* \"propertyManagement.sol\":2441:2445  bool */\n      0x00\n        /* \"propertyManagement.sol\":2420:2431  _propertyId */\n      dup3\n        /* \"propertyManagement.sol\":2495:2507  _isAvailable */\n      dup3\n        /* \"propertyManagement.sol\":2457:2467  properties */\n      0x00\n        /* \"propertyManagement.sol\":2457:2480  properties[_propertyId] */\n      dup1\n        /* \"propertyManagement.sol\":2468:2479  _propertyId */\n      dup7\n        /* \"propertyManagement.sol\":2457:2480  properties[_propertyId] */\n      dup2\n      mstore\n      0x20\n      add\n      swap1\n      dup2\n      mstore\n      0x20\n      add\n      0x00\n      keccak256\n        /* \"propertyManagement.sol\":2457:2492  properties[_propertyId].isAvailable */\n      0x01\n      add\n      0x00\n        /* \"propertyManagement.sol\":2457:2507  properties[_propertyId].isAvailable = _isAvailable */\n      0x0100\n      exp\n      dup2\n      sload\n      dup2\n      0xff\n      mul\n      not\n      and\n      swap1\n      dup4\n      iszero\n      iszero\n      mul\n      or\n      swap1\n      sstore\n      pop\n        /* \"propertyManagement.sol\":2527:2531  true */\n      0x01\n        /* \"propertyManagement.sol\":2520:2531  return true */\n      swap2\n      pop\n        /* \"propertyManagement.sol\":2308:2539  function updateAvailability(... */\n      pop\n      swap3\n      swap2\n      pop\n      pop\n      jump\t// out\n        /* \"propertyManagement.sol\":1947:2093  function getProperty(... */\n    tag_22:\n        /* \"propertyManagement.sol\":2028:2043  Property memory */\n      tag_60\n      tag_61\n      jump\t// in\n    tag_60:\n        /* \"propertyManagement.sol\":2062:2072  properties */\n      0x00\n        /* \"propertyManagement.sol\":2062:2085  properties[_propertyId] */\n      dup1\n        /* \"propertyManagement.sol\":2073:2084  _propertyId */\n      dup4\n        /* \"propertyManagement.sol\":2062:2085  properties[_propertyId] */\n      dup2\n      mstore\n      0x20\n      add\n      swap1\n      dup2\n      mstore\n      0x20\n      add\n      0x00\n      keccak256\n        /* \"propertyManagement.sol\":2055:2085  return properties[_propertyId] */\n      mload(0x40)\n      dup1\n      0x0100\n      add\n      0x40\n      mstore\n      swap1\n      dup2\n      0x00\n      dup3\n      add\n      sload\n      dup2\n      mstore\n      0x20\n      add\n      0x01\n      dup3\n      add\n      0x00\n      swap1\n      sload\n      swap1\n      0x0100\n      exp\n      swap1\n      div\n      0xff\n      and\n      iszero\n      iszero\n      iszero\n      iszero\n      dup2\n      mstore\n      0x20\n      add\n      0x01\n      dup3\n      add\n      0x01\n      swap1\n      sload\n      swap1\n      0x0100\n      exp\n      swap1\n      div\n      0xff\n      and\n      iszero\n      iszero\n      iszero\n      iszero\n      dup2\n      mstore\n      0x20\n      add\n      0x02\n      dup3\n      add\n      sload\n      dup2\n      mstore\n      0x20\n      add\n      0x03\n      dup3\n      add\n      dup1\n      sload\n      tag_63\n      swap1\n      tag_64\n      jump\t// in\n    tag_63:\n      dup1\n      0x1f\n      add\n      0x20\n      dup1\n      swap2\n      div\n      mul\n      0x20\n      add\n      mload(0x40)\n      swap1\n      dup2\n      add\n      0x40\n      mstore\n      dup1\n      swap3\n      swap2\n      swap1\n      dup2\n      dup2\n      mstore\n      0x20\n      add\n      dup3\n      dup1\n      sload\n      tag_65\n      swap1\n      tag_64\n      jump\t// in\n    tag_65:\n      dup1\n      iszero\n      tag_66\n      jumpi\n      dup1\n      0x1f\n      lt\n      tag_67\n      jumpi\n      0x0100\n      dup1\n      dup4\n      sload\n      div\n      mul\n      dup4\n      mstore\n      swap2\n      0x20\n      add\n      swap2\n      jump(tag_66)\n    tag_67:\n      dup3\n      add\n      swap2\n      swap1\n      0x00\n      mstore\n      keccak256(0x00, 0x20)\n      swap1\n    tag_68:\n      dup2\n      sload\n      dup2\n      mstore\n      swap1\n      0x01\n      add\n      swap1\n      0x20\n      add\n      dup1\n      dup4\n      gt\n      tag_68\n      jumpi\n      dup3\n      swap1\n      sub\n      0x1f\n      and\n      dup3\n      add\n      swap2\n    tag_66:\n      pop\n      pop\n      pop\n      pop\n      pop\n      dup2\n      mstore\n      0x20\n      add\n      0x04\n      dup3\n      add\n      dup1\n      sload\n      tag_69\n      swap1\n      tag_64\n      jump\t// in\n    tag_69:\n      dup1\n      0x1f\n      add\n      0x20\n      dup1\n      swap2\n      div\n      mul\n      0x20\n      add\n      mload(0x40)\n      swap1\n      dup2\n      add\n      0x40\n      mstore\n      dup1\n      swap3\n      swap2\n      swap1\n      dup2\n      dup2\n      mstore\n      0x20\n      add\n      dup3\n      dup1\n      sload\n      tag_70\n      swap1\n      tag_64\n      jump\t// in\n    tag_70:\n      dup1\n      iszero\n      tag_71\n      jumpi\n      dup1\n      0x1f\n      lt\n      tag_72\n      jumpi\n      0x0100\n      dup1\n      dup4\n      sload\n      div\n      mul\n      dup4\n      mstore\n      swap2\n      0x20\n      add\n      swap2\n      jump(tag_71)\n    tag_72:\n      dup3\n      add\n      swap2\n      swap1\n      0x00\n      mstore\n      keccak256(0x00, 0x20)\n      swap1\n    tag_73:\n      dup2\n      sload\n      dup2\n      mstore\n      swap1\n      0x01\n      add\n      swap1\n      0x20\n      add\n      dup1\n      dup4\n      gt\n      tag_73\n      jumpi\n      dup3\n      swap1\n      sub\n      0x1f\n      and\n      dup3\n      add\n      swap2\n    tag_71:\n      pop\n      pop\n      pop\n      pop\n      pop\n      dup2\n      mstore\n      0x20\n      add\n      0x05\n      dup3\n      add\n      dup1\n      sload\n      tag_74\n      swap1\n      tag_64\n      jump\t// in\n    tag_74:\n      dup1\n      0x1f\n      add\n      0x20\n      dup1\n      swap2\n      div\n      mul\n      0x20\n      add\n      mload(0x40)\n      swap1\n      dup2\n      add\n      0x40\n      mstore\n      dup1\n      swap3\n      swap2\n      swap1\n      dup2\n      dup2\n      mstore\n      0x20\n      add\n      dup3\n      dup1\n      sload\n      tag_75\n      swap1\n      tag_64\n      jump\t// in\n    tag_75:\n      dup1\n      iszero\n      tag_76\n      jumpi\n      dup1\n      0x1f\n      lt\n      tag_77\n      jumpi\n      0x0100\n      dup1\n      dup4\n      sload\n      div\n      mul\n      dup4\n      mstore\n      swap2\n      0x20\n      add\n      swap2\n      jump(tag_76)\n    tag_77:\n      dup3\n      add\n      swap2\n      swap1\n      0x00\n      mstore\n      keccak256(0x00, 0x20)\n      swap1\n    tag_78:\n      dup2\n      sload\n      dup2\n      mstore\n      swap1\n      0x01\n      add\n      swap1\n      0x20\n      add\n      dup1\n      dup4\n      gt\n      tag_78\n      jumpi\n      dup3\n      swap1\n      sub\n      0x1f\n      and\n      dup3\n      add\n      swap2\n    tag_76:\n      pop\n      pop\n      pop\n      pop\n      pop\n      dup2\n      mstore\n      0x20\n      add\n      0x06\n      dup3\n      add\n      0x00\n      swap1\n      sload\n      swap1\n      0x0100\n      exp\n      swap1\n      div\n      0xffffffffffffffffffffffffffffffffffffffff\n      and\n      0xffffffffffffffffffffffffffffffffffffffff\n      and\n      0xffffffffffffffffffffffffffffffffffffffff\n      and\n      dup2\n      mstore\n      pop\n      pop\n      swap1\n      pop\n        /* \"propertyManagement.sol\":1947:2093  function getProperty(... */\n      swap2\n      swap1\n      pop\n      jump\t// out\n        /* \"propertyManagement.sol\":3255:3500  function updateMonthlyDescription(... */\n    tag_28:\n        /* \"propertyManagement.sol\":3402:3406  bool */\n      0x00\n        /* \"propertyManagement.sol\":3381:3392  _propertyId */\n      dup3\n        /* \"propertyManagement.sol\":3456:3468  _description */\n      dup3\n        /* \"propertyManagement.sol\":3418:3428  properties */\n      0x00\n        /* \"propertyManagement.sol\":3418:3441  properties[_propertyId] */\n      dup1\n        /* \"propertyManagement.sol\":3429:3440  _propertyId */\n      dup7\n        /* \"propertyManagement.sol\":3418:3441  properties[_propertyId] */\n      dup2\n      mstore\n      0x20\n      add\n      swap1\n      dup2\n      mstore\n      0x20\n      add\n      0x00\n      keccak256\n        /* \"propertyManagement.sol\":3418:3453  properties[_propertyId].description */\n      0x04\n      add\n        /* \"propertyManagement.sol\":3418:3468  properties[_propertyId].description = _description */\n      swap1\n      dup2\n      tag_81\n      swap2\n      swap1\n      tag_82\n      jump\t// in\n    tag_81:\n      pop\n        /* \"propertyManagement.sol\":3488:3492  true */\n      0x01\n        /* \"propertyManagement.sol\":3481:3492  return true */\n      swap2\n      pop\n        /* \"propertyManagement.sol\":3255:3500  function updateMonthlyDescription(... */\n      pop\n      swap3\n      swap2\n      pop\n      pop\n      jump\t// out\n        /* \"propertyManagement.sol\":1008:1036  uint256 public propertyCount */\n    tag_31:\n      sload(0x01)\n      dup2\n      jump\t// out\n        /* \"propertyManagement.sol\":2907:3220  function updateMonthlyRent(... */\n    tag_37:\n        /* \"propertyManagement.sol\":3041:3045  bool */\n      0x00\n        /* \"propertyManagement.sol\":3020:3031  _propertyId */\n      dup3\n        /* \"propertyManagement.sol\":3099:3111  _monthlyRent */\n      dup3\n        /* \"propertyManagement.sol\":3060:3070  properties */\n      0x00\n        /* \"propertyManagement.sol\":3060:3083  properties[_propertyId] */\n      dup1\n        /* \"propertyManagement.sol\":3071:3082  _propertyId */\n      dup7\n        /* \"propertyManagement.sol\":3060:3083  properties[_propertyId] */\n      dup2\n      mstore\n      0x20\n      add\n      swap1\n      dup2\n      mstore\n      0x20\n      add\n      0x00\n      keccak256\n        /* \"propertyManagement.sol\":3060:3095  properties[_propertyId].monthlyRent */\n      0x02\n      add\n      sload\n        /* \"propertyManagement.sol\":3060:3111  properties[_propertyId].monthlyRent != _monthlyRent */\n      eq\n        /* \"propertyManagement.sol\":3057:3189  if(properties[_propertyId].monthlyRent != _monthlyRent){... */\n      tag_85\n      jumpi\n        /* \"propertyManagement.sol\":3165:3177  _monthlyRent */\n      dup3\n        /* \"propertyManagement.sol\":3127:3137  properties */\n      0x00\n        /* \"propertyManagement.sol\":3127:3150  properties[_propertyId] */\n      dup1\n        /* \"propertyManagement.sol\":3138:3149  _propertyId */\n      dup7\n        /* \"propertyManagement.sol\":3127:3150  properties[_propertyId] */\n      dup2\n      mstore\n      0x20\n      add\n      swap1\n      dup2\n      mstore\n      0x20\n      add\n      0x00\n      keccak256\n        /* \"propertyManagement.sol\":3127:3162  properties[_propertyId].monthlyRent */\n      0x02\n      add\n        /* \"propertyManagement.sol\":3127:3177  properties[_propertyId].monthlyRent = _monthlyRent */\n      dup2\n      swap1\n      sstore\n      pop\n        /* \"propertyManagement.sol\":3057:3189  if(properties[_propertyId].monthlyRent != _monthlyRent){... */\n    tag_85:\n        /* \"propertyManagement.sol\":3208:3212  true */\n      0x01\n        /* \"propertyManagement.sol\":3201:3212  return true */\n      swap2\n      pop\n        /* \"propertyManagement.sol\":2907:3220  function updateMonthlyRent(... */\n      pop\n      swap3\n      swap2\n      pop\n      pop\n      jump\t// out\n        /* \"propertyManagement.sol\":2574:2875  function updateWithdrawal(... */\n    tag_41:\n        /* \"propertyManagement.sol\":2702:2706  bool */\n      0x00\n        /* \"propertyManagement.sol\":2682:2693  _propertyId */\n      dup3\n        /* \"propertyManagement.sol\":2759:2770  _isWithdraw */\n      dup3\n        /* \"propertyManagement.sol\":2721:2770  properties[_propertyId].isWithdraw != _isWithdraw */\n      iszero\n      iszero\n        /* \"propertyManagement.sol\":2721:2731  properties */\n      0x00\n        /* \"propertyManagement.sol\":2721:2744  properties[_propertyId] */\n      dup1\n        /* \"propertyManagement.sol\":2732:2743  _propertyId */\n      dup7\n        /* \"propertyManagement.sol\":2721:2744  properties[_propertyId] */\n      dup2\n      mstore\n      0x20\n      add\n      swap1\n      dup2\n      mstore\n      0x20\n      add\n      0x00\n      keccak256\n        /* \"propertyManagement.sol\":2721:2755  properties[_propertyId].isWithdraw */\n      0x01\n      add\n      0x01\n      swap1\n      sload\n      swap1\n      0x0100\n      exp\n      swap1\n      div\n      0xff\n      and\n        /* \"propertyManagement.sol\":2721:2770  properties[_propertyId].isWithdraw != _isWithdraw */\n      iszero\n      iszero\n      eq\n        /* \"propertyManagement.sol\":2718:2846  if(properties[_propertyId].isWithdraw != _isWithdraw){... */\n      tag_88\n      jumpi\n        /* \"propertyManagement.sol\":2823:2834  _isWithdraw */\n      dup3\n        /* \"propertyManagement.sol\":2786:2796  properties */\n      0x00\n        /* \"propertyManagement.sol\":2786:2809  properties[_propertyId] */\n      dup1\n        /* \"propertyManagement.sol\":2797:2808  _propertyId */\n      dup7\n        /* \"propertyManagement.sol\":2786:2809  properties[_propertyId] */\n      dup2\n      mstore\n      0x20\n      add\n      swap1\n      dup2\n      mstore\n      0x20\n      add\n      0x00\n      keccak256\n        /* \"propertyManagement.sol\":2786:2820  properties[_propertyId].isWithdraw */\n      0x01\n      add\n      0x01\n        /* \"propertyManagement.sol\":2786:2834  properties[_propertyId].isWithdraw = _isWithdraw */\n      0x0100\n      exp\n      dup2\n      sload\n      dup2\n      0xff\n      mul\n      not\n      and\n      swap1\n      dup4\n      iszero\n      iszero\n      mul\n      or\n      swap1\n      sstore\n      pop\n        /* \"propertyManagement.sol\":2718:2846  if(properties[_propertyId].isWithdraw != _isWithdraw){... */\n    tag_88:\n        /* \"propertyManagement.sol\":2863:2867  true */\n      0x01\n        /* \"propertyManagement.sol\":2856:2867  return true */\n      swap2\n      pop\n        /* \"propertyManagement.sol\":2574:2875  function updateWithdrawal(... */\n      pop\n      swap3\n      swap2\n      pop\n      pop\n      jump\t// out\n        /* \"propertyManagement.sol\":2128:2273  function getPropertyOwner(... */\n    tag_45:\n        /* \"propertyManagement.sol\":2210:2217  address */\n      0x00\n        /* \"propertyManagement.sol\":2236:2246  properties */\n      dup1\n        /* \"propertyManagement.sol\":2236:2259  properties[_propertyId] */\n      0x00\n        /* \"propertyManagement.sol\":2247:2258  _propertyId */\n      dup4\n        /* \"propertyManagement.sol\":2236:2259  properties[_propertyId] */\n      dup2\n      mstore\n      0x20\n      add\n      swap1\n      dup2\n      mstore\n      0x20\n      add\n      0x00\n      keccak256\n        /* \"propertyManagement.sol\":2236:2265  properties[_propertyId].owner */\n      0x06\n      add\n      0x00\n      swap1\n      sload\n      swap1\n      0x0100\n      exp\n      swap1\n      div\n      0xffffffffffffffffffffffffffffffffffffffff\n      and\n        /* \"propertyManagement.sol\":2229:2265  return properties[_propertyId].owner */\n      swap1\n      pop\n        /* \"propertyManagement.sol\":2128:2273  function getPropertyOwner(... */\n      swap2\n      swap1\n      pop\n      jump\t// out\n        /* \"propertyManagement.sol\":1339:1906  function addProperty(... */\n    tag_51:\n        /* \"propertyManagement.sol\":1555:1559  bool */\n      0x00\n        /* \"propertyManagement.sol\":1571:1584  propertyCount */\n      0x01\n      0x00\n        /* \"propertyManagement.sol\":1571:1586  propertyCount++ */\n      dup2\n      sload\n      dup1\n      swap3\n      swap2\n      swap1\n      tag_91\n      swap1\n      tag_92\n      jump\t// in\n    tag_91:\n      swap2\n      swap1\n      pop\n      sstore\n      pop\n        /* \"propertyManagement.sol\":1645:1752  Property(propertyCount, _isAvailable,false, _monthlyRent, _propertyType, _description, _location,tx.origin) */\n      mload(0x40)\n      dup1\n      0x0100\n      add\n      0x40\n      mstore\n      dup1\n        /* \"propertyManagement.sol\":1654:1667  propertyCount */\n      sload(0x01)\n        /* \"propertyManagement.sol\":1645:1752  Property(propertyCount, _isAvailable,false, _monthlyRent, _propertyType, _description, _location,tx.origin) */\n      dup2\n      mstore\n      0x20\n      add\n        /* \"propertyManagement.sol\":1669:1681  _isAvailable */\n      dup8\n        /* \"propertyManagement.sol\":1645:1752  Property(propertyCount, _isAvailable,false, _monthlyRent, _propertyType, _description, _location,tx.origin) */\n      iszero\n      iszero\n      dup2\n      mstore\n      0x20\n      add\n        /* \"propertyManagement.sol\":1682:1687  false */\n      0x00\n        /* \"propertyManagement.sol\":1645:1752  Property(propertyCount, _isAvailable,false, _monthlyRent, _propertyType, _description, _location,tx.origin) */\n      iszero\n      iszero\n      dup2\n      mstore\n      0x20\n      add\n        /* \"propertyManagement.sol\":1689:1701  _monthlyRent */\n      dup7\n        /* \"propertyManagement.sol\":1645:1752  Property(propertyCount, _isAvailable,false, _monthlyRent, _propertyType, _description, _location,tx.origin) */\n      dup2\n      mstore\n      0x20\n      add\n        /* \"propertyManagement.sol\":1703:1716  _propertyType */\n      dup6\n        /* \"propertyManagement.sol\":1645:1752  Property(propertyCount, _isAvailable,false, _monthlyRent, _propertyType, _description, _location,tx.origin) */\n      dup2\n      mstore\n      0x20\n      add\n        /* \"propertyManagement.sol\":1718:1730  _description */\n      dup5\n        /* \"propertyManagement.sol\":1645:1752  Property(propertyCount, _isAvailable,false, _monthlyRent, _propertyType, _description, _location,tx.origin) */\n      dup2\n      mstore\n      0x20\n      add\n        /* \"propertyManagement.sol\":1732:1741  _location */\n      dup4\n        /* \"propertyManagement.sol\":1645:1752  Property(propertyCount, _isAvailable,false, _monthlyRent, _propertyType, _description, _location,tx.origin) */\n      dup2\n      mstore\n      0x20\n      add\n        /* \"propertyManagement.sol\":1742:1751  tx.origin */\n      origin\n        /* \"propertyManagement.sol\":1645:1752  Property(propertyCount, _isAvailable,false, _monthlyRent, _propertyType, _description, _location,tx.origin) */\n      0xffffffffffffffffffffffffffffffffffffffff\n      and\n      dup2\n      mstore\n      pop\n        /* \"propertyManagement.sol\":1617:1627  properties */\n      0x00\n        /* \"propertyManagement.sol\":1617:1642  properties[propertyCount] */\n      dup1\n        /* \"propertyManagement.sol\":1628:1641  propertyCount */\n      sload(0x01)\n        /* \"propertyManagement.sol\":1617:1642  properties[propertyCount] */\n      dup2\n      mstore\n      0x20\n      add\n      swap1\n      dup2\n      mstore\n      0x20\n      add\n      0x00\n      keccak256\n        /* \"propertyManagement.sol\":1617:1752  properties[propertyCount] = Property(propertyCount, _isAvailable,false, _monthlyRent, _propertyType, _description, _location,tx.origin) */\n      0x00\n      dup3\n      add\n      mload\n      dup2\n      0x00\n      add\n      sstore\n      0x20\n      dup3\n      add\n      mload\n      dup2\n      0x01\n      add\n      exp(0x0100, 0x00)\n      dup2\n      sload\n      dup2\n      0xff\n      mul\n      not\n      and\n      swap1\n      dup4\n      iszero\n      iszero\n      mul\n      or\n      swap1\n      sstore\n      pop\n      0x40\n      dup3\n      add\n      mload\n      dup2\n      0x01\n      add\n      exp(0x0100, 0x01)\n      dup2\n      sload\n      dup2\n      0xff\n      mul\n      not\n      and\n      swap1\n      dup4\n      iszero\n      iszero\n      mul\n      or\n      swap1\n      sstore\n      pop\n      0x60\n      dup3\n      add\n      mload\n      dup2\n      0x02\n      add\n      sstore\n      0x80\n      dup3\n      add\n      mload\n      dup2\n      0x03\n      add\n      swap1\n      dup2\n      tag_93\n      swap2\n      swap1\n      tag_82\n      jump\t// in\n    tag_93:\n      pop\n      0xa0\n      dup3\n      add\n      mload\n      dup2\n      0x04\n      add\n      swap1\n      dup2\n      tag_94\n      swap2\n      swap1\n      tag_82\n      jump\t// in\n    tag_94:\n      pop\n      0xc0\n      dup3\n      add\n      mload\n      dup2\n      0x05\n      add\n      swap1\n      dup2\n      tag_95\n      swap2\n      swap1\n      tag_82\n      jump\t// in\n    tag_95:\n      pop\n      0xe0\n      dup3\n      add\n      mload\n      dup2\n      0x06\n      add\n      exp(0x0100, 0x00)\n      dup2\n      sload\n      dup2\n      0xffffffffffffffffffffffffffffffffffffffff\n      mul\n      not\n      and\n      swap1\n      dup4\n      0xffffffffffffffffffffffffffffffffffffffff\n      and\n      mul\n      or\n      swap1\n      sstore\n      pop\n      swap1\n      pop\n      pop\n        /* \"propertyManagement.sol\":1770:1876  PropertyAdded(propertyCount, _isAvailable, _monthlyRent, _propertyType, _description, _location,tx.origin) */\n      0x55d4c37f0be82a4c779966b6f194911d8d57f787390b393eb7166c6d9a0bdc55\n        /* \"propertyManagement.sol\":1784:1797  propertyCount */\n      sload(0x01)\n        /* \"propertyManagement.sol\":1799:1811  _isAvailable */\n      dup8\n        /* \"propertyManagement.sol\":1813:1825  _monthlyRent */\n      dup8\n        /* \"propertyManagement.sol\":1827:1840  _propertyType */\n      dup8\n        /* \"propertyManagement.sol\":1842:1854  _description */\n      dup8\n        /* \"propertyManagement.sol\":1856:1865  _location */\n      dup8\n        /* \"propertyManagement.sol\":1866:1875  tx.origin */\n      origin\n        /* \"propertyManagement.sol\":1770:1876  PropertyAdded(propertyCount, _isAvailable, _monthlyRent, _propertyType, _description, _location,tx.origin) */\n      mload(0x40)\n      tag_96\n      swap8\n      swap7\n      swap6\n      swap5\n      swap4\n      swap3\n      swap2\n      swap1\n      tag_97\n      jump\t// in\n    tag_96:\n      mload(0x40)\n      dup1\n      swap2\n      sub\n      swap1\n      log1\n        /* \"propertyManagement.sol\":1894:1898  true */\n      0x01\n        /* \"propertyManagement.sol\":1887:1898  return true */\n      swap1\n      pop\n        /* \"propertyManagement.sol\":1339:1906  function addProperty(... */\n      swap6\n      swap5\n      pop\n      pop\n      pop\n      pop\n      pop\n      jump\t// out\n        /* \"propertyManagement.sol\":936:981  mapping(uint256 => Property)public properties */\n    tag_55:\n      mstore(0x20, 0x00)\n      dup1\n      0x00\n      mstore\n      keccak256(0x00, 0x40)\n      0x00\n      swap2\n      pop\n      swap1\n      pop\n      dup1\n      0x00\n      add\n      sload\n      swap1\n      dup1\n      0x01\n      add\n      0x00\n      swap1\n      sload\n      swap1\n      0x0100\n      exp\n      swap1\n      div\n      0xff\n      and\n      swap1\n      dup1\n      0x01\n      add\n      0x01\n      swap1\n      sload\n      swap1\n      0x0100\n      exp\n      swap1\n      div\n      0xff\n      and\n      swap1\n      dup1\n      0x02\n      add\n      sload\n      swap1\n      dup1\n      0x03\n      add\n      dup1\n      sload\n      tag_98\n      swap1\n      tag_64\n      jump\t// in\n    tag_98:\n      dup1\n      0x1f\n      add\n      0x20\n      dup1\n      swap2\n      div\n      mul\n      0x20\n      add\n      mload(0x40)\n      swap1\n      dup2\n      add\n      0x40\n      mstore\n      dup1\n      swap3\n      swap2\n      swap1\n      dup2\n      dup2\n      mstore\n      0x20\n      add\n      dup3\n      dup1\n      sload\n      tag_99\n      swap1\n      tag_64\n      jump\t// in\n    tag_99:\n      dup1\n      iszero\n      tag_100\n      jumpi\n      dup1\n      0x1f\n      lt\n      tag_101\n      jumpi\n      0x0100\n      dup1\n      dup4\n      sload\n      div\n      mul\n      dup4\n      mstore\n      swap2\n      0x20\n      add\n      swap2\n      jump(tag_100)\n    tag_101:\n      dup3\n      add\n      swap2\n      swap1\n      0x00\n      mstore\n      keccak256(0x00, 0x20)\n      swap1\n    tag_102:\n      dup2\n      sload\n      dup2\n      mstore\n      swap1\n      0x01\n      add\n      swap1\n      0x20\n      add\n      dup1\n      dup4\n      gt\n      tag_102\n      jumpi\n      dup3\n      swap1\n      sub\n      0x1f\n      and\n      dup3\n      add\n      swap2\n    tag_100:\n      pop\n      pop\n      pop\n      pop\n      pop\n      swap1\n      dup1\n      0x04\n      add\n      dup1\n      sload\n      tag_103\n      swap1\n      tag_64\n      jump\t// in\n    tag_103:\n      dup1\n      0x1f\n      add\n      0x20\n      dup1\n      swap2\n      div\n      mul\n      0x20\n      add\n      mload(0x40)\n      swap1\n      dup2\n      add\n      0x40\n      mstore\n      dup1\n      swap3\n      swap2\n      swap1\n      dup2\n      dup2\n      mstore\n      0x20\n      add\n      dup3\n      dup1\n      sload\n      tag_104\n      swap1\n      tag_64\n      jump\t// in\n    tag_104:\n      dup1\n      iszero\n      tag_105\n      jumpi\n      dup1\n      0x1f\n      lt\n      tag_106\n      jumpi\n      0x0100\n      dup1\n      dup4\n      sload\n      div\n      mul\n      dup4\n      mstore\n      swap2\n      0x20\n      add\n      swap2\n      jump(tag_105)\n    tag_106:\n      dup3\n      add\n      swap2\n      swap1\n      0x00\n      mstore\n      keccak256(0x00, 0x20)\n      swap1\n    tag_107:\n      dup2\n      sload\n      dup2\n      mstore\n      swap1\n      0x01\n      add\n      swap1\n      0x20\n      add\n      dup1\n      dup4\n      gt\n      tag_107\n      jumpi\n      dup3\n      swap1\n      sub\n      0x1f\n      and\n      dup3\n      add\n      swap2\n    tag_105:\n      pop\n      pop\n      pop\n      pop\n      pop\n      swap1\n      dup1\n      0x05\n      add\n      dup1\n      sload\n      tag_108\n      swap1\n      tag_64\n      jump\t// in\n    tag_108:\n      dup1\n      0x1f\n      add\n      0x20\n      dup1\n      swap2\n      div\n      mul\n      0x20\n      add\n      mload(0x40)\n      swap1\n      dup2\n      add\n      0x40\n      mstore\n      dup1\n      swap3\n      swap2\n      swap1\n      dup2\n      dup2\n      mstore\n      0x20\n      add\n      dup3\n      dup1\n      sload\n      tag_109\n      swap1\n      tag_64\n      jump\t// in\n    tag_109:\n      dup1\n      iszero\n      tag_110\n      jumpi\n      dup1\n      0x1f\n      lt\n      tag_111\n      jumpi\n      0x0100\n      dup1\n      dup4\n      sload\n      div\n      mul\n      dup4\n      mstore\n      swap2\n      0x20\n      add\n      swap2\n      jump(tag_110)\n    tag_111:\n      dup3\n      add\n      swap2\n      swap1\n      0x00\n      mstore\n      keccak256(0x00, 0x20)\n      swap1\n    tag_112:\n      dup2\n      sload\n      dup2\n      mstore\n      swap1\n      0x01\n      add\n      swap1\n      0x20\n      add\n      dup1\n      dup4\n      gt\n      tag_112\n      jumpi\n      dup3\n      swap1\n      sub\n      0x1f\n      and\n      dup3\n      add\n      swap2\n    tag_110:\n      pop\n      pop\n      pop\n      pop\n      pop\n      swap1\n      dup1\n      0x06\n      add\n      0x00\n      swap1\n      sload\n      swap1\n      0x0100\n      exp\n      swap1\n      div\n      0xffffffffffffffffffffffffffffffffffffffff\n      and\n      swap1\n      pop\n      dup9\n      jump\t// out\n    tag_61:\n      mload(0x40)\n      dup1\n      0x0100\n      add\n      0x40\n      mstore\n      dup1\n      0x00\n      dup2\n      mstore\n      0x20\n      add\n      iszero(iszero(0x00))\n      dup2\n      mstore\n      0x20\n      add\n      iszero(iszero(0x00))\n      dup2\n      mstore\n      0x20\n      add\n      0x00\n      dup2\n      mstore\n      0x20\n      add\n      0x60\n      dup2\n      mstore\n      0x20\n      add\n      0x60\n      dup2\n      mstore\n      0x20\n      add\n      0x60\n      dup2\n      mstore\n      0x20\n      add\n      and(0xffffffffffffffffffffffffffffffffffffffff, 0x00)\n      dup2\n      mstore\n      pop\n      swap1\n      jump\t// out\n        /* \"#utility.yul\":7:82   */\n    tag_113:\n        /* \"#utility.yul\":40:46   */\n      0x00\n        /* \"#utility.yul\":73:75   */\n      0x40\n        /* \"#utility.yul\":67:76   */\n      mload\n        /* \"#utility.yul\":57:76   */\n      swap1\n      pop\n        /* \"#utility.yul\":7:82   */\n      swap1\n      jump\t// out\n        /* \"#utility.yul\":88:205   */\n    tag_114:\n        /* \"#utility.yul\":197:198   */\n      0x00\n        /* \"#utility.yul\":194:195   */\n      dup1\n        /* \"#utility.yul\":187:199   */\n      revert\n        /* \"#utility.yul\":211:328   */\n    tag_115:\n        /* \"#utility.yul\":320:321   */\n      0x00\n        /* \"#utility.yul\":317:318   */\n      dup1\n        /* \"#utility.yul\":310:322   */\n      revert\n        /* \"#utility.yul\":334:411   */\n    tag_116:\n        /* \"#utility.yul\":371:378   */\n      0x00\n        /* \"#utility.yul\":400:405   */\n      dup2\n        /* \"#utility.yul\":389:405   */\n      swap1\n      pop\n        /* \"#utility.yul\":334:411   */\n      swap2\n      swap1\n      pop\n      jump\t// out\n        /* \"#utility.yul\":417:539   */\n    tag_117:\n        /* \"#utility.yul\":490:514   */\n      tag_170\n        /* \"#utility.yul\":508:513   */\n      dup2\n        /* \"#utility.yul\":490:514   */\n      tag_116\n      jump\t// in\n    tag_170:\n        /* \"#utility.yul\":483:488   */\n      dup2\n        /* \"#utility.yul\":480:515   */\n      eq\n        /* \"#utility.yul\":470:533   */\n      tag_171\n      jumpi\n        /* \"#utility.yul\":529:530   */\n      0x00\n        /* \"#utility.yul\":526:527   */\n      dup1\n        /* \"#utility.yul\":519:531   */\n      revert\n        /* \"#utility.yul\":470:533   */\n    tag_171:\n        /* \"#utility.yul\":417:539   */\n      pop\n      jump\t// out\n        /* \"#utility.yul\":545:684   */\n    tag_118:\n        /* \"#utility.yul\":591:596   */\n      0x00\n        /* \"#utility.yul\":629:635   */\n      dup2\n        /* \"#utility.yul\":616:636   */\n      calldataload\n        /* \"#utility.yul\":607:636   */\n      swap1\n      pop\n        /* \"#utility.yul\":645:678   */\n      tag_173\n        /* \"#utility.yul\":672:677   */\n      dup2\n        /* \"#utility.yul\":645:678   */\n      tag_117\n      jump\t// in\n    tag_173:\n        /* \"#utility.yul\":545:684   */\n      swap3\n      swap2\n      pop\n      pop\n      jump\t// out\n        /* \"#utility.yul\":690:780   */\n    tag_119:\n        /* \"#utility.yul\":724:731   */\n      0x00\n        /* \"#utility.yul\":767:772   */\n      dup2\n        /* \"#utility.yul\":760:773   */\n      iszero\n        /* \"#utility.yul\":753:774   */\n      iszero\n        /* \"#utility.yul\":742:774   */\n      swap1\n      pop\n        /* \"#utility.yul\":690:780   */\n      swap2\n      swap1\n      pop\n      jump\t// out\n        /* \"#utility.yul\":786:902   */\n    tag_120:\n        /* \"#utility.yul\":856:877   */\n      tag_176\n        /* \"#utility.yul\":871:876   */\n      dup2\n        /* \"#utility.yul\":856:877   */\n      tag_119\n      jump\t// in\n    tag_176:\n        /* \"#utility.yul\":849:854   */\n      dup2\n        /* \"#utility.yul\":846:878   */\n      eq\n        /* \"#utility.yul\":836:896   */\n      tag_177\n      jumpi\n        /* \"#utility.yul\":892:893   */\n      0x00\n        /* \"#utility.yul\":889:890   */\n      dup1\n        /* \"#utility.yul\":882:894   */\n      revert\n        /* \"#utility.yul\":836:896   */\n    tag_177:\n        /* \"#utility.yul\":786:902   */\n      pop\n      jump\t// out\n        /* \"#utility.yul\":908:1041   */\n    tag_121:\n        /* \"#utility.yul\":951:956   */\n      0x00\n        /* \"#utility.yul\":989:995   */\n      dup2\n        /* \"#utility.yul\":976:996   */\n      calldataload\n        /* \"#utility.yul\":967:996   */\n      swap1\n      pop\n        /* \"#utility.yul\":1005:1035   */\n      tag_179\n        /* \"#utility.yul\":1029:1034   */\n      dup2\n        /* \"#utility.yul\":1005:1035   */\n      tag_120\n      jump\t// in\n    tag_179:\n        /* \"#utility.yul\":908:1041   */\n      swap3\n      swap2\n      pop\n      pop\n      jump\t// out\n        /* \"#utility.yul\":1047:1515   */\n    tag_15:\n        /* \"#utility.yul\":1112:1118   */\n      0x00\n        /* \"#utility.yul\":1120:1126   */\n      dup1\n        /* \"#utility.yul\":1169:1171   */\n      0x40\n        /* \"#utility.yul\":1157:1166   */\n      dup4\n        /* \"#utility.yul\":1148:1155   */\n      dup6\n        /* \"#utility.yul\":1144:1167   */\n      sub\n        /* \"#utility.yul\":1140:1172   */\n      slt\n        /* \"#utility.yul\":1137:1256   */\n      iszero\n      tag_181\n      jumpi\n        /* \"#utility.yul\":1175:1254   */\n      tag_182\n      tag_114\n      jump\t// in\n    tag_182:\n        /* \"#utility.yul\":1137:1256   */\n    tag_181:\n        /* \"#utility.yul\":1295:1296   */\n      0x00\n        /* \"#utility.yul\":1320:1373   */\n      tag_183\n        /* \"#utility.yul\":1365:1372   */\n      dup6\n        /* \"#utility.yul\":1356:1362   */\n      dup3\n        /* \"#utility.yul\":1345:1354   */\n      dup7\n        /* \"#utility.yul\":1341:1363   */\n      add\n        /* \"#utility.yul\":1320:1373   */\n      tag_118\n      jump\t// in\n    tag_183:\n        /* \"#utility.yul\":1310:1373   */\n      swap3\n      pop\n        /* \"#utility.yul\":1266:1383   */\n      pop\n        /* \"#utility.yul\":1422:1424   */\n      0x20\n        /* \"#utility.yul\":1448:1498   */\n      tag_184\n        /* \"#utility.yul\":1490:1497   */\n      dup6\n        /* \"#utility.yul\":1481:1487   */\n      dup3\n        /* \"#utility.yul\":1470:1479   */\n      dup7\n        /* \"#utility.yul\":1466:1488   */\n      add\n        /* \"#utility.yul\":1448:1498   */\n      tag_121\n      jump\t// in\n    tag_184:\n        /* \"#utility.yul\":1438:1498   */\n      swap2\n      pop\n        /* \"#utility.yul\":1393:1508   */\n      pop\n        /* \"#utility.yul\":1047:1515   */\n      swap3\n      pop\n      swap3\n      swap1\n      pop\n      jump\t// out\n        /* \"#utility.yul\":1521:1630   */\n    tag_122:\n        /* \"#utility.yul\":1602:1623   */\n      tag_186\n        /* \"#utility.yul\":1617:1622   */\n      dup2\n        /* \"#utility.yul\":1602:1623   */\n      tag_119\n      jump\t// in\n    tag_186:\n        /* \"#utility.yul\":1597:1600   */\n      dup3\n        /* \"#utility.yul\":1590:1624   */\n      mstore\n        /* \"#utility.yul\":1521:1630   */\n      pop\n      pop\n      jump\t// out\n        /* \"#utility.yul\":1636:1846   */\n    tag_18:\n        /* \"#utility.yul\":1723:1727   */\n      0x00\n        /* \"#utility.yul\":1761:1763   */\n      0x20\n        /* \"#utility.yul\":1750:1759   */\n      dup3\n        /* \"#utility.yul\":1746:1764   */\n      add\n        /* \"#utility.yul\":1738:1764   */\n      swap1\n      pop\n        /* \"#utility.yul\":1774:1839   */\n      tag_188\n        /* \"#utility.yul\":1836:1837   */\n      0x00\n        /* \"#utility.yul\":1825:1834   */\n      dup4\n        /* \"#utility.yul\":1821:1838   */\n      add\n        /* \"#utility.yul\":1812:1818   */\n      dup5\n        /* \"#utility.yul\":1774:1839   */\n      tag_122\n      jump\t// in\n    tag_188:\n        /* \"#utility.yul\":1636:1846   */\n      swap3\n      swap2\n      pop\n      pop\n      jump\t// out\n        /* \"#utility.yul\":1852:2181   */\n    tag_21:\n        /* \"#utility.yul\":1911:1917   */\n      0x00\n        /* \"#utility.yul\":1960:1962   */\n      0x20\n        /* \"#utility.yul\":1948:1957   */\n      dup3\n        /* \"#utility.yul\":1939:1946   */\n      dup5\n        /* \"#utility.yul\":1935:1958   */\n      sub\n        /* \"#utility.yul\":1931:1963   */\n      slt\n        /* \"#utility.yul\":1928:2047   */\n      iszero\n      tag_190\n      jumpi\n        /* \"#utility.yul\":1966:2045   */\n      tag_191\n      tag_114\n      jump\t// in\n    tag_191:\n        /* \"#utility.yul\":1928:2047   */\n    tag_190:\n        /* \"#utility.yul\":2086:2087   */\n      0x00\n        /* \"#utility.yul\":2111:2164   */\n      tag_192\n        /* \"#utility.yul\":2156:2163   */\n      dup5\n        /* \"#utility.yul\":2147:2153   */\n      dup3\n        /* \"#utility.yul\":2136:2145   */\n      dup6\n        /* \"#utility.yul\":2132:2154   */\n      add\n        /* \"#utility.yul\":2111:2164   */\n      tag_118\n      jump\t// in\n    tag_192:\n        /* \"#utility.yul\":2101:2164   */\n      swap2\n      pop\n        /* \"#utility.yul\":2057:2174   */\n      pop\n        /* \"#utility.yul\":1852:2181   */\n      swap3\n      swap2\n      pop\n      pop\n      jump\t// out\n        /* \"#utility.yul\":2187:2295   */\n    tag_123:\n        /* \"#utility.yul\":2264:2288   */\n      tag_194\n        /* \"#utility.yul\":2282:2287   */\n      dup2\n        /* \"#utility.yul\":2264:2288   */\n      tag_116\n      jump\t// in\n    tag_194:\n        /* \"#utility.yul\":2259:2262   */\n      dup3\n        /* \"#utility.yul\":2252:2289   */\n      mstore\n        /* \"#utility.yul\":2187:2295   */\n      pop\n      pop\n      jump\t// out\n        /* \"#utility.yul\":2301:2400   */\n    tag_124:\n        /* \"#utility.yul\":2372:2393   */\n      tag_196\n        /* \"#utility.yul\":2387:2392   */\n      dup2\n        /* \"#utility.yul\":2372:2393   */\n      tag_119\n      jump\t// in\n    tag_196:\n        /* \"#utility.yul\":2367:2370   */\n      dup3\n        /* \"#utility.yul\":2360:2394   */\n      mstore\n        /* \"#utility.yul\":2301:2400   */\n      pop\n      pop\n      jump\t// out\n        /* \"#utility.yul\":2406:2505   */\n    tag_125:\n        /* \"#utility.yul\":2458:2464   */\n      0x00\n        /* \"#utility.yul\":2492:2497   */\n      dup2\n        /* \"#utility.yul\":2486:2498   */\n      mload\n        /* \"#utility.yul\":2476:2498   */\n      swap1\n      pop\n        /* \"#utility.yul\":2406:2505   */\n      swap2\n      swap1\n      pop\n      jump\t// out\n        /* \"#utility.yul\":2511:2670   */\n    tag_126:\n        /* \"#utility.yul\":2585:2596   */\n      0x00\n        /* \"#utility.yul\":2619:2625   */\n      dup3\n        /* \"#utility.yul\":2614:2617   */\n      dup3\n        /* \"#utility.yul\":2607:2626   */\n      mstore\n        /* \"#utility.yul\":2659:2663   */\n      0x20\n        /* \"#utility.yul\":2654:2657   */\n      dup3\n        /* \"#utility.yul\":2650:2664   */\n      add\n        /* \"#utility.yul\":2635:2664   */\n      swap1\n      pop\n        /* \"#utility.yul\":2511:2670   */\n      swap3\n      swap2\n      pop\n      pop\n      jump\t// out\n        /* \"#utility.yul\":2676:2922   */\n    tag_127:\n        /* \"#utility.yul\":2757:2758   */\n      0x00\n        /* \"#utility.yul\":2767:2880   */\n    tag_200:\n        /* \"#utility.yul\":2781:2787   */\n      dup4\n        /* \"#utility.yul\":2778:2779   */\n      dup2\n        /* \"#utility.yul\":2775:2788   */\n      lt\n        /* \"#utility.yul\":2767:2880   */\n      iszero\n      tag_202\n      jumpi\n        /* \"#utility.yul\":2866:2867   */\n      dup1\n        /* \"#utility.yul\":2861:2864   */\n      dup3\n        /* \"#utility.yul\":2857:2868   */\n      add\n        /* \"#utility.yul\":2851:2869   */\n      mload\n        /* \"#utility.yul\":2847:2848   */\n      dup2\n        /* \"#utility.yul\":2842:2845   */\n      dup5\n        /* \"#utility.yul\":2838:2849   */\n      add\n        /* \"#utility.yul\":2831:2870   */\n      mstore\n        /* \"#utility.yul\":2803:2805   */\n      0x20\n        /* \"#utility.yul\":2800:2801   */\n      dup2\n        /* \"#utility.yul\":2796:2806   */\n      add\n        /* \"#utility.yul\":2791:2806   */\n      swap1\n      pop\n        /* \"#utility.yul\":2767:2880   */\n      jump(tag_200)\n    tag_202:\n        /* \"#utility.yul\":2914:2915   */\n      0x00\n        /* \"#utility.yul\":2905:2911   */\n      dup5\n        /* \"#utility.yul\":2900:2903   */\n      dup5\n        /* \"#utility.yul\":2896:2912   */\n      add\n        /* \"#utility.yul\":2889:2916   */\n      mstore\n        /* \"#utility.yul\":2738:2922   */\n      pop\n        /* \"#utility.yul\":2676:2922   */\n      pop\n      pop\n      pop\n      jump\t// out\n        /* \"#utility.yul\":2928:3030   */\n    tag_128:\n        /* \"#utility.yul\":2969:2975   */\n      0x00\n        /* \"#utility.yul\":3020:3022   */\n      0x1f\n        /* \"#utility.yul\":3016:3023   */\n      not\n        /* \"#utility.yul\":3011:3013   */\n      0x1f\n        /* \"#utility.yul\":3004:3009   */\n      dup4\n        /* \"#utility.yul\":3000:3014   */\n      add\n        /* \"#utility.yul\":2996:3024   */\n      and\n        /* \"#utility.yul\":2986:3024   */\n      swap1\n      pop\n        /* \"#utility.yul\":2928:3030   */\n      swap2\n      swap1\n      pop\n      jump\t// out\n        /* \"#utility.yul\":3036:3393   */\n    tag_129:\n        /* \"#utility.yul\":3114:3117   */\n      0x00\n        /* \"#utility.yul\":3142:3181   */\n      tag_205\n        /* \"#utility.yul\":3175:3180   */\n      dup3\n        /* \"#utility.yul\":3142:3181   */\n      tag_125\n      jump\t// in\n    tag_205:\n        /* \"#utility.yul\":3197:3258   */\n      tag_206\n        /* \"#utility.yul\":3251:3257   */\n      dup2\n        /* \"#utility.yul\":3246:3249   */\n      dup6\n        /* \"#utility.yul\":3197:3258   */\n      tag_126\n      jump\t// in\n    tag_206:\n        /* \"#utility.yul\":3190:3258   */\n      swap4\n      pop\n        /* \"#utility.yul\":3267:3332   */\n      tag_207\n        /* \"#utility.yul\":3325:3331   */\n      dup2\n        /* \"#utility.yul\":3320:3323   */\n      dup6\n        /* \"#utility.yul\":3313:3317   */\n      0x20\n        /* \"#utility.yul\":3306:3311   */\n      dup7\n        /* \"#utility.yul\":3302:3318   */\n      add\n        /* \"#utility.yul\":3267:3332   */\n      tag_127\n      jump\t// in\n    tag_207:\n        /* \"#utility.yul\":3357:3386   */\n      tag_208\n        /* \"#utility.yul\":3379:3385   */\n      dup2\n        /* \"#utility.yul\":3357:3386   */\n      tag_128\n      jump\t// in\n    tag_208:\n        /* \"#utility.yul\":3352:3355   */\n      dup5\n        /* \"#utility.yul\":3348:3387   */\n      add\n        /* \"#utility.yul\":3341:3387   */\n      swap2\n      pop\n        /* \"#utility.yul\":3118:3393   */\n      pop\n        /* \"#utility.yul\":3036:3393   */\n      swap3\n      swap2\n      pop\n      pop\n      jump\t// out\n        /* \"#utility.yul\":3399:3525   */\n    tag_130:\n        /* \"#utility.yul\":3436:3443   */\n      0x00\n        /* \"#utility.yul\":3476:3518   */\n      0xffffffffffffffffffffffffffffffffffffffff\n        /* \"#utility.yul\":3469:3474   */\n      dup3\n        /* \"#utility.yul\":3465:3519   */\n      and\n        /* \"#utility.yul\":3454:3519   */\n      swap1\n      pop\n        /* \"#utility.yul\":3399:3525   */\n      swap2\n      swap1\n      pop\n      jump\t// out\n        /* \"#utility.yul\":3531:3627   */\n    tag_131:\n        /* \"#utility.yul\":3568:3575   */\n      0x00\n        /* \"#utility.yul\":3597:3621   */\n      tag_211\n        /* \"#utility.yul\":3615:3620   */\n      dup3\n        /* \"#utility.yul\":3597:3621   */\n      tag_130\n      jump\t// in\n    tag_211:\n        /* \"#utility.yul\":3586:3621   */\n      swap1\n      pop\n        /* \"#utility.yul\":3531:3627   */\n      swap2\n      swap1\n      pop\n      jump\t// out\n        /* \"#utility.yul\":3633:3741   */\n    tag_132:\n        /* \"#utility.yul\":3710:3734   */\n      tag_213\n        /* \"#utility.yul\":3728:3733   */\n      dup2\n        /* \"#utility.yul\":3710:3734   */\n      tag_131\n      jump\t// in\n    tag_213:\n        /* \"#utility.yul\":3705:3708   */\n      dup3\n        /* \"#utility.yul\":3698:3735   */\n      mstore\n        /* \"#utility.yul\":3633:3741   */\n      pop\n      pop\n      jump\t// out\n        /* \"#utility.yul\":3827:5653   */\n    tag_133:\n        /* \"#utility.yul\":3944:3947   */\n      0x00\n        /* \"#utility.yul\":3980:3986   */\n      0x0100\n        /* \"#utility.yul\":3975:3978   */\n      dup4\n        /* \"#utility.yul\":3971:3987   */\n      add\n        /* \"#utility.yul\":4075:4079   */\n      0x00\n        /* \"#utility.yul\":4068:4073   */\n      dup4\n        /* \"#utility.yul\":4064:4080   */\n      add\n        /* \"#utility.yul\":4058:4081   */\n      mload\n        /* \"#utility.yul\":4094:4157   */\n      tag_215\n        /* \"#utility.yul\":4151:4155   */\n      0x00\n        /* \"#utility.yul\":4146:4149   */\n      dup7\n        /* \"#utility.yul\":4142:4156   */\n      add\n        /* \"#utility.yul\":4128:4140   */\n      dup3\n        /* \"#utility.yul\":4094:4157   */\n      tag_123\n      jump\t// in\n    tag_215:\n        /* \"#utility.yul\":3997:4167   */\n      pop\n        /* \"#utility.yul\":4256:4260   */\n      0x20\n        /* \"#utility.yul\":4249:4254   */\n      dup4\n        /* \"#utility.yul\":4245:4261   */\n      add\n        /* \"#utility.yul\":4239:4262   */\n      mload\n        /* \"#utility.yul\":4275:4332   */\n      tag_216\n        /* \"#utility.yul\":4326:4330   */\n      0x20\n        /* \"#utility.yul\":4321:4324   */\n      dup7\n        /* \"#utility.yul\":4317:4331   */\n      add\n        /* \"#utility.yul\":4303:4315   */\n      dup3\n        /* \"#utility.yul\":4275:4332   */\n      tag_124\n      jump\t// in\n    tag_216:\n        /* \"#utility.yul\":4177:4342   */\n      pop\n        /* \"#utility.yul\":4430:4434   */\n      0x40\n        /* \"#utility.yul\":4423:4428   */\n      dup4\n        /* \"#utility.yul\":4419:4435   */\n      add\n        /* \"#utility.yul\":4413:4436   */\n      mload\n        /* \"#utility.yul\":4449:4506   */\n      tag_217\n        /* \"#utility.yul\":4500:4504   */\n      0x40\n        /* \"#utility.yul\":4495:4498   */\n      dup7\n        /* \"#utility.yul\":4491:4505   */\n      add\n        /* \"#utility.yul\":4477:4489   */\n      dup3\n        /* \"#utility.yul\":4449:4506   */\n      tag_124\n      jump\t// in\n    tag_217:\n        /* \"#utility.yul\":4352:4516   */\n      pop\n        /* \"#utility.yul\":4605:4609   */\n      0x60\n        /* \"#utility.yul\":4598:4603   */\n      dup4\n        /* \"#utility.yul\":4594:4610   */\n      add\n        /* \"#utility.yul\":4588:4611   */\n      mload\n        /* \"#utility.yul\":4624:4687   */\n      tag_218\n        /* \"#utility.yul\":4681:4685   */\n      0x60\n        /* \"#utility.yul\":4676:4679   */\n      dup7\n        /* \"#utility.yul\":4672:4686   */\n      add\n        /* \"#utility.yul\":4658:4670   */\n      dup3\n        /* \"#utility.yul\":4624:4687   */\n      tag_123\n      jump\t// in\n    tag_218:\n        /* \"#utility.yul\":4526:4697   */\n      pop\n        /* \"#utility.yul\":4787:4791   */\n      0x80\n        /* \"#utility.yul\":4780:4785   */\n      dup4\n        /* \"#utility.yul\":4776:4792   */\n      add\n        /* \"#utility.yul\":4770:4793   */\n      mload\n        /* \"#utility.yul\":4840:4843   */\n      dup5\n        /* \"#utility.yul\":4834:4838   */\n      dup3\n        /* \"#utility.yul\":4830:4844   */\n      sub\n        /* \"#utility.yul\":4823:4827   */\n      0x80\n        /* \"#utility.yul\":4818:4821   */\n      dup7\n        /* \"#utility.yul\":4814:4828   */\n      add\n        /* \"#utility.yul\":4807:4845   */\n      mstore\n        /* \"#utility.yul\":4866:4939   */\n      tag_219\n        /* \"#utility.yul\":4934:4938   */\n      dup3\n        /* \"#utility.yul\":4920:4932   */\n      dup3\n        /* \"#utility.yul\":4866:4939   */\n      tag_129\n      jump\t// in\n    tag_219:\n        /* \"#utility.yul\":4858:4939   */\n      swap2\n      pop\n        /* \"#utility.yul\":4707:4950   */\n      pop\n        /* \"#utility.yul\":5039:5043   */\n      0xa0\n        /* \"#utility.yul\":5032:5037   */\n      dup4\n        /* \"#utility.yul\":5028:5044   */\n      add\n        /* \"#utility.yul\":5022:5045   */\n      mload\n        /* \"#utility.yul\":5092:5095   */\n      dup5\n        /* \"#utility.yul\":5086:5090   */\n      dup3\n        /* \"#utility.yul\":5082:5096   */\n      sub\n        /* \"#utility.yul\":5075:5079   */\n      0xa0\n        /* \"#utility.yul\":5070:5073   */\n      dup7\n        /* \"#utility.yul\":5066:5080   */\n      add\n        /* \"#utility.yul\":5059:5097   */\n      mstore\n        /* \"#utility.yul\":5118:5191   */\n      tag_220\n        /* \"#utility.yul\":5186:5190   */\n      dup3\n        /* \"#utility.yul\":5172:5184   */\n      dup3\n        /* \"#utility.yul\":5118:5191   */\n      tag_129\n      jump\t// in\n    tag_220:\n        /* \"#utility.yul\":5110:5191   */\n      swap2\n      pop\n        /* \"#utility.yul\":4960:5202   */\n      pop\n        /* \"#utility.yul\":5288:5292   */\n      0xc0\n        /* \"#utility.yul\":5281:5286   */\n      dup4\n        /* \"#utility.yul\":5277:5293   */\n      add\n        /* \"#utility.yul\":5271:5294   */\n      mload\n        /* \"#utility.yul\":5341:5344   */\n      dup5\n        /* \"#utility.yul\":5335:5339   */\n      dup3\n        /* \"#utility.yul\":5331:5345   */\n      sub\n        /* \"#utility.yul\":5324:5328   */\n      0xc0\n        /* \"#utility.yul\":5319:5322   */\n      dup7\n        /* \"#utility.yul\":5315:5329   */\n      add\n        /* \"#utility.yul\":5308:5346   */\n      mstore\n        /* \"#utility.yul\":5367:5440   */\n      tag_221\n        /* \"#utility.yul\":5435:5439   */\n      dup3\n        /* \"#utility.yul\":5421:5433   */\n      dup3\n        /* \"#utility.yul\":5367:5440   */\n      tag_129\n      jump\t// in\n    tag_221:\n        /* \"#utility.yul\":5359:5440   */\n      swap2\n      pop\n        /* \"#utility.yul\":5212:5451   */\n      pop\n        /* \"#utility.yul\":5534:5538   */\n      0xe0\n        /* \"#utility.yul\":5527:5532   */\n      dup4\n        /* \"#utility.yul\":5523:5539   */\n      add\n        /* \"#utility.yul\":5517:5540   */\n      mload\n        /* \"#utility.yul\":5553:5616   */\n      tag_222\n        /* \"#utility.yul\":5610:5614   */\n      0xe0\n        /* \"#utility.yul\":5605:5608   */\n      dup7\n        /* \"#utility.yul\":5601:5615   */\n      add\n        /* \"#utility.yul\":5587:5599   */\n      dup3\n        /* \"#utility.yul\":5553:5616   */\n      tag_132\n      jump\t// in\n    tag_222:\n        /* \"#utility.yul\":5461:5626   */\n      pop\n        /* \"#utility.yul\":5643:5647   */\n      dup1\n        /* \"#utility.yul\":5636:5647   */\n      swap2\n      pop\n        /* \"#utility.yul\":3949:5653   */\n      pop\n        /* \"#utility.yul\":3827:5653   */\n      swap3\n      swap2\n      pop\n      pop\n      jump\t// out\n        /* \"#utility.yul\":5659:6028   */\n    tag_24:\n        /* \"#utility.yul\":5800:5804   */\n      0x00\n        /* \"#utility.yul\":5838:5840   */\n      0x20\n        /* \"#utility.yul\":5827:5836   */\n      dup3\n        /* \"#utility.yul\":5823:5841   */\n      add\n        /* \"#utility.yul\":5815:5841   */\n      swap1\n      pop\n        /* \"#utility.yul\":5887:5896   */\n      dup2\n        /* \"#utility.yul\":5881:5885   */\n      dup2\n        /* \"#utility.yul\":5877:5897   */\n      sub\n        /* \"#utility.yul\":5873:5874   */\n      0x00\n        /* \"#utility.yul\":5862:5871   */\n      dup4\n        /* \"#utility.yul\":5858:5875   */\n      add\n        /* \"#utility.yul\":5851:5898   */\n      mstore\n        /* \"#utility.yul\":5915:6021   */\n      tag_224\n        /* \"#utility.yul\":6016:6020   */\n      dup2\n        /* \"#utility.yul\":6007:6013   */\n      dup5\n        /* \"#utility.yul\":5915:6021   */\n      tag_133\n      jump\t// in\n    tag_224:\n        /* \"#utility.yul\":5907:6021   */\n      swap1\n      pop\n        /* \"#utility.yul\":5659:6028   */\n      swap3\n      swap2\n      pop\n      pop\n      jump\t// out\n        /* \"#utility.yul\":6034:6151   */\n    tag_134:\n        /* \"#utility.yul\":6143:6144   */\n      0x00\n        /* \"#utility.yul\":6140:6141   */\n      dup1\n        /* \"#utility.yul\":6133:6145   */\n      revert\n        /* \"#utility.yul\":6157:6274   */\n    tag_135:\n        /* \"#utility.yul\":6266:6267   */\n      0x00\n        /* \"#utility.yul\":6263:6264   */\n      dup1\n        /* \"#utility.yul\":6256:6268   */\n      revert\n        /* \"#utility.yul\":6280:6460   */\n    tag_136:\n        /* \"#utility.yul\":6328:6405   */\n      0x4e487b7100000000000000000000000000000000000000000000000000000000\n        /* \"#utility.yul\":6325:6326   */\n      0x00\n        /* \"#utility.yul\":6318:6406   */\n      mstore\n        /* \"#utility.yul\":6425:6429   */\n      0x41\n        /* \"#utility.yul\":6422:6423   */\n      0x04\n        /* \"#utility.yul\":6415:6430   */\n      mstore\n        /* \"#utility.yul\":6449:6453   */\n      0x24\n        /* \"#utility.yul\":6446:6447   */\n      0x00\n        /* \"#utility.yul\":6439:6454   */\n      revert\n        /* \"#utility.yul\":6466:6747   */\n    tag_137:\n        /* \"#utility.yul\":6549:6576   */\n      tag_229\n        /* \"#utility.yul\":6571:6575   */\n      dup3\n        /* \"#utility.yul\":6549:6576   */\n      tag_128\n      jump\t// in\n    tag_229:\n        /* \"#utility.yul\":6541:6547   */\n      dup2\n        /* \"#utility.yul\":6537:6577   */\n      add\n        /* \"#utility.yul\":6679:6685   */\n      dup2\n        /* \"#utility.yul\":6667:6677   */\n      dup2\n        /* \"#utility.yul\":6664:6686   */\n      lt\n        /* \"#utility.yul\":6643:6661   */\n      0xffffffffffffffff\n        /* \"#utility.yul\":6631:6641   */\n      dup3\n        /* \"#utility.yul\":6628:6662   */\n      gt\n        /* \"#utility.yul\":6625:6687   */\n      or\n        /* \"#utility.yul\":6622:6710   */\n      iszero\n      tag_230\n      jumpi\n        /* \"#utility.yul\":6690:6708   */\n      tag_231\n      tag_136\n      jump\t// in\n    tag_231:\n        /* \"#utility.yul\":6622:6710   */\n    tag_230:\n        /* \"#utility.yul\":6730:6740   */\n      dup1\n        /* \"#utility.yul\":6726:6728   */\n      0x40\n        /* \"#utility.yul\":6719:6741   */\n      mstore\n        /* \"#utility.yul\":6509:6747   */\n      pop\n        /* \"#utility.yul\":6466:6747   */\n      pop\n      pop\n      jump\t// out\n        /* \"#utility.yul\":6753:6882   */\n    tag_138:\n        /* \"#utility.yul\":6787:6793   */\n      0x00\n        /* \"#utility.yul\":6814:6834   */\n      tag_233\n      tag_113\n      jump\t// in\n    tag_233:\n        /* \"#utility.yul\":6804:6834   */\n      swap1\n      pop\n        /* \"#utility.yul\":6843:6876   */\n      tag_234\n        /* \"#utility.yul\":6871:6875   */\n      dup3\n        /* \"#utility.yul\":6863:6869   */\n      dup3\n        /* \"#utility.yul\":6843:6876   */\n      tag_137\n      jump\t// in\n    tag_234:\n        /* \"#utility.yul\":6753:6882   */\n      swap2\n      swap1\n      pop\n      jump\t// out\n        /* \"#utility.yul\":6888:7196   */\n    tag_139:\n        /* \"#utility.yul\":6950:6954   */\n      0x00\n        /* \"#utility.yul\":7040:7058   */\n      0xffffffffffffffff\n        /* \"#utility.yul\":7032:7038   */\n      dup3\n        /* \"#utility.yul\":7029:7059   */\n      gt\n        /* \"#utility.yul\":7026:7082   */\n      iszero\n      tag_236\n      jumpi\n        /* \"#utility.yul\":7062:7080   */\n      tag_237\n      tag_136\n      jump\t// in\n    tag_237:\n        /* \"#utility.yul\":7026:7082   */\n    tag_236:\n        /* \"#utility.yul\":7100:7129   */\n      tag_238\n        /* \"#utility.yul\":7122:7128   */\n      dup3\n        /* \"#utility.yul\":7100:7129   */\n      tag_128\n      jump\t// in\n    tag_238:\n        /* \"#utility.yul\":7092:7129   */\n      swap1\n      pop\n        /* \"#utility.yul\":7184:7188   */\n      0x20\n        /* \"#utility.yul\":7178:7182   */\n      dup2\n        /* \"#utility.yul\":7174:7189   */\n      add\n        /* \"#utility.yul\":7166:7189   */\n      swap1\n      pop\n        /* \"#utility.yul\":6888:7196   */\n      swap2\n      swap1\n      pop\n      jump\t// out\n        /* \"#utility.yul\":7202:7348   */\n    tag_140:\n        /* \"#utility.yul\":7299:7305   */\n      dup3\n        /* \"#utility.yul\":7294:7297   */\n      dup2\n        /* \"#utility.yul\":7289:7292   */\n      dup4\n        /* \"#utility.yul\":7276:7306   */\n      calldatacopy\n        /* \"#utility.yul\":7340:7341   */\n      0x00\n        /* \"#utility.yul\":7331:7337   */\n      dup4\n        /* \"#utility.yul\":7326:7329   */\n      dup4\n        /* \"#utility.yul\":7322:7338   */\n      add\n        /* \"#utility.yul\":7315:7342   */\n      mstore\n        /* \"#utility.yul\":7202:7348   */\n      pop\n      pop\n      pop\n      jump\t// out\n        /* \"#utility.yul\":7354:7779   */\n    tag_141:\n        /* \"#utility.yul\":7432:7437   */\n      0x00\n        /* \"#utility.yul\":7457:7523   */\n      tag_241\n        /* \"#utility.yul\":7473:7522   */\n      tag_242\n        /* \"#utility.yul\":7515:7521   */\n      dup5\n        /* \"#utility.yul\":7473:7522   */\n      tag_139\n      jump\t// in\n    tag_242:\n        /* \"#utility.yul\":7457:7523   */\n      tag_138\n      jump\t// in\n    tag_241:\n        /* \"#utility.yul\":7448:7523   */\n      swap1\n      pop\n        /* \"#utility.yul\":7546:7552   */\n      dup3\n        /* \"#utility.yul\":7539:7544   */\n      dup2\n        /* \"#utility.yul\":7532:7553   */\n      mstore\n        /* \"#utility.yul\":7584:7588   */\n      0x20\n        /* \"#utility.yul\":7577:7582   */\n      dup2\n        /* \"#utility.yul\":7573:7589   */\n      add\n        /* \"#utility.yul\":7622:7625   */\n      dup5\n        /* \"#utility.yul\":7613:7619   */\n      dup5\n        /* \"#utility.yul\":7608:7611   */\n      dup5\n        /* \"#utility.yul\":7604:7620   */\n      add\n        /* \"#utility.yul\":7601:7626   */\n      gt\n        /* \"#utility.yul\":7598:7710   */\n      iszero\n      tag_243\n      jumpi\n        /* \"#utility.yul\":7629:7708   */\n      tag_244\n      tag_135\n      jump\t// in\n    tag_244:\n        /* \"#utility.yul\":7598:7710   */\n    tag_243:\n        /* \"#utility.yul\":7719:7773   */\n      tag_245\n        /* \"#utility.yul\":7766:7772   */\n      dup5\n        /* \"#utility.yul\":7761:7764   */\n      dup3\n        /* \"#utility.yul\":7756:7759   */\n      dup6\n        /* \"#utility.yul\":7719:7773   */\n      tag_140\n      jump\t// in\n    tag_245:\n        /* \"#utility.yul\":7438:7779   */\n      pop\n        /* \"#utility.yul\":7354:7779   */\n      swap4\n      swap3\n      pop\n      pop\n      pop\n      jump\t// out\n        /* \"#utility.yul\":7799:8139   */\n    tag_142:\n        /* \"#utility.yul\":7855:7860   */\n      0x00\n        /* \"#utility.yul\":7904:7907   */\n      dup3\n        /* \"#utility.yul\":7897:7901   */\n      0x1f\n        /* \"#utility.yul\":7889:7895   */\n      dup4\n        /* \"#utility.yul\":7885:7902   */\n      add\n        /* \"#utility.yul\":7881:7908   */\n      slt\n        /* \"#utility.yul\":7871:7993   */\n      tag_247\n      jumpi\n        /* \"#utility.yul\":7912:7991   */\n      tag_248\n      tag_134\n      jump\t// in\n    tag_248:\n        /* \"#utility.yul\":7871:7993   */\n    tag_247:\n        /* \"#utility.yul\":8029:8035   */\n      dup2\n        /* \"#utility.yul\":8016:8036   */\n      calldataload\n        /* \"#utility.yul\":8054:8133   */\n      tag_249\n        /* \"#utility.yul\":8129:8132   */\n      dup5\n        /* \"#utility.yul\":8121:8127   */\n      dup3\n        /* \"#utility.yul\":8114:8118   */\n      0x20\n        /* \"#utility.yul\":8106:8112   */\n      dup7\n        /* \"#utility.yul\":8102:8119   */\n      add\n        /* \"#utility.yul\":8054:8133   */\n      tag_141\n      jump\t// in\n    tag_249:\n        /* \"#utility.yul\":8045:8133   */\n      swap2\n      pop\n        /* \"#utility.yul\":7861:8139   */\n      pop\n        /* \"#utility.yul\":7799:8139   */\n      swap3\n      swap2\n      pop\n      pop\n      jump\t// out\n        /* \"#utility.yul\":8145:8799   */\n    tag_27:\n        /* \"#utility.yul\":8223:8229   */\n      0x00\n        /* \"#utility.yul\":8231:8237   */\n      dup1\n        /* \"#utility.yul\":8280:8282   */\n      0x40\n        /* \"#utility.yul\":8268:8277   */\n      dup4\n        /* \"#utility.yul\":8259:8266   */\n      dup6\n        /* \"#utility.yul\":8255:8278   */\n      sub\n        /* \"#utility.yul\":8251:8283   */\n      slt\n        /* \"#utility.yul\":8248:8367   */\n      iszero\n      tag_251\n      jumpi\n        /* \"#utility.yul\":8286:8365   */\n      tag_252\n      tag_114\n      jump\t// in\n    tag_252:\n        /* \"#utility.yul\":8248:8367   */\n    tag_251:\n        /* \"#utility.yul\":8406:8407   */\n      0x00\n        /* \"#utility.yul\":8431:8484   */\n      tag_253\n        /* \"#utility.yul\":8476:8483   */\n      dup6\n        /* \"#utility.yul\":8467:8473   */\n      dup3\n        /* \"#utility.yul\":8456:8465   */\n      dup7\n        /* \"#utility.yul\":8452:8474   */\n      add\n        /* \"#utility.yul\":8431:8484   */\n      tag_118\n      jump\t// in\n    tag_253:\n        /* \"#utility.yul\":8421:8484   */\n      swap3\n      pop\n        /* \"#utility.yul\":8377:8494   */\n      pop\n        /* \"#utility.yul\":8561:8563   */\n      0x20\n        /* \"#utility.yul\":8550:8559   */\n      dup4\n        /* \"#utility.yul\":8546:8564   */\n      add\n        /* \"#utility.yul\":8533:8565   */\n      calldataload\n        /* \"#utility.yul\":8592:8610   */\n      0xffffffffffffffff\n        /* \"#utility.yul\":8584:8590   */\n      dup2\n        /* \"#utility.yul\":8581:8611   */\n      gt\n        /* \"#utility.yul\":8578:8695   */\n      iszero\n      tag_254\n      jumpi\n        /* \"#utility.yul\":8614:8693   */\n      tag_255\n      tag_115\n      jump\t// in\n    tag_255:\n        /* \"#utility.yul\":8578:8695   */\n    tag_254:\n        /* \"#utility.yul\":8719:8782   */\n      tag_256\n        /* \"#utility.yul\":8774:8781   */\n      dup6\n        /* \"#utility.yul\":8765:8771   */\n      dup3\n        /* \"#utility.yul\":8754:8763   */\n      dup7\n        /* \"#utility.yul\":8750:8772   */\n      add\n        /* \"#utility.yul\":8719:8782   */\n      tag_142\n      jump\t// in\n    tag_256:\n        /* \"#utility.yul\":8709:8782   */\n      swap2\n      pop\n        /* \"#utility.yul\":8504:8792   */\n      pop\n        /* \"#utility.yul\":8145:8799   */\n      swap3\n      pop\n      swap3\n      swap1\n      pop\n      jump\t// out\n        /* \"#utility.yul\":8805:8923   */\n    tag_143:\n        /* \"#utility.yul\":8892:8916   */\n      tag_258\n        /* \"#utility.yul\":8910:8915   */\n      dup2\n        /* \"#utility.yul\":8892:8916   */\n      tag_116\n      jump\t// in\n    tag_258:\n        /* \"#utility.yul\":8887:8890   */\n      dup3\n        /* \"#utility.yul\":8880:8917   */\n      mstore\n        /* \"#utility.yul\":8805:8923   */\n      pop\n      pop\n      jump\t// out\n        /* \"#utility.yul\":8929:9151   */\n    tag_33:\n        /* \"#utility.yul\":9022:9026   */\n      0x00\n        /* \"#utility.yul\":9060:9062   */\n      0x20\n        /* \"#utility.yul\":9049:9058   */\n      dup3\n        /* \"#utility.yul\":9045:9063   */\n      add\n        /* \"#utility.yul\":9037:9063   */\n      swap1\n      pop\n        /* \"#utility.yul\":9073:9144   */\n      tag_260\n        /* \"#utility.yul\":9141:9142   */\n      0x00\n        /* \"#utility.yul\":9130:9139   */\n      dup4\n        /* \"#utility.yul\":9126:9143   */\n      add\n        /* \"#utility.yul\":9117:9123   */\n      dup5\n        /* \"#utility.yul\":9073:9144   */\n      tag_143\n      jump\t// in\n    tag_260:\n        /* \"#utility.yul\":8929:9151   */\n      swap3\n      swap2\n      pop\n      pop\n      jump\t// out\n        /* \"#utility.yul\":9157:9631   */\n    tag_36:\n        /* \"#utility.yul\":9225:9231   */\n      0x00\n        /* \"#utility.yul\":9233:9239   */\n      dup1\n        /* \"#utility.yul\":9282:9284   */\n      0x40\n        /* \"#utility.yul\":9270:9279   */\n      dup4\n        /* \"#utility.yul\":9261:9268   */\n      dup6\n        /* \"#utility.yul\":9257:9280   */\n      sub\n        /* \"#utility.yul\":9253:9285   */\n      slt\n        /* \"#utility.yul\":9250:9369   */\n      iszero\n      tag_262\n      jumpi\n        /* \"#utility.yul\":9288:9367   */\n      tag_263\n      tag_114\n      jump\t// in\n    tag_263:\n        /* \"#utility.yul\":9250:9369   */\n    tag_262:\n        /* \"#utility.yul\":9408:9409   */\n      0x00\n        /* \"#utility.yul\":9433:9486   */\n      tag_264\n        /* \"#utility.yul\":9478:9485   */\n      dup6\n        /* \"#utility.yul\":9469:9475   */\n      dup3\n        /* \"#utility.yul\":9458:9467   */\n      dup7\n        /* \"#utility.yul\":9454:9476   */\n      add\n        /* \"#utility.yul\":9433:9486   */\n      tag_118\n      jump\t// in\n    tag_264:\n        /* \"#utility.yul\":9423:9486   */\n      swap3\n      pop\n        /* \"#utility.yul\":9379:9496   */\n      pop\n        /* \"#utility.yul\":9535:9537   */\n      0x20\n        /* \"#utility.yul\":9561:9614   */\n      tag_265\n        /* \"#utility.yul\":9606:9613   */\n      dup6\n        /* \"#utility.yul\":9597:9603   */\n      dup3\n        /* \"#utility.yul\":9586:9595   */\n      dup7\n        /* \"#utility.yul\":9582:9604   */\n      add\n        /* \"#utility.yul\":9561:9614   */\n      tag_118\n      jump\t// in\n    tag_265:\n        /* \"#utility.yul\":9551:9614   */\n      swap2\n      pop\n        /* \"#utility.yul\":9506:9624   */\n      pop\n        /* \"#utility.yul\":9157:9631   */\n      swap3\n      pop\n      swap3\n      swap1\n      pop\n      jump\t// out\n        /* \"#utility.yul\":9637:9755   */\n    tag_144:\n        /* \"#utility.yul\":9724:9748   */\n      tag_267\n        /* \"#utility.yul\":9742:9747   */\n      dup2\n        /* \"#utility.yul\":9724:9748   */\n      tag_131\n      jump\t// in\n    tag_267:\n        /* \"#utility.yul\":9719:9722   */\n      dup3\n        /* \"#utility.yul\":9712:9749   */\n      mstore\n        /* \"#utility.yul\":9637:9755   */\n      pop\n      pop\n      jump\t// out\n        /* \"#utility.yul\":9761:9983   */\n    tag_47:\n        /* \"#utility.yul\":9854:9858   */\n      0x00\n        /* \"#utility.yul\":9892:9894   */\n      0x20\n        /* \"#utility.yul\":9881:9890   */\n      dup3\n        /* \"#utility.yul\":9877:9895   */\n      add\n        /* \"#utility.yul\":9869:9895   */\n      swap1\n      pop\n        /* \"#utility.yul\":9905:9976   */\n      tag_269\n        /* \"#utility.yul\":9973:9974   */\n      0x00\n        /* \"#utility.yul\":9962:9971   */\n      dup4\n        /* \"#utility.yul\":9958:9975   */\n      add\n        /* \"#utility.yul\":9949:9955   */\n      dup5\n        /* \"#utility.yul\":9905:9976   */\n      tag_144\n      jump\t// in\n    tag_269:\n        /* \"#utility.yul\":9761:9983   */\n      swap3\n      swap2\n      pop\n      pop\n      jump\t// out\n        /* \"#utility.yul\":9989:11434   */\n    tag_50:\n        /* \"#utility.yul\":10111:10117   */\n      0x00\n        /* \"#utility.yul\":10119:10125   */\n      dup1\n        /* \"#utility.yul\":10127:10133   */\n      0x00\n        /* \"#utility.yul\":10135:10141   */\n      dup1\n        /* \"#utility.yul\":10143:10149   */\n      0x00\n        /* \"#utility.yul\":10192:10195   */\n      0xa0\n        /* \"#utility.yul\":10180:10189   */\n      dup7\n        /* \"#utility.yul\":10171:10178   */\n      dup9\n        /* \"#utility.yul\":10167:10190   */\n      sub\n        /* \"#utility.yul\":10163:10196   */\n      slt\n        /* \"#utility.yul\":10160:10280   */\n      iszero\n      tag_271\n      jumpi\n        /* \"#utility.yul\":10199:10278   */\n      tag_272\n      tag_114\n      jump\t// in\n    tag_272:\n        /* \"#utility.yul\":10160:10280   */\n    tag_271:\n        /* \"#utility.yul\":10319:10320   */\n      0x00\n        /* \"#utility.yul\":10344:10394   */\n      tag_273\n        /* \"#utility.yul\":10386:10393   */\n      dup9\n        /* \"#utility.yul\":10377:10383   */\n      dup3\n        /* \"#utility.yul\":10366:10375   */\n      dup10\n        /* \"#utility.yul\":10362:10384   */\n      add\n        /* \"#utility.yul\":10344:10394   */\n      tag_121\n      jump\t// in\n    tag_273:\n        /* \"#utility.yul\":10334:10394   */\n      swap6\n      pop\n        /* \"#utility.yul\":10290:10404   */\n      pop\n        /* \"#utility.yul\":10443:10445   */\n      0x20\n        /* \"#utility.yul\":10469:10522   */\n      tag_274\n        /* \"#utility.yul\":10514:10521   */\n      dup9\n        /* \"#utility.yul\":10505:10511   */\n      dup3\n        /* \"#utility.yul\":10494:10503   */\n      dup10\n        /* \"#utility.yul\":10490:10512   */\n      add\n        /* \"#utility.yul\":10469:10522   */\n      tag_118\n      jump\t// in\n    tag_274:\n        /* \"#utility.yul\":10459:10522   */\n      swap5\n      pop\n        /* \"#utility.yul\":10414:10532   */\n      pop\n        /* \"#utility.yul\":10599:10601   */\n      0x40\n        /* \"#utility.yul\":10588:10597   */\n      dup7\n        /* \"#utility.yul\":10584:10602   */\n      add\n        /* \"#utility.yul\":10571:10603   */\n      calldataload\n        /* \"#utility.yul\":10630:10648   */\n      0xffffffffffffffff\n        /* \"#utility.yul\":10622:10628   */\n      dup2\n        /* \"#utility.yul\":10619:10649   */\n      gt\n        /* \"#utility.yul\":10616:10733   */\n      iszero\n      tag_275\n      jumpi\n        /* \"#utility.yul\":10652:10731   */\n      tag_276\n      tag_115\n      jump\t// in\n    tag_276:\n        /* \"#utility.yul\":10616:10733   */\n    tag_275:\n        /* \"#utility.yul\":10757:10820   */\n      tag_277\n        /* \"#utility.yul\":10812:10819   */\n      dup9\n        /* \"#utility.yul\":10803:10809   */\n      dup3\n        /* \"#utility.yul\":10792:10801   */\n      dup10\n        /* \"#utility.yul\":10788:10810   */\n      add\n        /* \"#utility.yul\":10757:10820   */\n      tag_142\n      jump\t// in\n    tag_277:\n        /* \"#utility.yul\":10747:10820   */\n      swap4\n      pop\n        /* \"#utility.yul\":10542:10830   */\n      pop\n        /* \"#utility.yul\":10897:10899   */\n      0x60\n        /* \"#utility.yul\":10886:10895   */\n      dup7\n        /* \"#utility.yul\":10882:10900   */\n      add\n        /* \"#utility.yul\":10869:10901   */\n      calldataload\n        /* \"#utility.yul\":10928:10946   */\n      0xffffffffffffffff\n        /* \"#utility.yul\":10920:10926   */\n      dup2\n        /* \"#utility.yul\":10917:10947   */\n      gt\n        /* \"#utility.yul\":10914:11031   */\n      iszero\n      tag_278\n      jumpi\n        /* \"#utility.yul\":10950:11029   */\n      tag_279\n      tag_115\n      jump\t// in\n    tag_279:\n        /* \"#utility.yul\":10914:11031   */\n    tag_278:\n        /* \"#utility.yul\":11055:11118   */\n      tag_280\n        /* \"#utility.yul\":11110:11117   */\n      dup9\n        /* \"#utility.yul\":11101:11107   */\n      dup3\n        /* \"#utility.yul\":11090:11099   */\n      dup10\n        /* \"#utility.yul\":11086:11108   */\n      add\n        /* \"#utility.yul\":11055:11118   */\n      tag_142\n      jump\t// in\n    tag_280:\n        /* \"#utility.yul\":11045:11118   */\n      swap3\n      pop\n        /* \"#utility.yul\":10840:11128   */\n      pop\n        /* \"#utility.yul\":11195:11198   */\n      0x80\n        /* \"#utility.yul\":11184:11193   */\n      dup7\n        /* \"#utility.yul\":11180:11199   */\n      add\n        /* \"#utility.yul\":11167:11200   */\n      calldataload\n        /* \"#utility.yul\":11227:11245   */\n      0xffffffffffffffff\n        /* \"#utility.yul\":11219:11225   */\n      dup2\n        /* \"#utility.yul\":11216:11246   */\n      gt\n        /* \"#utility.yul\":11213:11330   */\n      iszero\n      tag_281\n      jumpi\n        /* \"#utility.yul\":11249:11328   */\n      tag_282\n      tag_115\n      jump\t// in\n    tag_282:\n        /* \"#utility.yul\":11213:11330   */\n    tag_281:\n        /* \"#utility.yul\":11354:11417   */\n      tag_283\n        /* \"#utility.yul\":11409:11416   */\n      dup9\n        /* \"#utility.yul\":11400:11406   */\n      dup3\n        /* \"#utility.yul\":11389:11398   */\n      dup10\n        /* \"#utility.yul\":11385:11407   */\n      add\n        /* \"#utility.yul\":11354:11417   */\n      tag_142\n      jump\t// in\n    tag_283:\n        /* \"#utility.yul\":11344:11417   */\n      swap2\n      pop\n        /* \"#utility.yul\":11138:11427   */\n      pop\n        /* \"#utility.yul\":9989:11434   */\n      swap3\n      swap6\n      pop\n      swap3\n      swap6\n      swap1\n      swap4\n      pop\n      jump\t// out\n        /* \"#utility.yul\":11440:11609   */\n    tag_145:\n        /* \"#utility.yul\":11524:11535   */\n      0x00\n        /* \"#utility.yul\":11558:11564   */\n      dup3\n        /* \"#utility.yul\":11553:11556   */\n      dup3\n        /* \"#utility.yul\":11546:11565   */\n      mstore\n        /* \"#utility.yul\":11598:11602   */\n      0x20\n        /* \"#utility.yul\":11593:11596   */\n      dup3\n        /* \"#utility.yul\":11589:11603   */\n      add\n        /* \"#utility.yul\":11574:11603   */\n      swap1\n      pop\n        /* \"#utility.yul\":11440:11609   */\n      swap3\n      swap2\n      pop\n      pop\n      jump\t// out\n        /* \"#utility.yul\":11615:11992   */\n    tag_146:\n        /* \"#utility.yul\":11703:11706   */\n      0x00\n        /* \"#utility.yul\":11731:11770   */\n      tag_286\n        /* \"#utility.yul\":11764:11769   */\n      dup3\n        /* \"#utility.yul\":11731:11770   */\n      tag_125\n      jump\t// in\n    tag_286:\n        /* \"#utility.yul\":11786:11857   */\n      tag_287\n        /* \"#utility.yul\":11850:11856   */\n      dup2\n        /* \"#utility.yul\":11845:11848   */\n      dup6\n        /* \"#utility.yul\":11786:11857   */\n      tag_145\n      jump\t// in\n    tag_287:\n        /* \"#utility.yul\":11779:11857   */\n      swap4\n      pop\n        /* \"#utility.yul\":11866:11931   */\n      tag_288\n        /* \"#utility.yul\":11924:11930   */\n      dup2\n        /* \"#utility.yul\":11919:11922   */\n      dup6\n        /* \"#utility.yul\":11912:11916   */\n      0x20\n        /* \"#utility.yul\":11905:11910   */\n      dup7\n        /* \"#utility.yul\":11901:11917   */\n      add\n        /* \"#utility.yul\":11866:11931   */\n      tag_127\n      jump\t// in\n    tag_288:\n        /* \"#utility.yul\":11956:11985   */\n      tag_289\n        /* \"#utility.yul\":11978:11984   */\n      dup2\n        /* \"#utility.yul\":11956:11985   */\n      tag_128\n      jump\t// in\n    tag_289:\n        /* \"#utility.yul\":11951:11954   */\n      dup5\n        /* \"#utility.yul\":11947:11986   */\n      add\n        /* \"#utility.yul\":11940:11986   */\n      swap2\n      pop\n        /* \"#utility.yul\":11707:11992   */\n      pop\n        /* \"#utility.yul\":11615:11992   */\n      swap3\n      swap2\n      pop\n      pop\n      jump\t// out\n        /* \"#utility.yul\":11998:13244   */\n    tag_57:\n        /* \"#utility.yul\":12335:12339   */\n      0x00\n        /* \"#utility.yul\":12373:12376   */\n      0x0100\n        /* \"#utility.yul\":12362:12371   */\n      dup3\n        /* \"#utility.yul\":12358:12377   */\n      add\n        /* \"#utility.yul\":12350:12377   */\n      swap1\n      pop\n        /* \"#utility.yul\":12387:12458   */\n      tag_291\n        /* \"#utility.yul\":12455:12456   */\n      0x00\n        /* \"#utility.yul\":12444:12453   */\n      dup4\n        /* \"#utility.yul\":12440:12457   */\n      add\n        /* \"#utility.yul\":12431:12437   */\n      dup12\n        /* \"#utility.yul\":12387:12458   */\n      tag_143\n      jump\t// in\n    tag_291:\n        /* \"#utility.yul\":12468:12534   */\n      tag_292\n        /* \"#utility.yul\":12530:12532   */\n      0x20\n        /* \"#utility.yul\":12519:12528   */\n      dup4\n        /* \"#utility.yul\":12515:12533   */\n      add\n        /* \"#utility.yul\":12506:12512   */\n      dup11\n        /* \"#utility.yul\":12468:12534   */\n      tag_122\n      jump\t// in\n    tag_292:\n        /* \"#utility.yul\":12544:12610   */\n      tag_293\n        /* \"#utility.yul\":12606:12608   */\n      0x40\n        /* \"#utility.yul\":12595:12604   */\n      dup4\n        /* \"#utility.yul\":12591:12609   */\n      add\n        /* \"#utility.yul\":12582:12588   */\n      dup10\n        /* \"#utility.yul\":12544:12610   */\n      tag_122\n      jump\t// in\n    tag_293:\n        /* \"#utility.yul\":12620:12692   */\n      tag_294\n        /* \"#utility.yul\":12688:12690   */\n      0x60\n        /* \"#utility.yul\":12677:12686   */\n      dup4\n        /* \"#utility.yul\":12673:12691   */\n      add\n        /* \"#utility.yul\":12664:12670   */\n      dup9\n        /* \"#utility.yul\":12620:12692   */\n      tag_143\n      jump\t// in\n    tag_294:\n        /* \"#utility.yul\":12740:12749   */\n      dup2\n        /* \"#utility.yul\":12734:12738   */\n      dup2\n        /* \"#utility.yul\":12730:12750   */\n      sub\n        /* \"#utility.yul\":12724:12727   */\n      0x80\n        /* \"#utility.yul\":12713:12722   */\n      dup4\n        /* \"#utility.yul\":12709:12728   */\n      add\n        /* \"#utility.yul\":12702:12751   */\n      mstore\n        /* \"#utility.yul\":12768:12846   */\n      tag_295\n        /* \"#utility.yul\":12841:12845   */\n      dup2\n        /* \"#utility.yul\":12832:12838   */\n      dup8\n        /* \"#utility.yul\":12768:12846   */\n      tag_146\n      jump\t// in\n    tag_295:\n        /* \"#utility.yul\":12760:12846   */\n      swap1\n      pop\n        /* \"#utility.yul\":12894:12903   */\n      dup2\n        /* \"#utility.yul\":12888:12892   */\n      dup2\n        /* \"#utility.yul\":12884:12904   */\n      sub\n        /* \"#utility.yul\":12878:12881   */\n      0xa0\n        /* \"#utility.yul\":12867:12876   */\n      dup4\n        /* \"#utility.yul\":12863:12882   */\n      add\n        /* \"#utility.yul\":12856:12905   */\n      mstore\n        /* \"#utility.yul\":12922:13000   */\n      tag_296\n        /* \"#utility.yul\":12995:12999   */\n      dup2\n        /* \"#utility.yul\":12986:12992   */\n      dup7\n        /* \"#utility.yul\":12922:13000   */\n      tag_146\n      jump\t// in\n    tag_296:\n        /* \"#utility.yul\":12914:13000   */\n      swap1\n      pop\n        /* \"#utility.yul\":13048:13057   */\n      dup2\n        /* \"#utility.yul\":13042:13046   */\n      dup2\n        /* \"#utility.yul\":13038:13058   */\n      sub\n        /* \"#utility.yul\":13032:13035   */\n      0xc0\n        /* \"#utility.yul\":13021:13030   */\n      dup4\n        /* \"#utility.yul\":13017:13036   */\n      add\n        /* \"#utility.yul\":13010:13059   */\n      mstore\n        /* \"#utility.yul\":13076:13154   */\n      tag_297\n        /* \"#utility.yul\":13149:13153   */\n      dup2\n        /* \"#utility.yul\":13140:13146   */\n      dup6\n        /* \"#utility.yul\":13076:13154   */\n      tag_146\n      jump\t// in\n    tag_297:\n        /* \"#utility.yul\":13068:13154   */\n      swap1\n      pop\n        /* \"#utility.yul\":13164:13237   */\n      tag_298\n        /* \"#utility.yul\":13232:13235   */\n      0xe0\n        /* \"#utility.yul\":13221:13230   */\n      dup4\n        /* \"#utility.yul\":13217:13236   */\n      add\n        /* \"#utility.yul\":13208:13214   */\n      dup5\n        /* \"#utility.yul\":13164:13237   */\n      tag_144\n      jump\t// in\n    tag_298:\n        /* \"#utility.yul\":11998:13244   */\n      swap10\n      swap9\n      pop\n      pop\n      pop\n      pop\n      pop\n      pop\n      pop\n      pop\n      pop\n      jump\t// out\n        /* \"#utility.yul\":13250:13430   */\n    tag_147:\n        /* \"#utility.yul\":13298:13375   */\n      0x4e487b7100000000000000000000000000000000000000000000000000000000\n        /* \"#utility.yul\":13295:13296   */\n      0x00\n        /* \"#utility.yul\":13288:13376   */\n      mstore\n        /* \"#utility.yul\":13395:13399   */\n      0x22\n        /* \"#utility.yul\":13392:13393   */\n      0x04\n        /* \"#utility.yul\":13385:13400   */\n      mstore\n        /* \"#utility.yul\":13419:13423   */\n      0x24\n        /* \"#utility.yul\":13416:13417   */\n      0x00\n        /* \"#utility.yul\":13409:13424   */\n      revert\n        /* \"#utility.yul\":13436:13756   */\n    tag_64:\n        /* \"#utility.yul\":13480:13486   */\n      0x00\n        /* \"#utility.yul\":13517:13518   */\n      0x02\n        /* \"#utility.yul\":13511:13515   */\n      dup3\n        /* \"#utility.yul\":13507:13519   */\n      div\n        /* \"#utility.yul\":13497:13519   */\n      swap1\n      pop\n        /* \"#utility.yul\":13564:13565   */\n      0x01\n        /* \"#utility.yul\":13558:13562   */\n      dup3\n        /* \"#utility.yul\":13554:13566   */\n      and\n        /* \"#utility.yul\":13585:13603   */\n      dup1\n        /* \"#utility.yul\":13575:13656   */\n      tag_301\n      jumpi\n        /* \"#utility.yul\":13641:13645   */\n      0x7f\n        /* \"#utility.yul\":13633:13639   */\n      dup3\n        /* \"#utility.yul\":13629:13646   */\n      and\n        /* \"#utility.yul\":13619:13646   */\n      swap2\n      pop\n        /* \"#utility.yul\":13575:13656   */\n    tag_301:\n        /* \"#utility.yul\":13703:13705   */\n      0x20\n        /* \"#utility.yul\":13695:13701   */\n      dup3\n        /* \"#utility.yul\":13692:13706   */\n      lt\n        /* \"#utility.yul\":13672:13690   */\n      dup2\n        /* \"#utility.yul\":13669:13707   */\n      sub\n        /* \"#utility.yul\":13666:13750   */\n      tag_302\n      jumpi\n        /* \"#utility.yul\":13722:13740   */\n      tag_303\n      tag_147\n      jump\t// in\n    tag_303:\n        /* \"#utility.yul\":13666:13750   */\n    tag_302:\n        /* \"#utility.yul\":13487:13756   */\n      pop\n        /* \"#utility.yul\":13436:13756   */\n      swap2\n      swap1\n      pop\n      jump\t// out\n        /* \"#utility.yul\":13762:13903   */\n    tag_148:\n        /* \"#utility.yul\":13811:13815   */\n      0x00\n        /* \"#utility.yul\":13834:13837   */\n      dup2\n        /* \"#utility.yul\":13826:13837   */\n      swap1\n      pop\n        /* \"#utility.yul\":13857:13860   */\n      dup2\n        /* \"#utility.yul\":13854:13855   */\n      0x00\n        /* \"#utility.yul\":13847:13861   */\n      mstore\n        /* \"#utility.yul\":13891:13895   */\n      0x20\n        /* \"#utility.yul\":13888:13889   */\n      0x00\n        /* \"#utility.yul\":13878:13896   */\n      keccak256\n        /* \"#utility.yul\":13870:13896   */\n      swap1\n      pop\n        /* \"#utility.yul\":13762:13903   */\n      swap2\n      swap1\n      pop\n      jump\t// out\n        /* \"#utility.yul\":13909:14002   */\n    tag_149:\n        /* \"#utility.yul\":13946:13952   */\n      0x00\n        /* \"#utility.yul\":13993:13995   */\n      0x20\n        /* \"#utility.yul\":13988:13990   */\n      0x1f\n        /* \"#utility.yul\":13981:13986   */\n      dup4\n        /* \"#utility.yul\":13977:13991   */\n      add\n        /* \"#utility.yul\":13973:13996   */\n      div\n        /* \"#utility.yul\":13963:13996   */\n      swap1\n      pop\n        /* \"#utility.yul\":13909:14002   */\n      swap2\n      swap1\n      pop\n      jump\t// out\n        /* \"#utility.yul\":14008:14115   */\n    tag_150:\n        /* \"#utility.yul\":14052:14060   */\n      0x00\n        /* \"#utility.yul\":14102:14107   */\n      dup3\n        /* \"#utility.yul\":14096:14100   */\n      dup3\n        /* \"#utility.yul\":14092:14108   */\n      shl\n        /* \"#utility.yul\":14071:14108   */\n      swap1\n      pop\n        /* \"#utility.yul\":14008:14115   */\n      swap3\n      swap2\n      pop\n      pop\n      jump\t// out\n        /* \"#utility.yul\":14121:14514   */\n    tag_151:\n        /* \"#utility.yul\":14190:14196   */\n      0x00\n        /* \"#utility.yul\":14240:14241   */\n      0x08\n        /* \"#utility.yul\":14228:14238   */\n      dup4\n        /* \"#utility.yul\":14224:14242   */\n      mul\n        /* \"#utility.yul\":14263:14360   */\n      tag_308\n        /* \"#utility.yul\":14293:14359   */\n      0xffffffffffffffffffffffffffffffffffffffffffffffffffffffffffffffff\n        /* \"#utility.yul\":14282:14291   */\n      dup3\n        /* \"#utility.yul\":14263:14360   */\n      tag_150\n      jump\t// in\n    tag_308:\n        /* \"#utility.yul\":14381:14420   */\n      tag_309\n        /* \"#utility.yul\":14411:14419   */\n      dup7\n        /* \"#utility.yul\":14400:14409   */\n      dup4\n        /* \"#utility.yul\":14381:14420   */\n      tag_150\n      jump\t// in\n    tag_309:\n        /* \"#utility.yul\":14369:14420   */\n      swap6\n      pop\n        /* \"#utility.yul\":14453:14457   */\n      dup1\n        /* \"#utility.yul\":14449:14458   */\n      not\n        /* \"#utility.yul\":14442:14447   */\n      dup5\n        /* \"#utility.yul\":14438:14459   */\n      and\n        /* \"#utility.yul\":14429:14459   */\n      swap4\n      pop\n        /* \"#utility.yul\":14502:14506   */\n      dup1\n        /* \"#utility.yul\":14492:14500   */\n      dup7\n        /* \"#utility.yul\":14488:14507   */\n      and\n        /* \"#utility.yul\":14481:14486   */\n      dup5\n        /* \"#utility.yul\":14478:14508   */\n      or\n        /* \"#utility.yul\":14468:14508   */\n      swap3\n      pop\n        /* \"#utility.yul\":14197:14514   */\n      pop\n      pop\n        /* \"#utility.yul\":14121:14514   */\n      swap4\n      swap3\n      pop\n      pop\n      pop\n      jump\t// out\n        /* \"#utility.yul\":14520:14580   */\n    tag_152:\n        /* \"#utility.yul\":14548:14551   */\n      0x00\n        /* \"#utility.yul\":14569:14574   */\n      dup2\n        /* \"#utility.yul\":14562:14574   */\n      swap1\n      pop\n        /* \"#utility.yul\":14520:14580   */\n      swap2\n      swap1\n      pop\n      jump\t// out\n        /* \"#utility.yul\":14586:14728   */\n    tag_153:\n        /* \"#utility.yul\":14636:14645   */\n      0x00\n        /* \"#utility.yul\":14669:14722   */\n      tag_312\n        /* \"#utility.yul\":14687:14721   */\n      tag_313\n        /* \"#utility.yul\":14696:14720   */\n      tag_314\n        /* \"#utility.yul\":14714:14719   */\n      dup5\n        /* \"#utility.yul\":14696:14720   */\n      tag_116\n      jump\t// in\n    tag_314:\n        /* \"#utility.yul\":14687:14721   */\n      tag_152\n      jump\t// in\n    tag_313:\n        /* \"#utility.yul\":14669:14722   */\n      tag_116\n      jump\t// in\n    tag_312:\n        /* \"#utility.yul\":14656:14722   */\n      swap1\n      pop\n        /* \"#utility.yul\":14586:14728   */\n      swap2\n      swap1\n      pop\n      jump\t// out\n        /* \"#utility.yul\":14734:14809   */\n    tag_154:\n        /* \"#utility.yul\":14777:14780   */\n      0x00\n        /* \"#utility.yul\":14798:14803   */\n      dup2\n        /* \"#utility.yul\":14791:14803   */\n      swap1\n      pop\n        /* \"#utility.yul\":14734:14809   */\n      swap2\n      swap1\n      pop\n      jump\t// out\n        /* \"#utility.yul\":14815:15084   */\n    tag_155:\n        /* \"#utility.yul\":14925:14964   */\n      tag_317\n        /* \"#utility.yul\":14956:14963   */\n      dup4\n        /* \"#utility.yul\":14925:14964   */\n      tag_153\n      jump\t// in\n    tag_317:\n        /* \"#utility.yul\":14986:15077   */\n      tag_318\n        /* \"#utility.yul\":15035:15076   */\n      tag_319\n        /* \"#utility.yul\":15059:15075   */\n      dup3\n        /* \"#utility.yul\":15035:15076   */\n      tag_154\n      jump\t// in\n    tag_319:\n        /* \"#utility.yul\":15027:15033   */\n      dup5\n        /* \"#utility.yul\":15020:15024   */\n      dup5\n        /* \"#utility.yul\":15014:15025   */\n      sload\n        /* \"#utility.yul\":14986:15077   */\n      tag_151\n      jump\t// in\n    tag_318:\n        /* \"#utility.yul\":14980:14984   */\n      dup3\n        /* \"#utility.yul\":14973:15078   */\n      sstore\n        /* \"#utility.yul\":14891:15084   */\n      pop\n        /* \"#utility.yul\":14815:15084   */\n      pop\n      pop\n      pop\n      jump\t// out\n        /* \"#utility.yul\":15090:15163   */\n    tag_156:\n        /* \"#utility.yul\":15135:15138   */\n      0x00\n        /* \"#utility.yul\":15090:15163   */\n      swap1\n      jump\t// out\n        /* \"#utility.yul\":15169:15358   */\n    tag_157:\n        /* \"#utility.yul\":15246:15278   */\n      tag_322\n      tag_156\n      jump\t// in\n    tag_322:\n        /* \"#utility.yul\":15287:15352   */\n      tag_323\n        /* \"#utility.yul\":15345:15351   */\n      dup2\n        /* \"#utility.yul\":15337:15343   */\n      dup5\n        /* \"#utility.yul\":15331:15335   */\n      dup5\n        /* \"#utility.yul\":15287:15352   */\n      tag_155\n      jump\t// in\n    tag_323:\n        /* \"#utility.yul\":15222:15358   */\n      pop\n        /* \"#utility.yul\":15169:15358   */\n      pop\n      pop\n      jump\t// out\n        /* \"#utility.yul\":15364:15550   */\n    tag_158:\n        /* \"#utility.yul\":15424:15544   */\n    tag_325:\n        /* \"#utility.yul\":15441:15444   */\n      dup2\n        /* \"#utility.yul\":15434:15439   */\n      dup2\n        /* \"#utility.yul\":15431:15445   */\n      lt\n        /* \"#utility.yul\":15424:15544   */\n      iszero\n      tag_327\n      jumpi\n        /* \"#utility.yul\":15495:15534   */\n      tag_328\n        /* \"#utility.yul\":15532:15533   */\n      0x00\n        /* \"#utility.yul\":15525:15530   */\n      dup3\n        /* \"#utility.yul\":15495:15534   */\n      tag_157\n      jump\t// in\n    tag_328:\n        /* \"#utility.yul\":15468:15469   */\n      0x01\n        /* \"#utility.yul\":15461:15466   */\n      dup2\n        /* \"#utility.yul\":15457:15470   */\n      add\n        /* \"#utility.yul\":15448:15470   */\n      swap1\n      pop\n        /* \"#utility.yul\":15424:15544   */\n      jump(tag_325)\n    tag_327:\n        /* \"#utility.yul\":15364:15550   */\n      pop\n      pop\n      jump\t// out\n        /* \"#utility.yul\":15556:16099   */\n    tag_159:\n        /* \"#utility.yul\":15657:15659   */\n      0x1f\n        /* \"#utility.yul\":15652:15655   */\n      dup3\n        /* \"#utility.yul\":15649:15660   */\n      gt\n        /* \"#utility.yul\":15646:16092   */\n      iszero\n      tag_330\n      jumpi\n        /* \"#utility.yul\":15691:15729   */\n      tag_331\n        /* \"#utility.yul\":15723:15728   */\n      dup2\n        /* \"#utility.yul\":15691:15729   */\n      tag_148\n      jump\t// in\n    tag_331:\n        /* \"#utility.yul\":15775:15804   */\n      tag_332\n        /* \"#utility.yul\":15793:15803   */\n      dup5\n        /* \"#utility.yul\":15775:15804   */\n      tag_149\n      jump\t// in\n    tag_332:\n        /* \"#utility.yul\":15765:15773   */\n      dup2\n        /* \"#utility.yul\":15761:15805   */\n      add\n        /* \"#utility.yul\":15958:15960   */\n      0x20\n        /* \"#utility.yul\":15946:15956   */\n      dup6\n        /* \"#utility.yul\":15943:15961   */\n      lt\n        /* \"#utility.yul\":15940:15989   */\n      iszero\n      tag_333\n      jumpi\n        /* \"#utility.yul\":15979:15987   */\n      dup2\n        /* \"#utility.yul\":15964:15987   */\n      swap1\n      pop\n        /* \"#utility.yul\":15940:15989   */\n    tag_333:\n        /* \"#utility.yul\":16002:16082   */\n      tag_334\n        /* \"#utility.yul\":16058:16080   */\n      tag_335\n        /* \"#utility.yul\":16076:16079   */\n      dup6\n        /* \"#utility.yul\":16058:16080   */\n      tag_149\n      jump\t// in\n    tag_335:\n        /* \"#utility.yul\":16048:16056   */\n      dup4\n        /* \"#utility.yul\":16044:16081   */\n      add\n        /* \"#utility.yul\":16031:16042   */\n      dup3\n        /* \"#utility.yul\":16002:16082   */\n      tag_158\n      jump\t// in\n    tag_334:\n        /* \"#utility.yul\":15661:16092   */\n      pop\n      pop\n        /* \"#utility.yul\":15646:16092   */\n    tag_330:\n        /* \"#utility.yul\":15556:16099   */\n      pop\n      pop\n      pop\n      jump\t// out\n        /* \"#utility.yul\":16105:16222   */\n    tag_160:\n        /* \"#utility.yul\":16159:16167   */\n      0x00\n        /* \"#utility.yul\":16209:16214   */\n      dup3\n        /* \"#utility.yul\":16203:16207   */\n      dup3\n        /* \"#utility.yul\":16199:16215   */\n      shr\n        /* \"#utility.yul\":16178:16215   */\n      swap1\n      pop\n        /* \"#utility.yul\":16105:16222   */\n      swap3\n      swap2\n      pop\n      pop\n      jump\t// out\n        /* \"#utility.yul\":16228:16397   */\n    tag_161:\n        /* \"#utility.yul\":16272:16278   */\n      0x00\n        /* \"#utility.yul\":16305:16356   */\n      tag_338\n        /* \"#utility.yul\":16353:16354   */\n      0x00\n        /* \"#utility.yul\":16349:16355   */\n      not\n        /* \"#utility.yul\":16341:16346   */\n      dup5\n        /* \"#utility.yul\":16338:16339   */\n      0x08\n        /* \"#utility.yul\":16334:16347   */\n      mul\n        /* \"#utility.yul\":16305:16356   */\n      tag_160\n      jump\t// in\n    tag_338:\n        /* \"#utility.yul\":16301:16357   */\n      not\n        /* \"#utility.yul\":16386:16390   */\n      dup1\n        /* \"#utility.yul\":16380:16384   */\n      dup4\n        /* \"#utility.yul\":16376:16391   */\n      and\n        /* \"#utility.yul\":16366:16391   */\n      swap2\n      pop\n        /* \"#utility.yul\":16279:16397   */\n      pop\n        /* \"#utility.yul\":16228:16397   */\n      swap3\n      swap2\n      pop\n      pop\n      jump\t// out\n        /* \"#utility.yul\":16402:16697   */\n    tag_162:\n        /* \"#utility.yul\":16478:16482   */\n      0x00\n        /* \"#utility.yul\":16624:16653   */\n      tag_340\n        /* \"#utility.yul\":16649:16652   */\n      dup4\n        /* \"#utility.yul\":16643:16647   */\n      dup4\n        /* \"#utility.yul\":16624:16653   */\n      tag_161\n      jump\t// in\n    tag_340:\n        /* \"#utility.yul\":16616:16653   */\n      swap2\n      pop\n        /* \"#utility.yul\":16686:16689   */\n      dup3\n        /* \"#utility.yul\":16683:16684   */\n      0x02\n        /* \"#utility.yul\":16679:16690   */\n      mul\n        /* \"#utility.yul\":16673:16677   */\n      dup3\n        /* \"#utility.yul\":16670:16691   */\n      or\n        /* \"#utility.yul\":16662:16691   */\n      swap1\n      pop\n        /* \"#utility.yul\":16402:16697   */\n      swap3\n      swap2\n      pop\n      pop\n      jump\t// out\n        /* \"#utility.yul\":16702:18097   */\n    tag_82:\n        /* \"#utility.yul\":16819:16856   */\n      tag_342\n        /* \"#utility.yul\":16852:16855   */\n      dup3\n        /* \"#utility.yul\":16819:16856   */\n      tag_125\n      jump\t// in\n    tag_342:\n        /* \"#utility.yul\":16921:16939   */\n      0xffffffffffffffff\n        /* \"#utility.yul\":16913:16919   */\n      dup2\n        /* \"#utility.yul\":16910:16940   */\n      gt\n        /* \"#utility.yul\":16907:16963   */\n      iszero\n      tag_343\n      jumpi\n        /* \"#utility.yul\":16943:16961   */\n      tag_344\n      tag_136\n      jump\t// in\n    tag_344:\n        /* \"#utility.yul\":16907:16963   */\n    tag_343:\n        /* \"#utility.yul\":16987:17025   */\n      tag_345\n        /* \"#utility.yul\":17019:17023   */\n      dup3\n        /* \"#utility.yul\":17013:17024   */\n      sload\n        /* \"#utility.yul\":16987:17025   */\n      tag_64\n      jump\t// in\n    tag_345:\n        /* \"#utility.yul\":17072:17139   */\n      tag_346\n        /* \"#utility.yul\":17132:17138   */\n      dup3\n        /* \"#utility.yul\":17124:17130   */\n      dup3\n        /* \"#utility.yul\":17118:17122   */\n      dup6\n        /* \"#utility.yul\":17072:17139   */\n      tag_159\n      jump\t// in\n    tag_346:\n        /* \"#utility.yul\":17166:17167   */\n      0x00\n        /* \"#utility.yul\":17190:17194   */\n      0x20\n        /* \"#utility.yul\":17177:17194   */\n      swap1\n      pop\n        /* \"#utility.yul\":17222:17224   */\n      0x1f\n        /* \"#utility.yul\":17214:17220   */\n      dup4\n        /* \"#utility.yul\":17211:17225   */\n      gt\n        /* \"#utility.yul\":17239:17240   */\n      0x01\n        /* \"#utility.yul\":17234:17852   */\n      dup2\n      eq\n      tag_348\n      jumpi\n        /* \"#utility.yul\":17896:17897   */\n      0x00\n        /* \"#utility.yul\":17913:17919   */\n      dup5\n        /* \"#utility.yul\":17910:17987   */\n      iszero\n      tag_349\n      jumpi\n        /* \"#utility.yul\":17962:17971   */\n      dup3\n        /* \"#utility.yul\":17957:17960   */\n      dup8\n        /* \"#utility.yul\":17953:17972   */\n      add\n        /* \"#utility.yul\":17947:17973   */\n      mload\n        /* \"#utility.yul\":17938:17973   */\n      swap1\n      pop\n        /* \"#utility.yul\":17910:17987   */\n    tag_349:\n        /* \"#utility.yul\":18013:18080   */\n      tag_350\n        /* \"#utility.yul\":18073:18079   */\n      dup6\n        /* \"#utility.yul\":18066:18071   */\n      dup3\n        /* \"#utility.yul\":18013:18080   */\n      tag_162\n      jump\t// in\n    tag_350:\n        /* \"#utility.yul\":18007:18011   */\n      dup7\n        /* \"#utility.yul\":18000:18081   */\n      sstore\n        /* \"#utility.yul\":17869:18091   */\n      pop\n        /* \"#utility.yul\":17204:18091   */\n      jump(tag_347)\n        /* \"#utility.yul\":17234:17852   */\n    tag_348:\n        /* \"#utility.yul\":17286:17290   */\n      0x1f\n        /* \"#utility.yul\":17282:17291   */\n      not\n        /* \"#utility.yul\":17274:17280   */\n      dup5\n        /* \"#utility.yul\":17270:17292   */\n      and\n        /* \"#utility.yul\":17320:17357   */\n      tag_351\n        /* \"#utility.yul\":17352:17356   */\n      dup7\n        /* \"#utility.yul\":17320:17357   */\n      tag_148\n      jump\t// in\n    tag_351:\n        /* \"#utility.yul\":17379:17380   */\n      0x00\n        /* \"#utility.yul\":17393:17601   */\n    tag_352:\n        /* \"#utility.yul\":17407:17414   */\n      dup3\n        /* \"#utility.yul\":17404:17405   */\n      dup2\n        /* \"#utility.yul\":17401:17415   */\n      lt\n        /* \"#utility.yul\":17393:17601   */\n      iszero\n      tag_354\n      jumpi\n        /* \"#utility.yul\":17486:17495   */\n      dup5\n        /* \"#utility.yul\":17481:17484   */\n      dup10\n        /* \"#utility.yul\":17477:17496   */\n      add\n        /* \"#utility.yul\":17471:17497   */\n      mload\n        /* \"#utility.yul\":17463:17469   */\n      dup3\n        /* \"#utility.yul\":17456:17498   */\n      sstore\n        /* \"#utility.yul\":17537:17538   */\n      0x01\n        /* \"#utility.yul\":17529:17535   */\n      dup3\n        /* \"#utility.yul\":17525:17539   */\n      add\n        /* \"#utility.yul\":17515:17539   */\n      swap2\n      pop\n        /* \"#utility.yul\":17584:17586   */\n      0x20\n        /* \"#utility.yul\":17573:17582   */\n      dup6\n        /* \"#utility.yul\":17569:17587   */\n      add\n        /* \"#utility.yul\":17556:17587   */\n      swap5\n      pop\n        /* \"#utility.yul\":17430:17434   */\n      0x20\n        /* \"#utility.yul\":17427:17428   */\n      dup2\n        /* \"#utility.yul\":17423:17435   */\n      add\n        /* \"#utility.yul\":17418:17435   */\n      swap1\n      pop\n        /* \"#utility.yul\":17393:17601   */\n      jump(tag_352)\n    tag_354:\n        /* \"#utility.yul\":17629:17635   */\n      dup7\n        /* \"#utility.yul\":17620:17627   */\n      dup4\n        /* \"#utility.yul\":17617:17636   */\n      lt\n        /* \"#utility.yul\":17614:17793   */\n      iszero\n      tag_355\n      jumpi\n        /* \"#utility.yul\":17687:17696   */\n      dup5\n        /* \"#utility.yul\":17682:17685   */\n      dup10\n        /* \"#utility.yul\":17678:17697   */\n      add\n        /* \"#utility.yul\":17672:17698   */\n      mload\n        /* \"#utility.yul\":17730:17778   */\n      tag_356\n        /* \"#utility.yul\":17772:17776   */\n      0x1f\n        /* \"#utility.yul\":17764:17770   */\n      dup10\n        /* \"#utility.yul\":17760:17777   */\n      and\n        /* \"#utility.yul\":17749:17758   */\n      dup3\n        /* \"#utility.yul\":17730:17778   */\n      tag_161\n      jump\t// in\n    tag_356:\n        /* \"#utility.yul\":17722:17728   */\n      dup4\n        /* \"#utility.yul\":17715:17779   */\n      sstore\n        /* \"#utility.yul\":17637:17793   */\n      pop\n        /* \"#utility.yul\":17614:17793   */\n    tag_355:\n        /* \"#utility.yul\":17839:17840   */\n      0x01\n        /* \"#utility.yul\":17835:17836   */\n      0x02\n        /* \"#utility.yul\":17827:17833   */\n      dup9\n        /* \"#utility.yul\":17823:17837   */\n      mul\n        /* \"#utility.yul\":17819:17841   */\n      add\n        /* \"#utility.yul\":17813:17817   */\n      dup9\n        /* \"#utility.yul\":17806:17842   */\n      sstore\n        /* \"#utility.yul\":17241:17852   */\n      pop\n      pop\n      pop\n        /* \"#utility.yul\":17204:18091   */\n    tag_347:\n      pop\n        /* \"#utility.yul\":16794:18097   */\n      pop\n      pop\n      pop\n        /* \"#utility.yul\":16702:18097   */\n      pop\n      pop\n      jump\t// out\n        /* \"#utility.yul\":18103:18283   */\n    tag_163:\n        /* \"#utility.yul\":18151:18228   */\n      0x4e487b7100000000000000000000000000000000000000000000000000000000\n        /* \"#utility.yul\":18148:18149   */\n      0x00\n        /* \"#utility.yul\":18141:18229   */\n      mstore\n        /* \"#utility.yul\":18248:18252   */\n      0x11\n        /* \"#utility.yul\":18245:18246   */\n      0x04\n        /* \"#utility.yul\":18238:18253   */\n      mstore\n        /* \"#utility.yul\":18272:18276   */\n      0x24\n        /* \"#utility.yul\":18269:18270   */\n      0x00\n        /* \"#utility.yul\":18262:18277   */\n      revert\n        /* \"#utility.yul\":18289:18522   */\n    tag_92:\n        /* \"#utility.yul\":18328:18331   */\n      0x00\n        /* \"#utility.yul\":18351:18375   */\n      tag_359\n        /* \"#utility.yul\":18369:18374   */\n      dup3\n        /* \"#utility.yul\":18351:18375   */\n      tag_116\n      jump\t// in\n    tag_359:\n        /* \"#utility.yul\":18342:18375   */\n      swap2\n      pop\n        /* \"#utility.yul\":18397:18463   */\n      0xffffffffffffffffffffffffffffffffffffffffffffffffffffffffffffffff\n        /* \"#utility.yul\":18390:18395   */\n      dup3\n        /* \"#utility.yul\":18387:18464   */\n      sub\n        /* \"#utility.yul\":18384:18487   */\n      tag_360\n      jumpi\n        /* \"#utility.yul\":18467:18485   */\n      tag_361\n      tag_163\n      jump\t// in\n    tag_361:\n        /* \"#utility.yul\":18384:18487   */\n    tag_360:\n        /* \"#utility.yul\":18514:18515   */\n      0x01\n        /* \"#utility.yul\":18507:18512   */\n      dup3\n        /* \"#utility.yul\":18503:18516   */\n      add\n        /* \"#utility.yul\":18496:18516   */\n      swap1\n      pop\n        /* \"#utility.yul\":18289:18522   */\n      swap2\n      swap1\n      pop\n      jump\t// out\n        /* \"#utility.yul\":18528:19675   */\n    tag_97:\n        /* \"#utility.yul\":18843:18847   */\n      0x00\n        /* \"#utility.yul\":18881:18884   */\n      0xe0\n        /* \"#utility.yul\":18870:18879   */\n      dup3\n        /* \"#utility.yul\":18866:18885   */\n      add\n        /* \"#utility.yul\":18858:18885   */\n      swap1\n      pop\n        /* \"#utility.yul\":18895:18966   */\n      tag_363\n        /* \"#utility.yul\":18963:18964   */\n      0x00\n        /* \"#utility.yul\":18952:18961   */\n      dup4\n        /* \"#utility.yul\":18948:18965   */\n      add\n        /* \"#utility.yul\":18939:18945   */\n      dup11\n        /* \"#utility.yul\":18895:18966   */\n      tag_143\n      jump\t// in\n    tag_363:\n        /* \"#utility.yul\":18976:19042   */\n      tag_364\n        /* \"#utility.yul\":19038:19040   */\n      0x20\n        /* \"#utility.yul\":19027:19036   */\n      dup4\n        /* \"#utility.yul\":19023:19041   */\n      add\n        /* \"#utility.yul\":19014:19020   */\n      dup10\n        /* \"#utility.yul\":18976:19042   */\n      tag_122\n      jump\t// in\n    tag_364:\n        /* \"#utility.yul\":19052:19124   */\n      tag_365\n        /* \"#utility.yul\":19120:19122   */\n      0x40\n        /* \"#utility.yul\":19109:19118   */\n      dup4\n        /* \"#utility.yul\":19105:19123   */\n      add\n        /* \"#utility.yul\":19096:19102   */\n      dup9\n        /* \"#utility.yul\":19052:19124   */\n      tag_143\n      jump\t// in\n    tag_365:\n        /* \"#utility.yul\":19171:19180   */\n      dup2\n        /* \"#utility.yul\":19165:19169   */\n      dup2\n        /* \"#utility.yul\":19161:19181   */\n      sub\n        /* \"#utility.yul\":19156:19158   */\n      0x60\n        /* \"#utility.yul\":19145:19154   */\n      dup4\n        /* \"#utility.yul\":19141:19159   */\n      add\n        /* \"#utility.yul\":19134:19182   */\n      mstore\n        /* \"#utility.yul\":19199:19277   */\n      tag_366\n        /* \"#utility.yul\":19272:19276   */\n      dup2\n        /* \"#utility.yul\":19263:19269   */\n      dup8\n        /* \"#utility.yul\":19199:19277   */\n      tag_146\n      jump\t// in\n    tag_366:\n        /* \"#utility.yul\":19191:19277   */\n      swap1\n      pop\n        /* \"#utility.yul\":19325:19334   */\n      dup2\n        /* \"#utility.yul\":19319:19323   */\n      dup2\n        /* \"#utility.yul\":19315:19335   */\n      sub\n        /* \"#utility.yul\":19309:19312   */\n      0x80\n        /* \"#utility.yul\":19298:19307   */\n      dup4\n        /* \"#utility.yul\":19294:19313   */\n      add\n        /* \"#utility.yul\":19287:19336   */\n      mstore\n        /* \"#utility.yul\":19353:19431   */\n      tag_367\n        /* \"#utility.yul\":19426:19430   */\n      dup2\n        /* \"#utility.yul\":19417:19423   */\n      dup7\n        /* \"#utility.yul\":19353:19431   */\n      tag_146\n      jump\t// in\n    tag_367:\n        /* \"#utility.yul\":19345:19431   */\n      swap1\n      pop\n        /* \"#utility.yul\":19479:19488   */\n      dup2\n        /* \"#utility.yul\":19473:19477   */\n      dup2\n        /* \"#utility.yul\":19469:19489   */\n      sub\n        /* \"#utility.yul\":19463:19466   */\n      0xa0\n        /* \"#utility.yul\":19452:19461   */\n      dup4\n        /* \"#utility.yul\":19448:19467   */\n      add\n        /* \"#utility.yul\":19441:19490   */\n      mstore\n        /* \"#utility.yul\":19507:19585   */\n      tag_368\n        /* \"#utility.yul\":19580:19584   */\n      dup2\n        /* \"#utility.yul\":19571:19577   */\n      dup6\n        /* \"#utility.yul\":19507:19585   */\n      tag_146\n      jump\t// in\n    tag_368:\n        /* \"#utility.yul\":19499:19585   */\n      swap1\n      pop\n        /* \"#utility.yul\":19595:19668   */\n      tag_369\n        /* \"#utility.yul\":19663:19666   */\n      0xc0\n        /* \"#utility.yul\":19652:19661   */\n      dup4\n        /* \"#utility.yul\":19648:19667   */\n      add\n        /* \"#utility.yul\":19639:19645   */\n      dup5\n        /* \"#utility.yul\":19595:19668   */\n      tag_144\n      jump\t// in\n    tag_369:\n        /* \"#utility.yul\":18528:19675   */\n      swap9\n      swap8\n      pop\n      pop\n      pop\n      pop\n      pop\n      pop\n      pop\n      pop\n      jump\t// out\n\n    auxdata: 0xa2646970667358221220eaa2a7ee13611c0fd90296982088f481bef203439da9c0e1101c484dc685458f64736f6c63430008160033\n}\n",
				"bytecode": {
					"linkReferences": {},
					"object": "608060405234801561000f575f80fd5b5061148a8061001d5f395ff3fe608060405234801561000f575f80fd5b5060043610610091575f3560e01c8063d092193611610064578063d092193614610143578063dbda146d14610173578063e34fc531146101a3578063e61439d8146101d3578063f7b108081461020357610091565b80632864e4a91461009557806332665ffb146100c557806389f40d93146100f5578063c361a33514610125575b5f80fd5b6100af60048036038101906100aa9190610a8a565b61023a565b6040516100bc9190610ad7565b60405180910390f35b6100df60048036038101906100da9190610af0565b610271565b6040516100ec9190610cbd565b60405180910390f35b61010f600480360381019061010a9190610e09565b6104e9565b60405161011c9190610ad7565b60405180910390f35b61012d610517565b60405161013a9190610e72565b60405180910390f35b61015d60048036038101906101589190610e8b565b61051d565b60405161016a9190610ad7565b60405180910390f35b61018d60048036038101906101889190610a8a565b61055d565b60405161019a9190610ad7565b60405180910390f35b6101bd60048036038101906101b89190610af0565b6105c1565b6040516101ca9190610ed8565b60405180910390f35b6101ed60048036038101906101e89190610ef1565b6105fc565b6040516101fa9190610ad7565b60405180910390f35b61021d60048036038101906102189190610af0565b6107aa565b604051610231989796959493929190611004565b60405180910390f35b5f82825f808681526020019081526020015f206001015f6101000a81548160ff021916908315150217905550600191505092915050565b6102796109b7565b5f808381526020019081526020015f20604051806101000160405290815f8201548152602001600182015f9054906101000a900460ff161515151581526020016001820160019054906101000a900460ff16151515158152602001600282015481526020016003820180546102ed906110c2565b80601f0160208091040260200160405190810160405280929190818152602001828054610319906110c2565b80156103645780601f1061033b57610100808354040283529160200191610364565b820191905f5260205f20905b81548152906001019060200180831161034757829003601f168201915b5050505050815260200160048201805461037d906110c2565b80601f01602080910402602001604051908101604052809291908181526020018280546103a9906110c2565b80156103f45780601f106103cb576101008083540402835291602001916103f4565b820191905f5260205f20905b8154815290600101906020018083116103d757829003601f168201915b5050505050815260200160058201805461040d906110c2565b80601f0160208091040260200160405190810160405280929190818152602001828054610439906110c2565b80156104845780601f1061045b57610100808354040283529160200191610484565b820191905f5260205f20905b81548152906001019060200180831161046757829003601f168201915b50505050508152602001600682015f9054906101000a900473ffffffffffffffffffffffffffffffffffffffff1673ffffffffffffffffffffffffffffffffffffffff1673ffffffffffffffffffffffffffffffffffffffff16815250509050919050565b5f82825f808681526020019081526020015f20600401908161050b919061128f565b50600191505092915050565b60015481565b5f82825f808681526020019081526020015f20600201541461055257825f808681526020019081526020015f20600201819055505b600191505092915050565b5f828215155f808681526020019081526020015f2060010160019054906101000a900460ff161515146105b657825f808681526020019081526020015f2060010160016101000a81548160ff0219169083151502179055505b600191505092915050565b5f805f8381526020019081526020015f206006015f9054906101000a900473ffffffffffffffffffffffffffffffffffffffff169050919050565b5f60015f81548092919061060f9061138b565b9190505550604051806101000160405280600154815260200187151581526020015f151581526020018681526020018581526020018481526020018381526020013273ffffffffffffffffffffffffffffffffffffffff168152505f8060015481526020019081526020015f205f820151815f01556020820151816001015f6101000a81548160ff02191690831515021790555060408201518160010160016101000a81548160ff0219169083151502179055506060820151816002015560808201518160030190816106e2919061128f565b5060a08201518160040190816106f8919061128f565b5060c082015181600501908161070e919061128f565b5060e0820151816006015f6101000a81548173ffffffffffffffffffffffffffffffffffffffff021916908373ffffffffffffffffffffffffffffffffffffffff1602179055509050507f55d4c37f0be82a4c779966b6f194911d8d57f787390b393eb7166c6d9a0bdc5560015487878787873260405161079597969594939291906113d2565b60405180910390a16001905095945050505050565b5f602052805f5260405f205f91509050805f015490806001015f9054906101000a900460ff16908060010160019054906101000a900460ff16908060020154908060030180546107f9906110c2565b80601f0160208091040260200160405190810160405280929190818152602001828054610825906110c2565b80156108705780601f1061084757610100808354040283529160200191610870565b820191905f5260205f20905b81548152906001019060200180831161085357829003601f168201915b505050505090806004018054610885906110c2565b80601f01602080910402602001604051908101604052809291908181526020018280546108b1906110c2565b80156108fc5780601f106108d3576101008083540402835291602001916108fc565b820191905f5260205f20905b8154815290600101906020018083116108df57829003601f168201915b505050505090806005018054610911906110c2565b80601f016020809104026020016040519081016040528092919081815260200182805461093d906110c2565b80156109885780601f1061095f57610100808354040283529160200191610988565b820191905f5260205f20905b81548152906001019060200180831161096b57829003601f168201915b505050505090806006015f9054906101000a900473ffffffffffffffffffffffffffffffffffffffff16905088565b6040518061010001604052805f81526020015f151581526020015f151581526020015f81526020016060815260200160608152602001606081526020015f73ffffffffffffffffffffffffffffffffffffffff1681525090565b5f604051905090565b5f80fd5b5f80fd5b5f819050919050565b610a3481610a22565b8114610a3e575f80fd5b50565b5f81359050610a4f81610a2b565b92915050565b5f8115159050919050565b610a6981610a55565b8114610a73575f80fd5b50565b5f81359050610a8481610a60565b92915050565b5f8060408385031215610aa057610a9f610a1a565b5b5f610aad85828601610a41565b9250506020610abe85828601610a76565b9150509250929050565b610ad181610a55565b82525050565b5f602082019050610aea5f830184610ac8565b92915050565b5f60208284031215610b0557610b04610a1a565b5b5f610b1284828501610a41565b91505092915050565b610b2481610a22565b82525050565b610b3381610a55565b82525050565b5f81519050919050565b5f82825260208201905092915050565b5f5b83811015610b70578082015181840152602081019050610b55565b5f8484015250505050565b5f601f19601f8301169050919050565b5f610b9582610b39565b610b9f8185610b43565b9350610baf818560208601610b53565b610bb881610b7b565b840191505092915050565b5f73ffffffffffffffffffffffffffffffffffffffff82169050919050565b5f610bec82610bc3565b9050919050565b610bfc81610be2565b82525050565b5f61010083015f830151610c185f860182610b1b565b506020830151610c2b6020860182610b2a565b506040830151610c3e6040860182610b2a565b506060830151610c516060860182610b1b565b5060808301518482036080860152610c698282610b8b565b91505060a083015184820360a0860152610c838282610b8b565b91505060c083015184820360c0860152610c9d8282610b8b565b91505060e0830151610cb260e0860182610bf3565b508091505092915050565b5f6020820190508181035f830152610cd58184610c02565b905092915050565b5f80fd5b5f80fd5b7f4e487b71000000000000000000000000000000000000000000000000000000005f52604160045260245ffd5b610d1b82610b7b565b810181811067ffffffffffffffff82111715610d3a57610d39610ce5565b5b80604052505050565b5f610d4c610a11565b9050610d588282610d12565b919050565b5f67ffffffffffffffff821115610d7757610d76610ce5565b5b610d8082610b7b565b9050602081019050919050565b828183375f83830152505050565b5f610dad610da884610d5d565b610d43565b905082815260208101848484011115610dc957610dc8610ce1565b5b610dd4848285610d8d565b509392505050565b5f82601f830112610df057610def610cdd565b5b8135610e00848260208601610d9b565b91505092915050565b5f8060408385031215610e1f57610e1e610a1a565b5b5f610e2c85828601610a41565b925050602083013567ffffffffffffffff811115610e4d57610e4c610a1e565b5b610e5985828601610ddc565b9150509250929050565b610e6c81610a22565b82525050565b5f602082019050610e855f830184610e63565b92915050565b5f8060408385031215610ea157610ea0610a1a565b5b5f610eae85828601610a41565b9250506020610ebf85828601610a41565b9150509250929050565b610ed281610be2565b82525050565b5f602082019050610eeb5f830184610ec9565b92915050565b5f805f805f60a08688031215610f0a57610f09610a1a565b5b5f610f1788828901610a76565b9550506020610f2888828901610a41565b945050604086013567ffffffffffffffff811115610f4957610f48610a1e565b5b610f5588828901610ddc565b935050606086013567ffffffffffffffff811115610f7657610f75610a1e565b5b610f8288828901610ddc565b925050608086013567ffffffffffffffff811115610fa357610fa2610a1e565b5b610faf88828901610ddc565b9150509295509295909350565b5f82825260208201905092915050565b5f610fd682610b39565b610fe08185610fbc565b9350610ff0818560208601610b53565b610ff981610b7b565b840191505092915050565b5f610100820190506110185f83018b610e63565b611025602083018a610ac8565b6110326040830189610ac8565b61103f6060830188610e63565b81810360808301526110518187610fcc565b905081810360a08301526110658186610fcc565b905081810360c08301526110798185610fcc565b905061108860e0830184610ec9565b9998505050505050505050565b7f4e487b71000000000000000000000000000000000000000000000000000000005f52602260045260245ffd5b5f60028204905060018216806110d957607f821691505b6020821081036110ec576110eb611095565b5b50919050565b5f819050815f5260205f209050919050565b5f6020601f8301049050919050565b5f82821b905092915050565b5f6008830261114e7fffffffffffffffffffffffffffffffffffffffffffffffffffffffffffffffff82611113565b6111588683611113565b95508019841693508086168417925050509392505050565b5f819050919050565b5f61119361118e61118984610a22565b611170565b610a22565b9050919050565b5f819050919050565b6111ac83611179565b6111c06111b88261119a565b84845461111f565b825550505050565b5f90565b6111d46111c8565b6111df8184846111a3565b505050565b5b81811015611202576111f75f826111cc565b6001810190506111e5565b5050565b601f82111561124757611218816110f2565b61122184611104565b81016020851015611230578190505b61124461123c85611104565b8301826111e4565b50505b505050565b5f82821c905092915050565b5f6112675f198460080261124c565b1980831691505092915050565b5f61127f8383611258565b9150826002028217905092915050565b61129882610b39565b67ffffffffffffffff8111156112b1576112b0610ce5565b5b6112bb82546110c2565b6112c6828285611206565b5f60209050601f8311600181146112f7575f84156112e5578287015190505b6112ef8582611274565b865550611356565b601f198416611305866110f2565b5f5b8281101561132c57848901518255600182019150602085019450602081019050611307565b868310156113495784890151611345601f891682611258565b8355505b6001600288020188555050505b505050505050565b7f4e487b71000000000000000000000000000000000000000000000000000000005f52601160045260245ffd5b5f61139582610a22565b91507fffffffffffffffffffffffffffffffffffffffffffffffffffffffffffffffff82036113c7576113c661135e565b5b600182019050919050565b5f60e0820190506113e55f83018a610e63565b6113f26020830189610ac8565b6113ff6040830188610e63565b81810360608301526114118187610fcc565b905081810360808301526114258186610fcc565b905081810360a08301526114398185610fcc565b905061144860c0830184610ec9565b9897505050505050505056fea2646970667358221220eaa2a7ee13611c0fd90296982088f481bef203439da9c0e1101c484dc685458f64736f6c63430008160033",
					"opcodes": "PUSH1 0x80 PUSH1 0x40 MSTORE CALLVALUE DUP1 ISZERO PUSH2 0xF JUMPI PUSH0 DUP1 REVERT JUMPDEST POP PUSH2 0x148A DUP1 PUSH2 0x1D PUSH0 CODECOPY PUSH0 RETURN INVALID PUSH1 0x80 PUSH1 0x40 MSTORE CALLVALUE DUP1 ISZERO PUSH2 0xF JUMPI PUSH0 DUP1 REVERT JUMPDEST POP PUSH1 0x4 CALLDATASIZE LT PUSH2 0x91 JUMPI PUSH0 CALLDATALOAD PUSH1 0xE0 SHR DUP1 PUSH4 0xD0921936 GT PUSH2 0x64 JUMPI DUP1 PUSH4 0xD0921936 EQ PUSH2 0x143 JUMPI DUP1 PUSH4 0xDBDA146D EQ PUSH2 0x173 JUMPI DUP1 PUSH4 0xE34FC531 EQ PUSH2 0x1A3 JUMPI DUP1 PUSH4 0xE61439D8 EQ PUSH2 0x1D3 JUMPI DUP1 PUSH4 0xF7B10808 EQ PUSH2 0x203 JUMPI PUSH2 0x91 JUMP JUMPDEST DUP1 PUSH4 0x2864E4A9 EQ PUSH2 0x95 JUMPI DUP1 PUSH4 0x32665FFB EQ PUSH2 0xC5 JUMPI DUP1 PUSH4 0x89F40D93 EQ PUSH2 0xF5 JUMPI DUP1 PUSH4 0xC361A335 EQ PUSH2 0x125 JUMPI JUMPDEST PUSH0 DUP1 REVERT JUMPDEST PUSH2 0xAF PUSH1 0x4 DUP1 CALLDATASIZE SUB DUP2 ADD SWAP1 PUSH2 0xAA SWAP2 SWAP1 PUSH2 0xA8A JUMP JUMPDEST PUSH2 0x23A JUMP JUMPDEST PUSH1 0x40 MLOAD PUSH2 0xBC SWAP2 SWAP1 PUSH2 0xAD7 JUMP JUMPDEST PUSH1 0x40 MLOAD DUP1 SWAP2 SUB SWAP1 RETURN JUMPDEST PUSH2 0xDF PUSH1 0x4 DUP1 CALLDATASIZE SUB DUP2 ADD SWAP1 PUSH2 0xDA SWAP2 SWAP1 PUSH2 0xAF0 JUMP JUMPDEST PUSH2 0x271 JUMP JUMPDEST PUSH1 0x40 MLOAD PUSH2 0xEC SWAP2 SWAP1 PUSH2 0xCBD JUMP JUMPDEST PUSH1 0x40 MLOAD DUP1 SWAP2 SUB SWAP1 RETURN JUMPDEST PUSH2 0x10F PUSH1 0x4 DUP1 CALLDATASIZE SUB DUP2 ADD SWAP1 PUSH2 0x10A SWAP2 SWAP1 PUSH2 0xE09 JUMP JUMPDEST PUSH2 0x4E9 JUMP JUMPDEST PUSH1 0x40 MLOAD PUSH2 0x11C SWAP2 SWAP1 PUSH2 0xAD7 JUMP JUMPDEST PUSH1 0x40 MLOAD DUP1 SWAP2 SUB SWAP1 RETURN JUMPDEST PUSH2 0x12D PUSH2 0x517 JUMP JUMPDEST PUSH1 0x40 MLOAD PUSH2 0x13A SWAP2 SWAP1 PUSH2 0xE72 JUMP JUMPDEST PUSH1 0x40 MLOAD DUP1 SWAP2 SUB SWAP1 RETURN JUMPDEST PUSH2 0x15D PUSH1 0x4 DUP1 CALLDATASIZE SUB DUP2 ADD SWAP1 PUSH2 0x158 SWAP2 SWAP1 PUSH2 0xE8B JUMP JUMPDEST PUSH2 0x51D JUMP JUMPDEST PUSH1 0x40 MLOAD PUSH2 0x16A SWAP2 SWAP1 PUSH2 0xAD7 JUMP JUMPDEST PUSH1 0x40 MLOAD DUP1 SWAP2 SUB SWAP1 RETURN JUMPDEST PUSH2 0x18D PUSH1 0x4 DUP1 CALLDATASIZE SUB DUP2 ADD SWAP1 PUSH2 0x188 SWAP2 SWAP1 PUSH2 0xA8A JUMP JUMPDEST PUSH2 0x55D JUMP JUMPDEST PUSH1 0x40 MLOAD PUSH2 0x19A SWAP2 SWAP1 PUSH2 0xAD7 JUMP JUMPDEST PUSH1 0x40 MLOAD DUP1 SWAP2 SUB SWAP1 RETURN JUMPDEST PUSH2 0x1BD PUSH1 0x4 DUP1 CALLDATASIZE SUB DUP2 ADD SWAP1 PUSH2 0x1B8 SWAP2 SWAP1 PUSH2 0xAF0 JUMP JUMPDEST PUSH2 0x5C1 JUMP JUMPDEST PUSH1 0x40 MLOAD PUSH2 0x1CA SWAP2 SWAP1 PUSH2 0xED8 JUMP JUMPDEST PUSH1 0x40 MLOAD DUP1 SWAP2 SUB SWAP1 RETURN JUMPDEST PUSH2 0x1ED PUSH1 0x4 DUP1 CALLDATASIZE SUB DUP2 ADD SWAP1 PUSH2 0x1E8 SWAP2 SWAP1 PUSH2 0xEF1 JUMP JUMPDEST PUSH2 0x5FC JUMP JUMPDEST PUSH1 0x40 MLOAD PUSH2 0x1FA SWAP2 SWAP1 PUSH2 0xAD7 JUMP JUMPDEST PUSH1 0x40 MLOAD DUP1 SWAP2 SUB SWAP1 RETURN JUMPDEST PUSH2 0x21D PUSH1 0x4 DUP1 CALLDATASIZE SUB DUP2 ADD SWAP1 PUSH2 0x218 SWAP2 SWAP1 PUSH2 0xAF0 JUMP JUMPDEST PUSH2 0x7AA JUMP JUMPDEST PUSH1 0x40 MLOAD PUSH2 0x231 SWAP9 SWAP8 SWAP7 SWAP6 SWAP5 SWAP4 SWAP3 SWAP2 SWAP1 PUSH2 0x1004 JUMP JUMPDEST PUSH1 0x40 MLOAD DUP1 SWAP2 SUB SWAP1 RETURN JUMPDEST PUSH0 DUP3 DUP3 PUSH0 DUP1 DUP7 DUP2 MSTORE PUSH1 0x20 ADD SWAP1 DUP2 MSTORE PUSH1 0x20 ADD PUSH0 KECCAK256 PUSH1 0x1 ADD PUSH0 PUSH2 0x100 EXP DUP2 SLOAD DUP2 PUSH1 0xFF MUL NOT AND SWAP1 DUP4 ISZERO ISZERO MUL OR SWAP1 SSTORE POP PUSH1 0x1 SWAP2 POP POP SWAP3 SWAP2 POP POP JUMP JUMPDEST PUSH2 0x279 PUSH2 0x9B7 JUMP JUMPDEST PUSH0 DUP1 DUP4 DUP2 MSTORE PUSH1 0x20 ADD SWAP1 DUP2 MSTORE PUSH1 0x20 ADD PUSH0 KECCAK256 PUSH1 0x40 MLOAD DUP1 PUSH2 0x100 ADD PUSH1 0x40 MSTORE SWAP1 DUP2 PUSH0 DUP3 ADD SLOAD DUP2 MSTORE PUSH1 0x20 ADD PUSH1 0x1 DUP3 ADD PUSH0 SWAP1 SLOAD SWAP1 PUSH2 0x100 EXP SWAP1 DIV PUSH1 0xFF AND ISZERO ISZERO ISZERO ISZERO DUP2 MSTORE PUSH1 0x20 ADD PUSH1 0x1 DUP3 ADD PUSH1 0x1 SWAP1 SLOAD SWAP1 PUSH2 0x100 EXP SWAP1 DIV PUSH1 0xFF AND ISZERO ISZERO ISZERO ISZERO DUP2 MSTORE PUSH1 0x20 ADD PUSH1 0x2 DUP3 ADD SLOAD DUP2 MSTORE PUSH1 0x20 ADD PUSH1 0x3 DUP3 ADD DUP1 SLOAD PUSH2 0x2ED SWAP1 PUSH2 0x10C2 JUMP JUMPDEST DUP1 PUSH1 0x1F ADD PUSH1 0x20 DUP1 SWAP2 DIV MUL PUSH1 0x20 ADD PUSH1 0x40 MLOAD SWAP1 DUP2 ADD PUSH1 0x40 MSTORE DUP1 SWAP3 SWAP2 SWAP1 DUP2 DUP2 MSTORE PUSH1 0x20 ADD DUP3 DUP1 SLOAD PUSH2 0x319 SWAP1 PUSH2 0x10C2 JUMP JUMPDEST DUP1 ISZERO PUSH2 0x364 JUMPI DUP1 PUSH1 0x1F LT PUSH2 0x33B JUMPI PUSH2 0x100 DUP1 DUP4 SLOAD DIV MUL DUP4 MSTORE SWAP2 PUSH1 0x20 ADD SWAP2 PUSH2 0x364 JUMP JUMPDEST DUP3 ADD SWAP2 SWAP1 PUSH0 MSTORE PUSH1 0x20 PUSH0 KECCAK256 SWAP1 JUMPDEST DUP2 SLOAD DUP2 MSTORE SWAP1 PUSH1 0x1 ADD SWAP1 PUSH1 0x20 ADD DUP1 DUP4 GT PUSH2 0x347 JUMPI DUP3 SWAP1 SUB PUSH1 0x1F AND DUP3 ADD SWAP2 JUMPDEST POP POP POP POP POP DUP2 MSTORE PUSH1 0x20 ADD PUSH1 0x4 DUP3 ADD DUP1 SLOAD PUSH2 0x37D SWAP1 PUSH2 0x10C2 JUMP JUMPDEST DUP1 PUSH1 0x1F ADD PUSH1 0x20 DUP1 SWAP2 DIV MUL PUSH1 0x20 ADD PUSH1 0x40 MLOAD SWAP1 DUP2 ADD PUSH1 0x40 MSTORE DUP1 SWAP3 SWAP2 SWAP1 DUP2 DUP2 MSTORE PUSH1 0x20 ADD DUP3 DUP1 SLOAD PUSH2 0x3A9 SWAP1 PUSH2 0x10C2 JUMP JUMPDEST DUP1 ISZERO PUSH2 0x3F4 JUMPI DUP1 PUSH1 0x1F LT PUSH2 0x3CB JUMPI PUSH2 0x100 DUP1 DUP4 SLOAD DIV MUL DUP4 MSTORE SWAP2 PUSH1 0x20 ADD SWAP2 PUSH2 0x3F4 JUMP JUMPDEST DUP3 ADD SWAP2 SWAP1 PUSH0 MSTORE PUSH1 0x20 PUSH0 KECCAK256 SWAP1 JUMPDEST DUP2 SLOAD DUP2 MSTORE SWAP1 PUSH1 0x1 ADD SWAP1 PUSH1 0x20 ADD DUP1 DUP4 GT PUSH2 0x3D7 JUMPI DUP3 SWAP1 SUB PUSH1 0x1F AND DUP3 ADD SWAP2 JUMPDEST POP POP POP POP POP DUP2 MSTORE PUSH1 0x20 ADD PUSH1 0x5 DUP3 ADD DUP1 SLOAD PUSH2 0x40D SWAP1 PUSH2 0x10C2 JUMP JUMPDEST DUP1 PUSH1 0x1F ADD PUSH1 0x20 DUP1 SWAP2 DIV MUL PUSH1 0x20 ADD PUSH1 0x40 MLOAD SWAP1 DUP2 ADD PUSH1 0x40 MSTORE DUP1 SWAP3 SWAP2 SWAP1 DUP2 DUP2 MSTORE PUSH1 0x20 ADD DUP3 DUP1 SLOAD PUSH2 0x439 SWAP1 PUSH2 0x10C2 JUMP JUMPDEST DUP1 ISZERO PUSH2 0x484 JUMPI DUP1 PUSH1 0x1F LT PUSH2 0x45B JUMPI PUSH2 0x100 DUP1 DUP4 SLOAD DIV MUL DUP4 MSTORE SWAP2 PUSH1 0x20 ADD SWAP2 PUSH2 0x484 JUMP JUMPDEST DUP3 ADD SWAP2 SWAP1 PUSH0 MSTORE PUSH1 0x20 PUSH0 KECCAK256 SWAP1 JUMPDEST DUP2 SLOAD DUP2 MSTORE SWAP1 PUSH1 0x1 ADD SWAP1 PUSH1 0x20 ADD DUP1 DUP4 GT PUSH2 0x467 JUMPI DUP3 SWAP1 SUB PUSH1 0x1F AND DUP3 ADD SWAP2 JUMPDEST POP POP POP POP POP DUP2 MSTORE PUSH1 0x20 ADD PUSH1 0x6 DUP3 ADD PUSH0 SWAP1 SLOAD SWAP1 PUSH2 0x100 EXP SWAP1 DIV PUSH20 0xFFFFFFFFFFFFFFFFFFFFFFFFFFFFFFFFFFFFFFFF AND PUSH20 0xFFFFFFFFFFFFFFFFFFFFFFFFFFFFFFFFFFFFFFFF AND PUSH20 0xFFFFFFFFFFFFFFFFFFFFFFFFFFFFFFFFFFFFFFFF AND DUP2 MSTORE POP POP SWAP1 POP SWAP2 SWAP1 POP JUMP JUMPDEST PUSH0 DUP3 DUP3 PUSH0 DUP1 DUP7 DUP2 MSTORE PUSH1 0x20 ADD SWAP1 DUP2 MSTORE PUSH1 0x20 ADD PUSH0 KECCAK256 PUSH1 0x4 ADD SWAP1 DUP2 PUSH2 0x50B SWAP2 SWAP1 PUSH2 0x128F JUMP JUMPDEST POP PUSH1 0x1 SWAP2 POP POP SWAP3 SWAP2 POP POP JUMP JUMPDEST PUSH1 0x1 SLOAD DUP2 JUMP JUMPDEST PUSH0 DUP3 DUP3 PUSH0 DUP1 DUP7 DUP2 MSTORE PUSH1 0x20 ADD SWAP1 DUP2 MSTORE PUSH1 0x20 ADD PUSH0 KECCAK256 PUSH1 0x2 ADD SLOAD EQ PUSH2 0x552 JUMPI DUP3 PUSH0 DUP1 DUP7 DUP2 MSTORE PUSH1 0x20 ADD SWAP1 DUP2 MSTORE PUSH1 0x20 ADD PUSH0 KECCAK256 PUSH1 0x2 ADD DUP2 SWAP1 SSTORE POP JUMPDEST PUSH1 0x1 SWAP2 POP POP SWAP3 SWAP2 POP POP JUMP JUMPDEST PUSH0 DUP3 DUP3 ISZERO ISZERO PUSH0 DUP1 DUP7 DUP2 MSTORE PUSH1 0x20 ADD SWAP1 DUP2 MSTORE PUSH1 0x20 ADD PUSH0 KECCAK256 PUSH1 0x1 ADD PUSH1 0x1 SWAP1 SLOAD SWAP1 PUSH2 0x100 EXP SWAP1 DIV PUSH1 0xFF AND ISZERO ISZERO EQ PUSH2 0x5B6 JUMPI DUP3 PUSH0 DUP1 DUP7 DUP2 MSTORE PUSH1 0x20 ADD SWAP1 DUP2 MSTORE PUSH1 0x20 ADD PUSH0 KECCAK256 PUSH1 0x1 ADD PUSH1 0x1 PUSH2 0x100 EXP DUP2 SLOAD DUP2 PUSH1 0xFF MUL NOT AND SWAP1 DUP4 ISZERO ISZERO MUL OR SWAP1 SSTORE POP JUMPDEST PUSH1 0x1 SWAP2 POP POP SWAP3 SWAP2 POP POP JUMP JUMPDEST PUSH0 DUP1 PUSH0 DUP4 DUP2 MSTORE PUSH1 0x20 ADD SWAP1 DUP2 MSTORE PUSH1 0x20 ADD PUSH0 KECCAK256 PUSH1 0x6 ADD PUSH0 SWAP1 SLOAD SWAP1 PUSH2 0x100 EXP SWAP1 DIV PUSH20 0xFFFFFFFFFFFFFFFFFFFFFFFFFFFFFFFFFFFFFFFF AND SWAP1 POP SWAP2 SWAP1 POP JUMP JUMPDEST PUSH0 PUSH1 0x1 PUSH0 DUP2 SLOAD DUP1 SWAP3 SWAP2 SWAP1 PUSH2 0x60F SWAP1 PUSH2 0x138B JUMP JUMPDEST SWAP2 SWAP1 POP SSTORE POP PUSH1 0x40 MLOAD DUP1 PUSH2 0x100 ADD PUSH1 0x40 MSTORE DUP1 PUSH1 0x1 SLOAD DUP2 MSTORE PUSH1 0x20 ADD DUP8 ISZERO ISZERO DUP2 MSTORE PUSH1 0x20 ADD PUSH0 ISZERO ISZERO DUP2 MSTORE PUSH1 0x20 ADD DUP7 DUP2 MSTORE PUSH1 0x20 ADD DUP6 DUP2 MSTORE PUSH1 0x20 ADD DUP5 DUP2 MSTORE PUSH1 0x20 ADD DUP4 DUP2 MSTORE PUSH1 0x20 ADD ORIGIN PUSH20 0xFFFFFFFFFFFFFFFFFFFFFFFFFFFFFFFFFFFFFFFF AND DUP2 MSTORE POP PUSH0 DUP1 PUSH1 0x1 SLOAD DUP2 MSTORE PUSH1 0x20 ADD SWAP1 DUP2 MSTORE PUSH1 0x20 ADD PUSH0 KECCAK256 PUSH0 DUP3 ADD MLOAD DUP2 PUSH0 ADD SSTORE PUSH1 0x20 DUP3 ADD MLOAD DUP2 PUSH1 0x1 ADD PUSH0 PUSH2 0x100 EXP DUP2 SLOAD DUP2 PUSH1 0xFF MUL NOT AND SWAP1 DUP4 ISZERO ISZERO MUL OR SWAP1 SSTORE POP PUSH1 0x40 DUP3 ADD MLOAD DUP2 PUSH1 0x1 ADD PUSH1 0x1 PUSH2 0x100 EXP DUP2 SLOAD DUP2 PUSH1 0xFF MUL NOT AND SWAP1 DUP4 ISZERO ISZERO MUL OR SWAP1 SSTORE POP PUSH1 0x60 DUP3 ADD MLOAD DUP2 PUSH1 0x2 ADD SSTORE PUSH1 0x80 DUP3 ADD MLOAD DUP2 PUSH1 0x3 ADD SWAP1 DUP2 PUSH2 0x6E2 SWAP2 SWAP1 PUSH2 0x128F JUMP JUMPDEST POP PUSH1 0xA0 DUP3 ADD MLOAD DUP2 PUSH1 0x4 ADD SWAP1 DUP2 PUSH2 0x6F8 SWAP2 SWAP1 PUSH2 0x128F JUMP JUMPDEST POP PUSH1 0xC0 DUP3 ADD MLOAD DUP2 PUSH1 0x5 ADD SWAP1 DUP2 PUSH2 0x70E SWAP2 SWAP1 PUSH2 0x128F JUMP JUMPDEST POP PUSH1 0xE0 DUP3 ADD MLOAD DUP2 PUSH1 0x6 ADD PUSH0 PUSH2 0x100 EXP DUP2 SLOAD DUP2 PUSH20 0xFFFFFFFFFFFFFFFFFFFFFFFFFFFFFFFFFFFFFFFF MUL NOT AND SWAP1 DUP4 PUSH20 0xFFFFFFFFFFFFFFFFFFFFFFFFFFFFFFFFFFFFFFFF AND MUL OR SWAP1 SSTORE POP SWAP1 POP POP PUSH32 0x55D4C37F0BE82A4C779966B6F194911D8D57F787390B393EB7166C6D9A0BDC55 PUSH1 0x1 SLOAD DUP8 DUP8 DUP8 DUP8 DUP8 ORIGIN PUSH1 0x40 MLOAD PUSH2 0x795 SWAP8 SWAP7 SWAP6 SWAP5 SWAP4 SWAP3 SWAP2 SWAP1 PUSH2 0x13D2 JUMP JUMPDEST PUSH1 0x40 MLOAD DUP1 SWAP2 SUB SWAP1 LOG1 PUSH1 0x1 SWAP1 POP SWAP6 SWAP5 POP POP POP POP POP JUMP JUMPDEST PUSH0 PUSH1 0x20 MSTORE DUP1 PUSH0 MSTORE PUSH1 0x40 PUSH0 KECCAK256 PUSH0 SWAP2 POP SWAP1 POP DUP1 PUSH0 ADD SLOAD SWAP1 DUP1 PUSH1 0x1 ADD PUSH0 SWAP1 SLOAD SWAP1 PUSH2 0x100 EXP SWAP1 DIV PUSH1 0xFF AND SWAP1 DUP1 PUSH1 0x1 ADD PUSH1 0x1 SWAP1 SLOAD SWAP1 PUSH2 0x100 EXP SWAP1 DIV PUSH1 0xFF AND SWAP1 DUP1 PUSH1 0x2 ADD SLOAD SWAP1 DUP1 PUSH1 0x3 ADD DUP1 SLOAD PUSH2 0x7F9 SWAP1 PUSH2 0x10C2 JUMP JUMPDEST DUP1 PUSH1 0x1F ADD PUSH1 0x20 DUP1 SWAP2 DIV MUL PUSH1 0x20 ADD PUSH1 0x40 MLOAD SWAP1 DUP2 ADD PUSH1 0x40 MSTORE DUP1 SWAP3 SWAP2 SWAP1 DUP2 DUP2 MSTORE PUSH1 0x20 ADD DUP3 DUP1 SLOAD PUSH2 0x825 SWAP1 PUSH2 0x10C2 JUMP JUMPDEST DUP1 ISZERO PUSH2 0x870 JUMPI DUP1 PUSH1 0x1F LT PUSH2 0x847 JUMPI PUSH2 0x100 DUP1 DUP4 SLOAD DIV MUL DUP4 MSTORE SWAP2 PUSH1 0x20 ADD SWAP2 PUSH2 0x870 JUMP JUMPDEST DUP3 ADD SWAP2 SWAP1 PUSH0 MSTORE PUSH1 0x20 PUSH0 KECCAK256 SWAP1 JUMPDEST DUP2 SLOAD DUP2 MSTORE SWAP1 PUSH1 0x1 ADD SWAP1 PUSH1 0x20 ADD DUP1 DUP4 GT PUSH2 0x853 JUMPI DUP3 SWAP1 SUB PUSH1 0x1F AND DUP3 ADD SWAP2 JUMPDEST POP POP POP POP POP SWAP1 DUP1 PUSH1 0x4 ADD DUP1 SLOAD PUSH2 0x885 SWAP1 PUSH2 0x10C2 JUMP JUMPDEST DUP1 PUSH1 0x1F ADD PUSH1 0x20 DUP1 SWAP2 DIV MUL PUSH1 0x20 ADD PUSH1 0x40 MLOAD SWAP1 DUP2 ADD PUSH1 0x40 MSTORE DUP1 SWAP3 SWAP2 SWAP1 DUP2 DUP2 MSTORE PUSH1 0x20 ADD DUP3 DUP1 SLOAD PUSH2 0x8B1 SWAP1 PUSH2 0x10C2 JUMP JUMPDEST DUP1 ISZERO PUSH2 0x8FC JUMPI DUP1 PUSH1 0x1F LT PUSH2 0x8D3 JUMPI PUSH2 0x100 DUP1 DUP4 SLOAD DIV MUL DUP4 MSTORE SWAP2 PUSH1 0x20 ADD SWAP2 PUSH2 0x8FC JUMP JUMPDEST DUP3 ADD SWAP2 SWAP1 PUSH0 MSTORE PUSH1 0x20 PUSH0 KECCAK256 SWAP1 JUMPDEST DUP2 SLOAD DUP2 MSTORE SWAP1 PUSH1 0x1 ADD SWAP1 PUSH1 0x20 ADD DUP1 DUP4 GT PUSH2 0x8DF JUMPI DUP3 SWAP1 SUB PUSH1 0x1F AND DUP3 ADD SWAP2 JUMPDEST POP POP POP POP POP SWAP1 DUP1 PUSH1 0x5 ADD DUP1 SLOAD PUSH2 0x911 SWAP1 PUSH2 0x10C2 JUMP JUMPDEST DUP1 PUSH1 0x1F ADD PUSH1 0x20 DUP1 SWAP2 DIV MUL PUSH1 0x20 ADD PUSH1 0x40 MLOAD SWAP1 DUP2 ADD PUSH1 0x40 MSTORE DUP1 SWAP3 SWAP2 SWAP1 DUP2 DUP2 MSTORE PUSH1 0x20 ADD DUP3 DUP1 SLOAD PUSH2 0x93D SWAP1 PUSH2 0x10C2 JUMP JUMPDEST DUP1 ISZERO PUSH2 0x988 JUMPI DUP1 PUSH1 0x1F LT PUSH2 0x95F JUMPI PUSH2 0x100 DUP1 DUP4 SLOAD DIV MUL DUP4 MSTORE SWAP2 PUSH1 0x20 ADD SWAP2 PUSH2 0x988 JUMP JUMPDEST DUP3 ADD SWAP2 SWAP1 PUSH0 MSTORE PUSH1 0x20 PUSH0 KECCAK256 SWAP1 JUMPDEST DUP2 SLOAD DUP2 MSTORE SWAP1 PUSH1 0x1 ADD SWAP1 PUSH1 0x20 ADD DUP1 DUP4 GT PUSH2 0x96B JUMPI DUP3 SWAP1 SUB PUSH1 0x1F AND DUP3 ADD SWAP2 JUMPDEST POP POP POP POP POP SWAP1 DUP1 PUSH1 0x6 ADD PUSH0 SWAP1 SLOAD SWAP1 PUSH2 0x100 EXP SWAP1 DIV PUSH20 0xFFFFFFFFFFFFFFFFFFFFFFFFFFFFFFFFFFFFFFFF AND SWAP1 POP DUP9 JUMP JUMPDEST PUSH1 0x40 MLOAD DUP1 PUSH2 0x100 ADD PUSH1 0x40 MSTORE DUP1 PUSH0 DUP2 MSTORE PUSH1 0x20 ADD PUSH0 ISZERO ISZERO DUP2 MSTORE PUSH1 0x20 ADD PUSH0 ISZERO ISZERO DUP2 MSTORE PUSH1 0x20 ADD PUSH0 DUP2 MSTORE PUSH1 0x20 ADD PUSH1 0x60 DUP2 MSTORE PUSH1 0x20 ADD PUSH1 0x60 DUP2 MSTORE PUSH1 0x20 ADD PUSH1 0x60 DUP2 MSTORE PUSH1 0x20 ADD PUSH0 PUSH20 0xFFFFFFFFFFFFFFFFFFFFFFFFFFFFFFFFFFFFFFFF AND DUP2 MSTORE POP SWAP1 JUMP JUMPDEST PUSH0 PUSH1 0x40 MLOAD SWAP1 POP SWAP1 JUMP JUMPDEST PUSH0 DUP1 REVERT JUMPDEST PUSH0 DUP1 REVERT JUMPDEST PUSH0 DUP2 SWAP1 POP SWAP2 SWAP1 POP JUMP JUMPDEST PUSH2 0xA34 DUP2 PUSH2 0xA22 JUMP JUMPDEST DUP2 EQ PUSH2 0xA3E JUMPI PUSH0 DUP1 REVERT JUMPDEST POP JUMP JUMPDEST PUSH0 DUP2 CALLDATALOAD SWAP1 POP PUSH2 0xA4F DUP2 PUSH2 0xA2B JUMP JUMPDEST SWAP3 SWAP2 POP POP JUMP JUMPDEST PUSH0 DUP2 ISZERO ISZERO SWAP1 POP SWAP2 SWAP1 POP JUMP JUMPDEST PUSH2 0xA69 DUP2 PUSH2 0xA55 JUMP JUMPDEST DUP2 EQ PUSH2 0xA73 JUMPI PUSH0 DUP1 REVERT JUMPDEST POP JUMP JUMPDEST PUSH0 DUP2 CALLDATALOAD SWAP1 POP PUSH2 0xA84 DUP2 PUSH2 0xA60 JUMP JUMPDEST SWAP3 SWAP2 POP POP JUMP JUMPDEST PUSH0 DUP1 PUSH1 0x40 DUP4 DUP6 SUB SLT ISZERO PUSH2 0xAA0 JUMPI PUSH2 0xA9F PUSH2 0xA1A JUMP JUMPDEST JUMPDEST PUSH0 PUSH2 0xAAD DUP6 DUP3 DUP7 ADD PUSH2 0xA41 JUMP JUMPDEST SWAP3 POP POP PUSH1 0x20 PUSH2 0xABE DUP6 DUP3 DUP7 ADD PUSH2 0xA76 JUMP JUMPDEST SWAP2 POP POP SWAP3 POP SWAP3 SWAP1 POP JUMP JUMPDEST PUSH2 0xAD1 DUP2 PUSH2 0xA55 JUMP JUMPDEST DUP3 MSTORE POP POP JUMP JUMPDEST PUSH0 PUSH1 0x20 DUP3 ADD SWAP1 POP PUSH2 0xAEA PUSH0 DUP4 ADD DUP5 PUSH2 0xAC8 JUMP JUMPDEST SWAP3 SWAP2 POP POP JUMP JUMPDEST PUSH0 PUSH1 0x20 DUP3 DUP5 SUB SLT ISZERO PUSH2 0xB05 JUMPI PUSH2 0xB04 PUSH2 0xA1A JUMP JUMPDEST JUMPDEST PUSH0 PUSH2 0xB12 DUP5 DUP3 DUP6 ADD PUSH2 0xA41 JUMP JUMPDEST SWAP2 POP POP SWAP3 SWAP2 POP POP JUMP JUMPDEST PUSH2 0xB24 DUP2 PUSH2 0xA22 JUMP JUMPDEST DUP3 MSTORE POP POP JUMP JUMPDEST PUSH2 0xB33 DUP2 PUSH2 0xA55 JUMP JUMPDEST DUP3 MSTORE POP POP JUMP JUMPDEST PUSH0 DUP2 MLOAD SWAP1 POP SWAP2 SWAP1 POP JUMP JUMPDEST PUSH0 DUP3 DUP3 MSTORE PUSH1 0x20 DUP3 ADD SWAP1 POP SWAP3 SWAP2 POP POP JUMP JUMPDEST PUSH0 JUMPDEST DUP4 DUP2 LT ISZERO PUSH2 0xB70 JUMPI DUP1 DUP3 ADD MLOAD DUP2 DUP5 ADD MSTORE PUSH1 0x20 DUP2 ADD SWAP1 POP PUSH2 0xB55 JUMP JUMPDEST PUSH0 DUP5 DUP5 ADD MSTORE POP POP POP POP JUMP JUMPDEST PUSH0 PUSH1 0x1F NOT PUSH1 0x1F DUP4 ADD AND SWAP1 POP SWAP2 SWAP1 POP JUMP JUMPDEST PUSH0 PUSH2 0xB95 DUP3 PUSH2 0xB39 JUMP JUMPDEST PUSH2 0xB9F DUP2 DUP6 PUSH2 0xB43 JUMP JUMPDEST SWAP4 POP PUSH2 0xBAF DUP2 DUP6 PUSH1 0x20 DUP7 ADD PUSH2 0xB53 JUMP JUMPDEST PUSH2 0xBB8 DUP2 PUSH2 0xB7B JUMP JUMPDEST DUP5 ADD SWAP2 POP POP SWAP3 SWAP2 POP POP JUMP JUMPDEST PUSH0 PUSH20 0xFFFFFFFFFFFFFFFFFFFFFFFFFFFFFFFFFFFFFFFF DUP3 AND SWAP1 POP SWAP2 SWAP1 POP JUMP JUMPDEST PUSH0 PUSH2 0xBEC DUP3 PUSH2 0xBC3 JUMP JUMPDEST SWAP1 POP SWAP2 SWAP1 POP JUMP JUMPDEST PUSH2 0xBFC DUP2 PUSH2 0xBE2 JUMP JUMPDEST DUP3 MSTORE POP POP JUMP JUMPDEST PUSH0 PUSH2 0x100 DUP4 ADD PUSH0 DUP4 ADD MLOAD PUSH2 0xC18 PUSH0 DUP7 ADD DUP3 PUSH2 0xB1B JUMP JUMPDEST POP PUSH1 0x20 DUP4 ADD MLOAD PUSH2 0xC2B PUSH1 0x20 DUP7 ADD DUP3 PUSH2 0xB2A JUMP JUMPDEST POP PUSH1 0x40 DUP4 ADD MLOAD PUSH2 0xC3E PUSH1 0x40 DUP7 ADD DUP3 PUSH2 0xB2A JUMP JUMPDEST POP PUSH1 0x60 DUP4 ADD MLOAD PUSH2 0xC51 PUSH1 0x60 DUP7 ADD DUP3 PUSH2 0xB1B JUMP JUMPDEST POP PUSH1 0x80 DUP4 ADD MLOAD DUP5 DUP3 SUB PUSH1 0x80 DUP7 ADD MSTORE PUSH2 0xC69 DUP3 DUP3 PUSH2 0xB8B JUMP JUMPDEST SWAP2 POP POP PUSH1 0xA0 DUP4 ADD MLOAD DUP5 DUP3 SUB PUSH1 0xA0 DUP7 ADD MSTORE PUSH2 0xC83 DUP3 DUP3 PUSH2 0xB8B JUMP JUMPDEST SWAP2 POP POP PUSH1 0xC0 DUP4 ADD MLOAD DUP5 DUP3 SUB PUSH1 0xC0 DUP7 ADD MSTORE PUSH2 0xC9D DUP3 DUP3 PUSH2 0xB8B JUMP JUMPDEST SWAP2 POP POP PUSH1 0xE0 DUP4 ADD MLOAD PUSH2 0xCB2 PUSH1 0xE0 DUP7 ADD DUP3 PUSH2 0xBF3 JUMP JUMPDEST POP DUP1 SWAP2 POP POP SWAP3 SWAP2 POP POP JUMP JUMPDEST PUSH0 PUSH1 0x20 DUP3 ADD SWAP1 POP DUP2 DUP2 SUB PUSH0 DUP4 ADD MSTORE PUSH2 0xCD5 DUP2 DUP5 PUSH2 0xC02 JUMP JUMPDEST SWAP1 POP SWAP3 SWAP2 POP POP JUMP JUMPDEST PUSH0 DUP1 REVERT JUMPDEST PUSH0 DUP1 REVERT JUMPDEST PUSH32 0x4E487B7100000000000000000000000000000000000000000000000000000000 PUSH0 MSTORE PUSH1 0x41 PUSH1 0x4 MSTORE PUSH1 0x24 PUSH0 REVERT JUMPDEST PUSH2 0xD1B DUP3 PUSH2 0xB7B JUMP JUMPDEST DUP2 ADD DUP2 DUP2 LT PUSH8 0xFFFFFFFFFFFFFFFF DUP3 GT OR ISZERO PUSH2 0xD3A JUMPI PUSH2 0xD39 PUSH2 0xCE5 JUMP JUMPDEST JUMPDEST DUP1 PUSH1 0x40 MSTORE POP POP POP JUMP JUMPDEST PUSH0 PUSH2 0xD4C PUSH2 0xA11 JUMP JUMPDEST SWAP1 POP PUSH2 0xD58 DUP3 DUP3 PUSH2 0xD12 JUMP JUMPDEST SWAP2 SWAP1 POP JUMP JUMPDEST PUSH0 PUSH8 0xFFFFFFFFFFFFFFFF DUP3 GT ISZERO PUSH2 0xD77 JUMPI PUSH2 0xD76 PUSH2 0xCE5 JUMP JUMPDEST JUMPDEST PUSH2 0xD80 DUP3 PUSH2 0xB7B JUMP JUMPDEST SWAP1 POP PUSH1 0x20 DUP2 ADD SWAP1 POP SWAP2 SWAP1 POP JUMP JUMPDEST DUP3 DUP2 DUP4 CALLDATACOPY PUSH0 DUP4 DUP4 ADD MSTORE POP POP POP JUMP JUMPDEST PUSH0 PUSH2 0xDAD PUSH2 0xDA8 DUP5 PUSH2 0xD5D JUMP JUMPDEST PUSH2 0xD43 JUMP JUMPDEST SWAP1 POP DUP3 DUP2 MSTORE PUSH1 0x20 DUP2 ADD DUP5 DUP5 DUP5 ADD GT ISZERO PUSH2 0xDC9 JUMPI PUSH2 0xDC8 PUSH2 0xCE1 JUMP JUMPDEST JUMPDEST PUSH2 0xDD4 DUP5 DUP3 DUP6 PUSH2 0xD8D JUMP JUMPDEST POP SWAP4 SWAP3 POP POP POP JUMP JUMPDEST PUSH0 DUP3 PUSH1 0x1F DUP4 ADD SLT PUSH2 0xDF0 JUMPI PUSH2 0xDEF PUSH2 0xCDD JUMP JUMPDEST JUMPDEST DUP2 CALLDATALOAD PUSH2 0xE00 DUP5 DUP3 PUSH1 0x20 DUP7 ADD PUSH2 0xD9B JUMP JUMPDEST SWAP2 POP POP SWAP3 SWAP2 POP POP JUMP JUMPDEST PUSH0 DUP1 PUSH1 0x40 DUP4 DUP6 SUB SLT ISZERO PUSH2 0xE1F JUMPI PUSH2 0xE1E PUSH2 0xA1A JUMP JUMPDEST JUMPDEST PUSH0 PUSH2 0xE2C DUP6 DUP3 DUP7 ADD PUSH2 0xA41 JUMP JUMPDEST SWAP3 POP POP PUSH1 0x20 DUP4 ADD CALLDATALOAD PUSH8 0xFFFFFFFFFFFFFFFF DUP2 GT ISZERO PUSH2 0xE4D JUMPI PUSH2 0xE4C PUSH2 0xA1E JUMP JUMPDEST JUMPDEST PUSH2 0xE59 DUP6 DUP3 DUP7 ADD PUSH2 0xDDC JUMP JUMPDEST SWAP2 POP POP SWAP3 POP SWAP3 SWAP1 POP JUMP JUMPDEST PUSH2 0xE6C DUP2 PUSH2 0xA22 JUMP JUMPDEST DUP3 MSTORE POP POP JUMP JUMPDEST PUSH0 PUSH1 0x20 DUP3 ADD SWAP1 POP PUSH2 0xE85 PUSH0 DUP4 ADD DUP5 PUSH2 0xE63 JUMP JUMPDEST SWAP3 SWAP2 POP POP JUMP JUMPDEST PUSH0 DUP1 PUSH1 0x40 DUP4 DUP6 SUB SLT ISZERO PUSH2 0xEA1 JUMPI PUSH2 0xEA0 PUSH2 0xA1A JUMP JUMPDEST JUMPDEST PUSH0 PUSH2 0xEAE DUP6 DUP3 DUP7 ADD PUSH2 0xA41 JUMP JUMPDEST SWAP3 POP POP PUSH1 0x20 PUSH2 0xEBF DUP6 DUP3 DUP7 ADD PUSH2 0xA41 JUMP JUMPDEST SWAP2 POP POP SWAP3 POP SWAP3 SWAP1 POP JUMP JUMPDEST PUSH2 0xED2 DUP2 PUSH2 0xBE2 JUMP JUMPDEST DUP3 MSTORE POP POP JUMP JUMPDEST PUSH0 PUSH1 0x20 DUP3 ADD SWAP1 POP PUSH2 0xEEB PUSH0 DUP4 ADD DUP5 PUSH2 0xEC9 JUMP JUMPDEST SWAP3 SWAP2 POP POP JUMP JUMPDEST PUSH0 DUP1 PUSH0 DUP1 PUSH0 PUSH1 0xA0 DUP7 DUP9 SUB SLT ISZERO PUSH2 0xF0A JUMPI PUSH2 0xF09 PUSH2 0xA1A JUMP JUMPDEST JUMPDEST PUSH0 PUSH2 0xF17 DUP9 DUP3 DUP10 ADD PUSH2 0xA76 JUMP JUMPDEST SWAP6 POP POP PUSH1 0x20 PUSH2 0xF28 DUP9 DUP3 DUP10 ADD PUSH2 0xA41 JUMP JUMPDEST SWAP5 POP POP PUSH1 0x40 DUP7 ADD CALLDATALOAD PUSH8 0xFFFFFFFFFFFFFFFF DUP2 GT ISZERO PUSH2 0xF49 JUMPI PUSH2 0xF48 PUSH2 0xA1E JUMP JUMPDEST JUMPDEST PUSH2 0xF55 DUP9 DUP3 DUP10 ADD PUSH2 0xDDC JUMP JUMPDEST SWAP4 POP POP PUSH1 0x60 DUP7 ADD CALLDATALOAD PUSH8 0xFFFFFFFFFFFFFFFF DUP2 GT ISZERO PUSH2 0xF76 JUMPI PUSH2 0xF75 PUSH2 0xA1E JUMP JUMPDEST JUMPDEST PUSH2 0xF82 DUP9 DUP3 DUP10 ADD PUSH2 0xDDC JUMP JUMPDEST SWAP3 POP POP PUSH1 0x80 DUP7 ADD CALLDATALOAD PUSH8 0xFFFFFFFFFFFFFFFF DUP2 GT ISZERO PUSH2 0xFA3 JUMPI PUSH2 0xFA2 PUSH2 0xA1E JUMP JUMPDEST JUMPDEST PUSH2 0xFAF DUP9 DUP3 DUP10 ADD PUSH2 0xDDC JUMP JUMPDEST SWAP2 POP POP SWAP3 SWAP6 POP SWAP3 SWAP6 SWAP1 SWAP4 POP JUMP JUMPDEST PUSH0 DUP3 DUP3 MSTORE PUSH1 0x20 DUP3 ADD SWAP1 POP SWAP3 SWAP2 POP POP JUMP JUMPDEST PUSH0 PUSH2 0xFD6 DUP3 PUSH2 0xB39 JUMP JUMPDEST PUSH2 0xFE0 DUP2 DUP6 PUSH2 0xFBC JUMP JUMPDEST SWAP4 POP PUSH2 0xFF0 DUP2 DUP6 PUSH1 0x20 DUP7 ADD PUSH2 0xB53 JUMP JUMPDEST PUSH2 0xFF9 DUP2 PUSH2 0xB7B JUMP JUMPDEST DUP5 ADD SWAP2 POP POP SWAP3 SWAP2 POP POP JUMP JUMPDEST PUSH0 PUSH2 0x100 DUP3 ADD SWAP1 POP PUSH2 0x1018 PUSH0 DUP4 ADD DUP12 PUSH2 0xE63 JUMP JUMPDEST PUSH2 0x1025 PUSH1 0x20 DUP4 ADD DUP11 PUSH2 0xAC8 JUMP JUMPDEST PUSH2 0x1032 PUSH1 0x40 DUP4 ADD DUP10 PUSH2 0xAC8 JUMP JUMPDEST PUSH2 0x103F PUSH1 0x60 DUP4 ADD DUP9 PUSH2 0xE63 JUMP JUMPDEST DUP2 DUP2 SUB PUSH1 0x80 DUP4 ADD MSTORE PUSH2 0x1051 DUP2 DUP8 PUSH2 0xFCC JUMP JUMPDEST SWAP1 POP DUP2 DUP2 SUB PUSH1 0xA0 DUP4 ADD MSTORE PUSH2 0x1065 DUP2 DUP7 PUSH2 0xFCC JUMP JUMPDEST SWAP1 POP DUP2 DUP2 SUB PUSH1 0xC0 DUP4 ADD MSTORE PUSH2 0x1079 DUP2 DUP6 PUSH2 0xFCC JUMP JUMPDEST SWAP1 POP PUSH2 0x1088 PUSH1 0xE0 DUP4 ADD DUP5 PUSH2 0xEC9 JUMP JUMPDEST SWAP10 SWAP9 POP POP POP POP POP POP POP POP POP JUMP JUMPDEST PUSH32 0x4E487B7100000000000000000000000000000000000000000000000000000000 PUSH0 MSTORE PUSH1 0x22 PUSH1 0x4 MSTORE PUSH1 0x24 PUSH0 REVERT JUMPDEST PUSH0 PUSH1 0x2 DUP3 DIV SWAP1 POP PUSH1 0x1 DUP3 AND DUP1 PUSH2 0x10D9 JUMPI PUSH1 0x7F DUP3 AND SWAP2 POP JUMPDEST PUSH1 0x20 DUP3 LT DUP2 SUB PUSH2 0x10EC JUMPI PUSH2 0x10EB PUSH2 0x1095 JUMP JUMPDEST JUMPDEST POP SWAP2 SWAP1 POP JUMP JUMPDEST PUSH0 DUP2 SWAP1 POP DUP2 PUSH0 MSTORE PUSH1 0x20 PUSH0 KECCAK256 SWAP1 POP SWAP2 SWAP1 POP JUMP JUMPDEST PUSH0 PUSH1 0x20 PUSH1 0x1F DUP4 ADD DIV SWAP1 POP SWAP2 SWAP1 POP JUMP JUMPDEST PUSH0 DUP3 DUP3 SHL SWAP1 POP SWAP3 SWAP2 POP POP JUMP JUMPDEST PUSH0 PUSH1 0x8 DUP4 MUL PUSH2 0x114E PUSH32 0xFFFFFFFFFFFFFFFFFFFFFFFFFFFFFFFFFFFFFFFFFFFFFFFFFFFFFFFFFFFFFFFF DUP3 PUSH2 0x1113 JUMP JUMPDEST PUSH2 0x1158 DUP7 DUP4 PUSH2 0x1113 JUMP JUMPDEST SWAP6 POP DUP1 NOT DUP5 AND SWAP4 POP DUP1 DUP7 AND DUP5 OR SWAP3 POP POP POP SWAP4 SWAP3 POP POP POP JUMP JUMPDEST PUSH0 DUP2 SWAP1 POP SWAP2 SWAP1 POP JUMP JUMPDEST PUSH0 PUSH2 0x1193 PUSH2 0x118E PUSH2 0x1189 DUP5 PUSH2 0xA22 JUMP JUMPDEST PUSH2 0x1170 JUMP JUMPDEST PUSH2 0xA22 JUMP JUMPDEST SWAP1 POP SWAP2 SWAP1 POP JUMP JUMPDEST PUSH0 DUP2 SWAP1 POP SWAP2 SWAP1 POP JUMP JUMPDEST PUSH2 0x11AC DUP4 PUSH2 0x1179 JUMP JUMPDEST PUSH2 0x11C0 PUSH2 0x11B8 DUP3 PUSH2 0x119A JUMP JUMPDEST DUP5 DUP5 SLOAD PUSH2 0x111F JUMP JUMPDEST DUP3 SSTORE POP POP POP POP JUMP JUMPDEST PUSH0 SWAP1 JUMP JUMPDEST PUSH2 0x11D4 PUSH2 0x11C8 JUMP JUMPDEST PUSH2 0x11DF DUP2 DUP5 DUP5 PUSH2 0x11A3 JUMP JUMPDEST POP POP POP JUMP JUMPDEST JUMPDEST DUP2 DUP2 LT ISZERO PUSH2 0x1202 JUMPI PUSH2 0x11F7 PUSH0 DUP3 PUSH2 0x11CC JUMP JUMPDEST PUSH1 0x1 DUP2 ADD SWAP1 POP PUSH2 0x11E5 JUMP JUMPDEST POP POP JUMP JUMPDEST PUSH1 0x1F DUP3 GT ISZERO PUSH2 0x1247 JUMPI PUSH2 0x1218 DUP2 PUSH2 0x10F2 JUMP JUMPDEST PUSH2 0x1221 DUP5 PUSH2 0x1104 JUMP JUMPDEST DUP2 ADD PUSH1 0x20 DUP6 LT ISZERO PUSH2 0x1230 JUMPI DUP2 SWAP1 POP JUMPDEST PUSH2 0x1244 PUSH2 0x123C DUP6 PUSH2 0x1104 JUMP JUMPDEST DUP4 ADD DUP3 PUSH2 0x11E4 JUMP JUMPDEST POP POP JUMPDEST POP POP POP JUMP JUMPDEST PUSH0 DUP3 DUP3 SHR SWAP1 POP SWAP3 SWAP2 POP POP JUMP JUMPDEST PUSH0 PUSH2 0x1267 PUSH0 NOT DUP5 PUSH1 0x8 MUL PUSH2 0x124C JUMP JUMPDEST NOT DUP1 DUP4 AND SWAP2 POP POP SWAP3 SWAP2 POP POP JUMP JUMPDEST PUSH0 PUSH2 0x127F DUP4 DUP4 PUSH2 0x1258 JUMP JUMPDEST SWAP2 POP DUP3 PUSH1 0x2 MUL DUP3 OR SWAP1 POP SWAP3 SWAP2 POP POP JUMP JUMPDEST PUSH2 0x1298 DUP3 PUSH2 0xB39 JUMP JUMPDEST PUSH8 0xFFFFFFFFFFFFFFFF DUP2 GT ISZERO PUSH2 0x12B1 JUMPI PUSH2 0x12B0 PUSH2 0xCE5 JUMP JUMPDEST JUMPDEST PUSH2 0x12BB DUP3 SLOAD PUSH2 0x10C2 JUMP JUMPDEST PUSH2 0x12C6 DUP3 DUP3 DUP6 PUSH2 0x1206 JUMP JUMPDEST PUSH0 PUSH1 0x20 SWAP1 POP PUSH1 0x1F DUP4 GT PUSH1 0x1 DUP2 EQ PUSH2 0x12F7 JUMPI PUSH0 DUP5 ISZERO PUSH2 0x12E5 JUMPI DUP3 DUP8 ADD MLOAD SWAP1 POP JUMPDEST PUSH2 0x12EF DUP6 DUP3 PUSH2 0x1274 JUMP JUMPDEST DUP7 SSTORE POP PUSH2 0x1356 JUMP JUMPDEST PUSH1 0x1F NOT DUP5 AND PUSH2 0x1305 DUP7 PUSH2 0x10F2 JUMP JUMPDEST PUSH0 JUMPDEST DUP3 DUP2 LT ISZERO PUSH2 0x132C JUMPI DUP5 DUP10 ADD MLOAD DUP3 SSTORE PUSH1 0x1 DUP3 ADD SWAP2 POP PUSH1 0x20 DUP6 ADD SWAP5 POP PUSH1 0x20 DUP2 ADD SWAP1 POP PUSH2 0x1307 JUMP JUMPDEST DUP7 DUP4 LT ISZERO PUSH2 0x1349 JUMPI DUP5 DUP10 ADD MLOAD PUSH2 0x1345 PUSH1 0x1F DUP10 AND DUP3 PUSH2 0x1258 JUMP JUMPDEST DUP4 SSTORE POP JUMPDEST PUSH1 0x1 PUSH1 0x2 DUP9 MUL ADD DUP9 SSTORE POP POP POP JUMPDEST POP POP POP POP POP POP JUMP JUMPDEST PUSH32 0x4E487B7100000000000000000000000000000000000000000000000000000000 PUSH0 MSTORE PUSH1 0x11 PUSH1 0x4 MSTORE PUSH1 0x24 PUSH0 REVERT JUMPDEST PUSH0 PUSH2 0x1395 DUP3 PUSH2 0xA22 JUMP JUMPDEST SWAP2 POP PUSH32 0xFFFFFFFFFFFFFFFFFFFFFFFFFFFFFFFFFFFFFFFFFFFFFFFFFFFFFFFFFFFFFFFF DUP3 SUB PUSH2 0x13C7 JUMPI PUSH2 0x13C6 PUSH2 0x135E JUMP JUMPDEST JUMPDEST PUSH1 0x1 DUP3 ADD SWAP1 POP SWAP2 SWAP1 POP JUMP JUMPDEST PUSH0 PUSH1 0xE0 DUP3 ADD SWAP1 POP PUSH2 0x13E5 PUSH0 DUP4 ADD DUP11 PUSH2 0xE63 JUMP JUMPDEST PUSH2 0x13F2 PUSH1 0x20 DUP4 ADD DUP10 PUSH2 0xAC8 JUMP JUMPDEST PUSH2 0x13FF PUSH1 0x40 DUP4 ADD DUP9 PUSH2 0xE63 JUMP JUMPDEST DUP2 DUP2 SUB PUSH1 0x60 DUP4 ADD MSTORE PUSH2 0x1411 DUP2 DUP8 PUSH2 0xFCC JUMP JUMPDEST SWAP1 POP DUP2 DUP2 SUB PUSH1 0x80 DUP4 ADD MSTORE PUSH2 0x1425 DUP2 DUP7 PUSH2 0xFCC JUMP JUMPDEST SWAP1 POP DUP2 DUP2 SUB PUSH1 0xA0 DUP4 ADD MSTORE PUSH2 0x1439 DUP2 DUP6 PUSH2 0xFCC JUMP JUMPDEST SWAP1 POP PUSH2 0x1448 PUSH1 0xC0 DUP4 ADD DUP5 PUSH2 0xEC9 JUMP JUMPDEST SWAP9 SWAP8 POP POP POP POP POP POP POP POP JUMP INVALID LOG2 PUSH5 0x6970667358 0x22 SLT KECCAK256 0xEA LOG2 0xA7 0xEE SGT PUSH2 0x1C0F 0xD9 MUL SWAP7 SWAP9 KECCAK256 DUP9 DELEGATECALL DUP2 0xBE CALLCODE SUB NUMBER SWAP14 0xA9 0xC0 0xE1 LT SHR BASEFEE 0x4D 0xC6 DUP6 GASLIMIT DUP16 PUSH5 0x736F6C6343 STOP ADDMOD AND STOP CALLER "
				},
				"gasEstimates": {
					"creation": {
						"codeDepositCost": "1051600",
						"executionCost": "1092",
						"totalCost": "1052692"
					},
					"external": {
						"addProperty(bool,uint256,string,string,string)": "infinite",
						"getProperty(uint256)": "infinite",
						"getPropertyOwner(uint256)": "2902",
						"properties(uint256)": "infinite",
						"propertyCount()": "2492",
						"updateAvailability(uint256,bool)": "infinite",
						"updateMonthlyDescription(uint256,string)": "infinite",
						"updateMonthlyRent(uint256,uint256)": "infinite",
						"updateWithdrawal(uint256,bool)": "infinite"
					}
				},
				"methodIdentifiers": {
					"addProperty(bool,uint256,string,string,string)": "e61439d8",
					"getProperty(uint256)": "32665ffb",
					"getPropertyOwner(uint256)": "e34fc531",
					"properties(uint256)": "f7b10808",
					"propertyCount()": "c361a335",
					"updateAvailability(uint256,bool)": "2864e4a9",
					"updateMonthlyDescription(uint256,string)": "89f40d93",
					"updateMonthlyRent(uint256,uint256)": "d0921936",
					"updateWithdrawal(uint256,bool)": "dbda146d"
				}
			},
			"storageLayout": {
				"storage": [
					{
						"astId": 39,
						"contract": "propertyManagement.sol:propertyManagement",
						"label": "properties",
						"offset": 0,
						"slot": "0",
						"type": "t_mapping(t_uint256,t_struct(Property)34_storage)"
					},
					{
						"astId": 41,
						"contract": "propertyManagement.sol:propertyManagement",
						"label": "propertyCount",
						"offset": 0,
						"slot": "1",
						"type": "t_uint256"
					}
				],
				"types": {
					"t_address": {
						"encoding": "inplace",
						"label": "address",
						"numberOfBytes": "20"
					},
					"t_bool": {
						"encoding": "inplace",
						"label": "bool",
						"numberOfBytes": "1"
					},
					"t_mapping(t_uint256,t_struct(Property)34_storage)": {
						"encoding": "mapping",
						"key": "t_uint256",
						"label": "mapping(uint256 => struct propertyManagement.Property)",
						"numberOfBytes": "32",
						"value": "t_struct(Property)34_storage"
					},
					"t_string_storage": {
						"encoding": "bytes",
						"label": "string",
						"numberOfBytes": "32"
					},
					"t_struct(Property)34_storage": {
						"encoding": "inplace",
						"label": "struct propertyManagement.Property",
						"members": [
							{
								"astId": 19,
								"contract": "propertyManagement.sol:propertyManagement",
								"label": "propertyId",
								"offset": 0,
								"slot": "0",
								"type": "t_uint256"
							},
							{
								"astId": 21,
								"contract": "propertyManagement.sol:propertyManagement",
								"label": "isAvailable",
								"offset": 0,
								"slot": "1",
								"type": "t_bool"
							},
							{
								"astId": 23,
								"contract": "propertyManagement.sol:propertyManagement",
								"label": "isWithdraw",
								"offset": 1,
								"slot": "1",
								"type": "t_bool"
							},
							{
								"astId": 25,
								"contract": "propertyManagement.sol:propertyManagement",
								"label": "monthlyRent",
								"offset": 0,
								"slot": "2",
								"type": "t_uint256"
							},
							{
								"astId": 27,
								"contract": "propertyManagement.sol:propertyManagement",
								"label": "propertyType",
								"offset": 0,
								"slot": "3",
								"type": "t_string_storage"
							},
							{
								"astId": 29,
								"contract": "propertyManagement.sol:propertyManagement",
								"label": "description",
								"offset": 0,
								"slot": "4",
								"type": "t_string_storage"
							},
							{
								"astId": 31,
								"contract": "propertyManagement.sol:propertyManagement",
								"label": "location",
								"offset": 0,
								"slot": "5",
								"type": "t_string_storage"
							},
							{
								"astId": 33,
								"contract": "propertyManagement.sol:propertyManagement",
								"label": "owner",
								"offset": 0,
								"slot": "6",
								"type": "t_address"
							}
						],
						"numberOfBytes": "224"
					},
					"t_uint256": {
						"encoding": "inplace",
						"label": "uint256",
						"numberOfBytes": "32"
					}
				}
			},
			"userdoc": {
				"kind": "user",
				"methods": {},
				"version": 1
			}
		}
	}
}