{
	"renDAO.sol": {
		"RentDAO": {
			"abi": [
				{
					"anonymous": false,
					"inputs": [
						{
							"indexed": false,
							"internalType": "address",
							"name": "member",
							"type": "address"
						}
					],
					"name": "MemberRegistered",
					"type": "event"
				},
				{
					"anonymous": false,
					"inputs": [
						{
							"indexed": false,
							"internalType": "uint256",
							"name": "proposalId",
							"type": "uint256"
						},
						{
							"indexed": false,
							"internalType": "string",
							"name": "description",
							"type": "string"
						},
						{
							"indexed": false,
							"internalType": "address",
							"name": "proposer",
							"type": "address"
						}
					],
					"name": "ProposalCreated",
					"type": "event"
				},
				{
					"anonymous": false,
					"inputs": [
						{
							"indexed": false,
							"internalType": "uint256",
							"name": "proposalId",
							"type": "uint256"
						},
						{
							"indexed": false,
							"internalType": "bool",
							"name": "success",
							"type": "bool"
						}
					],
					"name": "ProposalExecuted",
					"type": "event"
				},
				{
					"anonymous": false,
					"inputs": [
						{
							"indexed": false,
							"internalType": "uint256",
							"name": "proposalId",
							"type": "uint256"
						},
						{
							"indexed": false,
							"internalType": "address",
							"name": "voter",
							"type": "address"
						},
						{
							"indexed": false,
							"internalType": "bool",
							"name": "support",
							"type": "bool"
						}
					],
					"name": "Voted",
					"type": "event"
				},
				{
					"inputs": [
						{
							"internalType": "string",
							"name": "description",
							"type": "string"
						}
					],
					"name": "createProposal",
					"outputs": [],
					"stateMutability": "nonpayable",
					"type": "function"
				},
				{
					"inputs": [
						{
							"internalType": "uint256",
							"name": "proposalId",
							"type": "uint256"
						}
					],
					"name": "executeProposal",
					"outputs": [],
					"stateMutability": "nonpayable",
					"type": "function"
				},
				{
					"inputs": [
						{
							"internalType": "address",
							"name": "",
							"type": "address"
						}
					],
					"name": "members",
					"outputs": [
						{
							"internalType": "bool",
							"name": "",
							"type": "bool"
						}
					],
					"stateMutability": "view",
					"type": "function"
				},
				{
					"inputs": [],
					"name": "proposalCount",
					"outputs": [
						{
							"internalType": "uint256",
							"name": "",
							"type": "uint256"
						}
					],
					"stateMutability": "view",
					"type": "function"
				},
				{
					"inputs": [
						{
							"internalType": "uint256",
							"name": "",
							"type": "uint256"
						}
					],
					"name": "proposals",
					"outputs": [
						{
							"internalType": "string",
							"name": "description",
							"type": "string"
						},
						{
							"internalType": "uint256",
							"name": "votesFor",
							"type": "uint256"
						},
						{
							"internalType": "uint256",
							"name": "votesAgainst",
							"type": "uint256"
						},
						{
							"internalType": "uint256",
							"name": "deadline",
							"type": "uint256"
						},
						{
							"internalType": "bool",
							"name": "executed",
							"type": "bool"
						},
						{
							"internalType": "address",
							"name": "proposer",
							"type": "address"
						}
					],
					"stateMutability": "view",
					"type": "function"
				},
				{
					"inputs": [],
					"name": "registerAsMember",
					"outputs": [],
					"stateMutability": "nonpayable",
					"type": "function"
				},
				{
					"inputs": [
						{
							"internalType": "uint256",
							"name": "proposalId",
							"type": "uint256"
						},
						{
							"internalType": "bool",
							"name": "support",
							"type": "bool"
						}
					],
					"name": "vote",
					"outputs": [],
					"stateMutability": "nonpayable",
					"type": "function"
				}
			],
			"devdoc": {
				"kind": "dev",
				"methods": {},
				"version": 1
			},
			"evm": {
				"assembly": "    /* \"renDAO.sol\":61:2949  contract RentDAO {... */\n  mstore(0x40, 0x80)\n  callvalue\n  dup1\n  iszero\n  tag_1\n  jumpi\n  0x00\n  dup1\n  revert\ntag_1:\n  pop\n  dataSize(sub_0)\n  dup1\n  dataOffset(sub_0)\n  0x00\n  codecopy\n  0x00\n  return\nstop\n\nsub_0: assembly {\n        /* \"renDAO.sol\":61:2949  contract RentDAO {... */\n      mstore(0x40, 0x80)\n      callvalue\n      dup1\n      iszero\n      tag_1\n      jumpi\n      0x00\n      dup1\n      revert\n    tag_1:\n      pop\n      jumpi(tag_2, lt(calldatasize, 0x04))\n      shr(0xe0, calldataload(0x00))\n      dup1\n      0x4217df12\n      gt\n      tag_10\n      jumpi\n      dup1\n      0x4217df12\n      eq\n      tag_6\n      jumpi\n      dup1\n      0x49c2a1a6\n      eq\n      tag_7\n      jumpi\n      dup1\n      0xc9d27afe\n      eq\n      tag_8\n      jumpi\n      dup1\n      0xda35c664\n      eq\n      tag_9\n      jumpi\n      jump(tag_2)\n    tag_10:\n      dup1\n      0x013cf08b\n      eq\n      tag_3\n      jumpi\n      dup1\n      0x08ae4b0c\n      eq\n      tag_4\n      jumpi\n      dup1\n      0x0d61b519\n      eq\n      tag_5\n      jumpi\n    tag_2:\n      0x00\n      dup1\n      revert\n        /* \"renDAO.sol\":464:509  mapping(uint256 => Proposal) public proposals */\n    tag_3:\n      tag_11\n      0x04\n      dup1\n      calldatasize\n      sub\n      dup2\n      add\n      swap1\n      tag_12\n      swap2\n      swap1\n      tag_13\n      jump\t// in\n    tag_12:\n      tag_14\n      jump\t// in\n    tag_11:\n      mload(0x40)\n      tag_15\n      swap7\n      swap6\n      swap5\n      swap4\n      swap3\n      swap2\n      swap1\n      tag_16\n      jump\t// in\n    tag_15:\n      mload(0x40)\n      dup1\n      swap2\n      sub\n      swap1\n      return\n        /* \"renDAO.sol\":392:431  mapping(address => bool) public members */\n    tag_4:\n      tag_17\n      0x04\n      dup1\n      calldatasize\n      sub\n      dup2\n      add\n      swap1\n      tag_18\n      swap2\n      swap1\n      tag_19\n      jump\t// in\n    tag_18:\n      tag_20\n      jump\t// in\n    tag_17:\n      mload(0x40)\n      tag_21\n      swap2\n      swap1\n      tag_22\n      jump\t// in\n    tag_21:\n      mload(0x40)\n      dup1\n      swap2\n      sub\n      swap1\n      return\n        /* \"renDAO.sol\":2332:2946  function executeProposal(... */\n    tag_5:\n      tag_23\n      0x04\n      dup1\n      calldatasize\n      sub\n      dup2\n      add\n      swap1\n      tag_24\n      swap2\n      swap1\n      tag_13\n      jump\t// in\n    tag_24:\n      tag_25\n      jump\t// in\n    tag_23:\n      stop\n        /* \"renDAO.sol\":1044:1342  function registerAsMember() external {... */\n    tag_6:\n      tag_26\n      tag_27\n      jump\t// in\n    tag_26:\n      stop\n        /* \"renDAO.sol\":1371:1854  function createProposal(... */\n    tag_7:\n      tag_28\n      0x04\n      dup1\n      calldatasize\n      sub\n      dup2\n      add\n      swap1\n      tag_29\n      swap2\n      swap1\n      tag_30\n      jump\t// in\n    tag_29:\n      tag_31\n      jump\t// in\n    tag_28:\n      stop\n        /* \"renDAO.sol\":1877:2303  function vote(... */\n    tag_8:\n      tag_32\n      0x04\n      dup1\n      calldatasize\n      sub\n      dup2\n      add\n      swap1\n      tag_33\n      swap2\n      swap1\n      tag_34\n      jump\t// in\n    tag_33:\n      tag_35\n      jump\t// in\n    tag_32:\n      stop\n        /* \"renDAO.sol\":533:561  uint256 public proposalCount */\n    tag_9:\n      tag_36\n      tag_37\n      jump\t// in\n    tag_36:\n      mload(0x40)\n      tag_38\n      swap2\n      swap1\n      tag_39\n      jump\t// in\n    tag_38:\n      mload(0x40)\n      dup1\n      swap2\n      sub\n      swap1\n      return\n        /* \"renDAO.sol\":464:509  mapping(uint256 => Proposal) public proposals */\n    tag_14:\n      mstore(0x20, 0x01)\n      dup1\n      0x00\n      mstore\n      keccak256(0x00, 0x40)\n      0x00\n      swap2\n      pop\n      swap1\n      pop\n      dup1\n      0x00\n      add\n      dup1\n      sload\n      tag_40\n      swap1\n      tag_41\n      jump\t// in\n    tag_40:\n      dup1\n      0x1f\n      add\n      0x20\n      dup1\n      swap2\n      div\n      mul\n      0x20\n      add\n      mload(0x40)\n      swap1\n      dup2\n      add\n      0x40\n      mstore\n      dup1\n      swap3\n      swap2\n      swap1\n      dup2\n      dup2\n      mstore\n      0x20\n      add\n      dup3\n      dup1\n      sload\n      tag_42\n      swap1\n      tag_41\n      jump\t// in\n    tag_42:\n      dup1\n      iszero\n      tag_43\n      jumpi\n      dup1\n      0x1f\n      lt\n      tag_44\n      jumpi\n      0x0100\n      dup1\n      dup4\n      sload\n      div\n      mul\n      dup4\n      mstore\n      swap2\n      0x20\n      add\n      swap2\n      jump(tag_43)\n    tag_44:\n      dup3\n      add\n      swap2\n      swap1\n      0x00\n      mstore\n      keccak256(0x00, 0x20)\n      swap1\n    tag_45:\n      dup2\n      sload\n      dup2\n      mstore\n      swap1\n      0x01\n      add\n      swap1\n      0x20\n      add\n      dup1\n      dup4\n      gt\n      tag_45\n      jumpi\n      dup3\n      swap1\n      sub\n      0x1f\n      and\n      dup3\n      add\n      swap2\n    tag_43:\n      pop\n      pop\n      pop\n      pop\n      pop\n      swap1\n      dup1\n      0x01\n      add\n      sload\n      swap1\n      dup1\n      0x02\n      add\n      sload\n      swap1\n      dup1\n      0x03\n      add\n      sload\n      swap1\n      dup1\n      0x04\n      add\n      0x00\n      swap1\n      sload\n      swap1\n      0x0100\n      exp\n      swap1\n      div\n      0xff\n      and\n      swap1\n      dup1\n      0x04\n      add\n      0x01\n      swap1\n      sload\n      swap1\n      0x0100\n      exp\n      swap1\n      div\n      0xffffffffffffffffffffffffffffffffffffffff\n      and\n      swap1\n      pop\n      dup7\n      jump\t// out\n        /* \"renDAO.sol\":392:431  mapping(address => bool) public members */\n    tag_20:\n      mstore(0x20, 0x00)\n      dup1\n      0x00\n      mstore\n      keccak256(0x00, 0x40)\n      0x00\n      swap2\n      pop\n      sload\n      swap1\n      0x0100\n      exp\n      swap1\n      div\n      0xff\n      and\n      dup2\n      jump\t// out\n        /* \"renDAO.sol\":2332:2946  function executeProposal(... */\n    tag_25:\n        /* \"renDAO.sol\":908:915  members */\n      0x00\n        /* \"renDAO.sol\":908:926  members[tx.origin] */\n      dup1\n        /* \"renDAO.sol\":916:925  tx.origin */\n      origin\n        /* \"renDAO.sol\":908:926  members[tx.origin] */\n      0xffffffffffffffffffffffffffffffffffffffff\n      and\n      0xffffffffffffffffffffffffffffffffffffffff\n      and\n      dup2\n      mstore\n      0x20\n      add\n      swap1\n      dup2\n      mstore\n      0x20\n      add\n      0x00\n      keccak256\n      0x00\n      swap1\n      sload\n      swap1\n      0x0100\n      exp\n      swap1\n      div\n      0xff\n      and\n        /* \"renDAO.sol\":900:971  require(members[tx.origin], \"Only DAO members can perform this action\") */\n      tag_47\n      jumpi\n      mload(0x40)\n      0x08c379a000000000000000000000000000000000000000000000000000000000\n      dup2\n      mstore\n      0x04\n      add\n      tag_48\n      swap1\n      tag_49\n      jump\t// in\n    tag_48:\n      mload(0x40)\n      dup1\n      swap2\n      sub\n      swap1\n      revert\n    tag_47:\n        /* \"renDAO.sol\":2424:2449  Proposal storage proposal */\n      0x00\n        /* \"renDAO.sol\":2452:2461  proposals */\n      0x01\n        /* \"renDAO.sol\":2452:2473  proposals[proposalId] */\n      0x00\n        /* \"renDAO.sol\":2462:2472  proposalId */\n      dup4\n        /* \"renDAO.sol\":2452:2473  proposals[proposalId] */\n      dup2\n      mstore\n      0x20\n      add\n      swap1\n      dup2\n      mstore\n      0x20\n      add\n      0x00\n      keccak256\n        /* \"renDAO.sol\":2424:2473  Proposal storage proposal = proposals[proposalId] */\n      swap1\n      pop\n        /* \"renDAO.sol\":2511:2519  proposal */\n      dup1\n        /* \"renDAO.sol\":2511:2528  proposal.deadline */\n      0x03\n      add\n      sload\n        /* \"renDAO.sol\":2492:2507  block.timestamp */\n      timestamp\n        /* \"renDAO.sol\":2492:2528  block.timestamp >= proposal.deadline */\n      lt\n      iszero\n        /* \"renDAO.sol\":2484:2562  require(block.timestamp >= proposal.deadline, \"Voting period is still active\") */\n      tag_51\n      jumpi\n      mload(0x40)\n      0x08c379a000000000000000000000000000000000000000000000000000000000\n      dup2\n      mstore\n      0x04\n      add\n      tag_52\n      swap1\n      tag_53\n      jump\t// in\n    tag_52:\n      mload(0x40)\n      dup1\n      swap2\n      sub\n      swap1\n      revert\n    tag_51:\n        /* \"renDAO.sol\":2582:2590  proposal */\n      dup1\n        /* \"renDAO.sol\":2582:2599  proposal.executed */\n      0x04\n      add\n      0x00\n      swap1\n      sload\n      swap1\n      0x0100\n      exp\n      swap1\n      div\n      0xff\n      and\n        /* \"renDAO.sol\":2581:2599  !proposal.executed */\n      iszero\n        /* \"renDAO.sol\":2573:2629  require(!proposal.executed, \"Proposal already executed\") */\n      tag_54\n      jumpi\n      mload(0x40)\n      0x08c379a000000000000000000000000000000000000000000000000000000000\n      dup2\n      mstore\n      0x04\n      add\n      tag_55\n      swap1\n      tag_56\n      jump\t// in\n    tag_55:\n      mload(0x40)\n      dup1\n      swap2\n      sub\n      swap1\n      revert\n    tag_54:\n        /* \"renDAO.sol\":2642:2654  bool success */\n      0x00\n        /* \"renDAO.sol\":2677:2685  proposal */\n      dup2\n        /* \"renDAO.sol\":2677:2698  proposal.votesAgainst */\n      0x02\n      add\n      sload\n        /* \"renDAO.sol\":2657:2665  proposal */\n      dup3\n        /* \"renDAO.sol\":2657:2674  proposal.votesFor */\n      0x01\n      add\n      sload\n        /* \"renDAO.sol\":2657:2698  proposal.votesFor > proposal.votesAgainst */\n      gt\n        /* \"renDAO.sol\":2642:2698  bool success = proposal.votesFor > proposal.votesAgainst */\n      swap1\n      pop\n        /* \"renDAO.sol\":2729:2733  true */\n      0x01\n        /* \"renDAO.sol\":2709:2717  proposal */\n      dup3\n        /* \"renDAO.sol\":2709:2726  proposal.executed */\n      0x04\n      add\n      0x00\n        /* \"renDAO.sol\":2709:2733  proposal.executed = true */\n      0x0100\n      exp\n      dup2\n      sload\n      dup2\n      0xff\n      mul\n      not\n      and\n      swap1\n      dup4\n      iszero\n      iszero\n      mul\n      or\n      swap1\n      sstore\n      pop\n        /* \"renDAO.sol\":2901:2938  ProposalExecuted(proposalId, success) */\n      0x948f4a9cd986f1118c3fbd459f7a22b23c0693e1ca3ef06a6a8be5aa7d39cc03\n        /* \"renDAO.sol\":2918:2928  proposalId */\n      dup4\n        /* \"renDAO.sol\":2930:2937  success */\n      dup3\n        /* \"renDAO.sol\":2901:2938  ProposalExecuted(proposalId, success) */\n      mload(0x40)\n      tag_58\n      swap3\n      swap2\n      swap1\n      tag_59\n      jump\t// in\n    tag_58:\n      mload(0x40)\n      dup1\n      swap2\n      sub\n      swap1\n      log1\n        /* \"renDAO.sol\":2413:2946  {... */\n      pop\n      pop\n        /* \"renDAO.sol\":2332:2946  function executeProposal(... */\n      pop\n      jump\t// out\n        /* \"renDAO.sol\":1044:1342  function registerAsMember() external {... */\n    tag_27:\n        /* \"renDAO.sol\":1101:1108  members */\n      0x00\n        /* \"renDAO.sol\":1101:1119  members[tx.origin] */\n      dup1\n        /* \"renDAO.sol\":1109:1118  tx.origin */\n      origin\n        /* \"renDAO.sol\":1101:1119  members[tx.origin] */\n      0xffffffffffffffffffffffffffffffffffffffff\n      and\n      0xffffffffffffffffffffffffffffffffffffffff\n      and\n      dup2\n      mstore\n      0x20\n      add\n      swap1\n      dup2\n      mstore\n      0x20\n      add\n      0x00\n      keccak256\n      0x00\n      swap1\n      sload\n      swap1\n      0x0100\n      exp\n      swap1\n      div\n      0xff\n      and\n        /* \"renDAO.sol\":1100:1119  !members[tx.origin] */\n      iszero\n        /* \"renDAO.sol\":1092:1140  require(!members[tx.origin], \"Already a member\") */\n      tag_61\n      jumpi\n      mload(0x40)\n      0x08c379a000000000000000000000000000000000000000000000000000000000\n      dup2\n      mstore\n      0x04\n      add\n      tag_62\n      swap1\n      tag_63\n      jump\t// in\n    tag_62:\n      mload(0x40)\n      dup1\n      swap2\n      sub\n      swap1\n      revert\n    tag_61:\n        /* \"renDAO.sol\":1284:1288  true */\n      0x01\n        /* \"renDAO.sol\":1263:1270  members */\n      0x00\n        /* \"renDAO.sol\":1263:1281  members[tx.origin] */\n      dup1\n        /* \"renDAO.sol\":1271:1280  tx.origin */\n      origin\n        /* \"renDAO.sol\":1263:1281  members[tx.origin] */\n      0xffffffffffffffffffffffffffffffffffffffff\n      and\n      0xffffffffffffffffffffffffffffffffffffffff\n      and\n      dup2\n      mstore\n      0x20\n      add\n      swap1\n      dup2\n      mstore\n      0x20\n      add\n      0x00\n      keccak256\n      0x00\n        /* \"renDAO.sol\":1263:1288  members[tx.origin] = true */\n      0x0100\n      exp\n      dup2\n      sload\n      dup2\n      0xff\n      mul\n      not\n      and\n      swap1\n      dup4\n      iszero\n      iszero\n      mul\n      or\n      swap1\n      sstore\n      pop\n        /* \"renDAO.sol\":1306:1334  MemberRegistered(msg.sender) */\n      0x92fabfa210df88d92c2f5a07ddd43a985b208d8b19b7a78ba1284aa4b287d862\n        /* \"renDAO.sol\":1323:1333  msg.sender */\n      caller\n        /* \"renDAO.sol\":1306:1334  MemberRegistered(msg.sender) */\n      mload(0x40)\n      tag_64\n      swap2\n      swap1\n      tag_65\n      jump\t// in\n    tag_64:\n      mload(0x40)\n      dup1\n      swap2\n      sub\n      swap1\n      log1\n        /* \"renDAO.sol\":1044:1342  function registerAsMember() external {... */\n      jump\t// out\n        /* \"renDAO.sol\":1371:1854  function createProposal(... */\n    tag_31:\n        /* \"renDAO.sol\":908:915  members */\n      0x00\n        /* \"renDAO.sol\":908:926  members[tx.origin] */\n      dup1\n        /* \"renDAO.sol\":916:925  tx.origin */\n      origin\n        /* \"renDAO.sol\":908:926  members[tx.origin] */\n      0xffffffffffffffffffffffffffffffffffffffff\n      and\n      0xffffffffffffffffffffffffffffffffffffffff\n      and\n      dup2\n      mstore\n      0x20\n      add\n      swap1\n      dup2\n      mstore\n      0x20\n      add\n      0x00\n      keccak256\n      0x00\n      swap1\n      sload\n      swap1\n      0x0100\n      exp\n      swap1\n      div\n      0xff\n      and\n        /* \"renDAO.sol\":900:971  require(members[tx.origin], \"Only DAO members can perform this action\") */\n      tag_67\n      jumpi\n      mload(0x40)\n      0x08c379a000000000000000000000000000000000000000000000000000000000\n      dup2\n      mstore\n      0x04\n      add\n      tag_68\n      swap1\n      tag_49\n      jump\t// in\n    tag_68:\n      mload(0x40)\n      dup1\n      swap2\n      sub\n      swap1\n      revert\n    tag_67:\n        /* \"renDAO.sol\":1496:1748  Proposal({... */\n      mload(0x40)\n      dup1\n      0xc0\n      add\n      0x40\n      mstore\n      dup1\n        /* \"renDAO.sol\":1533:1544  description */\n      dup3\n        /* \"renDAO.sol\":1496:1748  Proposal({... */\n      dup2\n      mstore\n      0x20\n      add\n        /* \"renDAO.sol\":1569:1570  0 */\n      0x00\n        /* \"renDAO.sol\":1496:1748  Proposal({... */\n      dup2\n      mstore\n      0x20\n      add\n        /* \"renDAO.sol\":1599:1600  0 */\n      0x00\n        /* \"renDAO.sol\":1496:1748  Proposal({... */\n      dup2\n      mstore\n      0x20\n      add\n        /* \"renDAO.sol\":1643:1649  3 days */\n      0x03f480\n        /* \"renDAO.sol\":1625:1640  block.timestamp */\n      timestamp\n        /* \"renDAO.sol\":1625:1649  block.timestamp + 3 days */\n      tag_70\n      swap2\n      swap1\n      tag_71\n      jump\t// in\n    tag_70:\n        /* \"renDAO.sol\":1496:1748  Proposal({... */\n      dup2\n      mstore\n      0x20\n      add\n        /* \"renDAO.sol\":1697:1702  false */\n      0x00\n        /* \"renDAO.sol\":1496:1748  Proposal({... */\n      iszero\n      iszero\n      dup2\n      mstore\n      0x20\n      add\n        /* \"renDAO.sol\":1727:1736  tx.origin */\n      origin\n        /* \"renDAO.sol\":1496:1748  Proposal({... */\n      0xffffffffffffffffffffffffffffffffffffffff\n      and\n      dup2\n      mstore\n      pop\n        /* \"renDAO.sol\":1469:1478  proposals */\n      0x01\n        /* \"renDAO.sol\":1469:1493  proposals[proposalCount] */\n      0x00\n        /* \"renDAO.sol\":1479:1492  proposalCount */\n      sload(0x02)\n        /* \"renDAO.sol\":1469:1493  proposals[proposalCount] */\n      dup2\n      mstore\n      0x20\n      add\n      swap1\n      dup2\n      mstore\n      0x20\n      add\n      0x00\n      keccak256\n        /* \"renDAO.sol\":1469:1748  proposals[proposalCount] = Proposal({... */\n      0x00\n      dup3\n      add\n      mload\n      dup2\n      0x00\n      add\n      swap1\n      dup2\n      tag_72\n      swap2\n      swap1\n      tag_73\n      jump\t// in\n    tag_72:\n      pop\n      0x20\n      dup3\n      add\n      mload\n      dup2\n      0x01\n      add\n      sstore\n      0x40\n      dup3\n      add\n      mload\n      dup2\n      0x02\n      add\n      sstore\n      0x60\n      dup3\n      add\n      mload\n      dup2\n      0x03\n      add\n      sstore\n      0x80\n      dup3\n      add\n      mload\n      dup2\n      0x04\n      add\n      exp(0x0100, 0x00)\n      dup2\n      sload\n      dup2\n      0xff\n      mul\n      not\n      and\n      swap1\n      dup4\n      iszero\n      iszero\n      mul\n      or\n      swap1\n      sstore\n      pop\n      0xa0\n      dup3\n      add\n      mload\n      dup2\n      0x04\n      add\n      exp(0x0100, 0x01)\n      dup2\n      sload\n      dup2\n      0xffffffffffffffffffffffffffffffffffffffff\n      mul\n      not\n      and\n      swap1\n      dup4\n      0xffffffffffffffffffffffffffffffffffffffff\n      and\n      mul\n      or\n      swap1\n      sstore\n      pop\n      swap1\n      pop\n      pop\n        /* \"renDAO.sol\":1766:1820  ProposalCreated(proposalCount, description, tx.origin) */\n      0xc8c078bfee58e5822588f08b4509ed1eb5058e03f666cca84dd2d44bf5c288a8\n        /* \"renDAO.sol\":1782:1795  proposalCount */\n      sload(0x02)\n        /* \"renDAO.sol\":1797:1808  description */\n      dup3\n        /* \"renDAO.sol\":1810:1819  tx.origin */\n      origin\n        /* \"renDAO.sol\":1766:1820  ProposalCreated(proposalCount, description, tx.origin) */\n      mload(0x40)\n      tag_74\n      swap4\n      swap3\n      swap2\n      swap1\n      tag_75\n      jump\t// in\n    tag_74:\n      mload(0x40)\n      dup1\n      swap2\n      sub\n      swap1\n      log1\n        /* \"renDAO.sol\":1831:1844  proposalCount */\n      0x02\n      0x00\n        /* \"renDAO.sol\":1831:1846  proposalCount++ */\n      dup2\n      sload\n      dup1\n      swap3\n      swap2\n      swap1\n      tag_76\n      swap1\n      tag_77\n      jump\t// in\n    tag_76:\n      swap2\n      swap1\n      pop\n      sstore\n      pop\n        /* \"renDAO.sol\":1371:1854  function createProposal(... */\n      pop\n      jump\t// out\n        /* \"renDAO.sol\":1877:2303  function vote(... */\n    tag_35:\n        /* \"renDAO.sol\":908:915  members */\n      0x00\n        /* \"renDAO.sol\":908:926  members[tx.origin] */\n      dup1\n        /* \"renDAO.sol\":916:925  tx.origin */\n      origin\n        /* \"renDAO.sol\":908:926  members[tx.origin] */\n      0xffffffffffffffffffffffffffffffffffffffff\n      and\n      0xffffffffffffffffffffffffffffffffffffffff\n      and\n      dup2\n      mstore\n      0x20\n      add\n      swap1\n      dup2\n      mstore\n      0x20\n      add\n      0x00\n      keccak256\n      0x00\n      swap1\n      sload\n      swap1\n      0x0100\n      exp\n      swap1\n      div\n      0xff\n      and\n        /* \"renDAO.sol\":900:971  require(members[tx.origin], \"Only DAO members can perform this action\") */\n      tag_79\n      jumpi\n      mload(0x40)\n      0x08c379a000000000000000000000000000000000000000000000000000000000\n      dup2\n      mstore\n      0x04\n      add\n      tag_80\n      swap1\n      tag_49\n      jump\t// in\n    tag_80:\n      mload(0x40)\n      dup1\n      swap2\n      sub\n      swap1\n      revert\n    tag_79:\n        /* \"renDAO.sol\":1981:2006  Proposal storage proposal */\n      0x00\n        /* \"renDAO.sol\":2009:2018  proposals */\n      0x01\n        /* \"renDAO.sol\":2009:2030  proposals[proposalId] */\n      0x00\n        /* \"renDAO.sol\":2019:2029  proposalId */\n      dup5\n        /* \"renDAO.sol\":2009:2030  proposals[proposalId] */\n      dup2\n      mstore\n      0x20\n      add\n      swap1\n      dup2\n      mstore\n      0x20\n      add\n      0x00\n      keccak256\n        /* \"renDAO.sol\":1981:2030  Proposal storage proposal = proposals[proposalId] */\n      swap1\n      pop\n        /* \"renDAO.sol\":2067:2075  proposal */\n      dup1\n        /* \"renDAO.sol\":2067:2084  proposal.deadline */\n      0x03\n      add\n      sload\n        /* \"renDAO.sol\":2049:2064  block.timestamp */\n      timestamp\n        /* \"renDAO.sol\":2049:2084  block.timestamp < proposal.deadline */\n      lt\n        /* \"renDAO.sol\":2041:2112  require(block.timestamp < proposal.deadline, \"Voting period has ended\") */\n      tag_82\n      jumpi\n      mload(0x40)\n      0x08c379a000000000000000000000000000000000000000000000000000000000\n      dup2\n      mstore\n      0x04\n      add\n      tag_83\n      swap1\n      tag_84\n      jump\t// in\n    tag_83:\n      mload(0x40)\n      dup1\n      swap2\n      sub\n      swap1\n      revert\n    tag_82:\n        /* \"renDAO.sol\":2129:2136  support */\n      dup2\n        /* \"renDAO.sol\":2125:2240  if (support) {... */\n      iszero\n      tag_85\n      jumpi\n        /* \"renDAO.sol\":2153:2161  proposal */\n      dup1\n        /* \"renDAO.sol\":2153:2170  proposal.votesFor */\n      0x01\n      add\n      0x00\n        /* \"renDAO.sol\":2153:2172  proposal.votesFor++ */\n      dup2\n      sload\n      dup1\n      swap3\n      swap2\n      swap1\n      tag_86\n      swap1\n      tag_77\n      jump\t// in\n    tag_86:\n      swap2\n      swap1\n      pop\n      sstore\n      pop\n        /* \"renDAO.sol\":2125:2240  if (support) {... */\n      jump(tag_87)\n    tag_85:\n        /* \"renDAO.sol\":2205:2213  proposal */\n      dup1\n        /* \"renDAO.sol\":2205:2226  proposal.votesAgainst */\n      0x02\n      add\n      0x00\n        /* \"renDAO.sol\":2205:2228  proposal.votesAgainst++ */\n      dup2\n      sload\n      dup1\n      swap3\n      swap2\n      swap1\n      tag_88\n      swap1\n      tag_77\n      jump\t// in\n    tag_88:\n      swap2\n      swap1\n      pop\n      sstore\n      pop\n        /* \"renDAO.sol\":2125:2240  if (support) {... */\n    tag_87:\n        /* \"renDAO.sol\":2257:2295  Voted(proposalId, msg.sender, support) */\n      0xf2913dbe661ee2acc4a046d8fbcdc792373bda34c41c6086484b5345e5785e5f\n        /* \"renDAO.sol\":2263:2273  proposalId */\n      dup4\n        /* \"renDAO.sol\":2275:2285  msg.sender */\n      caller\n        /* \"renDAO.sol\":2287:2294  support */\n      dup5\n        /* \"renDAO.sol\":2257:2295  Voted(proposalId, msg.sender, support) */\n      mload(0x40)\n      tag_89\n      swap4\n      swap3\n      swap2\n      swap1\n      tag_90\n      jump\t// in\n    tag_89:\n      mload(0x40)\n      dup1\n      swap2\n      sub\n      swap1\n      log1\n        /* \"renDAO.sol\":1970:2303  {... */\n      pop\n        /* \"renDAO.sol\":1877:2303  function vote(... */\n      pop\n      pop\n      jump\t// out\n        /* \"renDAO.sol\":533:561  uint256 public proposalCount */\n    tag_37:\n      sload(0x02)\n      dup2\n      jump\t// out\n        /* \"#utility.yul\":7:82   */\n    tag_91:\n        /* \"#utility.yul\":40:46   */\n      0x00\n        /* \"#utility.yul\":73:75   */\n      0x40\n        /* \"#utility.yul\":67:76   */\n      mload\n        /* \"#utility.yul\":57:76   */\n      swap1\n      pop\n        /* \"#utility.yul\":7:82   */\n      swap1\n      jump\t// out\n        /* \"#utility.yul\":88:205   */\n    tag_92:\n        /* \"#utility.yul\":197:198   */\n      0x00\n        /* \"#utility.yul\":194:195   */\n      dup1\n        /* \"#utility.yul\":187:199   */\n      revert\n        /* \"#utility.yul\":211:328   */\n    tag_93:\n        /* \"#utility.yul\":320:321   */\n      0x00\n        /* \"#utility.yul\":317:318   */\n      dup1\n        /* \"#utility.yul\":310:322   */\n      revert\n        /* \"#utility.yul\":334:411   */\n    tag_94:\n        /* \"#utility.yul\":371:378   */\n      0x00\n        /* \"#utility.yul\":400:405   */\n      dup2\n        /* \"#utility.yul\":389:405   */\n      swap1\n      pop\n        /* \"#utility.yul\":334:411   */\n      swap2\n      swap1\n      pop\n      jump\t// out\n        /* \"#utility.yul\":417:539   */\n    tag_95:\n        /* \"#utility.yul\":490:514   */\n      tag_154\n        /* \"#utility.yul\":508:513   */\n      dup2\n        /* \"#utility.yul\":490:514   */\n      tag_94\n      jump\t// in\n    tag_154:\n        /* \"#utility.yul\":483:488   */\n      dup2\n        /* \"#utility.yul\":480:515   */\n      eq\n        /* \"#utility.yul\":470:533   */\n      tag_155\n      jumpi\n        /* \"#utility.yul\":529:530   */\n      0x00\n        /* \"#utility.yul\":526:527   */\n      dup1\n        /* \"#utility.yul\":519:531   */\n      revert\n        /* \"#utility.yul\":470:533   */\n    tag_155:\n        /* \"#utility.yul\":417:539   */\n      pop\n      jump\t// out\n        /* \"#utility.yul\":545:684   */\n    tag_96:\n        /* \"#utility.yul\":591:596   */\n      0x00\n        /* \"#utility.yul\":629:635   */\n      dup2\n        /* \"#utility.yul\":616:636   */\n      calldataload\n        /* \"#utility.yul\":607:636   */\n      swap1\n      pop\n        /* \"#utility.yul\":645:678   */\n      tag_157\n        /* \"#utility.yul\":672:677   */\n      dup2\n        /* \"#utility.yul\":645:678   */\n      tag_95\n      jump\t// in\n    tag_157:\n        /* \"#utility.yul\":545:684   */\n      swap3\n      swap2\n      pop\n      pop\n      jump\t// out\n        /* \"#utility.yul\":690:1019   */\n    tag_13:\n        /* \"#utility.yul\":749:755   */\n      0x00\n        /* \"#utility.yul\":798:800   */\n      0x20\n        /* \"#utility.yul\":786:795   */\n      dup3\n        /* \"#utility.yul\":777:784   */\n      dup5\n        /* \"#utility.yul\":773:796   */\n      sub\n        /* \"#utility.yul\":769:801   */\n      slt\n        /* \"#utility.yul\":766:885   */\n      iszero\n      tag_159\n      jumpi\n        /* \"#utility.yul\":804:883   */\n      tag_160\n      tag_92\n      jump\t// in\n    tag_160:\n        /* \"#utility.yul\":766:885   */\n    tag_159:\n        /* \"#utility.yul\":924:925   */\n      0x00\n        /* \"#utility.yul\":949:1002   */\n      tag_161\n        /* \"#utility.yul\":994:1001   */\n      dup5\n        /* \"#utility.yul\":985:991   */\n      dup3\n        /* \"#utility.yul\":974:983   */\n      dup6\n        /* \"#utility.yul\":970:992   */\n      add\n        /* \"#utility.yul\":949:1002   */\n      tag_96\n      jump\t// in\n    tag_161:\n        /* \"#utility.yul\":939:1002   */\n      swap2\n      pop\n        /* \"#utility.yul\":895:1012   */\n      pop\n        /* \"#utility.yul\":690:1019   */\n      swap3\n      swap2\n      pop\n      pop\n      jump\t// out\n        /* \"#utility.yul\":1025:1124   */\n    tag_97:\n        /* \"#utility.yul\":1077:1083   */\n      0x00\n        /* \"#utility.yul\":1111:1116   */\n      dup2\n        /* \"#utility.yul\":1105:1117   */\n      mload\n        /* \"#utility.yul\":1095:1117   */\n      swap1\n      pop\n        /* \"#utility.yul\":1025:1124   */\n      swap2\n      swap1\n      pop\n      jump\t// out\n        /* \"#utility.yul\":1130:1299   */\n    tag_98:\n        /* \"#utility.yul\":1214:1225   */\n      0x00\n        /* \"#utility.yul\":1248:1254   */\n      dup3\n        /* \"#utility.yul\":1243:1246   */\n      dup3\n        /* \"#utility.yul\":1236:1255   */\n      mstore\n        /* \"#utility.yul\":1288:1292   */\n      0x20\n        /* \"#utility.yul\":1283:1286   */\n      dup3\n        /* \"#utility.yul\":1279:1293   */\n      add\n        /* \"#utility.yul\":1264:1293   */\n      swap1\n      pop\n        /* \"#utility.yul\":1130:1299   */\n      swap3\n      swap2\n      pop\n      pop\n      jump\t// out\n        /* \"#utility.yul\":1305:1551   */\n    tag_99:\n        /* \"#utility.yul\":1386:1387   */\n      0x00\n        /* \"#utility.yul\":1396:1509   */\n    tag_165:\n        /* \"#utility.yul\":1410:1416   */\n      dup4\n        /* \"#utility.yul\":1407:1408   */\n      dup2\n        /* \"#utility.yul\":1404:1417   */\n      lt\n        /* \"#utility.yul\":1396:1509   */\n      iszero\n      tag_167\n      jumpi\n        /* \"#utility.yul\":1495:1496   */\n      dup1\n        /* \"#utility.yul\":1490:1493   */\n      dup3\n        /* \"#utility.yul\":1486:1497   */\n      add\n        /* \"#utility.yul\":1480:1498   */\n      mload\n        /* \"#utility.yul\":1476:1477   */\n      dup2\n        /* \"#utility.yul\":1471:1474   */\n      dup5\n        /* \"#utility.yul\":1467:1478   */\n      add\n        /* \"#utility.yul\":1460:1499   */\n      mstore\n        /* \"#utility.yul\":1432:1434   */\n      0x20\n        /* \"#utility.yul\":1429:1430   */\n      dup2\n        /* \"#utility.yul\":1425:1435   */\n      add\n        /* \"#utility.yul\":1420:1435   */\n      swap1\n      pop\n        /* \"#utility.yul\":1396:1509   */\n      jump(tag_165)\n    tag_167:\n        /* \"#utility.yul\":1543:1544   */\n      0x00\n        /* \"#utility.yul\":1534:1540   */\n      dup5\n        /* \"#utility.yul\":1529:1532   */\n      dup5\n        /* \"#utility.yul\":1525:1541   */\n      add\n        /* \"#utility.yul\":1518:1545   */\n      mstore\n        /* \"#utility.yul\":1367:1551   */\n      pop\n        /* \"#utility.yul\":1305:1551   */\n      pop\n      pop\n      pop\n      jump\t// out\n        /* \"#utility.yul\":1557:1659   */\n    tag_100:\n        /* \"#utility.yul\":1598:1604   */\n      0x00\n        /* \"#utility.yul\":1649:1651   */\n      0x1f\n        /* \"#utility.yul\":1645:1652   */\n      not\n        /* \"#utility.yul\":1640:1642   */\n      0x1f\n        /* \"#utility.yul\":1633:1638   */\n      dup4\n        /* \"#utility.yul\":1629:1643   */\n      add\n        /* \"#utility.yul\":1625:1653   */\n      and\n        /* \"#utility.yul\":1615:1653   */\n      swap1\n      pop\n        /* \"#utility.yul\":1557:1659   */\n      swap2\n      swap1\n      pop\n      jump\t// out\n        /* \"#utility.yul\":1665:2042   */\n    tag_101:\n        /* \"#utility.yul\":1753:1756   */\n      0x00\n        /* \"#utility.yul\":1781:1820   */\n      tag_170\n        /* \"#utility.yul\":1814:1819   */\n      dup3\n        /* \"#utility.yul\":1781:1820   */\n      tag_97\n      jump\t// in\n    tag_170:\n        /* \"#utility.yul\":1836:1907   */\n      tag_171\n        /* \"#utility.yul\":1900:1906   */\n      dup2\n        /* \"#utility.yul\":1895:1898   */\n      dup6\n        /* \"#utility.yul\":1836:1907   */\n      tag_98\n      jump\t// in\n    tag_171:\n        /* \"#utility.yul\":1829:1907   */\n      swap4\n      pop\n        /* \"#utility.yul\":1916:1981   */\n      tag_172\n        /* \"#utility.yul\":1974:1980   */\n      dup2\n        /* \"#utility.yul\":1969:1972   */\n      dup6\n        /* \"#utility.yul\":1962:1966   */\n      0x20\n        /* \"#utility.yul\":1955:1960   */\n      dup7\n        /* \"#utility.yul\":1951:1967   */\n      add\n        /* \"#utility.yul\":1916:1981   */\n      tag_99\n      jump\t// in\n    tag_172:\n        /* \"#utility.yul\":2006:2035   */\n      tag_173\n        /* \"#utility.yul\":2028:2034   */\n      dup2\n        /* \"#utility.yul\":2006:2035   */\n      tag_100\n      jump\t// in\n    tag_173:\n        /* \"#utility.yul\":2001:2004   */\n      dup5\n        /* \"#utility.yul\":1997:2036   */\n      add\n        /* \"#utility.yul\":1990:2036   */\n      swap2\n      pop\n        /* \"#utility.yul\":1757:2042   */\n      pop\n        /* \"#utility.yul\":1665:2042   */\n      swap3\n      swap2\n      pop\n      pop\n      jump\t// out\n        /* \"#utility.yul\":2048:2166   */\n    tag_102:\n        /* \"#utility.yul\":2135:2159   */\n      tag_175\n        /* \"#utility.yul\":2153:2158   */\n      dup2\n        /* \"#utility.yul\":2135:2159   */\n      tag_94\n      jump\t// in\n    tag_175:\n        /* \"#utility.yul\":2130:2133   */\n      dup3\n        /* \"#utility.yul\":2123:2160   */\n      mstore\n        /* \"#utility.yul\":2048:2166   */\n      pop\n      pop\n      jump\t// out\n        /* \"#utility.yul\":2172:2262   */\n    tag_103:\n        /* \"#utility.yul\":2206:2213   */\n      0x00\n        /* \"#utility.yul\":2249:2254   */\n      dup2\n        /* \"#utility.yul\":2242:2255   */\n      iszero\n        /* \"#utility.yul\":2235:2256   */\n      iszero\n        /* \"#utility.yul\":2224:2256   */\n      swap1\n      pop\n        /* \"#utility.yul\":2172:2262   */\n      swap2\n      swap1\n      pop\n      jump\t// out\n        /* \"#utility.yul\":2268:2377   */\n    tag_104:\n        /* \"#utility.yul\":2349:2370   */\n      tag_178\n        /* \"#utility.yul\":2364:2369   */\n      dup2\n        /* \"#utility.yul\":2349:2370   */\n      tag_103\n      jump\t// in\n    tag_178:\n        /* \"#utility.yul\":2344:2347   */\n      dup3\n        /* \"#utility.yul\":2337:2371   */\n      mstore\n        /* \"#utility.yul\":2268:2377   */\n      pop\n      pop\n      jump\t// out\n        /* \"#utility.yul\":2383:2509   */\n    tag_105:\n        /* \"#utility.yul\":2420:2427   */\n      0x00\n        /* \"#utility.yul\":2460:2502   */\n      0xffffffffffffffffffffffffffffffffffffffff\n        /* \"#utility.yul\":2453:2458   */\n      dup3\n        /* \"#utility.yul\":2449:2503   */\n      and\n        /* \"#utility.yul\":2438:2503   */\n      swap1\n      pop\n        /* \"#utility.yul\":2383:2509   */\n      swap2\n      swap1\n      pop\n      jump\t// out\n        /* \"#utility.yul\":2515:2611   */\n    tag_106:\n        /* \"#utility.yul\":2552:2559   */\n      0x00\n        /* \"#utility.yul\":2581:2605   */\n      tag_181\n        /* \"#utility.yul\":2599:2604   */\n      dup3\n        /* \"#utility.yul\":2581:2605   */\n      tag_105\n      jump\t// in\n    tag_181:\n        /* \"#utility.yul\":2570:2605   */\n      swap1\n      pop\n        /* \"#utility.yul\":2515:2611   */\n      swap2\n      swap1\n      pop\n      jump\t// out\n        /* \"#utility.yul\":2617:2735   */\n    tag_107:\n        /* \"#utility.yul\":2704:2728   */\n      tag_183\n        /* \"#utility.yul\":2722:2727   */\n      dup2\n        /* \"#utility.yul\":2704:2728   */\n      tag_106\n      jump\t// in\n    tag_183:\n        /* \"#utility.yul\":2699:2702   */\n      dup3\n        /* \"#utility.yul\":2692:2729   */\n      mstore\n        /* \"#utility.yul\":2617:2735   */\n      pop\n      pop\n      jump\t// out\n        /* \"#utility.yul\":2741:3595   */\n    tag_16:\n        /* \"#utility.yul\":2988:2992   */\n      0x00\n        /* \"#utility.yul\":3026:3029   */\n      0xc0\n        /* \"#utility.yul\":3015:3024   */\n      dup3\n        /* \"#utility.yul\":3011:3030   */\n      add\n        /* \"#utility.yul\":3003:3030   */\n      swap1\n      pop\n        /* \"#utility.yul\":3076:3085   */\n      dup2\n        /* \"#utility.yul\":3070:3074   */\n      dup2\n        /* \"#utility.yul\":3066:3086   */\n      sub\n        /* \"#utility.yul\":3062:3063   */\n      0x00\n        /* \"#utility.yul\":3051:3060   */\n      dup4\n        /* \"#utility.yul\":3047:3064   */\n      add\n        /* \"#utility.yul\":3040:3087   */\n      mstore\n        /* \"#utility.yul\":3104:3182   */\n      tag_185\n        /* \"#utility.yul\":3177:3181   */\n      dup2\n        /* \"#utility.yul\":3168:3174   */\n      dup10\n        /* \"#utility.yul\":3104:3182   */\n      tag_101\n      jump\t// in\n    tag_185:\n        /* \"#utility.yul\":3096:3182   */\n      swap1\n      pop\n        /* \"#utility.yul\":3192:3264   */\n      tag_186\n        /* \"#utility.yul\":3260:3262   */\n      0x20\n        /* \"#utility.yul\":3249:3258   */\n      dup4\n        /* \"#utility.yul\":3245:3263   */\n      add\n        /* \"#utility.yul\":3236:3242   */\n      dup9\n        /* \"#utility.yul\":3192:3264   */\n      tag_102\n      jump\t// in\n    tag_186:\n        /* \"#utility.yul\":3274:3346   */\n      tag_187\n        /* \"#utility.yul\":3342:3344   */\n      0x40\n        /* \"#utility.yul\":3331:3340   */\n      dup4\n        /* \"#utility.yul\":3327:3345   */\n      add\n        /* \"#utility.yul\":3318:3324   */\n      dup8\n        /* \"#utility.yul\":3274:3346   */\n      tag_102\n      jump\t// in\n    tag_187:\n        /* \"#utility.yul\":3356:3428   */\n      tag_188\n        /* \"#utility.yul\":3424:3426   */\n      0x60\n        /* \"#utility.yul\":3413:3422   */\n      dup4\n        /* \"#utility.yul\":3409:3427   */\n      add\n        /* \"#utility.yul\":3400:3406   */\n      dup7\n        /* \"#utility.yul\":3356:3428   */\n      tag_102\n      jump\t// in\n    tag_188:\n        /* \"#utility.yul\":3438:3505   */\n      tag_189\n        /* \"#utility.yul\":3500:3503   */\n      0x80\n        /* \"#utility.yul\":3489:3498   */\n      dup4\n        /* \"#utility.yul\":3485:3504   */\n      add\n        /* \"#utility.yul\":3476:3482   */\n      dup6\n        /* \"#utility.yul\":3438:3505   */\n      tag_104\n      jump\t// in\n    tag_189:\n        /* \"#utility.yul\":3515:3588   */\n      tag_190\n        /* \"#utility.yul\":3583:3586   */\n      0xa0\n        /* \"#utility.yul\":3572:3581   */\n      dup4\n        /* \"#utility.yul\":3568:3587   */\n      add\n        /* \"#utility.yul\":3559:3565   */\n      dup5\n        /* \"#utility.yul\":3515:3588   */\n      tag_107\n      jump\t// in\n    tag_190:\n        /* \"#utility.yul\":2741:3595   */\n      swap8\n      swap7\n      pop\n      pop\n      pop\n      pop\n      pop\n      pop\n      pop\n      jump\t// out\n        /* \"#utility.yul\":3601:3723   */\n    tag_108:\n        /* \"#utility.yul\":3674:3698   */\n      tag_192\n        /* \"#utility.yul\":3692:3697   */\n      dup2\n        /* \"#utility.yul\":3674:3698   */\n      tag_106\n      jump\t// in\n    tag_192:\n        /* \"#utility.yul\":3667:3672   */\n      dup2\n        /* \"#utility.yul\":3664:3699   */\n      eq\n        /* \"#utility.yul\":3654:3717   */\n      tag_193\n      jumpi\n        /* \"#utility.yul\":3713:3714   */\n      0x00\n        /* \"#utility.yul\":3710:3711   */\n      dup1\n        /* \"#utility.yul\":3703:3715   */\n      revert\n        /* \"#utility.yul\":3654:3717   */\n    tag_193:\n        /* \"#utility.yul\":3601:3723   */\n      pop\n      jump\t// out\n        /* \"#utility.yul\":3729:3868   */\n    tag_109:\n        /* \"#utility.yul\":3775:3780   */\n      0x00\n        /* \"#utility.yul\":3813:3819   */\n      dup2\n        /* \"#utility.yul\":3800:3820   */\n      calldataload\n        /* \"#utility.yul\":3791:3820   */\n      swap1\n      pop\n        /* \"#utility.yul\":3829:3862   */\n      tag_195\n        /* \"#utility.yul\":3856:3861   */\n      dup2\n        /* \"#utility.yul\":3829:3862   */\n      tag_108\n      jump\t// in\n    tag_195:\n        /* \"#utility.yul\":3729:3868   */\n      swap3\n      swap2\n      pop\n      pop\n      jump\t// out\n        /* \"#utility.yul\":3874:4203   */\n    tag_19:\n        /* \"#utility.yul\":3933:3939   */\n      0x00\n        /* \"#utility.yul\":3982:3984   */\n      0x20\n        /* \"#utility.yul\":3970:3979   */\n      dup3\n        /* \"#utility.yul\":3961:3968   */\n      dup5\n        /* \"#utility.yul\":3957:3980   */\n      sub\n        /* \"#utility.yul\":3953:3985   */\n      slt\n        /* \"#utility.yul\":3950:4069   */\n      iszero\n      tag_197\n      jumpi\n        /* \"#utility.yul\":3988:4067   */\n      tag_198\n      tag_92\n      jump\t// in\n    tag_198:\n        /* \"#utility.yul\":3950:4069   */\n    tag_197:\n        /* \"#utility.yul\":4108:4109   */\n      0x00\n        /* \"#utility.yul\":4133:4186   */\n      tag_199\n        /* \"#utility.yul\":4178:4185   */\n      dup5\n        /* \"#utility.yul\":4169:4175   */\n      dup3\n        /* \"#utility.yul\":4158:4167   */\n      dup6\n        /* \"#utility.yul\":4154:4176   */\n      add\n        /* \"#utility.yul\":4133:4186   */\n      tag_109\n      jump\t// in\n    tag_199:\n        /* \"#utility.yul\":4123:4186   */\n      swap2\n      pop\n        /* \"#utility.yul\":4079:4196   */\n      pop\n        /* \"#utility.yul\":3874:4203   */\n      swap3\n      swap2\n      pop\n      pop\n      jump\t// out\n        /* \"#utility.yul\":4209:4419   */\n    tag_22:\n        /* \"#utility.yul\":4296:4300   */\n      0x00\n        /* \"#utility.yul\":4334:4336   */\n      0x20\n        /* \"#utility.yul\":4323:4332   */\n      dup3\n        /* \"#utility.yul\":4319:4337   */\n      add\n        /* \"#utility.yul\":4311:4337   */\n      swap1\n      pop\n        /* \"#utility.yul\":4347:4412   */\n      tag_201\n        /* \"#utility.yul\":4409:4410   */\n      0x00\n        /* \"#utility.yul\":4398:4407   */\n      dup4\n        /* \"#utility.yul\":4394:4411   */\n      add\n        /* \"#utility.yul\":4385:4391   */\n      dup5\n        /* \"#utility.yul\":4347:4412   */\n      tag_104\n      jump\t// in\n    tag_201:\n        /* \"#utility.yul\":4209:4419   */\n      swap3\n      swap2\n      pop\n      pop\n      jump\t// out\n        /* \"#utility.yul\":4425:4542   */\n    tag_110:\n        /* \"#utility.yul\":4534:4535   */\n      0x00\n        /* \"#utility.yul\":4531:4532   */\n      dup1\n        /* \"#utility.yul\":4524:4536   */\n      revert\n        /* \"#utility.yul\":4548:4665   */\n    tag_111:\n        /* \"#utility.yul\":4657:4658   */\n      0x00\n        /* \"#utility.yul\":4654:4655   */\n      dup1\n        /* \"#utility.yul\":4647:4659   */\n      revert\n        /* \"#utility.yul\":4671:4851   */\n    tag_112:\n        /* \"#utility.yul\":4719:4796   */\n      0x4e487b7100000000000000000000000000000000000000000000000000000000\n        /* \"#utility.yul\":4716:4717   */\n      0x00\n        /* \"#utility.yul\":4709:4797   */\n      mstore\n        /* \"#utility.yul\":4816:4820   */\n      0x41\n        /* \"#utility.yul\":4813:4814   */\n      0x04\n        /* \"#utility.yul\":4806:4821   */\n      mstore\n        /* \"#utility.yul\":4840:4844   */\n      0x24\n        /* \"#utility.yul\":4837:4838   */\n      0x00\n        /* \"#utility.yul\":4830:4845   */\n      revert\n        /* \"#utility.yul\":4857:5138   */\n    tag_113:\n        /* \"#utility.yul\":4940:4967   */\n      tag_206\n        /* \"#utility.yul\":4962:4966   */\n      dup3\n        /* \"#utility.yul\":4940:4967   */\n      tag_100\n      jump\t// in\n    tag_206:\n        /* \"#utility.yul\":4932:4938   */\n      dup2\n        /* \"#utility.yul\":4928:4968   */\n      add\n        /* \"#utility.yul\":5070:5076   */\n      dup2\n        /* \"#utility.yul\":5058:5068   */\n      dup2\n        /* \"#utility.yul\":5055:5077   */\n      lt\n        /* \"#utility.yul\":5034:5052   */\n      0xffffffffffffffff\n        /* \"#utility.yul\":5022:5032   */\n      dup3\n        /* \"#utility.yul\":5019:5053   */\n      gt\n        /* \"#utility.yul\":5016:5078   */\n      or\n        /* \"#utility.yul\":5013:5101   */\n      iszero\n      tag_207\n      jumpi\n        /* \"#utility.yul\":5081:5099   */\n      tag_208\n      tag_112\n      jump\t// in\n    tag_208:\n        /* \"#utility.yul\":5013:5101   */\n    tag_207:\n        /* \"#utility.yul\":5121:5131   */\n      dup1\n        /* \"#utility.yul\":5117:5119   */\n      0x40\n        /* \"#utility.yul\":5110:5132   */\n      mstore\n        /* \"#utility.yul\":4900:5138   */\n      pop\n        /* \"#utility.yul\":4857:5138   */\n      pop\n      pop\n      jump\t// out\n        /* \"#utility.yul\":5144:5273   */\n    tag_114:\n        /* \"#utility.yul\":5178:5184   */\n      0x00\n        /* \"#utility.yul\":5205:5225   */\n      tag_210\n      tag_91\n      jump\t// in\n    tag_210:\n        /* \"#utility.yul\":5195:5225   */\n      swap1\n      pop\n        /* \"#utility.yul\":5234:5267   */\n      tag_211\n        /* \"#utility.yul\":5262:5266   */\n      dup3\n        /* \"#utility.yul\":5254:5260   */\n      dup3\n        /* \"#utility.yul\":5234:5267   */\n      tag_113\n      jump\t// in\n    tag_211:\n        /* \"#utility.yul\":5144:5273   */\n      swap2\n      swap1\n      pop\n      jump\t// out\n        /* \"#utility.yul\":5279:5587   */\n    tag_115:\n        /* \"#utility.yul\":5341:5345   */\n      0x00\n        /* \"#utility.yul\":5431:5449   */\n      0xffffffffffffffff\n        /* \"#utility.yul\":5423:5429   */\n      dup3\n        /* \"#utility.yul\":5420:5450   */\n      gt\n        /* \"#utility.yul\":5417:5473   */\n      iszero\n      tag_213\n      jumpi\n        /* \"#utility.yul\":5453:5471   */\n      tag_214\n      tag_112\n      jump\t// in\n    tag_214:\n        /* \"#utility.yul\":5417:5473   */\n    tag_213:\n        /* \"#utility.yul\":5491:5520   */\n      tag_215\n        /* \"#utility.yul\":5513:5519   */\n      dup3\n        /* \"#utility.yul\":5491:5520   */\n      tag_100\n      jump\t// in\n    tag_215:\n        /* \"#utility.yul\":5483:5520   */\n      swap1\n      pop\n        /* \"#utility.yul\":5575:5579   */\n      0x20\n        /* \"#utility.yul\":5569:5573   */\n      dup2\n        /* \"#utility.yul\":5565:5580   */\n      add\n        /* \"#utility.yul\":5557:5580   */\n      swap1\n      pop\n        /* \"#utility.yul\":5279:5587   */\n      swap2\n      swap1\n      pop\n      jump\t// out\n        /* \"#utility.yul\":5593:5739   */\n    tag_116:\n        /* \"#utility.yul\":5690:5696   */\n      dup3\n        /* \"#utility.yul\":5685:5688   */\n      dup2\n        /* \"#utility.yul\":5680:5683   */\n      dup4\n        /* \"#utility.yul\":5667:5697   */\n      calldatacopy\n        /* \"#utility.yul\":5731:5732   */\n      0x00\n        /* \"#utility.yul\":5722:5728   */\n      dup4\n        /* \"#utility.yul\":5717:5720   */\n      dup4\n        /* \"#utility.yul\":5713:5729   */\n      add\n        /* \"#utility.yul\":5706:5733   */\n      mstore\n        /* \"#utility.yul\":5593:5739   */\n      pop\n      pop\n      pop\n      jump\t// out\n        /* \"#utility.yul\":5745:6170   */\n    tag_117:\n        /* \"#utility.yul\":5823:5828   */\n      0x00\n        /* \"#utility.yul\":5848:5914   */\n      tag_218\n        /* \"#utility.yul\":5864:5913   */\n      tag_219\n        /* \"#utility.yul\":5906:5912   */\n      dup5\n        /* \"#utility.yul\":5864:5913   */\n      tag_115\n      jump\t// in\n    tag_219:\n        /* \"#utility.yul\":5848:5914   */\n      tag_114\n      jump\t// in\n    tag_218:\n        /* \"#utility.yul\":5839:5914   */\n      swap1\n      pop\n        /* \"#utility.yul\":5937:5943   */\n      dup3\n        /* \"#utility.yul\":5930:5935   */\n      dup2\n        /* \"#utility.yul\":5923:5944   */\n      mstore\n        /* \"#utility.yul\":5975:5979   */\n      0x20\n        /* \"#utility.yul\":5968:5973   */\n      dup2\n        /* \"#utility.yul\":5964:5980   */\n      add\n        /* \"#utility.yul\":6013:6016   */\n      dup5\n        /* \"#utility.yul\":6004:6010   */\n      dup5\n        /* \"#utility.yul\":5999:6002   */\n      dup5\n        /* \"#utility.yul\":5995:6011   */\n      add\n        /* \"#utility.yul\":5992:6017   */\n      gt\n        /* \"#utility.yul\":5989:6101   */\n      iszero\n      tag_220\n      jumpi\n        /* \"#utility.yul\":6020:6099   */\n      tag_221\n      tag_111\n      jump\t// in\n    tag_221:\n        /* \"#utility.yul\":5989:6101   */\n    tag_220:\n        /* \"#utility.yul\":6110:6164   */\n      tag_222\n        /* \"#utility.yul\":6157:6163   */\n      dup5\n        /* \"#utility.yul\":6152:6155   */\n      dup3\n        /* \"#utility.yul\":6147:6150   */\n      dup6\n        /* \"#utility.yul\":6110:6164   */\n      tag_116\n      jump\t// in\n    tag_222:\n        /* \"#utility.yul\":5829:6170   */\n      pop\n        /* \"#utility.yul\":5745:6170   */\n      swap4\n      swap3\n      pop\n      pop\n      pop\n      jump\t// out\n        /* \"#utility.yul\":6190:6530   */\n    tag_118:\n        /* \"#utility.yul\":6246:6251   */\n      0x00\n        /* \"#utility.yul\":6295:6298   */\n      dup3\n        /* \"#utility.yul\":6288:6292   */\n      0x1f\n        /* \"#utility.yul\":6280:6286   */\n      dup4\n        /* \"#utility.yul\":6276:6293   */\n      add\n        /* \"#utility.yul\":6272:6299   */\n      slt\n        /* \"#utility.yul\":6262:6384   */\n      tag_224\n      jumpi\n        /* \"#utility.yul\":6303:6382   */\n      tag_225\n      tag_110\n      jump\t// in\n    tag_225:\n        /* \"#utility.yul\":6262:6384   */\n    tag_224:\n        /* \"#utility.yul\":6420:6426   */\n      dup2\n        /* \"#utility.yul\":6407:6427   */\n      calldataload\n        /* \"#utility.yul\":6445:6524   */\n      tag_226\n        /* \"#utility.yul\":6520:6523   */\n      dup5\n        /* \"#utility.yul\":6512:6518   */\n      dup3\n        /* \"#utility.yul\":6505:6509   */\n      0x20\n        /* \"#utility.yul\":6497:6503   */\n      dup7\n        /* \"#utility.yul\":6493:6510   */\n      add\n        /* \"#utility.yul\":6445:6524   */\n      tag_117\n      jump\t// in\n    tag_226:\n        /* \"#utility.yul\":6436:6524   */\n      swap2\n      pop\n        /* \"#utility.yul\":6252:6530   */\n      pop\n        /* \"#utility.yul\":6190:6530   */\n      swap3\n      swap2\n      pop\n      pop\n      jump\t// out\n        /* \"#utility.yul\":6536:7045   */\n    tag_30:\n        /* \"#utility.yul\":6605:6611   */\n      0x00\n        /* \"#utility.yul\":6654:6656   */\n      0x20\n        /* \"#utility.yul\":6642:6651   */\n      dup3\n        /* \"#utility.yul\":6633:6640   */\n      dup5\n        /* \"#utility.yul\":6629:6652   */\n      sub\n        /* \"#utility.yul\":6625:6657   */\n      slt\n        /* \"#utility.yul\":6622:6741   */\n      iszero\n      tag_228\n      jumpi\n        /* \"#utility.yul\":6660:6739   */\n      tag_229\n      tag_92\n      jump\t// in\n    tag_229:\n        /* \"#utility.yul\":6622:6741   */\n    tag_228:\n        /* \"#utility.yul\":6808:6809   */\n      0x00\n        /* \"#utility.yul\":6797:6806   */\n      dup3\n        /* \"#utility.yul\":6793:6810   */\n      add\n        /* \"#utility.yul\":6780:6811   */\n      calldataload\n        /* \"#utility.yul\":6838:6856   */\n      0xffffffffffffffff\n        /* \"#utility.yul\":6830:6836   */\n      dup2\n        /* \"#utility.yul\":6827:6857   */\n      gt\n        /* \"#utility.yul\":6824:6941   */\n      iszero\n      tag_230\n      jumpi\n        /* \"#utility.yul\":6860:6939   */\n      tag_231\n      tag_93\n      jump\t// in\n    tag_231:\n        /* \"#utility.yul\":6824:6941   */\n    tag_230:\n        /* \"#utility.yul\":6965:7028   */\n      tag_232\n        /* \"#utility.yul\":7020:7027   */\n      dup5\n        /* \"#utility.yul\":7011:7017   */\n      dup3\n        /* \"#utility.yul\":7000:7009   */\n      dup6\n        /* \"#utility.yul\":6996:7018   */\n      add\n        /* \"#utility.yul\":6965:7028   */\n      tag_118\n      jump\t// in\n    tag_232:\n        /* \"#utility.yul\":6955:7028   */\n      swap2\n      pop\n        /* \"#utility.yul\":6751:7038   */\n      pop\n        /* \"#utility.yul\":6536:7045   */\n      swap3\n      swap2\n      pop\n      pop\n      jump\t// out\n        /* \"#utility.yul\":7051:7167   */\n    tag_119:\n        /* \"#utility.yul\":7121:7142   */\n      tag_234\n        /* \"#utility.yul\":7136:7141   */\n      dup2\n        /* \"#utility.yul\":7121:7142   */\n      tag_103\n      jump\t// in\n    tag_234:\n        /* \"#utility.yul\":7114:7119   */\n      dup2\n        /* \"#utility.yul\":7111:7143   */\n      eq\n        /* \"#utility.yul\":7101:7161   */\n      tag_235\n      jumpi\n        /* \"#utility.yul\":7157:7158   */\n      0x00\n        /* \"#utility.yul\":7154:7155   */\n      dup1\n        /* \"#utility.yul\":7147:7159   */\n      revert\n        /* \"#utility.yul\":7101:7161   */\n    tag_235:\n        /* \"#utility.yul\":7051:7167   */\n      pop\n      jump\t// out\n        /* \"#utility.yul\":7173:7306   */\n    tag_120:\n        /* \"#utility.yul\":7216:7221   */\n      0x00\n        /* \"#utility.yul\":7254:7260   */\n      dup2\n        /* \"#utility.yul\":7241:7261   */\n      calldataload\n        /* \"#utility.yul\":7232:7261   */\n      swap1\n      pop\n        /* \"#utility.yul\":7270:7300   */\n      tag_237\n        /* \"#utility.yul\":7294:7299   */\n      dup2\n        /* \"#utility.yul\":7270:7300   */\n      tag_119\n      jump\t// in\n    tag_237:\n        /* \"#utility.yul\":7173:7306   */\n      swap3\n      swap2\n      pop\n      pop\n      jump\t// out\n        /* \"#utility.yul\":7312:7780   */\n    tag_34:\n        /* \"#utility.yul\":7377:7383   */\n      0x00\n        /* \"#utility.yul\":7385:7391   */\n      dup1\n        /* \"#utility.yul\":7434:7436   */\n      0x40\n        /* \"#utility.yul\":7422:7431   */\n      dup4\n        /* \"#utility.yul\":7413:7420   */\n      dup6\n        /* \"#utility.yul\":7409:7432   */\n      sub\n        /* \"#utility.yul\":7405:7437   */\n      slt\n        /* \"#utility.yul\":7402:7521   */\n      iszero\n      tag_239\n      jumpi\n        /* \"#utility.yul\":7440:7519   */\n      tag_240\n      tag_92\n      jump\t// in\n    tag_240:\n        /* \"#utility.yul\":7402:7521   */\n    tag_239:\n        /* \"#utility.yul\":7560:7561   */\n      0x00\n        /* \"#utility.yul\":7585:7638   */\n      tag_241\n        /* \"#utility.yul\":7630:7637   */\n      dup6\n        /* \"#utility.yul\":7621:7627   */\n      dup3\n        /* \"#utility.yul\":7610:7619   */\n      dup7\n        /* \"#utility.yul\":7606:7628   */\n      add\n        /* \"#utility.yul\":7585:7638   */\n      tag_96\n      jump\t// in\n    tag_241:\n        /* \"#utility.yul\":7575:7638   */\n      swap3\n      pop\n        /* \"#utility.yul\":7531:7648   */\n      pop\n        /* \"#utility.yul\":7687:7689   */\n      0x20\n        /* \"#utility.yul\":7713:7763   */\n      tag_242\n        /* \"#utility.yul\":7755:7762   */\n      dup6\n        /* \"#utility.yul\":7746:7752   */\n      dup3\n        /* \"#utility.yul\":7735:7744   */\n      dup7\n        /* \"#utility.yul\":7731:7753   */\n      add\n        /* \"#utility.yul\":7713:7763   */\n      tag_120\n      jump\t// in\n    tag_242:\n        /* \"#utility.yul\":7703:7763   */\n      swap2\n      pop\n        /* \"#utility.yul\":7658:7773   */\n      pop\n        /* \"#utility.yul\":7312:7780   */\n      swap3\n      pop\n      swap3\n      swap1\n      pop\n      jump\t// out\n        /* \"#utility.yul\":7786:8008   */\n    tag_39:\n        /* \"#utility.yul\":7879:7883   */\n      0x00\n        /* \"#utility.yul\":7917:7919   */\n      0x20\n        /* \"#utility.yul\":7906:7915   */\n      dup3\n        /* \"#utility.yul\":7902:7920   */\n      add\n        /* \"#utility.yul\":7894:7920   */\n      swap1\n      pop\n        /* \"#utility.yul\":7930:8001   */\n      tag_244\n        /* \"#utility.yul\":7998:7999   */\n      0x00\n        /* \"#utility.yul\":7987:7996   */\n      dup4\n        /* \"#utility.yul\":7983:8000   */\n      add\n        /* \"#utility.yul\":7974:7980   */\n      dup5\n        /* \"#utility.yul\":7930:8001   */\n      tag_102\n      jump\t// in\n    tag_244:\n        /* \"#utility.yul\":7786:8008   */\n      swap3\n      swap2\n      pop\n      pop\n      jump\t// out\n        /* \"#utility.yul\":8014:8194   */\n    tag_121:\n        /* \"#utility.yul\":8062:8139   */\n      0x4e487b7100000000000000000000000000000000000000000000000000000000\n        /* \"#utility.yul\":8059:8060   */\n      0x00\n        /* \"#utility.yul\":8052:8140   */\n      mstore\n        /* \"#utility.yul\":8159:8163   */\n      0x22\n        /* \"#utility.yul\":8156:8157   */\n      0x04\n        /* \"#utility.yul\":8149:8164   */\n      mstore\n        /* \"#utility.yul\":8183:8187   */\n      0x24\n        /* \"#utility.yul\":8180:8181   */\n      0x00\n        /* \"#utility.yul\":8173:8188   */\n      revert\n        /* \"#utility.yul\":8200:8520   */\n    tag_41:\n        /* \"#utility.yul\":8244:8250   */\n      0x00\n        /* \"#utility.yul\":8281:8282   */\n      0x02\n        /* \"#utility.yul\":8275:8279   */\n      dup3\n        /* \"#utility.yul\":8271:8283   */\n      div\n        /* \"#utility.yul\":8261:8283   */\n      swap1\n      pop\n        /* \"#utility.yul\":8328:8329   */\n      0x01\n        /* \"#utility.yul\":8322:8326   */\n      dup3\n        /* \"#utility.yul\":8318:8330   */\n      and\n        /* \"#utility.yul\":8349:8367   */\n      dup1\n        /* \"#utility.yul\":8339:8420   */\n      tag_247\n      jumpi\n        /* \"#utility.yul\":8405:8409   */\n      0x7f\n        /* \"#utility.yul\":8397:8403   */\n      dup3\n        /* \"#utility.yul\":8393:8410   */\n      and\n        /* \"#utility.yul\":8383:8410   */\n      swap2\n      pop\n        /* \"#utility.yul\":8339:8420   */\n    tag_247:\n        /* \"#utility.yul\":8467:8469   */\n      0x20\n        /* \"#utility.yul\":8459:8465   */\n      dup3\n        /* \"#utility.yul\":8456:8470   */\n      lt\n        /* \"#utility.yul\":8436:8454   */\n      dup2\n        /* \"#utility.yul\":8433:8471   */\n      sub\n        /* \"#utility.yul\":8430:8514   */\n      tag_248\n      jumpi\n        /* \"#utility.yul\":8486:8504   */\n      tag_249\n      tag_121\n      jump\t// in\n    tag_249:\n        /* \"#utility.yul\":8430:8514   */\n    tag_248:\n        /* \"#utility.yul\":8251:8520   */\n      pop\n        /* \"#utility.yul\":8200:8520   */\n      swap2\n      swap1\n      pop\n      jump\t// out\n        /* \"#utility.yul\":8526:8753   */\n    tag_122:\n        /* \"#utility.yul\":8666:8700   */\n      0x4f6e6c792044414f206d656d626572732063616e20706572666f726d20746869\n        /* \"#utility.yul\":8662:8663   */\n      0x00\n        /* \"#utility.yul\":8654:8660   */\n      dup3\n        /* \"#utility.yul\":8650:8664   */\n      add\n        /* \"#utility.yul\":8643:8701   */\n      mstore\n        /* \"#utility.yul\":8735:8745   */\n      0x7320616374696f6e000000000000000000000000000000000000000000000000\n        /* \"#utility.yul\":8730:8732   */\n      0x20\n        /* \"#utility.yul\":8722:8728   */\n      dup3\n        /* \"#utility.yul\":8718:8733   */\n      add\n        /* \"#utility.yul\":8711:8746   */\n      mstore\n        /* \"#utility.yul\":8526:8753   */\n      pop\n      jump\t// out\n        /* \"#utility.yul\":8759:9125   */\n    tag_123:\n        /* \"#utility.yul\":8901:8904   */\n      0x00\n        /* \"#utility.yul\":8922:8989   */\n      tag_252\n        /* \"#utility.yul\":8986:8988   */\n      0x28\n        /* \"#utility.yul\":8981:8984   */\n      dup4\n        /* \"#utility.yul\":8922:8989   */\n      tag_98\n      jump\t// in\n    tag_252:\n        /* \"#utility.yul\":8915:8989   */\n      swap2\n      pop\n        /* \"#utility.yul\":8998:9091   */\n      tag_253\n        /* \"#utility.yul\":9087:9090   */\n      dup3\n        /* \"#utility.yul\":8998:9091   */\n      tag_122\n      jump\t// in\n    tag_253:\n        /* \"#utility.yul\":9116:9118   */\n      0x40\n        /* \"#utility.yul\":9111:9114   */\n      dup3\n        /* \"#utility.yul\":9107:9119   */\n      add\n        /* \"#utility.yul\":9100:9119   */\n      swap1\n      pop\n        /* \"#utility.yul\":8759:9125   */\n      swap2\n      swap1\n      pop\n      jump\t// out\n        /* \"#utility.yul\":9131:9550   */\n    tag_49:\n        /* \"#utility.yul\":9297:9301   */\n      0x00\n        /* \"#utility.yul\":9335:9337   */\n      0x20\n        /* \"#utility.yul\":9324:9333   */\n      dup3\n        /* \"#utility.yul\":9320:9338   */\n      add\n        /* \"#utility.yul\":9312:9338   */\n      swap1\n      pop\n        /* \"#utility.yul\":9384:9393   */\n      dup2\n        /* \"#utility.yul\":9378:9382   */\n      dup2\n        /* \"#utility.yul\":9374:9394   */\n      sub\n        /* \"#utility.yul\":9370:9371   */\n      0x00\n        /* \"#utility.yul\":9359:9368   */\n      dup4\n        /* \"#utility.yul\":9355:9372   */\n      add\n        /* \"#utility.yul\":9348:9395   */\n      mstore\n        /* \"#utility.yul\":9412:9543   */\n      tag_255\n        /* \"#utility.yul\":9538:9542   */\n      dup2\n        /* \"#utility.yul\":9412:9543   */\n      tag_123\n      jump\t// in\n    tag_255:\n        /* \"#utility.yul\":9404:9543   */\n      swap1\n      pop\n        /* \"#utility.yul\":9131:9550   */\n      swap2\n      swap1\n      pop\n      jump\t// out\n        /* \"#utility.yul\":9556:9735   */\n    tag_124:\n        /* \"#utility.yul\":9696:9727   */\n      0x566f74696e6720706572696f64206973207374696c6c20616374697665000000\n        /* \"#utility.yul\":9692:9693   */\n      0x00\n        /* \"#utility.yul\":9684:9690   */\n      dup3\n        /* \"#utility.yul\":9680:9694   */\n      add\n        /* \"#utility.yul\":9673:9728   */\n      mstore\n        /* \"#utility.yul\":9556:9735   */\n      pop\n      jump\t// out\n        /* \"#utility.yul\":9741:10107   */\n    tag_125:\n        /* \"#utility.yul\":9883:9886   */\n      0x00\n        /* \"#utility.yul\":9904:9971   */\n      tag_258\n        /* \"#utility.yul\":9968:9970   */\n      0x1d\n        /* \"#utility.yul\":9963:9966   */\n      dup4\n        /* \"#utility.yul\":9904:9971   */\n      tag_98\n      jump\t// in\n    tag_258:\n        /* \"#utility.yul\":9897:9971   */\n      swap2\n      pop\n        /* \"#utility.yul\":9980:10073   */\n      tag_259\n        /* \"#utility.yul\":10069:10072   */\n      dup3\n        /* \"#utility.yul\":9980:10073   */\n      tag_124\n      jump\t// in\n    tag_259:\n        /* \"#utility.yul\":10098:10100   */\n      0x20\n        /* \"#utility.yul\":10093:10096   */\n      dup3\n        /* \"#utility.yul\":10089:10101   */\n      add\n        /* \"#utility.yul\":10082:10101   */\n      swap1\n      pop\n        /* \"#utility.yul\":9741:10107   */\n      swap2\n      swap1\n      pop\n      jump\t// out\n        /* \"#utility.yul\":10113:10532   */\n    tag_53:\n        /* \"#utility.yul\":10279:10283   */\n      0x00\n        /* \"#utility.yul\":10317:10319   */\n      0x20\n        /* \"#utility.yul\":10306:10315   */\n      dup3\n        /* \"#utility.yul\":10302:10320   */\n      add\n        /* \"#utility.yul\":10294:10320   */\n      swap1\n      pop\n        /* \"#utility.yul\":10366:10375   */\n      dup2\n        /* \"#utility.yul\":10360:10364   */\n      dup2\n        /* \"#utility.yul\":10356:10376   */\n      sub\n        /* \"#utility.yul\":10352:10353   */\n      0x00\n        /* \"#utility.yul\":10341:10350   */\n      dup4\n        /* \"#utility.yul\":10337:10354   */\n      add\n        /* \"#utility.yul\":10330:10377   */\n      mstore\n        /* \"#utility.yul\":10394:10525   */\n      tag_261\n        /* \"#utility.yul\":10520:10524   */\n      dup2\n        /* \"#utility.yul\":10394:10525   */\n      tag_125\n      jump\t// in\n    tag_261:\n        /* \"#utility.yul\":10386:10525   */\n      swap1\n      pop\n        /* \"#utility.yul\":10113:10532   */\n      swap2\n      swap1\n      pop\n      jump\t// out\n        /* \"#utility.yul\":10538:10713   */\n    tag_126:\n        /* \"#utility.yul\":10678:10705   */\n      0x50726f706f73616c20616c726561647920657865637574656400000000000000\n        /* \"#utility.yul\":10674:10675   */\n      0x00\n        /* \"#utility.yul\":10666:10672   */\n      dup3\n        /* \"#utility.yul\":10662:10676   */\n      add\n        /* \"#utility.yul\":10655:10706   */\n      mstore\n        /* \"#utility.yul\":10538:10713   */\n      pop\n      jump\t// out\n        /* \"#utility.yul\":10719:11085   */\n    tag_127:\n        /* \"#utility.yul\":10861:10864   */\n      0x00\n        /* \"#utility.yul\":10882:10949   */\n      tag_264\n        /* \"#utility.yul\":10946:10948   */\n      0x19\n        /* \"#utility.yul\":10941:10944   */\n      dup4\n        /* \"#utility.yul\":10882:10949   */\n      tag_98\n      jump\t// in\n    tag_264:\n        /* \"#utility.yul\":10875:10949   */\n      swap2\n      pop\n        /* \"#utility.yul\":10958:11051   */\n      tag_265\n        /* \"#utility.yul\":11047:11050   */\n      dup3\n        /* \"#utility.yul\":10958:11051   */\n      tag_126\n      jump\t// in\n    tag_265:\n        /* \"#utility.yul\":11076:11078   */\n      0x20\n        /* \"#utility.yul\":11071:11074   */\n      dup3\n        /* \"#utility.yul\":11067:11079   */\n      add\n        /* \"#utility.yul\":11060:11079   */\n      swap1\n      pop\n        /* \"#utility.yul\":10719:11085   */\n      swap2\n      swap1\n      pop\n      jump\t// out\n        /* \"#utility.yul\":11091:11510   */\n    tag_56:\n        /* \"#utility.yul\":11257:11261   */\n      0x00\n        /* \"#utility.yul\":11295:11297   */\n      0x20\n        /* \"#utility.yul\":11284:11293   */\n      dup3\n        /* \"#utility.yul\":11280:11298   */\n      add\n        /* \"#utility.yul\":11272:11298   */\n      swap1\n      pop\n        /* \"#utility.yul\":11344:11353   */\n      dup2\n        /* \"#utility.yul\":11338:11342   */\n      dup2\n        /* \"#utility.yul\":11334:11354   */\n      sub\n        /* \"#utility.yul\":11330:11331   */\n      0x00\n        /* \"#utility.yul\":11319:11328   */\n      dup4\n        /* \"#utility.yul\":11315:11332   */\n      add\n        /* \"#utility.yul\":11308:11355   */\n      mstore\n        /* \"#utility.yul\":11372:11503   */\n      tag_267\n        /* \"#utility.yul\":11498:11502   */\n      dup2\n        /* \"#utility.yul\":11372:11503   */\n      tag_127\n      jump\t// in\n    tag_267:\n        /* \"#utility.yul\":11364:11503   */\n      swap1\n      pop\n        /* \"#utility.yul\":11091:11510   */\n      swap2\n      swap1\n      pop\n      jump\t// out\n        /* \"#utility.yul\":11516:11836   */\n    tag_59:\n        /* \"#utility.yul\":11631:11635   */\n      0x00\n        /* \"#utility.yul\":11669:11671   */\n      0x40\n        /* \"#utility.yul\":11658:11667   */\n      dup3\n        /* \"#utility.yul\":11654:11672   */\n      add\n        /* \"#utility.yul\":11646:11672   */\n      swap1\n      pop\n        /* \"#utility.yul\":11682:11753   */\n      tag_269\n        /* \"#utility.yul\":11750:11751   */\n      0x00\n        /* \"#utility.yul\":11739:11748   */\n      dup4\n        /* \"#utility.yul\":11735:11752   */\n      add\n        /* \"#utility.yul\":11726:11732   */\n      dup6\n        /* \"#utility.yul\":11682:11753   */\n      tag_102\n      jump\t// in\n    tag_269:\n        /* \"#utility.yul\":11763:11829   */\n      tag_270\n        /* \"#utility.yul\":11825:11827   */\n      0x20\n        /* \"#utility.yul\":11814:11823   */\n      dup4\n        /* \"#utility.yul\":11810:11828   */\n      add\n        /* \"#utility.yul\":11801:11807   */\n      dup5\n        /* \"#utility.yul\":11763:11829   */\n      tag_104\n      jump\t// in\n    tag_270:\n        /* \"#utility.yul\":11516:11836   */\n      swap4\n      swap3\n      pop\n      pop\n      pop\n      jump\t// out\n        /* \"#utility.yul\":11842:12008   */\n    tag_128:\n        /* \"#utility.yul\":11982:12000   */\n      0x416c72656164792061206d656d62657200000000000000000000000000000000\n        /* \"#utility.yul\":11978:11979   */\n      0x00\n        /* \"#utility.yul\":11970:11976   */\n      dup3\n        /* \"#utility.yul\":11966:11980   */\n      add\n        /* \"#utility.yul\":11959:12001   */\n      mstore\n        /* \"#utility.yul\":11842:12008   */\n      pop\n      jump\t// out\n        /* \"#utility.yul\":12014:12380   */\n    tag_129:\n        /* \"#utility.yul\":12156:12159   */\n      0x00\n        /* \"#utility.yul\":12177:12244   */\n      tag_273\n        /* \"#utility.yul\":12241:12243   */\n      0x10\n        /* \"#utility.yul\":12236:12239   */\n      dup4\n        /* \"#utility.yul\":12177:12244   */\n      tag_98\n      jump\t// in\n    tag_273:\n        /* \"#utility.yul\":12170:12244   */\n      swap2\n      pop\n        /* \"#utility.yul\":12253:12346   */\n      tag_274\n        /* \"#utility.yul\":12342:12345   */\n      dup3\n        /* \"#utility.yul\":12253:12346   */\n      tag_128\n      jump\t// in\n    tag_274:\n        /* \"#utility.yul\":12371:12373   */\n      0x20\n        /* \"#utility.yul\":12366:12369   */\n      dup3\n        /* \"#utility.yul\":12362:12374   */\n      add\n        /* \"#utility.yul\":12355:12374   */\n      swap1\n      pop\n        /* \"#utility.yul\":12014:12380   */\n      swap2\n      swap1\n      pop\n      jump\t// out\n        /* \"#utility.yul\":12386:12805   */\n    tag_63:\n        /* \"#utility.yul\":12552:12556   */\n      0x00\n        /* \"#utility.yul\":12590:12592   */\n      0x20\n        /* \"#utility.yul\":12579:12588   */\n      dup3\n        /* \"#utility.yul\":12575:12593   */\n      add\n        /* \"#utility.yul\":12567:12593   */\n      swap1\n      pop\n        /* \"#utility.yul\":12639:12648   */\n      dup2\n        /* \"#utility.yul\":12633:12637   */\n      dup2\n        /* \"#utility.yul\":12629:12649   */\n      sub\n        /* \"#utility.yul\":12625:12626   */\n      0x00\n        /* \"#utility.yul\":12614:12623   */\n      dup4\n        /* \"#utility.yul\":12610:12627   */\n      add\n        /* \"#utility.yul\":12603:12650   */\n      mstore\n        /* \"#utility.yul\":12667:12798   */\n      tag_276\n        /* \"#utility.yul\":12793:12797   */\n      dup2\n        /* \"#utility.yul\":12667:12798   */\n      tag_129\n      jump\t// in\n    tag_276:\n        /* \"#utility.yul\":12659:12798   */\n      swap1\n      pop\n        /* \"#utility.yul\":12386:12805   */\n      swap2\n      swap1\n      pop\n      jump\t// out\n        /* \"#utility.yul\":12811:13033   */\n    tag_65:\n        /* \"#utility.yul\":12904:12908   */\n      0x00\n        /* \"#utility.yul\":12942:12944   */\n      0x20\n        /* \"#utility.yul\":12931:12940   */\n      dup3\n        /* \"#utility.yul\":12927:12945   */\n      add\n        /* \"#utility.yul\":12919:12945   */\n      swap1\n      pop\n        /* \"#utility.yul\":12955:13026   */\n      tag_278\n        /* \"#utility.yul\":13023:13024   */\n      0x00\n        /* \"#utility.yul\":13012:13021   */\n      dup4\n        /* \"#utility.yul\":13008:13025   */\n      add\n        /* \"#utility.yul\":12999:13005   */\n      dup5\n        /* \"#utility.yul\":12955:13026   */\n      tag_107\n      jump\t// in\n    tag_278:\n        /* \"#utility.yul\":12811:13033   */\n      swap3\n      swap2\n      pop\n      pop\n      jump\t// out\n        /* \"#utility.yul\":13039:13219   */\n    tag_130:\n        /* \"#utility.yul\":13087:13164   */\n      0x4e487b7100000000000000000000000000000000000000000000000000000000\n        /* \"#utility.yul\":13084:13085   */\n      0x00\n        /* \"#utility.yul\":13077:13165   */\n      mstore\n        /* \"#utility.yul\":13184:13188   */\n      0x11\n        /* \"#utility.yul\":13181:13182   */\n      0x04\n        /* \"#utility.yul\":13174:13189   */\n      mstore\n        /* \"#utility.yul\":13208:13212   */\n      0x24\n        /* \"#utility.yul\":13205:13206   */\n      0x00\n        /* \"#utility.yul\":13198:13213   */\n      revert\n        /* \"#utility.yul\":13225:13416   */\n    tag_71:\n        /* \"#utility.yul\":13265:13268   */\n      0x00\n        /* \"#utility.yul\":13284:13304   */\n      tag_281\n        /* \"#utility.yul\":13302:13303   */\n      dup3\n        /* \"#utility.yul\":13284:13304   */\n      tag_94\n      jump\t// in\n    tag_281:\n        /* \"#utility.yul\":13279:13304   */\n      swap2\n      pop\n        /* \"#utility.yul\":13318:13338   */\n      tag_282\n        /* \"#utility.yul\":13336:13337   */\n      dup4\n        /* \"#utility.yul\":13318:13338   */\n      tag_94\n      jump\t// in\n    tag_282:\n        /* \"#utility.yul\":13313:13338   */\n      swap3\n      pop\n        /* \"#utility.yul\":13361:13362   */\n      dup3\n        /* \"#utility.yul\":13358:13359   */\n      dup3\n        /* \"#utility.yul\":13354:13363   */\n      add\n        /* \"#utility.yul\":13347:13363   */\n      swap1\n      pop\n        /* \"#utility.yul\":13382:13385   */\n      dup1\n        /* \"#utility.yul\":13379:13380   */\n      dup3\n        /* \"#utility.yul\":13376:13386   */\n      gt\n        /* \"#utility.yul\":13373:13409   */\n      iszero\n      tag_283\n      jumpi\n        /* \"#utility.yul\":13389:13407   */\n      tag_284\n      tag_130\n      jump\t// in\n    tag_284:\n        /* \"#utility.yul\":13373:13409   */\n    tag_283:\n        /* \"#utility.yul\":13225:13416   */\n      swap3\n      swap2\n      pop\n      pop\n      jump\t// out\n        /* \"#utility.yul\":13422:13563   */\n    tag_131:\n        /* \"#utility.yul\":13471:13475   */\n      0x00\n        /* \"#utility.yul\":13494:13497   */\n      dup2\n        /* \"#utility.yul\":13486:13497   */\n      swap1\n      pop\n        /* \"#utility.yul\":13517:13520   */\n      dup2\n        /* \"#utility.yul\":13514:13515   */\n      0x00\n        /* \"#utility.yul\":13507:13521   */\n      mstore\n        /* \"#utility.yul\":13551:13555   */\n      0x20\n        /* \"#utility.yul\":13548:13549   */\n      0x00\n        /* \"#utility.yul\":13538:13556   */\n      keccak256\n        /* \"#utility.yul\":13530:13556   */\n      swap1\n      pop\n        /* \"#utility.yul\":13422:13563   */\n      swap2\n      swap1\n      pop\n      jump\t// out\n        /* \"#utility.yul\":13569:13662   */\n    tag_132:\n        /* \"#utility.yul\":13606:13612   */\n      0x00\n        /* \"#utility.yul\":13653:13655   */\n      0x20\n        /* \"#utility.yul\":13648:13650   */\n      0x1f\n        /* \"#utility.yul\":13641:13646   */\n      dup4\n        /* \"#utility.yul\":13637:13651   */\n      add\n        /* \"#utility.yul\":13633:13656   */\n      div\n        /* \"#utility.yul\":13623:13656   */\n      swap1\n      pop\n        /* \"#utility.yul\":13569:13662   */\n      swap2\n      swap1\n      pop\n      jump\t// out\n        /* \"#utility.yul\":13668:13775   */\n    tag_133:\n        /* \"#utility.yul\":13712:13720   */\n      0x00\n        /* \"#utility.yul\":13762:13767   */\n      dup3\n        /* \"#utility.yul\":13756:13760   */\n      dup3\n        /* \"#utility.yul\":13752:13768   */\n      shl\n        /* \"#utility.yul\":13731:13768   */\n      swap1\n      pop\n        /* \"#utility.yul\":13668:13775   */\n      swap3\n      swap2\n      pop\n      pop\n      jump\t// out\n        /* \"#utility.yul\":13781:14174   */\n    tag_134:\n        /* \"#utility.yul\":13850:13856   */\n      0x00\n        /* \"#utility.yul\":13900:13901   */\n      0x08\n        /* \"#utility.yul\":13888:13898   */\n      dup4\n        /* \"#utility.yul\":13884:13902   */\n      mul\n        /* \"#utility.yul\":13923:14020   */\n      tag_289\n        /* \"#utility.yul\":13953:14019   */\n      0xffffffffffffffffffffffffffffffffffffffffffffffffffffffffffffffff\n        /* \"#utility.yul\":13942:13951   */\n      dup3\n        /* \"#utility.yul\":13923:14020   */\n      tag_133\n      jump\t// in\n    tag_289:\n        /* \"#utility.yul\":14041:14080   */\n      tag_290\n        /* \"#utility.yul\":14071:14079   */\n      dup7\n        /* \"#utility.yul\":14060:14069   */\n      dup4\n        /* \"#utility.yul\":14041:14080   */\n      tag_133\n      jump\t// in\n    tag_290:\n        /* \"#utility.yul\":14029:14080   */\n      swap6\n      pop\n        /* \"#utility.yul\":14113:14117   */\n      dup1\n        /* \"#utility.yul\":14109:14118   */\n      not\n        /* \"#utility.yul\":14102:14107   */\n      dup5\n        /* \"#utility.yul\":14098:14119   */\n      and\n        /* \"#utility.yul\":14089:14119   */\n      swap4\n      pop\n        /* \"#utility.yul\":14162:14166   */\n      dup1\n        /* \"#utility.yul\":14152:14160   */\n      dup7\n        /* \"#utility.yul\":14148:14167   */\n      and\n        /* \"#utility.yul\":14141:14146   */\n      dup5\n        /* \"#utility.yul\":14138:14168   */\n      or\n        /* \"#utility.yul\":14128:14168   */\n      swap3\n      pop\n        /* \"#utility.yul\":13857:14174   */\n      pop\n      pop\n        /* \"#utility.yul\":13781:14174   */\n      swap4\n      swap3\n      pop\n      pop\n      pop\n      jump\t// out\n        /* \"#utility.yul\":14180:14240   */\n    tag_135:\n        /* \"#utility.yul\":14208:14211   */\n      0x00\n        /* \"#utility.yul\":14229:14234   */\n      dup2\n        /* \"#utility.yul\":14222:14234   */\n      swap1\n      pop\n        /* \"#utility.yul\":14180:14240   */\n      swap2\n      swap1\n      pop\n      jump\t// out\n        /* \"#utility.yul\":14246:14388   */\n    tag_136:\n        /* \"#utility.yul\":14296:14305   */\n      0x00\n        /* \"#utility.yul\":14329:14382   */\n      tag_293\n        /* \"#utility.yul\":14347:14381   */\n      tag_294\n        /* \"#utility.yul\":14356:14380   */\n      tag_295\n        /* \"#utility.yul\":14374:14379   */\n      dup5\n        /* \"#utility.yul\":14356:14380   */\n      tag_94\n      jump\t// in\n    tag_295:\n        /* \"#utility.yul\":14347:14381   */\n      tag_135\n      jump\t// in\n    tag_294:\n        /* \"#utility.yul\":14329:14382   */\n      tag_94\n      jump\t// in\n    tag_293:\n        /* \"#utility.yul\":14316:14382   */\n      swap1\n      pop\n        /* \"#utility.yul\":14246:14388   */\n      swap2\n      swap1\n      pop\n      jump\t// out\n        /* \"#utility.yul\":14394:14469   */\n    tag_137:\n        /* \"#utility.yul\":14437:14440   */\n      0x00\n        /* \"#utility.yul\":14458:14463   */\n      dup2\n        /* \"#utility.yul\":14451:14463   */\n      swap1\n      pop\n        /* \"#utility.yul\":14394:14469   */\n      swap2\n      swap1\n      pop\n      jump\t// out\n        /* \"#utility.yul\":14475:14744   */\n    tag_138:\n        /* \"#utility.yul\":14585:14624   */\n      tag_298\n        /* \"#utility.yul\":14616:14623   */\n      dup4\n        /* \"#utility.yul\":14585:14624   */\n      tag_136\n      jump\t// in\n    tag_298:\n        /* \"#utility.yul\":14646:14737   */\n      tag_299\n        /* \"#utility.yul\":14695:14736   */\n      tag_300\n        /* \"#utility.yul\":14719:14735   */\n      dup3\n        /* \"#utility.yul\":14695:14736   */\n      tag_137\n      jump\t// in\n    tag_300:\n        /* \"#utility.yul\":14687:14693   */\n      dup5\n        /* \"#utility.yul\":14680:14684   */\n      dup5\n        /* \"#utility.yul\":14674:14685   */\n      sload\n        /* \"#utility.yul\":14646:14737   */\n      tag_134\n      jump\t// in\n    tag_299:\n        /* \"#utility.yul\":14640:14644   */\n      dup3\n        /* \"#utility.yul\":14633:14738   */\n      sstore\n        /* \"#utility.yul\":14551:14744   */\n      pop\n        /* \"#utility.yul\":14475:14744   */\n      pop\n      pop\n      pop\n      jump\t// out\n        /* \"#utility.yul\":14750:14823   */\n    tag_139:\n        /* \"#utility.yul\":14795:14798   */\n      0x00\n        /* \"#utility.yul\":14750:14823   */\n      swap1\n      jump\t// out\n        /* \"#utility.yul\":14829:15018   */\n    tag_140:\n        /* \"#utility.yul\":14906:14938   */\n      tag_303\n      tag_139\n      jump\t// in\n    tag_303:\n        /* \"#utility.yul\":14947:15012   */\n      tag_304\n        /* \"#utility.yul\":15005:15011   */\n      dup2\n        /* \"#utility.yul\":14997:15003   */\n      dup5\n        /* \"#utility.yul\":14991:14995   */\n      dup5\n        /* \"#utility.yul\":14947:15012   */\n      tag_138\n      jump\t// in\n    tag_304:\n        /* \"#utility.yul\":14882:15018   */\n      pop\n        /* \"#utility.yul\":14829:15018   */\n      pop\n      pop\n      jump\t// out\n        /* \"#utility.yul\":15024:15210   */\n    tag_141:\n        /* \"#utility.yul\":15084:15204   */\n    tag_306:\n        /* \"#utility.yul\":15101:15104   */\n      dup2\n        /* \"#utility.yul\":15094:15099   */\n      dup2\n        /* \"#utility.yul\":15091:15105   */\n      lt\n        /* \"#utility.yul\":15084:15204   */\n      iszero\n      tag_308\n      jumpi\n        /* \"#utility.yul\":15155:15194   */\n      tag_309\n        /* \"#utility.yul\":15192:15193   */\n      0x00\n        /* \"#utility.yul\":15185:15190   */\n      dup3\n        /* \"#utility.yul\":15155:15194   */\n      tag_140\n      jump\t// in\n    tag_309:\n        /* \"#utility.yul\":15128:15129   */\n      0x01\n        /* \"#utility.yul\":15121:15126   */\n      dup2\n        /* \"#utility.yul\":15117:15130   */\n      add\n        /* \"#utility.yul\":15108:15130   */\n      swap1\n      pop\n        /* \"#utility.yul\":15084:15204   */\n      jump(tag_306)\n    tag_308:\n        /* \"#utility.yul\":15024:15210   */\n      pop\n      pop\n      jump\t// out\n        /* \"#utility.yul\":15216:15759   */\n    tag_142:\n        /* \"#utility.yul\":15317:15319   */\n      0x1f\n        /* \"#utility.yul\":15312:15315   */\n      dup3\n        /* \"#utility.yul\":15309:15320   */\n      gt\n        /* \"#utility.yul\":15306:15752   */\n      iszero\n      tag_311\n      jumpi\n        /* \"#utility.yul\":15351:15389   */\n      tag_312\n        /* \"#utility.yul\":15383:15388   */\n      dup2\n        /* \"#utility.yul\":15351:15389   */\n      tag_131\n      jump\t// in\n    tag_312:\n        /* \"#utility.yul\":15435:15464   */\n      tag_313\n        /* \"#utility.yul\":15453:15463   */\n      dup5\n        /* \"#utility.yul\":15435:15464   */\n      tag_132\n      jump\t// in\n    tag_313:\n        /* \"#utility.yul\":15425:15433   */\n      dup2\n        /* \"#utility.yul\":15421:15465   */\n      add\n        /* \"#utility.yul\":15618:15620   */\n      0x20\n        /* \"#utility.yul\":15606:15616   */\n      dup6\n        /* \"#utility.yul\":15603:15621   */\n      lt\n        /* \"#utility.yul\":15600:15649   */\n      iszero\n      tag_314\n      jumpi\n        /* \"#utility.yul\":15639:15647   */\n      dup2\n        /* \"#utility.yul\":15624:15647   */\n      swap1\n      pop\n        /* \"#utility.yul\":15600:15649   */\n    tag_314:\n        /* \"#utility.yul\":15662:15742   */\n      tag_315\n        /* \"#utility.yul\":15718:15740   */\n      tag_316\n        /* \"#utility.yul\":15736:15739   */\n      dup6\n        /* \"#utility.yul\":15718:15740   */\n      tag_132\n      jump\t// in\n    tag_316:\n        /* \"#utility.yul\":15708:15716   */\n      dup4\n        /* \"#utility.yul\":15704:15741   */\n      add\n        /* \"#utility.yul\":15691:15702   */\n      dup3\n        /* \"#utility.yul\":15662:15742   */\n      tag_141\n      jump\t// in\n    tag_315:\n        /* \"#utility.yul\":15321:15752   */\n      pop\n      pop\n        /* \"#utility.yul\":15306:15752   */\n    tag_311:\n        /* \"#utility.yul\":15216:15759   */\n      pop\n      pop\n      pop\n      jump\t// out\n        /* \"#utility.yul\":15765:15882   */\n    tag_143:\n        /* \"#utility.yul\":15819:15827   */\n      0x00\n        /* \"#utility.yul\":15869:15874   */\n      dup3\n        /* \"#utility.yul\":15863:15867   */\n      dup3\n        /* \"#utility.yul\":15859:15875   */\n      shr\n        /* \"#utility.yul\":15838:15875   */\n      swap1\n      pop\n        /* \"#utility.yul\":15765:15882   */\n      swap3\n      swap2\n      pop\n      pop\n      jump\t// out\n        /* \"#utility.yul\":15888:16057   */\n    tag_144:\n        /* \"#utility.yul\":15932:15938   */\n      0x00\n        /* \"#utility.yul\":15965:16016   */\n      tag_319\n        /* \"#utility.yul\":16013:16014   */\n      0x00\n        /* \"#utility.yul\":16009:16015   */\n      not\n        /* \"#utility.yul\":16001:16006   */\n      dup5\n        /* \"#utility.yul\":15998:15999   */\n      0x08\n        /* \"#utility.yul\":15994:16007   */\n      mul\n        /* \"#utility.yul\":15965:16016   */\n      tag_143\n      jump\t// in\n    tag_319:\n        /* \"#utility.yul\":15961:16017   */\n      not\n        /* \"#utility.yul\":16046:16050   */\n      dup1\n        /* \"#utility.yul\":16040:16044   */\n      dup4\n        /* \"#utility.yul\":16036:16051   */\n      and\n        /* \"#utility.yul\":16026:16051   */\n      swap2\n      pop\n        /* \"#utility.yul\":15939:16057   */\n      pop\n        /* \"#utility.yul\":15888:16057   */\n      swap3\n      swap2\n      pop\n      pop\n      jump\t// out\n        /* \"#utility.yul\":16062:16357   */\n    tag_145:\n        /* \"#utility.yul\":16138:16142   */\n      0x00\n        /* \"#utility.yul\":16284:16313   */\n      tag_321\n        /* \"#utility.yul\":16309:16312   */\n      dup4\n        /* \"#utility.yul\":16303:16307   */\n      dup4\n        /* \"#utility.yul\":16284:16313   */\n      tag_144\n      jump\t// in\n    tag_321:\n        /* \"#utility.yul\":16276:16313   */\n      swap2\n      pop\n        /* \"#utility.yul\":16346:16349   */\n      dup3\n        /* \"#utility.yul\":16343:16344   */\n      0x02\n        /* \"#utility.yul\":16339:16350   */\n      mul\n        /* \"#utility.yul\":16333:16337   */\n      dup3\n        /* \"#utility.yul\":16330:16351   */\n      or\n        /* \"#utility.yul\":16322:16351   */\n      swap1\n      pop\n        /* \"#utility.yul\":16062:16357   */\n      swap3\n      swap2\n      pop\n      pop\n      jump\t// out\n        /* \"#utility.yul\":16362:17757   */\n    tag_73:\n        /* \"#utility.yul\":16479:16516   */\n      tag_323\n        /* \"#utility.yul\":16512:16515   */\n      dup3\n        /* \"#utility.yul\":16479:16516   */\n      tag_97\n      jump\t// in\n    tag_323:\n        /* \"#utility.yul\":16581:16599   */\n      0xffffffffffffffff\n        /* \"#utility.yul\":16573:16579   */\n      dup2\n        /* \"#utility.yul\":16570:16600   */\n      gt\n        /* \"#utility.yul\":16567:16623   */\n      iszero\n      tag_324\n      jumpi\n        /* \"#utility.yul\":16603:16621   */\n      tag_325\n      tag_112\n      jump\t// in\n    tag_325:\n        /* \"#utility.yul\":16567:16623   */\n    tag_324:\n        /* \"#utility.yul\":16647:16685   */\n      tag_326\n        /* \"#utility.yul\":16679:16683   */\n      dup3\n        /* \"#utility.yul\":16673:16684   */\n      sload\n        /* \"#utility.yul\":16647:16685   */\n      tag_41\n      jump\t// in\n    tag_326:\n        /* \"#utility.yul\":16732:16799   */\n      tag_327\n        /* \"#utility.yul\":16792:16798   */\n      dup3\n        /* \"#utility.yul\":16784:16790   */\n      dup3\n        /* \"#utility.yul\":16778:16782   */\n      dup6\n        /* \"#utility.yul\":16732:16799   */\n      tag_142\n      jump\t// in\n    tag_327:\n        /* \"#utility.yul\":16826:16827   */\n      0x00\n        /* \"#utility.yul\":16850:16854   */\n      0x20\n        /* \"#utility.yul\":16837:16854   */\n      swap1\n      pop\n        /* \"#utility.yul\":16882:16884   */\n      0x1f\n        /* \"#utility.yul\":16874:16880   */\n      dup4\n        /* \"#utility.yul\":16871:16885   */\n      gt\n        /* \"#utility.yul\":16899:16900   */\n      0x01\n        /* \"#utility.yul\":16894:17512   */\n      dup2\n      eq\n      tag_329\n      jumpi\n        /* \"#utility.yul\":17556:17557   */\n      0x00\n        /* \"#utility.yul\":17573:17579   */\n      dup5\n        /* \"#utility.yul\":17570:17647   */\n      iszero\n      tag_330\n      jumpi\n        /* \"#utility.yul\":17622:17631   */\n      dup3\n        /* \"#utility.yul\":17617:17620   */\n      dup8\n        /* \"#utility.yul\":17613:17632   */\n      add\n        /* \"#utility.yul\":17607:17633   */\n      mload\n        /* \"#utility.yul\":17598:17633   */\n      swap1\n      pop\n        /* \"#utility.yul\":17570:17647   */\n    tag_330:\n        /* \"#utility.yul\":17673:17740   */\n      tag_331\n        /* \"#utility.yul\":17733:17739   */\n      dup6\n        /* \"#utility.yul\":17726:17731   */\n      dup3\n        /* \"#utility.yul\":17673:17740   */\n      tag_145\n      jump\t// in\n    tag_331:\n        /* \"#utility.yul\":17667:17671   */\n      dup7\n        /* \"#utility.yul\":17660:17741   */\n      sstore\n        /* \"#utility.yul\":17529:17751   */\n      pop\n        /* \"#utility.yul\":16864:17751   */\n      jump(tag_328)\n        /* \"#utility.yul\":16894:17512   */\n    tag_329:\n        /* \"#utility.yul\":16946:16950   */\n      0x1f\n        /* \"#utility.yul\":16942:16951   */\n      not\n        /* \"#utility.yul\":16934:16940   */\n      dup5\n        /* \"#utility.yul\":16930:16952   */\n      and\n        /* \"#utility.yul\":16980:17017   */\n      tag_332\n        /* \"#utility.yul\":17012:17016   */\n      dup7\n        /* \"#utility.yul\":16980:17017   */\n      tag_131\n      jump\t// in\n    tag_332:\n        /* \"#utility.yul\":17039:17040   */\n      0x00\n        /* \"#utility.yul\":17053:17261   */\n    tag_333:\n        /* \"#utility.yul\":17067:17074   */\n      dup3\n        /* \"#utility.yul\":17064:17065   */\n      dup2\n        /* \"#utility.yul\":17061:17075   */\n      lt\n        /* \"#utility.yul\":17053:17261   */\n      iszero\n      tag_335\n      jumpi\n        /* \"#utility.yul\":17146:17155   */\n      dup5\n        /* \"#utility.yul\":17141:17144   */\n      dup10\n        /* \"#utility.yul\":17137:17156   */\n      add\n        /* \"#utility.yul\":17131:17157   */\n      mload\n        /* \"#utility.yul\":17123:17129   */\n      dup3\n        /* \"#utility.yul\":17116:17158   */\n      sstore\n        /* \"#utility.yul\":17197:17198   */\n      0x01\n        /* \"#utility.yul\":17189:17195   */\n      dup3\n        /* \"#utility.yul\":17185:17199   */\n      add\n        /* \"#utility.yul\":17175:17199   */\n      swap2\n      pop\n        /* \"#utility.yul\":17244:17246   */\n      0x20\n        /* \"#utility.yul\":17233:17242   */\n      dup6\n        /* \"#utility.yul\":17229:17247   */\n      add\n        /* \"#utility.yul\":17216:17247   */\n      swap5\n      pop\n        /* \"#utility.yul\":17090:17094   */\n      0x20\n        /* \"#utility.yul\":17087:17088   */\n      dup2\n        /* \"#utility.yul\":17083:17095   */\n      add\n        /* \"#utility.yul\":17078:17095   */\n      swap1\n      pop\n        /* \"#utility.yul\":17053:17261   */\n      jump(tag_333)\n    tag_335:\n        /* \"#utility.yul\":17289:17295   */\n      dup7\n        /* \"#utility.yul\":17280:17287   */\n      dup4\n        /* \"#utility.yul\":17277:17296   */\n      lt\n        /* \"#utility.yul\":17274:17453   */\n      iszero\n      tag_336\n      jumpi\n        /* \"#utility.yul\":17347:17356   */\n      dup5\n        /* \"#utility.yul\":17342:17345   */\n      dup10\n        /* \"#utility.yul\":17338:17357   */\n      add\n        /* \"#utility.yul\":17332:17358   */\n      mload\n        /* \"#utility.yul\":17390:17438   */\n      tag_337\n        /* \"#utility.yul\":17432:17436   */\n      0x1f\n        /* \"#utility.yul\":17424:17430   */\n      dup10\n        /* \"#utility.yul\":17420:17437   */\n      and\n        /* \"#utility.yul\":17409:17418   */\n      dup3\n        /* \"#utility.yul\":17390:17438   */\n      tag_144\n      jump\t// in\n    tag_337:\n        /* \"#utility.yul\":17382:17388   */\n      dup4\n        /* \"#utility.yul\":17375:17439   */\n      sstore\n        /* \"#utility.yul\":17297:17453   */\n      pop\n        /* \"#utility.yul\":17274:17453   */\n    tag_336:\n        /* \"#utility.yul\":17499:17500   */\n      0x01\n        /* \"#utility.yul\":17495:17496   */\n      0x02\n        /* \"#utility.yul\":17487:17493   */\n      dup9\n        /* \"#utility.yul\":17483:17497   */\n      mul\n        /* \"#utility.yul\":17479:17501   */\n      add\n        /* \"#utility.yul\":17473:17477   */\n      dup9\n        /* \"#utility.yul\":17466:17502   */\n      sstore\n        /* \"#utility.yul\":16901:17512   */\n      pop\n      pop\n      pop\n        /* \"#utility.yul\":16864:17751   */\n    tag_328:\n      pop\n        /* \"#utility.yul\":16454:17757   */\n      pop\n      pop\n      pop\n        /* \"#utility.yul\":16362:17757   */\n      pop\n      pop\n      jump\t// out\n        /* \"#utility.yul\":17763:18296   */\n    tag_75:\n        /* \"#utility.yul\":17932:17936   */\n      0x00\n        /* \"#utility.yul\":17970:17972   */\n      0x60\n        /* \"#utility.yul\":17959:17968   */\n      dup3\n        /* \"#utility.yul\":17955:17973   */\n      add\n        /* \"#utility.yul\":17947:17973   */\n      swap1\n      pop\n        /* \"#utility.yul\":17983:18054   */\n      tag_339\n        /* \"#utility.yul\":18051:18052   */\n      0x00\n        /* \"#utility.yul\":18040:18049   */\n      dup4\n        /* \"#utility.yul\":18036:18053   */\n      add\n        /* \"#utility.yul\":18027:18033   */\n      dup7\n        /* \"#utility.yul\":17983:18054   */\n      tag_102\n      jump\t// in\n    tag_339:\n        /* \"#utility.yul\":18101:18110   */\n      dup2\n        /* \"#utility.yul\":18095:18099   */\n      dup2\n        /* \"#utility.yul\":18091:18111   */\n      sub\n        /* \"#utility.yul\":18086:18088   */\n      0x20\n        /* \"#utility.yul\":18075:18084   */\n      dup4\n        /* \"#utility.yul\":18071:18089   */\n      add\n        /* \"#utility.yul\":18064:18112   */\n      mstore\n        /* \"#utility.yul\":18129:18207   */\n      tag_340\n        /* \"#utility.yul\":18202:18206   */\n      dup2\n        /* \"#utility.yul\":18193:18199   */\n      dup6\n        /* \"#utility.yul\":18129:18207   */\n      tag_101\n      jump\t// in\n    tag_340:\n        /* \"#utility.yul\":18121:18207   */\n      swap1\n      pop\n        /* \"#utility.yul\":18217:18289   */\n      tag_341\n        /* \"#utility.yul\":18285:18287   */\n      0x40\n        /* \"#utility.yul\":18274:18283   */\n      dup4\n        /* \"#utility.yul\":18270:18288   */\n      add\n        /* \"#utility.yul\":18261:18267   */\n      dup5\n        /* \"#utility.yul\":18217:18289   */\n      tag_107\n      jump\t// in\n    tag_341:\n        /* \"#utility.yul\":17763:18296   */\n      swap5\n      swap4\n      pop\n      pop\n      pop\n      pop\n      jump\t// out\n        /* \"#utility.yul\":18302:18535   */\n    tag_77:\n        /* \"#utility.yul\":18341:18344   */\n      0x00\n        /* \"#utility.yul\":18364:18388   */\n      tag_343\n        /* \"#utility.yul\":18382:18387   */\n      dup3\n        /* \"#utility.yul\":18364:18388   */\n      tag_94\n      jump\t// in\n    tag_343:\n        /* \"#utility.yul\":18355:18388   */\n      swap2\n      pop\n        /* \"#utility.yul\":18410:18476   */\n      0xffffffffffffffffffffffffffffffffffffffffffffffffffffffffffffffff\n        /* \"#utility.yul\":18403:18408   */\n      dup3\n        /* \"#utility.yul\":18400:18477   */\n      sub\n        /* \"#utility.yul\":18397:18500   */\n      tag_344\n      jumpi\n        /* \"#utility.yul\":18480:18498   */\n      tag_345\n      tag_130\n      jump\t// in\n    tag_345:\n        /* \"#utility.yul\":18397:18500   */\n    tag_344:\n        /* \"#utility.yul\":18527:18528   */\n      0x01\n        /* \"#utility.yul\":18520:18525   */\n      dup3\n        /* \"#utility.yul\":18516:18529   */\n      add\n        /* \"#utility.yul\":18509:18529   */\n      swap1\n      pop\n        /* \"#utility.yul\":18302:18535   */\n      swap2\n      swap1\n      pop\n      jump\t// out\n        /* \"#utility.yul\":18541:18714   */\n    tag_146:\n        /* \"#utility.yul\":18681:18706   */\n      0x566f74696e6720706572696f642068617320656e646564000000000000000000\n        /* \"#utility.yul\":18677:18678   */\n      0x00\n        /* \"#utility.yul\":18669:18675   */\n      dup3\n        /* \"#utility.yul\":18665:18679   */\n      add\n        /* \"#utility.yul\":18658:18707   */\n      mstore\n        /* \"#utility.yul\":18541:18714   */\n      pop\n      jump\t// out\n        /* \"#utility.yul\":18720:19086   */\n    tag_147:\n        /* \"#utility.yul\":18862:18865   */\n      0x00\n        /* \"#utility.yul\":18883:18950   */\n      tag_348\n        /* \"#utility.yul\":18947:18949   */\n      0x17\n        /* \"#utility.yul\":18942:18945   */\n      dup4\n        /* \"#utility.yul\":18883:18950   */\n      tag_98\n      jump\t// in\n    tag_348:\n        /* \"#utility.yul\":18876:18950   */\n      swap2\n      pop\n        /* \"#utility.yul\":18959:19052   */\n      tag_349\n        /* \"#utility.yul\":19048:19051   */\n      dup3\n        /* \"#utility.yul\":18959:19052   */\n      tag_146\n      jump\t// in\n    tag_349:\n        /* \"#utility.yul\":19077:19079   */\n      0x20\n        /* \"#utility.yul\":19072:19075   */\n      dup3\n        /* \"#utility.yul\":19068:19080   */\n      add\n        /* \"#utility.yul\":19061:19080   */\n      swap1\n      pop\n        /* \"#utility.yul\":18720:19086   */\n      swap2\n      swap1\n      pop\n      jump\t// out\n        /* \"#utility.yul\":19092:19511   */\n    tag_84:\n        /* \"#utility.yul\":19258:19262   */\n      0x00\n        /* \"#utility.yul\":19296:19298   */\n      0x20\n        /* \"#utility.yul\":19285:19294   */\n      dup3\n        /* \"#utility.yul\":19281:19299   */\n      add\n        /* \"#utility.yul\":19273:19299   */\n      swap1\n      pop\n        /* \"#utility.yul\":19345:19354   */\n      dup2\n        /* \"#utility.yul\":19339:19343   */\n      dup2\n        /* \"#utility.yul\":19335:19355   */\n      sub\n        /* \"#utility.yul\":19331:19332   */\n      0x00\n        /* \"#utility.yul\":19320:19329   */\n      dup4\n        /* \"#utility.yul\":19316:19333   */\n      add\n        /* \"#utility.yul\":19309:19356   */\n      mstore\n        /* \"#utility.yul\":19373:19504   */\n      tag_351\n        /* \"#utility.yul\":19499:19503   */\n      dup2\n        /* \"#utility.yul\":19373:19504   */\n      tag_147\n      jump\t// in\n    tag_351:\n        /* \"#utility.yul\":19365:19504   */\n      swap1\n      pop\n        /* \"#utility.yul\":19092:19511   */\n      swap2\n      swap1\n      pop\n      jump\t// out\n        /* \"#utility.yul\":19517:19947   */\n    tag_90:\n        /* \"#utility.yul\":19660:19664   */\n      0x00\n        /* \"#utility.yul\":19698:19700   */\n      0x60\n        /* \"#utility.yul\":19687:19696   */\n      dup3\n        /* \"#utility.yul\":19683:19701   */\n      add\n        /* \"#utility.yul\":19675:19701   */\n      swap1\n      pop\n        /* \"#utility.yul\":19711:19782   */\n      tag_353\n        /* \"#utility.yul\":19779:19780   */\n      0x00\n        /* \"#utility.yul\":19768:19777   */\n      dup4\n        /* \"#utility.yul\":19764:19781   */\n      add\n        /* \"#utility.yul\":19755:19761   */\n      dup7\n        /* \"#utility.yul\":19711:19782   */\n      tag_102\n      jump\t// in\n    tag_353:\n        /* \"#utility.yul\":19792:19864   */\n      tag_354\n        /* \"#utility.yul\":19860:19862   */\n      0x20\n        /* \"#utility.yul\":19849:19858   */\n      dup4\n        /* \"#utility.yul\":19845:19863   */\n      add\n        /* \"#utility.yul\":19836:19842   */\n      dup6\n        /* \"#utility.yul\":19792:19864   */\n      tag_107\n      jump\t// in\n    tag_354:\n        /* \"#utility.yul\":19874:19940   */\n      tag_355\n        /* \"#utility.yul\":19936:19938   */\n      0x40\n        /* \"#utility.yul\":19925:19934   */\n      dup4\n        /* \"#utility.yul\":19921:19939   */\n      add\n        /* \"#utility.yul\":19912:19918   */\n      dup5\n        /* \"#utility.yul\":19874:19940   */\n      tag_104\n      jump\t// in\n    tag_355:\n        /* \"#utility.yul\":19517:19947   */\n      swap5\n      swap4\n      pop\n      pop\n      pop\n      pop\n      jump\t// out\n\n    auxdata: 0xa2646970667358221220b66c5005565a268e2abe9bbddc0b61aab800126b6bce5d9760e9606fcb49e77e64736f6c63430008160033\n}\n",
				"bytecode": {
					"linkReferences": {},
					"object": "608060405234801561000f575f80fd5b5061130c8061001d5f395ff3fe608060405234801561000f575f80fd5b506004361061007b575f3560e01c80634217df12116100595780634217df121461010057806349c2a1a61461010a578063c9d27afe14610126578063da35c664146101425761007b565b8063013cf08b1461007f57806308ae4b0c146100b45780630d61b519146100e4575b5f80fd5b610099600480360381019061009491906108a2565b610160565b6040516100ab969594939291906109bf565b60405180910390f35b6100ce60048036038101906100c99190610a4f565b61024a565b6040516100db9190610a7a565b60405180910390f35b6100fe60048036038101906100f991906108a2565b610266565b005b610108610402565b005b610124600480360381019061011f9190610bbf565b610518565b005b610140600480360381019061013b9190610c30565b6106f8565b005b61014a610858565b6040516101579190610c6e565b60405180910390f35b6001602052805f5260405f205f91509050805f01805461017f90610cb4565b80601f01602080910402602001604051908101604052809291908181526020018280546101ab90610cb4565b80156101f65780601f106101cd576101008083540402835291602001916101f6565b820191905f5260205f20905b8154815290600101906020018083116101d957829003601f168201915b505050505090806001015490806002015490806003015490806004015f9054906101000a900460ff16908060040160019054906101000a900473ffffffffffffffffffffffffffffffffffffffff16905086565b5f602052805f5260405f205f915054906101000a900460ff1681565b5f803273ffffffffffffffffffffffffffffffffffffffff1673ffffffffffffffffffffffffffffffffffffffff1681526020019081526020015f205f9054906101000a900460ff166102ee576040517f08c379a00000000000000000000000000000000000000000000000000000000081526004016102e590610d54565b60405180910390fd5b5f60015f8381526020019081526020015f2090508060030154421015610349576040517f08c379a000000000000000000000000000000000000000000000000000000000815260040161034090610dbc565b60405180910390fd5b806004015f9054906101000a900460ff161561039a576040517f08c379a000000000000000000000000000000000000000000000000000000000815260040161039190610e24565b60405180910390fd5b5f816002015482600101541190506001826004015f6101000a81548160ff0219169083151502179055507f948f4a9cd986f1118c3fbd459f7a22b23c0693e1ca3ef06a6a8be5aa7d39cc0383826040516103f5929190610e42565b60405180910390a1505050565b5f803273ffffffffffffffffffffffffffffffffffffffff1673ffffffffffffffffffffffffffffffffffffffff1681526020019081526020015f205f9054906101000a900460ff161561048b576040517f08c379a000000000000000000000000000000000000000000000000000000000815260040161048290610eb3565b60405180910390fd5b60015f803273ffffffffffffffffffffffffffffffffffffffff1673ffffffffffffffffffffffffffffffffffffffff1681526020019081526020015f205f6101000a81548160ff0219169083151502179055507f92fabfa210df88d92c2f5a07ddd43a985b208d8b19b7a78ba1284aa4b287d8623360405161050e9190610ed1565b60405180910390a1565b5f803273ffffffffffffffffffffffffffffffffffffffff1673ffffffffffffffffffffffffffffffffffffffff1681526020019081526020015f205f9054906101000a900460ff166105a0576040517f08c379a000000000000000000000000000000000000000000000000000000000815260040161059790610d54565b60405180910390fd5b6040518060c001604052808281526020015f81526020015f81526020016203f480426105cc9190610f17565b81526020015f151581526020013273ffffffffffffffffffffffffffffffffffffffff1681525060015f60025481526020019081526020015f205f820151815f01908161061991906110e7565b506020820151816001015560408201518160020155606082015181600301556080820151816004015f6101000a81548160ff02191690831515021790555060a08201518160040160016101000a81548173ffffffffffffffffffffffffffffffffffffffff021916908373ffffffffffffffffffffffffffffffffffffffff1602179055509050507fc8c078bfee58e5822588f08b4509ed1eb5058e03f666cca84dd2d44bf5c288a860025482326040516106d6939291906111b6565b60405180910390a160025f8154809291906106f0906111f2565b919050555050565b5f803273ffffffffffffffffffffffffffffffffffffffff1673ffffffffffffffffffffffffffffffffffffffff1681526020019081526020015f205f9054906101000a900460ff16610780576040517f08c379a000000000000000000000000000000000000000000000000000000000815260040161077790610d54565b60405180910390fd5b5f60015f8481526020019081526020015f209050806003015442106107da576040517f08c379a00000000000000000000000000000000000000000000000000000000081526004016107d190611283565b60405180910390fd5b81156107fe57806001015f8154809291906107f4906111f2565b9190505550610818565b806002015f815480929190610812906111f2565b91905055505b7ff2913dbe661ee2acc4a046d8fbcdc792373bda34c41c6086484b5345e5785e5f83338460405161084b939291906112a1565b60405180910390a1505050565b60025481565b5f604051905090565b5f80fd5b5f80fd5b5f819050919050565b6108818161086f565b811461088b575f80fd5b50565b5f8135905061089c81610878565b92915050565b5f602082840312156108b7576108b6610867565b5b5f6108c48482850161088e565b91505092915050565b5f81519050919050565b5f82825260208201905092915050565b5f5b838110156109045780820151818401526020810190506108e9565b5f8484015250505050565b5f601f19601f8301169050919050565b5f610929826108cd565b61093381856108d7565b93506109438185602086016108e7565b61094c8161090f565b840191505092915050565b6109608161086f565b82525050565b5f8115159050919050565b61097a81610966565b82525050565b5f73ffffffffffffffffffffffffffffffffffffffff82169050919050565b5f6109a982610980565b9050919050565b6109b98161099f565b82525050565b5f60c0820190508181035f8301526109d7818961091f565b90506109e66020830188610957565b6109f36040830187610957565b610a006060830186610957565b610a0d6080830185610971565b610a1a60a08301846109b0565b979650505050505050565b610a2e8161099f565b8114610a38575f80fd5b50565b5f81359050610a4981610a25565b92915050565b5f60208284031215610a6457610a63610867565b5b5f610a7184828501610a3b565b91505092915050565b5f602082019050610a8d5f830184610971565b92915050565b5f80fd5b5f80fd5b7f4e487b71000000000000000000000000000000000000000000000000000000005f52604160045260245ffd5b610ad18261090f565b810181811067ffffffffffffffff82111715610af057610aef610a9b565b5b80604052505050565b5f610b0261085e565b9050610b0e8282610ac8565b919050565b5f67ffffffffffffffff821115610b2d57610b2c610a9b565b5b610b368261090f565b9050602081019050919050565b828183375f83830152505050565b5f610b63610b5e84610b13565b610af9565b905082815260208101848484011115610b7f57610b7e610a97565b5b610b8a848285610b43565b509392505050565b5f82601f830112610ba657610ba5610a93565b5b8135610bb6848260208601610b51565b91505092915050565b5f60208284031215610bd457610bd3610867565b5b5f82013567ffffffffffffffff811115610bf157610bf061086b565b5b610bfd84828501610b92565b91505092915050565b610c0f81610966565b8114610c19575f80fd5b50565b5f81359050610c2a81610c06565b92915050565b5f8060408385031215610c4657610c45610867565b5b5f610c538582860161088e565b9250506020610c6485828601610c1c565b9150509250929050565b5f602082019050610c815f830184610957565b92915050565b7f4e487b71000000000000000000000000000000000000000000000000000000005f52602260045260245ffd5b5f6002820490506001821680610ccb57607f821691505b602082108103610cde57610cdd610c87565b5b50919050565b7f4f6e6c792044414f206d656d626572732063616e20706572666f726d207468695f8201527f7320616374696f6e000000000000000000000000000000000000000000000000602082015250565b5f610d3e6028836108d7565b9150610d4982610ce4565b604082019050919050565b5f6020820190508181035f830152610d6b81610d32565b9050919050565b7f566f74696e6720706572696f64206973207374696c6c206163746976650000005f82015250565b5f610da6601d836108d7565b9150610db182610d72565b602082019050919050565b5f6020820190508181035f830152610dd381610d9a565b9050919050565b7f50726f706f73616c20616c7265616479206578656375746564000000000000005f82015250565b5f610e0e6019836108d7565b9150610e1982610dda565b602082019050919050565b5f6020820190508181035f830152610e3b81610e02565b9050919050565b5f604082019050610e555f830185610957565b610e626020830184610971565b9392505050565b7f416c72656164792061206d656d626572000000000000000000000000000000005f82015250565b5f610e9d6010836108d7565b9150610ea882610e69565b602082019050919050565b5f6020820190508181035f830152610eca81610e91565b9050919050565b5f602082019050610ee45f8301846109b0565b92915050565b7f4e487b71000000000000000000000000000000000000000000000000000000005f52601160045260245ffd5b5f610f218261086f565b9150610f2c8361086f565b9250828201905080821115610f4457610f43610eea565b5b92915050565b5f819050815f5260205f209050919050565b5f6020601f8301049050919050565b5f82821b905092915050565b5f60088302610fa67fffffffffffffffffffffffffffffffffffffffffffffffffffffffffffffffff82610f6b565b610fb08683610f6b565b95508019841693508086168417925050509392505050565b5f819050919050565b5f610feb610fe6610fe18461086f565b610fc8565b61086f565b9050919050565b5f819050919050565b61100483610fd1565b61101861101082610ff2565b848454610f77565b825550505050565b5f90565b61102c611020565b611037818484610ffb565b505050565b5b8181101561105a5761104f5f82611024565b60018101905061103d565b5050565b601f82111561109f5761107081610f4a565b61107984610f5c565b81016020851015611088578190505b61109c61109485610f5c565b83018261103c565b50505b505050565b5f82821c905092915050565b5f6110bf5f19846008026110a4565b1980831691505092915050565b5f6110d783836110b0565b9150826002028217905092915050565b6110f0826108cd565b67ffffffffffffffff81111561110957611108610a9b565b5b6111138254610cb4565b61111e82828561105e565b5f60209050601f83116001811461114f575f841561113d578287015190505b61114785826110cc565b8655506111ae565b601f19841661115d86610f4a565b5f5b828110156111845784890151825560018201915060208501945060208101905061115f565b868310156111a1578489015161119d601f8916826110b0565b8355505b6001600288020188555050505b505050505050565b5f6060820190506111c95f830186610957565b81810360208301526111db818561091f565b90506111ea60408301846109b0565b949350505050565b5f6111fc8261086f565b91507fffffffffffffffffffffffffffffffffffffffffffffffffffffffffffffffff820361122e5761122d610eea565b5b600182019050919050565b7f566f74696e6720706572696f642068617320656e6465640000000000000000005f82015250565b5f61126d6017836108d7565b915061127882611239565b602082019050919050565b5f6020820190508181035f83015261129a81611261565b9050919050565b5f6060820190506112b45f830186610957565b6112c160208301856109b0565b6112ce6040830184610971565b94935050505056fea2646970667358221220b66c5005565a268e2abe9bbddc0b61aab800126b6bce5d9760e9606fcb49e77e64736f6c63430008160033",
					"opcodes": "PUSH1 0x80 PUSH1 0x40 MSTORE CALLVALUE DUP1 ISZERO PUSH2 0xF JUMPI PUSH0 DUP1 REVERT JUMPDEST POP PUSH2 0x130C DUP1 PUSH2 0x1D PUSH0 CODECOPY PUSH0 RETURN INVALID PUSH1 0x80 PUSH1 0x40 MSTORE CALLVALUE DUP1 ISZERO PUSH2 0xF JUMPI PUSH0 DUP1 REVERT JUMPDEST POP PUSH1 0x4 CALLDATASIZE LT PUSH2 0x7B JUMPI PUSH0 CALLDATALOAD PUSH1 0xE0 SHR DUP1 PUSH4 0x4217DF12 GT PUSH2 0x59 JUMPI DUP1 PUSH4 0x4217DF12 EQ PUSH2 0x100 JUMPI DUP1 PUSH4 0x49C2A1A6 EQ PUSH2 0x10A JUMPI DUP1 PUSH4 0xC9D27AFE EQ PUSH2 0x126 JUMPI DUP1 PUSH4 0xDA35C664 EQ PUSH2 0x142 JUMPI PUSH2 0x7B JUMP JUMPDEST DUP1 PUSH4 0x13CF08B EQ PUSH2 0x7F JUMPI DUP1 PUSH4 0x8AE4B0C EQ PUSH2 0xB4 JUMPI DUP1 PUSH4 0xD61B519 EQ PUSH2 0xE4 JUMPI JUMPDEST PUSH0 DUP1 REVERT JUMPDEST PUSH2 0x99 PUSH1 0x4 DUP1 CALLDATASIZE SUB DUP2 ADD SWAP1 PUSH2 0x94 SWAP2 SWAP1 PUSH2 0x8A2 JUMP JUMPDEST PUSH2 0x160 JUMP JUMPDEST PUSH1 0x40 MLOAD PUSH2 0xAB SWAP7 SWAP6 SWAP5 SWAP4 SWAP3 SWAP2 SWAP1 PUSH2 0x9BF JUMP JUMPDEST PUSH1 0x40 MLOAD DUP1 SWAP2 SUB SWAP1 RETURN JUMPDEST PUSH2 0xCE PUSH1 0x4 DUP1 CALLDATASIZE SUB DUP2 ADD SWAP1 PUSH2 0xC9 SWAP2 SWAP1 PUSH2 0xA4F JUMP JUMPDEST PUSH2 0x24A JUMP JUMPDEST PUSH1 0x40 MLOAD PUSH2 0xDB SWAP2 SWAP1 PUSH2 0xA7A JUMP JUMPDEST PUSH1 0x40 MLOAD DUP1 SWAP2 SUB SWAP1 RETURN JUMPDEST PUSH2 0xFE PUSH1 0x4 DUP1 CALLDATASIZE SUB DUP2 ADD SWAP1 PUSH2 0xF9 SWAP2 SWAP1 PUSH2 0x8A2 JUMP JUMPDEST PUSH2 0x266 JUMP JUMPDEST STOP JUMPDEST PUSH2 0x108 PUSH2 0x402 JUMP JUMPDEST STOP JUMPDEST PUSH2 0x124 PUSH1 0x4 DUP1 CALLDATASIZE SUB DUP2 ADD SWAP1 PUSH2 0x11F SWAP2 SWAP1 PUSH2 0xBBF JUMP JUMPDEST PUSH2 0x518 JUMP JUMPDEST STOP JUMPDEST PUSH2 0x140 PUSH1 0x4 DUP1 CALLDATASIZE SUB DUP2 ADD SWAP1 PUSH2 0x13B SWAP2 SWAP1 PUSH2 0xC30 JUMP JUMPDEST PUSH2 0x6F8 JUMP JUMPDEST STOP JUMPDEST PUSH2 0x14A PUSH2 0x858 JUMP JUMPDEST PUSH1 0x40 MLOAD PUSH2 0x157 SWAP2 SWAP1 PUSH2 0xC6E JUMP JUMPDEST PUSH1 0x40 MLOAD DUP1 SWAP2 SUB SWAP1 RETURN JUMPDEST PUSH1 0x1 PUSH1 0x20 MSTORE DUP1 PUSH0 MSTORE PUSH1 0x40 PUSH0 KECCAK256 PUSH0 SWAP2 POP SWAP1 POP DUP1 PUSH0 ADD DUP1 SLOAD PUSH2 0x17F SWAP1 PUSH2 0xCB4 JUMP JUMPDEST DUP1 PUSH1 0x1F ADD PUSH1 0x20 DUP1 SWAP2 DIV MUL PUSH1 0x20 ADD PUSH1 0x40 MLOAD SWAP1 DUP2 ADD PUSH1 0x40 MSTORE DUP1 SWAP3 SWAP2 SWAP1 DUP2 DUP2 MSTORE PUSH1 0x20 ADD DUP3 DUP1 SLOAD PUSH2 0x1AB SWAP1 PUSH2 0xCB4 JUMP JUMPDEST DUP1 ISZERO PUSH2 0x1F6 JUMPI DUP1 PUSH1 0x1F LT PUSH2 0x1CD JUMPI PUSH2 0x100 DUP1 DUP4 SLOAD DIV MUL DUP4 MSTORE SWAP2 PUSH1 0x20 ADD SWAP2 PUSH2 0x1F6 JUMP JUMPDEST DUP3 ADD SWAP2 SWAP1 PUSH0 MSTORE PUSH1 0x20 PUSH0 KECCAK256 SWAP1 JUMPDEST DUP2 SLOAD DUP2 MSTORE SWAP1 PUSH1 0x1 ADD SWAP1 PUSH1 0x20 ADD DUP1 DUP4 GT PUSH2 0x1D9 JUMPI DUP3 SWAP1 SUB PUSH1 0x1F AND DUP3 ADD SWAP2 JUMPDEST POP POP POP POP POP SWAP1 DUP1 PUSH1 0x1 ADD SLOAD SWAP1 DUP1 PUSH1 0x2 ADD SLOAD SWAP1 DUP1 PUSH1 0x3 ADD SLOAD SWAP1 DUP1 PUSH1 0x4 ADD PUSH0 SWAP1 SLOAD SWAP1 PUSH2 0x100 EXP SWAP1 DIV PUSH1 0xFF AND SWAP1 DUP1 PUSH1 0x4 ADD PUSH1 0x1 SWAP1 SLOAD SWAP1 PUSH2 0x100 EXP SWAP1 DIV PUSH20 0xFFFFFFFFFFFFFFFFFFFFFFFFFFFFFFFFFFFFFFFF AND SWAP1 POP DUP7 JUMP JUMPDEST PUSH0 PUSH1 0x20 MSTORE DUP1 PUSH0 MSTORE PUSH1 0x40 PUSH0 KECCAK256 PUSH0 SWAP2 POP SLOAD SWAP1 PUSH2 0x100 EXP SWAP1 DIV PUSH1 0xFF AND DUP2 JUMP JUMPDEST PUSH0 DUP1 ORIGIN PUSH20 0xFFFFFFFFFFFFFFFFFFFFFFFFFFFFFFFFFFFFFFFF AND PUSH20 0xFFFFFFFFFFFFFFFFFFFFFFFFFFFFFFFFFFFFFFFF AND DUP2 MSTORE PUSH1 0x20 ADD SWAP1 DUP2 MSTORE PUSH1 0x20 ADD PUSH0 KECCAK256 PUSH0 SWAP1 SLOAD SWAP1 PUSH2 0x100 EXP SWAP1 DIV PUSH1 0xFF AND PUSH2 0x2EE JUMPI PUSH1 0x40 MLOAD PUSH32 0x8C379A000000000000000000000000000000000000000000000000000000000 DUP2 MSTORE PUSH1 0x4 ADD PUSH2 0x2E5 SWAP1 PUSH2 0xD54 JUMP JUMPDEST PUSH1 0x40 MLOAD DUP1 SWAP2 SUB SWAP1 REVERT JUMPDEST PUSH0 PUSH1 0x1 PUSH0 DUP4 DUP2 MSTORE PUSH1 0x20 ADD SWAP1 DUP2 MSTORE PUSH1 0x20 ADD PUSH0 KECCAK256 SWAP1 POP DUP1 PUSH1 0x3 ADD SLOAD TIMESTAMP LT ISZERO PUSH2 0x349 JUMPI PUSH1 0x40 MLOAD PUSH32 0x8C379A000000000000000000000000000000000000000000000000000000000 DUP2 MSTORE PUSH1 0x4 ADD PUSH2 0x340 SWAP1 PUSH2 0xDBC JUMP JUMPDEST PUSH1 0x40 MLOAD DUP1 SWAP2 SUB SWAP1 REVERT JUMPDEST DUP1 PUSH1 0x4 ADD PUSH0 SWAP1 SLOAD SWAP1 PUSH2 0x100 EXP SWAP1 DIV PUSH1 0xFF AND ISZERO PUSH2 0x39A JUMPI PUSH1 0x40 MLOAD PUSH32 0x8C379A000000000000000000000000000000000000000000000000000000000 DUP2 MSTORE PUSH1 0x4 ADD PUSH2 0x391 SWAP1 PUSH2 0xE24 JUMP JUMPDEST PUSH1 0x40 MLOAD DUP1 SWAP2 SUB SWAP1 REVERT JUMPDEST PUSH0 DUP2 PUSH1 0x2 ADD SLOAD DUP3 PUSH1 0x1 ADD SLOAD GT SWAP1 POP PUSH1 0x1 DUP3 PUSH1 0x4 ADD PUSH0 PUSH2 0x100 EXP DUP2 SLOAD DUP2 PUSH1 0xFF MUL NOT AND SWAP1 DUP4 ISZERO ISZERO MUL OR SWAP1 SSTORE POP PUSH32 0x948F4A9CD986F1118C3FBD459F7A22B23C0693E1CA3EF06A6A8BE5AA7D39CC03 DUP4 DUP3 PUSH1 0x40 MLOAD PUSH2 0x3F5 SWAP3 SWAP2 SWAP1 PUSH2 0xE42 JUMP JUMPDEST PUSH1 0x40 MLOAD DUP1 SWAP2 SUB SWAP1 LOG1 POP POP POP JUMP JUMPDEST PUSH0 DUP1 ORIGIN PUSH20 0xFFFFFFFFFFFFFFFFFFFFFFFFFFFFFFFFFFFFFFFF AND PUSH20 0xFFFFFFFFFFFFFFFFFFFFFFFFFFFFFFFFFFFFFFFF AND DUP2 MSTORE PUSH1 0x20 ADD SWAP1 DUP2 MSTORE PUSH1 0x20 ADD PUSH0 KECCAK256 PUSH0 SWAP1 SLOAD SWAP1 PUSH2 0x100 EXP SWAP1 DIV PUSH1 0xFF AND ISZERO PUSH2 0x48B JUMPI PUSH1 0x40 MLOAD PUSH32 0x8C379A000000000000000000000000000000000000000000000000000000000 DUP2 MSTORE PUSH1 0x4 ADD PUSH2 0x482 SWAP1 PUSH2 0xEB3 JUMP JUMPDEST PUSH1 0x40 MLOAD DUP1 SWAP2 SUB SWAP1 REVERT JUMPDEST PUSH1 0x1 PUSH0 DUP1 ORIGIN PUSH20 0xFFFFFFFFFFFFFFFFFFFFFFFFFFFFFFFFFFFFFFFF AND PUSH20 0xFFFFFFFFFFFFFFFFFFFFFFFFFFFFFFFFFFFFFFFF AND DUP2 MSTORE PUSH1 0x20 ADD SWAP1 DUP2 MSTORE PUSH1 0x20 ADD PUSH0 KECCAK256 PUSH0 PUSH2 0x100 EXP DUP2 SLOAD DUP2 PUSH1 0xFF MUL NOT AND SWAP1 DUP4 ISZERO ISZERO MUL OR SWAP1 SSTORE POP PUSH32 0x92FABFA210DF88D92C2F5A07DDD43A985B208D8B19B7A78BA1284AA4B287D862 CALLER PUSH1 0x40 MLOAD PUSH2 0x50E SWAP2 SWAP1 PUSH2 0xED1 JUMP JUMPDEST PUSH1 0x40 MLOAD DUP1 SWAP2 SUB SWAP1 LOG1 JUMP JUMPDEST PUSH0 DUP1 ORIGIN PUSH20 0xFFFFFFFFFFFFFFFFFFFFFFFFFFFFFFFFFFFFFFFF AND PUSH20 0xFFFFFFFFFFFFFFFFFFFFFFFFFFFFFFFFFFFFFFFF AND DUP2 MSTORE PUSH1 0x20 ADD SWAP1 DUP2 MSTORE PUSH1 0x20 ADD PUSH0 KECCAK256 PUSH0 SWAP1 SLOAD SWAP1 PUSH2 0x100 EXP SWAP1 DIV PUSH1 0xFF AND PUSH2 0x5A0 JUMPI PUSH1 0x40 MLOAD PUSH32 0x8C379A000000000000000000000000000000000000000000000000000000000 DUP2 MSTORE PUSH1 0x4 ADD PUSH2 0x597 SWAP1 PUSH2 0xD54 JUMP JUMPDEST PUSH1 0x40 MLOAD DUP1 SWAP2 SUB SWAP1 REVERT JUMPDEST PUSH1 0x40 MLOAD DUP1 PUSH1 0xC0 ADD PUSH1 0x40 MSTORE DUP1 DUP3 DUP2 MSTORE PUSH1 0x20 ADD PUSH0 DUP2 MSTORE PUSH1 0x20 ADD PUSH0 DUP2 MSTORE PUSH1 0x20 ADD PUSH3 0x3F480 TIMESTAMP PUSH2 0x5CC SWAP2 SWAP1 PUSH2 0xF17 JUMP JUMPDEST DUP2 MSTORE PUSH1 0x20 ADD PUSH0 ISZERO ISZERO DUP2 MSTORE PUSH1 0x20 ADD ORIGIN PUSH20 0xFFFFFFFFFFFFFFFFFFFFFFFFFFFFFFFFFFFFFFFF AND DUP2 MSTORE POP PUSH1 0x1 PUSH0 PUSH1 0x2 SLOAD DUP2 MSTORE PUSH1 0x20 ADD SWAP1 DUP2 MSTORE PUSH1 0x20 ADD PUSH0 KECCAK256 PUSH0 DUP3 ADD MLOAD DUP2 PUSH0 ADD SWAP1 DUP2 PUSH2 0x619 SWAP2 SWAP1 PUSH2 0x10E7 JUMP JUMPDEST POP PUSH1 0x20 DUP3 ADD MLOAD DUP2 PUSH1 0x1 ADD SSTORE PUSH1 0x40 DUP3 ADD MLOAD DUP2 PUSH1 0x2 ADD SSTORE PUSH1 0x60 DUP3 ADD MLOAD DUP2 PUSH1 0x3 ADD SSTORE PUSH1 0x80 DUP3 ADD MLOAD DUP2 PUSH1 0x4 ADD PUSH0 PUSH2 0x100 EXP DUP2 SLOAD DUP2 PUSH1 0xFF MUL NOT AND SWAP1 DUP4 ISZERO ISZERO MUL OR SWAP1 SSTORE POP PUSH1 0xA0 DUP3 ADD MLOAD DUP2 PUSH1 0x4 ADD PUSH1 0x1 PUSH2 0x100 EXP DUP2 SLOAD DUP2 PUSH20 0xFFFFFFFFFFFFFFFFFFFFFFFFFFFFFFFFFFFFFFFF MUL NOT AND SWAP1 DUP4 PUSH20 0xFFFFFFFFFFFFFFFFFFFFFFFFFFFFFFFFFFFFFFFF AND MUL OR SWAP1 SSTORE POP SWAP1 POP POP PUSH32 0xC8C078BFEE58E5822588F08B4509ED1EB5058E03F666CCA84DD2D44BF5C288A8 PUSH1 0x2 SLOAD DUP3 ORIGIN PUSH1 0x40 MLOAD PUSH2 0x6D6 SWAP4 SWAP3 SWAP2 SWAP1 PUSH2 0x11B6 JUMP JUMPDEST PUSH1 0x40 MLOAD DUP1 SWAP2 SUB SWAP1 LOG1 PUSH1 0x2 PUSH0 DUP2 SLOAD DUP1 SWAP3 SWAP2 SWAP1 PUSH2 0x6F0 SWAP1 PUSH2 0x11F2 JUMP JUMPDEST SWAP2 SWAP1 POP SSTORE POP POP JUMP JUMPDEST PUSH0 DUP1 ORIGIN PUSH20 0xFFFFFFFFFFFFFFFFFFFFFFFFFFFFFFFFFFFFFFFF AND PUSH20 0xFFFFFFFFFFFFFFFFFFFFFFFFFFFFFFFFFFFFFFFF AND DUP2 MSTORE PUSH1 0x20 ADD SWAP1 DUP2 MSTORE PUSH1 0x20 ADD PUSH0 KECCAK256 PUSH0 SWAP1 SLOAD SWAP1 PUSH2 0x100 EXP SWAP1 DIV PUSH1 0xFF AND PUSH2 0x780 JUMPI PUSH1 0x40 MLOAD PUSH32 0x8C379A000000000000000000000000000000000000000000000000000000000 DUP2 MSTORE PUSH1 0x4 ADD PUSH2 0x777 SWAP1 PUSH2 0xD54 JUMP JUMPDEST PUSH1 0x40 MLOAD DUP1 SWAP2 SUB SWAP1 REVERT JUMPDEST PUSH0 PUSH1 0x1 PUSH0 DUP5 DUP2 MSTORE PUSH1 0x20 ADD SWAP1 DUP2 MSTORE PUSH1 0x20 ADD PUSH0 KECCAK256 SWAP1 POP DUP1 PUSH1 0x3 ADD SLOAD TIMESTAMP LT PUSH2 0x7DA JUMPI PUSH1 0x40 MLOAD PUSH32 0x8C379A000000000000000000000000000000000000000000000000000000000 DUP2 MSTORE PUSH1 0x4 ADD PUSH2 0x7D1 SWAP1 PUSH2 0x1283 JUMP JUMPDEST PUSH1 0x40 MLOAD DUP1 SWAP2 SUB SWAP1 REVERT JUMPDEST DUP2 ISZERO PUSH2 0x7FE JUMPI DUP1 PUSH1 0x1 ADD PUSH0 DUP2 SLOAD DUP1 SWAP3 SWAP2 SWAP1 PUSH2 0x7F4 SWAP1 PUSH2 0x11F2 JUMP JUMPDEST SWAP2 SWAP1 POP SSTORE POP PUSH2 0x818 JUMP JUMPDEST DUP1 PUSH1 0x2 ADD PUSH0 DUP2 SLOAD DUP1 SWAP3 SWAP2 SWAP1 PUSH2 0x812 SWAP1 PUSH2 0x11F2 JUMP JUMPDEST SWAP2 SWAP1 POP SSTORE POP JUMPDEST PUSH32 0xF2913DBE661EE2ACC4A046D8FBCDC792373BDA34C41C6086484B5345E5785E5F DUP4 CALLER DUP5 PUSH1 0x40 MLOAD PUSH2 0x84B SWAP4 SWAP3 SWAP2 SWAP1 PUSH2 0x12A1 JUMP JUMPDEST PUSH1 0x40 MLOAD DUP1 SWAP2 SUB SWAP1 LOG1 POP POP POP JUMP JUMPDEST PUSH1 0x2 SLOAD DUP2 JUMP JUMPDEST PUSH0 PUSH1 0x40 MLOAD SWAP1 POP SWAP1 JUMP JUMPDEST PUSH0 DUP1 REVERT JUMPDEST PUSH0 DUP1 REVERT JUMPDEST PUSH0 DUP2 SWAP1 POP SWAP2 SWAP1 POP JUMP JUMPDEST PUSH2 0x881 DUP2 PUSH2 0x86F JUMP JUMPDEST DUP2 EQ PUSH2 0x88B JUMPI PUSH0 DUP1 REVERT JUMPDEST POP JUMP JUMPDEST PUSH0 DUP2 CALLDATALOAD SWAP1 POP PUSH2 0x89C DUP2 PUSH2 0x878 JUMP JUMPDEST SWAP3 SWAP2 POP POP JUMP JUMPDEST PUSH0 PUSH1 0x20 DUP3 DUP5 SUB SLT ISZERO PUSH2 0x8B7 JUMPI PUSH2 0x8B6 PUSH2 0x867 JUMP JUMPDEST JUMPDEST PUSH0 PUSH2 0x8C4 DUP5 DUP3 DUP6 ADD PUSH2 0x88E JUMP JUMPDEST SWAP2 POP POP SWAP3 SWAP2 POP POP JUMP JUMPDEST PUSH0 DUP2 MLOAD SWAP1 POP SWAP2 SWAP1 POP JUMP JUMPDEST PUSH0 DUP3 DUP3 MSTORE PUSH1 0x20 DUP3 ADD SWAP1 POP SWAP3 SWAP2 POP POP JUMP JUMPDEST PUSH0 JUMPDEST DUP4 DUP2 LT ISZERO PUSH2 0x904 JUMPI DUP1 DUP3 ADD MLOAD DUP2 DUP5 ADD MSTORE PUSH1 0x20 DUP2 ADD SWAP1 POP PUSH2 0x8E9 JUMP JUMPDEST PUSH0 DUP5 DUP5 ADD MSTORE POP POP POP POP JUMP JUMPDEST PUSH0 PUSH1 0x1F NOT PUSH1 0x1F DUP4 ADD AND SWAP1 POP SWAP2 SWAP1 POP JUMP JUMPDEST PUSH0 PUSH2 0x929 DUP3 PUSH2 0x8CD JUMP JUMPDEST PUSH2 0x933 DUP2 DUP6 PUSH2 0x8D7 JUMP JUMPDEST SWAP4 POP PUSH2 0x943 DUP2 DUP6 PUSH1 0x20 DUP7 ADD PUSH2 0x8E7 JUMP JUMPDEST PUSH2 0x94C DUP2 PUSH2 0x90F JUMP JUMPDEST DUP5 ADD SWAP2 POP POP SWAP3 SWAP2 POP POP JUMP JUMPDEST PUSH2 0x960 DUP2 PUSH2 0x86F JUMP JUMPDEST DUP3 MSTORE POP POP JUMP JUMPDEST PUSH0 DUP2 ISZERO ISZERO SWAP1 POP SWAP2 SWAP1 POP JUMP JUMPDEST PUSH2 0x97A DUP2 PUSH2 0x966 JUMP JUMPDEST DUP3 MSTORE POP POP JUMP JUMPDEST PUSH0 PUSH20 0xFFFFFFFFFFFFFFFFFFFFFFFFFFFFFFFFFFFFFFFF DUP3 AND SWAP1 POP SWAP2 SWAP1 POP JUMP JUMPDEST PUSH0 PUSH2 0x9A9 DUP3 PUSH2 0x980 JUMP JUMPDEST SWAP1 POP SWAP2 SWAP1 POP JUMP JUMPDEST PUSH2 0x9B9 DUP2 PUSH2 0x99F JUMP JUMPDEST DUP3 MSTORE POP POP JUMP JUMPDEST PUSH0 PUSH1 0xC0 DUP3 ADD SWAP1 POP DUP2 DUP2 SUB PUSH0 DUP4 ADD MSTORE PUSH2 0x9D7 DUP2 DUP10 PUSH2 0x91F JUMP JUMPDEST SWAP1 POP PUSH2 0x9E6 PUSH1 0x20 DUP4 ADD DUP9 PUSH2 0x957 JUMP JUMPDEST PUSH2 0x9F3 PUSH1 0x40 DUP4 ADD DUP8 PUSH2 0x957 JUMP JUMPDEST PUSH2 0xA00 PUSH1 0x60 DUP4 ADD DUP7 PUSH2 0x957 JUMP JUMPDEST PUSH2 0xA0D PUSH1 0x80 DUP4 ADD DUP6 PUSH2 0x971 JUMP JUMPDEST PUSH2 0xA1A PUSH1 0xA0 DUP4 ADD DUP5 PUSH2 0x9B0 JUMP JUMPDEST SWAP8 SWAP7 POP POP POP POP POP POP POP JUMP JUMPDEST PUSH2 0xA2E DUP2 PUSH2 0x99F JUMP JUMPDEST DUP2 EQ PUSH2 0xA38 JUMPI PUSH0 DUP1 REVERT JUMPDEST POP JUMP JUMPDEST PUSH0 DUP2 CALLDATALOAD SWAP1 POP PUSH2 0xA49 DUP2 PUSH2 0xA25 JUMP JUMPDEST SWAP3 SWAP2 POP POP JUMP JUMPDEST PUSH0 PUSH1 0x20 DUP3 DUP5 SUB SLT ISZERO PUSH2 0xA64 JUMPI PUSH2 0xA63 PUSH2 0x867 JUMP JUMPDEST JUMPDEST PUSH0 PUSH2 0xA71 DUP5 DUP3 DUP6 ADD PUSH2 0xA3B JUMP JUMPDEST SWAP2 POP POP SWAP3 SWAP2 POP POP JUMP JUMPDEST PUSH0 PUSH1 0x20 DUP3 ADD SWAP1 POP PUSH2 0xA8D PUSH0 DUP4 ADD DUP5 PUSH2 0x971 JUMP JUMPDEST SWAP3 SWAP2 POP POP JUMP JUMPDEST PUSH0 DUP1 REVERT JUMPDEST PUSH0 DUP1 REVERT JUMPDEST PUSH32 0x4E487B7100000000000000000000000000000000000000000000000000000000 PUSH0 MSTORE PUSH1 0x41 PUSH1 0x4 MSTORE PUSH1 0x24 PUSH0 REVERT JUMPDEST PUSH2 0xAD1 DUP3 PUSH2 0x90F JUMP JUMPDEST DUP2 ADD DUP2 DUP2 LT PUSH8 0xFFFFFFFFFFFFFFFF DUP3 GT OR ISZERO PUSH2 0xAF0 JUMPI PUSH2 0xAEF PUSH2 0xA9B JUMP JUMPDEST JUMPDEST DUP1 PUSH1 0x40 MSTORE POP POP POP JUMP JUMPDEST PUSH0 PUSH2 0xB02 PUSH2 0x85E JUMP JUMPDEST SWAP1 POP PUSH2 0xB0E DUP3 DUP3 PUSH2 0xAC8 JUMP JUMPDEST SWAP2 SWAP1 POP JUMP JUMPDEST PUSH0 PUSH8 0xFFFFFFFFFFFFFFFF DUP3 GT ISZERO PUSH2 0xB2D JUMPI PUSH2 0xB2C PUSH2 0xA9B JUMP JUMPDEST JUMPDEST PUSH2 0xB36 DUP3 PUSH2 0x90F JUMP JUMPDEST SWAP1 POP PUSH1 0x20 DUP2 ADD SWAP1 POP SWAP2 SWAP1 POP JUMP JUMPDEST DUP3 DUP2 DUP4 CALLDATACOPY PUSH0 DUP4 DUP4 ADD MSTORE POP POP POP JUMP JUMPDEST PUSH0 PUSH2 0xB63 PUSH2 0xB5E DUP5 PUSH2 0xB13 JUMP JUMPDEST PUSH2 0xAF9 JUMP JUMPDEST SWAP1 POP DUP3 DUP2 MSTORE PUSH1 0x20 DUP2 ADD DUP5 DUP5 DUP5 ADD GT ISZERO PUSH2 0xB7F JUMPI PUSH2 0xB7E PUSH2 0xA97 JUMP JUMPDEST JUMPDEST PUSH2 0xB8A DUP5 DUP3 DUP6 PUSH2 0xB43 JUMP JUMPDEST POP SWAP4 SWAP3 POP POP POP JUMP JUMPDEST PUSH0 DUP3 PUSH1 0x1F DUP4 ADD SLT PUSH2 0xBA6 JUMPI PUSH2 0xBA5 PUSH2 0xA93 JUMP JUMPDEST JUMPDEST DUP2 CALLDATALOAD PUSH2 0xBB6 DUP5 DUP3 PUSH1 0x20 DUP7 ADD PUSH2 0xB51 JUMP JUMPDEST SWAP2 POP POP SWAP3 SWAP2 POP POP JUMP JUMPDEST PUSH0 PUSH1 0x20 DUP3 DUP5 SUB SLT ISZERO PUSH2 0xBD4 JUMPI PUSH2 0xBD3 PUSH2 0x867 JUMP JUMPDEST JUMPDEST PUSH0 DUP3 ADD CALLDATALOAD PUSH8 0xFFFFFFFFFFFFFFFF DUP2 GT ISZERO PUSH2 0xBF1 JUMPI PUSH2 0xBF0 PUSH2 0x86B JUMP JUMPDEST JUMPDEST PUSH2 0xBFD DUP5 DUP3 DUP6 ADD PUSH2 0xB92 JUMP JUMPDEST SWAP2 POP POP SWAP3 SWAP2 POP POP JUMP JUMPDEST PUSH2 0xC0F DUP2 PUSH2 0x966 JUMP JUMPDEST DUP2 EQ PUSH2 0xC19 JUMPI PUSH0 DUP1 REVERT JUMPDEST POP JUMP JUMPDEST PUSH0 DUP2 CALLDATALOAD SWAP1 POP PUSH2 0xC2A DUP2 PUSH2 0xC06 JUMP JUMPDEST SWAP3 SWAP2 POP POP JUMP JUMPDEST PUSH0 DUP1 PUSH1 0x40 DUP4 DUP6 SUB SLT ISZERO PUSH2 0xC46 JUMPI PUSH2 0xC45 PUSH2 0x867 JUMP JUMPDEST JUMPDEST PUSH0 PUSH2 0xC53 DUP6 DUP3 DUP7 ADD PUSH2 0x88E JUMP JUMPDEST SWAP3 POP POP PUSH1 0x20 PUSH2 0xC64 DUP6 DUP3 DUP7 ADD PUSH2 0xC1C JUMP JUMPDEST SWAP2 POP POP SWAP3 POP SWAP3 SWAP1 POP JUMP JUMPDEST PUSH0 PUSH1 0x20 DUP3 ADD SWAP1 POP PUSH2 0xC81 PUSH0 DUP4 ADD DUP5 PUSH2 0x957 JUMP JUMPDEST SWAP3 SWAP2 POP POP JUMP JUMPDEST PUSH32 0x4E487B7100000000000000000000000000000000000000000000000000000000 PUSH0 MSTORE PUSH1 0x22 PUSH1 0x4 MSTORE PUSH1 0x24 PUSH0 REVERT JUMPDEST PUSH0 PUSH1 0x2 DUP3 DIV SWAP1 POP PUSH1 0x1 DUP3 AND DUP1 PUSH2 0xCCB JUMPI PUSH1 0x7F DUP3 AND SWAP2 POP JUMPDEST PUSH1 0x20 DUP3 LT DUP2 SUB PUSH2 0xCDE JUMPI PUSH2 0xCDD PUSH2 0xC87 JUMP JUMPDEST JUMPDEST POP SWAP2 SWAP1 POP JUMP JUMPDEST PUSH32 0x4F6E6C792044414F206D656D626572732063616E20706572666F726D20746869 PUSH0 DUP3 ADD MSTORE PUSH32 0x7320616374696F6E000000000000000000000000000000000000000000000000 PUSH1 0x20 DUP3 ADD MSTORE POP JUMP JUMPDEST PUSH0 PUSH2 0xD3E PUSH1 0x28 DUP4 PUSH2 0x8D7 JUMP JUMPDEST SWAP2 POP PUSH2 0xD49 DUP3 PUSH2 0xCE4 JUMP JUMPDEST PUSH1 0x40 DUP3 ADD SWAP1 POP SWAP2 SWAP1 POP JUMP JUMPDEST PUSH0 PUSH1 0x20 DUP3 ADD SWAP1 POP DUP2 DUP2 SUB PUSH0 DUP4 ADD MSTORE PUSH2 0xD6B DUP2 PUSH2 0xD32 JUMP JUMPDEST SWAP1 POP SWAP2 SWAP1 POP JUMP JUMPDEST PUSH32 0x566F74696E6720706572696F64206973207374696C6C20616374697665000000 PUSH0 DUP3 ADD MSTORE POP JUMP JUMPDEST PUSH0 PUSH2 0xDA6 PUSH1 0x1D DUP4 PUSH2 0x8D7 JUMP JUMPDEST SWAP2 POP PUSH2 0xDB1 DUP3 PUSH2 0xD72 JUMP JUMPDEST PUSH1 0x20 DUP3 ADD SWAP1 POP SWAP2 SWAP1 POP JUMP JUMPDEST PUSH0 PUSH1 0x20 DUP3 ADD SWAP1 POP DUP2 DUP2 SUB PUSH0 DUP4 ADD MSTORE PUSH2 0xDD3 DUP2 PUSH2 0xD9A JUMP JUMPDEST SWAP1 POP SWAP2 SWAP1 POP JUMP JUMPDEST PUSH32 0x50726F706F73616C20616C726561647920657865637574656400000000000000 PUSH0 DUP3 ADD MSTORE POP JUMP JUMPDEST PUSH0 PUSH2 0xE0E PUSH1 0x19 DUP4 PUSH2 0x8D7 JUMP JUMPDEST SWAP2 POP PUSH2 0xE19 DUP3 PUSH2 0xDDA JUMP JUMPDEST PUSH1 0x20 DUP3 ADD SWAP1 POP SWAP2 SWAP1 POP JUMP JUMPDEST PUSH0 PUSH1 0x20 DUP3 ADD SWAP1 POP DUP2 DUP2 SUB PUSH0 DUP4 ADD MSTORE PUSH2 0xE3B DUP2 PUSH2 0xE02 JUMP JUMPDEST SWAP1 POP SWAP2 SWAP1 POP JUMP JUMPDEST PUSH0 PUSH1 0x40 DUP3 ADD SWAP1 POP PUSH2 0xE55 PUSH0 DUP4 ADD DUP6 PUSH2 0x957 JUMP JUMPDEST PUSH2 0xE62 PUSH1 0x20 DUP4 ADD DUP5 PUSH2 0x971 JUMP JUMPDEST SWAP4 SWAP3 POP POP POP JUMP JUMPDEST PUSH32 0x416C72656164792061206D656D62657200000000000000000000000000000000 PUSH0 DUP3 ADD MSTORE POP JUMP JUMPDEST PUSH0 PUSH2 0xE9D PUSH1 0x10 DUP4 PUSH2 0x8D7 JUMP JUMPDEST SWAP2 POP PUSH2 0xEA8 DUP3 PUSH2 0xE69 JUMP JUMPDEST PUSH1 0x20 DUP3 ADD SWAP1 POP SWAP2 SWAP1 POP JUMP JUMPDEST PUSH0 PUSH1 0x20 DUP3 ADD SWAP1 POP DUP2 DUP2 SUB PUSH0 DUP4 ADD MSTORE PUSH2 0xECA DUP2 PUSH2 0xE91 JUMP JUMPDEST SWAP1 POP SWAP2 SWAP1 POP JUMP JUMPDEST PUSH0 PUSH1 0x20 DUP3 ADD SWAP1 POP PUSH2 0xEE4 PUSH0 DUP4 ADD DUP5 PUSH2 0x9B0 JUMP JUMPDEST SWAP3 SWAP2 POP POP JUMP JUMPDEST PUSH32 0x4E487B7100000000000000000000000000000000000000000000000000000000 PUSH0 MSTORE PUSH1 0x11 PUSH1 0x4 MSTORE PUSH1 0x24 PUSH0 REVERT JUMPDEST PUSH0 PUSH2 0xF21 DUP3 PUSH2 0x86F JUMP JUMPDEST SWAP2 POP PUSH2 0xF2C DUP4 PUSH2 0x86F JUMP JUMPDEST SWAP3 POP DUP3 DUP3 ADD SWAP1 POP DUP1 DUP3 GT ISZERO PUSH2 0xF44 JUMPI PUSH2 0xF43 PUSH2 0xEEA JUMP JUMPDEST JUMPDEST SWAP3 SWAP2 POP POP JUMP JUMPDEST PUSH0 DUP2 SWAP1 POP DUP2 PUSH0 MSTORE PUSH1 0x20 PUSH0 KECCAK256 SWAP1 POP SWAP2 SWAP1 POP JUMP JUMPDEST PUSH0 PUSH1 0x20 PUSH1 0x1F DUP4 ADD DIV SWAP1 POP SWAP2 SWAP1 POP JUMP JUMPDEST PUSH0 DUP3 DUP3 SHL SWAP1 POP SWAP3 SWAP2 POP POP JUMP JUMPDEST PUSH0 PUSH1 0x8 DUP4 MUL PUSH2 0xFA6 PUSH32 0xFFFFFFFFFFFFFFFFFFFFFFFFFFFFFFFFFFFFFFFFFFFFFFFFFFFFFFFFFFFFFFFF DUP3 PUSH2 0xF6B JUMP JUMPDEST PUSH2 0xFB0 DUP7 DUP4 PUSH2 0xF6B JUMP JUMPDEST SWAP6 POP DUP1 NOT DUP5 AND SWAP4 POP DUP1 DUP7 AND DUP5 OR SWAP3 POP POP POP SWAP4 SWAP3 POP POP POP JUMP JUMPDEST PUSH0 DUP2 SWAP1 POP SWAP2 SWAP1 POP JUMP JUMPDEST PUSH0 PUSH2 0xFEB PUSH2 0xFE6 PUSH2 0xFE1 DUP5 PUSH2 0x86F JUMP JUMPDEST PUSH2 0xFC8 JUMP JUMPDEST PUSH2 0x86F JUMP JUMPDEST SWAP1 POP SWAP2 SWAP1 POP JUMP JUMPDEST PUSH0 DUP2 SWAP1 POP SWAP2 SWAP1 POP JUMP JUMPDEST PUSH2 0x1004 DUP4 PUSH2 0xFD1 JUMP JUMPDEST PUSH2 0x1018 PUSH2 0x1010 DUP3 PUSH2 0xFF2 JUMP JUMPDEST DUP5 DUP5 SLOAD PUSH2 0xF77 JUMP JUMPDEST DUP3 SSTORE POP POP POP POP JUMP JUMPDEST PUSH0 SWAP1 JUMP JUMPDEST PUSH2 0x102C PUSH2 0x1020 JUMP JUMPDEST PUSH2 0x1037 DUP2 DUP5 DUP5 PUSH2 0xFFB JUMP JUMPDEST POP POP POP JUMP JUMPDEST JUMPDEST DUP2 DUP2 LT ISZERO PUSH2 0x105A JUMPI PUSH2 0x104F PUSH0 DUP3 PUSH2 0x1024 JUMP JUMPDEST PUSH1 0x1 DUP2 ADD SWAP1 POP PUSH2 0x103D JUMP JUMPDEST POP POP JUMP JUMPDEST PUSH1 0x1F DUP3 GT ISZERO PUSH2 0x109F JUMPI PUSH2 0x1070 DUP2 PUSH2 0xF4A JUMP JUMPDEST PUSH2 0x1079 DUP5 PUSH2 0xF5C JUMP JUMPDEST DUP2 ADD PUSH1 0x20 DUP6 LT ISZERO PUSH2 0x1088 JUMPI DUP2 SWAP1 POP JUMPDEST PUSH2 0x109C PUSH2 0x1094 DUP6 PUSH2 0xF5C JUMP JUMPDEST DUP4 ADD DUP3 PUSH2 0x103C JUMP JUMPDEST POP POP JUMPDEST POP POP POP JUMP JUMPDEST PUSH0 DUP3 DUP3 SHR SWAP1 POP SWAP3 SWAP2 POP POP JUMP JUMPDEST PUSH0 PUSH2 0x10BF PUSH0 NOT DUP5 PUSH1 0x8 MUL PUSH2 0x10A4 JUMP JUMPDEST NOT DUP1 DUP4 AND SWAP2 POP POP SWAP3 SWAP2 POP POP JUMP JUMPDEST PUSH0 PUSH2 0x10D7 DUP4 DUP4 PUSH2 0x10B0 JUMP JUMPDEST SWAP2 POP DUP3 PUSH1 0x2 MUL DUP3 OR SWAP1 POP SWAP3 SWAP2 POP POP JUMP JUMPDEST PUSH2 0x10F0 DUP3 PUSH2 0x8CD JUMP JUMPDEST PUSH8 0xFFFFFFFFFFFFFFFF DUP2 GT ISZERO PUSH2 0x1109 JUMPI PUSH2 0x1108 PUSH2 0xA9B JUMP JUMPDEST JUMPDEST PUSH2 0x1113 DUP3 SLOAD PUSH2 0xCB4 JUMP JUMPDEST PUSH2 0x111E DUP3 DUP3 DUP6 PUSH2 0x105E JUMP JUMPDEST PUSH0 PUSH1 0x20 SWAP1 POP PUSH1 0x1F DUP4 GT PUSH1 0x1 DUP2 EQ PUSH2 0x114F JUMPI PUSH0 DUP5 ISZERO PUSH2 0x113D JUMPI DUP3 DUP8 ADD MLOAD SWAP1 POP JUMPDEST PUSH2 0x1147 DUP6 DUP3 PUSH2 0x10CC JUMP JUMPDEST DUP7 SSTORE POP PUSH2 0x11AE JUMP JUMPDEST PUSH1 0x1F NOT DUP5 AND PUSH2 0x115D DUP7 PUSH2 0xF4A JUMP JUMPDEST PUSH0 JUMPDEST DUP3 DUP2 LT ISZERO PUSH2 0x1184 JUMPI DUP5 DUP10 ADD MLOAD DUP3 SSTORE PUSH1 0x1 DUP3 ADD SWAP2 POP PUSH1 0x20 DUP6 ADD SWAP5 POP PUSH1 0x20 DUP2 ADD SWAP1 POP PUSH2 0x115F JUMP JUMPDEST DUP7 DUP4 LT ISZERO PUSH2 0x11A1 JUMPI DUP5 DUP10 ADD MLOAD PUSH2 0x119D PUSH1 0x1F DUP10 AND DUP3 PUSH2 0x10B0 JUMP JUMPDEST DUP4 SSTORE POP JUMPDEST PUSH1 0x1 PUSH1 0x2 DUP9 MUL ADD DUP9 SSTORE POP POP POP JUMPDEST POP POP POP POP POP POP JUMP JUMPDEST PUSH0 PUSH1 0x60 DUP3 ADD SWAP1 POP PUSH2 0x11C9 PUSH0 DUP4 ADD DUP7 PUSH2 0x957 JUMP JUMPDEST DUP2 DUP2 SUB PUSH1 0x20 DUP4 ADD MSTORE PUSH2 0x11DB DUP2 DUP6 PUSH2 0x91F JUMP JUMPDEST SWAP1 POP PUSH2 0x11EA PUSH1 0x40 DUP4 ADD DUP5 PUSH2 0x9B0 JUMP JUMPDEST SWAP5 SWAP4 POP POP POP POP JUMP JUMPDEST PUSH0 PUSH2 0x11FC DUP3 PUSH2 0x86F JUMP JUMPDEST SWAP2 POP PUSH32 0xFFFFFFFFFFFFFFFFFFFFFFFFFFFFFFFFFFFFFFFFFFFFFFFFFFFFFFFFFFFFFFFF DUP3 SUB PUSH2 0x122E JUMPI PUSH2 0x122D PUSH2 0xEEA JUMP JUMPDEST JUMPDEST PUSH1 0x1 DUP3 ADD SWAP1 POP SWAP2 SWAP1 POP JUMP JUMPDEST PUSH32 0x566F74696E6720706572696F642068617320656E646564000000000000000000 PUSH0 DUP3 ADD MSTORE POP JUMP JUMPDEST PUSH0 PUSH2 0x126D PUSH1 0x17 DUP4 PUSH2 0x8D7 JUMP JUMPDEST SWAP2 POP PUSH2 0x1278 DUP3 PUSH2 0x1239 JUMP JUMPDEST PUSH1 0x20 DUP3 ADD SWAP1 POP SWAP2 SWAP1 POP JUMP JUMPDEST PUSH0 PUSH1 0x20 DUP3 ADD SWAP1 POP DUP2 DUP2 SUB PUSH0 DUP4 ADD MSTORE PUSH2 0x129A DUP2 PUSH2 0x1261 JUMP JUMPDEST SWAP1 POP SWAP2 SWAP1 POP JUMP JUMPDEST PUSH0 PUSH1 0x60 DUP3 ADD SWAP1 POP PUSH2 0x12B4 PUSH0 DUP4 ADD DUP7 PUSH2 0x957 JUMP JUMPDEST PUSH2 0x12C1 PUSH1 0x20 DUP4 ADD DUP6 PUSH2 0x9B0 JUMP JUMPDEST PUSH2 0x12CE PUSH1 0x40 DUP4 ADD DUP5 PUSH2 0x971 JUMP JUMPDEST SWAP5 SWAP4 POP POP POP POP JUMP INVALID LOG2 PUSH5 0x6970667358 0x22 SLT KECCAK256 0xB6 PUSH13 0x5005565A268E2ABE9BBDDC0B61 0xAA 0xB8 STOP SLT PUSH12 0x6BCE5D9760E9606FCB49E77E PUSH5 0x736F6C6343 STOP ADDMOD AND STOP CALLER "
				},
				"gasEstimates": {
					"creation": {
						"codeDepositCost": "975200",
						"executionCost": "1012",
						"totalCost": "976212"
					},
					"external": {
						"createProposal(string)": "infinite",
						"executeProposal(uint256)": "infinite",
						"members(address)": "2855",
						"proposalCount()": "2491",
						"proposals(uint256)": "infinite",
						"registerAsMember()": "27973",
						"vote(uint256,bool)": "infinite"
					}
				},
				"methodIdentifiers": {
					"createProposal(string)": "49c2a1a6",
					"executeProposal(uint256)": "0d61b519",
					"members(address)": "08ae4b0c",
					"proposalCount()": "da35c664",
					"proposals(uint256)": "013cf08b",
					"registerAsMember()": "4217df12",
					"vote(uint256,bool)": "c9d27afe"
				}
			},
			"storageLayout": {
				"storage": [
					{
						"astId": 18,
						"contract": "renDAO.sol:RentDAO",
						"label": "members",
						"offset": 0,
						"slot": "0",
						"type": "t_mapping(t_address,t_bool)"
					},
					{
						"astId": 23,
						"contract": "renDAO.sol:RentDAO",
						"label": "proposals",
						"offset": 0,
						"slot": "1",
						"type": "t_mapping(t_uint256,t_struct(Proposal)14_storage)"
					},
					{
						"astId": 25,
						"contract": "renDAO.sol:RentDAO",
						"label": "proposalCount",
						"offset": 0,
						"slot": "2",
						"type": "t_uint256"
					}
				],
				"types": {
					"t_address": {
						"encoding": "inplace",
						"label": "address",
						"numberOfBytes": "20"
					},
					"t_bool": {
						"encoding": "inplace",
						"label": "bool",
						"numberOfBytes": "1"
					},
					"t_mapping(t_address,t_bool)": {
						"encoding": "mapping",
						"key": "t_address",
						"label": "mapping(address => bool)",
						"numberOfBytes": "32",
						"value": "t_bool"
					},
					"t_mapping(t_uint256,t_struct(Proposal)14_storage)": {
						"encoding": "mapping",
						"key": "t_uint256",
						"label": "mapping(uint256 => struct RentDAO.Proposal)",
						"numberOfBytes": "32",
						"value": "t_struct(Proposal)14_storage"
					},
					"t_string_storage": {
						"encoding": "bytes",
						"label": "string",
						"numberOfBytes": "32"
					},
					"t_struct(Proposal)14_storage": {
						"encoding": "inplace",
						"label": "struct RentDAO.Proposal",
						"members": [
							{
								"astId": 3,
								"contract": "renDAO.sol:RentDAO",
								"label": "description",
								"offset": 0,
								"slot": "0",
								"type": "t_string_storage"
							},
							{
								"astId": 5,
								"contract": "renDAO.sol:RentDAO",
								"label": "votesFor",
								"offset": 0,
								"slot": "1",
								"type": "t_uint256"
							},
							{
								"astId": 7,
								"contract": "renDAO.sol:RentDAO",
								"label": "votesAgainst",
								"offset": 0,
								"slot": "2",
								"type": "t_uint256"
							},
							{
								"astId": 9,
								"contract": "renDAO.sol:RentDAO",
								"label": "deadline",
								"offset": 0,
								"slot": "3",
								"type": "t_uint256"
							},
							{
								"astId": 11,
								"contract": "renDAO.sol:RentDAO",
								"label": "executed",
								"offset": 0,
								"slot": "4",
								"type": "t_bool"
							},
							{
								"astId": 13,
								"contract": "renDAO.sol:RentDAO",
								"label": "proposer",
								"offset": 1,
								"slot": "4",
								"type": "t_address"
							}
						],
						"numberOfBytes": "160"
					},
					"t_uint256": {
						"encoding": "inplace",
						"label": "uint256",
						"numberOfBytes": "32"
					}
				}
			},
			"userdoc": {
				"kind": "user",
				"methods": {},
				"version": 1
			}
		}
	}
}