{
	"data": {
		"bytecode": {
			"linkReferences": {},
			"object": "608060405234801562000010575f80fd5b5060405162003ad338038062003ad3833981810160405281019062000036919062000122565b815f806101000a81548173ffffffffffffffffffffffffffffffffffffffff021916908373ffffffffffffffffffffffffffffffffffffffff1602179055508060015f6101000a81548173ffffffffffffffffffffffffffffffffffffffff021916908373ffffffffffffffffffffffffffffffffffffffff160217905550505062000167565b5f80fd5b5f73ffffffffffffffffffffffffffffffffffffffff82169050919050565b5f620000ec82620000c1565b9050919050565b620000fe81620000e0565b811462000109575f80fd5b50565b5f815190506200011c81620000f3565b92915050565b5f80604083850312156200013b576200013a620000bd565b5b5f6200014a858286016200010c565b92505060206200015d858286016200010c565b9150509250929050565b61395e80620001755f395ff3fe608060405234801561000f575f80fd5b506004361061012a575f3560e01c80636b842f7f116100ab578063c2b7b8681161006f578063c2b7b86814610379578063c8af1d6b14610395578063c9d27afe146103c5578063d02982cf146103e1578063da35c664146103ff5761012a565b80636b842f7f146102c057806370e84f9e146102f0578063a28889e114610323578063a4f5df1214610341578063b8418fac1461035d5761012a565b80634217df12116100f25780634217df121461020257806343b326731461020c5780634406a2fd1461022857806349c2a1a614610258578063564a565d146102885761012a565b8063013cf08b1461012e57806303988f841461016357806303d0a81a1461019a57806308ae4b0c146101b65780630d61b519146101e6575b5f80fd5b610148600480360381019061014391906124b9565b61041d565b60405161015a969594939291906125d6565b60405180910390f35b61017d600480360381019061017891906124b9565b610507565b60405161019198979695949392919061263c565b60405180910390f35b6101b460048036038101906101af91906126e9565b610628565b005b6101d060048036038101906101cb9190612751565b610654565b6040516101dd919061277c565b60405180910390f35b61020060048036038101906101fb91906124b9565b610671565b005b61020a61089d565b005b610226600480360381019061022191906128c1565b610b1e565b005b610242600480360381019061023d91906124b9565b610e19565b60405161024f9190612a9b565b60405180910390f35b610272600480360381019061026d9190612abb565b611006565b60405161027f919061277c565b60405180910390f35b6102a2600480360381019061029d91906124b9565b611165565b6040516102b799989796959493929190612b02565b60405180910390f35b6102da60048036038101906102d591906124b9565b6112e7565b6040516102e7919061277c565b60405180910390f35b61030a600480360381019061030591906124b9565b611304565b60405161031a9493929190612b9b565b60405180910390f35b61032b6113e1565b6040516103389190612be5565b60405180910390f35b61035b600480360381019061035691906126e9565b6113e7565b005b61037760048036038101906103729190612bfe565b611654565b005b610393600480360381019061038e91906124b9565b611bff565b005b6103af60048036038101906103aa9190612c3c565b611f9f565b6040516103bc919061277c565b60405180910390f35b6103df60048036038101906103da91906126e9565b6121d2565b005b6103e96123c2565b6040516103f6919061277c565b60405180910390f35b610407612412565b6040516104149190612be5565b60405180910390f35b6003602052805f5260405f205f91509050805f01805461043c90612d36565b80601f016020809104026020016040519081016040528092919081815260200182805461046890612d36565b80156104b35780601f1061048a576101008083540402835291602001916104b3565b820191905f5260205f20905b81548152906001019060200180831161049657829003601f168201915b505050505090806001015490806002015490806003015490806004015f9054906101000a900460ff16908060040160019054906101000a900473ffffffffffffffffffffffffffffffffffffffff16905086565b6004602052805f5260405f205f91509050805f015f9054906101000a900473ffffffffffffffffffffffffffffffffffffffff1690806001015f9054906101000a900473ffffffffffffffffffffffffffffffffffffffff1690806002015490806003015490806004015490806005015f9054906101000a900460ff16908060050160019054906101000a900460ff16908060060180546105a790612d36565b80601f01602080910402602001604051908101604052809291908181526020018280546105d390612d36565b801561061e5780601f106105f55761010080835404028352916020019161061e565b820191905f5260205f20905b81548152906001019060200180831161060157829003601f168201915b5050505050905088565b8060075f8481526020019081526020015f205f6101000a81548160ff0219169083151502179055505050565b6002602052805f5260405f205f915054906101000a900460ff1681565b60025f3273ffffffffffffffffffffffffffffffffffffffff1673ffffffffffffffffffffffffffffffffffffffff1681526020019081526020015f205f9054906101000a900460ff166106fa576040517f08c379a00000000000000000000000000000000000000000000000000000000081526004016106f190612dd6565b60405180910390fd5b5f60035f8381526020019081526020015f2090508060030154421015610755576040517f08c379a000000000000000000000000000000000000000000000000000000000815260040161074c90612e3e565b60405180910390fd5b806004015f9054906101000a900460ff16156107a6576040517f08c379a000000000000000000000000000000000000000000000000000000000815260040161079d90612ea6565b60405180910390fd5b5f816002015482600101541190506001826004015f6101000a81548160ff02191690831515021790555060015f9054906101000a900473ffffffffffffffffffffffffffffffffffffffff1673ffffffffffffffffffffffffffffffffffffffff1663a0712d68671bc16d674ec800006040518263ffffffff1660e01b81526004016108329190612f06565b5f604051808303815f87803b158015610849575f80fd5b505af115801561085b573d5f803e3d5ffd5b505050507f948f4a9cd986f1118c3fbd459f7a22b23c0693e1ca3ef06a6a8be5aa7d39cc038382604051610890929190612f1f565b60405180910390a1505050565b60025f3273ffffffffffffffffffffffffffffffffffffffff1673ffffffffffffffffffffffffffffffffffffffff1681526020019081526020015f205f9054906101000a900460ff1615610927576040517f08c379a000000000000000000000000000000000000000000000000000000000815260040161091e90612f90565b60405180910390fd5b605a5f8054906101000a900473ffffffffffffffffffffffffffffffffffffffff1673ffffffffffffffffffffffffffffffffffffffff1663baccbfdb326040518263ffffffff1660e01b81526004016109819190612fae565b602060405180830381865afa15801561099c573d5f803e3d5ffd5b505050506040513d601f19601f820116820180604052508101906109c09190612fdb565b1015610a01576040517f08c379a00000000000000000000000000000000000000000000000000000000081526004016109f890613050565b60405180910390fd5b600160025f3273ffffffffffffffffffffffffffffffffffffffff1673ffffffffffffffffffffffffffffffffffffffff1681526020019081526020015f205f6101000a81548160ff02191690831515021790555060015f9054906101000a900473ffffffffffffffffffffffffffffffffffffffff1673ffffffffffffffffffffffffffffffffffffffff1663a0712d68670de0b6b3a76400006040518263ffffffff1660e01b8152600401610ab891906130a7565b5f604051808303815f87803b158015610acf575f80fd5b505af1158015610ae1573d5f803e3d5ffd5b505050507f92fabfa210df88d92c2f5a07ddd43a985b208d8b19b7a78ba1284aa4b287d86233604051610b149190612fae565b60405180910390a1565b5f151560045f8681526020019081526020015f2060050160019054906101000a900460ff16151514610b85576040517f08c379a0000000000000000000000000000000000000000000000000000000008152600401610b7c9061310a565b60405180910390fd5b3373ffffffffffffffffffffffffffffffffffffffff1660045f8681526020019081526020015f205f015f9054906101000a900473ffffffffffffffffffffffffffffffffffffffff1673ffffffffffffffffffffffffffffffffffffffff161480610c4f57503373ffffffffffffffffffffffffffffffffffffffff1660045f8681526020019081526020015f206001015f9054906101000a900473ffffffffffffffffffffffffffffffffffffffff1673ffffffffffffffffffffffffffffffffffffffff16145b610c8e576040517f08c379a0000000000000000000000000000000000000000000000000000000008152600401610c8590613172565b60405180910390fd5b60095f815480929190610ca0906131bd565b919050555060405180610120016040528060095481526020018581526020016203f48042610cce9190613204565b81526020018481526020018381526020015f81526020015f81526020015f151581526020018273ffffffffffffffffffffffffffffffffffffffff1681525060055f60095481526020019081526020015f205f820151815f015560208201518160010155604082015181600201556060820151816003019081610d5191906133cb565b506080820151816004019081610d6791906133cb565b5060a0820151816005015560c0820151816006015560e0820151816007015f6101000a81548160ff0219169083151502179055506101008201518160070160016101000a81548173ffffffffffffffffffffffffffffffffffffffff021916908373ffffffffffffffffffffffffffffffffffffffff160217905550905050600160045f8681526020019081526020015f2060050160016101000a81548160ff02191690831515021790555050505050565b610e21612418565b60055f8381526020019081526020015f20604051806101200160405290815f82015481526020016001820154815260200160028201548152602001600382018054610e6b90612d36565b80601f0160208091040260200160405190810160405280929190818152602001828054610e9790612d36565b8015610ee25780601f10610eb957610100808354040283529160200191610ee2565b820191905f5260205f20905b815481529060010190602001808311610ec557829003601f168201915b50505050508152602001600482018054610efb90612d36565b80601f0160208091040260200160405190810160405280929190818152602001828054610f2790612d36565b8015610f725780601f10610f4957610100808354040283529160200191610f72565b820191905f5260205f20905b815481529060010190602001808311610f5557829003601f168201915b505050505081526020016005820154815260200160068201548152602001600782015f9054906101000a900460ff161515151581526020016007820160019054906101000a900473ffffffffffffffffffffffffffffffffffffffff1673ffffffffffffffffffffffffffffffffffffffff1673ffffffffffffffffffffffffffffffffffffffff16815250509050919050565b5f6040518060c001604052808381526020015f81526020015f81526020016203f480426110339190613204565b81526020015f151581526020013273ffffffffffffffffffffffffffffffffffffffff1681525060035f60085481526020019081526020015f205f820151815f01908161108091906133cb565b506020820151816001015560408201518160020155606082015181600301556080820151816004015f6101000a81548160ff02191690831515021790555060a08201518160040160016101000a81548173ffffffffffffffffffffffffffffffffffffffff021916908373ffffffffffffffffffffffffffffffffffffffff16021790555090505060085f81548092919061111a906131bd565b91905055507fc8c078bfee58e5822588f08b4509ed1eb5058e03f666cca84dd2d44bf5c288a860085483326040516111549392919061349a565b60405180910390a160019050919050565b6005602052805f5260405f205f91509050805f01549080600101549080600201549080600301805461119690612d36565b80601f01602080910402602001604051908101604052809291908181526020018280546111c290612d36565b801561120d5780601f106111e45761010080835404028352916020019161120d565b820191905f5260205f20905b8154815290600101906020018083116111f057829003601f168201915b50505050509080600401805461122290612d36565b80601f016020809104026020016040519081016040528092919081815260200182805461124e90612d36565b80156112995780601f1061127057610100808354040283529160200191611299565b820191905f5260205f20905b81548152906001019060200180831161127c57829003601f168201915b505050505090806005015490806006015490806007015f9054906101000a900460ff16908060070160019054906101000a900473ffffffffffffffffffffffffffffffffffffffff16905089565b6007602052805f5260405f205f915054906101000a900460ff1681565b6006602052805f5260405f205f91509050805f015f9054906101000a900473ffffffffffffffffffffffffffffffffffffffff169080600101549080600201805461134e90612d36565b80601f016020809104026020016040519081016040528092919081815260200182805461137a90612d36565b80156113c55780601f1061139c576101008083540402835291602001916113c5565b820191905f5260205f20905b8154815290600101906020018083116113a857829003601f168201915b505050505090806003015f9054906101000a900460ff16905084565b60095481565b60025f3273ffffffffffffffffffffffffffffffffffffffff1673ffffffffffffffffffffffffffffffffffffffff1681526020019081526020015f205f9054906101000a900460ff16611470576040517f08c379a000000000000000000000000000000000000000000000000000000000815260040161146790612dd6565b60405180910390fd5b60055f8381526020019081526020015f20600201544211156114c7576040517f08c379a00000000000000000000000000000000000000000000000000000000081526004016114be90613520565b60405180910390fd5b60055f8381526020019081526020015f206007015f9054906101000a900460ff1615611528576040517f08c379a000000000000000000000000000000000000000000000000000000000815260040161151f90613588565b60405180910390fd5b801561155c5760055f8381526020019081526020015f206005015f815480929190611552906131bd565b9190505550611586565b60055f8381526020019081526020015f206006015f815480929190611580906131bd565b91905055505b60015f9054906101000a900473ffffffffffffffffffffffffffffffffffffffff1673ffffffffffffffffffffffffffffffffffffffff1663a0712d68670de0b6b3a76400006040518263ffffffff1660e01b81526004016115e891906130a7565b5f604051808303815f87803b1580156115ff575f80fd5b505af1158015611611573d5f803e3d5ffd5b505050507ff2913dbe661ee2acc4a046d8fbcdc792373bda34c41c6086484b5345e5785e5f823383604051611648939291906135a6565b60405180910390a15050565b5f60045f8481526020019081526020015f209050806005015f9054906101000a900460ff166116b8576040517f08c379a00000000000000000000000000000000000000000000000000000000081526004016116af90613625565b60405180910390fd5b805f015f9054906101000a900473ffffffffffffffffffffffffffffffffffffffff1673ffffffffffffffffffffffffffffffffffffffff163273ffffffffffffffffffffffffffffffffffffffff1614806117625750806001015f9054906101000a900473ffffffffffffffffffffffffffffffffffffffff1673ffffffffffffffffffffffffffffffffffffffff163273ffffffffffffffffffffffffffffffffffffffff16145b6117a1576040517f08c379a00000000000000000000000000000000000000000000000000000000081526004016117989061368d565b60405180910390fd5b60065f8481526020019081526020015f206003015f9054906101000a900460ff1615611802576040517f08c379a00000000000000000000000000000000000000000000000000000000081526004016117f9906136f5565b60405180910390fd5b5f815f015f9054906101000a900473ffffffffffffffffffffffffffffffffffffffff1673ffffffffffffffffffffffffffffffffffffffff163373ffffffffffffffffffffffffffffffffffffffff161461188057815f015f9054906101000a900473ffffffffffffffffffffffffffffffffffffffff166118a5565b816001015f9054906101000a900473ffffffffffffffffffffffffffffffffffffffff165b9050600160065f8681526020019081526020015f206003015f6101000a81548160ff021916908315150217905550600160045f8681526020019081526020015f206005015f6101000a81548160ff0219169083151502179055505f805f9054906101000a900473ffffffffffffffffffffffffffffffffffffffff1673ffffffffffffffffffffffffffffffffffffffff1663baccbfdb836040518263ffffffff1660e01b81526004016119599190612fae565b602060405180830381865afa158015611974573d5f803e3d5ffd5b505050506040513d601f19601f820116820180604052508101906119989190612fdb565b90505f60045f8781526020019081526020015f206003015490505f60045f8881526020019081526020015f20600401549050605a8610611a8b575f8054906101000a900473ffffffffffffffffffffffffffffffffffffffff1673ffffffffffffffffffffffffffffffffffffffff16635c0e5f8885858486611a1b9190613713565b6002611a279190613746565b6040518463ffffffff1660e01b8152600401611a4593929190613787565b6020604051808303815f875af1158015611a61573d5f803e3d5ffd5b505050506040513d601f19601f82011682018060405250810190611a8591906137d0565b50611bf6565b603c8610611b40575f8054906101000a900473ffffffffffffffffffffffffffffffffffffffff1673ffffffffffffffffffffffffffffffffffffffff16635c0e5f8885858486611adc9190613713565b6040518463ffffffff1660e01b8152600401611afa93929190613787565b6020604051808303815f875af1158015611b16573d5f803e3d5ffd5b505050506040513d601f19601f82011682018060405250810190611b3a91906137d0565b50611bf5565b5f8054906101000a900473ffffffffffffffffffffffffffffffffffffffff1673ffffffffffffffffffffffffffffffffffffffff16635c0e5f888585846002611b8a9190613746565b86611b959190613713565b6040518463ffffffff1660e01b8152600401611bb393929190613787565b6020604051808303815f875af1158015611bcf573d5f803e3d5ffd5b505050506040513d601f19601f82011682018060405250810190611bf391906137d0565b505b5b50505050505050565b60025f3273ffffffffffffffffffffffffffffffffffffffff1673ffffffffffffffffffffffffffffffffffffffff1681526020019081526020015f205f9054906101000a900460ff16611c88576040517f08c379a0000000000000000000000000000000000000000000000000000000008152600401611c7f90612dd6565b60405180910390fd5b5f60055f8381526020019081526020015f20905080600201544211611ce2576040517f08c379a0000000000000000000000000000000000000000000000000000000008152600401611cd990613845565b60405180910390fd5b806007015f9054906101000a900460ff1615611d33576040517f08c379a0000000000000000000000000000000000000000000000000000000008152600401611d2a90613588565b60405180910390fd5b60055f8381526020019081526020015f206006015460055f8481526020019081526020015f20600501541115611eb6575f60045f60055f8681526020019081526020015f206001015481526020019081526020015f206003015490505f60045f60055f8781526020019081526020015f206001015481526020019081526020015f206004015490505f610168601e8484611dcd9190613713565b611dd79190613746565b611de19190613890565b90505f8054906101000a900473ffffffffffffffffffffffffffffffffffffffff1673ffffffffffffffffffffffffffffffffffffffff1663cf09392660055f8881526020019081526020015f2060070160019054906101000a900473ffffffffffffffffffffffffffffffffffffffff16836040518363ffffffff1660e01b8152600401611e719291906138c0565b6020604051808303815f875af1158015611e8d573d5f803e3d5ffd5b505050506040513d601f19601f82011682018060405250810190611eb191906137d0565b505050505b6001816007015f6101000a81548160ff02191690831515021790555060015f9054906101000a900473ffffffffffffffffffffffffffffffffffffffff1673ffffffffffffffffffffffffffffffffffffffff1663a0712d68671bc16d674ec800006040518263ffffffff1660e01b8152600401611f349190612f06565b5f604051808303815f87803b158015611f4b575f80fd5b505af1158015611f5d573d5f803e3d5ffd5b505050507f948f4a9cd986f1118c3fbd459f7a22b23c0693e1ca3ef06a6a8be5aa7d39cc03826001604051611f93929190612f1f565b60405180910390a15050565b5f8073ffffffffffffffffffffffffffffffffffffffff168973ffffffffffffffffffffffffffffffffffffffff161415801561200857505f73ffffffffffffffffffffffffffffffffffffffff168873ffffffffffffffffffffffffffffffffffffffff1614155b612047576040517f08c379a000000000000000000000000000000000000000000000000000000000815260040161203e9061390a565b60405180910390fd5b6040518061010001604052808a73ffffffffffffffffffffffffffffffffffffffff1681526020018973ffffffffffffffffffffffffffffffffffffffff168152602001888152602001878152602001868152602001851515815260200184151581526020018381525060045f8981526020019081526020015f205f820151815f015f6101000a81548173ffffffffffffffffffffffffffffffffffffffff021916908373ffffffffffffffffffffffffffffffffffffffff1602179055506020820151816001015f6101000a81548173ffffffffffffffffffffffffffffffffffffffff021916908373ffffffffffffffffffffffffffffffffffffffff16021790555060408201518160020155606082015181600301556080820151816004015560a0820151816005015f6101000a81548160ff02191690831515021790555060c08201518160050160016101000a81548160ff02191690831515021790555060e08201518160060190816121be91906133cb565b509050506001905098975050505050505050565b60025f3273ffffffffffffffffffffffffffffffffffffffff1673ffffffffffffffffffffffffffffffffffffffff1681526020019081526020015f205f9054906101000a900460ff1661225b576040517f08c379a000000000000000000000000000000000000000000000000000000000815260040161225290612dd6565b60405180910390fd5b5f60035f8481526020019081526020015f209050806003015442106122b5576040517f08c379a00000000000000000000000000000000000000000000000000000000081526004016122ac90613520565b60405180910390fd5b81156122d957806001015f8154809291906122cf906131bd565b91905055506122f3565b806002015f8154809291906122ed906131bd565b91905055505b60015f9054906101000a900473ffffffffffffffffffffffffffffffffffffffff1673ffffffffffffffffffffffffffffffffffffffff1663a0712d68670de0b6b3a76400006040518263ffffffff1660e01b815260040161235591906130a7565b5f604051808303815f87803b15801561236c575f80fd5b505af115801561237e573d5f803e3d5ffd5b505050507ff2913dbe661ee2acc4a046d8fbcdc792373bda34c41c6086484b5345e5785e5f8333846040516123b5939291906135a6565b60405180910390a1505050565b5f60025f3273ffffffffffffffffffffffffffffffffffffffff1673ffffffffffffffffffffffffffffffffffffffff1681526020019081526020015f205f9054906101000a900460ff16905090565b60085481565b6040518061012001604052805f81526020015f81526020015f815260200160608152602001606081526020015f81526020015f81526020015f151581526020015f73ffffffffffffffffffffffffffffffffffffffff1681525090565b5f604051905090565b5f80fd5b5f80fd5b5f819050919050565b61249881612486565b81146124a2575f80fd5b50565b5f813590506124b38161248f565b92915050565b5f602082840312156124ce576124cd61247e565b5b5f6124db848285016124a5565b91505092915050565b5f81519050919050565b5f82825260208201905092915050565b5f5b8381101561251b578082015181840152602081019050612500565b5f8484015250505050565b5f601f19601f8301169050919050565b5f612540826124e4565b61254a81856124ee565b935061255a8185602086016124fe565b61256381612526565b840191505092915050565b61257781612486565b82525050565b5f8115159050919050565b6125918161257d565b82525050565b5f73ffffffffffffffffffffffffffffffffffffffff82169050919050565b5f6125c082612597565b9050919050565b6125d0816125b6565b82525050565b5f60c0820190508181035f8301526125ee8189612536565b90506125fd602083018861256e565b61260a604083018761256e565b612617606083018661256e565b6126246080830185612588565b61263160a08301846125c7565b979650505050505050565b5f610100820190506126505f83018b6125c7565b61265d602083018a6125c7565b61266a604083018961256e565b612677606083018861256e565b612684608083018761256e565b61269160a0830186612588565b61269e60c0830185612588565b81810360e08301526126b08184612536565b90509998505050505050505050565b6126c88161257d565b81146126d2575f80fd5b50565b5f813590506126e3816126bf565b92915050565b5f80604083850312156126ff576126fe61247e565b5b5f61270c858286016124a5565b925050602061271d858286016126d5565b9150509250929050565b612730816125b6565b811461273a575f80fd5b50565b5f8135905061274b81612727565b92915050565b5f602082840312156127665761276561247e565b5b5f6127738482850161273d565b91505092915050565b5f60208201905061278f5f830184612588565b92915050565b5f80fd5b5f80fd5b7f4e487b71000000000000000000000000000000000000000000000000000000005f52604160045260245ffd5b6127d382612526565b810181811067ffffffffffffffff821117156127f2576127f161279d565b5b80604052505050565b5f612804612475565b905061281082826127ca565b919050565b5f67ffffffffffffffff82111561282f5761282e61279d565b5b61283882612526565b9050602081019050919050565b828183375f83830152505050565b5f61286561286084612815565b6127fb565b90508281526020810184848401111561288157612880612799565b5b61288c848285612845565b509392505050565b5f82601f8301126128a8576128a7612795565b5b81356128b8848260208601612853565b91505092915050565b5f805f80608085870312156128d9576128d861247e565b5b5f6128e6878288016124a5565b945050602085013567ffffffffffffffff81111561290757612906612482565b5b61291387828801612894565b935050604085013567ffffffffffffffff81111561293457612933612482565b5b61294087828801612894565b92505060606129518782880161273d565b91505092959194509250565b61296681612486565b82525050565b5f82825260208201905092915050565b5f612986826124e4565b612990818561296c565b93506129a08185602086016124fe565b6129a981612526565b840191505092915050565b6129bd8161257d565b82525050565b6129cc816125b6565b82525050565b5f61012083015f8301516129e85f86018261295d565b5060208301516129fb602086018261295d565b506040830151612a0e604086018261295d565b5060608301518482036060860152612a26828261297c565b91505060808301518482036080860152612a40828261297c565b91505060a0830151612a5560a086018261295d565b5060c0830151612a6860c086018261295d565b5060e0830151612a7b60e08601826129b4565b50610100830151612a906101008601826129c3565b508091505092915050565b5f6020820190508181035f830152612ab381846129d2565b905092915050565b5f60208284031215612ad057612acf61247e565b5b5f82013567ffffffffffffffff811115612aed57612aec612482565b5b612af984828501612894565b91505092915050565b5f61012082019050612b165f83018c61256e565b612b23602083018b61256e565b612b30604083018a61256e565b8181036060830152612b428189612536565b90508181036080830152612b568188612536565b9050612b6560a083018761256e565b612b7260c083018661256e565b612b7f60e0830185612588565b612b8d6101008301846125c7565b9a9950505050505050505050565b5f608082019050612bae5f8301876125c7565b612bbb602083018661256e565b8181036040830152612bcd8185612536565b9050612bdc6060830184612588565b95945050505050565b5f602082019050612bf85f83018461256e565b92915050565b5f8060408385031215612c1457612c1361247e565b5b5f612c21858286016124a5565b9250506020612c32858286016124a5565b9150509250929050565b5f805f805f805f80610100898b031215612c5957612c5861247e565b5b5f612c668b828c0161273d565b9850506020612c778b828c0161273d565b9750506040612c888b828c016124a5565b9650506060612c998b828c016124a5565b9550506080612caa8b828c016124a5565b94505060a0612cbb8b828c016126d5565b93505060c0612ccc8b828c016126d5565b92505060e089013567ffffffffffffffff811115612ced57612cec612482565b5b612cf98b828c01612894565b9150509295985092959890939650565b7f4e487b71000000000000000000000000000000000000000000000000000000005f52602260045260245ffd5b5f6002820490506001821680612d4d57607f821691505b602082108103612d6057612d5f612d09565b5b50919050565b7f4f6e6c792044414f206d656d626572732063616e20706572666f726d207468695f8201527f7320616374696f6e000000000000000000000000000000000000000000000000602082015250565b5f612dc06028836124ee565b9150612dcb82612d66565b604082019050919050565b5f6020820190508181035f830152612ded81612db4565b9050919050565b7f566f74696e6720706572696f64206973207374696c6c206163746976650000005f82015250565b5f612e28601d836124ee565b9150612e3382612df4565b602082019050919050565b5f6020820190508181035f830152612e5581612e1c565b9050919050565b7f50726f706f73616c20616c7265616479206578656375746564000000000000005f82015250565b5f612e906019836124ee565b9150612e9b82612e5c565b602082019050919050565b5f6020820190508181035f830152612ebd81612e84565b9050919050565b5f819050919050565b5f819050919050565b5f612ef0612eeb612ee684612ec4565b612ecd565b612486565b9050919050565b612f0081612ed6565b82525050565b5f602082019050612f195f830184612ef7565b92915050565b5f604082019050612f325f83018561256e565b612f3f6020830184612588565b9392505050565b7f416c72656164792061206d656d626572000000000000000000000000000000005f82015250565b5f612f7a6010836124ee565b9150612f8582612f46565b602082019050919050565b5f6020820190508181035f830152612fa781612f6e565b9050919050565b5f602082019050612fc15f8301846125c7565b92915050565b5f81519050612fd58161248f565b92915050565b5f60208284031215612ff057612fef61247e565b5b5f612ffd84828501612fc7565b91505092915050565b7f72657075746174696f6e206e6f7420656e6f75677468000000000000000000005f82015250565b5f61303a6016836124ee565b915061304582613006565b602082019050919050565b5f6020820190508181035f8301526130678161302e565b9050919050565b5f819050919050565b5f61309161308c6130878461306e565b612ecd565b612486565b9050919050565b6130a181613077565b82525050565b5f6020820190506130ba5f830184613098565b92915050565b7f4465616c20616c726561647920646973707574656400000000000000000000005f82015250565b5f6130f46015836124ee565b91506130ff826130c0565b602082019050919050565b5f6020820190508181035f830152613121816130e8565b9050919050565b7f4e6f7420617574686f72697a65640000000000000000000000000000000000005f82015250565b5f61315c600e836124ee565b915061316782613128565b602082019050919050565b5f6020820190508181035f83015261318981613150565b9050919050565b7f4e487b71000000000000000000000000000000000000000000000000000000005f52601160045260245ffd5b5f6131c782612486565b91507fffffffffffffffffffffffffffffffffffffffffffffffffffffffffffffffff82036131f9576131f8613190565b5b600182019050919050565b5f61320e82612486565b915061321983612486565b925082820190508082111561323157613230613190565b5b92915050565b5f819050815f5260205f209050919050565b5f6020601f8301049050919050565b5f82821b905092915050565b5f600883026132937fffffffffffffffffffffffffffffffffffffffffffffffffffffffffffffffff82613258565b61329d8683613258565b95508019841693508086168417925050509392505050565b5f6132cf6132ca6132c584612486565b612ecd565b612486565b9050919050565b5f819050919050565b6132e8836132b5565b6132fc6132f4826132d6565b848454613264565b825550505050565b5f90565b613310613304565b61331b8184846132df565b505050565b5b8181101561333e576133335f82613308565b600181019050613321565b5050565b601f8211156133835761335481613237565b61335d84613249565b8101602085101561336c578190505b61338061337885613249565b830182613320565b50505b505050565b5f82821c905092915050565b5f6133a35f1984600802613388565b1980831691505092915050565b5f6133bb8383613394565b9150826002028217905092915050565b6133d4826124e4565b67ffffffffffffffff8111156133ed576133ec61279d565b5b6133f78254612d36565b613402828285613342565b5f60209050601f831160018114613433575f8415613421578287015190505b61342b85826133b0565b865550613492565b601f19841661344186613237565b5f5b8281101561346857848901518255600182019150602085019450602081019050613443565b868310156134855784890151613481601f891682613394565b8355505b6001600288020188555050505b505050505050565b5f6060820190506134ad5f83018661256e565b81810360208301526134bf8185612536565b90506134ce60408301846125c7565b949350505050565b7f566f74696e6720706572696f642068617320656e6465640000000000000000005f82015250565b5f61350a6017836124ee565b9150613515826134d6565b602082019050919050565b5f6020820190508181035f830152613537816134fe565b9050919050565b7f4469737075746520616c726561647920657865637574656400000000000000005f82015250565b5f6135726018836124ee565b915061357d8261353e565b602082019050919050565b5f6020820190508181035f83015261359f81613566565b9050919050565b5f6060820190506135b95f83018661256e565b6135c660208301856125c7565b6135d36040830184612588565b949350505050565b7f4465616c206973206e6f7420636f6d706c6574656400000000000000000000005f82015250565b5f61360f6015836124ee565b915061361a826135db565b602082019050919050565b5f6020820190508181035f83015261363c81613603565b9050919050565b7f4e6f7420617574686f72697a656420746f2072617465000000000000000000005f82015250565b5f6136776016836124ee565b915061368282613643565b602082019050919050565b5f6020820190508181035f8301526136a48161366b565b9050919050565b7f416c7265616479207261746564000000000000000000000000000000000000005f82015250565b5f6136df600d836124ee565b91506136ea826136ab565b602082019050919050565b5f6020820190508181035f83015261370c816136d3565b9050919050565b5f61371d82612486565b915061372883612486565b92508282039050818111156137405761373f613190565b5b92915050565b5f61375082612486565b915061375b83612486565b925082820261376981612486565b915082820484148315176137805761377f613190565b5b5092915050565b5f60608201905061379a5f8301866125c7565b6137a7602083018561256e565b6137b4604083018461256e565b949350505050565b5f815190506137ca816126bf565b92915050565b5f602082840312156137e5576137e461247e565b5b5f6137f2848285016137bc565b91505092915050565b7f566f74696e6720706572696f64206973206e6f74206f766572000000000000005f82015250565b5f61382f6019836124ee565b915061383a826137fb565b602082019050919050565b5f6020820190508181035f83015261385c81613823565b9050919050565b7f4e487b71000000000000000000000000000000000000000000000000000000005f52601260045260245ffd5b5f61389a82612486565b91506138a583612486565b9250826138b5576138b4613863565b5b828204905092915050565b5f6040820190506138d35f8301856125c7565b6138e0602083018461256e565b9392505050565b50565b5f6138f55f836124ee565b9150613900826138e7565b5f82019050919050565b5f6020820190508181035f830152613921816138ea565b905091905056fea26469706673582212206708ddef2295f2433d69de6aeb086b0c1838c55ab4daf3d7f531a9e68de8cf2664736f6c63430008160033",
			"opcodes": "PUSH1 0x80 PUSH1 0x40 MSTORE CALLVALUE DUP1 ISZERO PUSH3 0x10 JUMPI PUSH0 DUP1 REVERT JUMPDEST POP PUSH1 0x40 MLOAD PUSH3 0x3AD3 CODESIZE SUB DUP1 PUSH3 0x3AD3 DUP4 CODECOPY DUP2 DUP2 ADD PUSH1 0x40 MSTORE DUP2 ADD SWAP1 PUSH3 0x36 SWAP2 SWAP1 PUSH3 0x122 JUMP JUMPDEST DUP2 PUSH0 DUP1 PUSH2 0x100 EXP DUP2 SLOAD DUP2 PUSH20 0xFFFFFFFFFFFFFFFFFFFFFFFFFFFFFFFFFFFFFFFF MUL NOT AND SWAP1 DUP4 PUSH20 0xFFFFFFFFFFFFFFFFFFFFFFFFFFFFFFFFFFFFFFFF AND MUL OR SWAP1 SSTORE POP DUP1 PUSH1 0x1 PUSH0 PUSH2 0x100 EXP DUP2 SLOAD DUP2 PUSH20 0xFFFFFFFFFFFFFFFFFFFFFFFFFFFFFFFFFFFFFFFF MUL NOT AND SWAP1 DUP4 PUSH20 0xFFFFFFFFFFFFFFFFFFFFFFFFFFFFFFFFFFFFFFFF AND MUL OR SWAP1 SSTORE POP POP POP PUSH3 0x167 JUMP JUMPDEST PUSH0 DUP1 REVERT JUMPDEST PUSH0 PUSH20 0xFFFFFFFFFFFFFFFFFFFFFFFFFFFFFFFFFFFFFFFF DUP3 AND SWAP1 POP SWAP2 SWAP1 POP JUMP JUMPDEST PUSH0 PUSH3 0xEC DUP3 PUSH3 0xC1 JUMP JUMPDEST SWAP1 POP SWAP2 SWAP1 POP JUMP JUMPDEST PUSH3 0xFE DUP2 PUSH3 0xE0 JUMP JUMPDEST DUP2 EQ PUSH3 0x109 JUMPI PUSH0 DUP1 REVERT JUMPDEST POP JUMP JUMPDEST PUSH0 DUP2 MLOAD SWAP1 POP PUSH3 0x11C DUP2 PUSH3 0xF3 JUMP JUMPDEST SWAP3 SWAP2 POP POP JUMP JUMPDEST PUSH0 DUP1 PUSH1 0x40 DUP4 DUP6 SUB SLT ISZERO PUSH3 0x13B JUMPI PUSH3 0x13A PUSH3 0xBD JUMP JUMPDEST JUMPDEST PUSH0 PUSH3 0x14A DUP6 DUP3 DUP7 ADD PUSH3 0x10C JUMP JUMPDEST SWAP3 POP POP PUSH1 0x20 PUSH3 0x15D DUP6 DUP3 DUP7 ADD PUSH3 0x10C JUMP JUMPDEST SWAP2 POP POP SWAP3 POP SWAP3 SWAP1 POP JUMP JUMPDEST PUSH2 0x395E DUP1 PUSH3 0x175 PUSH0 CODECOPY PUSH0 RETURN INVALID PUSH1 0x80 PUSH1 0x40 MSTORE CALLVALUE DUP1 ISZERO PUSH2 0xF JUMPI PUSH0 DUP1 REVERT JUMPDEST POP PUSH1 0x4 CALLDATASIZE LT PUSH2 0x12A JUMPI PUSH0 CALLDATALOAD PUSH1 0xE0 SHR DUP1 PUSH4 0x6B842F7F GT PUSH2 0xAB JUMPI DUP1 PUSH4 0xC2B7B868 GT PUSH2 0x6F JUMPI DUP1 PUSH4 0xC2B7B868 EQ PUSH2 0x379 JUMPI DUP1 PUSH4 0xC8AF1D6B EQ PUSH2 0x395 JUMPI DUP1 PUSH4 0xC9D27AFE EQ PUSH2 0x3C5 JUMPI DUP1 PUSH4 0xD02982CF EQ PUSH2 0x3E1 JUMPI DUP1 PUSH4 0xDA35C664 EQ PUSH2 0x3FF JUMPI PUSH2 0x12A JUMP JUMPDEST DUP1 PUSH4 0x6B842F7F EQ PUSH2 0x2C0 JUMPI DUP1 PUSH4 0x70E84F9E EQ PUSH2 0x2F0 JUMPI DUP1 PUSH4 0xA28889E1 EQ PUSH2 0x323 JUMPI DUP1 PUSH4 0xA4F5DF12 EQ PUSH2 0x341 JUMPI DUP1 PUSH4 0xB8418FAC EQ PUSH2 0x35D JUMPI PUSH2 0x12A JUMP JUMPDEST DUP1 PUSH4 0x4217DF12 GT PUSH2 0xF2 JUMPI DUP1 PUSH4 0x4217DF12 EQ PUSH2 0x202 JUMPI DUP1 PUSH4 0x43B32673 EQ PUSH2 0x20C JUMPI DUP1 PUSH4 0x4406A2FD EQ PUSH2 0x228 JUMPI DUP1 PUSH4 0x49C2A1A6 EQ PUSH2 0x258 JUMPI DUP1 PUSH4 0x564A565D EQ PUSH2 0x288 JUMPI PUSH2 0x12A JUMP JUMPDEST DUP1 PUSH4 0x13CF08B EQ PUSH2 0x12E JUMPI DUP1 PUSH4 0x3988F84 EQ PUSH2 0x163 JUMPI DUP1 PUSH4 0x3D0A81A EQ PUSH2 0x19A JUMPI DUP1 PUSH4 0x8AE4B0C EQ PUSH2 0x1B6 JUMPI DUP1 PUSH4 0xD61B519 EQ PUSH2 0x1E6 JUMPI JUMPDEST PUSH0 DUP1 REVERT JUMPDEST PUSH2 0x148 PUSH1 0x4 DUP1 CALLDATASIZE SUB DUP2 ADD SWAP1 PUSH2 0x143 SWAP2 SWAP1 PUSH2 0x24B9 JUMP JUMPDEST PUSH2 0x41D JUMP JUMPDEST PUSH1 0x40 MLOAD PUSH2 0x15A SWAP7 SWAP6 SWAP5 SWAP4 SWAP3 SWAP2 SWAP1 PUSH2 0x25D6 JUMP JUMPDEST PUSH1 0x40 MLOAD DUP1 SWAP2 SUB SWAP1 RETURN JUMPDEST PUSH2 0x17D PUSH1 0x4 DUP1 CALLDATASIZE SUB DUP2 ADD SWAP1 PUSH2 0x178 SWAP2 SWAP1 PUSH2 0x24B9 JUMP JUMPDEST PUSH2 0x507 JUMP JUMPDEST PUSH1 0x40 MLOAD PUSH2 0x191 SWAP9 SWAP8 SWAP7 SWAP6 SWAP5 SWAP4 SWAP3 SWAP2 SWAP1 PUSH2 0x263C JUMP JUMPDEST PUSH1 0x40 MLOAD DUP1 SWAP2 SUB SWAP1 RETURN JUMPDEST PUSH2 0x1B4 PUSH1 0x4 DUP1 CALLDATASIZE SUB DUP2 ADD SWAP1 PUSH2 0x1AF SWAP2 SWAP1 PUSH2 0x26E9 JUMP JUMPDEST PUSH2 0x628 JUMP JUMPDEST STOP JUMPDEST PUSH2 0x1D0 PUSH1 0x4 DUP1 CALLDATASIZE SUB DUP2 ADD SWAP1 PUSH2 0x1CB SWAP2 SWAP1 PUSH2 0x2751 JUMP JUMPDEST PUSH2 0x654 JUMP JUMPDEST PUSH1 0x40 MLOAD PUSH2 0x1DD SWAP2 SWAP1 PUSH2 0x277C JUMP JUMPDEST PUSH1 0x40 MLOAD DUP1 SWAP2 SUB SWAP1 RETURN JUMPDEST PUSH2 0x200 PUSH1 0x4 DUP1 CALLDATASIZE SUB DUP2 ADD SWAP1 PUSH2 0x1FB SWAP2 SWAP1 PUSH2 0x24B9 JUMP JUMPDEST PUSH2 0x671 JUMP JUMPDEST STOP JUMPDEST PUSH2 0x20A PUSH2 0x89D JUMP JUMPDEST STOP JUMPDEST PUSH2 0x226 PUSH1 0x4 DUP1 CALLDATASIZE SUB DUP2 ADD SWAP1 PUSH2 0x221 SWAP2 SWAP1 PUSH2 0x28C1 JUMP JUMPDEST PUSH2 0xB1E JUMP JUMPDEST STOP JUMPDEST PUSH2 0x242 PUSH1 0x4 DUP1 CALLDATASIZE SUB DUP2 ADD SWAP1 PUSH2 0x23D SWAP2 SWAP1 PUSH2 0x24B9 JUMP JUMPDEST PUSH2 0xE19 JUMP JUMPDEST PUSH1 0x40 MLOAD PUSH2 0x24F SWAP2 SWAP1 PUSH2 0x2A9B JUMP JUMPDEST PUSH1 0x40 MLOAD DUP1 SWAP2 SUB SWAP1 RETURN JUMPDEST PUSH2 0x272 PUSH1 0x4 DUP1 CALLDATASIZE SUB DUP2 ADD SWAP1 PUSH2 0x26D SWAP2 SWAP1 PUSH2 0x2ABB JUMP JUMPDEST PUSH2 0x1006 JUMP JUMPDEST PUSH1 0x40 MLOAD PUSH2 0x27F SWAP2 SWAP1 PUSH2 0x277C JUMP JUMPDEST PUSH1 0x40 MLOAD DUP1 SWAP2 SUB SWAP1 RETURN JUMPDEST PUSH2 0x2A2 PUSH1 0x4 DUP1 CALLDATASIZE SUB DUP2 ADD SWAP1 PUSH2 0x29D SWAP2 SWAP1 PUSH2 0x24B9 JUMP JUMPDEST PUSH2 0x1165 JUMP JUMPDEST PUSH1 0x40 MLOAD PUSH2 0x2B7 SWAP10 SWAP9 SWAP8 SWAP7 SWAP6 SWAP5 SWAP4 SWAP3 SWAP2 SWAP1 PUSH2 0x2B02 JUMP JUMPDEST PUSH1 0x40 MLOAD DUP1 SWAP2 SUB SWAP1 RETURN JUMPDEST PUSH2 0x2DA PUSH1 0x4 DUP1 CALLDATASIZE SUB DUP2 ADD SWAP1 PUSH2 0x2D5 SWAP2 SWAP1 PUSH2 0x24B9 JUMP JUMPDEST PUSH2 0x12E7 JUMP JUMPDEST PUSH1 0x40 MLOAD PUSH2 0x2E7 SWAP2 SWAP1 PUSH2 0x277C JUMP JUMPDEST PUSH1 0x40 MLOAD DUP1 SWAP2 SUB SWAP1 RETURN JUMPDEST PUSH2 0x30A PUSH1 0x4 DUP1 CALLDATASIZE SUB DUP2 ADD SWAP1 PUSH2 0x305 SWAP2 SWAP1 PUSH2 0x24B9 JUMP JUMPDEST PUSH2 0x1304 JUMP JUMPDEST PUSH1 0x40 MLOAD PUSH2 0x31A SWAP5 SWAP4 SWAP3 SWAP2 SWAP1 PUSH2 0x2B9B JUMP JUMPDEST PUSH1 0x40 MLOAD DUP1 SWAP2 SUB SWAP1 RETURN JUMPDEST PUSH2 0x32B PUSH2 0x13E1 JUMP JUMPDEST PUSH1 0x40 MLOAD PUSH2 0x338 SWAP2 SWAP1 PUSH2 0x2BE5 JUMP JUMPDEST PUSH1 0x40 MLOAD DUP1 SWAP2 SUB SWAP1 RETURN JUMPDEST PUSH2 0x35B PUSH1 0x4 DUP1 CALLDATASIZE SUB DUP2 ADD SWAP1 PUSH2 0x356 SWAP2 SWAP1 PUSH2 0x26E9 JUMP JUMPDEST PUSH2 0x13E7 JUMP JUMPDEST STOP JUMPDEST PUSH2 0x377 PUSH1 0x4 DUP1 CALLDATASIZE SUB DUP2 ADD SWAP1 PUSH2 0x372 SWAP2 SWAP1 PUSH2 0x2BFE JUMP JUMPDEST PUSH2 0x1654 JUMP JUMPDEST STOP JUMPDEST PUSH2 0x393 PUSH1 0x4 DUP1 CALLDATASIZE SUB DUP2 ADD SWAP1 PUSH2 0x38E SWAP2 SWAP1 PUSH2 0x24B9 JUMP JUMPDEST PUSH2 0x1BFF JUMP JUMPDEST STOP JUMPDEST PUSH2 0x3AF PUSH1 0x4 DUP1 CALLDATASIZE SUB DUP2 ADD SWAP1 PUSH2 0x3AA SWAP2 SWAP1 PUSH2 0x2C3C JUMP JUMPDEST PUSH2 0x1F9F JUMP JUMPDEST PUSH1 0x40 MLOAD PUSH2 0x3BC SWAP2 SWAP1 PUSH2 0x277C JUMP JUMPDEST PUSH1 0x40 MLOAD DUP1 SWAP2 SUB SWAP1 RETURN JUMPDEST PUSH2 0x3DF PUSH1 0x4 DUP1 CALLDATASIZE SUB DUP2 ADD SWAP1 PUSH2 0x3DA SWAP2 SWAP1 PUSH2 0x26E9 JUMP JUMPDEST PUSH2 0x21D2 JUMP JUMPDEST STOP JUMPDEST PUSH2 0x3E9 PUSH2 0x23C2 JUMP JUMPDEST PUSH1 0x40 MLOAD PUSH2 0x3F6 SWAP2 SWAP1 PUSH2 0x277C JUMP JUMPDEST PUSH1 0x40 MLOAD DUP1 SWAP2 SUB SWAP1 RETURN JUMPDEST PUSH2 0x407 PUSH2 0x2412 JUMP JUMPDEST PUSH1 0x40 MLOAD PUSH2 0x414 SWAP2 SWAP1 PUSH2 0x2BE5 JUMP JUMPDEST PUSH1 0x40 MLOAD DUP1 SWAP2 SUB SWAP1 RETURN JUMPDEST PUSH1 0x3 PUSH1 0x20 MSTORE DUP1 PUSH0 MSTORE PUSH1 0x40 PUSH0 KECCAK256 PUSH0 SWAP2 POP SWAP1 POP DUP1 PUSH0 ADD DUP1 SLOAD PUSH2 0x43C SWAP1 PUSH2 0x2D36 JUMP JUMPDEST DUP1 PUSH1 0x1F ADD PUSH1 0x20 DUP1 SWAP2 DIV MUL PUSH1 0x20 ADD PUSH1 0x40 MLOAD SWAP1 DUP2 ADD PUSH1 0x40 MSTORE DUP1 SWAP3 SWAP2 SWAP1 DUP2 DUP2 MSTORE PUSH1 0x20 ADD DUP3 DUP1 SLOAD PUSH2 0x468 SWAP1 PUSH2 0x2D36 JUMP JUMPDEST DUP1 ISZERO PUSH2 0x4B3 JUMPI DUP1 PUSH1 0x1F LT PUSH2 0x48A JUMPI PUSH2 0x100 DUP1 DUP4 SLOAD DIV MUL DUP4 MSTORE SWAP2 PUSH1 0x20 ADD SWAP2 PUSH2 0x4B3 JUMP JUMPDEST DUP3 ADD SWAP2 SWAP1 PUSH0 MSTORE PUSH1 0x20 PUSH0 KECCAK256 SWAP1 JUMPDEST DUP2 SLOAD DUP2 MSTORE SWAP1 PUSH1 0x1 ADD SWAP1 PUSH1 0x20 ADD DUP1 DUP4 GT PUSH2 0x496 JUMPI DUP3 SWAP1 SUB PUSH1 0x1F AND DUP3 ADD SWAP2 JUMPDEST POP POP POP POP POP SWAP1 DUP1 PUSH1 0x1 ADD SLOAD SWAP1 DUP1 PUSH1 0x2 ADD SLOAD SWAP1 DUP1 PUSH1 0x3 ADD SLOAD SWAP1 DUP1 PUSH1 0x4 ADD PUSH0 SWAP1 SLOAD SWAP1 PUSH2 0x100 EXP SWAP1 DIV PUSH1 0xFF AND SWAP1 DUP1 PUSH1 0x4 ADD PUSH1 0x1 SWAP1 SLOAD SWAP1 PUSH2 0x100 EXP SWAP1 DIV PUSH20 0xFFFFFFFFFFFFFFFFFFFFFFFFFFFFFFFFFFFFFFFF AND SWAP1 POP DUP7 JUMP JUMPDEST PUSH1 0x4 PUSH1 0x20 MSTORE DUP1 PUSH0 MSTORE PUSH1 0x40 PUSH0 KECCAK256 PUSH0 SWAP2 POP SWAP1 POP DUP1 PUSH0 ADD PUSH0 SWAP1 SLOAD SWAP1 PUSH2 0x100 EXP SWAP1 DIV PUSH20 0xFFFFFFFFFFFFFFFFFFFFFFFFFFFFFFFFFFFFFFFF AND SWAP1 DUP1 PUSH1 0x1 ADD PUSH0 SWAP1 SLOAD SWAP1 PUSH2 0x100 EXP SWAP1 DIV PUSH20 0xFFFFFFFFFFFFFFFFFFFFFFFFFFFFFFFFFFFFFFFF AND SWAP1 DUP1 PUSH1 0x2 ADD SLOAD SWAP1 DUP1 PUSH1 0x3 ADD SLOAD SWAP1 DUP1 PUSH1 0x4 ADD SLOAD SWAP1 DUP1 PUSH1 0x5 ADD PUSH0 SWAP1 SLOAD SWAP1 PUSH2 0x100 EXP SWAP1 DIV PUSH1 0xFF AND SWAP1 DUP1 PUSH1 0x5 ADD PUSH1 0x1 SWAP1 SLOAD SWAP1 PUSH2 0x100 EXP SWAP1 DIV PUSH1 0xFF AND SWAP1 DUP1 PUSH1 0x6 ADD DUP1 SLOAD PUSH2 0x5A7 SWAP1 PUSH2 0x2D36 JUMP JUMPDEST DUP1 PUSH1 0x1F ADD PUSH1 0x20 DUP1 SWAP2 DIV MUL PUSH1 0x20 ADD PUSH1 0x40 MLOAD SWAP1 DUP2 ADD PUSH1 0x40 MSTORE DUP1 SWAP3 SWAP2 SWAP1 DUP2 DUP2 MSTORE PUSH1 0x20 ADD DUP3 DUP1 SLOAD PUSH2 0x5D3 SWAP1 PUSH2 0x2D36 JUMP JUMPDEST DUP1 ISZERO PUSH2 0x61E JUMPI DUP1 PUSH1 0x1F LT PUSH2 0x5F5 JUMPI PUSH2 0x100 DUP1 DUP4 SLOAD DIV MUL DUP4 MSTORE SWAP2 PUSH1 0x20 ADD SWAP2 PUSH2 0x61E JUMP JUMPDEST DUP3 ADD SWAP2 SWAP1 PUSH0 MSTORE PUSH1 0x20 PUSH0 KECCAK256 SWAP1 JUMPDEST DUP2 SLOAD DUP2 MSTORE SWAP1 PUSH1 0x1 ADD SWAP1 PUSH1 0x20 ADD DUP1 DUP4 GT PUSH2 0x601 JUMPI DUP3 SWAP1 SUB PUSH1 0x1F AND DUP3 ADD SWAP2 JUMPDEST POP POP POP POP POP SWAP1 POP DUP9 JUMP JUMPDEST DUP1 PUSH1 0x7 PUSH0 DUP5 DUP2 MSTORE PUSH1 0x20 ADD SWAP1 DUP2 MSTORE PUSH1 0x20 ADD PUSH0 KECCAK256 PUSH0 PUSH2 0x100 EXP DUP2 SLOAD DUP2 PUSH1 0xFF MUL NOT AND SWAP1 DUP4 ISZERO ISZERO MUL OR SWAP1 SSTORE POP POP POP JUMP JUMPDEST PUSH1 0x2 PUSH1 0x20 MSTORE DUP1 PUSH0 MSTORE PUSH1 0x40 PUSH0 KECCAK256 PUSH0 SWAP2 POP SLOAD SWAP1 PUSH2 0x100 EXP SWAP1 DIV PUSH1 0xFF AND DUP2 JUMP JUMPDEST PUSH1 0x2 PUSH0 ORIGIN PUSH20 0xFFFFFFFFFFFFFFFFFFFFFFFFFFFFFFFFFFFFFFFF AND PUSH20 0xFFFFFFFFFFFFFFFFFFFFFFFFFFFFFFFFFFFFFFFF AND DUP2 MSTORE PUSH1 0x20 ADD SWAP1 DUP2 MSTORE PUSH1 0x20 ADD PUSH0 KECCAK256 PUSH0 SWAP1 SLOAD SWAP1 PUSH2 0x100 EXP SWAP1 DIV PUSH1 0xFF AND PUSH2 0x6FA JUMPI PUSH1 0x40 MLOAD PUSH32 0x8C379A000000000000000000000000000000000000000000000000000000000 DUP2 MSTORE PUSH1 0x4 ADD PUSH2 0x6F1 SWAP1 PUSH2 0x2DD6 JUMP JUMPDEST PUSH1 0x40 MLOAD DUP1 SWAP2 SUB SWAP1 REVERT JUMPDEST PUSH0 PUSH1 0x3 PUSH0 DUP4 DUP2 MSTORE PUSH1 0x20 ADD SWAP1 DUP2 MSTORE PUSH1 0x20 ADD PUSH0 KECCAK256 SWAP1 POP DUP1 PUSH1 0x3 ADD SLOAD TIMESTAMP LT ISZERO PUSH2 0x755 JUMPI PUSH1 0x40 MLOAD PUSH32 0x8C379A000000000000000000000000000000000000000000000000000000000 DUP2 MSTORE PUSH1 0x4 ADD PUSH2 0x74C SWAP1 PUSH2 0x2E3E JUMP JUMPDEST PUSH1 0x40 MLOAD DUP1 SWAP2 SUB SWAP1 REVERT JUMPDEST DUP1 PUSH1 0x4 ADD PUSH0 SWAP1 SLOAD SWAP1 PUSH2 0x100 EXP SWAP1 DIV PUSH1 0xFF AND ISZERO PUSH2 0x7A6 JUMPI PUSH1 0x40 MLOAD PUSH32 0x8C379A000000000000000000000000000000000000000000000000000000000 DUP2 MSTORE PUSH1 0x4 ADD PUSH2 0x79D SWAP1 PUSH2 0x2EA6 JUMP JUMPDEST PUSH1 0x40 MLOAD DUP1 SWAP2 SUB SWAP1 REVERT JUMPDEST PUSH0 DUP2 PUSH1 0x2 ADD SLOAD DUP3 PUSH1 0x1 ADD SLOAD GT SWAP1 POP PUSH1 0x1 DUP3 PUSH1 0x4 ADD PUSH0 PUSH2 0x100 EXP DUP2 SLOAD DUP2 PUSH1 0xFF MUL NOT AND SWAP1 DUP4 ISZERO ISZERO MUL OR SWAP1 SSTORE POP PUSH1 0x1 PUSH0 SWAP1 SLOAD SWAP1 PUSH2 0x100 EXP SWAP1 DIV PUSH20 0xFFFFFFFFFFFFFFFFFFFFFFFFFFFFFFFFFFFFFFFF AND PUSH20 0xFFFFFFFFFFFFFFFFFFFFFFFFFFFFFFFFFFFFFFFF AND PUSH4 0xA0712D68 PUSH8 0x1BC16D674EC80000 PUSH1 0x40 MLOAD DUP3 PUSH4 0xFFFFFFFF AND PUSH1 0xE0 SHL DUP2 MSTORE PUSH1 0x4 ADD PUSH2 0x832 SWAP2 SWAP1 PUSH2 0x2F06 JUMP JUMPDEST PUSH0 PUSH1 0x40 MLOAD DUP1 DUP4 SUB DUP2 PUSH0 DUP8 DUP1 EXTCODESIZE ISZERO DUP1 ISZERO PUSH2 0x849 JUMPI PUSH0 DUP1 REVERT JUMPDEST POP GAS CALL ISZERO DUP1 ISZERO PUSH2 0x85B JUMPI RETURNDATASIZE PUSH0 DUP1 RETURNDATACOPY RETURNDATASIZE PUSH0 REVERT JUMPDEST POP POP POP POP PUSH32 0x948F4A9CD986F1118C3FBD459F7A22B23C0693E1CA3EF06A6A8BE5AA7D39CC03 DUP4 DUP3 PUSH1 0x40 MLOAD PUSH2 0x890 SWAP3 SWAP2 SWAP1 PUSH2 0x2F1F JUMP JUMPDEST PUSH1 0x40 MLOAD DUP1 SWAP2 SUB SWAP1 LOG1 POP POP POP JUMP JUMPDEST PUSH1 0x2 PUSH0 ORIGIN PUSH20 0xFFFFFFFFFFFFFFFFFFFFFFFFFFFFFFFFFFFFFFFF AND PUSH20 0xFFFFFFFFFFFFFFFFFFFFFFFFFFFFFFFFFFFFFFFF AND DUP2 MSTORE PUSH1 0x20 ADD SWAP1 DUP2 MSTORE PUSH1 0x20 ADD PUSH0 KECCAK256 PUSH0 SWAP1 SLOAD SWAP1 PUSH2 0x100 EXP SWAP1 DIV PUSH1 0xFF AND ISZERO PUSH2 0x927 JUMPI PUSH1 0x40 MLOAD PUSH32 0x8C379A000000000000000000000000000000000000000000000000000000000 DUP2 MSTORE PUSH1 0x4 ADD PUSH2 0x91E SWAP1 PUSH2 0x2F90 JUMP JUMPDEST PUSH1 0x40 MLOAD DUP1 SWAP2 SUB SWAP1 REVERT JUMPDEST PUSH1 0x5A PUSH0 DUP1 SLOAD SWAP1 PUSH2 0x100 EXP SWAP1 DIV PUSH20 0xFFFFFFFFFFFFFFFFFFFFFFFFFFFFFFFFFFFFFFFF AND PUSH20 0xFFFFFFFFFFFFFFFFFFFFFFFFFFFFFFFFFFFFFFFF AND PUSH4 0xBACCBFDB ORIGIN PUSH1 0x40 MLOAD DUP3 PUSH4 0xFFFFFFFF AND PUSH1 0xE0 SHL DUP2 MSTORE PUSH1 0x4 ADD PUSH2 0x981 SWAP2 SWAP1 PUSH2 0x2FAE JUMP JUMPDEST PUSH1 0x20 PUSH1 0x40 MLOAD DUP1 DUP4 SUB DUP2 DUP7 GAS STATICCALL ISZERO DUP1 ISZERO PUSH2 0x99C JUMPI RETURNDATASIZE PUSH0 DUP1 RETURNDATACOPY RETURNDATASIZE PUSH0 REVERT JUMPDEST POP POP POP POP PUSH1 0x40 MLOAD RETURNDATASIZE PUSH1 0x1F NOT PUSH1 0x1F DUP3 ADD AND DUP3 ADD DUP1 PUSH1 0x40 MSTORE POP DUP2 ADD SWAP1 PUSH2 0x9C0 SWAP2 SWAP1 PUSH2 0x2FDB JUMP JUMPDEST LT ISZERO PUSH2 0xA01 JUMPI PUSH1 0x40 MLOAD PUSH32 0x8C379A000000000000000000000000000000000000000000000000000000000 DUP2 MSTORE PUSH1 0x4 ADD PUSH2 0x9F8 SWAP1 PUSH2 0x3050 JUMP JUMPDEST PUSH1 0x40 MLOAD DUP1 SWAP2 SUB SWAP1 REVERT JUMPDEST PUSH1 0x1 PUSH1 0x2 PUSH0 ORIGIN PUSH20 0xFFFFFFFFFFFFFFFFFFFFFFFFFFFFFFFFFFFFFFFF AND PUSH20 0xFFFFFFFFFFFFFFFFFFFFFFFFFFFFFFFFFFFFFFFF AND DUP2 MSTORE PUSH1 0x20 ADD SWAP1 DUP2 MSTORE PUSH1 0x20 ADD PUSH0 KECCAK256 PUSH0 PUSH2 0x100 EXP DUP2 SLOAD DUP2 PUSH1 0xFF MUL NOT AND SWAP1 DUP4 ISZERO ISZERO MUL OR SWAP1 SSTORE POP PUSH1 0x1 PUSH0 SWAP1 SLOAD SWAP1 PUSH2 0x100 EXP SWAP1 DIV PUSH20 0xFFFFFFFFFFFFFFFFFFFFFFFFFFFFFFFFFFFFFFFF AND PUSH20 0xFFFFFFFFFFFFFFFFFFFFFFFFFFFFFFFFFFFFFFFF AND PUSH4 0xA0712D68 PUSH8 0xDE0B6B3A7640000 PUSH1 0x40 MLOAD DUP3 PUSH4 0xFFFFFFFF AND PUSH1 0xE0 SHL DUP2 MSTORE PUSH1 0x4 ADD PUSH2 0xAB8 SWAP2 SWAP1 PUSH2 0x30A7 JUMP JUMPDEST PUSH0 PUSH1 0x40 MLOAD DUP1 DUP4 SUB DUP2 PUSH0 DUP8 DUP1 EXTCODESIZE ISZERO DUP1 ISZERO PUSH2 0xACF JUMPI PUSH0 DUP1 REVERT JUMPDEST POP GAS CALL ISZERO DUP1 ISZERO PUSH2 0xAE1 JUMPI RETURNDATASIZE PUSH0 DUP1 RETURNDATACOPY RETURNDATASIZE PUSH0 REVERT JUMPDEST POP POP POP POP PUSH32 0x92FABFA210DF88D92C2F5A07DDD43A985B208D8B19B7A78BA1284AA4B287D862 CALLER PUSH1 0x40 MLOAD PUSH2 0xB14 SWAP2 SWAP1 PUSH2 0x2FAE JUMP JUMPDEST PUSH1 0x40 MLOAD DUP1 SWAP2 SUB SWAP1 LOG1 JUMP JUMPDEST PUSH0 ISZERO ISZERO PUSH1 0x4 PUSH0 DUP7 DUP2 MSTORE PUSH1 0x20 ADD SWAP1 DUP2 MSTORE PUSH1 0x20 ADD PUSH0 KECCAK256 PUSH1 0x5 ADD PUSH1 0x1 SWAP1 SLOAD SWAP1 PUSH2 0x100 EXP SWAP1 DIV PUSH1 0xFF AND ISZERO ISZERO EQ PUSH2 0xB85 JUMPI PUSH1 0x40 MLOAD PUSH32 0x8C379A000000000000000000000000000000000000000000000000000000000 DUP2 MSTORE PUSH1 0x4 ADD PUSH2 0xB7C SWAP1 PUSH2 0x310A JUMP JUMPDEST PUSH1 0x40 MLOAD DUP1 SWAP2 SUB SWAP1 REVERT JUMPDEST CALLER PUSH20 0xFFFFFFFFFFFFFFFFFFFFFFFFFFFFFFFFFFFFFFFF AND PUSH1 0x4 PUSH0 DUP7 DUP2 MSTORE PUSH1 0x20 ADD SWAP1 DUP2 MSTORE PUSH1 0x20 ADD PUSH0 KECCAK256 PUSH0 ADD PUSH0 SWAP1 SLOAD SWAP1 PUSH2 0x100 EXP SWAP1 DIV PUSH20 0xFFFFFFFFFFFFFFFFFFFFFFFFFFFFFFFFFFFFFFFF AND PUSH20 0xFFFFFFFFFFFFFFFFFFFFFFFFFFFFFFFFFFFFFFFF AND EQ DUP1 PUSH2 0xC4F JUMPI POP CALLER PUSH20 0xFFFFFFFFFFFFFFFFFFFFFFFFFFFFFFFFFFFFFFFF AND PUSH1 0x4 PUSH0 DUP7 DUP2 MSTORE PUSH1 0x20 ADD SWAP1 DUP2 MSTORE PUSH1 0x20 ADD PUSH0 KECCAK256 PUSH1 0x1 ADD PUSH0 SWAP1 SLOAD SWAP1 PUSH2 0x100 EXP SWAP1 DIV PUSH20 0xFFFFFFFFFFFFFFFFFFFFFFFFFFFFFFFFFFFFFFFF AND PUSH20 0xFFFFFFFFFFFFFFFFFFFFFFFFFFFFFFFFFFFFFFFF AND EQ JUMPDEST PUSH2 0xC8E JUMPI PUSH1 0x40 MLOAD PUSH32 0x8C379A000000000000000000000000000000000000000000000000000000000 DUP2 MSTORE PUSH1 0x4 ADD PUSH2 0xC85 SWAP1 PUSH2 0x3172 JUMP JUMPDEST PUSH1 0x40 MLOAD DUP1 SWAP2 SUB SWAP1 REVERT JUMPDEST PUSH1 0x9 PUSH0 DUP2 SLOAD DUP1 SWAP3 SWAP2 SWAP1 PUSH2 0xCA0 SWAP1 PUSH2 0x31BD JUMP JUMPDEST SWAP2 SWAP1 POP SSTORE POP PUSH1 0x40 MLOAD DUP1 PUSH2 0x120 ADD PUSH1 0x40 MSTORE DUP1 PUSH1 0x9 SLOAD DUP2 MSTORE PUSH1 0x20 ADD DUP6 DUP2 MSTORE PUSH1 0x20 ADD PUSH3 0x3F480 TIMESTAMP PUSH2 0xCCE SWAP2 SWAP1 PUSH2 0x3204 JUMP JUMPDEST DUP2 MSTORE PUSH1 0x20 ADD DUP5 DUP2 MSTORE PUSH1 0x20 ADD DUP4 DUP2 MSTORE PUSH1 0x20 ADD PUSH0 DUP2 MSTORE PUSH1 0x20 ADD PUSH0 DUP2 MSTORE PUSH1 0x20 ADD PUSH0 ISZERO ISZERO DUP2 MSTORE PUSH1 0x20 ADD DUP3 PUSH20 0xFFFFFFFFFFFFFFFFFFFFFFFFFFFFFFFFFFFFFFFF AND DUP2 MSTORE POP PUSH1 0x5 PUSH0 PUSH1 0x9 SLOAD DUP2 MSTORE PUSH1 0x20 ADD SWAP1 DUP2 MSTORE PUSH1 0x20 ADD PUSH0 KECCAK256 PUSH0 DUP3 ADD MLOAD DUP2 PUSH0 ADD SSTORE PUSH1 0x20 DUP3 ADD MLOAD DUP2 PUSH1 0x1 ADD SSTORE PUSH1 0x40 DUP3 ADD MLOAD DUP2 PUSH1 0x2 ADD SSTORE PUSH1 0x60 DUP3 ADD MLOAD DUP2 PUSH1 0x3 ADD SWAP1 DUP2 PUSH2 0xD51 SWAP2 SWAP1 PUSH2 0x33CB JUMP JUMPDEST POP PUSH1 0x80 DUP3 ADD MLOAD DUP2 PUSH1 0x4 ADD SWAP1 DUP2 PUSH2 0xD67 SWAP2 SWAP1 PUSH2 0x33CB JUMP JUMPDEST POP PUSH1 0xA0 DUP3 ADD MLOAD DUP2 PUSH1 0x5 ADD SSTORE PUSH1 0xC0 DUP3 ADD MLOAD DUP2 PUSH1 0x6 ADD SSTORE PUSH1 0xE0 DUP3 ADD MLOAD DUP2 PUSH1 0x7 ADD PUSH0 PUSH2 0x100 EXP DUP2 SLOAD DUP2 PUSH1 0xFF MUL NOT AND SWAP1 DUP4 ISZERO ISZERO MUL OR SWAP1 SSTORE POP PUSH2 0x100 DUP3 ADD MLOAD DUP2 PUSH1 0x7 ADD PUSH1 0x1 PUSH2 0x100 EXP DUP2 SLOAD DUP2 PUSH20 0xFFFFFFFFFFFFFFFFFFFFFFFFFFFFFFFFFFFFFFFF MUL NOT AND SWAP1 DUP4 PUSH20 0xFFFFFFFFFFFFFFFFFFFFFFFFFFFFFFFFFFFFFFFF AND MUL OR SWAP1 SSTORE POP SWAP1 POP POP PUSH1 0x1 PUSH1 0x4 PUSH0 DUP7 DUP2 MSTORE PUSH1 0x20 ADD SWAP1 DUP2 MSTORE PUSH1 0x20 ADD PUSH0 KECCAK256 PUSH1 0x5 ADD PUSH1 0x1 PUSH2 0x100 EXP DUP2 SLOAD DUP2 PUSH1 0xFF MUL NOT AND SWAP1 DUP4 ISZERO ISZERO MUL OR SWAP1 SSTORE POP POP POP POP POP JUMP JUMPDEST PUSH2 0xE21 PUSH2 0x2418 JUMP JUMPDEST PUSH1 0x5 PUSH0 DUP4 DUP2 MSTORE PUSH1 0x20 ADD SWAP1 DUP2 MSTORE PUSH1 0x20 ADD PUSH0 KECCAK256 PUSH1 0x40 MLOAD DUP1 PUSH2 0x120 ADD PUSH1 0x40 MSTORE SWAP1 DUP2 PUSH0 DUP3 ADD SLOAD DUP2 MSTORE PUSH1 0x20 ADD PUSH1 0x1 DUP3 ADD SLOAD DUP2 MSTORE PUSH1 0x20 ADD PUSH1 0x2 DUP3 ADD SLOAD DUP2 MSTORE PUSH1 0x20 ADD PUSH1 0x3 DUP3 ADD DUP1 SLOAD PUSH2 0xE6B SWAP1 PUSH2 0x2D36 JUMP JUMPDEST DUP1 PUSH1 0x1F ADD PUSH1 0x20 DUP1 SWAP2 DIV MUL PUSH1 0x20 ADD PUSH1 0x40 MLOAD SWAP1 DUP2 ADD PUSH1 0x40 MSTORE DUP1 SWAP3 SWAP2 SWAP1 DUP2 DUP2 MSTORE PUSH1 0x20 ADD DUP3 DUP1 SLOAD PUSH2 0xE97 SWAP1 PUSH2 0x2D36 JUMP JUMPDEST DUP1 ISZERO PUSH2 0xEE2 JUMPI DUP1 PUSH1 0x1F LT PUSH2 0xEB9 JUMPI PUSH2 0x100 DUP1 DUP4 SLOAD DIV MUL DUP4 MSTORE SWAP2 PUSH1 0x20 ADD SWAP2 PUSH2 0xEE2 JUMP JUMPDEST DUP3 ADD SWAP2 SWAP1 PUSH0 MSTORE PUSH1 0x20 PUSH0 KECCAK256 SWAP1 JUMPDEST DUP2 SLOAD DUP2 MSTORE SWAP1 PUSH1 0x1 ADD SWAP1 PUSH1 0x20 ADD DUP1 DUP4 GT PUSH2 0xEC5 JUMPI DUP3 SWAP1 SUB PUSH1 0x1F AND DUP3 ADD SWAP2 JUMPDEST POP POP POP POP POP DUP2 MSTORE PUSH1 0x20 ADD PUSH1 0x4 DUP3 ADD DUP1 SLOAD PUSH2 0xEFB SWAP1 PUSH2 0x2D36 JUMP JUMPDEST DUP1 PUSH1 0x1F ADD PUSH1 0x20 DUP1 SWAP2 DIV MUL PUSH1 0x20 ADD PUSH1 0x40 MLOAD SWAP1 DUP2 ADD PUSH1 0x40 MSTORE DUP1 SWAP3 SWAP2 SWAP1 DUP2 DUP2 MSTORE PUSH1 0x20 ADD DUP3 DUP1 SLOAD PUSH2 0xF27 SWAP1 PUSH2 0x2D36 JUMP JUMPDEST DUP1 ISZERO PUSH2 0xF72 JUMPI DUP1 PUSH1 0x1F LT PUSH2 0xF49 JUMPI PUSH2 0x100 DUP1 DUP4 SLOAD DIV MUL DUP4 MSTORE SWAP2 PUSH1 0x20 ADD SWAP2 PUSH2 0xF72 JUMP JUMPDEST DUP3 ADD SWAP2 SWAP1 PUSH0 MSTORE PUSH1 0x20 PUSH0 KECCAK256 SWAP1 JUMPDEST DUP2 SLOAD DUP2 MSTORE SWAP1 PUSH1 0x1 ADD SWAP1 PUSH1 0x20 ADD DUP1 DUP4 GT PUSH2 0xF55 JUMPI DUP3 SWAP1 SUB PUSH1 0x1F AND DUP3 ADD SWAP2 JUMPDEST POP POP POP POP POP DUP2 MSTORE PUSH1 0x20 ADD PUSH1 0x5 DUP3 ADD SLOAD DUP2 MSTORE PUSH1 0x20 ADD PUSH1 0x6 DUP3 ADD SLOAD DUP2 MSTORE PUSH1 0x20 ADD PUSH1 0x7 DUP3 ADD PUSH0 SWAP1 SLOAD SWAP1 PUSH2 0x100 EXP SWAP1 DIV PUSH1 0xFF AND ISZERO ISZERO ISZERO ISZERO DUP2 MSTORE PUSH1 0x20 ADD PUSH1 0x7 DUP3 ADD PUSH1 0x1 SWAP1 SLOAD SWAP1 PUSH2 0x100 EXP SWAP1 DIV PUSH20 0xFFFFFFFFFFFFFFFFFFFFFFFFFFFFFFFFFFFFFFFF AND PUSH20 0xFFFFFFFFFFFFFFFFFFFFFFFFFFFFFFFFFFFFFFFF AND PUSH20 0xFFFFFFFFFFFFFFFFFFFFFFFFFFFFFFFFFFFFFFFF AND DUP2 MSTORE POP POP SWAP1 POP SWAP2 SWAP1 POP JUMP JUMPDEST PUSH0 PUSH1 0x40 MLOAD DUP1 PUSH1 0xC0 ADD PUSH1 0x40 MSTORE DUP1 DUP4 DUP2 MSTORE PUSH1 0x20 ADD PUSH0 DUP2 MSTORE PUSH1 0x20 ADD PUSH0 DUP2 MSTORE PUSH1 0x20 ADD PUSH3 0x3F480 TIMESTAMP PUSH2 0x1033 SWAP2 SWAP1 PUSH2 0x3204 JUMP JUMPDEST DUP2 MSTORE PUSH1 0x20 ADD PUSH0 ISZERO ISZERO DUP2 MSTORE PUSH1 0x20 ADD ORIGIN PUSH20 0xFFFFFFFFFFFFFFFFFFFFFFFFFFFFFFFFFFFFFFFF AND DUP2 MSTORE POP PUSH1 0x3 PUSH0 PUSH1 0x8 SLOAD DUP2 MSTORE PUSH1 0x20 ADD SWAP1 DUP2 MSTORE PUSH1 0x20 ADD PUSH0 KECCAK256 PUSH0 DUP3 ADD MLOAD DUP2 PUSH0 ADD SWAP1 DUP2 PUSH2 0x1080 SWAP2 SWAP1 PUSH2 0x33CB JUMP JUMPDEST POP PUSH1 0x20 DUP3 ADD MLOAD DUP2 PUSH1 0x1 ADD SSTORE PUSH1 0x40 DUP3 ADD MLOAD DUP2 PUSH1 0x2 ADD SSTORE PUSH1 0x60 DUP3 ADD MLOAD DUP2 PUSH1 0x3 ADD SSTORE PUSH1 0x80 DUP3 ADD MLOAD DUP2 PUSH1 0x4 ADD PUSH0 PUSH2 0x100 EXP DUP2 SLOAD DUP2 PUSH1 0xFF MUL NOT AND SWAP1 DUP4 ISZERO ISZERO MUL OR SWAP1 SSTORE POP PUSH1 0xA0 DUP3 ADD MLOAD DUP2 PUSH1 0x4 ADD PUSH1 0x1 PUSH2 0x100 EXP DUP2 SLOAD DUP2 PUSH20 0xFFFFFFFFFFFFFFFFFFFFFFFFFFFFFFFFFFFFFFFF MUL NOT AND SWAP1 DUP4 PUSH20 0xFFFFFFFFFFFFFFFFFFFFFFFFFFFFFFFFFFFFFFFF AND MUL OR SWAP1 SSTORE POP SWAP1 POP POP PUSH1 0x8 PUSH0 DUP2 SLOAD DUP1 SWAP3 SWAP2 SWAP1 PUSH2 0x111A SWAP1 PUSH2 0x31BD JUMP JUMPDEST SWAP2 SWAP1 POP SSTORE POP PUSH32 0xC8C078BFEE58E5822588F08B4509ED1EB5058E03F666CCA84DD2D44BF5C288A8 PUSH1 0x8 SLOAD DUP4 ORIGIN PUSH1 0x40 MLOAD PUSH2 0x1154 SWAP4 SWAP3 SWAP2 SWAP1 PUSH2 0x349A JUMP JUMPDEST PUSH1 0x40 MLOAD DUP1 SWAP2 SUB SWAP1 LOG1 PUSH1 0x1 SWAP1 POP SWAP2 SWAP1 POP JUMP JUMPDEST PUSH1 0x5 PUSH1 0x20 MSTORE DUP1 PUSH0 MSTORE PUSH1 0x40 PUSH0 KECCAK256 PUSH0 SWAP2 POP SWAP1 POP DUP1 PUSH0 ADD SLOAD SWAP1 DUP1 PUSH1 0x1 ADD SLOAD SWAP1 DUP1 PUSH1 0x2 ADD SLOAD SWAP1 DUP1 PUSH1 0x3 ADD DUP1 SLOAD PUSH2 0x1196 SWAP1 PUSH2 0x2D36 JUMP JUMPDEST DUP1 PUSH1 0x1F ADD PUSH1 0x20 DUP1 SWAP2 DIV MUL PUSH1 0x20 ADD PUSH1 0x40 MLOAD SWAP1 DUP2 ADD PUSH1 0x40 MSTORE DUP1 SWAP3 SWAP2 SWAP1 DUP2 DUP2 MSTORE PUSH1 0x20 ADD DUP3 DUP1 SLOAD PUSH2 0x11C2 SWAP1 PUSH2 0x2D36 JUMP JUMPDEST DUP1 ISZERO PUSH2 0x120D JUMPI DUP1 PUSH1 0x1F LT PUSH2 0x11E4 JUMPI PUSH2 0x100 DUP1 DUP4 SLOAD DIV MUL DUP4 MSTORE SWAP2 PUSH1 0x20 ADD SWAP2 PUSH2 0x120D JUMP JUMPDEST DUP3 ADD SWAP2 SWAP1 PUSH0 MSTORE PUSH1 0x20 PUSH0 KECCAK256 SWAP1 JUMPDEST DUP2 SLOAD DUP2 MSTORE SWAP1 PUSH1 0x1 ADD SWAP1 PUSH1 0x20 ADD DUP1 DUP4 GT PUSH2 0x11F0 JUMPI DUP3 SWAP1 SUB PUSH1 0x1F AND DUP3 ADD SWAP2 JUMPDEST POP POP POP POP POP SWAP1 DUP1 PUSH1 0x4 ADD DUP1 SLOAD PUSH2 0x1222 SWAP1 PUSH2 0x2D36 JUMP JUMPDEST DUP1 PUSH1 0x1F ADD PUSH1 0x20 DUP1 SWAP2 DIV MUL PUSH1 0x20 ADD PUSH1 0x40 MLOAD SWAP1 DUP2 ADD PUSH1 0x40 MSTORE DUP1 SWAP3 SWAP2 SWAP1 DUP2 DUP2 MSTORE PUSH1 0x20 ADD DUP3 DUP1 SLOAD PUSH2 0x124E SWAP1 PUSH2 0x2D36 JUMP JUMPDEST DUP1 ISZERO PUSH2 0x1299 JUMPI DUP1 PUSH1 0x1F LT PUSH2 0x1270 JUMPI PUSH2 0x100 DUP1 DUP4 SLOAD DIV MUL DUP4 MSTORE SWAP2 PUSH1 0x20 ADD SWAP2 PUSH2 0x1299 JUMP JUMPDEST DUP3 ADD SWAP2 SWAP1 PUSH0 MSTORE PUSH1 0x20 PUSH0 KECCAK256 SWAP1 JUMPDEST DUP2 SLOAD DUP2 MSTORE SWAP1 PUSH1 0x1 ADD SWAP1 PUSH1 0x20 ADD DUP1 DUP4 GT PUSH2 0x127C JUMPI DUP3 SWAP1 SUB PUSH1 0x1F AND DUP3 ADD SWAP2 JUMPDEST POP POP POP POP POP SWAP1 DUP1 PUSH1 0x5 ADD SLOAD SWAP1 DUP1 PUSH1 0x6 ADD SLOAD SWAP1 DUP1 PUSH1 0x7 ADD PUSH0 SWAP1 SLOAD SWAP1 PUSH2 0x100 EXP SWAP1 DIV PUSH1 0xFF AND SWAP1 DUP1 PUSH1 0x7 ADD PUSH1 0x1 SWAP1 SLOAD SWAP1 PUSH2 0x100 EXP SWAP1 DIV PUSH20 0xFFFFFFFFFFFFFFFFFFFFFFFFFFFFFFFFFFFFFFFF AND SWAP1 POP DUP10 JUMP JUMPDEST PUSH1 0x7 PUSH1 0x20 MSTORE DUP1 PUSH0 MSTORE PUSH1 0x40 PUSH0 KECCAK256 PUSH0 SWAP2 POP SLOAD SWAP1 PUSH2 0x100 EXP SWAP1 DIV PUSH1 0xFF AND DUP2 JUMP JUMPDEST PUSH1 0x6 PUSH1 0x20 MSTORE DUP1 PUSH0 MSTORE PUSH1 0x40 PUSH0 KECCAK256 PUSH0 SWAP2 POP SWAP1 POP DUP1 PUSH0 ADD PUSH0 SWAP1 SLOAD SWAP1 PUSH2 0x100 EXP SWAP1 DIV PUSH20 0xFFFFFFFFFFFFFFFFFFFFFFFFFFFFFFFFFFFFFFFF AND SWAP1 DUP1 PUSH1 0x1 ADD SLOAD SWAP1 DUP1 PUSH1 0x2 ADD DUP1 SLOAD PUSH2 0x134E SWAP1 PUSH2 0x2D36 JUMP JUMPDEST DUP1 PUSH1 0x1F ADD PUSH1 0x20 DUP1 SWAP2 DIV MUL PUSH1 0x20 ADD PUSH1 0x40 MLOAD SWAP1 DUP2 ADD PUSH1 0x40 MSTORE DUP1 SWAP3 SWAP2 SWAP1 DUP2 DUP2 MSTORE PUSH1 0x20 ADD DUP3 DUP1 SLOAD PUSH2 0x137A SWAP1 PUSH2 0x2D36 JUMP JUMPDEST DUP1 ISZERO PUSH2 0x13C5 JUMPI DUP1 PUSH1 0x1F LT PUSH2 0x139C JUMPI PUSH2 0x100 DUP1 DUP4 SLOAD DIV MUL DUP4 MSTORE SWAP2 PUSH1 0x20 ADD SWAP2 PUSH2 0x13C5 JUMP JUMPDEST DUP3 ADD SWAP2 SWAP1 PUSH0 MSTORE PUSH1 0x20 PUSH0 KECCAK256 SWAP1 JUMPDEST DUP2 SLOAD DUP2 MSTORE SWAP1 PUSH1 0x1 ADD SWAP1 PUSH1 0x20 ADD DUP1 DUP4 GT PUSH2 0x13A8 JUMPI DUP3 SWAP1 SUB PUSH1 0x1F AND DUP3 ADD SWAP2 JUMPDEST POP POP POP POP POP SWAP1 DUP1 PUSH1 0x3 ADD PUSH0 SWAP1 SLOAD SWAP1 PUSH2 0x100 EXP SWAP1 DIV PUSH1 0xFF AND SWAP1 POP DUP5 JUMP JUMPDEST PUSH1 0x9 SLOAD DUP2 JUMP JUMPDEST PUSH1 0x2 PUSH0 ORIGIN PUSH20 0xFFFFFFFFFFFFFFFFFFFFFFFFFFFFFFFFFFFFFFFF AND PUSH20 0xFFFFFFFFFFFFFFFFFFFFFFFFFFFFFFFFFFFFFFFF AND DUP2 MSTORE PUSH1 0x20 ADD SWAP1 DUP2 MSTORE PUSH1 0x20 ADD PUSH0 KECCAK256 PUSH0 SWAP1 SLOAD SWAP1 PUSH2 0x100 EXP SWAP1 DIV PUSH1 0xFF AND PUSH2 0x1470 JUMPI PUSH1 0x40 MLOAD PUSH32 0x8C379A000000000000000000000000000000000000000000000000000000000 DUP2 MSTORE PUSH1 0x4 ADD PUSH2 0x1467 SWAP1 PUSH2 0x2DD6 JUMP JUMPDEST PUSH1 0x40 MLOAD DUP1 SWAP2 SUB SWAP1 REVERT JUMPDEST PUSH1 0x5 PUSH0 DUP4 DUP2 MSTORE PUSH1 0x20 ADD SWAP1 DUP2 MSTORE PUSH1 0x20 ADD PUSH0 KECCAK256 PUSH1 0x2 ADD SLOAD TIMESTAMP GT ISZERO PUSH2 0x14C7 JUMPI PUSH1 0x40 MLOAD PUSH32 0x8C379A000000000000000000000000000000000000000000000000000000000 DUP2 MSTORE PUSH1 0x4 ADD PUSH2 0x14BE SWAP1 PUSH2 0x3520 JUMP JUMPDEST PUSH1 0x40 MLOAD DUP1 SWAP2 SUB SWAP1 REVERT JUMPDEST PUSH1 0x5 PUSH0 DUP4 DUP2 MSTORE PUSH1 0x20 ADD SWAP1 DUP2 MSTORE PUSH1 0x20 ADD PUSH0 KECCAK256 PUSH1 0x7 ADD PUSH0 SWAP1 SLOAD SWAP1 PUSH2 0x100 EXP SWAP1 DIV PUSH1 0xFF AND ISZERO PUSH2 0x1528 JUMPI PUSH1 0x40 MLOAD PUSH32 0x8C379A000000000000000000000000000000000000000000000000000000000 DUP2 MSTORE PUSH1 0x4 ADD PUSH2 0x151F SWAP1 PUSH2 0x3588 JUMP JUMPDEST PUSH1 0x40 MLOAD DUP1 SWAP2 SUB SWAP1 REVERT JUMPDEST DUP1 ISZERO PUSH2 0x155C JUMPI PUSH1 0x5 PUSH0 DUP4 DUP2 MSTORE PUSH1 0x20 ADD SWAP1 DUP2 MSTORE PUSH1 0x20 ADD PUSH0 KECCAK256 PUSH1 0x5 ADD PUSH0 DUP2 SLOAD DUP1 SWAP3 SWAP2 SWAP1 PUSH2 0x1552 SWAP1 PUSH2 0x31BD JUMP JUMPDEST SWAP2 SWAP1 POP SSTORE POP PUSH2 0x1586 JUMP JUMPDEST PUSH1 0x5 PUSH0 DUP4 DUP2 MSTORE PUSH1 0x20 ADD SWAP1 DUP2 MSTORE PUSH1 0x20 ADD PUSH0 KECCAK256 PUSH1 0x6 ADD PUSH0 DUP2 SLOAD DUP1 SWAP3 SWAP2 SWAP1 PUSH2 0x1580 SWAP1 PUSH2 0x31BD JUMP JUMPDEST SWAP2 SWAP1 POP SSTORE POP JUMPDEST PUSH1 0x1 PUSH0 SWAP1 SLOAD SWAP1 PUSH2 0x100 EXP SWAP1 DIV PUSH20 0xFFFFFFFFFFFFFFFFFFFFFFFFFFFFFFFFFFFFFFFF AND PUSH20 0xFFFFFFFFFFFFFFFFFFFFFFFFFFFFFFFFFFFFFFFF AND PUSH4 0xA0712D68 PUSH8 0xDE0B6B3A7640000 PUSH1 0x40 MLOAD DUP3 PUSH4 0xFFFFFFFF AND PUSH1 0xE0 SHL DUP2 MSTORE PUSH1 0x4 ADD PUSH2 0x15E8 SWAP2 SWAP1 PUSH2 0x30A7 JUMP JUMPDEST PUSH0 PUSH1 0x40 MLOAD DUP1 DUP4 SUB DUP2 PUSH0 DUP8 DUP1 EXTCODESIZE ISZERO DUP1 ISZERO PUSH2 0x15FF JUMPI PUSH0 DUP1 REVERT JUMPDEST POP GAS CALL ISZERO DUP1 ISZERO PUSH2 0x1611 JUMPI RETURNDATASIZE PUSH0 DUP1 RETURNDATACOPY RETURNDATASIZE PUSH0 REVERT JUMPDEST POP POP POP POP PUSH32 0xF2913DBE661EE2ACC4A046D8FBCDC792373BDA34C41C6086484B5345E5785E5F DUP3 CALLER DUP4 PUSH1 0x40 MLOAD PUSH2 0x1648 SWAP4 SWAP3 SWAP2 SWAP1 PUSH2 0x35A6 JUMP JUMPDEST PUSH1 0x40 MLOAD DUP1 SWAP2 SUB SWAP1 LOG1 POP POP JUMP JUMPDEST PUSH0 PUSH1 0x4 PUSH0 DUP5 DUP2 MSTORE PUSH1 0x20 ADD SWAP1 DUP2 MSTORE PUSH1 0x20 ADD PUSH0 KECCAK256 SWAP1 POP DUP1 PUSH1 0x5 ADD PUSH0 SWAP1 SLOAD SWAP1 PUSH2 0x100 EXP SWAP1 DIV PUSH1 0xFF AND PUSH2 0x16B8 JUMPI PUSH1 0x40 MLOAD PUSH32 0x8C379A000000000000000000000000000000000000000000000000000000000 DUP2 MSTORE PUSH1 0x4 ADD PUSH2 0x16AF SWAP1 PUSH2 0x3625 JUMP JUMPDEST PUSH1 0x40 MLOAD DUP1 SWAP2 SUB SWAP1 REVERT JUMPDEST DUP1 PUSH0 ADD PUSH0 SWAP1 SLOAD SWAP1 PUSH2 0x100 EXP SWAP1 DIV PUSH20 0xFFFFFFFFFFFFFFFFFFFFFFFFFFFFFFFFFFFFFFFF AND PUSH20 0xFFFFFFFFFFFFFFFFFFFFFFFFFFFFFFFFFFFFFFFF AND ORIGIN PUSH20 0xFFFFFFFFFFFFFFFFFFFFFFFFFFFFFFFFFFFFFFFF AND EQ DUP1 PUSH2 0x1762 JUMPI POP DUP1 PUSH1 0x1 ADD PUSH0 SWAP1 SLOAD SWAP1 PUSH2 0x100 EXP SWAP1 DIV PUSH20 0xFFFFFFFFFFFFFFFFFFFFFFFFFFFFFFFFFFFFFFFF AND PUSH20 0xFFFFFFFFFFFFFFFFFFFFFFFFFFFFFFFFFFFFFFFF AND ORIGIN PUSH20 0xFFFFFFFFFFFFFFFFFFFFFFFFFFFFFFFFFFFFFFFF AND EQ JUMPDEST PUSH2 0x17A1 JUMPI PUSH1 0x40 MLOAD PUSH32 0x8C379A000000000000000000000000000000000000000000000000000000000 DUP2 MSTORE PUSH1 0x4 ADD PUSH2 0x1798 SWAP1 PUSH2 0x368D JUMP JUMPDEST PUSH1 0x40 MLOAD DUP1 SWAP2 SUB SWAP1 REVERT JUMPDEST PUSH1 0x6 PUSH0 DUP5 DUP2 MSTORE PUSH1 0x20 ADD SWAP1 DUP2 MSTORE PUSH1 0x20 ADD PUSH0 KECCAK256 PUSH1 0x3 ADD PUSH0 SWAP1 SLOAD SWAP1 PUSH2 0x100 EXP SWAP1 DIV PUSH1 0xFF AND ISZERO PUSH2 0x1802 JUMPI PUSH1 0x40 MLOAD PUSH32 0x8C379A000000000000000000000000000000000000000000000000000000000 DUP2 MSTORE PUSH1 0x4 ADD PUSH2 0x17F9 SWAP1 PUSH2 0x36F5 JUMP JUMPDEST PUSH1 0x40 MLOAD DUP1 SWAP2 SUB SWAP1 REVERT JUMPDEST PUSH0 DUP2 PUSH0 ADD PUSH0 SWAP1 SLOAD SWAP1 PUSH2 0x100 EXP SWAP1 DIV PUSH20 0xFFFFFFFFFFFFFFFFFFFFFFFFFFFFFFFFFFFFFFFF AND PUSH20 0xFFFFFFFFFFFFFFFFFFFFFFFFFFFFFFFFFFFFFFFF AND CALLER PUSH20 0xFFFFFFFFFFFFFFFFFFFFFFFFFFFFFFFFFFFFFFFF AND EQ PUSH2 0x1880 JUMPI DUP2 PUSH0 ADD PUSH0 SWAP1 SLOAD SWAP1 PUSH2 0x100 EXP SWAP1 DIV PUSH20 0xFFFFFFFFFFFFFFFFFFFFFFFFFFFFFFFFFFFFFFFF AND PUSH2 0x18A5 JUMP JUMPDEST DUP2 PUSH1 0x1 ADD PUSH0 SWAP1 SLOAD SWAP1 PUSH2 0x100 EXP SWAP1 DIV PUSH20 0xFFFFFFFFFFFFFFFFFFFFFFFFFFFFFFFFFFFFFFFF AND JUMPDEST SWAP1 POP PUSH1 0x1 PUSH1 0x6 PUSH0 DUP7 DUP2 MSTORE PUSH1 0x20 ADD SWAP1 DUP2 MSTORE PUSH1 0x20 ADD PUSH0 KECCAK256 PUSH1 0x3 ADD PUSH0 PUSH2 0x100 EXP DUP2 SLOAD DUP2 PUSH1 0xFF MUL NOT AND SWAP1 DUP4 ISZERO ISZERO MUL OR SWAP1 SSTORE POP PUSH1 0x1 PUSH1 0x4 PUSH0 DUP7 DUP2 MSTORE PUSH1 0x20 ADD SWAP1 DUP2 MSTORE PUSH1 0x20 ADD PUSH0 KECCAK256 PUSH1 0x5 ADD PUSH0 PUSH2 0x100 EXP DUP2 SLOAD DUP2 PUSH1 0xFF MUL NOT AND SWAP1 DUP4 ISZERO ISZERO MUL OR SWAP1 SSTORE POP PUSH0 DUP1 PUSH0 SWAP1 SLOAD SWAP1 PUSH2 0x100 EXP SWAP1 DIV PUSH20 0xFFFFFFFFFFFFFFFFFFFFFFFFFFFFFFFFFFFFFFFF AND PUSH20 0xFFFFFFFFFFFFFFFFFFFFFFFFFFFFFFFFFFFFFFFF AND PUSH4 0xBACCBFDB DUP4 PUSH1 0x40 MLOAD DUP3 PUSH4 0xFFFFFFFF AND PUSH1 0xE0 SHL DUP2 MSTORE PUSH1 0x4 ADD PUSH2 0x1959 SWAP2 SWAP1 PUSH2 0x2FAE JUMP JUMPDEST PUSH1 0x20 PUSH1 0x40 MLOAD DUP1 DUP4 SUB DUP2 DUP7 GAS STATICCALL ISZERO DUP1 ISZERO PUSH2 0x1974 JUMPI RETURNDATASIZE PUSH0 DUP1 RETURNDATACOPY RETURNDATASIZE PUSH0 REVERT JUMPDEST POP POP POP POP PUSH1 0x40 MLOAD RETURNDATASIZE PUSH1 0x1F NOT PUSH1 0x1F DUP3 ADD AND DUP3 ADD DUP1 PUSH1 0x40 MSTORE POP DUP2 ADD SWAP1 PUSH2 0x1998 SWAP2 SWAP1 PUSH2 0x2FDB JUMP JUMPDEST SWAP1 POP PUSH0 PUSH1 0x4 PUSH0 DUP8 DUP2 MSTORE PUSH1 0x20 ADD SWAP1 DUP2 MSTORE PUSH1 0x20 ADD PUSH0 KECCAK256 PUSH1 0x3 ADD SLOAD SWAP1 POP PUSH0 PUSH1 0x4 PUSH0 DUP9 DUP2 MSTORE PUSH1 0x20 ADD SWAP1 DUP2 MSTORE PUSH1 0x20 ADD PUSH0 KECCAK256 PUSH1 0x4 ADD SLOAD SWAP1 POP PUSH1 0x5A DUP7 LT PUSH2 0x1A8B JUMPI PUSH0 DUP1 SLOAD SWAP1 PUSH2 0x100 EXP SWAP1 DIV PUSH20 0xFFFFFFFFFFFFFFFFFFFFFFFFFFFFFFFFFFFFFFFF AND PUSH20 0xFFFFFFFFFFFFFFFFFFFFFFFFFFFFFFFFFFFFFFFF AND PUSH4 0x5C0E5F88 DUP6 DUP6 DUP5 DUP7 PUSH2 0x1A1B SWAP2 SWAP1 PUSH2 0x3713 JUMP JUMPDEST PUSH1 0x2 PUSH2 0x1A27 SWAP2 SWAP1 PUSH2 0x3746 JUMP JUMPDEST PUSH1 0x40 MLOAD DUP5 PUSH4 0xFFFFFFFF AND PUSH1 0xE0 SHL DUP2 MSTORE PUSH1 0x4 ADD PUSH2 0x1A45 SWAP4 SWAP3 SWAP2 SWAP1 PUSH2 0x3787 JUMP JUMPDEST PUSH1 0x20 PUSH1 0x40 MLOAD DUP1 DUP4 SUB DUP2 PUSH0 DUP8 GAS CALL ISZERO DUP1 ISZERO PUSH2 0x1A61 JUMPI RETURNDATASIZE PUSH0 DUP1 RETURNDATACOPY RETURNDATASIZE PUSH0 REVERT JUMPDEST POP POP POP POP PUSH1 0x40 MLOAD RETURNDATASIZE PUSH1 0x1F NOT PUSH1 0x1F DUP3 ADD AND DUP3 ADD DUP1 PUSH1 0x40 MSTORE POP DUP2 ADD SWAP1 PUSH2 0x1A85 SWAP2 SWAP1 PUSH2 0x37D0 JUMP JUMPDEST POP PUSH2 0x1BF6 JUMP JUMPDEST PUSH1 0x3C DUP7 LT PUSH2 0x1B40 JUMPI PUSH0 DUP1 SLOAD SWAP1 PUSH2 0x100 EXP SWAP1 DIV PUSH20 0xFFFFFFFFFFFFFFFFFFFFFFFFFFFFFFFFFFFFFFFF AND PUSH20 0xFFFFFFFFFFFFFFFFFFFFFFFFFFFFFFFFFFFFFFFF AND PUSH4 0x5C0E5F88 DUP6 DUP6 DUP5 DUP7 PUSH2 0x1ADC SWAP2 SWAP1 PUSH2 0x3713 JUMP JUMPDEST PUSH1 0x40 MLOAD DUP5 PUSH4 0xFFFFFFFF AND PUSH1 0xE0 SHL DUP2 MSTORE PUSH1 0x4 ADD PUSH2 0x1AFA SWAP4 SWAP3 SWAP2 SWAP1 PUSH2 0x3787 JUMP JUMPDEST PUSH1 0x20 PUSH1 0x40 MLOAD DUP1 DUP4 SUB DUP2 PUSH0 DUP8 GAS CALL ISZERO DUP1 ISZERO PUSH2 0x1B16 JUMPI RETURNDATASIZE PUSH0 DUP1 RETURNDATACOPY RETURNDATASIZE PUSH0 REVERT JUMPDEST POP POP POP POP PUSH1 0x40 MLOAD RETURNDATASIZE PUSH1 0x1F NOT PUSH1 0x1F DUP3 ADD AND DUP3 ADD DUP1 PUSH1 0x40 MSTORE POP DUP2 ADD SWAP1 PUSH2 0x1B3A SWAP2 SWAP1 PUSH2 0x37D0 JUMP JUMPDEST POP PUSH2 0x1BF5 JUMP JUMPDEST PUSH0 DUP1 SLOAD SWAP1 PUSH2 0x100 EXP SWAP1 DIV PUSH20 0xFFFFFFFFFFFFFFFFFFFFFFFFFFFFFFFFFFFFFFFF AND PUSH20 0xFFFFFFFFFFFFFFFFFFFFFFFFFFFFFFFFFFFFFFFF AND PUSH4 0x5C0E5F88 DUP6 DUP6 DUP5 PUSH1 0x2 PUSH2 0x1B8A SWAP2 SWAP1 PUSH2 0x3746 JUMP JUMPDEST DUP7 PUSH2 0x1B95 SWAP2 SWAP1 PUSH2 0x3713 JUMP JUMPDEST PUSH1 0x40 MLOAD DUP5 PUSH4 0xFFFFFFFF AND PUSH1 0xE0 SHL DUP2 MSTORE PUSH1 0x4 ADD PUSH2 0x1BB3 SWAP4 SWAP3 SWAP2 SWAP1 PUSH2 0x3787 JUMP JUMPDEST PUSH1 0x20 PUSH1 0x40 MLOAD DUP1 DUP4 SUB DUP2 PUSH0 DUP8 GAS CALL ISZERO DUP1 ISZERO PUSH2 0x1BCF JUMPI RETURNDATASIZE PUSH0 DUP1 RETURNDATACOPY RETURNDATASIZE PUSH0 REVERT JUMPDEST POP POP POP POP PUSH1 0x40 MLOAD RETURNDATASIZE PUSH1 0x1F NOT PUSH1 0x1F DUP3 ADD AND DUP3 ADD DUP1 PUSH1 0x40 MSTORE POP DUP2 ADD SWAP1 PUSH2 0x1BF3 SWAP2 SWAP1 PUSH2 0x37D0 JUMP JUMPDEST POP JUMPDEST JUMPDEST POP POP POP POP POP POP POP JUMP JUMPDEST PUSH1 0x2 PUSH0 ORIGIN PUSH20 0xFFFFFFFFFFFFFFFFFFFFFFFFFFFFFFFFFFFFFFFF AND PUSH20 0xFFFFFFFFFFFFFFFFFFFFFFFFFFFFFFFFFFFFFFFF AND DUP2 MSTORE PUSH1 0x20 ADD SWAP1 DUP2 MSTORE PUSH1 0x20 ADD PUSH0 KECCAK256 PUSH0 SWAP1 SLOAD SWAP1 PUSH2 0x100 EXP SWAP1 DIV PUSH1 0xFF AND PUSH2 0x1C88 JUMPI PUSH1 0x40 MLOAD PUSH32 0x8C379A000000000000000000000000000000000000000000000000000000000 DUP2 MSTORE PUSH1 0x4 ADD PUSH2 0x1C7F SWAP1 PUSH2 0x2DD6 JUMP JUMPDEST PUSH1 0x40 MLOAD DUP1 SWAP2 SUB SWAP1 REVERT JUMPDEST PUSH0 PUSH1 0x5 PUSH0 DUP4 DUP2 MSTORE PUSH1 0x20 ADD SWAP1 DUP2 MSTORE PUSH1 0x20 ADD PUSH0 KECCAK256 SWAP1 POP DUP1 PUSH1 0x2 ADD SLOAD TIMESTAMP GT PUSH2 0x1CE2 JUMPI PUSH1 0x40 MLOAD PUSH32 0x8C379A000000000000000000000000000000000000000000000000000000000 DUP2 MSTORE PUSH1 0x4 ADD PUSH2 0x1CD9 SWAP1 PUSH2 0x3845 JUMP JUMPDEST PUSH1 0x40 MLOAD DUP1 SWAP2 SUB SWAP1 REVERT JUMPDEST DUP1 PUSH1 0x7 ADD PUSH0 SWAP1 SLOAD SWAP1 PUSH2 0x100 EXP SWAP1 DIV PUSH1 0xFF AND ISZERO PUSH2 0x1D33 JUMPI PUSH1 0x40 MLOAD PUSH32 0x8C379A000000000000000000000000000000000000000000000000000000000 DUP2 MSTORE PUSH1 0x4 ADD PUSH2 0x1D2A SWAP1 PUSH2 0x3588 JUMP JUMPDEST PUSH1 0x40 MLOAD DUP1 SWAP2 SUB SWAP1 REVERT JUMPDEST PUSH1 0x5 PUSH0 DUP4 DUP2 MSTORE PUSH1 0x20 ADD SWAP1 DUP2 MSTORE PUSH1 0x20 ADD PUSH0 KECCAK256 PUSH1 0x6 ADD SLOAD PUSH1 0x5 PUSH0 DUP5 DUP2 MSTORE PUSH1 0x20 ADD SWAP1 DUP2 MSTORE PUSH1 0x20 ADD PUSH0 KECCAK256 PUSH1 0x5 ADD SLOAD GT ISZERO PUSH2 0x1EB6 JUMPI PUSH0 PUSH1 0x4 PUSH0 PUSH1 0x5 PUSH0 DUP7 DUP2 MSTORE PUSH1 0x20 ADD SWAP1 DUP2 MSTORE PUSH1 0x20 ADD PUSH0 KECCAK256 PUSH1 0x1 ADD SLOAD DUP2 MSTORE PUSH1 0x20 ADD SWAP1 DUP2 MSTORE PUSH1 0x20 ADD PUSH0 KECCAK256 PUSH1 0x3 ADD SLOAD SWAP1 POP PUSH0 PUSH1 0x4 PUSH0 PUSH1 0x5 PUSH0 DUP8 DUP2 MSTORE PUSH1 0x20 ADD SWAP1 DUP2 MSTORE PUSH1 0x20 ADD PUSH0 KECCAK256 PUSH1 0x1 ADD SLOAD DUP2 MSTORE PUSH1 0x20 ADD SWAP1 DUP2 MSTORE PUSH1 0x20 ADD PUSH0 KECCAK256 PUSH1 0x4 ADD SLOAD SWAP1 POP PUSH0 PUSH2 0x168 PUSH1 0x1E DUP5 DUP5 PUSH2 0x1DCD SWAP2 SWAP1 PUSH2 0x3713 JUMP JUMPDEST PUSH2 0x1DD7 SWAP2 SWAP1 PUSH2 0x3746 JUMP JUMPDEST PUSH2 0x1DE1 SWAP2 SWAP1 PUSH2 0x3890 JUMP JUMPDEST SWAP1 POP PUSH0 DUP1 SLOAD SWAP1 PUSH2 0x100 EXP SWAP1 DIV PUSH20 0xFFFFFFFFFFFFFFFFFFFFFFFFFFFFFFFFFFFFFFFF AND PUSH20 0xFFFFFFFFFFFFFFFFFFFFFFFFFFFFFFFFFFFFFFFF AND PUSH4 0xCF093926 PUSH1 0x5 PUSH0 DUP9 DUP2 MSTORE PUSH1 0x20 ADD SWAP1 DUP2 MSTORE PUSH1 0x20 ADD PUSH0 KECCAK256 PUSH1 0x7 ADD PUSH1 0x1 SWAP1 SLOAD SWAP1 PUSH2 0x100 EXP SWAP1 DIV PUSH20 0xFFFFFFFFFFFFFFFFFFFFFFFFFFFFFFFFFFFFFFFF AND DUP4 PUSH1 0x40 MLOAD DUP4 PUSH4 0xFFFFFFFF AND PUSH1 0xE0 SHL DUP2 MSTORE PUSH1 0x4 ADD PUSH2 0x1E71 SWAP3 SWAP2 SWAP1 PUSH2 0x38C0 JUMP JUMPDEST PUSH1 0x20 PUSH1 0x40 MLOAD DUP1 DUP4 SUB DUP2 PUSH0 DUP8 GAS CALL ISZERO DUP1 ISZERO PUSH2 0x1E8D JUMPI RETURNDATASIZE PUSH0 DUP1 RETURNDATACOPY RETURNDATASIZE PUSH0 REVERT JUMPDEST POP POP POP POP PUSH1 0x40 MLOAD RETURNDATASIZE PUSH1 0x1F NOT PUSH1 0x1F DUP3 ADD AND DUP3 ADD DUP1 PUSH1 0x40 MSTORE POP DUP2 ADD SWAP1 PUSH2 0x1EB1 SWAP2 SWAP1 PUSH2 0x37D0 JUMP JUMPDEST POP POP POP POP JUMPDEST PUSH1 0x1 DUP2 PUSH1 0x7 ADD PUSH0 PUSH2 0x100 EXP DUP2 SLOAD DUP2 PUSH1 0xFF MUL NOT AND SWAP1 DUP4 ISZERO ISZERO MUL OR SWAP1 SSTORE POP PUSH1 0x1 PUSH0 SWAP1 SLOAD SWAP1 PUSH2 0x100 EXP SWAP1 DIV PUSH20 0xFFFFFFFFFFFFFFFFFFFFFFFFFFFFFFFFFFFFFFFF AND PUSH20 0xFFFFFFFFFFFFFFFFFFFFFFFFFFFFFFFFFFFFFFFF AND PUSH4 0xA0712D68 PUSH8 0x1BC16D674EC80000 PUSH1 0x40 MLOAD DUP3 PUSH4 0xFFFFFFFF AND PUSH1 0xE0 SHL DUP2 MSTORE PUSH1 0x4 ADD PUSH2 0x1F34 SWAP2 SWAP1 PUSH2 0x2F06 JUMP JUMPDEST PUSH0 PUSH1 0x40 MLOAD DUP1 DUP4 SUB DUP2 PUSH0 DUP8 DUP1 EXTCODESIZE ISZERO DUP1 ISZERO PUSH2 0x1F4B JUMPI PUSH0 DUP1 REVERT JUMPDEST POP GAS CALL ISZERO DUP1 ISZERO PUSH2 0x1F5D JUMPI RETURNDATASIZE PUSH0 DUP1 RETURNDATACOPY RETURNDATASIZE PUSH0 REVERT JUMPDEST POP POP POP POP PUSH32 0x948F4A9CD986F1118C3FBD459F7A22B23C0693E1CA3EF06A6A8BE5AA7D39CC03 DUP3 PUSH1 0x1 PUSH1 0x40 MLOAD PUSH2 0x1F93 SWAP3 SWAP2 SWAP1 PUSH2 0x2F1F JUMP JUMPDEST PUSH1 0x40 MLOAD DUP1 SWAP2 SUB SWAP1 LOG1 POP POP JUMP JUMPDEST PUSH0 DUP1 PUSH20 0xFFFFFFFFFFFFFFFFFFFFFFFFFFFFFFFFFFFFFFFF AND DUP10 PUSH20 0xFFFFFFFFFFFFFFFFFFFFFFFFFFFFFFFFFFFFFFFF AND EQ ISZERO DUP1 ISZERO PUSH2 0x2008 JUMPI POP PUSH0 PUSH20 0xFFFFFFFFFFFFFFFFFFFFFFFFFFFFFFFFFFFFFFFF AND DUP9 PUSH20 0xFFFFFFFFFFFFFFFFFFFFFFFFFFFFFFFFFFFFFFFF AND EQ ISZERO JUMPDEST PUSH2 0x2047 JUMPI PUSH1 0x40 MLOAD PUSH32 0x8C379A000000000000000000000000000000000000000000000000000000000 DUP2 MSTORE PUSH1 0x4 ADD PUSH2 0x203E SWAP1 PUSH2 0x390A JUMP JUMPDEST PUSH1 0x40 MLOAD DUP1 SWAP2 SUB SWAP1 REVERT JUMPDEST PUSH1 0x40 MLOAD DUP1 PUSH2 0x100 ADD PUSH1 0x40 MSTORE DUP1 DUP11 PUSH20 0xFFFFFFFFFFFFFFFFFFFFFFFFFFFFFFFFFFFFFFFF AND DUP2 MSTORE PUSH1 0x20 ADD DUP10 PUSH20 0xFFFFFFFFFFFFFFFFFFFFFFFFFFFFFFFFFFFFFFFF AND DUP2 MSTORE PUSH1 0x20 ADD DUP9 DUP2 MSTORE PUSH1 0x20 ADD DUP8 DUP2 MSTORE PUSH1 0x20 ADD DUP7 DUP2 MSTORE PUSH1 0x20 ADD DUP6 ISZERO ISZERO DUP2 MSTORE PUSH1 0x20 ADD DUP5 ISZERO ISZERO DUP2 MSTORE PUSH1 0x20 ADD DUP4 DUP2 MSTORE POP PUSH1 0x4 PUSH0 DUP10 DUP2 MSTORE PUSH1 0x20 ADD SWAP1 DUP2 MSTORE PUSH1 0x20 ADD PUSH0 KECCAK256 PUSH0 DUP3 ADD MLOAD DUP2 PUSH0 ADD PUSH0 PUSH2 0x100 EXP DUP2 SLOAD DUP2 PUSH20 0xFFFFFFFFFFFFFFFFFFFFFFFFFFFFFFFFFFFFFFFF MUL NOT AND SWAP1 DUP4 PUSH20 0xFFFFFFFFFFFFFFFFFFFFFFFFFFFFFFFFFFFFFFFF AND MUL OR SWAP1 SSTORE POP PUSH1 0x20 DUP3 ADD MLOAD DUP2 PUSH1 0x1 ADD PUSH0 PUSH2 0x100 EXP DUP2 SLOAD DUP2 PUSH20 0xFFFFFFFFFFFFFFFFFFFFFFFFFFFFFFFFFFFFFFFF MUL NOT AND SWAP1 DUP4 PUSH20 0xFFFFFFFFFFFFFFFFFFFFFFFFFFFFFFFFFFFFFFFF AND MUL OR SWAP1 SSTORE POP PUSH1 0x40 DUP3 ADD MLOAD DUP2 PUSH1 0x2 ADD SSTORE PUSH1 0x60 DUP3 ADD MLOAD DUP2 PUSH1 0x3 ADD SSTORE PUSH1 0x80 DUP3 ADD MLOAD DUP2 PUSH1 0x4 ADD SSTORE PUSH1 0xA0 DUP3 ADD MLOAD DUP2 PUSH1 0x5 ADD PUSH0 PUSH2 0x100 EXP DUP2 SLOAD DUP2 PUSH1 0xFF MUL NOT AND SWAP1 DUP4 ISZERO ISZERO MUL OR SWAP1 SSTORE POP PUSH1 0xC0 DUP3 ADD MLOAD DUP2 PUSH1 0x5 ADD PUSH1 0x1 PUSH2 0x100 EXP DUP2 SLOAD DUP2 PUSH1 0xFF MUL NOT AND SWAP1 DUP4 ISZERO ISZERO MUL OR SWAP1 SSTORE POP PUSH1 0xE0 DUP3 ADD MLOAD DUP2 PUSH1 0x6 ADD SWAP1 DUP2 PUSH2 0x21BE SWAP2 SWAP1 PUSH2 0x33CB JUMP JUMPDEST POP SWAP1 POP POP PUSH1 0x1 SWAP1 POP SWAP9 SWAP8 POP POP POP POP POP POP POP POP JUMP JUMPDEST PUSH1 0x2 PUSH0 ORIGIN PUSH20 0xFFFFFFFFFFFFFFFFFFFFFFFFFFFFFFFFFFFFFFFF AND PUSH20 0xFFFFFFFFFFFFFFFFFFFFFFFFFFFFFFFFFFFFFFFF AND DUP2 MSTORE PUSH1 0x20 ADD SWAP1 DUP2 MSTORE PUSH1 0x20 ADD PUSH0 KECCAK256 PUSH0 SWAP1 SLOAD SWAP1 PUSH2 0x100 EXP SWAP1 DIV PUSH1 0xFF AND PUSH2 0x225B JUMPI PUSH1 0x40 MLOAD PUSH32 0x8C379A000000000000000000000000000000000000000000000000000000000 DUP2 MSTORE PUSH1 0x4 ADD PUSH2 0x2252 SWAP1 PUSH2 0x2DD6 JUMP JUMPDEST PUSH1 0x40 MLOAD DUP1 SWAP2 SUB SWAP1 REVERT JUMPDEST PUSH0 PUSH1 0x3 PUSH0 DUP5 DUP2 MSTORE PUSH1 0x20 ADD SWAP1 DUP2 MSTORE PUSH1 0x20 ADD PUSH0 KECCAK256 SWAP1 POP DUP1 PUSH1 0x3 ADD SLOAD TIMESTAMP LT PUSH2 0x22B5 JUMPI PUSH1 0x40 MLOAD PUSH32 0x8C379A000000000000000000000000000000000000000000000000000000000 DUP2 MSTORE PUSH1 0x4 ADD PUSH2 0x22AC SWAP1 PUSH2 0x3520 JUMP JUMPDEST PUSH1 0x40 MLOAD DUP1 SWAP2 SUB SWAP1 REVERT JUMPDEST DUP2 ISZERO PUSH2 0x22D9 JUMPI DUP1 PUSH1 0x1 ADD PUSH0 DUP2 SLOAD DUP1 SWAP3 SWAP2 SWAP1 PUSH2 0x22CF SWAP1 PUSH2 0x31BD JUMP JUMPDEST SWAP2 SWAP1 POP SSTORE POP PUSH2 0x22F3 JUMP JUMPDEST DUP1 PUSH1 0x2 ADD PUSH0 DUP2 SLOAD DUP1 SWAP3 SWAP2 SWAP1 PUSH2 0x22ED SWAP1 PUSH2 0x31BD JUMP JUMPDEST SWAP2 SWAP1 POP SSTORE POP JUMPDEST PUSH1 0x1 PUSH0 SWAP1 SLOAD SWAP1 PUSH2 0x100 EXP SWAP1 DIV PUSH20 0xFFFFFFFFFFFFFFFFFFFFFFFFFFFFFFFFFFFFFFFF AND PUSH20 0xFFFFFFFFFFFFFFFFFFFFFFFFFFFFFFFFFFFFFFFF AND PUSH4 0xA0712D68 PUSH8 0xDE0B6B3A7640000 PUSH1 0x40 MLOAD DUP3 PUSH4 0xFFFFFFFF AND PUSH1 0xE0 SHL DUP2 MSTORE PUSH1 0x4 ADD PUSH2 0x2355 SWAP2 SWAP1 PUSH2 0x30A7 JUMP JUMPDEST PUSH0 PUSH1 0x40 MLOAD DUP1 DUP4 SUB DUP2 PUSH0 DUP8 DUP1 EXTCODESIZE ISZERO DUP1 ISZERO PUSH2 0x236C JUMPI PUSH0 DUP1 REVERT JUMPDEST POP GAS CALL ISZERO DUP1 ISZERO PUSH2 0x237E JUMPI RETURNDATASIZE PUSH0 DUP1 RETURNDATACOPY RETURNDATASIZE PUSH0 REVERT JUMPDEST POP POP POP POP PUSH32 0xF2913DBE661EE2ACC4A046D8FBCDC792373BDA34C41C6086484B5345E5785E5F DUP4 CALLER DUP5 PUSH1 0x40 MLOAD PUSH2 0x23B5 SWAP4 SWAP3 SWAP2 SWAP1 PUSH2 0x35A6 JUMP JUMPDEST PUSH1 0x40 MLOAD DUP1 SWAP2 SUB SWAP1 LOG1 POP POP POP JUMP JUMPDEST PUSH0 PUSH1 0x2 PUSH0 ORIGIN PUSH20 0xFFFFFFFFFFFFFFFFFFFFFFFFFFFFFFFFFFFFFFFF AND PUSH20 0xFFFFFFFFFFFFFFFFFFFFFFFFFFFFFFFFFFFFFFFF AND DUP2 MSTORE PUSH1 0x20 ADD SWAP1 DUP2 MSTORE PUSH1 0x20 ADD PUSH0 KECCAK256 PUSH0 SWAP1 SLOAD SWAP1 PUSH2 0x100 EXP SWAP1 DIV PUSH1 0xFF AND SWAP1 POP SWAP1 JUMP JUMPDEST PUSH1 0x8 SLOAD DUP2 JUMP JUMPDEST PUSH1 0x40 MLOAD DUP1 PUSH2 0x120 ADD PUSH1 0x40 MSTORE DUP1 PUSH0 DUP2 MSTORE PUSH1 0x20 ADD PUSH0 DUP2 MSTORE PUSH1 0x20 ADD PUSH0 DUP2 MSTORE PUSH1 0x20 ADD PUSH1 0x60 DUP2 MSTORE PUSH1 0x20 ADD PUSH1 0x60 DUP2 MSTORE PUSH1 0x20 ADD PUSH0 DUP2 MSTORE PUSH1 0x20 ADD PUSH0 DUP2 MSTORE PUSH1 0x20 ADD PUSH0 ISZERO ISZERO DUP2 MSTORE PUSH1 0x20 ADD PUSH0 PUSH20 0xFFFFFFFFFFFFFFFFFFFFFFFFFFFFFFFFFFFFFFFF AND DUP2 MSTORE POP SWAP1 JUMP JUMPDEST PUSH0 PUSH1 0x40 MLOAD SWAP1 POP SWAP1 JUMP JUMPDEST PUSH0 DUP1 REVERT JUMPDEST PUSH0 DUP1 REVERT JUMPDEST PUSH0 DUP2 SWAP1 POP SWAP2 SWAP1 POP JUMP JUMPDEST PUSH2 0x2498 DUP2 PUSH2 0x2486 JUMP JUMPDEST DUP2 EQ PUSH2 0x24A2 JUMPI PUSH0 DUP1 REVERT JUMPDEST POP JUMP JUMPDEST PUSH0 DUP2 CALLDATALOAD SWAP1 POP PUSH2 0x24B3 DUP2 PUSH2 0x248F JUMP JUMPDEST SWAP3 SWAP2 POP POP JUMP JUMPDEST PUSH0 PUSH1 0x20 DUP3 DUP5 SUB SLT ISZERO PUSH2 0x24CE JUMPI PUSH2 0x24CD PUSH2 0x247E JUMP JUMPDEST JUMPDEST PUSH0 PUSH2 0x24DB DUP5 DUP3 DUP6 ADD PUSH2 0x24A5 JUMP JUMPDEST SWAP2 POP POP SWAP3 SWAP2 POP POP JUMP JUMPDEST PUSH0 DUP2 MLOAD SWAP1 POP SWAP2 SWAP1 POP JUMP JUMPDEST PUSH0 DUP3 DUP3 MSTORE PUSH1 0x20 DUP3 ADD SWAP1 POP SWAP3 SWAP2 POP POP JUMP JUMPDEST PUSH0 JUMPDEST DUP4 DUP2 LT ISZERO PUSH2 0x251B JUMPI DUP1 DUP3 ADD MLOAD DUP2 DUP5 ADD MSTORE PUSH1 0x20 DUP2 ADD SWAP1 POP PUSH2 0x2500 JUMP JUMPDEST PUSH0 DUP5 DUP5 ADD MSTORE POP POP POP POP JUMP JUMPDEST PUSH0 PUSH1 0x1F NOT PUSH1 0x1F DUP4 ADD AND SWAP1 POP SWAP2 SWAP1 POP JUMP JUMPDEST PUSH0 PUSH2 0x2540 DUP3 PUSH2 0x24E4 JUMP JUMPDEST PUSH2 0x254A DUP2 DUP6 PUSH2 0x24EE JUMP JUMPDEST SWAP4 POP PUSH2 0x255A DUP2 DUP6 PUSH1 0x20 DUP7 ADD PUSH2 0x24FE JUMP JUMPDEST PUSH2 0x2563 DUP2 PUSH2 0x2526 JUMP JUMPDEST DUP5 ADD SWAP2 POP POP SWAP3 SWAP2 POP POP JUMP JUMPDEST PUSH2 0x2577 DUP2 PUSH2 0x2486 JUMP JUMPDEST DUP3 MSTORE POP POP JUMP JUMPDEST PUSH0 DUP2 ISZERO ISZERO SWAP1 POP SWAP2 SWAP1 POP JUMP JUMPDEST PUSH2 0x2591 DUP2 PUSH2 0x257D JUMP JUMPDEST DUP3 MSTORE POP POP JUMP JUMPDEST PUSH0 PUSH20 0xFFFFFFFFFFFFFFFFFFFFFFFFFFFFFFFFFFFFFFFF DUP3 AND SWAP1 POP SWAP2 SWAP1 POP JUMP JUMPDEST PUSH0 PUSH2 0x25C0 DUP3 PUSH2 0x2597 JUMP JUMPDEST SWAP1 POP SWAP2 SWAP1 POP JUMP JUMPDEST PUSH2 0x25D0 DUP2 PUSH2 0x25B6 JUMP JUMPDEST DUP3 MSTORE POP POP JUMP JUMPDEST PUSH0 PUSH1 0xC0 DUP3 ADD SWAP1 POP DUP2 DUP2 SUB PUSH0 DUP4 ADD MSTORE PUSH2 0x25EE DUP2 DUP10 PUSH2 0x2536 JUMP JUMPDEST SWAP1 POP PUSH2 0x25FD PUSH1 0x20 DUP4 ADD DUP9 PUSH2 0x256E JUMP JUMPDEST PUSH2 0x260A PUSH1 0x40 DUP4 ADD DUP8 PUSH2 0x256E JUMP JUMPDEST PUSH2 0x2617 PUSH1 0x60 DUP4 ADD DUP7 PUSH2 0x256E JUMP JUMPDEST PUSH2 0x2624 PUSH1 0x80 DUP4 ADD DUP6 PUSH2 0x2588 JUMP JUMPDEST PUSH2 0x2631 PUSH1 0xA0 DUP4 ADD DUP5 PUSH2 0x25C7 JUMP JUMPDEST SWAP8 SWAP7 POP POP POP POP POP POP POP JUMP JUMPDEST PUSH0 PUSH2 0x100 DUP3 ADD SWAP1 POP PUSH2 0x2650 PUSH0 DUP4 ADD DUP12 PUSH2 0x25C7 JUMP JUMPDEST PUSH2 0x265D PUSH1 0x20 DUP4 ADD DUP11 PUSH2 0x25C7 JUMP JUMPDEST PUSH2 0x266A PUSH1 0x40 DUP4 ADD DUP10 PUSH2 0x256E JUMP JUMPDEST PUSH2 0x2677 PUSH1 0x60 DUP4 ADD DUP9 PUSH2 0x256E JUMP JUMPDEST PUSH2 0x2684 PUSH1 0x80 DUP4 ADD DUP8 PUSH2 0x256E JUMP JUMPDEST PUSH2 0x2691 PUSH1 0xA0 DUP4 ADD DUP7 PUSH2 0x2588 JUMP JUMPDEST PUSH2 0x269E PUSH1 0xC0 DUP4 ADD DUP6 PUSH2 0x2588 JUMP JUMPDEST DUP2 DUP2 SUB PUSH1 0xE0 DUP4 ADD MSTORE PUSH2 0x26B0 DUP2 DUP5 PUSH2 0x2536 JUMP JUMPDEST SWAP1 POP SWAP10 SWAP9 POP POP POP POP POP POP POP POP POP JUMP JUMPDEST PUSH2 0x26C8 DUP2 PUSH2 0x257D JUMP JUMPDEST DUP2 EQ PUSH2 0x26D2 JUMPI PUSH0 DUP1 REVERT JUMPDEST POP JUMP JUMPDEST PUSH0 DUP2 CALLDATALOAD SWAP1 POP PUSH2 0x26E3 DUP2 PUSH2 0x26BF JUMP JUMPDEST SWAP3 SWAP2 POP POP JUMP JUMPDEST PUSH0 DUP1 PUSH1 0x40 DUP4 DUP6 SUB SLT ISZERO PUSH2 0x26FF JUMPI PUSH2 0x26FE PUSH2 0x247E JUMP JUMPDEST JUMPDEST PUSH0 PUSH2 0x270C DUP6 DUP3 DUP7 ADD PUSH2 0x24A5 JUMP JUMPDEST SWAP3 POP POP PUSH1 0x20 PUSH2 0x271D DUP6 DUP3 DUP7 ADD PUSH2 0x26D5 JUMP JUMPDEST SWAP2 POP POP SWAP3 POP SWAP3 SWAP1 POP JUMP JUMPDEST PUSH2 0x2730 DUP2 PUSH2 0x25B6 JUMP JUMPDEST DUP2 EQ PUSH2 0x273A JUMPI PUSH0 DUP1 REVERT JUMPDEST POP JUMP JUMPDEST PUSH0 DUP2 CALLDATALOAD SWAP1 POP PUSH2 0x274B DUP2 PUSH2 0x2727 JUMP JUMPDEST SWAP3 SWAP2 POP POP JUMP JUMPDEST PUSH0 PUSH1 0x20 DUP3 DUP5 SUB SLT ISZERO PUSH2 0x2766 JUMPI PUSH2 0x2765 PUSH2 0x247E JUMP JUMPDEST JUMPDEST PUSH0 PUSH2 0x2773 DUP5 DUP3 DUP6 ADD PUSH2 0x273D JUMP JUMPDEST SWAP2 POP POP SWAP3 SWAP2 POP POP JUMP JUMPDEST PUSH0 PUSH1 0x20 DUP3 ADD SWAP1 POP PUSH2 0x278F PUSH0 DUP4 ADD DUP5 PUSH2 0x2588 JUMP JUMPDEST SWAP3 SWAP2 POP POP JUMP JUMPDEST PUSH0 DUP1 REVERT JUMPDEST PUSH0 DUP1 REVERT JUMPDEST PUSH32 0x4E487B7100000000000000000000000000000000000000000000000000000000 PUSH0 MSTORE PUSH1 0x41 PUSH1 0x4 MSTORE PUSH1 0x24 PUSH0 REVERT JUMPDEST PUSH2 0x27D3 DUP3 PUSH2 0x2526 JUMP JUMPDEST DUP2 ADD DUP2 DUP2 LT PUSH8 0xFFFFFFFFFFFFFFFF DUP3 GT OR ISZERO PUSH2 0x27F2 JUMPI PUSH2 0x27F1 PUSH2 0x279D JUMP JUMPDEST JUMPDEST DUP1 PUSH1 0x40 MSTORE POP POP POP JUMP JUMPDEST PUSH0 PUSH2 0x2804 PUSH2 0x2475 JUMP JUMPDEST SWAP1 POP PUSH2 0x2810 DUP3 DUP3 PUSH2 0x27CA JUMP JUMPDEST SWAP2 SWAP1 POP JUMP JUMPDEST PUSH0 PUSH8 0xFFFFFFFFFFFFFFFF DUP3 GT ISZERO PUSH2 0x282F JUMPI PUSH2 0x282E PUSH2 0x279D JUMP JUMPDEST JUMPDEST PUSH2 0x2838 DUP3 PUSH2 0x2526 JUMP JUMPDEST SWAP1 POP PUSH1 0x20 DUP2 ADD SWAP1 POP SWAP2 SWAP1 POP JUMP JUMPDEST DUP3 DUP2 DUP4 CALLDATACOPY PUSH0 DUP4 DUP4 ADD MSTORE POP POP POP JUMP JUMPDEST PUSH0 PUSH2 0x2865 PUSH2 0x2860 DUP5 PUSH2 0x2815 JUMP JUMPDEST PUSH2 0x27FB JUMP JUMPDEST SWAP1 POP DUP3 DUP2 MSTORE PUSH1 0x20 DUP2 ADD DUP5 DUP5 DUP5 ADD GT ISZERO PUSH2 0x2881 JUMPI PUSH2 0x2880 PUSH2 0x2799 JUMP JUMPDEST JUMPDEST PUSH2 0x288C DUP5 DUP3 DUP6 PUSH2 0x2845 JUMP JUMPDEST POP SWAP4 SWAP3 POP POP POP JUMP JUMPDEST PUSH0 DUP3 PUSH1 0x1F DUP4 ADD SLT PUSH2 0x28A8 JUMPI PUSH2 0x28A7 PUSH2 0x2795 JUMP JUMPDEST JUMPDEST DUP2 CALLDATALOAD PUSH2 0x28B8 DUP5 DUP3 PUSH1 0x20 DUP7 ADD PUSH2 0x2853 JUMP JUMPDEST SWAP2 POP POP SWAP3 SWAP2 POP POP JUMP JUMPDEST PUSH0 DUP1 PUSH0 DUP1 PUSH1 0x80 DUP6 DUP8 SUB SLT ISZERO PUSH2 0x28D9 JUMPI PUSH2 0x28D8 PUSH2 0x247E JUMP JUMPDEST JUMPDEST PUSH0 PUSH2 0x28E6 DUP8 DUP3 DUP9 ADD PUSH2 0x24A5 JUMP JUMPDEST SWAP5 POP POP PUSH1 0x20 DUP6 ADD CALLDATALOAD PUSH8 0xFFFFFFFFFFFFFFFF DUP2 GT ISZERO PUSH2 0x2907 JUMPI PUSH2 0x2906 PUSH2 0x2482 JUMP JUMPDEST JUMPDEST PUSH2 0x2913 DUP8 DUP3 DUP9 ADD PUSH2 0x2894 JUMP JUMPDEST SWAP4 POP POP PUSH1 0x40 DUP6 ADD CALLDATALOAD PUSH8 0xFFFFFFFFFFFFFFFF DUP2 GT ISZERO PUSH2 0x2934 JUMPI PUSH2 0x2933 PUSH2 0x2482 JUMP JUMPDEST JUMPDEST PUSH2 0x2940 DUP8 DUP3 DUP9 ADD PUSH2 0x2894 JUMP JUMPDEST SWAP3 POP POP PUSH1 0x60 PUSH2 0x2951 DUP8 DUP3 DUP9 ADD PUSH2 0x273D JUMP JUMPDEST SWAP2 POP POP SWAP3 SWAP6 SWAP2 SWAP5 POP SWAP3 POP JUMP JUMPDEST PUSH2 0x2966 DUP2 PUSH2 0x2486 JUMP JUMPDEST DUP3 MSTORE POP POP JUMP JUMPDEST PUSH0 DUP3 DUP3 MSTORE PUSH1 0x20 DUP3 ADD SWAP1 POP SWAP3 SWAP2 POP POP JUMP JUMPDEST PUSH0 PUSH2 0x2986 DUP3 PUSH2 0x24E4 JUMP JUMPDEST PUSH2 0x2990 DUP2 DUP6 PUSH2 0x296C JUMP JUMPDEST SWAP4 POP PUSH2 0x29A0 DUP2 DUP6 PUSH1 0x20 DUP7 ADD PUSH2 0x24FE JUMP JUMPDEST PUSH2 0x29A9 DUP2 PUSH2 0x2526 JUMP JUMPDEST DUP5 ADD SWAP2 POP POP SWAP3 SWAP2 POP POP JUMP JUMPDEST PUSH2 0x29BD DUP2 PUSH2 0x257D JUMP JUMPDEST DUP3 MSTORE POP POP JUMP JUMPDEST PUSH2 0x29CC DUP2 PUSH2 0x25B6 JUMP JUMPDEST DUP3 MSTORE POP POP JUMP JUMPDEST PUSH0 PUSH2 0x120 DUP4 ADD PUSH0 DUP4 ADD MLOAD PUSH2 0x29E8 PUSH0 DUP7 ADD DUP3 PUSH2 0x295D JUMP JUMPDEST POP PUSH1 0x20 DUP4 ADD MLOAD PUSH2 0x29FB PUSH1 0x20 DUP7 ADD DUP3 PUSH2 0x295D JUMP JUMPDEST POP PUSH1 0x40 DUP4 ADD MLOAD PUSH2 0x2A0E PUSH1 0x40 DUP7 ADD DUP3 PUSH2 0x295D JUMP JUMPDEST POP PUSH1 0x60 DUP4 ADD MLOAD DUP5 DUP3 SUB PUSH1 0x60 DUP7 ADD MSTORE PUSH2 0x2A26 DUP3 DUP3 PUSH2 0x297C JUMP JUMPDEST SWAP2 POP POP PUSH1 0x80 DUP4 ADD MLOAD DUP5 DUP3 SUB PUSH1 0x80 DUP7 ADD MSTORE PUSH2 0x2A40 DUP3 DUP3 PUSH2 0x297C JUMP JUMPDEST SWAP2 POP POP PUSH1 0xA0 DUP4 ADD MLOAD PUSH2 0x2A55 PUSH1 0xA0 DUP7 ADD DUP3 PUSH2 0x295D JUMP JUMPDEST POP PUSH1 0xC0 DUP4 ADD MLOAD PUSH2 0x2A68 PUSH1 0xC0 DUP7 ADD DUP3 PUSH2 0x295D JUMP JUMPDEST POP PUSH1 0xE0 DUP4 ADD MLOAD PUSH2 0x2A7B PUSH1 0xE0 DUP7 ADD DUP3 PUSH2 0x29B4 JUMP JUMPDEST POP PUSH2 0x100 DUP4 ADD MLOAD PUSH2 0x2A90 PUSH2 0x100 DUP7 ADD DUP3 PUSH2 0x29C3 JUMP JUMPDEST POP DUP1 SWAP2 POP POP SWAP3 SWAP2 POP POP JUMP JUMPDEST PUSH0 PUSH1 0x20 DUP3 ADD SWAP1 POP DUP2 DUP2 SUB PUSH0 DUP4 ADD MSTORE PUSH2 0x2AB3 DUP2 DUP5 PUSH2 0x29D2 JUMP JUMPDEST SWAP1 POP SWAP3 SWAP2 POP POP JUMP JUMPDEST PUSH0 PUSH1 0x20 DUP3 DUP5 SUB SLT ISZERO PUSH2 0x2AD0 JUMPI PUSH2 0x2ACF PUSH2 0x247E JUMP JUMPDEST JUMPDEST PUSH0 DUP3 ADD CALLDATALOAD PUSH8 0xFFFFFFFFFFFFFFFF DUP2 GT ISZERO PUSH2 0x2AED JUMPI PUSH2 0x2AEC PUSH2 0x2482 JUMP JUMPDEST JUMPDEST PUSH2 0x2AF9 DUP5 DUP3 DUP6 ADD PUSH2 0x2894 JUMP JUMPDEST SWAP2 POP POP SWAP3 SWAP2 POP POP JUMP JUMPDEST PUSH0 PUSH2 0x120 DUP3 ADD SWAP1 POP PUSH2 0x2B16 PUSH0 DUP4 ADD DUP13 PUSH2 0x256E JUMP JUMPDEST PUSH2 0x2B23 PUSH1 0x20 DUP4 ADD DUP12 PUSH2 0x256E JUMP JUMPDEST PUSH2 0x2B30 PUSH1 0x40 DUP4 ADD DUP11 PUSH2 0x256E JUMP JUMPDEST DUP2 DUP2 SUB PUSH1 0x60 DUP4 ADD MSTORE PUSH2 0x2B42 DUP2 DUP10 PUSH2 0x2536 JUMP JUMPDEST SWAP1 POP DUP2 DUP2 SUB PUSH1 0x80 DUP4 ADD MSTORE PUSH2 0x2B56 DUP2 DUP9 PUSH2 0x2536 JUMP JUMPDEST SWAP1 POP PUSH2 0x2B65 PUSH1 0xA0 DUP4 ADD DUP8 PUSH2 0x256E JUMP JUMPDEST PUSH2 0x2B72 PUSH1 0xC0 DUP4 ADD DUP7 PUSH2 0x256E JUMP JUMPDEST PUSH2 0x2B7F PUSH1 0xE0 DUP4 ADD DUP6 PUSH2 0x2588 JUMP JUMPDEST PUSH2 0x2B8D PUSH2 0x100 DUP4 ADD DUP5 PUSH2 0x25C7 JUMP JUMPDEST SWAP11 SWAP10 POP POP POP POP POP POP POP POP POP POP JUMP JUMPDEST PUSH0 PUSH1 0x80 DUP3 ADD SWAP1 POP PUSH2 0x2BAE PUSH0 DUP4 ADD DUP8 PUSH2 0x25C7 JUMP JUMPDEST PUSH2 0x2BBB PUSH1 0x20 DUP4 ADD DUP7 PUSH2 0x256E JUMP JUMPDEST DUP2 DUP2 SUB PUSH1 0x40 DUP4 ADD MSTORE PUSH2 0x2BCD DUP2 DUP6 PUSH2 0x2536 JUMP JUMPDEST SWAP1 POP PUSH2 0x2BDC PUSH1 0x60 DUP4 ADD DUP5 PUSH2 0x2588 JUMP JUMPDEST SWAP6 SWAP5 POP POP POP POP POP JUMP JUMPDEST PUSH0 PUSH1 0x20 DUP3 ADD SWAP1 POP PUSH2 0x2BF8 PUSH0 DUP4 ADD DUP5 PUSH2 0x256E JUMP JUMPDEST SWAP3 SWAP2 POP POP JUMP JUMPDEST PUSH0 DUP1 PUSH1 0x40 DUP4 DUP6 SUB SLT ISZERO PUSH2 0x2C14 JUMPI PUSH2 0x2C13 PUSH2 0x247E JUMP JUMPDEST JUMPDEST PUSH0 PUSH2 0x2C21 DUP6 DUP3 DUP7 ADD PUSH2 0x24A5 JUMP JUMPDEST SWAP3 POP POP PUSH1 0x20 PUSH2 0x2C32 DUP6 DUP3 DUP7 ADD PUSH2 0x24A5 JUMP JUMPDEST SWAP2 POP POP SWAP3 POP SWAP3 SWAP1 POP JUMP JUMPDEST PUSH0 DUP1 PUSH0 DUP1 PUSH0 DUP1 PUSH0 DUP1 PUSH2 0x100 DUP10 DUP12 SUB SLT ISZERO PUSH2 0x2C59 JUMPI PUSH2 0x2C58 PUSH2 0x247E JUMP JUMPDEST JUMPDEST PUSH0 PUSH2 0x2C66 DUP12 DUP3 DUP13 ADD PUSH2 0x273D JUMP JUMPDEST SWAP9 POP POP PUSH1 0x20 PUSH2 0x2C77 DUP12 DUP3 DUP13 ADD PUSH2 0x273D JUMP JUMPDEST SWAP8 POP POP PUSH1 0x40 PUSH2 0x2C88 DUP12 DUP3 DUP13 ADD PUSH2 0x24A5 JUMP JUMPDEST SWAP7 POP POP PUSH1 0x60 PUSH2 0x2C99 DUP12 DUP3 DUP13 ADD PUSH2 0x24A5 JUMP JUMPDEST SWAP6 POP POP PUSH1 0x80 PUSH2 0x2CAA DUP12 DUP3 DUP13 ADD PUSH2 0x24A5 JUMP JUMPDEST SWAP5 POP POP PUSH1 0xA0 PUSH2 0x2CBB DUP12 DUP3 DUP13 ADD PUSH2 0x26D5 JUMP JUMPDEST SWAP4 POP POP PUSH1 0xC0 PUSH2 0x2CCC DUP12 DUP3 DUP13 ADD PUSH2 0x26D5 JUMP JUMPDEST SWAP3 POP POP PUSH1 0xE0 DUP10 ADD CALLDATALOAD PUSH8 0xFFFFFFFFFFFFFFFF DUP2 GT ISZERO PUSH2 0x2CED JUMPI PUSH2 0x2CEC PUSH2 0x2482 JUMP JUMPDEST JUMPDEST PUSH2 0x2CF9 DUP12 DUP3 DUP13 ADD PUSH2 0x2894 JUMP JUMPDEST SWAP2 POP POP SWAP3 SWAP6 SWAP9 POP SWAP3 SWAP6 SWAP9 SWAP1 SWAP4 SWAP7 POP JUMP JUMPDEST PUSH32 0x4E487B7100000000000000000000000000000000000000000000000000000000 PUSH0 MSTORE PUSH1 0x22 PUSH1 0x4 MSTORE PUSH1 0x24 PUSH0 REVERT JUMPDEST PUSH0 PUSH1 0x2 DUP3 DIV SWAP1 POP PUSH1 0x1 DUP3 AND DUP1 PUSH2 0x2D4D JUMPI PUSH1 0x7F DUP3 AND SWAP2 POP JUMPDEST PUSH1 0x20 DUP3 LT DUP2 SUB PUSH2 0x2D60 JUMPI PUSH2 0x2D5F PUSH2 0x2D09 JUMP JUMPDEST JUMPDEST POP SWAP2 SWAP1 POP JUMP JUMPDEST PUSH32 0x4F6E6C792044414F206D656D626572732063616E20706572666F726D20746869 PUSH0 DUP3 ADD MSTORE PUSH32 0x7320616374696F6E000000000000000000000000000000000000000000000000 PUSH1 0x20 DUP3 ADD MSTORE POP JUMP JUMPDEST PUSH0 PUSH2 0x2DC0 PUSH1 0x28 DUP4 PUSH2 0x24EE JUMP JUMPDEST SWAP2 POP PUSH2 0x2DCB DUP3 PUSH2 0x2D66 JUMP JUMPDEST PUSH1 0x40 DUP3 ADD SWAP1 POP SWAP2 SWAP1 POP JUMP JUMPDEST PUSH0 PUSH1 0x20 DUP3 ADD SWAP1 POP DUP2 DUP2 SUB PUSH0 DUP4 ADD MSTORE PUSH2 0x2DED DUP2 PUSH2 0x2DB4 JUMP JUMPDEST SWAP1 POP SWAP2 SWAP1 POP JUMP JUMPDEST PUSH32 0x566F74696E6720706572696F64206973207374696C6C20616374697665000000 PUSH0 DUP3 ADD MSTORE POP JUMP JUMPDEST PUSH0 PUSH2 0x2E28 PUSH1 0x1D DUP4 PUSH2 0x24EE JUMP JUMPDEST SWAP2 POP PUSH2 0x2E33 DUP3 PUSH2 0x2DF4 JUMP JUMPDEST PUSH1 0x20 DUP3 ADD SWAP1 POP SWAP2 SWAP1 POP JUMP JUMPDEST PUSH0 PUSH1 0x20 DUP3 ADD SWAP1 POP DUP2 DUP2 SUB PUSH0 DUP4 ADD MSTORE PUSH2 0x2E55 DUP2 PUSH2 0x2E1C JUMP JUMPDEST SWAP1 POP SWAP2 SWAP1 POP JUMP JUMPDEST PUSH32 0x50726F706F73616C20616C726561647920657865637574656400000000000000 PUSH0 DUP3 ADD MSTORE POP JUMP JUMPDEST PUSH0 PUSH2 0x2E90 PUSH1 0x19 DUP4 PUSH2 0x24EE JUMP JUMPDEST SWAP2 POP PUSH2 0x2E9B DUP3 PUSH2 0x2E5C JUMP JUMPDEST PUSH1 0x20 DUP3 ADD SWAP1 POP SWAP2 SWAP1 POP JUMP JUMPDEST PUSH0 PUSH1 0x20 DUP3 ADD SWAP1 POP DUP2 DUP2 SUB PUSH0 DUP4 ADD MSTORE PUSH2 0x2EBD DUP2 PUSH2 0x2E84 JUMP JUMPDEST SWAP1 POP SWAP2 SWAP1 POP JUMP JUMPDEST PUSH0 DUP2 SWAP1 POP SWAP2 SWAP1 POP JUMP JUMPDEST PUSH0 DUP2 SWAP1 POP SWAP2 SWAP1 POP JUMP JUMPDEST PUSH0 PUSH2 0x2EF0 PUSH2 0x2EEB PUSH2 0x2EE6 DUP5 PUSH2 0x2EC4 JUMP JUMPDEST PUSH2 0x2ECD JUMP JUMPDEST PUSH2 0x2486 JUMP JUMPDEST SWAP1 POP SWAP2 SWAP1 POP JUMP JUMPDEST PUSH2 0x2F00 DUP2 PUSH2 0x2ED6 JUMP JUMPDEST DUP3 MSTORE POP POP JUMP JUMPDEST PUSH0 PUSH1 0x20 DUP3 ADD SWAP1 POP PUSH2 0x2F19 PUSH0 DUP4 ADD DUP5 PUSH2 0x2EF7 JUMP JUMPDEST SWAP3 SWAP2 POP POP JUMP JUMPDEST PUSH0 PUSH1 0x40 DUP3 ADD SWAP1 POP PUSH2 0x2F32 PUSH0 DUP4 ADD DUP6 PUSH2 0x256E JUMP JUMPDEST PUSH2 0x2F3F PUSH1 0x20 DUP4 ADD DUP5 PUSH2 0x2588 JUMP JUMPDEST SWAP4 SWAP3 POP POP POP JUMP JUMPDEST PUSH32 0x416C72656164792061206D656D62657200000000000000000000000000000000 PUSH0 DUP3 ADD MSTORE POP JUMP JUMPDEST PUSH0 PUSH2 0x2F7A PUSH1 0x10 DUP4 PUSH2 0x24EE JUMP JUMPDEST SWAP2 POP PUSH2 0x2F85 DUP3 PUSH2 0x2F46 JUMP JUMPDEST PUSH1 0x20 DUP3 ADD SWAP1 POP SWAP2 SWAP1 POP JUMP JUMPDEST PUSH0 PUSH1 0x20 DUP3 ADD SWAP1 POP DUP2 DUP2 SUB PUSH0 DUP4 ADD MSTORE PUSH2 0x2FA7 DUP2 PUSH2 0x2F6E JUMP JUMPDEST SWAP1 POP SWAP2 SWAP1 POP JUMP JUMPDEST PUSH0 PUSH1 0x20 DUP3 ADD SWAP1 POP PUSH2 0x2FC1 PUSH0 DUP4 ADD DUP5 PUSH2 0x25C7 JUMP JUMPDEST SWAP3 SWAP2 POP POP JUMP JUMPDEST PUSH0 DUP2 MLOAD SWAP1 POP PUSH2 0x2FD5 DUP2 PUSH2 0x248F JUMP JUMPDEST SWAP3 SWAP2 POP POP JUMP JUMPDEST PUSH0 PUSH1 0x20 DUP3 DUP5 SUB SLT ISZERO PUSH2 0x2FF0 JUMPI PUSH2 0x2FEF PUSH2 0x247E JUMP JUMPDEST JUMPDEST PUSH0 PUSH2 0x2FFD DUP5 DUP3 DUP6 ADD PUSH2 0x2FC7 JUMP JUMPDEST SWAP2 POP POP SWAP3 SWAP2 POP POP JUMP JUMPDEST PUSH32 0x72657075746174696F6E206E6F7420656E6F7567746800000000000000000000 PUSH0 DUP3 ADD MSTORE POP JUMP JUMPDEST PUSH0 PUSH2 0x303A PUSH1 0x16 DUP4 PUSH2 0x24EE JUMP JUMPDEST SWAP2 POP PUSH2 0x3045 DUP3 PUSH2 0x3006 JUMP JUMPDEST PUSH1 0x20 DUP3 ADD SWAP1 POP SWAP2 SWAP1 POP JUMP JUMPDEST PUSH0 PUSH1 0x20 DUP3 ADD SWAP1 POP DUP2 DUP2 SUB PUSH0 DUP4 ADD MSTORE PUSH2 0x3067 DUP2 PUSH2 0x302E JUMP JUMPDEST SWAP1 POP SWAP2 SWAP1 POP JUMP JUMPDEST PUSH0 DUP2 SWAP1 POP SWAP2 SWAP1 POP JUMP JUMPDEST PUSH0 PUSH2 0x3091 PUSH2 0x308C PUSH2 0x3087 DUP5 PUSH2 0x306E JUMP JUMPDEST PUSH2 0x2ECD JUMP JUMPDEST PUSH2 0x2486 JUMP JUMPDEST SWAP1 POP SWAP2 SWAP1 POP JUMP JUMPDEST PUSH2 0x30A1 DUP2 PUSH2 0x3077 JUMP JUMPDEST DUP3 MSTORE POP POP JUMP JUMPDEST PUSH0 PUSH1 0x20 DUP3 ADD SWAP1 POP PUSH2 0x30BA PUSH0 DUP4 ADD DUP5 PUSH2 0x3098 JUMP JUMPDEST SWAP3 SWAP2 POP POP JUMP JUMPDEST PUSH32 0x4465616C20616C72656164792064697370757465640000000000000000000000 PUSH0 DUP3 ADD MSTORE POP JUMP JUMPDEST PUSH0 PUSH2 0x30F4 PUSH1 0x15 DUP4 PUSH2 0x24EE JUMP JUMPDEST SWAP2 POP PUSH2 0x30FF DUP3 PUSH2 0x30C0 JUMP JUMPDEST PUSH1 0x20 DUP3 ADD SWAP1 POP SWAP2 SWAP1 POP JUMP JUMPDEST PUSH0 PUSH1 0x20 DUP3 ADD SWAP1 POP DUP2 DUP2 SUB PUSH0 DUP4 ADD MSTORE PUSH2 0x3121 DUP2 PUSH2 0x30E8 JUMP JUMPDEST SWAP1 POP SWAP2 SWAP1 POP JUMP JUMPDEST PUSH32 0x4E6F7420617574686F72697A6564000000000000000000000000000000000000 PUSH0 DUP3 ADD MSTORE POP JUMP JUMPDEST PUSH0 PUSH2 0x315C PUSH1 0xE DUP4 PUSH2 0x24EE JUMP JUMPDEST SWAP2 POP PUSH2 0x3167 DUP3 PUSH2 0x3128 JUMP JUMPDEST PUSH1 0x20 DUP3 ADD SWAP1 POP SWAP2 SWAP1 POP JUMP JUMPDEST PUSH0 PUSH1 0x20 DUP3 ADD SWAP1 POP DUP2 DUP2 SUB PUSH0 DUP4 ADD MSTORE PUSH2 0x3189 DUP2 PUSH2 0x3150 JUMP JUMPDEST SWAP1 POP SWAP2 SWAP1 POP JUMP JUMPDEST PUSH32 0x4E487B7100000000000000000000000000000000000000000000000000000000 PUSH0 MSTORE PUSH1 0x11 PUSH1 0x4 MSTORE PUSH1 0x24 PUSH0 REVERT JUMPDEST PUSH0 PUSH2 0x31C7 DUP3 PUSH2 0x2486 JUMP JUMPDEST SWAP2 POP PUSH32 0xFFFFFFFFFFFFFFFFFFFFFFFFFFFFFFFFFFFFFFFFFFFFFFFFFFFFFFFFFFFFFFFF DUP3 SUB PUSH2 0x31F9 JUMPI PUSH2 0x31F8 PUSH2 0x3190 JUMP JUMPDEST JUMPDEST PUSH1 0x1 DUP3 ADD SWAP1 POP SWAP2 SWAP1 POP JUMP JUMPDEST PUSH0 PUSH2 0x320E DUP3 PUSH2 0x2486 JUMP JUMPDEST SWAP2 POP PUSH2 0x3219 DUP4 PUSH2 0x2486 JUMP JUMPDEST SWAP3 POP DUP3 DUP3 ADD SWAP1 POP DUP1 DUP3 GT ISZERO PUSH2 0x3231 JUMPI PUSH2 0x3230 PUSH2 0x3190 JUMP JUMPDEST JUMPDEST SWAP3 SWAP2 POP POP JUMP JUMPDEST PUSH0 DUP2 SWAP1 POP DUP2 PUSH0 MSTORE PUSH1 0x20 PUSH0 KECCAK256 SWAP1 POP SWAP2 SWAP1 POP JUMP JUMPDEST PUSH0 PUSH1 0x20 PUSH1 0x1F DUP4 ADD DIV SWAP1 POP SWAP2 SWAP1 POP JUMP JUMPDEST PUSH0 DUP3 DUP3 SHL SWAP1 POP SWAP3 SWAP2 POP POP JUMP JUMPDEST PUSH0 PUSH1 0x8 DUP4 MUL PUSH2 0x3293 PUSH32 0xFFFFFFFFFFFFFFFFFFFFFFFFFFFFFFFFFFFFFFFFFFFFFFFFFFFFFFFFFFFFFFFF DUP3 PUSH2 0x3258 JUMP JUMPDEST PUSH2 0x329D DUP7 DUP4 PUSH2 0x3258 JUMP JUMPDEST SWAP6 POP DUP1 NOT DUP5 AND SWAP4 POP DUP1 DUP7 AND DUP5 OR SWAP3 POP POP POP SWAP4 SWAP3 POP POP POP JUMP JUMPDEST PUSH0 PUSH2 0x32CF PUSH2 0x32CA PUSH2 0x32C5 DUP5 PUSH2 0x2486 JUMP JUMPDEST PUSH2 0x2ECD JUMP JUMPDEST PUSH2 0x2486 JUMP JUMPDEST SWAP1 POP SWAP2 SWAP1 POP JUMP JUMPDEST PUSH0 DUP2 SWAP1 POP SWAP2 SWAP1 POP JUMP JUMPDEST PUSH2 0x32E8 DUP4 PUSH2 0x32B5 JUMP JUMPDEST PUSH2 0x32FC PUSH2 0x32F4 DUP3 PUSH2 0x32D6 JUMP JUMPDEST DUP5 DUP5 SLOAD PUSH2 0x3264 JUMP JUMPDEST DUP3 SSTORE POP POP POP POP JUMP JUMPDEST PUSH0 SWAP1 JUMP JUMPDEST PUSH2 0x3310 PUSH2 0x3304 JUMP JUMPDEST PUSH2 0x331B DUP2 DUP5 DUP5 PUSH2 0x32DF JUMP JUMPDEST POP POP POP JUMP JUMPDEST JUMPDEST DUP2 DUP2 LT ISZERO PUSH2 0x333E JUMPI PUSH2 0x3333 PUSH0 DUP3 PUSH2 0x3308 JUMP JUMPDEST PUSH1 0x1 DUP2 ADD SWAP1 POP PUSH2 0x3321 JUMP JUMPDEST POP POP JUMP JUMPDEST PUSH1 0x1F DUP3 GT ISZERO PUSH2 0x3383 JUMPI PUSH2 0x3354 DUP2 PUSH2 0x3237 JUMP JUMPDEST PUSH2 0x335D DUP5 PUSH2 0x3249 JUMP JUMPDEST DUP2 ADD PUSH1 0x20 DUP6 LT ISZERO PUSH2 0x336C JUMPI DUP2 SWAP1 POP JUMPDEST PUSH2 0x3380 PUSH2 0x3378 DUP6 PUSH2 0x3249 JUMP JUMPDEST DUP4 ADD DUP3 PUSH2 0x3320 JUMP JUMPDEST POP POP JUMPDEST POP POP POP JUMP JUMPDEST PUSH0 DUP3 DUP3 SHR SWAP1 POP SWAP3 SWAP2 POP POP JUMP JUMPDEST PUSH0 PUSH2 0x33A3 PUSH0 NOT DUP5 PUSH1 0x8 MUL PUSH2 0x3388 JUMP JUMPDEST NOT DUP1 DUP4 AND SWAP2 POP POP SWAP3 SWAP2 POP POP JUMP JUMPDEST PUSH0 PUSH2 0x33BB DUP4 DUP4 PUSH2 0x3394 JUMP JUMPDEST SWAP2 POP DUP3 PUSH1 0x2 MUL DUP3 OR SWAP1 POP SWAP3 SWAP2 POP POP JUMP JUMPDEST PUSH2 0x33D4 DUP3 PUSH2 0x24E4 JUMP JUMPDEST PUSH8 0xFFFFFFFFFFFFFFFF DUP2 GT ISZERO PUSH2 0x33ED JUMPI PUSH2 0x33EC PUSH2 0x279D JUMP JUMPDEST JUMPDEST PUSH2 0x33F7 DUP3 SLOAD PUSH2 0x2D36 JUMP JUMPDEST PUSH2 0x3402 DUP3 DUP3 DUP6 PUSH2 0x3342 JUMP JUMPDEST PUSH0 PUSH1 0x20 SWAP1 POP PUSH1 0x1F DUP4 GT PUSH1 0x1 DUP2 EQ PUSH2 0x3433 JUMPI PUSH0 DUP5 ISZERO PUSH2 0x3421 JUMPI DUP3 DUP8 ADD MLOAD SWAP1 POP JUMPDEST PUSH2 0x342B DUP6 DUP3 PUSH2 0x33B0 JUMP JUMPDEST DUP7 SSTORE POP PUSH2 0x3492 JUMP JUMPDEST PUSH1 0x1F NOT DUP5 AND PUSH2 0x3441 DUP7 PUSH2 0x3237 JUMP JUMPDEST PUSH0 JUMPDEST DUP3 DUP2 LT ISZERO PUSH2 0x3468 JUMPI DUP5 DUP10 ADD MLOAD DUP3 SSTORE PUSH1 0x1 DUP3 ADD SWAP2 POP PUSH1 0x20 DUP6 ADD SWAP5 POP PUSH1 0x20 DUP2 ADD SWAP1 POP PUSH2 0x3443 JUMP JUMPDEST DUP7 DUP4 LT ISZERO PUSH2 0x3485 JUMPI DUP5 DUP10 ADD MLOAD PUSH2 0x3481 PUSH1 0x1F DUP10 AND DUP3 PUSH2 0x3394 JUMP JUMPDEST DUP4 SSTORE POP JUMPDEST PUSH1 0x1 PUSH1 0x2 DUP9 MUL ADD DUP9 SSTORE POP POP POP JUMPDEST POP POP POP POP POP POP JUMP JUMPDEST PUSH0 PUSH1 0x60 DUP3 ADD SWAP1 POP PUSH2 0x34AD PUSH0 DUP4 ADD DUP7 PUSH2 0x256E JUMP JUMPDEST DUP2 DUP2 SUB PUSH1 0x20 DUP4 ADD MSTORE PUSH2 0x34BF DUP2 DUP6 PUSH2 0x2536 JUMP JUMPDEST SWAP1 POP PUSH2 0x34CE PUSH1 0x40 DUP4 ADD DUP5 PUSH2 0x25C7 JUMP JUMPDEST SWAP5 SWAP4 POP POP POP POP JUMP JUMPDEST PUSH32 0x566F74696E6720706572696F642068617320656E646564000000000000000000 PUSH0 DUP3 ADD MSTORE POP JUMP JUMPDEST PUSH0 PUSH2 0x350A PUSH1 0x17 DUP4 PUSH2 0x24EE JUMP JUMPDEST SWAP2 POP PUSH2 0x3515 DUP3 PUSH2 0x34D6 JUMP JUMPDEST PUSH1 0x20 DUP3 ADD SWAP1 POP SWAP2 SWAP1 POP JUMP JUMPDEST PUSH0 PUSH1 0x20 DUP3 ADD SWAP1 POP DUP2 DUP2 SUB PUSH0 DUP4 ADD MSTORE PUSH2 0x3537 DUP2 PUSH2 0x34FE JUMP JUMPDEST SWAP1 POP SWAP2 SWAP1 POP JUMP JUMPDEST PUSH32 0x4469737075746520616C72656164792065786563757465640000000000000000 PUSH0 DUP3 ADD MSTORE POP JUMP JUMPDEST PUSH0 PUSH2 0x3572 PUSH1 0x18 DUP4 PUSH2 0x24EE JUMP JUMPDEST SWAP2 POP PUSH2 0x357D DUP3 PUSH2 0x353E JUMP JUMPDEST PUSH1 0x20 DUP3 ADD SWAP1 POP SWAP2 SWAP1 POP JUMP JUMPDEST PUSH0 PUSH1 0x20 DUP3 ADD SWAP1 POP DUP2 DUP2 SUB PUSH0 DUP4 ADD MSTORE PUSH2 0x359F DUP2 PUSH2 0x3566 JUMP JUMPDEST SWAP1 POP SWAP2 SWAP1 POP JUMP JUMPDEST PUSH0 PUSH1 0x60 DUP3 ADD SWAP1 POP PUSH2 0x35B9 PUSH0 DUP4 ADD DUP7 PUSH2 0x256E JUMP JUMPDEST PUSH2 0x35C6 PUSH1 0x20 DUP4 ADD DUP6 PUSH2 0x25C7 JUMP JUMPDEST PUSH2 0x35D3 PUSH1 0x40 DUP4 ADD DUP5 PUSH2 0x2588 JUMP JUMPDEST SWAP5 SWAP4 POP POP POP POP JUMP JUMPDEST PUSH32 0x4465616C206973206E6F7420636F6D706C657465640000000000000000000000 PUSH0 DUP3 ADD MSTORE POP JUMP JUMPDEST PUSH0 PUSH2 0x360F PUSH1 0x15 DUP4 PUSH2 0x24EE JUMP JUMPDEST SWAP2 POP PUSH2 0x361A DUP3 PUSH2 0x35DB JUMP JUMPDEST PUSH1 0x20 DUP3 ADD SWAP1 POP SWAP2 SWAP1 POP JUMP JUMPDEST PUSH0 PUSH1 0x20 DUP3 ADD SWAP1 POP DUP2 DUP2 SUB PUSH0 DUP4 ADD MSTORE PUSH2 0x363C DUP2 PUSH2 0x3603 JUMP JUMPDEST SWAP1 POP SWAP2 SWAP1 POP JUMP JUMPDEST PUSH32 0x4E6F7420617574686F72697A656420746F207261746500000000000000000000 PUSH0 DUP3 ADD MSTORE POP JUMP JUMPDEST PUSH0 PUSH2 0x3677 PUSH1 0x16 DUP4 PUSH2 0x24EE JUMP JUMPDEST SWAP2 POP PUSH2 0x3682 DUP3 PUSH2 0x3643 JUMP JUMPDEST PUSH1 0x20 DUP3 ADD SWAP1 POP SWAP2 SWAP1 POP JUMP JUMPDEST PUSH0 PUSH1 0x20 DUP3 ADD SWAP1 POP DUP2 DUP2 SUB PUSH0 DUP4 ADD MSTORE PUSH2 0x36A4 DUP2 PUSH2 0x366B JUMP JUMPDEST SWAP1 POP SWAP2 SWAP1 POP JUMP JUMPDEST PUSH32 0x416C726561647920726174656400000000000000000000000000000000000000 PUSH0 DUP3 ADD MSTORE POP JUMP JUMPDEST PUSH0 PUSH2 0x36DF PUSH1 0xD DUP4 PUSH2 0x24EE JUMP JUMPDEST SWAP2 POP PUSH2 0x36EA DUP3 PUSH2 0x36AB JUMP JUMPDEST PUSH1 0x20 DUP3 ADD SWAP1 POP SWAP2 SWAP1 POP JUMP JUMPDEST PUSH0 PUSH1 0x20 DUP3 ADD SWAP1 POP DUP2 DUP2 SUB PUSH0 DUP4 ADD MSTORE PUSH2 0x370C DUP2 PUSH2 0x36D3 JUMP JUMPDEST SWAP1 POP SWAP2 SWAP1 POP JUMP JUMPDEST PUSH0 PUSH2 0x371D DUP3 PUSH2 0x2486 JUMP JUMPDEST SWAP2 POP PUSH2 0x3728 DUP4 PUSH2 0x2486 JUMP JUMPDEST SWAP3 POP DUP3 DUP3 SUB SWAP1 POP DUP2 DUP2 GT ISZERO PUSH2 0x3740 JUMPI PUSH2 0x373F PUSH2 0x3190 JUMP JUMPDEST JUMPDEST SWAP3 SWAP2 POP POP JUMP JUMPDEST PUSH0 PUSH2 0x3750 DUP3 PUSH2 0x2486 JUMP JUMPDEST SWAP2 POP PUSH2 0x375B DUP4 PUSH2 0x2486 JUMP JUMPDEST SWAP3 POP DUP3 DUP3 MUL PUSH2 0x3769 DUP2 PUSH2 0x2486 JUMP JUMPDEST SWAP2 POP DUP3 DUP3 DIV DUP5 EQ DUP4 ISZERO OR PUSH2 0x3780 JUMPI PUSH2 0x377F PUSH2 0x3190 JUMP JUMPDEST JUMPDEST POP SWAP3 SWAP2 POP POP JUMP JUMPDEST PUSH0 PUSH1 0x60 DUP3 ADD SWAP1 POP PUSH2 0x379A PUSH0 DUP4 ADD DUP7 PUSH2 0x25C7 JUMP JUMPDEST PUSH2 0x37A7 PUSH1 0x20 DUP4 ADD DUP6 PUSH2 0x256E JUMP JUMPDEST PUSH2 0x37B4 PUSH1 0x40 DUP4 ADD DUP5 PUSH2 0x256E JUMP JUMPDEST SWAP5 SWAP4 POP POP POP POP JUMP JUMPDEST PUSH0 DUP2 MLOAD SWAP1 POP PUSH2 0x37CA DUP2 PUSH2 0x26BF JUMP JUMPDEST SWAP3 SWAP2 POP POP JUMP JUMPDEST PUSH0 PUSH1 0x20 DUP3 DUP5 SUB SLT ISZERO PUSH2 0x37E5 JUMPI PUSH2 0x37E4 PUSH2 0x247E JUMP JUMPDEST JUMPDEST PUSH0 PUSH2 0x37F2 DUP5 DUP3 DUP6 ADD PUSH2 0x37BC JUMP JUMPDEST SWAP2 POP POP SWAP3 SWAP2 POP POP JUMP JUMPDEST PUSH32 0x566F74696E6720706572696F64206973206E6F74206F76657200000000000000 PUSH0 DUP3 ADD MSTORE POP JUMP JUMPDEST PUSH0 PUSH2 0x382F PUSH1 0x19 DUP4 PUSH2 0x24EE JUMP JUMPDEST SWAP2 POP PUSH2 0x383A DUP3 PUSH2 0x37FB JUMP JUMPDEST PUSH1 0x20 DUP3 ADD SWAP1 POP SWAP2 SWAP1 POP JUMP JUMPDEST PUSH0 PUSH1 0x20 DUP3 ADD SWAP1 POP DUP2 DUP2 SUB PUSH0 DUP4 ADD MSTORE PUSH2 0x385C DUP2 PUSH2 0x3823 JUMP JUMPDEST SWAP1 POP SWAP2 SWAP1 POP JUMP JUMPDEST PUSH32 0x4E487B7100000000000000000000000000000000000000000000000000000000 PUSH0 MSTORE PUSH1 0x12 PUSH1 0x4 MSTORE PUSH1 0x24 PUSH0 REVERT JUMPDEST PUSH0 PUSH2 0x389A DUP3 PUSH2 0x2486 JUMP JUMPDEST SWAP2 POP PUSH2 0x38A5 DUP4 PUSH2 0x2486 JUMP JUMPDEST SWAP3 POP DUP3 PUSH2 0x38B5 JUMPI PUSH2 0x38B4 PUSH2 0x3863 JUMP JUMPDEST JUMPDEST DUP3 DUP3 DIV SWAP1 POP SWAP3 SWAP2 POP POP JUMP JUMPDEST PUSH0 PUSH1 0x40 DUP3 ADD SWAP1 POP PUSH2 0x38D3 PUSH0 DUP4 ADD DUP6 PUSH2 0x25C7 JUMP JUMPDEST PUSH2 0x38E0 PUSH1 0x20 DUP4 ADD DUP5 PUSH2 0x256E JUMP JUMPDEST SWAP4 SWAP3 POP POP POP JUMP JUMPDEST POP JUMP JUMPDEST PUSH0 PUSH2 0x38F5 PUSH0 DUP4 PUSH2 0x24EE JUMP JUMPDEST SWAP2 POP PUSH2 0x3900 DUP3 PUSH2 0x38E7 JUMP JUMPDEST PUSH0 DUP3 ADD SWAP1 POP SWAP2 SWAP1 POP JUMP JUMPDEST PUSH0 PUSH1 0x20 DUP3 ADD SWAP1 POP DUP2 DUP2 SUB PUSH0 DUP4 ADD MSTORE PUSH2 0x3921 DUP2 PUSH2 0x38EA JUMP JUMPDEST SWAP1 POP SWAP2 SWAP1 POP JUMP INVALID LOG2 PUSH5 0x6970667358 0x22 SLT KECCAK256 PUSH8 0x8DDEF2295F2433D PUSH10 0xDE6AEB086B0C1838C55A 0xB4 0xDA RETURN 0xD7 CREATE2 BALANCE 0xA9 0xE6 DUP14 0xE8 0xCF 0x26 PUSH5 0x736F6C6343 STOP ADDMOD AND STOP CALLER "
		},
		"gasEstimates": {
			"creation": {
				"codeDepositCost": "2937200",
				"executionCost": "infinite",
				"totalCost": "infinite"
			},
			"external": {
				"_getDisputeResult(uint256)": "infinite",
				"addDeal(address,address,uint256,uint256,uint256,bool,bool,string)": "infinite",
				"createProposal(string)": "infinite",
				"deals(uint256)": "infinite",
				"disputeCount()": "2492",
				"disputes(uint256)": "infinite",
				"executeProposal(uint256)": "infinite",
				"isMember()": "2648",
				"isPawned(uint256)": "2808",
				"members(address)": "2923",
				"proposalCount()": "2535",
				"proposals(uint256)": "infinite",
				"rateDeal(uint256,uint256)": "infinite",
				"registerAsMember()": "infinite",
				"remarks(uint256)": "infinite",
				"resolveDispute(uint256)": "infinite",
				"setIsPawned(uint256,bool)": "24988",
				"submitDispute(uint256,string,string,address)": "infinite",
				"vote(uint256,bool)": "infinite",
				"voteOnDispute(uint256,bool)": "infinite"
			}
		},
		"methodIdentifiers": {
			"_getDisputeResult(uint256)": "4406a2fd",
			"addDeal(address,address,uint256,uint256,uint256,bool,bool,string)": "c8af1d6b",
			"createProposal(string)": "49c2a1a6",
			"deals(uint256)": "03988f84",
			"disputeCount()": "a28889e1",
			"disputes(uint256)": "564a565d",
			"executeProposal(uint256)": "0d61b519",
			"isMember()": "d02982cf",
			"isPawned(uint256)": "6b842f7f",
			"members(address)": "08ae4b0c",
			"proposalCount()": "da35c664",
			"proposals(uint256)": "013cf08b",
			"rateDeal(uint256,uint256)": "b8418fac",
			"registerAsMember()": "4217df12",
			"remarks(uint256)": "70e84f9e",
			"resolveDispute(uint256)": "c2b7b868",
			"setIsPawned(uint256,bool)": "03d0a81a",
			"submitDispute(uint256,string,string,address)": "43b32673",
			"vote(uint256,bool)": "c9d27afe",
			"voteOnDispute(uint256,bool)": "a4f5df12"
		}
	},
	"abi": [
		{
			"inputs": [
				{
					"internalType": "address",
					"name": "_user",
					"type": "address"
				},
				{
					"internalType": "address",
					"name": "_RRT",
					"type": "address"
				}
			],
			"stateMutability": "nonpayable",
			"type": "constructor"
		},
		{
			"anonymous": false,
			"inputs": [
				{
					"indexed": false,
					"internalType": "address",
					"name": "member",
					"type": "address"
				}
			],
			"name": "MemberRegistered",
			"type": "event"
		},
		{
			"anonymous": false,
			"inputs": [
				{
					"indexed": false,
					"internalType": "uint256",
					"name": "proposalId",
					"type": "uint256"
				},
				{
					"indexed": false,
					"internalType": "string",
					"name": "description",
					"type": "string"
				},
				{
					"indexed": false,
					"internalType": "address",
					"name": "proposer",
					"type": "address"
				}
			],
			"name": "ProposalCreated",
			"type": "event"
		},
		{
			"anonymous": false,
			"inputs": [
				{
					"indexed": false,
					"internalType": "uint256",
					"name": "proposalId",
					"type": "uint256"
				},
				{
					"indexed": false,
					"internalType": "bool",
					"name": "success",
					"type": "bool"
				}
			],
			"name": "ProposalExecuted",
			"type": "event"
		},
		{
			"anonymous": false,
			"inputs": [
				{
					"indexed": false,
					"internalType": "uint256",
					"name": "proposalId",
					"type": "uint256"
				},
				{
					"indexed": false,
					"internalType": "address",
					"name": "voter",
					"type": "address"
				},
				{
					"indexed": false,
					"internalType": "bool",
					"name": "support",
					"type": "bool"
				}
			],
			"name": "Voted",
			"type": "event"
		},
		{
			"inputs": [
				{
					"internalType": "uint256",
					"name": "_propertyId",
					"type": "uint256"
				}
			],
			"name": "_getDisputeResult",
			"outputs": [
				{
					"components": [
						{
							"internalType": "uint256",
							"name": "disputeId",
							"type": "uint256"
						},
						{
							"internalType": "uint256",
							"name": "dealId",
							"type": "uint256"
						},
						{
							"internalType": "uint256",
							"name": "deadline",
							"type": "uint256"
						},
						{
							"internalType": "string",
							"name": "disputeDescription",
							"type": "string"
						},
						{
							"internalType": "string",
							"name": "proof",
							"type": "string"
						},
						{
							"internalType": "uint256",
							"name": "votesFor",
							"type": "uint256"
						},
						{
							"internalType": "uint256",
							"name": "votesAgainst",
							"type": "uint256"
						},
						{
							"internalType": "bool",
							"name": "executed",
							"type": "bool"
						},
						{
							"internalType": "address",
							"name": "roe",
							"type": "address"
						}
					],
					"internalType": "struct IRentDeal.Dispute",
					"name": "",
					"type": "tuple"
				}
			],
			"stateMutability": "view",
			"type": "function"
		},
		{
			"inputs": [
				{
					"internalType": "address",
					"name": "_roomer",
					"type": "address"
				},
				{
					"internalType": "address",
					"name": "_landord",
					"type": "address"
				},
				{
					"internalType": "uint256",
					"name": "_propertyId",
					"type": "uint256"
				},
				{
					"internalType": "uint256",
					"name": "_rentTimeStart",
					"type": "uint256"
				},
				{
					"internalType": "uint256",
					"name": "_rentTimeEnd",
					"type": "uint256"
				},
				{
					"internalType": "bool",
					"name": "_isCompleted",
					"type": "bool"
				},
				{
					"internalType": "bool",
					"name": "_isDisputed",
					"type": "bool"
				},
				{
					"internalType": "string",
					"name": "_rentContract",
					"type": "string"
				}
			],
			"name": "addDeal",
			"outputs": [
				{
					"internalType": "bool",
					"name": "",
					"type": "bool"
				}
			],
			"stateMutability": "nonpayable",
			"type": "function"
		},
		{
			"inputs": [
				{
					"internalType": "string",
					"name": "description",
					"type": "string"
				}
			],
			"name": "createProposal",
			"outputs": [
				{
					"internalType": "bool",
					"name": "",
					"type": "bool"
				}
			],
			"stateMutability": "nonpayable",
			"type": "function"
		},
		{
			"inputs": [
				{
					"internalType": "uint256",
					"name": "",
					"type": "uint256"
				}
			],
			"name": "deals",
			"outputs": [
				{
					"internalType": "address",
					"name": "roomer",
					"type": "address"
				},
				{
					"internalType": "address",
					"name": "landord",
					"type": "address"
				},
				{
					"internalType": "uint256",
					"name": "propertyId",
					"type": "uint256"
				},
				{
					"internalType": "uint256",
					"name": "rentTimeStart",
					"type": "uint256"
				},
				{
					"internalType": "uint256",
					"name": "rentTimeEnd",
					"type": "uint256"
				},
				{
					"internalType": "bool",
					"name": "isCompleted",
					"type": "bool"
				},
				{
					"internalType": "bool",
					"name": "isDisputed",
					"type": "bool"
				},
				{
					"internalType": "string",
					"name": "rentContract",
					"type": "string"
				}
			],
			"stateMutability": "view",
			"type": "function"
		},
		{
			"inputs": [],
			"name": "disputeCount",
			"outputs": [
				{
					"internalType": "uint256",
					"name": "",
					"type": "uint256"
				}
			],
			"stateMutability": "view",
			"type": "function"
		},
		{
			"inputs": [
				{
					"internalType": "uint256",
					"name": "",
					"type": "uint256"
				}
			],
			"name": "disputes",
			"outputs": [
				{
					"internalType": "uint256",
					"name": "disputeId",
					"type": "uint256"
				},
				{
					"internalType": "uint256",
					"name": "dealId",
					"type": "uint256"
				},
				{
					"internalType": "uint256",
					"name": "deadline",
					"type": "uint256"
				},
				{
					"internalType": "string",
					"name": "disputeDescription",
					"type": "string"
				},
				{
					"internalType": "string",
					"name": "proof",
					"type": "string"
				},
				{
					"internalType": "uint256",
					"name": "votesFor",
					"type": "uint256"
				},
				{
					"internalType": "uint256",
					"name": "votesAgainst",
					"type": "uint256"
				},
				{
					"internalType": "bool",
					"name": "executed",
					"type": "bool"
				},
				{
					"internalType": "address",
					"name": "roe",
					"type": "address"
				}
			],
			"stateMutability": "view",
			"type": "function"
		},
		{
			"inputs": [
				{
					"internalType": "uint256",
					"name": "proposalId",
					"type": "uint256"
				}
			],
			"name": "executeProposal",
			"outputs": [],
			"stateMutability": "nonpayable",
			"type": "function"
		},
		{
			"inputs": [],
			"name": "isMember",
			"outputs": [
				{
					"internalType": "bool",
					"name": "",
					"type": "bool"
				}
			],
			"stateMutability": "view",
			"type": "function"
		},
		{
			"inputs": [
				{
					"internalType": "uint256",
					"name": "",
					"type": "uint256"
				}
			],
			"name": "isPawned",
			"outputs": [
				{
					"internalType": "bool",
					"name": "",
					"type": "bool"
				}
			],
			"stateMutability": "view",
			"type": "function"
		},
		{
			"inputs": [
				{
					"internalType": "address",
					"name": "",
					"type": "address"
				}
			],
			"name": "members",
			"outputs": [
				{
					"internalType": "bool",
					"name": "",
					"type": "bool"
				}
			],
			"stateMutability": "view",
			"type": "function"
		},
		{
			"inputs": [],
			"name": "proposalCount",
			"outputs": [
				{
					"internalType": "uint256",
					"name": "",
					"type": "uint256"
				}
			],
			"stateMutability": "view",
			"type": "function"
		},
		{
			"inputs": [
				{
					"internalType": "uint256",
					"name": "",
					"type": "uint256"
				}
			],
			"name": "proposals",
			"outputs": [
				{
					"internalType": "string",
					"name": "description",
					"type": "string"
				},
				{
					"internalType": "uint256",
					"name": "votesFor",
					"type": "uint256"
				},
				{
					"internalType": "uint256",
					"name": "votesAgainst",
					"type": "uint256"
				},
				{
					"internalType": "uint256",
					"name": "deadline",
					"type": "uint256"
				},
				{
					"internalType": "bool",
					"name": "executed",
					"type": "bool"
				},
				{
					"internalType": "address",
					"name": "proposer",
					"type": "address"
				}
			],
			"stateMutability": "view",
			"type": "function"
		},
		{
			"inputs": [
				{
					"internalType": "uint256",
					"name": "dealId",
					"type": "uint256"
				},
				{
					"internalType": "uint256",
					"name": "_grade",
					"type": "uint256"
				}
			],
			"name": "rateDeal",
			"outputs": [],
			"stateMutability": "nonpayable",
			"type": "function"
		},
		{
			"inputs": [],
			"name": "registerAsMember",
			"outputs": [],
			"stateMutability": "nonpayable",
			"type": "function"
		},
		{
			"inputs": [
				{
					"internalType": "uint256",
					"name": "dealId",
					"type": "uint256"
				}
			],
			"name": "remarks",
			"outputs": [
				{
					"internalType": "address",
					"name": "owner",
					"type": "address"
				},
				{
					"internalType": "uint256",
					"name": "grade",
					"type": "uint256"
				},
				{
					"internalType": "string",
					"name": "wards",
					"type": "string"
				},
				{
					"internalType": "bool",
					"name": "isRemarked",
					"type": "bool"
				}
			],
			"stateMutability": "view",
			"type": "function"
		},
		{
			"inputs": [
				{
					"internalType": "uint256",
					"name": "disputeId",
					"type": "uint256"
				}
			],
			"name": "resolveDispute",
			"outputs": [],
			"stateMutability": "nonpayable",
			"type": "function"
		},
		{
			"inputs": [
				{
					"internalType": "uint256",
					"name": "_propertyId",
					"type": "uint256"
				},
				{
					"internalType": "bool",
					"name": "_isPawned",
					"type": "bool"
				}
			],
			"name": "setIsPawned",
			"outputs": [],
			"stateMutability": "nonpayable",
			"type": "function"
		},
		{
			"inputs": [
				{
					"internalType": "uint256",
					"name": "dealId",
					"type": "uint256"
				},
				{
					"internalType": "string",
					"name": "description",
					"type": "string"
				},
				{
					"internalType": "string",
					"name": "proof",
					"type": "string"
				},
				{
					"internalType": "address",
					"name": "roe",
					"type": "address"
				}
			],
			"name": "submitDispute",
			"outputs": [],
			"stateMutability": "nonpayable",
			"type": "function"
		},
		{
			"inputs": [
				{
					"internalType": "uint256",
					"name": "proposalId",
					"type": "uint256"
				},
				{
					"internalType": "bool",
					"name": "support",
					"type": "bool"
				}
			],
			"name": "vote",
			"outputs": [],
			"stateMutability": "nonpayable",
			"type": "function"
		},
		{
			"inputs": [
				{
					"internalType": "uint256",
					"name": "disputeId",
					"type": "uint256"
				},
				{
					"internalType": "bool",
					"name": "support",
					"type": "bool"
				}
			],
			"name": "voteOnDispute",
			"outputs": [],
			"stateMutability": "nonpayable",
			"type": "function"
		}
	]
}