{
	"data": {
		"bytecode": {
			"linkReferences": {},
			"object": "608060405234801562000010575f80fd5b50604051620039fb380380620039fb833981810160405281019062000036919062000122565b815f806101000a81548173ffffffffffffffffffffffffffffffffffffffff021916908373ffffffffffffffffffffffffffffffffffffffff1602179055508060015f6101000a81548173ffffffffffffffffffffffffffffffffffffffff021916908373ffffffffffffffffffffffffffffffffffffffff160217905550505062000167565b5f80fd5b5f73ffffffffffffffffffffffffffffffffffffffff82169050919050565b5f620000ec82620000c1565b9050919050565b620000fe81620000e0565b811462000109575f80fd5b50565b5f815190506200011c81620000f3565b92915050565b5f80604083850312156200013b576200013a620000bd565b5b5f6200014a858286016200010c565b92505060206200015d858286016200010c565b9150509250929050565b61388680620001755f395ff3fe608060405234801561000f575f80fd5b5060043610610114575f3560e01c80636b842f7f116100a0578063c2b7b8681161006f578063c2b7b868146102fb578063c8af1d6b14610317578063c9d27afe14610347578063d02982cf14610363578063da35c6641461038157610114565b80636b842f7f14610261578063a28889e114610291578063a4f5df12146102af578063a4f60002146102cb57610114565b80634217df12116100e75780634217df12146101a357806343b32673146101ad5780634406a2fd146101c957806349c2a1a6146101f9578063564a565d1461022957610114565b806303988f841461011857806303d0a81a1461014f5780630d61b5191461016b5780633b22369c14610187575b5f80fd5b610132600480360381019061012d9190612468565b61039f565b604051610146989796959493929190612585565b60405180910390f35b61016960048036038101906101649190612632565b6104c0565b005b61018560048036038101906101809190612468565b6104ec565b005b6101a1600480360381019061019c919061279c565b610718565b005b6101ab610de2565b005b6101c760048036038101906101c29190612832565b611063565b005b6101e360048036038101906101de9190612468565b611358565b6040516101f09190612a0c565b60405180910390f35b610213600480360381019061020e9190612a2c565b611545565b6040516102209190612a73565b60405180910390f35b610243600480360381019061023e9190612468565b61172b565b60405161025899989796959493929190612a8c565b60405180910390f35b61027b60048036038101906102769190612468565b6118ad565b6040516102889190612a73565b60405180910390f35b6102996118ca565b6040516102a69190612b25565b60405180910390f35b6102c960048036038101906102c49190612632565b6118d0565b005b6102e560048036038101906102e09190612468565b611b3d565b6040516102f29190612a73565b60405180910390f35b61031560048036038101906103109190612468565b611b9d565b005b610331600480360381019061032c9190612b3e565b611f4e565b60405161033e9190612a73565b60405180910390f35b610361600480360381019061035c9190612632565b612181565b005b61036b612371565b6040516103789190612a73565b60405180910390f35b6103896123c1565b6040516103969190612b25565b60405180910390f35b6004602052805f5260405f205f91509050805f015f9054906101000a900473ffffffffffffffffffffffffffffffffffffffff1690806001015f9054906101000a900473ffffffffffffffffffffffffffffffffffffffff1690806002015490806003015490806004015490806005015f9054906101000a900460ff16908060050160019054906101000a900460ff169080600601805461043f90612c38565b80601f016020809104026020016040519081016040528092919081815260200182805461046b90612c38565b80156104b65780601f1061048d576101008083540402835291602001916104b6565b820191905f5260205f20905b81548152906001019060200180831161049957829003601f168201915b5050505050905088565b8060075f8481526020019081526020015f205f6101000a81548160ff0219169083151502179055505050565b60025f3273ffffffffffffffffffffffffffffffffffffffff1673ffffffffffffffffffffffffffffffffffffffff1681526020019081526020015f205f9054906101000a900460ff16610575576040517f08c379a000000000000000000000000000000000000000000000000000000000815260040161056c90612cd8565b60405180910390fd5b5f60035f8381526020019081526020015f20905080600301544210156105d0576040517f08c379a00000000000000000000000000000000000000000000000000000000081526004016105c790612d66565b60405180910390fd5b806004015f9054906101000a900460ff1615610621576040517f08c379a000000000000000000000000000000000000000000000000000000000815260040161061890612dce565b60405180910390fd5b5f816002015482600101541190506001826004015f6101000a81548160ff02191690831515021790555060015f9054906101000a900473ffffffffffffffffffffffffffffffffffffffff1673ffffffffffffffffffffffffffffffffffffffff1663a0712d68671bc16d674ec800006040518263ffffffff1660e01b81526004016106ad9190612e2e565b5f604051808303815f87803b1580156106c4575f80fd5b505af11580156106d6573d5f803e3d5ffd5b505050507f948f4a9cd986f1118c3fbd459f7a22b23c0693e1ca3ef06a6a8be5aa7d39cc03838260405161070b929190612e47565b60405180910390a1505050565b5f60045f8581526020019081526020015f209050806005015f9054906101000a900460ff1661077c576040517f08c379a000000000000000000000000000000000000000000000000000000000815260040161077390612eb8565b60405180910390fd5b805f015f9054906101000a900473ffffffffffffffffffffffffffffffffffffffff1673ffffffffffffffffffffffffffffffffffffffff163273ffffffffffffffffffffffffffffffffffffffff1614806108265750806001015f9054906101000a900473ffffffffffffffffffffffffffffffffffffffff1673ffffffffffffffffffffffffffffffffffffffff163273ffffffffffffffffffffffffffffffffffffffff16145b610865576040517f08c379a000000000000000000000000000000000000000000000000000000000815260040161085c90612f20565b60405180910390fd5b60065f8581526020019081526020015f205f3273ffffffffffffffffffffffffffffffffffffffff1673ffffffffffffffffffffffffffffffffffffffff1681526020019081526020015f206002015f9054906101000a900460ff1615610901576040517f08c379a00000000000000000000000000000000000000000000000000000000081526004016108f890612f88565b60405180910390fd5b5f815f015f9054906101000a900473ffffffffffffffffffffffffffffffffffffffff1673ffffffffffffffffffffffffffffffffffffffff163273ffffffffffffffffffffffffffffffffffffffff161461097f57815f015f9054906101000a900473ffffffffffffffffffffffffffffffffffffffff166109a4565b816001015f9054906101000a900473ffffffffffffffffffffffffffffffffffffffff165b9050600160065f8781526020019081526020015f205f3273ffffffffffffffffffffffffffffffffffffffff1673ffffffffffffffffffffffffffffffffffffffff1681526020019081526020015f206002015f6101000a81548160ff0219169083151502179055508260065f8781526020019081526020015f205f8373ffffffffffffffffffffffffffffffffffffffff1673ffffffffffffffffffffffffffffffffffffffff1681526020019081526020015f206001019081610a69919061313a565b508360065f8781526020019081526020015f205f8373ffffffffffffffffffffffffffffffffffffffff1673ffffffffffffffffffffffffffffffffffffffff1681526020019081526020015f205f01819055505f805f9054906101000a900473ffffffffffffffffffffffffffffffffffffffff1673ffffffffffffffffffffffffffffffffffffffff1663baccbfdb836040518263ffffffff1660e01b8152600401610b179190613209565b602060405180830381865afa158015610b32573d5f803e3d5ffd5b505050506040513d601f19601f82011682018060405250810190610b569190613236565b90505f60045f8881526020019081526020015f206003015490505f60045f8981526020019081526020015f20600401549050605a8710610c55575f8054906101000a900473ffffffffffffffffffffffffffffffffffffffff1673ffffffffffffffffffffffffffffffffffffffff16635c0e5f888585603c8686610bdb919061328e565b6002610be791906132c1565b610bf1919061332f565b6040518463ffffffff1660e01b8152600401610c0f9392919061335f565b6020604051808303815f875af1158015610c2b573d5f803e3d5ffd5b505050506040513d601f19601f82011682018060405250810190610c4f91906133a8565b50610dd8565b603c8710610d16575f8054906101000a900473ffffffffffffffffffffffffffffffffffffffff1673ffffffffffffffffffffffffffffffffffffffff16635c0e5f888585603c8686610ca8919061328e565b610cb2919061332f565b6040518463ffffffff1660e01b8152600401610cd09392919061335f565b6020604051808303815f875af1158015610cec573d5f803e3d5ffd5b505050506040513d601f19601f82011682018060405250810190610d1091906133a8565b50610dd7565b5f8054906101000a900473ffffffffffffffffffffffffffffffffffffffff1673ffffffffffffffffffffffffffffffffffffffff16635c0e5f888585603c866002610d6291906132c1565b86610d6d919061328e565b610d77919061332f565b6040518463ffffffff1660e01b8152600401610d959392919061335f565b6020604051808303815f875af1158015610db1573d5f803e3d5ffd5b505050506040513d601f19601f82011682018060405250810190610dd591906133a8565b505b5b5050505050505050565b60025f3273ffffffffffffffffffffffffffffffffffffffff1673ffffffffffffffffffffffffffffffffffffffff1681526020019081526020015f205f9054906101000a900460ff1615610e6c576040517f08c379a0000000000000000000000000000000000000000000000000000000008152600401610e639061341d565b60405180910390fd5b605a5f8054906101000a900473ffffffffffffffffffffffffffffffffffffffff1673ffffffffffffffffffffffffffffffffffffffff1663baccbfdb326040518263ffffffff1660e01b8152600401610ec69190613209565b602060405180830381865afa158015610ee1573d5f803e3d5ffd5b505050506040513d601f19601f82011682018060405250810190610f059190613236565b1015610f46576040517f08c379a0000000000000000000000000000000000000000000000000000000008152600401610f3d90613485565b60405180910390fd5b600160025f3273ffffffffffffffffffffffffffffffffffffffff1673ffffffffffffffffffffffffffffffffffffffff1681526020019081526020015f205f6101000a81548160ff02191690831515021790555060015f9054906101000a900473ffffffffffffffffffffffffffffffffffffffff1673ffffffffffffffffffffffffffffffffffffffff1663a0712d68670de0b6b3a76400006040518263ffffffff1660e01b8152600401610ffd91906134dc565b5f604051808303815f87803b158015611014575f80fd5b505af1158015611026573d5f803e3d5ffd5b505050507f92fabfa210df88d92c2f5a07ddd43a985b208d8b19b7a78ba1284aa4b287d862336040516110599190613209565b60405180910390a1565b60045f8581526020019081526020015f2060050160019054906101000a900460ff16156110c5576040517f08c379a00000000000000000000000000000000000000000000000000000000081526004016110bc9061353f565b60405180910390fd5b3273ffffffffffffffffffffffffffffffffffffffff1660045f8681526020019081526020015f205f015f9054906101000a900473ffffffffffffffffffffffffffffffffffffffff1673ffffffffffffffffffffffffffffffffffffffff16148061118f57503273ffffffffffffffffffffffffffffffffffffffff1660045f8681526020019081526020015f206001015f9054906101000a900473ffffffffffffffffffffffffffffffffffffffff1673ffffffffffffffffffffffffffffffffffffffff16145b6111ce576040517f08c379a00000000000000000000000000000000000000000000000000000000081526004016111c5906135a7565b60405180910390fd5b60095f8154809291906111e0906135c5565b9190505550604051806101200160405280600954815260200185815260200161012c4261120d919061360c565b81526020018481526020018381526020015f81526020015f81526020015f151581526020018273ffffffffffffffffffffffffffffffffffffffff1681525060055f60095481526020019081526020015f205f820151815f015560208201518160010155604082015181600201556060820151816003019081611290919061313a565b5060808201518160040190816112a6919061313a565b5060a0820151816005015560c0820151816006015560e0820151816007015f6101000a81548160ff0219169083151502179055506101008201518160070160016101000a81548173ffffffffffffffffffffffffffffffffffffffff021916908373ffffffffffffffffffffffffffffffffffffffff160217905550905050600160045f8681526020019081526020015f2060050160016101000a81548160ff02191690831515021790555050505050565b6113606123c7565b60055f8381526020019081526020015f20604051806101200160405290815f820154815260200160018201548152602001600282015481526020016003820180546113aa90612c38565b80601f01602080910402602001604051908101604052809291908181526020018280546113d690612c38565b80156114215780601f106113f857610100808354040283529160200191611421565b820191905f5260205f20905b81548152906001019060200180831161140457829003601f168201915b5050505050815260200160048201805461143a90612c38565b80601f016020809104026020016040519081016040528092919081815260200182805461146690612c38565b80156114b15780601f10611488576101008083540402835291602001916114b1565b820191905f5260205f20905b81548152906001019060200180831161149457829003601f168201915b505050505081526020016005820154815260200160068201548152602001600782015f9054906101000a900460ff161515151581526020016007820160019054906101000a900473ffffffffffffffffffffffffffffffffffffffff1673ffffffffffffffffffffffffffffffffffffffff1673ffffffffffffffffffffffffffffffffffffffff16815250509050919050565b5f60025f3273ffffffffffffffffffffffffffffffffffffffff1673ffffffffffffffffffffffffffffffffffffffff1681526020019081526020015f205f9054906101000a900460ff166115cf576040517f08c379a00000000000000000000000000000000000000000000000000000000081526004016115c690612cd8565b60405180910390fd5b6040518060c001604052808381526020015f81526020015f815260200160b4426115f9919061360c565b81526020015f151581526020013273ffffffffffffffffffffffffffffffffffffffff1681525060035f60085481526020019081526020015f205f820151815f019081611646919061313a565b506020820151816001015560408201518160020155606082015181600301556080820151816004015f6101000a81548160ff02191690831515021790555060a08201518160040160016101000a81548173ffffffffffffffffffffffffffffffffffffffff021916908373ffffffffffffffffffffffffffffffffffffffff16021790555090505060085f8154809291906116e0906135c5565b91905055507fc8c078bfee58e5822588f08b4509ed1eb5058e03f666cca84dd2d44bf5c288a8600854833260405161171a9392919061363f565b60405180910390a160019050919050565b6005602052805f5260405f205f91509050805f01549080600101549080600201549080600301805461175c90612c38565b80601f016020809104026020016040519081016040528092919081815260200182805461178890612c38565b80156117d35780601f106117aa576101008083540402835291602001916117d3565b820191905f5260205f20905b8154815290600101906020018083116117b657829003601f168201915b5050505050908060040180546117e890612c38565b80601f016020809104026020016040519081016040528092919081815260200182805461181490612c38565b801561185f5780601f106118365761010080835404028352916020019161185f565b820191905f5260205f20905b81548152906001019060200180831161184257829003601f168201915b505050505090806005015490806006015490806007015f9054906101000a900460ff16908060070160019054906101000a900473ffffffffffffffffffffffffffffffffffffffff16905089565b6007602052805f5260405f205f915054906101000a900460ff1681565b60095481565b60025f3273ffffffffffffffffffffffffffffffffffffffff1673ffffffffffffffffffffffffffffffffffffffff1681526020019081526020015f205f9054906101000a900460ff16611959576040517f08c379a000000000000000000000000000000000000000000000000000000000815260040161195090612cd8565b60405180910390fd5b60055f8381526020019081526020015f20600201544211156119b0576040517f08c379a00000000000000000000000000000000000000000000000000000000081526004016119a7906136c5565b60405180910390fd5b60055f8381526020019081526020015f206007015f9054906101000a900460ff1615611a11576040517f08c379a0000000000000000000000000000000000000000000000000000000008152600401611a089061372d565b60405180910390fd5b8015611a455760055f8381526020019081526020015f206005015f815480929190611a3b906135c5565b9190505550611a6f565b60055f8381526020019081526020015f206006015f815480929190611a69906135c5565b91905055505b60015f9054906101000a900473ffffffffffffffffffffffffffffffffffffffff1673ffffffffffffffffffffffffffffffffffffffff1663a0712d68670de0b6b3a76400006040518263ffffffff1660e01b8152600401611ad191906134dc565b5f604051808303815f87803b158015611ae8575f80fd5b505af1158015611afa573d5f803e3d5ffd5b505050507ff2913dbe661ee2acc4a046d8fbcdc792373bda34c41c6086484b5345e5785e5f823383604051611b319392919061374b565b60405180910390a15050565b5f8060045f8481526020019081526020015f20600301549050804210611b9357600160045f8581526020019081526020015f206005015f6101000a81548160ff0219169083151502179055506001915050611b98565b5f9150505b919050565b60025f3273ffffffffffffffffffffffffffffffffffffffff1673ffffffffffffffffffffffffffffffffffffffff1681526020019081526020015f205f9054906101000a900460ff16611c26576040517f08c379a0000000000000000000000000000000000000000000000000000000008152600401611c1d90612cd8565b60405180910390fd5b5f60055f8381526020019081526020015f20905080600201544211611c80576040517f08c379a0000000000000000000000000000000000000000000000000000000008152600401611c77906137ca565b60405180910390fd5b806007015f9054906101000a900460ff1615611cd1576040517f08c379a0000000000000000000000000000000000000000000000000000000008152600401611cc89061372d565b60405180910390fd5b60055f8381526020019081526020015f206006015460055f8481526020019081526020015f20600501541115611e65575f60045f60055f8681526020019081526020015f206001015481526020019081526020015f206003015490505f60045f60055f8781526020019081526020015f206001015481526020019081526020015f206004015490505f603c8383611d68919061328e565b611d72919061332f565b90505f610168601e83611d8591906132c1565b611d8f919061332f565b90505f8054906101000a900473ffffffffffffffffffffffffffffffffffffffff1673ffffffffffffffffffffffffffffffffffffffff1663cf09392660055f8981526020019081526020015f2060070160019054906101000a900473ffffffffffffffffffffffffffffffffffffffff16836040518363ffffffff1660e01b8152600401611e1f9291906137e8565b6020604051808303815f875af1158015611e3b573d5f803e3d5ffd5b505050506040513d601f19601f82011682018060405250810190611e5f91906133a8565b50505050505b6001816007015f6101000a81548160ff02191690831515021790555060015f9054906101000a900473ffffffffffffffffffffffffffffffffffffffff1673ffffffffffffffffffffffffffffffffffffffff1663a0712d68671bc16d674ec800006040518263ffffffff1660e01b8152600401611ee39190612e2e565b5f604051808303815f87803b158015611efa575f80fd5b505af1158015611f0c573d5f803e3d5ffd5b505050507f948f4a9cd986f1118c3fbd459f7a22b23c0693e1ca3ef06a6a8be5aa7d39cc03826001604051611f42929190612e47565b60405180910390a15050565b5f8073ffffffffffffffffffffffffffffffffffffffff168973ffffffffffffffffffffffffffffffffffffffff1614158015611fb757505f73ffffffffffffffffffffffffffffffffffffffff168873ffffffffffffffffffffffffffffffffffffffff1614155b611ff6576040517f08c379a0000000000000000000000000000000000000000000000000000000008152600401611fed90613832565b60405180910390fd5b6040518061010001604052808a73ffffffffffffffffffffffffffffffffffffffff1681526020018973ffffffffffffffffffffffffffffffffffffffff168152602001888152602001878152602001868152602001851515815260200184151581526020018381525060045f8981526020019081526020015f205f820151815f015f6101000a81548173ffffffffffffffffffffffffffffffffffffffff021916908373ffffffffffffffffffffffffffffffffffffffff1602179055506020820151816001015f6101000a81548173ffffffffffffffffffffffffffffffffffffffff021916908373ffffffffffffffffffffffffffffffffffffffff16021790555060408201518160020155606082015181600301556080820151816004015560a0820151816005015f6101000a81548160ff02191690831515021790555060c08201518160050160016101000a81548160ff02191690831515021790555060e082015181600601908161216d919061313a565b509050506001905098975050505050505050565b60025f3273ffffffffffffffffffffffffffffffffffffffff1673ffffffffffffffffffffffffffffffffffffffff1681526020019081526020015f205f9054906101000a900460ff1661220a576040517f08c379a000000000000000000000000000000000000000000000000000000000815260040161220190612cd8565b60405180910390fd5b5f60035f8481526020019081526020015f20905080600301544210612264576040517f08c379a000000000000000000000000000000000000000000000000000000000815260040161225b906136c5565b60405180910390fd5b811561228857806001015f81548092919061227e906135c5565b91905055506122a2565b806002015f81548092919061229c906135c5565b91905055505b60015f9054906101000a900473ffffffffffffffffffffffffffffffffffffffff1673ffffffffffffffffffffffffffffffffffffffff1663a0712d68670de0b6b3a76400006040518263ffffffff1660e01b815260040161230491906134dc565b5f604051808303815f87803b15801561231b575f80fd5b505af115801561232d573d5f803e3d5ffd5b505050507ff2913dbe661ee2acc4a046d8fbcdc792373bda34c41c6086484b5345e5785e5f8333846040516123649392919061374b565b60405180910390a1505050565b5f60025f3273ffffffffffffffffffffffffffffffffffffffff1673ffffffffffffffffffffffffffffffffffffffff1681526020019081526020015f205f9054906101000a900460ff16905090565b60085481565b6040518061012001604052805f81526020015f81526020015f815260200160608152602001606081526020015f81526020015f81526020015f151581526020015f73ffffffffffffffffffffffffffffffffffffffff1681525090565b5f604051905090565b5f80fd5b5f80fd5b5f819050919050565b61244781612435565b8114612451575f80fd5b50565b5f813590506124628161243e565b92915050565b5f6020828403121561247d5761247c61242d565b5b5f61248a84828501612454565b91505092915050565b5f73ffffffffffffffffffffffffffffffffffffffff82169050919050565b5f6124bc82612493565b9050919050565b6124cc816124b2565b82525050565b6124db81612435565b82525050565b5f8115159050919050565b6124f5816124e1565b82525050565b5f81519050919050565b5f82825260208201905092915050565b5f5b83811015612532578082015181840152602081019050612517565b5f8484015250505050565b5f601f19601f8301169050919050565b5f612557826124fb565b6125618185612505565b9350612571818560208601612515565b61257a8161253d565b840191505092915050565b5f610100820190506125995f83018b6124c3565b6125a6602083018a6124c3565b6125b360408301896124d2565b6125c060608301886124d2565b6125cd60808301876124d2565b6125da60a08301866124ec565b6125e760c08301856124ec565b81810360e08301526125f9818461254d565b90509998505050505050505050565b612611816124e1565b811461261b575f80fd5b50565b5f8135905061262c81612608565b92915050565b5f80604083850312156126485761264761242d565b5b5f61265585828601612454565b92505060206126668582860161261e565b9150509250929050565b5f80fd5b5f80fd5b7f4e487b71000000000000000000000000000000000000000000000000000000005f52604160045260245ffd5b6126ae8261253d565b810181811067ffffffffffffffff821117156126cd576126cc612678565b5b80604052505050565b5f6126df612424565b90506126eb82826126a5565b919050565b5f67ffffffffffffffff82111561270a57612709612678565b5b6127138261253d565b9050602081019050919050565b828183375f83830152505050565b5f61274061273b846126f0565b6126d6565b90508281526020810184848401111561275c5761275b612674565b5b612767848285612720565b509392505050565b5f82601f83011261278357612782612670565b5b813561279384826020860161272e565b91505092915050565b5f805f606084860312156127b3576127b261242d565b5b5f6127c086828701612454565b93505060206127d186828701612454565b925050604084013567ffffffffffffffff8111156127f2576127f1612431565b5b6127fe8682870161276f565b9150509250925092565b612811816124b2565b811461281b575f80fd5b50565b5f8135905061282c81612808565b92915050565b5f805f806080858703121561284a5761284961242d565b5b5f61285787828801612454565b945050602085013567ffffffffffffffff81111561287857612877612431565b5b6128848782880161276f565b935050604085013567ffffffffffffffff8111156128a5576128a4612431565b5b6128b18782880161276f565b92505060606128c28782880161281e565b91505092959194509250565b6128d781612435565b82525050565b5f82825260208201905092915050565b5f6128f7826124fb565b61290181856128dd565b9350612911818560208601612515565b61291a8161253d565b840191505092915050565b61292e816124e1565b82525050565b61293d816124b2565b82525050565b5f61012083015f8301516129595f8601826128ce565b50602083015161296c60208601826128ce565b50604083015161297f60408601826128ce565b506060830151848203606086015261299782826128ed565b915050608083015184820360808601526129b182826128ed565b91505060a08301516129c660a08601826128ce565b5060c08301516129d960c08601826128ce565b5060e08301516129ec60e0860182612925565b50610100830151612a01610100860182612934565b508091505092915050565b5f6020820190508181035f830152612a248184612943565b905092915050565b5f60208284031215612a4157612a4061242d565b5b5f82013567ffffffffffffffff811115612a5e57612a5d612431565b5b612a6a8482850161276f565b91505092915050565b5f602082019050612a865f8301846124ec565b92915050565b5f61012082019050612aa05f83018c6124d2565b612aad602083018b6124d2565b612aba604083018a6124d2565b8181036060830152612acc818961254d565b90508181036080830152612ae0818861254d565b9050612aef60a08301876124d2565b612afc60c08301866124d2565b612b0960e08301856124ec565b612b176101008301846124c3565b9a9950505050505050505050565b5f602082019050612b385f8301846124d2565b92915050565b5f805f805f805f80610100898b031215612b5b57612b5a61242d565b5b5f612b688b828c0161281e565b9850506020612b798b828c0161281e565b9750506040612b8a8b828c01612454565b9650506060612b9b8b828c01612454565b9550506080612bac8b828c01612454565b94505060a0612bbd8b828c0161261e565b93505060c0612bce8b828c0161261e565b92505060e089013567ffffffffffffffff811115612bef57612bee612431565b5b612bfb8b828c0161276f565b9150509295985092959890939650565b7f4e487b71000000000000000000000000000000000000000000000000000000005f52602260045260245ffd5b5f6002820490506001821680612c4f57607f821691505b602082108103612c6257612c61612c0b565b5b50919050565b7f44414f3a4f6e6c792044414f206d656d626572732063616e20706572666f726d5f8201527f207468697320616374696f6e0000000000000000000000000000000000000000602082015250565b5f612cc2602c83612505565b9150612ccd82612c68565b604082019050919050565b5f6020820190508181035f830152612cef81612cb6565b9050919050565b7f44414f3a566f74696e6720706572696f64206973207374696c6c2061637469765f8201527f6500000000000000000000000000000000000000000000000000000000000000602082015250565b5f612d50602183612505565b9150612d5b82612cf6565b604082019050919050565b5f6020820190508181035f830152612d7d81612d44565b9050919050565b7f44414f3a50726f706f73616c20616c72656164792065786563757465640000005f82015250565b5f612db8601d83612505565b9150612dc382612d84565b602082019050919050565b5f6020820190508181035f830152612de581612dac565b9050919050565b5f819050919050565b5f819050919050565b5f612e18612e13612e0e84612dec565b612df5565b612435565b9050919050565b612e2881612dfe565b82525050565b5f602082019050612e415f830184612e1f565b92915050565b5f604082019050612e5a5f8301856124d2565b612e6760208301846124ec565b9392505050565b7f44414f3a4465616c206973206e6f7420636f6d706c65746564000000000000005f82015250565b5f612ea2601983612505565b9150612ead82612e6e565b602082019050919050565b5f6020820190508181035f830152612ecf81612e96565b9050919050565b7f44414f3a4e6f7420617574686f72697a656420746f20726174650000000000005f82015250565b5f612f0a601a83612505565b9150612f1582612ed6565b602082019050919050565b5f6020820190508181035f830152612f3781612efe565b9050919050565b7f44414f3a416c72656164792072617465640000000000000000000000000000005f82015250565b5f612f72601183612505565b9150612f7d82612f3e565b602082019050919050565b5f6020820190508181035f830152612f9f81612f66565b9050919050565b5f819050815f5260205f209050919050565b5f6020601f8301049050919050565b5f82821b905092915050565b5f600883026130027fffffffffffffffffffffffffffffffffffffffffffffffffffffffffffffffff82612fc7565b61300c8683612fc7565b95508019841693508086168417925050509392505050565b5f61303e61303961303484612435565b612df5565b612435565b9050919050565b5f819050919050565b61305783613024565b61306b61306382613045565b848454612fd3565b825550505050565b5f90565b61307f613073565b61308a81848461304e565b505050565b5b818110156130ad576130a25f82613077565b600181019050613090565b5050565b601f8211156130f2576130c381612fa6565b6130cc84612fb8565b810160208510156130db578190505b6130ef6130e785612fb8565b83018261308f565b50505b505050565b5f82821c905092915050565b5f6131125f19846008026130f7565b1980831691505092915050565b5f61312a8383613103565b9150826002028217905092915050565b613143826124fb565b67ffffffffffffffff81111561315c5761315b612678565b5b6131668254612c38565b6131718282856130b1565b5f60209050601f8311600181146131a2575f8415613190578287015190505b61319a858261311f565b865550613201565b601f1984166131b086612fa6565b5f5b828110156131d7578489015182556001820191506020850194506020810190506131b2565b868310156131f457848901516131f0601f891682613103565b8355505b6001600288020188555050505b505050505050565b5f60208201905061321c5f8301846124c3565b92915050565b5f815190506132308161243e565b92915050565b5f6020828403121561324b5761324a61242d565b5b5f61325884828501613222565b91505092915050565b7f4e487b71000000000000000000000000000000000000000000000000000000005f52601160045260245ffd5b5f61329882612435565b91506132a383612435565b92508282039050818111156132bb576132ba613261565b5b92915050565b5f6132cb82612435565b91506132d683612435565b92508282026132e481612435565b915082820484148315176132fb576132fa613261565b5b5092915050565b7f4e487b71000000000000000000000000000000000000000000000000000000005f52601260045260245ffd5b5f61333982612435565b915061334483612435565b92508261335457613353613302565b5b828204905092915050565b5f6060820190506133725f8301866124c3565b61337f60208301856124d2565b61338c60408301846124d2565b949350505050565b5f815190506133a281612608565b92915050565b5f602082840312156133bd576133bc61242d565b5b5f6133ca84828501613394565b91505092915050565b7f44414f3a416c72656164792061206d656d6265720000000000000000000000005f82015250565b5f613407601483612505565b9150613412826133d3565b602082019050919050565b5f6020820190508181035f830152613434816133fb565b9050919050565b7f44414f3a72657075746174696f6e206e6f7420656e6f756774680000000000005f82015250565b5f61346f601a83612505565b915061347a8261343b565b602082019050919050565b5f6020820190508181035f83015261349c81613463565b9050919050565b5f819050919050565b5f6134c66134c16134bc846134a3565b612df5565b612435565b9050919050565b6134d6816134ac565b82525050565b5f6020820190506134ef5f8301846134cd565b92915050565b7f44414f3a4465616c20616c7265616479206469737075746564000000000000005f82015250565b5f613529601983612505565b9150613534826134f5565b602082019050919050565b5f6020820190508181035f8301526135568161351d565b9050919050565b7f44414f3a4e6f7420617574686f72697a656400000000000000000000000000005f82015250565b5f613591601283612505565b915061359c8261355d565b602082019050919050565b5f6020820190508181035f8301526135be81613585565b9050919050565b5f6135cf82612435565b91507fffffffffffffffffffffffffffffffffffffffffffffffffffffffffffffffff820361360157613600613261565b5b600182019050919050565b5f61361682612435565b915061362183612435565b925082820190508082111561363957613638613261565b5b92915050565b5f6060820190506136525f8301866124d2565b8181036020830152613664818561254d565b905061367360408301846124c3565b949350505050565b7f44414f3a566f74696e6720706572696f642068617320656e64656400000000005f82015250565b5f6136af601b83612505565b91506136ba8261367b565b602082019050919050565b5f6020820190508181035f8301526136dc816136a3565b9050919050565b7f44414f3a4469737075746520616c7265616479206578656375746564000000005f82015250565b5f613717601c83612505565b9150613722826136e3565b602082019050919050565b5f6020820190508181035f8301526137448161370b565b9050919050565b5f60608201905061375e5f8301866124d2565b61376b60208301856124c3565b61377860408301846124ec565b949350505050565b7f44414f3a566f74696e6720706572696f64206973206e6f74206f7665720000005f82015250565b5f6137b4601d83612505565b91506137bf82613780565b602082019050919050565b5f6020820190508181035f8301526137e1816137a8565b9050919050565b5f6040820190506137fb5f8301856124c3565b61380860208301846124d2565b9392505050565b50565b5f61381d5f83612505565b91506138288261380f565b5f82019050919050565b5f6020820190508181035f83015261384981613812565b905091905056fea26469706673582212209bafba19dc39ec99d854544d142e84aa44e67e237284a7ac1d270ae0d0c960cb64736f6c63430008160033",
			"opcodes": "PUSH1 0x80 PUSH1 0x40 MSTORE CALLVALUE DUP1 ISZERO PUSH3 0x10 JUMPI PUSH0 DUP1 REVERT JUMPDEST POP PUSH1 0x40 MLOAD PUSH3 0x39FB CODESIZE SUB DUP1 PUSH3 0x39FB DUP4 CODECOPY DUP2 DUP2 ADD PUSH1 0x40 MSTORE DUP2 ADD SWAP1 PUSH3 0x36 SWAP2 SWAP1 PUSH3 0x122 JUMP JUMPDEST DUP2 PUSH0 DUP1 PUSH2 0x100 EXP DUP2 SLOAD DUP2 PUSH20 0xFFFFFFFFFFFFFFFFFFFFFFFFFFFFFFFFFFFFFFFF MUL NOT AND SWAP1 DUP4 PUSH20 0xFFFFFFFFFFFFFFFFFFFFFFFFFFFFFFFFFFFFFFFF AND MUL OR SWAP1 SSTORE POP DUP1 PUSH1 0x1 PUSH0 PUSH2 0x100 EXP DUP2 SLOAD DUP2 PUSH20 0xFFFFFFFFFFFFFFFFFFFFFFFFFFFFFFFFFFFFFFFF MUL NOT AND SWAP1 DUP4 PUSH20 0xFFFFFFFFFFFFFFFFFFFFFFFFFFFFFFFFFFFFFFFF AND MUL OR SWAP1 SSTORE POP POP POP PUSH3 0x167 JUMP JUMPDEST PUSH0 DUP1 REVERT JUMPDEST PUSH0 PUSH20 0xFFFFFFFFFFFFFFFFFFFFFFFFFFFFFFFFFFFFFFFF DUP3 AND SWAP1 POP SWAP2 SWAP1 POP JUMP JUMPDEST PUSH0 PUSH3 0xEC DUP3 PUSH3 0xC1 JUMP JUMPDEST SWAP1 POP SWAP2 SWAP1 POP JUMP JUMPDEST PUSH3 0xFE DUP2 PUSH3 0xE0 JUMP JUMPDEST DUP2 EQ PUSH3 0x109 JUMPI PUSH0 DUP1 REVERT JUMPDEST POP JUMP JUMPDEST PUSH0 DUP2 MLOAD SWAP1 POP PUSH3 0x11C DUP2 PUSH3 0xF3 JUMP JUMPDEST SWAP3 SWAP2 POP POP JUMP JUMPDEST PUSH0 DUP1 PUSH1 0x40 DUP4 DUP6 SUB SLT ISZERO PUSH3 0x13B JUMPI PUSH3 0x13A PUSH3 0xBD JUMP JUMPDEST JUMPDEST PUSH0 PUSH3 0x14A DUP6 DUP3 DUP7 ADD PUSH3 0x10C JUMP JUMPDEST SWAP3 POP POP PUSH1 0x20 PUSH3 0x15D DUP6 DUP3 DUP7 ADD PUSH3 0x10C JUMP JUMPDEST SWAP2 POP POP SWAP3 POP SWAP3 SWAP1 POP JUMP JUMPDEST PUSH2 0x3886 DUP1 PUSH3 0x175 PUSH0 CODECOPY PUSH0 RETURN INVALID PUSH1 0x80 PUSH1 0x40 MSTORE CALLVALUE DUP1 ISZERO PUSH2 0xF JUMPI PUSH0 DUP1 REVERT JUMPDEST POP PUSH1 0x4 CALLDATASIZE LT PUSH2 0x114 JUMPI PUSH0 CALLDATALOAD PUSH1 0xE0 SHR DUP1 PUSH4 0x6B842F7F GT PUSH2 0xA0 JUMPI DUP1 PUSH4 0xC2B7B868 GT PUSH2 0x6F JUMPI DUP1 PUSH4 0xC2B7B868 EQ PUSH2 0x2FB JUMPI DUP1 PUSH4 0xC8AF1D6B EQ PUSH2 0x317 JUMPI DUP1 PUSH4 0xC9D27AFE EQ PUSH2 0x347 JUMPI DUP1 PUSH4 0xD02982CF EQ PUSH2 0x363 JUMPI DUP1 PUSH4 0xDA35C664 EQ PUSH2 0x381 JUMPI PUSH2 0x114 JUMP JUMPDEST DUP1 PUSH4 0x6B842F7F EQ PUSH2 0x261 JUMPI DUP1 PUSH4 0xA28889E1 EQ PUSH2 0x291 JUMPI DUP1 PUSH4 0xA4F5DF12 EQ PUSH2 0x2AF JUMPI DUP1 PUSH4 0xA4F60002 EQ PUSH2 0x2CB JUMPI PUSH2 0x114 JUMP JUMPDEST DUP1 PUSH4 0x4217DF12 GT PUSH2 0xE7 JUMPI DUP1 PUSH4 0x4217DF12 EQ PUSH2 0x1A3 JUMPI DUP1 PUSH4 0x43B32673 EQ PUSH2 0x1AD JUMPI DUP1 PUSH4 0x4406A2FD EQ PUSH2 0x1C9 JUMPI DUP1 PUSH4 0x49C2A1A6 EQ PUSH2 0x1F9 JUMPI DUP1 PUSH4 0x564A565D EQ PUSH2 0x229 JUMPI PUSH2 0x114 JUMP JUMPDEST DUP1 PUSH4 0x3988F84 EQ PUSH2 0x118 JUMPI DUP1 PUSH4 0x3D0A81A EQ PUSH2 0x14F JUMPI DUP1 PUSH4 0xD61B519 EQ PUSH2 0x16B JUMPI DUP1 PUSH4 0x3B22369C EQ PUSH2 0x187 JUMPI JUMPDEST PUSH0 DUP1 REVERT JUMPDEST PUSH2 0x132 PUSH1 0x4 DUP1 CALLDATASIZE SUB DUP2 ADD SWAP1 PUSH2 0x12D SWAP2 SWAP1 PUSH2 0x2468 JUMP JUMPDEST PUSH2 0x39F JUMP JUMPDEST PUSH1 0x40 MLOAD PUSH2 0x146 SWAP9 SWAP8 SWAP7 SWAP6 SWAP5 SWAP4 SWAP3 SWAP2 SWAP1 PUSH2 0x2585 JUMP JUMPDEST PUSH1 0x40 MLOAD DUP1 SWAP2 SUB SWAP1 RETURN JUMPDEST PUSH2 0x169 PUSH1 0x4 DUP1 CALLDATASIZE SUB DUP2 ADD SWAP1 PUSH2 0x164 SWAP2 SWAP1 PUSH2 0x2632 JUMP JUMPDEST PUSH2 0x4C0 JUMP JUMPDEST STOP JUMPDEST PUSH2 0x185 PUSH1 0x4 DUP1 CALLDATASIZE SUB DUP2 ADD SWAP1 PUSH2 0x180 SWAP2 SWAP1 PUSH2 0x2468 JUMP JUMPDEST PUSH2 0x4EC JUMP JUMPDEST STOP JUMPDEST PUSH2 0x1A1 PUSH1 0x4 DUP1 CALLDATASIZE SUB DUP2 ADD SWAP1 PUSH2 0x19C SWAP2 SWAP1 PUSH2 0x279C JUMP JUMPDEST PUSH2 0x718 JUMP JUMPDEST STOP JUMPDEST PUSH2 0x1AB PUSH2 0xDE2 JUMP JUMPDEST STOP JUMPDEST PUSH2 0x1C7 PUSH1 0x4 DUP1 CALLDATASIZE SUB DUP2 ADD SWAP1 PUSH2 0x1C2 SWAP2 SWAP1 PUSH2 0x2832 JUMP JUMPDEST PUSH2 0x1063 JUMP JUMPDEST STOP JUMPDEST PUSH2 0x1E3 PUSH1 0x4 DUP1 CALLDATASIZE SUB DUP2 ADD SWAP1 PUSH2 0x1DE SWAP2 SWAP1 PUSH2 0x2468 JUMP JUMPDEST PUSH2 0x1358 JUMP JUMPDEST PUSH1 0x40 MLOAD PUSH2 0x1F0 SWAP2 SWAP1 PUSH2 0x2A0C JUMP JUMPDEST PUSH1 0x40 MLOAD DUP1 SWAP2 SUB SWAP1 RETURN JUMPDEST PUSH2 0x213 PUSH1 0x4 DUP1 CALLDATASIZE SUB DUP2 ADD SWAP1 PUSH2 0x20E SWAP2 SWAP1 PUSH2 0x2A2C JUMP JUMPDEST PUSH2 0x1545 JUMP JUMPDEST PUSH1 0x40 MLOAD PUSH2 0x220 SWAP2 SWAP1 PUSH2 0x2A73 JUMP JUMPDEST PUSH1 0x40 MLOAD DUP1 SWAP2 SUB SWAP1 RETURN JUMPDEST PUSH2 0x243 PUSH1 0x4 DUP1 CALLDATASIZE SUB DUP2 ADD SWAP1 PUSH2 0x23E SWAP2 SWAP1 PUSH2 0x2468 JUMP JUMPDEST PUSH2 0x172B JUMP JUMPDEST PUSH1 0x40 MLOAD PUSH2 0x258 SWAP10 SWAP9 SWAP8 SWAP7 SWAP6 SWAP5 SWAP4 SWAP3 SWAP2 SWAP1 PUSH2 0x2A8C JUMP JUMPDEST PUSH1 0x40 MLOAD DUP1 SWAP2 SUB SWAP1 RETURN JUMPDEST PUSH2 0x27B PUSH1 0x4 DUP1 CALLDATASIZE SUB DUP2 ADD SWAP1 PUSH2 0x276 SWAP2 SWAP1 PUSH2 0x2468 JUMP JUMPDEST PUSH2 0x18AD JUMP JUMPDEST PUSH1 0x40 MLOAD PUSH2 0x288 SWAP2 SWAP1 PUSH2 0x2A73 JUMP JUMPDEST PUSH1 0x40 MLOAD DUP1 SWAP2 SUB SWAP1 RETURN JUMPDEST PUSH2 0x299 PUSH2 0x18CA JUMP JUMPDEST PUSH1 0x40 MLOAD PUSH2 0x2A6 SWAP2 SWAP1 PUSH2 0x2B25 JUMP JUMPDEST PUSH1 0x40 MLOAD DUP1 SWAP2 SUB SWAP1 RETURN JUMPDEST PUSH2 0x2C9 PUSH1 0x4 DUP1 CALLDATASIZE SUB DUP2 ADD SWAP1 PUSH2 0x2C4 SWAP2 SWAP1 PUSH2 0x2632 JUMP JUMPDEST PUSH2 0x18D0 JUMP JUMPDEST STOP JUMPDEST PUSH2 0x2E5 PUSH1 0x4 DUP1 CALLDATASIZE SUB DUP2 ADD SWAP1 PUSH2 0x2E0 SWAP2 SWAP1 PUSH2 0x2468 JUMP JUMPDEST PUSH2 0x1B3D JUMP JUMPDEST PUSH1 0x40 MLOAD PUSH2 0x2F2 SWAP2 SWAP1 PUSH2 0x2A73 JUMP JUMPDEST PUSH1 0x40 MLOAD DUP1 SWAP2 SUB SWAP1 RETURN JUMPDEST PUSH2 0x315 PUSH1 0x4 DUP1 CALLDATASIZE SUB DUP2 ADD SWAP1 PUSH2 0x310 SWAP2 SWAP1 PUSH2 0x2468 JUMP JUMPDEST PUSH2 0x1B9D JUMP JUMPDEST STOP JUMPDEST PUSH2 0x331 PUSH1 0x4 DUP1 CALLDATASIZE SUB DUP2 ADD SWAP1 PUSH2 0x32C SWAP2 SWAP1 PUSH2 0x2B3E JUMP JUMPDEST PUSH2 0x1F4E JUMP JUMPDEST PUSH1 0x40 MLOAD PUSH2 0x33E SWAP2 SWAP1 PUSH2 0x2A73 JUMP JUMPDEST PUSH1 0x40 MLOAD DUP1 SWAP2 SUB SWAP1 RETURN JUMPDEST PUSH2 0x361 PUSH1 0x4 DUP1 CALLDATASIZE SUB DUP2 ADD SWAP1 PUSH2 0x35C SWAP2 SWAP1 PUSH2 0x2632 JUMP JUMPDEST PUSH2 0x2181 JUMP JUMPDEST STOP JUMPDEST PUSH2 0x36B PUSH2 0x2371 JUMP JUMPDEST PUSH1 0x40 MLOAD PUSH2 0x378 SWAP2 SWAP1 PUSH2 0x2A73 JUMP JUMPDEST PUSH1 0x40 MLOAD DUP1 SWAP2 SUB SWAP1 RETURN JUMPDEST PUSH2 0x389 PUSH2 0x23C1 JUMP JUMPDEST PUSH1 0x40 MLOAD PUSH2 0x396 SWAP2 SWAP1 PUSH2 0x2B25 JUMP JUMPDEST PUSH1 0x40 MLOAD DUP1 SWAP2 SUB SWAP1 RETURN JUMPDEST PUSH1 0x4 PUSH1 0x20 MSTORE DUP1 PUSH0 MSTORE PUSH1 0x40 PUSH0 KECCAK256 PUSH0 SWAP2 POP SWAP1 POP DUP1 PUSH0 ADD PUSH0 SWAP1 SLOAD SWAP1 PUSH2 0x100 EXP SWAP1 DIV PUSH20 0xFFFFFFFFFFFFFFFFFFFFFFFFFFFFFFFFFFFFFFFF AND SWAP1 DUP1 PUSH1 0x1 ADD PUSH0 SWAP1 SLOAD SWAP1 PUSH2 0x100 EXP SWAP1 DIV PUSH20 0xFFFFFFFFFFFFFFFFFFFFFFFFFFFFFFFFFFFFFFFF AND SWAP1 DUP1 PUSH1 0x2 ADD SLOAD SWAP1 DUP1 PUSH1 0x3 ADD SLOAD SWAP1 DUP1 PUSH1 0x4 ADD SLOAD SWAP1 DUP1 PUSH1 0x5 ADD PUSH0 SWAP1 SLOAD SWAP1 PUSH2 0x100 EXP SWAP1 DIV PUSH1 0xFF AND SWAP1 DUP1 PUSH1 0x5 ADD PUSH1 0x1 SWAP1 SLOAD SWAP1 PUSH2 0x100 EXP SWAP1 DIV PUSH1 0xFF AND SWAP1 DUP1 PUSH1 0x6 ADD DUP1 SLOAD PUSH2 0x43F SWAP1 PUSH2 0x2C38 JUMP JUMPDEST DUP1 PUSH1 0x1F ADD PUSH1 0x20 DUP1 SWAP2 DIV MUL PUSH1 0x20 ADD PUSH1 0x40 MLOAD SWAP1 DUP2 ADD PUSH1 0x40 MSTORE DUP1 SWAP3 SWAP2 SWAP1 DUP2 DUP2 MSTORE PUSH1 0x20 ADD DUP3 DUP1 SLOAD PUSH2 0x46B SWAP1 PUSH2 0x2C38 JUMP JUMPDEST DUP1 ISZERO PUSH2 0x4B6 JUMPI DUP1 PUSH1 0x1F LT PUSH2 0x48D JUMPI PUSH2 0x100 DUP1 DUP4 SLOAD DIV MUL DUP4 MSTORE SWAP2 PUSH1 0x20 ADD SWAP2 PUSH2 0x4B6 JUMP JUMPDEST DUP3 ADD SWAP2 SWAP1 PUSH0 MSTORE PUSH1 0x20 PUSH0 KECCAK256 SWAP1 JUMPDEST DUP2 SLOAD DUP2 MSTORE SWAP1 PUSH1 0x1 ADD SWAP1 PUSH1 0x20 ADD DUP1 DUP4 GT PUSH2 0x499 JUMPI DUP3 SWAP1 SUB PUSH1 0x1F AND DUP3 ADD SWAP2 JUMPDEST POP POP POP POP POP SWAP1 POP DUP9 JUMP JUMPDEST DUP1 PUSH1 0x7 PUSH0 DUP5 DUP2 MSTORE PUSH1 0x20 ADD SWAP1 DUP2 MSTORE PUSH1 0x20 ADD PUSH0 KECCAK256 PUSH0 PUSH2 0x100 EXP DUP2 SLOAD DUP2 PUSH1 0xFF MUL NOT AND SWAP1 DUP4 ISZERO ISZERO MUL OR SWAP1 SSTORE POP POP POP JUMP JUMPDEST PUSH1 0x2 PUSH0 ORIGIN PUSH20 0xFFFFFFFFFFFFFFFFFFFFFFFFFFFFFFFFFFFFFFFF AND PUSH20 0xFFFFFFFFFFFFFFFFFFFFFFFFFFFFFFFFFFFFFFFF AND DUP2 MSTORE PUSH1 0x20 ADD SWAP1 DUP2 MSTORE PUSH1 0x20 ADD PUSH0 KECCAK256 PUSH0 SWAP1 SLOAD SWAP1 PUSH2 0x100 EXP SWAP1 DIV PUSH1 0xFF AND PUSH2 0x575 JUMPI PUSH1 0x40 MLOAD PUSH32 0x8C379A000000000000000000000000000000000000000000000000000000000 DUP2 MSTORE PUSH1 0x4 ADD PUSH2 0x56C SWAP1 PUSH2 0x2CD8 JUMP JUMPDEST PUSH1 0x40 MLOAD DUP1 SWAP2 SUB SWAP1 REVERT JUMPDEST PUSH0 PUSH1 0x3 PUSH0 DUP4 DUP2 MSTORE PUSH1 0x20 ADD SWAP1 DUP2 MSTORE PUSH1 0x20 ADD PUSH0 KECCAK256 SWAP1 POP DUP1 PUSH1 0x3 ADD SLOAD TIMESTAMP LT ISZERO PUSH2 0x5D0 JUMPI PUSH1 0x40 MLOAD PUSH32 0x8C379A000000000000000000000000000000000000000000000000000000000 DUP2 MSTORE PUSH1 0x4 ADD PUSH2 0x5C7 SWAP1 PUSH2 0x2D66 JUMP JUMPDEST PUSH1 0x40 MLOAD DUP1 SWAP2 SUB SWAP1 REVERT JUMPDEST DUP1 PUSH1 0x4 ADD PUSH0 SWAP1 SLOAD SWAP1 PUSH2 0x100 EXP SWAP1 DIV PUSH1 0xFF AND ISZERO PUSH2 0x621 JUMPI PUSH1 0x40 MLOAD PUSH32 0x8C379A000000000000000000000000000000000000000000000000000000000 DUP2 MSTORE PUSH1 0x4 ADD PUSH2 0x618 SWAP1 PUSH2 0x2DCE JUMP JUMPDEST PUSH1 0x40 MLOAD DUP1 SWAP2 SUB SWAP1 REVERT JUMPDEST PUSH0 DUP2 PUSH1 0x2 ADD SLOAD DUP3 PUSH1 0x1 ADD SLOAD GT SWAP1 POP PUSH1 0x1 DUP3 PUSH1 0x4 ADD PUSH0 PUSH2 0x100 EXP DUP2 SLOAD DUP2 PUSH1 0xFF MUL NOT AND SWAP1 DUP4 ISZERO ISZERO MUL OR SWAP1 SSTORE POP PUSH1 0x1 PUSH0 SWAP1 SLOAD SWAP1 PUSH2 0x100 EXP SWAP1 DIV PUSH20 0xFFFFFFFFFFFFFFFFFFFFFFFFFFFFFFFFFFFFFFFF AND PUSH20 0xFFFFFFFFFFFFFFFFFFFFFFFFFFFFFFFFFFFFFFFF AND PUSH4 0xA0712D68 PUSH8 0x1BC16D674EC80000 PUSH1 0x40 MLOAD DUP3 PUSH4 0xFFFFFFFF AND PUSH1 0xE0 SHL DUP2 MSTORE PUSH1 0x4 ADD PUSH2 0x6AD SWAP2 SWAP1 PUSH2 0x2E2E JUMP JUMPDEST PUSH0 PUSH1 0x40 MLOAD DUP1 DUP4 SUB DUP2 PUSH0 DUP8 DUP1 EXTCODESIZE ISZERO DUP1 ISZERO PUSH2 0x6C4 JUMPI PUSH0 DUP1 REVERT JUMPDEST POP GAS CALL ISZERO DUP1 ISZERO PUSH2 0x6D6 JUMPI RETURNDATASIZE PUSH0 DUP1 RETURNDATACOPY RETURNDATASIZE PUSH0 REVERT JUMPDEST POP POP POP POP PUSH32 0x948F4A9CD986F1118C3FBD459F7A22B23C0693E1CA3EF06A6A8BE5AA7D39CC03 DUP4 DUP3 PUSH1 0x40 MLOAD PUSH2 0x70B SWAP3 SWAP2 SWAP1 PUSH2 0x2E47 JUMP JUMPDEST PUSH1 0x40 MLOAD DUP1 SWAP2 SUB SWAP1 LOG1 POP POP POP JUMP JUMPDEST PUSH0 PUSH1 0x4 PUSH0 DUP6 DUP2 MSTORE PUSH1 0x20 ADD SWAP1 DUP2 MSTORE PUSH1 0x20 ADD PUSH0 KECCAK256 SWAP1 POP DUP1 PUSH1 0x5 ADD PUSH0 SWAP1 SLOAD SWAP1 PUSH2 0x100 EXP SWAP1 DIV PUSH1 0xFF AND PUSH2 0x77C JUMPI PUSH1 0x40 MLOAD PUSH32 0x8C379A000000000000000000000000000000000000000000000000000000000 DUP2 MSTORE PUSH1 0x4 ADD PUSH2 0x773 SWAP1 PUSH2 0x2EB8 JUMP JUMPDEST PUSH1 0x40 MLOAD DUP1 SWAP2 SUB SWAP1 REVERT JUMPDEST DUP1 PUSH0 ADD PUSH0 SWAP1 SLOAD SWAP1 PUSH2 0x100 EXP SWAP1 DIV PUSH20 0xFFFFFFFFFFFFFFFFFFFFFFFFFFFFFFFFFFFFFFFF AND PUSH20 0xFFFFFFFFFFFFFFFFFFFFFFFFFFFFFFFFFFFFFFFF AND ORIGIN PUSH20 0xFFFFFFFFFFFFFFFFFFFFFFFFFFFFFFFFFFFFFFFF AND EQ DUP1 PUSH2 0x826 JUMPI POP DUP1 PUSH1 0x1 ADD PUSH0 SWAP1 SLOAD SWAP1 PUSH2 0x100 EXP SWAP1 DIV PUSH20 0xFFFFFFFFFFFFFFFFFFFFFFFFFFFFFFFFFFFFFFFF AND PUSH20 0xFFFFFFFFFFFFFFFFFFFFFFFFFFFFFFFFFFFFFFFF AND ORIGIN PUSH20 0xFFFFFFFFFFFFFFFFFFFFFFFFFFFFFFFFFFFFFFFF AND EQ JUMPDEST PUSH2 0x865 JUMPI PUSH1 0x40 MLOAD PUSH32 0x8C379A000000000000000000000000000000000000000000000000000000000 DUP2 MSTORE PUSH1 0x4 ADD PUSH2 0x85C SWAP1 PUSH2 0x2F20 JUMP JUMPDEST PUSH1 0x40 MLOAD DUP1 SWAP2 SUB SWAP1 REVERT JUMPDEST PUSH1 0x6 PUSH0 DUP6 DUP2 MSTORE PUSH1 0x20 ADD SWAP1 DUP2 MSTORE PUSH1 0x20 ADD PUSH0 KECCAK256 PUSH0 ORIGIN PUSH20 0xFFFFFFFFFFFFFFFFFFFFFFFFFFFFFFFFFFFFFFFF AND PUSH20 0xFFFFFFFFFFFFFFFFFFFFFFFFFFFFFFFFFFFFFFFF AND DUP2 MSTORE PUSH1 0x20 ADD SWAP1 DUP2 MSTORE PUSH1 0x20 ADD PUSH0 KECCAK256 PUSH1 0x2 ADD PUSH0 SWAP1 SLOAD SWAP1 PUSH2 0x100 EXP SWAP1 DIV PUSH1 0xFF AND ISZERO PUSH2 0x901 JUMPI PUSH1 0x40 MLOAD PUSH32 0x8C379A000000000000000000000000000000000000000000000000000000000 DUP2 MSTORE PUSH1 0x4 ADD PUSH2 0x8F8 SWAP1 PUSH2 0x2F88 JUMP JUMPDEST PUSH1 0x40 MLOAD DUP1 SWAP2 SUB SWAP1 REVERT JUMPDEST PUSH0 DUP2 PUSH0 ADD PUSH0 SWAP1 SLOAD SWAP1 PUSH2 0x100 EXP SWAP1 DIV PUSH20 0xFFFFFFFFFFFFFFFFFFFFFFFFFFFFFFFFFFFFFFFF AND PUSH20 0xFFFFFFFFFFFFFFFFFFFFFFFFFFFFFFFFFFFFFFFF AND ORIGIN PUSH20 0xFFFFFFFFFFFFFFFFFFFFFFFFFFFFFFFFFFFFFFFF AND EQ PUSH2 0x97F JUMPI DUP2 PUSH0 ADD PUSH0 SWAP1 SLOAD SWAP1 PUSH2 0x100 EXP SWAP1 DIV PUSH20 0xFFFFFFFFFFFFFFFFFFFFFFFFFFFFFFFFFFFFFFFF AND PUSH2 0x9A4 JUMP JUMPDEST DUP2 PUSH1 0x1 ADD PUSH0 SWAP1 SLOAD SWAP1 PUSH2 0x100 EXP SWAP1 DIV PUSH20 0xFFFFFFFFFFFFFFFFFFFFFFFFFFFFFFFFFFFFFFFF AND JUMPDEST SWAP1 POP PUSH1 0x1 PUSH1 0x6 PUSH0 DUP8 DUP2 MSTORE PUSH1 0x20 ADD SWAP1 DUP2 MSTORE PUSH1 0x20 ADD PUSH0 KECCAK256 PUSH0 ORIGIN PUSH20 0xFFFFFFFFFFFFFFFFFFFFFFFFFFFFFFFFFFFFFFFF AND PUSH20 0xFFFFFFFFFFFFFFFFFFFFFFFFFFFFFFFFFFFFFFFF AND DUP2 MSTORE PUSH1 0x20 ADD SWAP1 DUP2 MSTORE PUSH1 0x20 ADD PUSH0 KECCAK256 PUSH1 0x2 ADD PUSH0 PUSH2 0x100 EXP DUP2 SLOAD DUP2 PUSH1 0xFF MUL NOT AND SWAP1 DUP4 ISZERO ISZERO MUL OR SWAP1 SSTORE POP DUP3 PUSH1 0x6 PUSH0 DUP8 DUP2 MSTORE PUSH1 0x20 ADD SWAP1 DUP2 MSTORE PUSH1 0x20 ADD PUSH0 KECCAK256 PUSH0 DUP4 PUSH20 0xFFFFFFFFFFFFFFFFFFFFFFFFFFFFFFFFFFFFFFFF AND PUSH20 0xFFFFFFFFFFFFFFFFFFFFFFFFFFFFFFFFFFFFFFFF AND DUP2 MSTORE PUSH1 0x20 ADD SWAP1 DUP2 MSTORE PUSH1 0x20 ADD PUSH0 KECCAK256 PUSH1 0x1 ADD SWAP1 DUP2 PUSH2 0xA69 SWAP2 SWAP1 PUSH2 0x313A JUMP JUMPDEST POP DUP4 PUSH1 0x6 PUSH0 DUP8 DUP2 MSTORE PUSH1 0x20 ADD SWAP1 DUP2 MSTORE PUSH1 0x20 ADD PUSH0 KECCAK256 PUSH0 DUP4 PUSH20 0xFFFFFFFFFFFFFFFFFFFFFFFFFFFFFFFFFFFFFFFF AND PUSH20 0xFFFFFFFFFFFFFFFFFFFFFFFFFFFFFFFFFFFFFFFF AND DUP2 MSTORE PUSH1 0x20 ADD SWAP1 DUP2 MSTORE PUSH1 0x20 ADD PUSH0 KECCAK256 PUSH0 ADD DUP2 SWAP1 SSTORE POP PUSH0 DUP1 PUSH0 SWAP1 SLOAD SWAP1 PUSH2 0x100 EXP SWAP1 DIV PUSH20 0xFFFFFFFFFFFFFFFFFFFFFFFFFFFFFFFFFFFFFFFF AND PUSH20 0xFFFFFFFFFFFFFFFFFFFFFFFFFFFFFFFFFFFFFFFF AND PUSH4 0xBACCBFDB DUP4 PUSH1 0x40 MLOAD DUP3 PUSH4 0xFFFFFFFF AND PUSH1 0xE0 SHL DUP2 MSTORE PUSH1 0x4 ADD PUSH2 0xB17 SWAP2 SWAP1 PUSH2 0x3209 JUMP JUMPDEST PUSH1 0x20 PUSH1 0x40 MLOAD DUP1 DUP4 SUB DUP2 DUP7 GAS STATICCALL ISZERO DUP1 ISZERO PUSH2 0xB32 JUMPI RETURNDATASIZE PUSH0 DUP1 RETURNDATACOPY RETURNDATASIZE PUSH0 REVERT JUMPDEST POP POP POP POP PUSH1 0x40 MLOAD RETURNDATASIZE PUSH1 0x1F NOT PUSH1 0x1F DUP3 ADD AND DUP3 ADD DUP1 PUSH1 0x40 MSTORE POP DUP2 ADD SWAP1 PUSH2 0xB56 SWAP2 SWAP1 PUSH2 0x3236 JUMP JUMPDEST SWAP1 POP PUSH0 PUSH1 0x4 PUSH0 DUP9 DUP2 MSTORE PUSH1 0x20 ADD SWAP1 DUP2 MSTORE PUSH1 0x20 ADD PUSH0 KECCAK256 PUSH1 0x3 ADD SLOAD SWAP1 POP PUSH0 PUSH1 0x4 PUSH0 DUP10 DUP2 MSTORE PUSH1 0x20 ADD SWAP1 DUP2 MSTORE PUSH1 0x20 ADD PUSH0 KECCAK256 PUSH1 0x4 ADD SLOAD SWAP1 POP PUSH1 0x5A DUP8 LT PUSH2 0xC55 JUMPI PUSH0 DUP1 SLOAD SWAP1 PUSH2 0x100 EXP SWAP1 DIV PUSH20 0xFFFFFFFFFFFFFFFFFFFFFFFFFFFFFFFFFFFFFFFF AND PUSH20 0xFFFFFFFFFFFFFFFFFFFFFFFFFFFFFFFFFFFFFFFF AND PUSH4 0x5C0E5F88 DUP6 DUP6 PUSH1 0x3C DUP7 DUP7 PUSH2 0xBDB SWAP2 SWAP1 PUSH2 0x328E JUMP JUMPDEST PUSH1 0x2 PUSH2 0xBE7 SWAP2 SWAP1 PUSH2 0x32C1 JUMP JUMPDEST PUSH2 0xBF1 SWAP2 SWAP1 PUSH2 0x332F JUMP JUMPDEST PUSH1 0x40 MLOAD DUP5 PUSH4 0xFFFFFFFF AND PUSH1 0xE0 SHL DUP2 MSTORE PUSH1 0x4 ADD PUSH2 0xC0F SWAP4 SWAP3 SWAP2 SWAP1 PUSH2 0x335F JUMP JUMPDEST PUSH1 0x20 PUSH1 0x40 MLOAD DUP1 DUP4 SUB DUP2 PUSH0 DUP8 GAS CALL ISZERO DUP1 ISZERO PUSH2 0xC2B JUMPI RETURNDATASIZE PUSH0 DUP1 RETURNDATACOPY RETURNDATASIZE PUSH0 REVERT JUMPDEST POP POP POP POP PUSH1 0x40 MLOAD RETURNDATASIZE PUSH1 0x1F NOT PUSH1 0x1F DUP3 ADD AND DUP3 ADD DUP1 PUSH1 0x40 MSTORE POP DUP2 ADD SWAP1 PUSH2 0xC4F SWAP2 SWAP1 PUSH2 0x33A8 JUMP JUMPDEST POP PUSH2 0xDD8 JUMP JUMPDEST PUSH1 0x3C DUP8 LT PUSH2 0xD16 JUMPI PUSH0 DUP1 SLOAD SWAP1 PUSH2 0x100 EXP SWAP1 DIV PUSH20 0xFFFFFFFFFFFFFFFFFFFFFFFFFFFFFFFFFFFFFFFF AND PUSH20 0xFFFFFFFFFFFFFFFFFFFFFFFFFFFFFFFFFFFFFFFF AND PUSH4 0x5C0E5F88 DUP6 DUP6 PUSH1 0x3C DUP7 DUP7 PUSH2 0xCA8 SWAP2 SWAP1 PUSH2 0x328E JUMP JUMPDEST PUSH2 0xCB2 SWAP2 SWAP1 PUSH2 0x332F JUMP JUMPDEST PUSH1 0x40 MLOAD DUP5 PUSH4 0xFFFFFFFF AND PUSH1 0xE0 SHL DUP2 MSTORE PUSH1 0x4 ADD PUSH2 0xCD0 SWAP4 SWAP3 SWAP2 SWAP1 PUSH2 0x335F JUMP JUMPDEST PUSH1 0x20 PUSH1 0x40 MLOAD DUP1 DUP4 SUB DUP2 PUSH0 DUP8 GAS CALL ISZERO DUP1 ISZERO PUSH2 0xCEC JUMPI RETURNDATASIZE PUSH0 DUP1 RETURNDATACOPY RETURNDATASIZE PUSH0 REVERT JUMPDEST POP POP POP POP PUSH1 0x40 MLOAD RETURNDATASIZE PUSH1 0x1F NOT PUSH1 0x1F DUP3 ADD AND DUP3 ADD DUP1 PUSH1 0x40 MSTORE POP DUP2 ADD SWAP1 PUSH2 0xD10 SWAP2 SWAP1 PUSH2 0x33A8 JUMP JUMPDEST POP PUSH2 0xDD7 JUMP JUMPDEST PUSH0 DUP1 SLOAD SWAP1 PUSH2 0x100 EXP SWAP1 DIV PUSH20 0xFFFFFFFFFFFFFFFFFFFFFFFFFFFFFFFFFFFFFFFF AND PUSH20 0xFFFFFFFFFFFFFFFFFFFFFFFFFFFFFFFFFFFFFFFF AND PUSH4 0x5C0E5F88 DUP6 DUP6 PUSH1 0x3C DUP7 PUSH1 0x2 PUSH2 0xD62 SWAP2 SWAP1 PUSH2 0x32C1 JUMP JUMPDEST DUP7 PUSH2 0xD6D SWAP2 SWAP1 PUSH2 0x328E JUMP JUMPDEST PUSH2 0xD77 SWAP2 SWAP1 PUSH2 0x332F JUMP JUMPDEST PUSH1 0x40 MLOAD DUP5 PUSH4 0xFFFFFFFF AND PUSH1 0xE0 SHL DUP2 MSTORE PUSH1 0x4 ADD PUSH2 0xD95 SWAP4 SWAP3 SWAP2 SWAP1 PUSH2 0x335F JUMP JUMPDEST PUSH1 0x20 PUSH1 0x40 MLOAD DUP1 DUP4 SUB DUP2 PUSH0 DUP8 GAS CALL ISZERO DUP1 ISZERO PUSH2 0xDB1 JUMPI RETURNDATASIZE PUSH0 DUP1 RETURNDATACOPY RETURNDATASIZE PUSH0 REVERT JUMPDEST POP POP POP POP PUSH1 0x40 MLOAD RETURNDATASIZE PUSH1 0x1F NOT PUSH1 0x1F DUP3 ADD AND DUP3 ADD DUP1 PUSH1 0x40 MSTORE POP DUP2 ADD SWAP1 PUSH2 0xDD5 SWAP2 SWAP1 PUSH2 0x33A8 JUMP JUMPDEST POP JUMPDEST JUMPDEST POP POP POP POP POP POP POP POP JUMP JUMPDEST PUSH1 0x2 PUSH0 ORIGIN PUSH20 0xFFFFFFFFFFFFFFFFFFFFFFFFFFFFFFFFFFFFFFFF AND PUSH20 0xFFFFFFFFFFFFFFFFFFFFFFFFFFFFFFFFFFFFFFFF AND DUP2 MSTORE PUSH1 0x20 ADD SWAP1 DUP2 MSTORE PUSH1 0x20 ADD PUSH0 KECCAK256 PUSH0 SWAP1 SLOAD SWAP1 PUSH2 0x100 EXP SWAP1 DIV PUSH1 0xFF AND ISZERO PUSH2 0xE6C JUMPI PUSH1 0x40 MLOAD PUSH32 0x8C379A000000000000000000000000000000000000000000000000000000000 DUP2 MSTORE PUSH1 0x4 ADD PUSH2 0xE63 SWAP1 PUSH2 0x341D JUMP JUMPDEST PUSH1 0x40 MLOAD DUP1 SWAP2 SUB SWAP1 REVERT JUMPDEST PUSH1 0x5A PUSH0 DUP1 SLOAD SWAP1 PUSH2 0x100 EXP SWAP1 DIV PUSH20 0xFFFFFFFFFFFFFFFFFFFFFFFFFFFFFFFFFFFFFFFF AND PUSH20 0xFFFFFFFFFFFFFFFFFFFFFFFFFFFFFFFFFFFFFFFF AND PUSH4 0xBACCBFDB ORIGIN PUSH1 0x40 MLOAD DUP3 PUSH4 0xFFFFFFFF AND PUSH1 0xE0 SHL DUP2 MSTORE PUSH1 0x4 ADD PUSH2 0xEC6 SWAP2 SWAP1 PUSH2 0x3209 JUMP JUMPDEST PUSH1 0x20 PUSH1 0x40 MLOAD DUP1 DUP4 SUB DUP2 DUP7 GAS STATICCALL ISZERO DUP1 ISZERO PUSH2 0xEE1 JUMPI RETURNDATASIZE PUSH0 DUP1 RETURNDATACOPY RETURNDATASIZE PUSH0 REVERT JUMPDEST POP POP POP POP PUSH1 0x40 MLOAD RETURNDATASIZE PUSH1 0x1F NOT PUSH1 0x1F DUP3 ADD AND DUP3 ADD DUP1 PUSH1 0x40 MSTORE POP DUP2 ADD SWAP1 PUSH2 0xF05 SWAP2 SWAP1 PUSH2 0x3236 JUMP JUMPDEST LT ISZERO PUSH2 0xF46 JUMPI PUSH1 0x40 MLOAD PUSH32 0x8C379A000000000000000000000000000000000000000000000000000000000 DUP2 MSTORE PUSH1 0x4 ADD PUSH2 0xF3D SWAP1 PUSH2 0x3485 JUMP JUMPDEST PUSH1 0x40 MLOAD DUP1 SWAP2 SUB SWAP1 REVERT JUMPDEST PUSH1 0x1 PUSH1 0x2 PUSH0 ORIGIN PUSH20 0xFFFFFFFFFFFFFFFFFFFFFFFFFFFFFFFFFFFFFFFF AND PUSH20 0xFFFFFFFFFFFFFFFFFFFFFFFFFFFFFFFFFFFFFFFF AND DUP2 MSTORE PUSH1 0x20 ADD SWAP1 DUP2 MSTORE PUSH1 0x20 ADD PUSH0 KECCAK256 PUSH0 PUSH2 0x100 EXP DUP2 SLOAD DUP2 PUSH1 0xFF MUL NOT AND SWAP1 DUP4 ISZERO ISZERO MUL OR SWAP1 SSTORE POP PUSH1 0x1 PUSH0 SWAP1 SLOAD SWAP1 PUSH2 0x100 EXP SWAP1 DIV PUSH20 0xFFFFFFFFFFFFFFFFFFFFFFFFFFFFFFFFFFFFFFFF AND PUSH20 0xFFFFFFFFFFFFFFFFFFFFFFFFFFFFFFFFFFFFFFFF AND PUSH4 0xA0712D68 PUSH8 0xDE0B6B3A7640000 PUSH1 0x40 MLOAD DUP3 PUSH4 0xFFFFFFFF AND PUSH1 0xE0 SHL DUP2 MSTORE PUSH1 0x4 ADD PUSH2 0xFFD SWAP2 SWAP1 PUSH2 0x34DC JUMP JUMPDEST PUSH0 PUSH1 0x40 MLOAD DUP1 DUP4 SUB DUP2 PUSH0 DUP8 DUP1 EXTCODESIZE ISZERO DUP1 ISZERO PUSH2 0x1014 JUMPI PUSH0 DUP1 REVERT JUMPDEST POP GAS CALL ISZERO DUP1 ISZERO PUSH2 0x1026 JUMPI RETURNDATASIZE PUSH0 DUP1 RETURNDATACOPY RETURNDATASIZE PUSH0 REVERT JUMPDEST POP POP POP POP PUSH32 0x92FABFA210DF88D92C2F5A07DDD43A985B208D8B19B7A78BA1284AA4B287D862 CALLER PUSH1 0x40 MLOAD PUSH2 0x1059 SWAP2 SWAP1 PUSH2 0x3209 JUMP JUMPDEST PUSH1 0x40 MLOAD DUP1 SWAP2 SUB SWAP1 LOG1 JUMP JUMPDEST PUSH1 0x4 PUSH0 DUP6 DUP2 MSTORE PUSH1 0x20 ADD SWAP1 DUP2 MSTORE PUSH1 0x20 ADD PUSH0 KECCAK256 PUSH1 0x5 ADD PUSH1 0x1 SWAP1 SLOAD SWAP1 PUSH2 0x100 EXP SWAP1 DIV PUSH1 0xFF AND ISZERO PUSH2 0x10C5 JUMPI PUSH1 0x40 MLOAD PUSH32 0x8C379A000000000000000000000000000000000000000000000000000000000 DUP2 MSTORE PUSH1 0x4 ADD PUSH2 0x10BC SWAP1 PUSH2 0x353F JUMP JUMPDEST PUSH1 0x40 MLOAD DUP1 SWAP2 SUB SWAP1 REVERT JUMPDEST ORIGIN PUSH20 0xFFFFFFFFFFFFFFFFFFFFFFFFFFFFFFFFFFFFFFFF AND PUSH1 0x4 PUSH0 DUP7 DUP2 MSTORE PUSH1 0x20 ADD SWAP1 DUP2 MSTORE PUSH1 0x20 ADD PUSH0 KECCAK256 PUSH0 ADD PUSH0 SWAP1 SLOAD SWAP1 PUSH2 0x100 EXP SWAP1 DIV PUSH20 0xFFFFFFFFFFFFFFFFFFFFFFFFFFFFFFFFFFFFFFFF AND PUSH20 0xFFFFFFFFFFFFFFFFFFFFFFFFFFFFFFFFFFFFFFFF AND EQ DUP1 PUSH2 0x118F JUMPI POP ORIGIN PUSH20 0xFFFFFFFFFFFFFFFFFFFFFFFFFFFFFFFFFFFFFFFF AND PUSH1 0x4 PUSH0 DUP7 DUP2 MSTORE PUSH1 0x20 ADD SWAP1 DUP2 MSTORE PUSH1 0x20 ADD PUSH0 KECCAK256 PUSH1 0x1 ADD PUSH0 SWAP1 SLOAD SWAP1 PUSH2 0x100 EXP SWAP1 DIV PUSH20 0xFFFFFFFFFFFFFFFFFFFFFFFFFFFFFFFFFFFFFFFF AND PUSH20 0xFFFFFFFFFFFFFFFFFFFFFFFFFFFFFFFFFFFFFFFF AND EQ JUMPDEST PUSH2 0x11CE JUMPI PUSH1 0x40 MLOAD PUSH32 0x8C379A000000000000000000000000000000000000000000000000000000000 DUP2 MSTORE PUSH1 0x4 ADD PUSH2 0x11C5 SWAP1 PUSH2 0x35A7 JUMP JUMPDEST PUSH1 0x40 MLOAD DUP1 SWAP2 SUB SWAP1 REVERT JUMPDEST PUSH1 0x9 PUSH0 DUP2 SLOAD DUP1 SWAP3 SWAP2 SWAP1 PUSH2 0x11E0 SWAP1 PUSH2 0x35C5 JUMP JUMPDEST SWAP2 SWAP1 POP SSTORE POP PUSH1 0x40 MLOAD DUP1 PUSH2 0x120 ADD PUSH1 0x40 MSTORE DUP1 PUSH1 0x9 SLOAD DUP2 MSTORE PUSH1 0x20 ADD DUP6 DUP2 MSTORE PUSH1 0x20 ADD PUSH2 0x12C TIMESTAMP PUSH2 0x120D SWAP2 SWAP1 PUSH2 0x360C JUMP JUMPDEST DUP2 MSTORE PUSH1 0x20 ADD DUP5 DUP2 MSTORE PUSH1 0x20 ADD DUP4 DUP2 MSTORE PUSH1 0x20 ADD PUSH0 DUP2 MSTORE PUSH1 0x20 ADD PUSH0 DUP2 MSTORE PUSH1 0x20 ADD PUSH0 ISZERO ISZERO DUP2 MSTORE PUSH1 0x20 ADD DUP3 PUSH20 0xFFFFFFFFFFFFFFFFFFFFFFFFFFFFFFFFFFFFFFFF AND DUP2 MSTORE POP PUSH1 0x5 PUSH0 PUSH1 0x9 SLOAD DUP2 MSTORE PUSH1 0x20 ADD SWAP1 DUP2 MSTORE PUSH1 0x20 ADD PUSH0 KECCAK256 PUSH0 DUP3 ADD MLOAD DUP2 PUSH0 ADD SSTORE PUSH1 0x20 DUP3 ADD MLOAD DUP2 PUSH1 0x1 ADD SSTORE PUSH1 0x40 DUP3 ADD MLOAD DUP2 PUSH1 0x2 ADD SSTORE PUSH1 0x60 DUP3 ADD MLOAD DUP2 PUSH1 0x3 ADD SWAP1 DUP2 PUSH2 0x1290 SWAP2 SWAP1 PUSH2 0x313A JUMP JUMPDEST POP PUSH1 0x80 DUP3 ADD MLOAD DUP2 PUSH1 0x4 ADD SWAP1 DUP2 PUSH2 0x12A6 SWAP2 SWAP1 PUSH2 0x313A JUMP JUMPDEST POP PUSH1 0xA0 DUP3 ADD MLOAD DUP2 PUSH1 0x5 ADD SSTORE PUSH1 0xC0 DUP3 ADD MLOAD DUP2 PUSH1 0x6 ADD SSTORE PUSH1 0xE0 DUP3 ADD MLOAD DUP2 PUSH1 0x7 ADD PUSH0 PUSH2 0x100 EXP DUP2 SLOAD DUP2 PUSH1 0xFF MUL NOT AND SWAP1 DUP4 ISZERO ISZERO MUL OR SWAP1 SSTORE POP PUSH2 0x100 DUP3 ADD MLOAD DUP2 PUSH1 0x7 ADD PUSH1 0x1 PUSH2 0x100 EXP DUP2 SLOAD DUP2 PUSH20 0xFFFFFFFFFFFFFFFFFFFFFFFFFFFFFFFFFFFFFFFF MUL NOT AND SWAP1 DUP4 PUSH20 0xFFFFFFFFFFFFFFFFFFFFFFFFFFFFFFFFFFFFFFFF AND MUL OR SWAP1 SSTORE POP SWAP1 POP POP PUSH1 0x1 PUSH1 0x4 PUSH0 DUP7 DUP2 MSTORE PUSH1 0x20 ADD SWAP1 DUP2 MSTORE PUSH1 0x20 ADD PUSH0 KECCAK256 PUSH1 0x5 ADD PUSH1 0x1 PUSH2 0x100 EXP DUP2 SLOAD DUP2 PUSH1 0xFF MUL NOT AND SWAP1 DUP4 ISZERO ISZERO MUL OR SWAP1 SSTORE POP POP POP POP POP JUMP JUMPDEST PUSH2 0x1360 PUSH2 0x23C7 JUMP JUMPDEST PUSH1 0x5 PUSH0 DUP4 DUP2 MSTORE PUSH1 0x20 ADD SWAP1 DUP2 MSTORE PUSH1 0x20 ADD PUSH0 KECCAK256 PUSH1 0x40 MLOAD DUP1 PUSH2 0x120 ADD PUSH1 0x40 MSTORE SWAP1 DUP2 PUSH0 DUP3 ADD SLOAD DUP2 MSTORE PUSH1 0x20 ADD PUSH1 0x1 DUP3 ADD SLOAD DUP2 MSTORE PUSH1 0x20 ADD PUSH1 0x2 DUP3 ADD SLOAD DUP2 MSTORE PUSH1 0x20 ADD PUSH1 0x3 DUP3 ADD DUP1 SLOAD PUSH2 0x13AA SWAP1 PUSH2 0x2C38 JUMP JUMPDEST DUP1 PUSH1 0x1F ADD PUSH1 0x20 DUP1 SWAP2 DIV MUL PUSH1 0x20 ADD PUSH1 0x40 MLOAD SWAP1 DUP2 ADD PUSH1 0x40 MSTORE DUP1 SWAP3 SWAP2 SWAP1 DUP2 DUP2 MSTORE PUSH1 0x20 ADD DUP3 DUP1 SLOAD PUSH2 0x13D6 SWAP1 PUSH2 0x2C38 JUMP JUMPDEST DUP1 ISZERO PUSH2 0x1421 JUMPI DUP1 PUSH1 0x1F LT PUSH2 0x13F8 JUMPI PUSH2 0x100 DUP1 DUP4 SLOAD DIV MUL DUP4 MSTORE SWAP2 PUSH1 0x20 ADD SWAP2 PUSH2 0x1421 JUMP JUMPDEST DUP3 ADD SWAP2 SWAP1 PUSH0 MSTORE PUSH1 0x20 PUSH0 KECCAK256 SWAP1 JUMPDEST DUP2 SLOAD DUP2 MSTORE SWAP1 PUSH1 0x1 ADD SWAP1 PUSH1 0x20 ADD DUP1 DUP4 GT PUSH2 0x1404 JUMPI DUP3 SWAP1 SUB PUSH1 0x1F AND DUP3 ADD SWAP2 JUMPDEST POP POP POP POP POP DUP2 MSTORE PUSH1 0x20 ADD PUSH1 0x4 DUP3 ADD DUP1 SLOAD PUSH2 0x143A SWAP1 PUSH2 0x2C38 JUMP JUMPDEST DUP1 PUSH1 0x1F ADD PUSH1 0x20 DUP1 SWAP2 DIV MUL PUSH1 0x20 ADD PUSH1 0x40 MLOAD SWAP1 DUP2 ADD PUSH1 0x40 MSTORE DUP1 SWAP3 SWAP2 SWAP1 DUP2 DUP2 MSTORE PUSH1 0x20 ADD DUP3 DUP1 SLOAD PUSH2 0x1466 SWAP1 PUSH2 0x2C38 JUMP JUMPDEST DUP1 ISZERO PUSH2 0x14B1 JUMPI DUP1 PUSH1 0x1F LT PUSH2 0x1488 JUMPI PUSH2 0x100 DUP1 DUP4 SLOAD DIV MUL DUP4 MSTORE SWAP2 PUSH1 0x20 ADD SWAP2 PUSH2 0x14B1 JUMP JUMPDEST DUP3 ADD SWAP2 SWAP1 PUSH0 MSTORE PUSH1 0x20 PUSH0 KECCAK256 SWAP1 JUMPDEST DUP2 SLOAD DUP2 MSTORE SWAP1 PUSH1 0x1 ADD SWAP1 PUSH1 0x20 ADD DUP1 DUP4 GT PUSH2 0x1494 JUMPI DUP3 SWAP1 SUB PUSH1 0x1F AND DUP3 ADD SWAP2 JUMPDEST POP POP POP POP POP DUP2 MSTORE PUSH1 0x20 ADD PUSH1 0x5 DUP3 ADD SLOAD DUP2 MSTORE PUSH1 0x20 ADD PUSH1 0x6 DUP3 ADD SLOAD DUP2 MSTORE PUSH1 0x20 ADD PUSH1 0x7 DUP3 ADD PUSH0 SWAP1 SLOAD SWAP1 PUSH2 0x100 EXP SWAP1 DIV PUSH1 0xFF AND ISZERO ISZERO ISZERO ISZERO DUP2 MSTORE PUSH1 0x20 ADD PUSH1 0x7 DUP3 ADD PUSH1 0x1 SWAP1 SLOAD SWAP1 PUSH2 0x100 EXP SWAP1 DIV PUSH20 0xFFFFFFFFFFFFFFFFFFFFFFFFFFFFFFFFFFFFFFFF AND PUSH20 0xFFFFFFFFFFFFFFFFFFFFFFFFFFFFFFFFFFFFFFFF AND PUSH20 0xFFFFFFFFFFFFFFFFFFFFFFFFFFFFFFFFFFFFFFFF AND DUP2 MSTORE POP POP SWAP1 POP SWAP2 SWAP1 POP JUMP JUMPDEST PUSH0 PUSH1 0x2 PUSH0 ORIGIN PUSH20 0xFFFFFFFFFFFFFFFFFFFFFFFFFFFFFFFFFFFFFFFF AND PUSH20 0xFFFFFFFFFFFFFFFFFFFFFFFFFFFFFFFFFFFFFFFF AND DUP2 MSTORE PUSH1 0x20 ADD SWAP1 DUP2 MSTORE PUSH1 0x20 ADD PUSH0 KECCAK256 PUSH0 SWAP1 SLOAD SWAP1 PUSH2 0x100 EXP SWAP1 DIV PUSH1 0xFF AND PUSH2 0x15CF JUMPI PUSH1 0x40 MLOAD PUSH32 0x8C379A000000000000000000000000000000000000000000000000000000000 DUP2 MSTORE PUSH1 0x4 ADD PUSH2 0x15C6 SWAP1 PUSH2 0x2CD8 JUMP JUMPDEST PUSH1 0x40 MLOAD DUP1 SWAP2 SUB SWAP1 REVERT JUMPDEST PUSH1 0x40 MLOAD DUP1 PUSH1 0xC0 ADD PUSH1 0x40 MSTORE DUP1 DUP4 DUP2 MSTORE PUSH1 0x20 ADD PUSH0 DUP2 MSTORE PUSH1 0x20 ADD PUSH0 DUP2 MSTORE PUSH1 0x20 ADD PUSH1 0xB4 TIMESTAMP PUSH2 0x15F9 SWAP2 SWAP1 PUSH2 0x360C JUMP JUMPDEST DUP2 MSTORE PUSH1 0x20 ADD PUSH0 ISZERO ISZERO DUP2 MSTORE PUSH1 0x20 ADD ORIGIN PUSH20 0xFFFFFFFFFFFFFFFFFFFFFFFFFFFFFFFFFFFFFFFF AND DUP2 MSTORE POP PUSH1 0x3 PUSH0 PUSH1 0x8 SLOAD DUP2 MSTORE PUSH1 0x20 ADD SWAP1 DUP2 MSTORE PUSH1 0x20 ADD PUSH0 KECCAK256 PUSH0 DUP3 ADD MLOAD DUP2 PUSH0 ADD SWAP1 DUP2 PUSH2 0x1646 SWAP2 SWAP1 PUSH2 0x313A JUMP JUMPDEST POP PUSH1 0x20 DUP3 ADD MLOAD DUP2 PUSH1 0x1 ADD SSTORE PUSH1 0x40 DUP3 ADD MLOAD DUP2 PUSH1 0x2 ADD SSTORE PUSH1 0x60 DUP3 ADD MLOAD DUP2 PUSH1 0x3 ADD SSTORE PUSH1 0x80 DUP3 ADD MLOAD DUP2 PUSH1 0x4 ADD PUSH0 PUSH2 0x100 EXP DUP2 SLOAD DUP2 PUSH1 0xFF MUL NOT AND SWAP1 DUP4 ISZERO ISZERO MUL OR SWAP1 SSTORE POP PUSH1 0xA0 DUP3 ADD MLOAD DUP2 PUSH1 0x4 ADD PUSH1 0x1 PUSH2 0x100 EXP DUP2 SLOAD DUP2 PUSH20 0xFFFFFFFFFFFFFFFFFFFFFFFFFFFFFFFFFFFFFFFF MUL NOT AND SWAP1 DUP4 PUSH20 0xFFFFFFFFFFFFFFFFFFFFFFFFFFFFFFFFFFFFFFFF AND MUL OR SWAP1 SSTORE POP SWAP1 POP POP PUSH1 0x8 PUSH0 DUP2 SLOAD DUP1 SWAP3 SWAP2 SWAP1 PUSH2 0x16E0 SWAP1 PUSH2 0x35C5 JUMP JUMPDEST SWAP2 SWAP1 POP SSTORE POP PUSH32 0xC8C078BFEE58E5822588F08B4509ED1EB5058E03F666CCA84DD2D44BF5C288A8 PUSH1 0x8 SLOAD DUP4 ORIGIN PUSH1 0x40 MLOAD PUSH2 0x171A SWAP4 SWAP3 SWAP2 SWAP1 PUSH2 0x363F JUMP JUMPDEST PUSH1 0x40 MLOAD DUP1 SWAP2 SUB SWAP1 LOG1 PUSH1 0x1 SWAP1 POP SWAP2 SWAP1 POP JUMP JUMPDEST PUSH1 0x5 PUSH1 0x20 MSTORE DUP1 PUSH0 MSTORE PUSH1 0x40 PUSH0 KECCAK256 PUSH0 SWAP2 POP SWAP1 POP DUP1 PUSH0 ADD SLOAD SWAP1 DUP1 PUSH1 0x1 ADD SLOAD SWAP1 DUP1 PUSH1 0x2 ADD SLOAD SWAP1 DUP1 PUSH1 0x3 ADD DUP1 SLOAD PUSH2 0x175C SWAP1 PUSH2 0x2C38 JUMP JUMPDEST DUP1 PUSH1 0x1F ADD PUSH1 0x20 DUP1 SWAP2 DIV MUL PUSH1 0x20 ADD PUSH1 0x40 MLOAD SWAP1 DUP2 ADD PUSH1 0x40 MSTORE DUP1 SWAP3 SWAP2 SWAP1 DUP2 DUP2 MSTORE PUSH1 0x20 ADD DUP3 DUP1 SLOAD PUSH2 0x1788 SWAP1 PUSH2 0x2C38 JUMP JUMPDEST DUP1 ISZERO PUSH2 0x17D3 JUMPI DUP1 PUSH1 0x1F LT PUSH2 0x17AA JUMPI PUSH2 0x100 DUP1 DUP4 SLOAD DIV MUL DUP4 MSTORE SWAP2 PUSH1 0x20 ADD SWAP2 PUSH2 0x17D3 JUMP JUMPDEST DUP3 ADD SWAP2 SWAP1 PUSH0 MSTORE PUSH1 0x20 PUSH0 KECCAK256 SWAP1 JUMPDEST DUP2 SLOAD DUP2 MSTORE SWAP1 PUSH1 0x1 ADD SWAP1 PUSH1 0x20 ADD DUP1 DUP4 GT PUSH2 0x17B6 JUMPI DUP3 SWAP1 SUB PUSH1 0x1F AND DUP3 ADD SWAP2 JUMPDEST POP POP POP POP POP SWAP1 DUP1 PUSH1 0x4 ADD DUP1 SLOAD PUSH2 0x17E8 SWAP1 PUSH2 0x2C38 JUMP JUMPDEST DUP1 PUSH1 0x1F ADD PUSH1 0x20 DUP1 SWAP2 DIV MUL PUSH1 0x20 ADD PUSH1 0x40 MLOAD SWAP1 DUP2 ADD PUSH1 0x40 MSTORE DUP1 SWAP3 SWAP2 SWAP1 DUP2 DUP2 MSTORE PUSH1 0x20 ADD DUP3 DUP1 SLOAD PUSH2 0x1814 SWAP1 PUSH2 0x2C38 JUMP JUMPDEST DUP1 ISZERO PUSH2 0x185F JUMPI DUP1 PUSH1 0x1F LT PUSH2 0x1836 JUMPI PUSH2 0x100 DUP1 DUP4 SLOAD DIV MUL DUP4 MSTORE SWAP2 PUSH1 0x20 ADD SWAP2 PUSH2 0x185F JUMP JUMPDEST DUP3 ADD SWAP2 SWAP1 PUSH0 MSTORE PUSH1 0x20 PUSH0 KECCAK256 SWAP1 JUMPDEST DUP2 SLOAD DUP2 MSTORE SWAP1 PUSH1 0x1 ADD SWAP1 PUSH1 0x20 ADD DUP1 DUP4 GT PUSH2 0x1842 JUMPI DUP3 SWAP1 SUB PUSH1 0x1F AND DUP3 ADD SWAP2 JUMPDEST POP POP POP POP POP SWAP1 DUP1 PUSH1 0x5 ADD SLOAD SWAP1 DUP1 PUSH1 0x6 ADD SLOAD SWAP1 DUP1 PUSH1 0x7 ADD PUSH0 SWAP1 SLOAD SWAP1 PUSH2 0x100 EXP SWAP1 DIV PUSH1 0xFF AND SWAP1 DUP1 PUSH1 0x7 ADD PUSH1 0x1 SWAP1 SLOAD SWAP1 PUSH2 0x100 EXP SWAP1 DIV PUSH20 0xFFFFFFFFFFFFFFFFFFFFFFFFFFFFFFFFFFFFFFFF AND SWAP1 POP DUP10 JUMP JUMPDEST PUSH1 0x7 PUSH1 0x20 MSTORE DUP1 PUSH0 MSTORE PUSH1 0x40 PUSH0 KECCAK256 PUSH0 SWAP2 POP SLOAD SWAP1 PUSH2 0x100 EXP SWAP1 DIV PUSH1 0xFF AND DUP2 JUMP JUMPDEST PUSH1 0x9 SLOAD DUP2 JUMP JUMPDEST PUSH1 0x2 PUSH0 ORIGIN PUSH20 0xFFFFFFFFFFFFFFFFFFFFFFFFFFFFFFFFFFFFFFFF AND PUSH20 0xFFFFFFFFFFFFFFFFFFFFFFFFFFFFFFFFFFFFFFFF AND DUP2 MSTORE PUSH1 0x20 ADD SWAP1 DUP2 MSTORE PUSH1 0x20 ADD PUSH0 KECCAK256 PUSH0 SWAP1 SLOAD SWAP1 PUSH2 0x100 EXP SWAP1 DIV PUSH1 0xFF AND PUSH2 0x1959 JUMPI PUSH1 0x40 MLOAD PUSH32 0x8C379A000000000000000000000000000000000000000000000000000000000 DUP2 MSTORE PUSH1 0x4 ADD PUSH2 0x1950 SWAP1 PUSH2 0x2CD8 JUMP JUMPDEST PUSH1 0x40 MLOAD DUP1 SWAP2 SUB SWAP1 REVERT JUMPDEST PUSH1 0x5 PUSH0 DUP4 DUP2 MSTORE PUSH1 0x20 ADD SWAP1 DUP2 MSTORE PUSH1 0x20 ADD PUSH0 KECCAK256 PUSH1 0x2 ADD SLOAD TIMESTAMP GT ISZERO PUSH2 0x19B0 JUMPI PUSH1 0x40 MLOAD PUSH32 0x8C379A000000000000000000000000000000000000000000000000000000000 DUP2 MSTORE PUSH1 0x4 ADD PUSH2 0x19A7 SWAP1 PUSH2 0x36C5 JUMP JUMPDEST PUSH1 0x40 MLOAD DUP1 SWAP2 SUB SWAP1 REVERT JUMPDEST PUSH1 0x5 PUSH0 DUP4 DUP2 MSTORE PUSH1 0x20 ADD SWAP1 DUP2 MSTORE PUSH1 0x20 ADD PUSH0 KECCAK256 PUSH1 0x7 ADD PUSH0 SWAP1 SLOAD SWAP1 PUSH2 0x100 EXP SWAP1 DIV PUSH1 0xFF AND ISZERO PUSH2 0x1A11 JUMPI PUSH1 0x40 MLOAD PUSH32 0x8C379A000000000000000000000000000000000000000000000000000000000 DUP2 MSTORE PUSH1 0x4 ADD PUSH2 0x1A08 SWAP1 PUSH2 0x372D JUMP JUMPDEST PUSH1 0x40 MLOAD DUP1 SWAP2 SUB SWAP1 REVERT JUMPDEST DUP1 ISZERO PUSH2 0x1A45 JUMPI PUSH1 0x5 PUSH0 DUP4 DUP2 MSTORE PUSH1 0x20 ADD SWAP1 DUP2 MSTORE PUSH1 0x20 ADD PUSH0 KECCAK256 PUSH1 0x5 ADD PUSH0 DUP2 SLOAD DUP1 SWAP3 SWAP2 SWAP1 PUSH2 0x1A3B SWAP1 PUSH2 0x35C5 JUMP JUMPDEST SWAP2 SWAP1 POP SSTORE POP PUSH2 0x1A6F JUMP JUMPDEST PUSH1 0x5 PUSH0 DUP4 DUP2 MSTORE PUSH1 0x20 ADD SWAP1 DUP2 MSTORE PUSH1 0x20 ADD PUSH0 KECCAK256 PUSH1 0x6 ADD PUSH0 DUP2 SLOAD DUP1 SWAP3 SWAP2 SWAP1 PUSH2 0x1A69 SWAP1 PUSH2 0x35C5 JUMP JUMPDEST SWAP2 SWAP1 POP SSTORE POP JUMPDEST PUSH1 0x1 PUSH0 SWAP1 SLOAD SWAP1 PUSH2 0x100 EXP SWAP1 DIV PUSH20 0xFFFFFFFFFFFFFFFFFFFFFFFFFFFFFFFFFFFFFFFF AND PUSH20 0xFFFFFFFFFFFFFFFFFFFFFFFFFFFFFFFFFFFFFFFF AND PUSH4 0xA0712D68 PUSH8 0xDE0B6B3A7640000 PUSH1 0x40 MLOAD DUP3 PUSH4 0xFFFFFFFF AND PUSH1 0xE0 SHL DUP2 MSTORE PUSH1 0x4 ADD PUSH2 0x1AD1 SWAP2 SWAP1 PUSH2 0x34DC JUMP JUMPDEST PUSH0 PUSH1 0x40 MLOAD DUP1 DUP4 SUB DUP2 PUSH0 DUP8 DUP1 EXTCODESIZE ISZERO DUP1 ISZERO PUSH2 0x1AE8 JUMPI PUSH0 DUP1 REVERT JUMPDEST POP GAS CALL ISZERO DUP1 ISZERO PUSH2 0x1AFA JUMPI RETURNDATASIZE PUSH0 DUP1 RETURNDATACOPY RETURNDATASIZE PUSH0 REVERT JUMPDEST POP POP POP POP PUSH32 0xF2913DBE661EE2ACC4A046D8FBCDC792373BDA34C41C6086484B5345E5785E5F DUP3 CALLER DUP4 PUSH1 0x40 MLOAD PUSH2 0x1B31 SWAP4 SWAP3 SWAP2 SWAP1 PUSH2 0x374B JUMP JUMPDEST PUSH1 0x40 MLOAD DUP1 SWAP2 SUB SWAP1 LOG1 POP POP JUMP JUMPDEST PUSH0 DUP1 PUSH1 0x4 PUSH0 DUP5 DUP2 MSTORE PUSH1 0x20 ADD SWAP1 DUP2 MSTORE PUSH1 0x20 ADD PUSH0 KECCAK256 PUSH1 0x3 ADD SLOAD SWAP1 POP DUP1 TIMESTAMP LT PUSH2 0x1B93 JUMPI PUSH1 0x1 PUSH1 0x4 PUSH0 DUP6 DUP2 MSTORE PUSH1 0x20 ADD SWAP1 DUP2 MSTORE PUSH1 0x20 ADD PUSH0 KECCAK256 PUSH1 0x5 ADD PUSH0 PUSH2 0x100 EXP DUP2 SLOAD DUP2 PUSH1 0xFF MUL NOT AND SWAP1 DUP4 ISZERO ISZERO MUL OR SWAP1 SSTORE POP PUSH1 0x1 SWAP2 POP POP PUSH2 0x1B98 JUMP JUMPDEST PUSH0 SWAP2 POP POP JUMPDEST SWAP2 SWAP1 POP JUMP JUMPDEST PUSH1 0x2 PUSH0 ORIGIN PUSH20 0xFFFFFFFFFFFFFFFFFFFFFFFFFFFFFFFFFFFFFFFF AND PUSH20 0xFFFFFFFFFFFFFFFFFFFFFFFFFFFFFFFFFFFFFFFF AND DUP2 MSTORE PUSH1 0x20 ADD SWAP1 DUP2 MSTORE PUSH1 0x20 ADD PUSH0 KECCAK256 PUSH0 SWAP1 SLOAD SWAP1 PUSH2 0x100 EXP SWAP1 DIV PUSH1 0xFF AND PUSH2 0x1C26 JUMPI PUSH1 0x40 MLOAD PUSH32 0x8C379A000000000000000000000000000000000000000000000000000000000 DUP2 MSTORE PUSH1 0x4 ADD PUSH2 0x1C1D SWAP1 PUSH2 0x2CD8 JUMP JUMPDEST PUSH1 0x40 MLOAD DUP1 SWAP2 SUB SWAP1 REVERT JUMPDEST PUSH0 PUSH1 0x5 PUSH0 DUP4 DUP2 MSTORE PUSH1 0x20 ADD SWAP1 DUP2 MSTORE PUSH1 0x20 ADD PUSH0 KECCAK256 SWAP1 POP DUP1 PUSH1 0x2 ADD SLOAD TIMESTAMP GT PUSH2 0x1C80 JUMPI PUSH1 0x40 MLOAD PUSH32 0x8C379A000000000000000000000000000000000000000000000000000000000 DUP2 MSTORE PUSH1 0x4 ADD PUSH2 0x1C77 SWAP1 PUSH2 0x37CA JUMP JUMPDEST PUSH1 0x40 MLOAD DUP1 SWAP2 SUB SWAP1 REVERT JUMPDEST DUP1 PUSH1 0x7 ADD PUSH0 SWAP1 SLOAD SWAP1 PUSH2 0x100 EXP SWAP1 DIV PUSH1 0xFF AND ISZERO PUSH2 0x1CD1 JUMPI PUSH1 0x40 MLOAD PUSH32 0x8C379A000000000000000000000000000000000000000000000000000000000 DUP2 MSTORE PUSH1 0x4 ADD PUSH2 0x1CC8 SWAP1 PUSH2 0x372D JUMP JUMPDEST PUSH1 0x40 MLOAD DUP1 SWAP2 SUB SWAP1 REVERT JUMPDEST PUSH1 0x5 PUSH0 DUP4 DUP2 MSTORE PUSH1 0x20 ADD SWAP1 DUP2 MSTORE PUSH1 0x20 ADD PUSH0 KECCAK256 PUSH1 0x6 ADD SLOAD PUSH1 0x5 PUSH0 DUP5 DUP2 MSTORE PUSH1 0x20 ADD SWAP1 DUP2 MSTORE PUSH1 0x20 ADD PUSH0 KECCAK256 PUSH1 0x5 ADD SLOAD GT ISZERO PUSH2 0x1E65 JUMPI PUSH0 PUSH1 0x4 PUSH0 PUSH1 0x5 PUSH0 DUP7 DUP2 MSTORE PUSH1 0x20 ADD SWAP1 DUP2 MSTORE PUSH1 0x20 ADD PUSH0 KECCAK256 PUSH1 0x1 ADD SLOAD DUP2 MSTORE PUSH1 0x20 ADD SWAP1 DUP2 MSTORE PUSH1 0x20 ADD PUSH0 KECCAK256 PUSH1 0x3 ADD SLOAD SWAP1 POP PUSH0 PUSH1 0x4 PUSH0 PUSH1 0x5 PUSH0 DUP8 DUP2 MSTORE PUSH1 0x20 ADD SWAP1 DUP2 MSTORE PUSH1 0x20 ADD PUSH0 KECCAK256 PUSH1 0x1 ADD SLOAD DUP2 MSTORE PUSH1 0x20 ADD SWAP1 DUP2 MSTORE PUSH1 0x20 ADD PUSH0 KECCAK256 PUSH1 0x4 ADD SLOAD SWAP1 POP PUSH0 PUSH1 0x3C DUP4 DUP4 PUSH2 0x1D68 SWAP2 SWAP1 PUSH2 0x328E JUMP JUMPDEST PUSH2 0x1D72 SWAP2 SWAP1 PUSH2 0x332F JUMP JUMPDEST SWAP1 POP PUSH0 PUSH2 0x168 PUSH1 0x1E DUP4 PUSH2 0x1D85 SWAP2 SWAP1 PUSH2 0x32C1 JUMP JUMPDEST PUSH2 0x1D8F SWAP2 SWAP1 PUSH2 0x332F JUMP JUMPDEST SWAP1 POP PUSH0 DUP1 SLOAD SWAP1 PUSH2 0x100 EXP SWAP1 DIV PUSH20 0xFFFFFFFFFFFFFFFFFFFFFFFFFFFFFFFFFFFFFFFF AND PUSH20 0xFFFFFFFFFFFFFFFFFFFFFFFFFFFFFFFFFFFFFFFF AND PUSH4 0xCF093926 PUSH1 0x5 PUSH0 DUP10 DUP2 MSTORE PUSH1 0x20 ADD SWAP1 DUP2 MSTORE PUSH1 0x20 ADD PUSH0 KECCAK256 PUSH1 0x7 ADD PUSH1 0x1 SWAP1 SLOAD SWAP1 PUSH2 0x100 EXP SWAP1 DIV PUSH20 0xFFFFFFFFFFFFFFFFFFFFFFFFFFFFFFFFFFFFFFFF AND DUP4 PUSH1 0x40 MLOAD DUP4 PUSH4 0xFFFFFFFF AND PUSH1 0xE0 SHL DUP2 MSTORE PUSH1 0x4 ADD PUSH2 0x1E1F SWAP3 SWAP2 SWAP1 PUSH2 0x37E8 JUMP JUMPDEST PUSH1 0x20 PUSH1 0x40 MLOAD DUP1 DUP4 SUB DUP2 PUSH0 DUP8 GAS CALL ISZERO DUP1 ISZERO PUSH2 0x1E3B JUMPI RETURNDATASIZE PUSH0 DUP1 RETURNDATACOPY RETURNDATASIZE PUSH0 REVERT JUMPDEST POP POP POP POP PUSH1 0x40 MLOAD RETURNDATASIZE PUSH1 0x1F NOT PUSH1 0x1F DUP3 ADD AND DUP3 ADD DUP1 PUSH1 0x40 MSTORE POP DUP2 ADD SWAP1 PUSH2 0x1E5F SWAP2 SWAP1 PUSH2 0x33A8 JUMP JUMPDEST POP POP POP POP POP JUMPDEST PUSH1 0x1 DUP2 PUSH1 0x7 ADD PUSH0 PUSH2 0x100 EXP DUP2 SLOAD DUP2 PUSH1 0xFF MUL NOT AND SWAP1 DUP4 ISZERO ISZERO MUL OR SWAP1 SSTORE POP PUSH1 0x1 PUSH0 SWAP1 SLOAD SWAP1 PUSH2 0x100 EXP SWAP1 DIV PUSH20 0xFFFFFFFFFFFFFFFFFFFFFFFFFFFFFFFFFFFFFFFF AND PUSH20 0xFFFFFFFFFFFFFFFFFFFFFFFFFFFFFFFFFFFFFFFF AND PUSH4 0xA0712D68 PUSH8 0x1BC16D674EC80000 PUSH1 0x40 MLOAD DUP3 PUSH4 0xFFFFFFFF AND PUSH1 0xE0 SHL DUP2 MSTORE PUSH1 0x4 ADD PUSH2 0x1EE3 SWAP2 SWAP1 PUSH2 0x2E2E JUMP JUMPDEST PUSH0 PUSH1 0x40 MLOAD DUP1 DUP4 SUB DUP2 PUSH0 DUP8 DUP1 EXTCODESIZE ISZERO DUP1 ISZERO PUSH2 0x1EFA JUMPI PUSH0 DUP1 REVERT JUMPDEST POP GAS CALL ISZERO DUP1 ISZERO PUSH2 0x1F0C JUMPI RETURNDATASIZE PUSH0 DUP1 RETURNDATACOPY RETURNDATASIZE PUSH0 REVERT JUMPDEST POP POP POP POP PUSH32 0x948F4A9CD986F1118C3FBD459F7A22B23C0693E1CA3EF06A6A8BE5AA7D39CC03 DUP3 PUSH1 0x1 PUSH1 0x40 MLOAD PUSH2 0x1F42 SWAP3 SWAP2 SWAP1 PUSH2 0x2E47 JUMP JUMPDEST PUSH1 0x40 MLOAD DUP1 SWAP2 SUB SWAP1 LOG1 POP POP JUMP JUMPDEST PUSH0 DUP1 PUSH20 0xFFFFFFFFFFFFFFFFFFFFFFFFFFFFFFFFFFFFFFFF AND DUP10 PUSH20 0xFFFFFFFFFFFFFFFFFFFFFFFFFFFFFFFFFFFFFFFF AND EQ ISZERO DUP1 ISZERO PUSH2 0x1FB7 JUMPI POP PUSH0 PUSH20 0xFFFFFFFFFFFFFFFFFFFFFFFFFFFFFFFFFFFFFFFF AND DUP9 PUSH20 0xFFFFFFFFFFFFFFFFFFFFFFFFFFFFFFFFFFFFFFFF AND EQ ISZERO JUMPDEST PUSH2 0x1FF6 JUMPI PUSH1 0x40 MLOAD PUSH32 0x8C379A000000000000000000000000000000000000000000000000000000000 DUP2 MSTORE PUSH1 0x4 ADD PUSH2 0x1FED SWAP1 PUSH2 0x3832 JUMP JUMPDEST PUSH1 0x40 MLOAD DUP1 SWAP2 SUB SWAP1 REVERT JUMPDEST PUSH1 0x40 MLOAD DUP1 PUSH2 0x100 ADD PUSH1 0x40 MSTORE DUP1 DUP11 PUSH20 0xFFFFFFFFFFFFFFFFFFFFFFFFFFFFFFFFFFFFFFFF AND DUP2 MSTORE PUSH1 0x20 ADD DUP10 PUSH20 0xFFFFFFFFFFFFFFFFFFFFFFFFFFFFFFFFFFFFFFFF AND DUP2 MSTORE PUSH1 0x20 ADD DUP9 DUP2 MSTORE PUSH1 0x20 ADD DUP8 DUP2 MSTORE PUSH1 0x20 ADD DUP7 DUP2 MSTORE PUSH1 0x20 ADD DUP6 ISZERO ISZERO DUP2 MSTORE PUSH1 0x20 ADD DUP5 ISZERO ISZERO DUP2 MSTORE PUSH1 0x20 ADD DUP4 DUP2 MSTORE POP PUSH1 0x4 PUSH0 DUP10 DUP2 MSTORE PUSH1 0x20 ADD SWAP1 DUP2 MSTORE PUSH1 0x20 ADD PUSH0 KECCAK256 PUSH0 DUP3 ADD MLOAD DUP2 PUSH0 ADD PUSH0 PUSH2 0x100 EXP DUP2 SLOAD DUP2 PUSH20 0xFFFFFFFFFFFFFFFFFFFFFFFFFFFFFFFFFFFFFFFF MUL NOT AND SWAP1 DUP4 PUSH20 0xFFFFFFFFFFFFFFFFFFFFFFFFFFFFFFFFFFFFFFFF AND MUL OR SWAP1 SSTORE POP PUSH1 0x20 DUP3 ADD MLOAD DUP2 PUSH1 0x1 ADD PUSH0 PUSH2 0x100 EXP DUP2 SLOAD DUP2 PUSH20 0xFFFFFFFFFFFFFFFFFFFFFFFFFFFFFFFFFFFFFFFF MUL NOT AND SWAP1 DUP4 PUSH20 0xFFFFFFFFFFFFFFFFFFFFFFFFFFFFFFFFFFFFFFFF AND MUL OR SWAP1 SSTORE POP PUSH1 0x40 DUP3 ADD MLOAD DUP2 PUSH1 0x2 ADD SSTORE PUSH1 0x60 DUP3 ADD MLOAD DUP2 PUSH1 0x3 ADD SSTORE PUSH1 0x80 DUP3 ADD MLOAD DUP2 PUSH1 0x4 ADD SSTORE PUSH1 0xA0 DUP3 ADD MLOAD DUP2 PUSH1 0x5 ADD PUSH0 PUSH2 0x100 EXP DUP2 SLOAD DUP2 PUSH1 0xFF MUL NOT AND SWAP1 DUP4 ISZERO ISZERO MUL OR SWAP1 SSTORE POP PUSH1 0xC0 DUP3 ADD MLOAD DUP2 PUSH1 0x5 ADD PUSH1 0x1 PUSH2 0x100 EXP DUP2 SLOAD DUP2 PUSH1 0xFF MUL NOT AND SWAP1 DUP4 ISZERO ISZERO MUL OR SWAP1 SSTORE POP PUSH1 0xE0 DUP3 ADD MLOAD DUP2 PUSH1 0x6 ADD SWAP1 DUP2 PUSH2 0x216D SWAP2 SWAP1 PUSH2 0x313A JUMP JUMPDEST POP SWAP1 POP POP PUSH1 0x1 SWAP1 POP SWAP9 SWAP8 POP POP POP POP POP POP POP POP JUMP JUMPDEST PUSH1 0x2 PUSH0 ORIGIN PUSH20 0xFFFFFFFFFFFFFFFFFFFFFFFFFFFFFFFFFFFFFFFF AND PUSH20 0xFFFFFFFFFFFFFFFFFFFFFFFFFFFFFFFFFFFFFFFF AND DUP2 MSTORE PUSH1 0x20 ADD SWAP1 DUP2 MSTORE PUSH1 0x20 ADD PUSH0 KECCAK256 PUSH0 SWAP1 SLOAD SWAP1 PUSH2 0x100 EXP SWAP1 DIV PUSH1 0xFF AND PUSH2 0x220A JUMPI PUSH1 0x40 MLOAD PUSH32 0x8C379A000000000000000000000000000000000000000000000000000000000 DUP2 MSTORE PUSH1 0x4 ADD PUSH2 0x2201 SWAP1 PUSH2 0x2CD8 JUMP JUMPDEST PUSH1 0x40 MLOAD DUP1 SWAP2 SUB SWAP1 REVERT JUMPDEST PUSH0 PUSH1 0x3 PUSH0 DUP5 DUP2 MSTORE PUSH1 0x20 ADD SWAP1 DUP2 MSTORE PUSH1 0x20 ADD PUSH0 KECCAK256 SWAP1 POP DUP1 PUSH1 0x3 ADD SLOAD TIMESTAMP LT PUSH2 0x2264 JUMPI PUSH1 0x40 MLOAD PUSH32 0x8C379A000000000000000000000000000000000000000000000000000000000 DUP2 MSTORE PUSH1 0x4 ADD PUSH2 0x225B SWAP1 PUSH2 0x36C5 JUMP JUMPDEST PUSH1 0x40 MLOAD DUP1 SWAP2 SUB SWAP1 REVERT JUMPDEST DUP2 ISZERO PUSH2 0x2288 JUMPI DUP1 PUSH1 0x1 ADD PUSH0 DUP2 SLOAD DUP1 SWAP3 SWAP2 SWAP1 PUSH2 0x227E SWAP1 PUSH2 0x35C5 JUMP JUMPDEST SWAP2 SWAP1 POP SSTORE POP PUSH2 0x22A2 JUMP JUMPDEST DUP1 PUSH1 0x2 ADD PUSH0 DUP2 SLOAD DUP1 SWAP3 SWAP2 SWAP1 PUSH2 0x229C SWAP1 PUSH2 0x35C5 JUMP JUMPDEST SWAP2 SWAP1 POP SSTORE POP JUMPDEST PUSH1 0x1 PUSH0 SWAP1 SLOAD SWAP1 PUSH2 0x100 EXP SWAP1 DIV PUSH20 0xFFFFFFFFFFFFFFFFFFFFFFFFFFFFFFFFFFFFFFFF AND PUSH20 0xFFFFFFFFFFFFFFFFFFFFFFFFFFFFFFFFFFFFFFFF AND PUSH4 0xA0712D68 PUSH8 0xDE0B6B3A7640000 PUSH1 0x40 MLOAD DUP3 PUSH4 0xFFFFFFFF AND PUSH1 0xE0 SHL DUP2 MSTORE PUSH1 0x4 ADD PUSH2 0x2304 SWAP2 SWAP1 PUSH2 0x34DC JUMP JUMPDEST PUSH0 PUSH1 0x40 MLOAD DUP1 DUP4 SUB DUP2 PUSH0 DUP8 DUP1 EXTCODESIZE ISZERO DUP1 ISZERO PUSH2 0x231B JUMPI PUSH0 DUP1 REVERT JUMPDEST POP GAS CALL ISZERO DUP1 ISZERO PUSH2 0x232D JUMPI RETURNDATASIZE PUSH0 DUP1 RETURNDATACOPY RETURNDATASIZE PUSH0 REVERT JUMPDEST POP POP POP POP PUSH32 0xF2913DBE661EE2ACC4A046D8FBCDC792373BDA34C41C6086484B5345E5785E5F DUP4 CALLER DUP5 PUSH1 0x40 MLOAD PUSH2 0x2364 SWAP4 SWAP3 SWAP2 SWAP1 PUSH2 0x374B JUMP JUMPDEST PUSH1 0x40 MLOAD DUP1 SWAP2 SUB SWAP1 LOG1 POP POP POP JUMP JUMPDEST PUSH0 PUSH1 0x2 PUSH0 ORIGIN PUSH20 0xFFFFFFFFFFFFFFFFFFFFFFFFFFFFFFFFFFFFFFFF AND PUSH20 0xFFFFFFFFFFFFFFFFFFFFFFFFFFFFFFFFFFFFFFFF AND DUP2 MSTORE PUSH1 0x20 ADD SWAP1 DUP2 MSTORE PUSH1 0x20 ADD PUSH0 KECCAK256 PUSH0 SWAP1 SLOAD SWAP1 PUSH2 0x100 EXP SWAP1 DIV PUSH1 0xFF AND SWAP1 POP SWAP1 JUMP JUMPDEST PUSH1 0x8 SLOAD DUP2 JUMP JUMPDEST PUSH1 0x40 MLOAD DUP1 PUSH2 0x120 ADD PUSH1 0x40 MSTORE DUP1 PUSH0 DUP2 MSTORE PUSH1 0x20 ADD PUSH0 DUP2 MSTORE PUSH1 0x20 ADD PUSH0 DUP2 MSTORE PUSH1 0x20 ADD PUSH1 0x60 DUP2 MSTORE PUSH1 0x20 ADD PUSH1 0x60 DUP2 MSTORE PUSH1 0x20 ADD PUSH0 DUP2 MSTORE PUSH1 0x20 ADD PUSH0 DUP2 MSTORE PUSH1 0x20 ADD PUSH0 ISZERO ISZERO DUP2 MSTORE PUSH1 0x20 ADD PUSH0 PUSH20 0xFFFFFFFFFFFFFFFFFFFFFFFFFFFFFFFFFFFFFFFF AND DUP2 MSTORE POP SWAP1 JUMP JUMPDEST PUSH0 PUSH1 0x40 MLOAD SWAP1 POP SWAP1 JUMP JUMPDEST PUSH0 DUP1 REVERT JUMPDEST PUSH0 DUP1 REVERT JUMPDEST PUSH0 DUP2 SWAP1 POP SWAP2 SWAP1 POP JUMP JUMPDEST PUSH2 0x2447 DUP2 PUSH2 0x2435 JUMP JUMPDEST DUP2 EQ PUSH2 0x2451 JUMPI PUSH0 DUP1 REVERT JUMPDEST POP JUMP JUMPDEST PUSH0 DUP2 CALLDATALOAD SWAP1 POP PUSH2 0x2462 DUP2 PUSH2 0x243E JUMP JUMPDEST SWAP3 SWAP2 POP POP JUMP JUMPDEST PUSH0 PUSH1 0x20 DUP3 DUP5 SUB SLT ISZERO PUSH2 0x247D JUMPI PUSH2 0x247C PUSH2 0x242D JUMP JUMPDEST JUMPDEST PUSH0 PUSH2 0x248A DUP5 DUP3 DUP6 ADD PUSH2 0x2454 JUMP JUMPDEST SWAP2 POP POP SWAP3 SWAP2 POP POP JUMP JUMPDEST PUSH0 PUSH20 0xFFFFFFFFFFFFFFFFFFFFFFFFFFFFFFFFFFFFFFFF DUP3 AND SWAP1 POP SWAP2 SWAP1 POP JUMP JUMPDEST PUSH0 PUSH2 0x24BC DUP3 PUSH2 0x2493 JUMP JUMPDEST SWAP1 POP SWAP2 SWAP1 POP JUMP JUMPDEST PUSH2 0x24CC DUP2 PUSH2 0x24B2 JUMP JUMPDEST DUP3 MSTORE POP POP JUMP JUMPDEST PUSH2 0x24DB DUP2 PUSH2 0x2435 JUMP JUMPDEST DUP3 MSTORE POP POP JUMP JUMPDEST PUSH0 DUP2 ISZERO ISZERO SWAP1 POP SWAP2 SWAP1 POP JUMP JUMPDEST PUSH2 0x24F5 DUP2 PUSH2 0x24E1 JUMP JUMPDEST DUP3 MSTORE POP POP JUMP JUMPDEST PUSH0 DUP2 MLOAD SWAP1 POP SWAP2 SWAP1 POP JUMP JUMPDEST PUSH0 DUP3 DUP3 MSTORE PUSH1 0x20 DUP3 ADD SWAP1 POP SWAP3 SWAP2 POP POP JUMP JUMPDEST PUSH0 JUMPDEST DUP4 DUP2 LT ISZERO PUSH2 0x2532 JUMPI DUP1 DUP3 ADD MLOAD DUP2 DUP5 ADD MSTORE PUSH1 0x20 DUP2 ADD SWAP1 POP PUSH2 0x2517 JUMP JUMPDEST PUSH0 DUP5 DUP5 ADD MSTORE POP POP POP POP JUMP JUMPDEST PUSH0 PUSH1 0x1F NOT PUSH1 0x1F DUP4 ADD AND SWAP1 POP SWAP2 SWAP1 POP JUMP JUMPDEST PUSH0 PUSH2 0x2557 DUP3 PUSH2 0x24FB JUMP JUMPDEST PUSH2 0x2561 DUP2 DUP6 PUSH2 0x2505 JUMP JUMPDEST SWAP4 POP PUSH2 0x2571 DUP2 DUP6 PUSH1 0x20 DUP7 ADD PUSH2 0x2515 JUMP JUMPDEST PUSH2 0x257A DUP2 PUSH2 0x253D JUMP JUMPDEST DUP5 ADD SWAP2 POP POP SWAP3 SWAP2 POP POP JUMP JUMPDEST PUSH0 PUSH2 0x100 DUP3 ADD SWAP1 POP PUSH2 0x2599 PUSH0 DUP4 ADD DUP12 PUSH2 0x24C3 JUMP JUMPDEST PUSH2 0x25A6 PUSH1 0x20 DUP4 ADD DUP11 PUSH2 0x24C3 JUMP JUMPDEST PUSH2 0x25B3 PUSH1 0x40 DUP4 ADD DUP10 PUSH2 0x24D2 JUMP JUMPDEST PUSH2 0x25C0 PUSH1 0x60 DUP4 ADD DUP9 PUSH2 0x24D2 JUMP JUMPDEST PUSH2 0x25CD PUSH1 0x80 DUP4 ADD DUP8 PUSH2 0x24D2 JUMP JUMPDEST PUSH2 0x25DA PUSH1 0xA0 DUP4 ADD DUP7 PUSH2 0x24EC JUMP JUMPDEST PUSH2 0x25E7 PUSH1 0xC0 DUP4 ADD DUP6 PUSH2 0x24EC JUMP JUMPDEST DUP2 DUP2 SUB PUSH1 0xE0 DUP4 ADD MSTORE PUSH2 0x25F9 DUP2 DUP5 PUSH2 0x254D JUMP JUMPDEST SWAP1 POP SWAP10 SWAP9 POP POP POP POP POP POP POP POP POP JUMP JUMPDEST PUSH2 0x2611 DUP2 PUSH2 0x24E1 JUMP JUMPDEST DUP2 EQ PUSH2 0x261B JUMPI PUSH0 DUP1 REVERT JUMPDEST POP JUMP JUMPDEST PUSH0 DUP2 CALLDATALOAD SWAP1 POP PUSH2 0x262C DUP2 PUSH2 0x2608 JUMP JUMPDEST SWAP3 SWAP2 POP POP JUMP JUMPDEST PUSH0 DUP1 PUSH1 0x40 DUP4 DUP6 SUB SLT ISZERO PUSH2 0x2648 JUMPI PUSH2 0x2647 PUSH2 0x242D JUMP JUMPDEST JUMPDEST PUSH0 PUSH2 0x2655 DUP6 DUP3 DUP7 ADD PUSH2 0x2454 JUMP JUMPDEST SWAP3 POP POP PUSH1 0x20 PUSH2 0x2666 DUP6 DUP3 DUP7 ADD PUSH2 0x261E JUMP JUMPDEST SWAP2 POP POP SWAP3 POP SWAP3 SWAP1 POP JUMP JUMPDEST PUSH0 DUP1 REVERT JUMPDEST PUSH0 DUP1 REVERT JUMPDEST PUSH32 0x4E487B7100000000000000000000000000000000000000000000000000000000 PUSH0 MSTORE PUSH1 0x41 PUSH1 0x4 MSTORE PUSH1 0x24 PUSH0 REVERT JUMPDEST PUSH2 0x26AE DUP3 PUSH2 0x253D JUMP JUMPDEST DUP2 ADD DUP2 DUP2 LT PUSH8 0xFFFFFFFFFFFFFFFF DUP3 GT OR ISZERO PUSH2 0x26CD JUMPI PUSH2 0x26CC PUSH2 0x2678 JUMP JUMPDEST JUMPDEST DUP1 PUSH1 0x40 MSTORE POP POP POP JUMP JUMPDEST PUSH0 PUSH2 0x26DF PUSH2 0x2424 JUMP JUMPDEST SWAP1 POP PUSH2 0x26EB DUP3 DUP3 PUSH2 0x26A5 JUMP JUMPDEST SWAP2 SWAP1 POP JUMP JUMPDEST PUSH0 PUSH8 0xFFFFFFFFFFFFFFFF DUP3 GT ISZERO PUSH2 0x270A JUMPI PUSH2 0x2709 PUSH2 0x2678 JUMP JUMPDEST JUMPDEST PUSH2 0x2713 DUP3 PUSH2 0x253D JUMP JUMPDEST SWAP1 POP PUSH1 0x20 DUP2 ADD SWAP1 POP SWAP2 SWAP1 POP JUMP JUMPDEST DUP3 DUP2 DUP4 CALLDATACOPY PUSH0 DUP4 DUP4 ADD MSTORE POP POP POP JUMP JUMPDEST PUSH0 PUSH2 0x2740 PUSH2 0x273B DUP5 PUSH2 0x26F0 JUMP JUMPDEST PUSH2 0x26D6 JUMP JUMPDEST SWAP1 POP DUP3 DUP2 MSTORE PUSH1 0x20 DUP2 ADD DUP5 DUP5 DUP5 ADD GT ISZERO PUSH2 0x275C JUMPI PUSH2 0x275B PUSH2 0x2674 JUMP JUMPDEST JUMPDEST PUSH2 0x2767 DUP5 DUP3 DUP6 PUSH2 0x2720 JUMP JUMPDEST POP SWAP4 SWAP3 POP POP POP JUMP JUMPDEST PUSH0 DUP3 PUSH1 0x1F DUP4 ADD SLT PUSH2 0x2783 JUMPI PUSH2 0x2782 PUSH2 0x2670 JUMP JUMPDEST JUMPDEST DUP2 CALLDATALOAD PUSH2 0x2793 DUP5 DUP3 PUSH1 0x20 DUP7 ADD PUSH2 0x272E JUMP JUMPDEST SWAP2 POP POP SWAP3 SWAP2 POP POP JUMP JUMPDEST PUSH0 DUP1 PUSH0 PUSH1 0x60 DUP5 DUP7 SUB SLT ISZERO PUSH2 0x27B3 JUMPI PUSH2 0x27B2 PUSH2 0x242D JUMP JUMPDEST JUMPDEST PUSH0 PUSH2 0x27C0 DUP7 DUP3 DUP8 ADD PUSH2 0x2454 JUMP JUMPDEST SWAP4 POP POP PUSH1 0x20 PUSH2 0x27D1 DUP7 DUP3 DUP8 ADD PUSH2 0x2454 JUMP JUMPDEST SWAP3 POP POP PUSH1 0x40 DUP5 ADD CALLDATALOAD PUSH8 0xFFFFFFFFFFFFFFFF DUP2 GT ISZERO PUSH2 0x27F2 JUMPI PUSH2 0x27F1 PUSH2 0x2431 JUMP JUMPDEST JUMPDEST PUSH2 0x27FE DUP7 DUP3 DUP8 ADD PUSH2 0x276F JUMP JUMPDEST SWAP2 POP POP SWAP3 POP SWAP3 POP SWAP3 JUMP JUMPDEST PUSH2 0x2811 DUP2 PUSH2 0x24B2 JUMP JUMPDEST DUP2 EQ PUSH2 0x281B JUMPI PUSH0 DUP1 REVERT JUMPDEST POP JUMP JUMPDEST PUSH0 DUP2 CALLDATALOAD SWAP1 POP PUSH2 0x282C DUP2 PUSH2 0x2808 JUMP JUMPDEST SWAP3 SWAP2 POP POP JUMP JUMPDEST PUSH0 DUP1 PUSH0 DUP1 PUSH1 0x80 DUP6 DUP8 SUB SLT ISZERO PUSH2 0x284A JUMPI PUSH2 0x2849 PUSH2 0x242D JUMP JUMPDEST JUMPDEST PUSH0 PUSH2 0x2857 DUP8 DUP3 DUP9 ADD PUSH2 0x2454 JUMP JUMPDEST SWAP5 POP POP PUSH1 0x20 DUP6 ADD CALLDATALOAD PUSH8 0xFFFFFFFFFFFFFFFF DUP2 GT ISZERO PUSH2 0x2878 JUMPI PUSH2 0x2877 PUSH2 0x2431 JUMP JUMPDEST JUMPDEST PUSH2 0x2884 DUP8 DUP3 DUP9 ADD PUSH2 0x276F JUMP JUMPDEST SWAP4 POP POP PUSH1 0x40 DUP6 ADD CALLDATALOAD PUSH8 0xFFFFFFFFFFFFFFFF DUP2 GT ISZERO PUSH2 0x28A5 JUMPI PUSH2 0x28A4 PUSH2 0x2431 JUMP JUMPDEST JUMPDEST PUSH2 0x28B1 DUP8 DUP3 DUP9 ADD PUSH2 0x276F JUMP JUMPDEST SWAP3 POP POP PUSH1 0x60 PUSH2 0x28C2 DUP8 DUP3 DUP9 ADD PUSH2 0x281E JUMP JUMPDEST SWAP2 POP POP SWAP3 SWAP6 SWAP2 SWAP5 POP SWAP3 POP JUMP JUMPDEST PUSH2 0x28D7 DUP2 PUSH2 0x2435 JUMP JUMPDEST DUP3 MSTORE POP POP JUMP JUMPDEST PUSH0 DUP3 DUP3 MSTORE PUSH1 0x20 DUP3 ADD SWAP1 POP SWAP3 SWAP2 POP POP JUMP JUMPDEST PUSH0 PUSH2 0x28F7 DUP3 PUSH2 0x24FB JUMP JUMPDEST PUSH2 0x2901 DUP2 DUP6 PUSH2 0x28DD JUMP JUMPDEST SWAP4 POP PUSH2 0x2911 DUP2 DUP6 PUSH1 0x20 DUP7 ADD PUSH2 0x2515 JUMP JUMPDEST PUSH2 0x291A DUP2 PUSH2 0x253D JUMP JUMPDEST DUP5 ADD SWAP2 POP POP SWAP3 SWAP2 POP POP JUMP JUMPDEST PUSH2 0x292E DUP2 PUSH2 0x24E1 JUMP JUMPDEST DUP3 MSTORE POP POP JUMP JUMPDEST PUSH2 0x293D DUP2 PUSH2 0x24B2 JUMP JUMPDEST DUP3 MSTORE POP POP JUMP JUMPDEST PUSH0 PUSH2 0x120 DUP4 ADD PUSH0 DUP4 ADD MLOAD PUSH2 0x2959 PUSH0 DUP7 ADD DUP3 PUSH2 0x28CE JUMP JUMPDEST POP PUSH1 0x20 DUP4 ADD MLOAD PUSH2 0x296C PUSH1 0x20 DUP7 ADD DUP3 PUSH2 0x28CE JUMP JUMPDEST POP PUSH1 0x40 DUP4 ADD MLOAD PUSH2 0x297F PUSH1 0x40 DUP7 ADD DUP3 PUSH2 0x28CE JUMP JUMPDEST POP PUSH1 0x60 DUP4 ADD MLOAD DUP5 DUP3 SUB PUSH1 0x60 DUP7 ADD MSTORE PUSH2 0x2997 DUP3 DUP3 PUSH2 0x28ED JUMP JUMPDEST SWAP2 POP POP PUSH1 0x80 DUP4 ADD MLOAD DUP5 DUP3 SUB PUSH1 0x80 DUP7 ADD MSTORE PUSH2 0x29B1 DUP3 DUP3 PUSH2 0x28ED JUMP JUMPDEST SWAP2 POP POP PUSH1 0xA0 DUP4 ADD MLOAD PUSH2 0x29C6 PUSH1 0xA0 DUP7 ADD DUP3 PUSH2 0x28CE JUMP JUMPDEST POP PUSH1 0xC0 DUP4 ADD MLOAD PUSH2 0x29D9 PUSH1 0xC0 DUP7 ADD DUP3 PUSH2 0x28CE JUMP JUMPDEST POP PUSH1 0xE0 DUP4 ADD MLOAD PUSH2 0x29EC PUSH1 0xE0 DUP7 ADD DUP3 PUSH2 0x2925 JUMP JUMPDEST POP PUSH2 0x100 DUP4 ADD MLOAD PUSH2 0x2A01 PUSH2 0x100 DUP7 ADD DUP3 PUSH2 0x2934 JUMP JUMPDEST POP DUP1 SWAP2 POP POP SWAP3 SWAP2 POP POP JUMP JUMPDEST PUSH0 PUSH1 0x20 DUP3 ADD SWAP1 POP DUP2 DUP2 SUB PUSH0 DUP4 ADD MSTORE PUSH2 0x2A24 DUP2 DUP5 PUSH2 0x2943 JUMP JUMPDEST SWAP1 POP SWAP3 SWAP2 POP POP JUMP JUMPDEST PUSH0 PUSH1 0x20 DUP3 DUP5 SUB SLT ISZERO PUSH2 0x2A41 JUMPI PUSH2 0x2A40 PUSH2 0x242D JUMP JUMPDEST JUMPDEST PUSH0 DUP3 ADD CALLDATALOAD PUSH8 0xFFFFFFFFFFFFFFFF DUP2 GT ISZERO PUSH2 0x2A5E JUMPI PUSH2 0x2A5D PUSH2 0x2431 JUMP JUMPDEST JUMPDEST PUSH2 0x2A6A DUP5 DUP3 DUP6 ADD PUSH2 0x276F JUMP JUMPDEST SWAP2 POP POP SWAP3 SWAP2 POP POP JUMP JUMPDEST PUSH0 PUSH1 0x20 DUP3 ADD SWAP1 POP PUSH2 0x2A86 PUSH0 DUP4 ADD DUP5 PUSH2 0x24EC JUMP JUMPDEST SWAP3 SWAP2 POP POP JUMP JUMPDEST PUSH0 PUSH2 0x120 DUP3 ADD SWAP1 POP PUSH2 0x2AA0 PUSH0 DUP4 ADD DUP13 PUSH2 0x24D2 JUMP JUMPDEST PUSH2 0x2AAD PUSH1 0x20 DUP4 ADD DUP12 PUSH2 0x24D2 JUMP JUMPDEST PUSH2 0x2ABA PUSH1 0x40 DUP4 ADD DUP11 PUSH2 0x24D2 JUMP JUMPDEST DUP2 DUP2 SUB PUSH1 0x60 DUP4 ADD MSTORE PUSH2 0x2ACC DUP2 DUP10 PUSH2 0x254D JUMP JUMPDEST SWAP1 POP DUP2 DUP2 SUB PUSH1 0x80 DUP4 ADD MSTORE PUSH2 0x2AE0 DUP2 DUP9 PUSH2 0x254D JUMP JUMPDEST SWAP1 POP PUSH2 0x2AEF PUSH1 0xA0 DUP4 ADD DUP8 PUSH2 0x24D2 JUMP JUMPDEST PUSH2 0x2AFC PUSH1 0xC0 DUP4 ADD DUP7 PUSH2 0x24D2 JUMP JUMPDEST PUSH2 0x2B09 PUSH1 0xE0 DUP4 ADD DUP6 PUSH2 0x24EC JUMP JUMPDEST PUSH2 0x2B17 PUSH2 0x100 DUP4 ADD DUP5 PUSH2 0x24C3 JUMP JUMPDEST SWAP11 SWAP10 POP POP POP POP POP POP POP POP POP POP JUMP JUMPDEST PUSH0 PUSH1 0x20 DUP3 ADD SWAP1 POP PUSH2 0x2B38 PUSH0 DUP4 ADD DUP5 PUSH2 0x24D2 JUMP JUMPDEST SWAP3 SWAP2 POP POP JUMP JUMPDEST PUSH0 DUP1 PUSH0 DUP1 PUSH0 DUP1 PUSH0 DUP1 PUSH2 0x100 DUP10 DUP12 SUB SLT ISZERO PUSH2 0x2B5B JUMPI PUSH2 0x2B5A PUSH2 0x242D JUMP JUMPDEST JUMPDEST PUSH0 PUSH2 0x2B68 DUP12 DUP3 DUP13 ADD PUSH2 0x281E JUMP JUMPDEST SWAP9 POP POP PUSH1 0x20 PUSH2 0x2B79 DUP12 DUP3 DUP13 ADD PUSH2 0x281E JUMP JUMPDEST SWAP8 POP POP PUSH1 0x40 PUSH2 0x2B8A DUP12 DUP3 DUP13 ADD PUSH2 0x2454 JUMP JUMPDEST SWAP7 POP POP PUSH1 0x60 PUSH2 0x2B9B DUP12 DUP3 DUP13 ADD PUSH2 0x2454 JUMP JUMPDEST SWAP6 POP POP PUSH1 0x80 PUSH2 0x2BAC DUP12 DUP3 DUP13 ADD PUSH2 0x2454 JUMP JUMPDEST SWAP5 POP POP PUSH1 0xA0 PUSH2 0x2BBD DUP12 DUP3 DUP13 ADD PUSH2 0x261E JUMP JUMPDEST SWAP4 POP POP PUSH1 0xC0 PUSH2 0x2BCE DUP12 DUP3 DUP13 ADD PUSH2 0x261E JUMP JUMPDEST SWAP3 POP POP PUSH1 0xE0 DUP10 ADD CALLDATALOAD PUSH8 0xFFFFFFFFFFFFFFFF DUP2 GT ISZERO PUSH2 0x2BEF JUMPI PUSH2 0x2BEE PUSH2 0x2431 JUMP JUMPDEST JUMPDEST PUSH2 0x2BFB DUP12 DUP3 DUP13 ADD PUSH2 0x276F JUMP JUMPDEST SWAP2 POP POP SWAP3 SWAP6 SWAP9 POP SWAP3 SWAP6 SWAP9 SWAP1 SWAP4 SWAP7 POP JUMP JUMPDEST PUSH32 0x4E487B7100000000000000000000000000000000000000000000000000000000 PUSH0 MSTORE PUSH1 0x22 PUSH1 0x4 MSTORE PUSH1 0x24 PUSH0 REVERT JUMPDEST PUSH0 PUSH1 0x2 DUP3 DIV SWAP1 POP PUSH1 0x1 DUP3 AND DUP1 PUSH2 0x2C4F JUMPI PUSH1 0x7F DUP3 AND SWAP2 POP JUMPDEST PUSH1 0x20 DUP3 LT DUP2 SUB PUSH2 0x2C62 JUMPI PUSH2 0x2C61 PUSH2 0x2C0B JUMP JUMPDEST JUMPDEST POP SWAP2 SWAP1 POP JUMP JUMPDEST PUSH32 0x44414F3A4F6E6C792044414F206D656D626572732063616E20706572666F726D PUSH0 DUP3 ADD MSTORE PUSH32 0x207468697320616374696F6E0000000000000000000000000000000000000000 PUSH1 0x20 DUP3 ADD MSTORE POP JUMP JUMPDEST PUSH0 PUSH2 0x2CC2 PUSH1 0x2C DUP4 PUSH2 0x2505 JUMP JUMPDEST SWAP2 POP PUSH2 0x2CCD DUP3 PUSH2 0x2C68 JUMP JUMPDEST PUSH1 0x40 DUP3 ADD SWAP1 POP SWAP2 SWAP1 POP JUMP JUMPDEST PUSH0 PUSH1 0x20 DUP3 ADD SWAP1 POP DUP2 DUP2 SUB PUSH0 DUP4 ADD MSTORE PUSH2 0x2CEF DUP2 PUSH2 0x2CB6 JUMP JUMPDEST SWAP1 POP SWAP2 SWAP1 POP JUMP JUMPDEST PUSH32 0x44414F3A566F74696E6720706572696F64206973207374696C6C206163746976 PUSH0 DUP3 ADD MSTORE PUSH32 0x6500000000000000000000000000000000000000000000000000000000000000 PUSH1 0x20 DUP3 ADD MSTORE POP JUMP JUMPDEST PUSH0 PUSH2 0x2D50 PUSH1 0x21 DUP4 PUSH2 0x2505 JUMP JUMPDEST SWAP2 POP PUSH2 0x2D5B DUP3 PUSH2 0x2CF6 JUMP JUMPDEST PUSH1 0x40 DUP3 ADD SWAP1 POP SWAP2 SWAP1 POP JUMP JUMPDEST PUSH0 PUSH1 0x20 DUP3 ADD SWAP1 POP DUP2 DUP2 SUB PUSH0 DUP4 ADD MSTORE PUSH2 0x2D7D DUP2 PUSH2 0x2D44 JUMP JUMPDEST SWAP1 POP SWAP2 SWAP1 POP JUMP JUMPDEST PUSH32 0x44414F3A50726F706F73616C20616C7265616479206578656375746564000000 PUSH0 DUP3 ADD MSTORE POP JUMP JUMPDEST PUSH0 PUSH2 0x2DB8 PUSH1 0x1D DUP4 PUSH2 0x2505 JUMP JUMPDEST SWAP2 POP PUSH2 0x2DC3 DUP3 PUSH2 0x2D84 JUMP JUMPDEST PUSH1 0x20 DUP3 ADD SWAP1 POP SWAP2 SWAP1 POP JUMP JUMPDEST PUSH0 PUSH1 0x20 DUP3 ADD SWAP1 POP DUP2 DUP2 SUB PUSH0 DUP4 ADD MSTORE PUSH2 0x2DE5 DUP2 PUSH2 0x2DAC JUMP JUMPDEST SWAP1 POP SWAP2 SWAP1 POP JUMP JUMPDEST PUSH0 DUP2 SWAP1 POP SWAP2 SWAP1 POP JUMP JUMPDEST PUSH0 DUP2 SWAP1 POP SWAP2 SWAP1 POP JUMP JUMPDEST PUSH0 PUSH2 0x2E18 PUSH2 0x2E13 PUSH2 0x2E0E DUP5 PUSH2 0x2DEC JUMP JUMPDEST PUSH2 0x2DF5 JUMP JUMPDEST PUSH2 0x2435 JUMP JUMPDEST SWAP1 POP SWAP2 SWAP1 POP JUMP JUMPDEST PUSH2 0x2E28 DUP2 PUSH2 0x2DFE JUMP JUMPDEST DUP3 MSTORE POP POP JUMP JUMPDEST PUSH0 PUSH1 0x20 DUP3 ADD SWAP1 POP PUSH2 0x2E41 PUSH0 DUP4 ADD DUP5 PUSH2 0x2E1F JUMP JUMPDEST SWAP3 SWAP2 POP POP JUMP JUMPDEST PUSH0 PUSH1 0x40 DUP3 ADD SWAP1 POP PUSH2 0x2E5A PUSH0 DUP4 ADD DUP6 PUSH2 0x24D2 JUMP JUMPDEST PUSH2 0x2E67 PUSH1 0x20 DUP4 ADD DUP5 PUSH2 0x24EC JUMP JUMPDEST SWAP4 SWAP3 POP POP POP JUMP JUMPDEST PUSH32 0x44414F3A4465616C206973206E6F7420636F6D706C6574656400000000000000 PUSH0 DUP3 ADD MSTORE POP JUMP JUMPDEST PUSH0 PUSH2 0x2EA2 PUSH1 0x19 DUP4 PUSH2 0x2505 JUMP JUMPDEST SWAP2 POP PUSH2 0x2EAD DUP3 PUSH2 0x2E6E JUMP JUMPDEST PUSH1 0x20 DUP3 ADD SWAP1 POP SWAP2 SWAP1 POP JUMP JUMPDEST PUSH0 PUSH1 0x20 DUP3 ADD SWAP1 POP DUP2 DUP2 SUB PUSH0 DUP4 ADD MSTORE PUSH2 0x2ECF DUP2 PUSH2 0x2E96 JUMP JUMPDEST SWAP1 POP SWAP2 SWAP1 POP JUMP JUMPDEST PUSH32 0x44414F3A4E6F7420617574686F72697A656420746F2072617465000000000000 PUSH0 DUP3 ADD MSTORE POP JUMP JUMPDEST PUSH0 PUSH2 0x2F0A PUSH1 0x1A DUP4 PUSH2 0x2505 JUMP JUMPDEST SWAP2 POP PUSH2 0x2F15 DUP3 PUSH2 0x2ED6 JUMP JUMPDEST PUSH1 0x20 DUP3 ADD SWAP1 POP SWAP2 SWAP1 POP JUMP JUMPDEST PUSH0 PUSH1 0x20 DUP3 ADD SWAP1 POP DUP2 DUP2 SUB PUSH0 DUP4 ADD MSTORE PUSH2 0x2F37 DUP2 PUSH2 0x2EFE JUMP JUMPDEST SWAP1 POP SWAP2 SWAP1 POP JUMP JUMPDEST PUSH32 0x44414F3A416C7265616479207261746564000000000000000000000000000000 PUSH0 DUP3 ADD MSTORE POP JUMP JUMPDEST PUSH0 PUSH2 0x2F72 PUSH1 0x11 DUP4 PUSH2 0x2505 JUMP JUMPDEST SWAP2 POP PUSH2 0x2F7D DUP3 PUSH2 0x2F3E JUMP JUMPDEST PUSH1 0x20 DUP3 ADD SWAP1 POP SWAP2 SWAP1 POP JUMP JUMPDEST PUSH0 PUSH1 0x20 DUP3 ADD SWAP1 POP DUP2 DUP2 SUB PUSH0 DUP4 ADD MSTORE PUSH2 0x2F9F DUP2 PUSH2 0x2F66 JUMP JUMPDEST SWAP1 POP SWAP2 SWAP1 POP JUMP JUMPDEST PUSH0 DUP2 SWAP1 POP DUP2 PUSH0 MSTORE PUSH1 0x20 PUSH0 KECCAK256 SWAP1 POP SWAP2 SWAP1 POP JUMP JUMPDEST PUSH0 PUSH1 0x20 PUSH1 0x1F DUP4 ADD DIV SWAP1 POP SWAP2 SWAP1 POP JUMP JUMPDEST PUSH0 DUP3 DUP3 SHL SWAP1 POP SWAP3 SWAP2 POP POP JUMP JUMPDEST PUSH0 PUSH1 0x8 DUP4 MUL PUSH2 0x3002 PUSH32 0xFFFFFFFFFFFFFFFFFFFFFFFFFFFFFFFFFFFFFFFFFFFFFFFFFFFFFFFFFFFFFFFF DUP3 PUSH2 0x2FC7 JUMP JUMPDEST PUSH2 0x300C DUP7 DUP4 PUSH2 0x2FC7 JUMP JUMPDEST SWAP6 POP DUP1 NOT DUP5 AND SWAP4 POP DUP1 DUP7 AND DUP5 OR SWAP3 POP POP POP SWAP4 SWAP3 POP POP POP JUMP JUMPDEST PUSH0 PUSH2 0x303E PUSH2 0x3039 PUSH2 0x3034 DUP5 PUSH2 0x2435 JUMP JUMPDEST PUSH2 0x2DF5 JUMP JUMPDEST PUSH2 0x2435 JUMP JUMPDEST SWAP1 POP SWAP2 SWAP1 POP JUMP JUMPDEST PUSH0 DUP2 SWAP1 POP SWAP2 SWAP1 POP JUMP JUMPDEST PUSH2 0x3057 DUP4 PUSH2 0x3024 JUMP JUMPDEST PUSH2 0x306B PUSH2 0x3063 DUP3 PUSH2 0x3045 JUMP JUMPDEST DUP5 DUP5 SLOAD PUSH2 0x2FD3 JUMP JUMPDEST DUP3 SSTORE POP POP POP POP JUMP JUMPDEST PUSH0 SWAP1 JUMP JUMPDEST PUSH2 0x307F PUSH2 0x3073 JUMP JUMPDEST PUSH2 0x308A DUP2 DUP5 DUP5 PUSH2 0x304E JUMP JUMPDEST POP POP POP JUMP JUMPDEST JUMPDEST DUP2 DUP2 LT ISZERO PUSH2 0x30AD JUMPI PUSH2 0x30A2 PUSH0 DUP3 PUSH2 0x3077 JUMP JUMPDEST PUSH1 0x1 DUP2 ADD SWAP1 POP PUSH2 0x3090 JUMP JUMPDEST POP POP JUMP JUMPDEST PUSH1 0x1F DUP3 GT ISZERO PUSH2 0x30F2 JUMPI PUSH2 0x30C3 DUP2 PUSH2 0x2FA6 JUMP JUMPDEST PUSH2 0x30CC DUP5 PUSH2 0x2FB8 JUMP JUMPDEST DUP2 ADD PUSH1 0x20 DUP6 LT ISZERO PUSH2 0x30DB JUMPI DUP2 SWAP1 POP JUMPDEST PUSH2 0x30EF PUSH2 0x30E7 DUP6 PUSH2 0x2FB8 JUMP JUMPDEST DUP4 ADD DUP3 PUSH2 0x308F JUMP JUMPDEST POP POP JUMPDEST POP POP POP JUMP JUMPDEST PUSH0 DUP3 DUP3 SHR SWAP1 POP SWAP3 SWAP2 POP POP JUMP JUMPDEST PUSH0 PUSH2 0x3112 PUSH0 NOT DUP5 PUSH1 0x8 MUL PUSH2 0x30F7 JUMP JUMPDEST NOT DUP1 DUP4 AND SWAP2 POP POP SWAP3 SWAP2 POP POP JUMP JUMPDEST PUSH0 PUSH2 0x312A DUP4 DUP4 PUSH2 0x3103 JUMP JUMPDEST SWAP2 POP DUP3 PUSH1 0x2 MUL DUP3 OR SWAP1 POP SWAP3 SWAP2 POP POP JUMP JUMPDEST PUSH2 0x3143 DUP3 PUSH2 0x24FB JUMP JUMPDEST PUSH8 0xFFFFFFFFFFFFFFFF DUP2 GT ISZERO PUSH2 0x315C JUMPI PUSH2 0x315B PUSH2 0x2678 JUMP JUMPDEST JUMPDEST PUSH2 0x3166 DUP3 SLOAD PUSH2 0x2C38 JUMP JUMPDEST PUSH2 0x3171 DUP3 DUP3 DUP6 PUSH2 0x30B1 JUMP JUMPDEST PUSH0 PUSH1 0x20 SWAP1 POP PUSH1 0x1F DUP4 GT PUSH1 0x1 DUP2 EQ PUSH2 0x31A2 JUMPI PUSH0 DUP5 ISZERO PUSH2 0x3190 JUMPI DUP3 DUP8 ADD MLOAD SWAP1 POP JUMPDEST PUSH2 0x319A DUP6 DUP3 PUSH2 0x311F JUMP JUMPDEST DUP7 SSTORE POP PUSH2 0x3201 JUMP JUMPDEST PUSH1 0x1F NOT DUP5 AND PUSH2 0x31B0 DUP7 PUSH2 0x2FA6 JUMP JUMPDEST PUSH0 JUMPDEST DUP3 DUP2 LT ISZERO PUSH2 0x31D7 JUMPI DUP5 DUP10 ADD MLOAD DUP3 SSTORE PUSH1 0x1 DUP3 ADD SWAP2 POP PUSH1 0x20 DUP6 ADD SWAP5 POP PUSH1 0x20 DUP2 ADD SWAP1 POP PUSH2 0x31B2 JUMP JUMPDEST DUP7 DUP4 LT ISZERO PUSH2 0x31F4 JUMPI DUP5 DUP10 ADD MLOAD PUSH2 0x31F0 PUSH1 0x1F DUP10 AND DUP3 PUSH2 0x3103 JUMP JUMPDEST DUP4 SSTORE POP JUMPDEST PUSH1 0x1 PUSH1 0x2 DUP9 MUL ADD DUP9 SSTORE POP POP POP JUMPDEST POP POP POP POP POP POP JUMP JUMPDEST PUSH0 PUSH1 0x20 DUP3 ADD SWAP1 POP PUSH2 0x321C PUSH0 DUP4 ADD DUP5 PUSH2 0x24C3 JUMP JUMPDEST SWAP3 SWAP2 POP POP JUMP JUMPDEST PUSH0 DUP2 MLOAD SWAP1 POP PUSH2 0x3230 DUP2 PUSH2 0x243E JUMP JUMPDEST SWAP3 SWAP2 POP POP JUMP JUMPDEST PUSH0 PUSH1 0x20 DUP3 DUP5 SUB SLT ISZERO PUSH2 0x324B JUMPI PUSH2 0x324A PUSH2 0x242D JUMP JUMPDEST JUMPDEST PUSH0 PUSH2 0x3258 DUP5 DUP3 DUP6 ADD PUSH2 0x3222 JUMP JUMPDEST SWAP2 POP POP SWAP3 SWAP2 POP POP JUMP JUMPDEST PUSH32 0x4E487B7100000000000000000000000000000000000000000000000000000000 PUSH0 MSTORE PUSH1 0x11 PUSH1 0x4 MSTORE PUSH1 0x24 PUSH0 REVERT JUMPDEST PUSH0 PUSH2 0x3298 DUP3 PUSH2 0x2435 JUMP JUMPDEST SWAP2 POP PUSH2 0x32A3 DUP4 PUSH2 0x2435 JUMP JUMPDEST SWAP3 POP DUP3 DUP3 SUB SWAP1 POP DUP2 DUP2 GT ISZERO PUSH2 0x32BB JUMPI PUSH2 0x32BA PUSH2 0x3261 JUMP JUMPDEST JUMPDEST SWAP3 SWAP2 POP POP JUMP JUMPDEST PUSH0 PUSH2 0x32CB DUP3 PUSH2 0x2435 JUMP JUMPDEST SWAP2 POP PUSH2 0x32D6 DUP4 PUSH2 0x2435 JUMP JUMPDEST SWAP3 POP DUP3 DUP3 MUL PUSH2 0x32E4 DUP2 PUSH2 0x2435 JUMP JUMPDEST SWAP2 POP DUP3 DUP3 DIV DUP5 EQ DUP4 ISZERO OR PUSH2 0x32FB JUMPI PUSH2 0x32FA PUSH2 0x3261 JUMP JUMPDEST JUMPDEST POP SWAP3 SWAP2 POP POP JUMP JUMPDEST PUSH32 0x4E487B7100000000000000000000000000000000000000000000000000000000 PUSH0 MSTORE PUSH1 0x12 PUSH1 0x4 MSTORE PUSH1 0x24 PUSH0 REVERT JUMPDEST PUSH0 PUSH2 0x3339 DUP3 PUSH2 0x2435 JUMP JUMPDEST SWAP2 POP PUSH2 0x3344 DUP4 PUSH2 0x2435 JUMP JUMPDEST SWAP3 POP DUP3 PUSH2 0x3354 JUMPI PUSH2 0x3353 PUSH2 0x3302 JUMP JUMPDEST JUMPDEST DUP3 DUP3 DIV SWAP1 POP SWAP3 SWAP2 POP POP JUMP JUMPDEST PUSH0 PUSH1 0x60 DUP3 ADD SWAP1 POP PUSH2 0x3372 PUSH0 DUP4 ADD DUP7 PUSH2 0x24C3 JUMP JUMPDEST PUSH2 0x337F PUSH1 0x20 DUP4 ADD DUP6 PUSH2 0x24D2 JUMP JUMPDEST PUSH2 0x338C PUSH1 0x40 DUP4 ADD DUP5 PUSH2 0x24D2 JUMP JUMPDEST SWAP5 SWAP4 POP POP POP POP JUMP JUMPDEST PUSH0 DUP2 MLOAD SWAP1 POP PUSH2 0x33A2 DUP2 PUSH2 0x2608 JUMP JUMPDEST SWAP3 SWAP2 POP POP JUMP JUMPDEST PUSH0 PUSH1 0x20 DUP3 DUP5 SUB SLT ISZERO PUSH2 0x33BD JUMPI PUSH2 0x33BC PUSH2 0x242D JUMP JUMPDEST JUMPDEST PUSH0 PUSH2 0x33CA DUP5 DUP3 DUP6 ADD PUSH2 0x3394 JUMP JUMPDEST SWAP2 POP POP SWAP3 SWAP2 POP POP JUMP JUMPDEST PUSH32 0x44414F3A416C72656164792061206D656D626572000000000000000000000000 PUSH0 DUP3 ADD MSTORE POP JUMP JUMPDEST PUSH0 PUSH2 0x3407 PUSH1 0x14 DUP4 PUSH2 0x2505 JUMP JUMPDEST SWAP2 POP PUSH2 0x3412 DUP3 PUSH2 0x33D3 JUMP JUMPDEST PUSH1 0x20 DUP3 ADD SWAP1 POP SWAP2 SWAP1 POP JUMP JUMPDEST PUSH0 PUSH1 0x20 DUP3 ADD SWAP1 POP DUP2 DUP2 SUB PUSH0 DUP4 ADD MSTORE PUSH2 0x3434 DUP2 PUSH2 0x33FB JUMP JUMPDEST SWAP1 POP SWAP2 SWAP1 POP JUMP JUMPDEST PUSH32 0x44414F3A72657075746174696F6E206E6F7420656E6F75677468000000000000 PUSH0 DUP3 ADD MSTORE POP JUMP JUMPDEST PUSH0 PUSH2 0x346F PUSH1 0x1A DUP4 PUSH2 0x2505 JUMP JUMPDEST SWAP2 POP PUSH2 0x347A DUP3 PUSH2 0x343B JUMP JUMPDEST PUSH1 0x20 DUP3 ADD SWAP1 POP SWAP2 SWAP1 POP JUMP JUMPDEST PUSH0 PUSH1 0x20 DUP3 ADD SWAP1 POP DUP2 DUP2 SUB PUSH0 DUP4 ADD MSTORE PUSH2 0x349C DUP2 PUSH2 0x3463 JUMP JUMPDEST SWAP1 POP SWAP2 SWAP1 POP JUMP JUMPDEST PUSH0 DUP2 SWAP1 POP SWAP2 SWAP1 POP JUMP JUMPDEST PUSH0 PUSH2 0x34C6 PUSH2 0x34C1 PUSH2 0x34BC DUP5 PUSH2 0x34A3 JUMP JUMPDEST PUSH2 0x2DF5 JUMP JUMPDEST PUSH2 0x2435 JUMP JUMPDEST SWAP1 POP SWAP2 SWAP1 POP JUMP JUMPDEST PUSH2 0x34D6 DUP2 PUSH2 0x34AC JUMP JUMPDEST DUP3 MSTORE POP POP JUMP JUMPDEST PUSH0 PUSH1 0x20 DUP3 ADD SWAP1 POP PUSH2 0x34EF PUSH0 DUP4 ADD DUP5 PUSH2 0x34CD JUMP JUMPDEST SWAP3 SWAP2 POP POP JUMP JUMPDEST PUSH32 0x44414F3A4465616C20616C726561647920646973707574656400000000000000 PUSH0 DUP3 ADD MSTORE POP JUMP JUMPDEST PUSH0 PUSH2 0x3529 PUSH1 0x19 DUP4 PUSH2 0x2505 JUMP JUMPDEST SWAP2 POP PUSH2 0x3534 DUP3 PUSH2 0x34F5 JUMP JUMPDEST PUSH1 0x20 DUP3 ADD SWAP1 POP SWAP2 SWAP1 POP JUMP JUMPDEST PUSH0 PUSH1 0x20 DUP3 ADD SWAP1 POP DUP2 DUP2 SUB PUSH0 DUP4 ADD MSTORE PUSH2 0x3556 DUP2 PUSH2 0x351D JUMP JUMPDEST SWAP1 POP SWAP2 SWAP1 POP JUMP JUMPDEST PUSH32 0x44414F3A4E6F7420617574686F72697A65640000000000000000000000000000 PUSH0 DUP3 ADD MSTORE POP JUMP JUMPDEST PUSH0 PUSH2 0x3591 PUSH1 0x12 DUP4 PUSH2 0x2505 JUMP JUMPDEST SWAP2 POP PUSH2 0x359C DUP3 PUSH2 0x355D JUMP JUMPDEST PUSH1 0x20 DUP3 ADD SWAP1 POP SWAP2 SWAP1 POP JUMP JUMPDEST PUSH0 PUSH1 0x20 DUP3 ADD SWAP1 POP DUP2 DUP2 SUB PUSH0 DUP4 ADD MSTORE PUSH2 0x35BE DUP2 PUSH2 0x3585 JUMP JUMPDEST SWAP1 POP SWAP2 SWAP1 POP JUMP JUMPDEST PUSH0 PUSH2 0x35CF DUP3 PUSH2 0x2435 JUMP JUMPDEST SWAP2 POP PUSH32 0xFFFFFFFFFFFFFFFFFFFFFFFFFFFFFFFFFFFFFFFFFFFFFFFFFFFFFFFFFFFFFFFF DUP3 SUB PUSH2 0x3601 JUMPI PUSH2 0x3600 PUSH2 0x3261 JUMP JUMPDEST JUMPDEST PUSH1 0x1 DUP3 ADD SWAP1 POP SWAP2 SWAP1 POP JUMP JUMPDEST PUSH0 PUSH2 0x3616 DUP3 PUSH2 0x2435 JUMP JUMPDEST SWAP2 POP PUSH2 0x3621 DUP4 PUSH2 0x2435 JUMP JUMPDEST SWAP3 POP DUP3 DUP3 ADD SWAP1 POP DUP1 DUP3 GT ISZERO PUSH2 0x3639 JUMPI PUSH2 0x3638 PUSH2 0x3261 JUMP JUMPDEST JUMPDEST SWAP3 SWAP2 POP POP JUMP JUMPDEST PUSH0 PUSH1 0x60 DUP3 ADD SWAP1 POP PUSH2 0x3652 PUSH0 DUP4 ADD DUP7 PUSH2 0x24D2 JUMP JUMPDEST DUP2 DUP2 SUB PUSH1 0x20 DUP4 ADD MSTORE PUSH2 0x3664 DUP2 DUP6 PUSH2 0x254D JUMP JUMPDEST SWAP1 POP PUSH2 0x3673 PUSH1 0x40 DUP4 ADD DUP5 PUSH2 0x24C3 JUMP JUMPDEST SWAP5 SWAP4 POP POP POP POP JUMP JUMPDEST PUSH32 0x44414F3A566F74696E6720706572696F642068617320656E6465640000000000 PUSH0 DUP3 ADD MSTORE POP JUMP JUMPDEST PUSH0 PUSH2 0x36AF PUSH1 0x1B DUP4 PUSH2 0x2505 JUMP JUMPDEST SWAP2 POP PUSH2 0x36BA DUP3 PUSH2 0x367B JUMP JUMPDEST PUSH1 0x20 DUP3 ADD SWAP1 POP SWAP2 SWAP1 POP JUMP JUMPDEST PUSH0 PUSH1 0x20 DUP3 ADD SWAP1 POP DUP2 DUP2 SUB PUSH0 DUP4 ADD MSTORE PUSH2 0x36DC DUP2 PUSH2 0x36A3 JUMP JUMPDEST SWAP1 POP SWAP2 SWAP1 POP JUMP JUMPDEST PUSH32 0x44414F3A4469737075746520616C726561647920657865637574656400000000 PUSH0 DUP3 ADD MSTORE POP JUMP JUMPDEST PUSH0 PUSH2 0x3717 PUSH1 0x1C DUP4 PUSH2 0x2505 JUMP JUMPDEST SWAP2 POP PUSH2 0x3722 DUP3 PUSH2 0x36E3 JUMP JUMPDEST PUSH1 0x20 DUP3 ADD SWAP1 POP SWAP2 SWAP1 POP JUMP JUMPDEST PUSH0 PUSH1 0x20 DUP3 ADD SWAP1 POP DUP2 DUP2 SUB PUSH0 DUP4 ADD MSTORE PUSH2 0x3744 DUP2 PUSH2 0x370B JUMP JUMPDEST SWAP1 POP SWAP2 SWAP1 POP JUMP JUMPDEST PUSH0 PUSH1 0x60 DUP3 ADD SWAP1 POP PUSH2 0x375E PUSH0 DUP4 ADD DUP7 PUSH2 0x24D2 JUMP JUMPDEST PUSH2 0x376B PUSH1 0x20 DUP4 ADD DUP6 PUSH2 0x24C3 JUMP JUMPDEST PUSH2 0x3778 PUSH1 0x40 DUP4 ADD DUP5 PUSH2 0x24EC JUMP JUMPDEST SWAP5 SWAP4 POP POP POP POP JUMP JUMPDEST PUSH32 0x44414F3A566F74696E6720706572696F64206973206E6F74206F766572000000 PUSH0 DUP3 ADD MSTORE POP JUMP JUMPDEST PUSH0 PUSH2 0x37B4 PUSH1 0x1D DUP4 PUSH2 0x2505 JUMP JUMPDEST SWAP2 POP PUSH2 0x37BF DUP3 PUSH2 0x3780 JUMP JUMPDEST PUSH1 0x20 DUP3 ADD SWAP1 POP SWAP2 SWAP1 POP JUMP JUMPDEST PUSH0 PUSH1 0x20 DUP3 ADD SWAP1 POP DUP2 DUP2 SUB PUSH0 DUP4 ADD MSTORE PUSH2 0x37E1 DUP2 PUSH2 0x37A8 JUMP JUMPDEST SWAP1 POP SWAP2 SWAP1 POP JUMP JUMPDEST PUSH0 PUSH1 0x40 DUP3 ADD SWAP1 POP PUSH2 0x37FB PUSH0 DUP4 ADD DUP6 PUSH2 0x24C3 JUMP JUMPDEST PUSH2 0x3808 PUSH1 0x20 DUP4 ADD DUP5 PUSH2 0x24D2 JUMP JUMPDEST SWAP4 SWAP3 POP POP POP JUMP JUMPDEST POP JUMP JUMPDEST PUSH0 PUSH2 0x381D PUSH0 DUP4 PUSH2 0x2505 JUMP JUMPDEST SWAP2 POP PUSH2 0x3828 DUP3 PUSH2 0x380F JUMP JUMPDEST PUSH0 DUP3 ADD SWAP1 POP SWAP2 SWAP1 POP JUMP JUMPDEST PUSH0 PUSH1 0x20 DUP3 ADD SWAP1 POP DUP2 DUP2 SUB PUSH0 DUP4 ADD MSTORE PUSH2 0x3849 DUP2 PUSH2 0x3812 JUMP JUMPDEST SWAP1 POP SWAP2 SWAP1 POP JUMP INVALID LOG2 PUSH5 0x6970667358 0x22 SLT KECCAK256 SWAP12 0xAF 0xBA NOT 0xDC CODECOPY 0xEC SWAP10 0xD8 SLOAD SLOAD 0x4D EQ 0x2E DUP5 0xAA PREVRANDAO 0xE6 PUSH31 0x237284A7AC1D270AE0D0C960CB64736F6C6343000816003300000000000000 "
		},
		"gasEstimates": {
			"creation": {
				"codeDepositCost": "2894000",
				"executionCost": "infinite",
				"totalCost": "infinite"
			},
			"external": {
				"_getDisputeResult(uint256)": "infinite",
				"addDeal(address,address,uint256,uint256,uint256,bool,bool,string)": "infinite",
				"checkIsCompleted(uint256)": "27264",
				"createProposal(string)": "infinite",
				"deals(uint256)": "infinite",
				"disputeCount()": "2470",
				"disputes(uint256)": "infinite",
				"executeProposal(uint256)": "infinite",
				"isMember()": "2648",
				"isPawned(uint256)": "2808",
				"proposalCount()": "2535",
				"rateDeal(uint256,uint256,string)": "infinite",
				"registerAsMember()": "infinite",
				"resolveDispute(uint256)": "infinite",
				"setIsPawned(uint256,bool)": "24966",
				"submitDispute(uint256,string,string,address)": "infinite",
				"vote(uint256,bool)": "infinite",
				"voteOnDispute(uint256,bool)": "infinite"
			}
		},
		"methodIdentifiers": {
			"_getDisputeResult(uint256)": "4406a2fd",
			"addDeal(address,address,uint256,uint256,uint256,bool,bool,string)": "c8af1d6b",
			"checkIsCompleted(uint256)": "a4f60002",
			"createProposal(string)": "49c2a1a6",
			"deals(uint256)": "03988f84",
			"disputeCount()": "a28889e1",
			"disputes(uint256)": "564a565d",
			"executeProposal(uint256)": "0d61b519",
			"isMember()": "d02982cf",
			"isPawned(uint256)": "6b842f7f",
			"proposalCount()": "da35c664",
			"rateDeal(uint256,uint256,string)": "3b22369c",
			"registerAsMember()": "4217df12",
			"resolveDispute(uint256)": "c2b7b868",
			"setIsPawned(uint256,bool)": "03d0a81a",
			"submitDispute(uint256,string,string,address)": "43b32673",
			"vote(uint256,bool)": "c9d27afe",
			"voteOnDispute(uint256,bool)": "a4f5df12"
		}
	},
	"abi": [
		{
			"inputs": [
				{
					"internalType": "address",
					"name": "_user",
					"type": "address"
				},
				{
					"internalType": "address",
					"name": "_RRT",
					"type": "address"
				}
			],
			"stateMutability": "nonpayable",
			"type": "constructor"
		},
		{
			"anonymous": false,
			"inputs": [
				{
					"indexed": false,
					"internalType": "address",
					"name": "member",
					"type": "address"
				}
			],
			"name": "MemberRegistered",
			"type": "event"
		},
		{
			"anonymous": false,
			"inputs": [
				{
					"indexed": false,
					"internalType": "uint256",
					"name": "proposalId",
					"type": "uint256"
				},
				{
					"indexed": false,
					"internalType": "string",
					"name": "description",
					"type": "string"
				},
				{
					"indexed": false,
					"internalType": "address",
					"name": "proposer",
					"type": "address"
				}
			],
			"name": "ProposalCreated",
			"type": "event"
		},
		{
			"anonymous": false,
			"inputs": [
				{
					"indexed": false,
					"internalType": "uint256",
					"name": "proposalId",
					"type": "uint256"
				},
				{
					"indexed": false,
					"internalType": "bool",
					"name": "success",
					"type": "bool"
				}
			],
			"name": "ProposalExecuted",
			"type": "event"
		},
		{
			"anonymous": false,
			"inputs": [
				{
					"indexed": false,
					"internalType": "uint256",
					"name": "proposalId",
					"type": "uint256"
				},
				{
					"indexed": false,
					"internalType": "address",
					"name": "voter",
					"type": "address"
				},
				{
					"indexed": false,
					"internalType": "bool",
					"name": "support",
					"type": "bool"
				}
			],
			"name": "Voted",
			"type": "event"
		},
		{
			"inputs": [
				{
					"internalType": "uint256",
					"name": "_propertyId",
					"type": "uint256"
				}
			],
			"name": "_getDisputeResult",
			"outputs": [
				{
					"components": [
						{
							"internalType": "uint256",
							"name": "disputeId",
							"type": "uint256"
						},
						{
							"internalType": "uint256",
							"name": "dealId",
							"type": "uint256"
						},
						{
							"internalType": "uint256",
							"name": "deadline",
							"type": "uint256"
						},
						{
							"internalType": "string",
							"name": "disputeDescription",
							"type": "string"
						},
						{
							"internalType": "string",
							"name": "proof",
							"type": "string"
						},
						{
							"internalType": "uint256",
							"name": "votesFor",
							"type": "uint256"
						},
						{
							"internalType": "uint256",
							"name": "votesAgainst",
							"type": "uint256"
						},
						{
							"internalType": "bool",
							"name": "executed",
							"type": "bool"
						},
						{
							"internalType": "address",
							"name": "roe",
							"type": "address"
						}
					],
					"internalType": "struct IRentDeal.Dispute",
					"name": "",
					"type": "tuple"
				}
			],
			"stateMutability": "view",
			"type": "function"
		},
		{
			"inputs": [
				{
					"internalType": "address",
					"name": "_roomer",
					"type": "address"
				},
				{
					"internalType": "address",
					"name": "_landord",
					"type": "address"
				},
				{
					"internalType": "uint256",
					"name": "_propertyId",
					"type": "uint256"
				},
				{
					"internalType": "uint256",
					"name": "_rentTimeStart",
					"type": "uint256"
				},
				{
					"internalType": "uint256",
					"name": "_rentTimeEnd",
					"type": "uint256"
				},
				{
					"internalType": "bool",
					"name": "_isCompleted",
					"type": "bool"
				},
				{
					"internalType": "bool",
					"name": "_isDisputed",
					"type": "bool"
				},
				{
					"internalType": "string",
					"name": "_rentContract",
					"type": "string"
				}
			],
			"name": "addDeal",
			"outputs": [
				{
					"internalType": "bool",
					"name": "",
					"type": "bool"
				}
			],
			"stateMutability": "nonpayable",
			"type": "function"
		},
		{
			"inputs": [
				{
					"internalType": "uint256",
					"name": "_propertyId",
					"type": "uint256"
				}
			],
			"name": "checkIsCompleted",
			"outputs": [
				{
					"internalType": "bool",
					"name": "",
					"type": "bool"
				}
			],
			"stateMutability": "nonpayable",
			"type": "function"
		},
		{
			"inputs": [
				{
					"internalType": "string",
					"name": "description",
					"type": "string"
				}
			],
			"name": "createProposal",
			"outputs": [
				{
					"internalType": "bool",
					"name": "",
					"type": "bool"
				}
			],
			"stateMutability": "nonpayable",
			"type": "function"
		},
		{
			"inputs": [
				{
					"internalType": "uint256",
					"name": "",
					"type": "uint256"
				}
			],
			"name": "deals",
			"outputs": [
				{
					"internalType": "address",
					"name": "roomer",
					"type": "address"
				},
				{
					"internalType": "address",
					"name": "landord",
					"type": "address"
				},
				{
					"internalType": "uint256",
					"name": "propertyId",
					"type": "uint256"
				},
				{
					"internalType": "uint256",
					"name": "rentTimeStart",
					"type": "uint256"
				},
				{
					"internalType": "uint256",
					"name": "rentTimeEnd",
					"type": "uint256"
				},
				{
					"internalType": "bool",
					"name": "isCompleted",
					"type": "bool"
				},
				{
					"internalType": "bool",
					"name": "isDisputed",
					"type": "bool"
				},
				{
					"internalType": "string",
					"name": "rentContract",
					"type": "string"
				}
			],
			"stateMutability": "view",
			"type": "function"
		},
		{
			"inputs": [],
			"name": "disputeCount",
			"outputs": [
				{
					"internalType": "uint256",
					"name": "",
					"type": "uint256"
				}
			],
			"stateMutability": "view",
			"type": "function"
		},
		{
			"inputs": [
				{
					"internalType": "uint256",
					"name": "",
					"type": "uint256"
				}
			],
			"name": "disputes",
			"outputs": [
				{
					"internalType": "uint256",
					"name": "disputeId",
					"type": "uint256"
				},
				{
					"internalType": "uint256",
					"name": "dealId",
					"type": "uint256"
				},
				{
					"internalType": "uint256",
					"name": "deadline",
					"type": "uint256"
				},
				{
					"internalType": "string",
					"name": "disputeDescription",
					"type": "string"
				},
				{
					"internalType": "string",
					"name": "proof",
					"type": "string"
				},
				{
					"internalType": "uint256",
					"name": "votesFor",
					"type": "uint256"
				},
				{
					"internalType": "uint256",
					"name": "votesAgainst",
					"type": "uint256"
				},
				{
					"internalType": "bool",
					"name": "executed",
					"type": "bool"
				},
				{
					"internalType": "address",
					"name": "roe",
					"type": "address"
				}
			],
			"stateMutability": "view",
			"type": "function"
		},
		{
			"inputs": [
				{
					"internalType": "uint256",
					"name": "proposalId",
					"type": "uint256"
				}
			],
			"name": "executeProposal",
			"outputs": [],
			"stateMutability": "nonpayable",
			"type": "function"
		},
		{
			"inputs": [],
			"name": "isMember",
			"outputs": [
				{
					"internalType": "bool",
					"name": "",
					"type": "bool"
				}
			],
			"stateMutability": "view",
			"type": "function"
		},
		{
			"inputs": [
				{
					"internalType": "uint256",
					"name": "",
					"type": "uint256"
				}
			],
			"name": "isPawned",
			"outputs": [
				{
					"internalType": "bool",
					"name": "",
					"type": "bool"
				}
			],
			"stateMutability": "view",
			"type": "function"
		},
		{
			"inputs": [],
			"name": "proposalCount",
			"outputs": [
				{
					"internalType": "uint256",
					"name": "",
					"type": "uint256"
				}
			],
			"stateMutability": "view",
			"type": "function"
		},
		{
			"inputs": [
				{
					"internalType": "uint256",
					"name": "dealId",
					"type": "uint256"
				},
				{
					"internalType": "uint256",
					"name": "_grade",
					"type": "uint256"
				},
				{
					"internalType": "string",
					"name": "_wards",
					"type": "string"
				}
			],
			"name": "rateDeal",
			"outputs": [],
			"stateMutability": "nonpayable",
			"type": "function"
		},
		{
			"inputs": [],
			"name": "registerAsMember",
			"outputs": [],
			"stateMutability": "nonpayable",
			"type": "function"
		},
		{
			"inputs": [
				{
					"internalType": "uint256",
					"name": "disputeId",
					"type": "uint256"
				}
			],
			"name": "resolveDispute",
			"outputs": [],
			"stateMutability": "nonpayable",
			"type": "function"
		},
		{
			"inputs": [
				{
					"internalType": "uint256",
					"name": "_propertyId",
					"type": "uint256"
				},
				{
					"internalType": "bool",
					"name": "_isPawned",
					"type": "bool"
				}
			],
			"name": "setIsPawned",
			"outputs": [],
			"stateMutability": "nonpayable",
			"type": "function"
		},
		{
			"inputs": [
				{
					"internalType": "uint256",
					"name": "dealId",
					"type": "uint256"
				},
				{
					"internalType": "string",
					"name": "description",
					"type": "string"
				},
				{
					"internalType": "string",
					"name": "proof",
					"type": "string"
				},
				{
					"internalType": "address",
					"name": "roe",
					"type": "address"
				}
			],
			"name": "submitDispute",
			"outputs": [],
			"stateMutability": "nonpayable",
			"type": "function"
		},
		{
			"inputs": [
				{
					"internalType": "uint256",
					"name": "proposalId",
					"type": "uint256"
				},
				{
					"internalType": "bool",
					"name": "support",
					"type": "bool"
				}
			],
			"name": "vote",
			"outputs": [],
			"stateMutability": "nonpayable",
			"type": "function"
		},
		{
			"inputs": [
				{
					"internalType": "uint256",
					"name": "disputeId",
					"type": "uint256"
				},
				{
					"internalType": "bool",
					"name": "support",
					"type": "bool"
				}
			],
			"name": "voteOnDispute",
			"outputs": [],
			"stateMutability": "nonpayable",
			"type": "function"
		}
	]
}